{
    "contractName": "HedgexSingle",
    "abi": [
        {
            "inputs": [
                {
                    "internalType": "address",
                    "name": "_token0",
                    "type": "address"
                },
                {
                    "internalType": "address",
                    "name": "_feedPrice",
                    "type": "address"
                },
                {
                    "internalType": "uint256",
                    "name": "_feedPriceDecimal",
                    "type": "uint256"
                },
                {
                    "internalType": "uint256",
                    "name": "_minStartPool",
                    "type": "uint256"
                },
                {
                    "internalType": "uint8",
                    "name": "_leverage",
                    "type": "uint8"
                },
                {
                    "internalType": "int8",
                    "name": "_amountDecimal",
                    "type": "int8"
                }
            ],
            "stateMutability": "nonpayable",
            "type": "constructor"
        },
        {
            "anonymous": false,
            "inputs": [
                {
                    "indexed": true,
                    "internalType": "address",
                    "name": "owner",
                    "type": "address"
                },
                {
                    "indexed": true,
                    "internalType": "address",
                    "name": "spender",
                    "type": "address"
                },
                {
                    "indexed": false,
                    "internalType": "uint256",
                    "name": "value",
                    "type": "uint256"
                }
            ],
            "name": "Approval",
            "type": "event"
        },
        {
            "anonymous": false,
            "inputs": [
                {
                    "indexed": true,
                    "internalType": "address",
                    "name": "sender",
                    "type": "address"
                },
                {
                    "indexed": false,
                    "internalType": "uint256",
                    "name": "amount",
                    "type": "uint256"
                }
            ],
            "name": "Burn",
            "type": "event"
        },
        {
            "anonymous": false,
            "inputs": [
                {
                    "indexed": true,
                    "internalType": "address",
                    "name": "user",
                    "type": "address"
                },
                {
                    "indexed": false,
                    "internalType": "int8",
                    "name": "direction",
                    "type": "int8"
                },
                {
                    "indexed": false,
                    "internalType": "uint256",
                    "name": "amount",
                    "type": "uint256"
                },
                {
                    "indexed": false,
                    "internalType": "uint256",
                    "name": "price",
                    "type": "uint256"
                }
            ],
            "name": "Explosive",
            "type": "event"
        },
        {
            "anonymous": false,
            "inputs": [
                {
                    "indexed": true,
                    "internalType": "address",
                    "name": "account",
                    "type": "address"
                },
                {
                    "indexed": false,
                    "internalType": "uint256",
                    "name": "long",
                    "type": "uint256"
                },
                {
                    "indexed": false,
                    "internalType": "uint256",
                    "name": "short",
                    "type": "uint256"
                },
                {
                    "indexed": false,
                    "internalType": "uint256",
                    "name": "price",
                    "type": "uint256"
                }
            ],
            "name": "ForceClose",
            "type": "event"
        },
        {
            "anonymous": false,
            "inputs": [
                {
                    "indexed": true,
                    "internalType": "address",
                    "name": "sender",
                    "type": "address"
                },
                {
                    "indexed": false,
                    "internalType": "uint256",
                    "name": "amount",
                    "type": "uint256"
                }
            ],
            "name": "Mint",
            "type": "event"
        },
        {
            "anonymous": false,
            "inputs": [
                {
                    "indexed": true,
                    "internalType": "address",
                    "name": "sender",
                    "type": "address"
                },
                {
                    "indexed": false,
                    "internalType": "uint256",
                    "name": "amount",
                    "type": "uint256"
                }
            ],
            "name": "Recharge",
            "type": "event"
        },
        {
            "anonymous": false,
            "inputs": [
                {
                    "indexed": true,
                    "internalType": "address",
                    "name": "user",
                    "type": "address"
                },
                {
                    "indexed": false,
                    "internalType": "int8",
                    "name": "direction",
                    "type": "int8"
                },
                {
                    "indexed": false,
                    "internalType": "uint256",
                    "name": "amount",
                    "type": "uint256"
                },
                {
                    "indexed": false,
                    "internalType": "uint256",
                    "name": "price",
                    "type": "uint256"
                }
            ],
            "name": "TakeInterest",
            "type": "event"
        },
        {
            "anonymous": false,
            "inputs": [
                {
                    "indexed": true,
                    "internalType": "address",
                    "name": "sender",
                    "type": "address"
                },
                {
                    "indexed": false,
                    "internalType": "int8",
                    "name": "direction",
                    "type": "int8"
                },
                {
                    "indexed": false,
                    "internalType": "uint256",
                    "name": "amount",
                    "type": "uint256"
                },
                {
                    "indexed": false,
                    "internalType": "uint256",
                    "name": "price",
                    "type": "uint256"
                }
            ],
            "name": "Trade",
            "type": "event"
        },
        {
            "anonymous": false,
            "inputs": [
                {
                    "indexed": true,
                    "internalType": "address",
                    "name": "from",
                    "type": "address"
                },
                {
                    "indexed": true,
                    "internalType": "address",
                    "name": "to",
                    "type": "address"
                },
                {
                    "indexed": false,
                    "internalType": "uint256",
                    "name": "value",
                    "type": "uint256"
                }
            ],
            "name": "Transfer",
            "type": "event"
        },
        {
            "anonymous": false,
            "inputs": [
                {
                    "indexed": true,
                    "internalType": "address",
                    "name": "sender",
                    "type": "address"
                },
                {
                    "indexed": false,
                    "internalType": "uint256",
                    "name": "amount",
                    "type": "uint256"
                }
            ],
            "name": "Withdraw",
            "type": "event"
        },
        {
            "inputs": [],
            "name": "DOMAIN_SEPARATOR",
            "outputs": [
                {
                    "internalType": "bytes32",
                    "name": "",
                    "type": "bytes32"
                }
            ],
            "stateMutability": "view",
            "type": "function"
        },
        {
            "inputs": [],
            "name": "PERMIT_TYPEHASH",
            "outputs": [
                {
                    "internalType": "bytes32",
                    "name": "",
                    "type": "bytes32"
                }
            ],
            "stateMutability": "view",
            "type": "function"
        },
        {
            "inputs": [
                {
                    "internalType": "uint256",
                    "name": "amount",
                    "type": "uint256"
                },
                {
                    "internalType": "address",
                    "name": "to",
                    "type": "address"
                }
            ],
            "name": "addLiquidity",
            "outputs": [],
            "stateMutability": "nonpayable",
            "type": "function"
        },
        {
            "inputs": [
                {
                    "internalType": "address",
                    "name": "",
                    "type": "address"
                },
                {
                    "internalType": "address",
                    "name": "",
                    "type": "address"
                }
            ],
            "name": "allowance",
            "outputs": [
                {
                    "internalType": "uint256",
                    "name": "",
                    "type": "uint256"
                }
            ],
            "stateMutability": "view",
            "type": "function"
        },
        {
            "inputs": [],
            "name": "amountDecimal",
            "outputs": [
                {
                    "internalType": "int8",
                    "name": "",
                    "type": "int8"
                }
            ],
            "stateMutability": "view",
            "type": "function"
        },
        {
            "inputs": [
                {
                    "internalType": "address",
                    "name": "spender",
                    "type": "address"
                },
                {
                    "internalType": "uint256",
                    "name": "value",
                    "type": "uint256"
                }
            ],
            "name": "approve",
            "outputs": [
                {
                    "internalType": "bool",
                    "name": "",
                    "type": "bool"
                }
            ],
            "stateMutability": "nonpayable",
            "type": "function"
        },
        {
            "inputs": [
                {
                    "internalType": "address",
                    "name": "",
                    "type": "address"
                }
            ],
            "name": "balanceOf",
            "outputs": [
                {
                    "internalType": "uint256",
                    "name": "",
                    "type": "uint256"
                }
            ],
            "stateMutability": "view",
            "type": "function"
        },
        {
            "inputs": [
                {
                    "internalType": "uint256",
                    "name": "priceExp",
                    "type": "uint256"
                },
                {
                    "internalType": "uint256",
                    "name": "amount",
                    "type": "uint256"
                },
                {
                    "internalType": "uint256",
                    "name": "deadline",
                    "type": "uint256"
                }
            ],
            "name": "closeLong",
            "outputs": [],
            "stateMutability": "nonpayable",
            "type": "function"
        },
        {
            "inputs": [
                {
                    "internalType": "uint256",
                    "name": "priceExp",
                    "type": "uint256"
                },
                {
                    "internalType": "uint256",
                    "name": "amount",
                    "type": "uint256"
                },
                {
                    "internalType": "uint256",
                    "name": "deadline",
                    "type": "uint256"
                }
            ],
            "name": "closeShort",
            "outputs": [],
            "stateMutability": "nonpayable",
            "type": "function"
        },
        {
            "inputs": [],
            "name": "dailyInterestRateBase",
            "outputs": [
                {
                    "internalType": "uint16",
                    "name": "",
                    "type": "uint16"
                }
            ],
            "stateMutability": "view",
            "type": "function"
        },
        {
            "inputs": [],
            "name": "decimals",
            "outputs": [
                {
                    "internalType": "uint8",
                    "name": "",
                    "type": "uint8"
                }
            ],
            "stateMutability": "view",
            "type": "function"
        },
        {
            "inputs": [
                {
                    "internalType": "address",
                    "name": "account",
                    "type": "address"
                }
            ],
            "name": "detectSlide",
            "outputs": [],
            "stateMutability": "nonpayable",
            "type": "function"
        },
        {
            "inputs": [],
            "name": "divConst",
            "outputs": [
                {
                    "internalType": "uint24",
                    "name": "",
                    "type": "uint24"
                }
            ],
            "stateMutability": "view",
            "type": "function"
        },
        {
            "inputs": [
                {
                    "internalType": "address",
                    "name": "account",
                    "type": "address"
                }
            ],
            "name": "explosive",
            "outputs": [],
            "stateMutability": "nonpayable",
            "type": "function"
        },
        {
            "inputs": [],
            "name": "explosivePool",
            "outputs": [],
            "stateMutability": "nonpayable",
            "type": "function"
        },
        {
            "inputs": [],
            "name": "feeDivide",
            "outputs": [
                {
                    "internalType": "uint24",
                    "name": "",
                    "type": "uint24"
                }
            ],
            "stateMutability": "view",
            "type": "function"
        },
        {
            "inputs": [],
            "name": "feeOn",
            "outputs": [
                {
                    "internalType": "bool",
                    "name": "",
                    "type": "bool"
                }
            ],
            "stateMutability": "view",
            "type": "function"
        },
        {
            "inputs": [],
            "name": "feeRate",
            "outputs": [
                {
                    "internalType": "uint16",
                    "name": "",
                    "type": "uint16"
                }
            ],
            "stateMutability": "view",
            "type": "function"
        },
        {
            "inputs": [],
            "name": "feedPrice",
            "outputs": [
                {
                    "internalType": "contract AggregatorV3Interface",
                    "name": "",
                    "type": "address"
                }
            ],
            "stateMutability": "view",
            "type": "function"
        },
        {
            "inputs": [],
            "name": "feedPriceDecimal",
            "outputs": [
                {
                    "internalType": "uint256",
                    "name": "",
                    "type": "uint256"
                }
            ],
            "stateMutability": "view",
            "type": "function"
        },
        {
            "inputs": [],
            "name": "foceCloseRewardGas",
            "outputs": [
                {
                    "internalType": "uint256",
                    "name": "",
                    "type": "uint256"
                }
            ],
            "stateMutability": "view",
            "type": "function"
        },
        {
            "inputs": [
                {
                    "internalType": "address",
                    "name": "account",
                    "type": "address"
                }
            ],
            "name": "forceCloseAccount",
            "outputs": [],
            "stateMutability": "nonpayable",
            "type": "function"
        },
        {
            "inputs": [],
            "name": "gasUsdPriceFeed",
            "outputs": [
                {
                    "internalType": "address",
                    "name": "",
                    "type": "address"
                }
            ],
            "stateMutability": "view",
            "type": "function"
        },
        {
            "inputs": [],
            "name": "getGasUsdPrice",
            "outputs": [
                {
                    "internalType": "uint256",
                    "name": "",
                    "type": "uint256"
                }
            ],
            "stateMutability": "view",
            "type": "function"
        },
        {
            "inputs": [],
            "name": "getLatestPrice",
            "outputs": [
                {
                    "internalType": "uint256",
                    "name": "",
                    "type": "uint256"
                }
            ],
            "stateMutability": "view",
            "type": "function"
        },
        {
            "inputs": [],
            "name": "getPoolNet",
            "outputs": [
                {
                    "internalType": "int256",
                    "name": "",
                    "type": "int256"
                }
            ],
            "stateMutability": "view",
            "type": "function"
        },
        {
            "inputs": [
                {
                    "internalType": "address",
                    "name": "_token0",
                    "type": "address"
                },
                {
                    "internalType": "address",
                    "name": "_feedPrice",
                    "type": "address"
                },
                {
                    "internalType": "uint256",
                    "name": "_feedPriceDecimal",
                    "type": "uint256"
                },
                {
                    "internalType": "uint256",
                    "name": "_minStartPool",
                    "type": "uint256"
                },
                {
                    "internalType": "uint8",
                    "name": "_leverage",
                    "type": "uint8"
                },
                {
                    "internalType": "int8",
                    "name": "_amountDecimal",
                    "type": "int8"
                }
            ],
            "name": "initialize",
            "outputs": [],
            "stateMutability": "nonpayable",
            "type": "function"
        },
        {
            "inputs": [],
            "name": "interestRewardRate",
            "outputs": [
                {
                    "internalType": "uint24",
                    "name": "",
                    "type": "uint24"
                }
            ],
            "stateMutability": "view",
            "type": "function"
        },
        {
            "inputs": [],
            "name": "isStart",
            "outputs": [
                {
                    "internalType": "bool",
                    "name": "",
                    "type": "bool"
                }
            ],
            "stateMutability": "view",
            "type": "function"
        },
        {
            "inputs": [],
            "name": "leverage",
            "outputs": [
                {
                    "internalType": "uint8",
                    "name": "",
                    "type": "uint8"
                }
            ],
            "stateMutability": "view",
            "type": "function"
        },
        {
            "inputs": [],
            "name": "minPool",
            "outputs": [
                {
                    "internalType": "uint256",
                    "name": "",
                    "type": "uint256"
                }
            ],
            "stateMutability": "view",
            "type": "function"
        },
        {
            "inputs": [],
            "name": "name",
            "outputs": [
                {
                    "internalType": "string",
                    "name": "",
                    "type": "string"
                }
            ],
            "stateMutability": "view",
            "type": "function"
        },
        {
            "inputs": [
                {
                    "internalType": "address",
                    "name": "",
                    "type": "address"
                }
            ],
            "name": "nonces",
            "outputs": [
                {
                    "internalType": "uint256",
                    "name": "",
                    "type": "uint256"
                }
            ],
            "stateMutability": "view",
            "type": "function"
        },
        {
            "inputs": [
                {
                    "internalType": "uint256",
                    "name": "priceExp",
                    "type": "uint256"
                },
                {
                    "internalType": "uint256",
                    "name": "amount",
                    "type": "uint256"
                },
                {
                    "internalType": "uint256",
                    "name": "deadline",
                    "type": "uint256"
                }
            ],
            "name": "openLong",
            "outputs": [],
            "stateMutability": "nonpayable",
            "type": "function"
        },
        {
            "inputs": [
                {
                    "internalType": "uint256",
                    "name": "priceExp",
                    "type": "uint256"
                },
                {
                    "internalType": "uint256",
                    "name": "amount",
                    "type": "uint256"
                },
                {
                    "internalType": "uint256",
                    "name": "deadline",
                    "type": "uint256"
                }
            ],
            "name": "openShort",
            "outputs": [],
            "stateMutability": "nonpayable",
            "type": "function"
        },
        {
            "inputs": [
                {
                    "internalType": "address",
                    "name": "owner",
                    "type": "address"
                },
                {
                    "internalType": "address",
                    "name": "spender",
                    "type": "address"
                },
                {
                    "internalType": "uint256",
                    "name": "value",
                    "type": "uint256"
                },
                {
                    "internalType": "uint256",
                    "name": "deadline",
                    "type": "uint256"
                },
                {
                    "internalType": "uint8",
                    "name": "v",
                    "type": "uint8"
                },
                {
                    "internalType": "bytes32",
                    "name": "r",
                    "type": "bytes32"
                },
                {
                    "internalType": "bytes32",
                    "name": "s",
                    "type": "bytes32"
                }
            ],
            "name": "permit",
            "outputs": [],
            "stateMutability": "nonpayable",
            "type": "function"
        },
        {
            "inputs": [],
            "name": "poolExplosivePrice",
            "outputs": [
                {
                    "internalType": "uint256",
                    "name": "",
                    "type": "uint256"
                }
            ],
            "stateMutability": "view",
            "type": "function"
        },
        {
            "inputs": [],
            "name": "poolLeftAmountRate",
            "outputs": [
                {
                    "internalType": "uint24",
                    "name": "",
                    "type": "uint24"
                }
            ],
            "stateMutability": "view",
            "type": "function"
        },
        {
            "inputs": [],
            "name": "poolLongAmount",
            "outputs": [
                {
                    "internalType": "uint256",
                    "name": "",
                    "type": "uint256"
                }
            ],
            "stateMutability": "view",
            "type": "function"
        },
        {
            "inputs": [],
            "name": "poolLongPrice",
            "outputs": [
                {
                    "internalType": "uint256",
                    "name": "",
                    "type": "uint256"
                }
            ],
            "stateMutability": "view",
            "type": "function"
        },
        {
            "inputs": [],
            "name": "poolNetAmountRateLimitOpen",
            "outputs": [
                {
                    "internalType": "int24",
                    "name": "",
                    "type": "int24"
                }
            ],
            "stateMutability": "view",
            "type": "function"
        },
        {
            "inputs": [],
            "name": "poolNetAmountRateLimitPrice",
            "outputs": [
                {
                    "internalType": "int24",
                    "name": "",
                    "type": "int24"
                }
            ],
            "stateMutability": "view",
            "type": "function"
        },
        {
            "inputs": [],
            "name": "poolShortAmount",
            "outputs": [
                {
                    "internalType": "uint256",
                    "name": "",
                    "type": "uint256"
                }
            ],
            "stateMutability": "view",
            "type": "function"
        },
        {
            "inputs": [],
            "name": "poolShortPrice",
            "outputs": [
                {
                    "internalType": "uint256",
                    "name": "",
                    "type": "uint256"
                }
            ],
            "stateMutability": "view",
            "type": "function"
        },
        {
            "inputs": [],
            "name": "poolState",
            "outputs": [
                {
                    "internalType": "uint8",
                    "name": "",
                    "type": "uint8"
                }
            ],
            "stateMutability": "view",
            "type": "function"
        },
        {
            "inputs": [
                {
                    "internalType": "uint256",
                    "name": "amount",
                    "type": "uint256"
                }
            ],
            "name": "rechargeMargin",
            "outputs": [],
            "stateMutability": "nonpayable",
            "type": "function"
        },
        {
            "inputs": [
                {
                    "internalType": "uint256",
                    "name": "liquidity",
                    "type": "uint256"
                },
                {
                    "internalType": "address",
                    "name": "to",
                    "type": "address"
                }
            ],
            "name": "removeLiquidity",
            "outputs": [],
            "stateMutability": "nonpayable",
            "type": "function"
        },
        {
            "inputs": [],
            "name": "singleCloseLimitRate",
            "outputs": [
                {
                    "internalType": "uint24",
                    "name": "",
                    "type": "uint24"
                }
            ],
            "stateMutability": "view",
            "type": "function"
        },
        {
            "inputs": [],
            "name": "singleOpenLimitRate",
            "outputs": [
                {
                    "internalType": "uint16",
                    "name": "",
                    "type": "uint16"
                }
            ],
            "stateMutability": "view",
            "type": "function"
        },
        {
            "inputs": [],
            "name": "slideP",
            "outputs": [
                {
                    "internalType": "uint8",
                    "name": "",
                    "type": "uint8"
                }
            ],
            "stateMutability": "view",
            "type": "function"
        },
        {
            "inputs": [],
            "name": "sumFee",
            "outputs": [
                {
                    "internalType": "uint256",
                    "name": "",
                    "type": "uint256"
                }
            ],
            "stateMutability": "view",
            "type": "function"
        },
        {
            "inputs": [],
            "name": "symbol",
            "outputs": [
                {
                    "internalType": "string",
                    "name": "",
                    "type": "string"
                }
            ],
            "stateMutability": "view",
            "type": "function"
        },
        {
            "inputs": [],
            "name": "token0",
            "outputs": [
                {
                    "internalType": "address",
                    "name": "",
                    "type": "address"
                }
            ],
            "stateMutability": "view",
            "type": "function"
        },
        {
            "inputs": [],
            "name": "token0Decimal",
            "outputs": [
                {
                    "internalType": "uint256",
                    "name": "",
                    "type": "uint256"
                }
            ],
            "stateMutability": "view",
            "type": "function"
        },
        {
            "inputs": [],
            "name": "totalPool",
            "outputs": [
                {
                    "internalType": "int256",
                    "name": "",
                    "type": "int256"
                }
            ],
            "stateMutability": "view",
            "type": "function"
        },
        {
            "inputs": [],
            "name": "totalSupply",
            "outputs": [
                {
                    "internalType": "uint256",
                    "name": "",
                    "type": "uint256"
                }
            ],
            "stateMutability": "view",
            "type": "function"
        },
        {
            "inputs": [
                {
                    "internalType": "address",
                    "name": "",
                    "type": "address"
                }
            ],
            "name": "traders",
            "outputs": [
                {
                    "internalType": "int256",
                    "name": "margin",
                    "type": "int256"
                },
                {
                    "internalType": "uint256",
                    "name": "longAmount",
                    "type": "uint256"
                },
                {
                    "internalType": "uint256",
                    "name": "longPrice",
                    "type": "uint256"
                },
                {
                    "internalType": "uint256",
                    "name": "shortAmount",
                    "type": "uint256"
                },
                {
                    "internalType": "uint256",
                    "name": "shortPrice",
                    "type": "uint256"
                },
                {
                    "internalType": "uint32",
                    "name": "interestDay",
                    "type": "uint32"
                }
            ],
            "stateMutability": "view",
            "type": "function"
        },
        {
            "inputs": [
                {
                    "internalType": "address",
                    "name": "to",
                    "type": "address"
                },
                {
                    "internalType": "uint256",
                    "name": "value",
                    "type": "uint256"
                }
            ],
            "name": "transfer",
            "outputs": [
                {
                    "internalType": "bool",
                    "name": "",
                    "type": "bool"
                }
            ],
            "stateMutability": "nonpayable",
            "type": "function"
        },
        {
            "inputs": [
                {
                    "internalType": "address",
                    "name": "from",
                    "type": "address"
                },
                {
                    "internalType": "address",
                    "name": "to",
                    "type": "address"
                },
                {
                    "internalType": "uint256",
                    "name": "value",
                    "type": "uint256"
                }
            ],
            "name": "transferFrom",
            "outputs": [
                {
                    "internalType": "bool",
                    "name": "",
                    "type": "bool"
                }
            ],
            "stateMutability": "nonpayable",
            "type": "function"
        },
        {
            "inputs": [
                {
                    "internalType": "uint256",
                    "name": "amount",
                    "type": "uint256"
                }
            ],
            "name": "withdrawMargin",
            "outputs": [],
            "stateMutability": "nonpayable",
            "type": "function"
        }
    ],
    "bytecode": "6101c06040526001600655732514895c72f50d8bd4b4f9b1110f0d6bd2c975266101a0523480156200003057600080fd5b50604051620045aa380380620045aa833981016040819052620000539162000286565b856001600160a01b031663313ce5676040518163ffffffff1660e01b8152600401602060405180830381865afa15801562000092573d6000803e3d6000fd5b505050506040513d601f19601f82011682018060405250810190620000b89190620002fe565b604080518082018252600c81526b48656467657853696e676c6560a01b6020918201528151808301835260018152603160f81b9082015281517f8b73c3c69bb8fe3d512ecc4cf759cc79239f7b179b0ffacaa9a75d522b39400f918101919091527fdbb8f54117374490c454ab41b80d95cf4a0c3b286124d9b83e346d854dc3efcd918101919091527fc89efdaa54c0f20c7adf612882df0950f5a951637e0307cdcb4c672f298b8bc660608201524660808201523060a082015260c00160408051601f19818403018152828252805160209182012060a05260ff9093166080526004805460ff191660011781556001600160a01b03808a16610160528a1661010081905263313ce56760e01b84529151919363313ce56793828101939192908290030181865afa158015620001f2573d6000803e3d6000fd5b505050506040513d601f19601f82011682018060405250810190620002189190620002fe565b6200022590600a62000438565b610120526101809390935260c09190915260ff1660e0526007805461ffff1916905560000b6101405250620004499050565b80516001600160a01b03811681146200026f57600080fd5b919050565b805160ff811681146200026f57600080fd5b60008060008060008060c08789031215620002a057600080fd5b620002ab8762000257565b9550620002bb6020880162000257565b94506040870151935060608701519250620002d96080880162000274565b915060a08701518060000b8114620002f057600080fd5b809150509295509295509295565b6000602082840312156200031157600080fd5b6200031c8262000274565b9392505050565b634e487b7160e01b600052601160045260246000fd5b600181815b808511156200037a5781600019048211156200035e576200035e62000323565b808516156200036c57918102915b93841c93908002906200033e565b509250929050565b600082620003935750600162000432565b81620003a25750600062000432565b8160018114620003bb5760028114620003c657620003e6565b600191505062000432565b60ff841115620003da57620003da62000323565b50506001821b62000432565b5060208310610133831016604e8410600b84101617156200040b575081810a62000432565b62000417838362000339565b80600019048211156200042e576200042e62000323565b0290505b92915050565b60006200031c60ff84168362000382565b60805160a05160c05160e05161010051610120516101405161016051610180516101a05161404b6200055f600039600081816106b4015261211001526000818161041e01528181611ff4015261208401526000818161089c0152611ee001526000818161055a01528181611fcb0152818161201801526120a801526000818161087501528181612043015281816120dc015261273001526000818161048901528181610b3701528181610da201528181610e0b0152818161126701528181612798015281816128610152612d690152600081816105ae01528181610c3c0152818161347701526134e001526000818161053301526128da01526000818161062c01526129a6015260006105fc015261404b6000f3fe608060405234801561001057600080fd5b50600436106103a45760003560e01c806371b31707116101e9578063971059fb1161010f578063cd8bb6cd116100ad578063dd62ed3e1161007c578063dd62ed3e14610914578063e59843191461093f578063ecfb49a314610948578063fc1e2c451461095157600080fd5b8063cd8bb6cd146108e4578063ce8ad1d2146108ee578063d375454f146108f7578063d505accf1461090157600080fd5b80639ddc230a116100e95780639ddc230a14610870578063a04eecae14610897578063a9059cbb146108be578063c95f9d0e146108d157600080fd5b8063971059fb14610855578063978bbdb91461085e578063994af3ae1461086757600080fd5b80638a55d36e1161018757806390edbeb01161015657806390edbeb01461079057806392a88fa2146107a357806393f8d8121461081f57806395d89b411461083257600080fd5b80638a55d36e1461076a5780638e15f473146107775780638e4068921461077f5780638ed3896c1461078857600080fd5b80637e4856c4116101c35780637e4856c4146107245780637ecebe001461072e578063807ca3531461074e5780638967b6941461076157600080fd5b806371b31707146107095780637aaae950146103a95780637bb71a971461071c57600080fd5b80632c204fa8116102ce5780633d5f8e7a1161026c578063641ad8a91161023b578063641ad8a9146106a25780636afb3760146106af5780636c2ee359146106d657806370a08231146106e957600080fd5b80633d5f8e7a146106615780633e31fb451461066c5780634f335d0a146106745780635d0291ac1461068657600080fd5b8063313ce567116102a8578063313ce567146105f757806333d6f1f71461061e5780633644e515146106275780633d07bfb71461064e57600080fd5b80632c204fa81461058f5780632c86d98e146105a957806330adf81f146105d057600080fd5b806311ce83f81161034657806323b872dd1161031557806323b872dd14610505578063251c073a146105185780632678b8fd1461052e5780632be902821461055557600080fd5b806311ce83f8146104c357806318160ddd146104d6578063190b065f146104df5780631cce9103146104e857600080fd5b806308c73e741161038257806308c73e7414610419578063095ea7b31461044e5780630cea7534146104715780630dfe16811461048457600080fd5b806301bcc908146103a957806305fe138b146103cc57806306fdde03146103e1575b600080fd5b6103b3620186a081565b60405162ffffff90911681526020015b60405180910390f35b6103df6103da366004613809565b610964565b005b61040c6040518060400160405280600c81526020016b48656467657853696e676c6560a01b81525081565b6040516103c39190613865565b6104407f000000000000000000000000000000000000000000000000000000000000000081565b6040519081526020016103c3565b61046161045c366004613898565b610b98565b60405190151581526020016103c3565b6103df61047f3660046138c2565b610baf565b6104ab7f000000000000000000000000000000000000000000000000000000000000000081565b6040516001600160a01b0390911681526020016103c3565b6103df6104d13660046138c2565b610e06565b61044060005481565b61044060085481565b6104f262030d4081565b60405160029190910b81526020016103c3565b6104616105133660046138db565b610e8e565b6103df610526366004613928565b505050505050565b6104407f000000000000000000000000000000000000000000000000000000000000000081565b61057c7f000000000000000000000000000000000000000000000000000000000000000081565b60405160009190910b81526020016103c3565b610597603281565b60405160ff90911681526020016103c3565b6105977f000000000000000000000000000000000000000000000000000000000000000081565b6104407f6e71edae12b1b97f4d1f60370fef10105fa2faae0126114a169c64845d6126c981565b6105977f000000000000000000000000000000000000000000000000000000000000000081565b61044060055481565b6104407f000000000000000000000000000000000000000000000000000000000000000081565b6103df61065c366004613998565b610f08565b610440633b9aca0081565b6103df6112ed565b60075461046190610100900460ff1681565b61068f61753081565b60405161ffff90911681526020016103c3565b6004546105979060ff1681565b6104ab7f000000000000000000000000000000000000000000000000000000000000000081565b6103df6106e43660046139b3565b611552565b6104406106f7366004613998565b60016020526000908152604090205481565b6103df6107173660046139b3565b61183d565b610440611b06565b6103b3620f424081565b61044061073c366004613998565b60036020526000908152604090205481565b6103df61075c3660046139b3565b611bc5565b61068f6103e881565b6007546104619060ff1681565b610440611edb565b610440600b5481565b61044061210b565b6103df61079e3660046139b3565b61219b565b6107ec6107b1366004613998565b600e60205260009081526040902080546001820154600283015460038401546004850154600590950154939492939192909163ffffffff1686565b604080519687526020870195909552938501929092526060840152608083015263ffffffff1660a082015260c0016103c3565b6103df61082d366004613998565b612491565b61040c604051806040016040528060048152602001634845585360e01b81525081565b610440600d5481565b61068f61025881565b610440600c5481565b6104407f000000000000000000000000000000000000000000000000000000000000000081565b6104ab7f000000000000000000000000000000000000000000000000000000000000000081565b6104616108cc366004613898565b61282a565b6103df6108df366004613809565b612837565b6104f2620493e081565b6103b361c35081565b6103b36203d09081565b6103df61090f3660046139df565b612948565b610440610922366004613a49565b600260209081526000928352604080842090915290825290205481565b610440600a5481565b61044060095481565b6103df61095f366004613998565b612b74565b60045460ff166001146109925760405162461bcd60e51b815260040161098990613a73565b60405180910390fd5b600754829060ff1615610b105760006109a9611edb565b905060006109b682612e1d565b90506000600b54600a54116109da57600a54600b546109d59190613ab1565b6109ea565b600b54600a546109ea9190613ab1565b905060006003600b54600a54610a009190613ac8565b610a0a9190613af6565b905080821015610a18578091505b6000620493e0620f4240610a2c8786613b0a565b610a369190613b0a565b610a409190613af6565b9050808413610a915760405162461bcd60e51b815260206004820152601760248201527f6e6574206d757374203e20757365644d617267696e2f520000000000000000006044820152606401610989565b6000610a9d8286613ab1565b600054909150610aad8a87613b0a565b610ab79190613af6565b965080871115610b095760405162461bcd60e51b815260206004820152601860248201527f776974686472617720616d6f756e7420746f6f206d616e7900000000000000006044820152606401610989565b5050505050505b8060096000828254610b229190613b29565b90915550610b3290503384612e66565b610b5d7f00000000000000000000000000000000000000000000000000000000000000008383612ef1565b60405183815233907fcc16f5dbb4873280815c1ee09dbd06736cffcc184412cf7a71a0fdb75d397ca5906020015b60405180910390a2505050565b6000610ba533848461300c565b5060015b92915050565b60045460ff16600114610bd45760405162461bcd60e51b815260040161098990613a73565b336000908152600e60209081526040808320815160c0810183528154815260018201549381019390935260028101549183019190915260038101546060830152600481015460808301526005015463ffffffff1660a082015290610c36611edb565b905060007f000000000000000000000000000000000000000000000000000000000000000060ff1683608001518460600151610c729190613b0a565b84604001518560200151610c869190613b0a565b610c909190613ac8565b610c9a9190613af6565b90506000828460600151610cae9190613b0a565b84604001518560200151610cc29190613b0a565b610ccc9190613ac8565b84608001518560600151610ce09190613b0a565b848660200151610cf09190613b0a565b610cfa9190613ac8565b8551610d069190613b68565b610d109190613b29565b90506000610d1e8383613b29565b905060008113610d705760405162461bcd60e51b815260206004820152601860248201527f63616e207769746864726177206973206e6567617469766500000000000000006044820152606401610989565b8581811315610d7c5750805b8551610d89908290613b29565b336000818152600e6020526040902091909155610dc8907f00000000000000000000000000000000000000000000000000000000000000009083612ef1565b60405181815233907f884edad9ce6fa2440d8a54cc123490eb96d2768479d49ff9c7366125a94243649060200160405180910390a250505050505050565b610e327f000000000000000000000000000000000000000000000000000000000000000033308461306e565b336000908152600e602052604081208054839290610e51908490613b68565b909155505060405181815233907f78d9de6f3ad1cae9e0cbcbaa5267fd90f6a6728831eec42b7c147b398b2269249060200160405180910390a250565b6001600160a01b038316600090815260026020908152604080832033845290915281205460001914610ef3576001600160a01b038416600090815260026020908152604080832033845290915281208054849290610eed908490613ab1565b90915550505b610efe848484613196565b5060019392505050565b600654600114610f2a5760405162461bcd60e51b815260040161098990613ba9565b600060065560045460ff16600114610f545760405162461bcd60e51b815260040161098990613a73565b6000610f636201518042613af6565b905061012c610f758262015180613bd0565b610f859063ffffffff1642613ab1565b1115610fd35760405162461bcd60e51b815260206004820152601e60248201527f6e6f74207468652074696d6520666f722074616b6520696e74657265737400006044820152606401610989565b6001600160a01b0382166000908152600e60205260409020600581015463ffffffff908116908316116110415760405162461bcd60e51b81526020600482015260166024820152751a185cc81899595b881d185ad9481a5b9d195c995cdd60521b6044820152606401610989565b8060030154816001015414156110995760405162461bcd60e51b815260206004820152601d60248201527f6e656564206c6f6e6720616e642073686f7274206e6f7420657175616c0000006044820152606401610989565b60006110a3611edb565b90506000600b5490506000600a5490506000806001905085600301548660010154111561115d5782841161110c5760405162461bcd60e51b815260206004820152601060248201526f1a185d99481b9bc81a5b9d195c995cdd60821b6044820152606401610989565b83620f424061111b8583613ab1565b60018901546103e89061112e908a613b0a565b6111389190613b0a565b6111429190613b0a565b61114c9190613af6565b6111569190613af6565b91506111f0565b83831161119f5760405162461bcd60e51b815260206004820152601060248201526f1a185d99481b9bc81a5b9d195c995cdd60821b6044820152606401610989565b5060001982620f42406111b28683613ab1565b60038901546103e8906111c5908a613b0a565b6111cf9190613b0a565b6111d99190613b0a565b6111e39190613af6565b6111ed9190613af6565b91505b6000620f4240611203620186a085613b0a565b61120d9190613af6565b60058801805463ffffffff191663ffffffff8b1617905587549091508390889060009061123b908490613b29565b9091555061124b90508184613b29565b6009600082825461125c9190613b68565b9091555061128d90507f00000000000000000000000000000000000000000000000000000000000000003383612ef1565b60408051600084900b8152602081018590529081018790526001600160a01b038a16907f78213dfb97e98b601b3fee012a0f6bddbf4e63c293c77b5186137af1e7cf62ae9060600160405180910390a25050600160065550505050505050565b60065460011461130f5760405162461bcd60e51b815260040161098990613ba9565b600060065560045460ff1660011461135f5760405162461bcd60e51b8152602060048201526013602482015272706f6f6c206973206578706c6f736976696e6760681b6044820152606401610989565b6000611369611edb565b9050600061137682612e1d565b90506000600b54600a54116113b157600583600a54600b546113989190613ab1565b6113a29190613b0a565b6113ac9190613af6565b6113d8565b600583600b54600a546113c49190613ab1565b6113ce9190613b0a565b6113d89190613af6565b90508082131561142a5760405162461bcd60e51b815260206004820152601960248201527f706f6f6c2063616e6e2774206265206578706c6f7369766564000000000000006044820152606401610989565b6004805460ff191660021781556000906114449083613af6565b9050808312156115325780600954136114975760405162461bcd60e51b81526020600482015260156024820152741d1bdd185b141bdbdb081b5d5cdd080f881b19599d605a1b6044820152606401610989565b6000600b54600a5411156114e157600b54600a546114b59190613ab1565b826009546114c39190613b29565b6114cd9190613af6565b600c546114da9190613ac8565b9050611525565b600a54600b54111561152557600d54600a54600b546115009190613ab1565b8360095461150e9190613b29565b6115189190613af6565b6115229190613ac8565b90505b600555600981905561153d565b600983905560058490555b50506000600d819055600c5550506001600655565b6006546001146115745760405162461bcd60e51b815260040161098990613ba9565b6000600655804281101561159a5760405162461bcd60e51b815260040161098990613bfc565b60045460ff166001146115bf5760405162461bcd60e51b815260040161098990613a73565b60075460ff166116095760405162461bcd60e51b815260206004820152601560248201527418dbdb9d1c9858dd081a5cc81b9bdd081cdd185c9d605a1b6044820152606401610989565b6000611613611edb565b9050600080611623600184613237565b909250905082620f424061163961753084613b0a565b6116439190613af6565b61164d9190613af6565b86111561166c5760405162461bcd60e51b815260040161098990613c2b565b620493e0821261168e5760405162461bcd60e51b815260040161098990613c62565b600061169a8484613296565b6116a49085613ac8565b905087811115806116b3575087155b6116ff5760405162461bcd60e51b815260206004820152601b60248201527f6f70656e206c6f6e6720707269636520697320746f6f206869676800000000006044820152606401610989565b600061170b8289613b0a565b905060008061171a8784613363565b9150915089816020015161172e9190613ac8565b336000908152600e6020908152604090912060010191909155810151611755908b90613ac8565b838260400151836020015161176a9190613b0a565b6117749190613ac8565b61177e9190613af6565b336000908152600e6020526040902060020155805161179e908390613b29565b336000908152600e6020526040902055600b546117bb8b82613ac8565b600b556117c88b82613ac8565b84600d54836117d79190613b0a565b6117e19190613ac8565b6117eb9190613af6565b600d556117f7836135ca565b6040805160018152602081018d90529081018690523390600080516020613ff6833981519152906060015b60405180910390a25050600160065550505050505050505050565b60065460011461185f5760405162461bcd60e51b815260040161098990613ba9565b600060065580428110156118855760405162461bcd60e51b815260040161098990613bfc565b60045460ff166001146118aa5760405162461bcd60e51b815260040161098990613a73565b60075460ff166118f45760405162461bcd60e51b815260206004820152601560248201527418dbdb9d1c9858dd081a5cc81b9bdd081cdd185c9d605a1b6044820152606401610989565b60006118fe611edb565b905060008061190f60001984613237565b909250905082620f424061192561753084613b0a565b61192f9190613af6565b6119399190613af6565b8611156119585760405162461bcd60e51b815260040161098990613c2b565b620493e0821261197a5760405162461bcd60e51b815260040161098990613c62565b60006119868484613296565b6119909085613ab1565b9050878110156119e25760405162461bcd60e51b815260206004820152601b60248201527f6f70656e2073686f727420707269636520697320746f6f206c6f7700000000006044820152606401610989565b60006119ee8289613b0a565b90506000806119fd8784613363565b91509150898160600151611a119190613ac8565b336000908152600e60205260409020600301556060810151611a34908b90613ac8565b8382608001518360600151611a499190613b0a565b611a539190613ac8565b611a5d9190613af6565b336000908152600e60205260409020600401558051611a7d908390613b29565b336000908152600e6020526040902055600a54611a9a8b82613ac8565b600a55611aa78b82613ac8565b84600c5483611ab69190613b0a565b611ac09190613ac8565b611aca9190613af6565b600c55611ad6836135ca565b604080516000198152602081018d90529081018690523390600080516020613ff683398151915290606001611822565b600080611b11611edb565b9050600081600b54611b239190613b0a565b600c54600a54611b339190613b0a565b611b3d9190613ac8565b600d54600b54611b4d9190613b0a565b83600a54611b5b9190613b0a565b611b659190613ac8565b600954611b729190613b68565b611b7c9190613b29565b905060008113610ba95760405162461bcd60e51b81526020600482015260146024820152733732ba103732b2b2103132903837b9b4ba34b7b760611b6044820152606401610989565b600654600114611be75760405162461bcd60e51b815260040161098990613ba9565b60006006558042811015611c0d5760405162461bcd60e51b815260040161098990613bfc565b60045460ff16600114611c325760405162461bcd60e51b815260040161098990613a73565b6000611c3c611edb565b9050600080611c4c600184613237565b909250905082620f4240611c63620186a084613b0a565b611c6d9190613af6565b611c779190613af6565b861115611c965760405162461bcd60e51b815260040161098990613c2b565b6000611ca28484613296565b611cac9085613ac8565b90508781111580611cbb575087155b611d075760405162461bcd60e51b815260206004820152601b60248201527f636c6f73652073686f72742070726963652069732068696768657200000000006044820152606401610989565b336000908152600e6020908152604091829020825160c081018452815481526001820154928101929092526002810154928201929092526003820154606082018190526004830154608083015260059092015463ffffffff1660a082015290881115611dc15760405162461bcd60e51b815260206004820152602360248201527f636c6f736520616d6f756e742072657175697265203e3d2073686f7274416d6f6044820152621d5b9d60ea1b6064820152608401610989565b6000620f4240610258611dd4858c613b0a565b611dde9190613b0a565b611de89190613af6565b90506000838360800151611dfc9190613b29565b611e06908b613ca5565b9050898360600151611e189190613ab1565b336000908152600e602052604090206003015582518290611e3a908390613b68565b611e449190613b29565b336000908152600e602052604090205560608301518a1415611e7457336000908152600e60205260408120600401555b89600a6000828254611e869190613ab1565b90915550611e9690508282613653565b6040805160028152602081018c90529081018590523390600080516020613ff6833981519152906060015b60405180910390a250506001600655505050505050505050565b6000807f00000000000000000000000000000000000000000000000000000000000000006001600160a01b031663feaf968c6040518163ffffffff1660e01b815260040160a060405180830381865afa158015611f3c573d6000803e3d6000fd5b505050506040513d601f19601f82011682018060405250810190611f609190613d44565b50505091505060008113611fc75760405162461bcd60e51b815260206004820152602860248201527f7468652070616972207374616e64617264207072696365206d75737420626520604482015267706f73697469766560c01b6064820152608401610989565b60007f000000000000000000000000000000000000000000000000000000000000000060000b12612082577f000000000000000000000000000000000000000000000000000000000000000061203e7f0000000000000000000000000000000000000000000000000000000000000000600a613e78565b6120687f000000000000000000000000000000000000000000000000000000000000000084613b0a565b6120729190613b0a565b61207c9190613af6565b91505090565b7f00000000000000000000000000000000000000000000000000000000000000006120cc7f0000000000000000000000000000000000000000000000000000000000000000613e87565b6120d790600a613e78565b6121017f000000000000000000000000000000000000000000000000000000000000000084613b0a565b6120729190613af6565b6000807f00000000000000000000000000000000000000000000000000000000000000006001600160a01b031663feaf968c6040518163ffffffff1660e01b815260040160a060405180830381865afa15801561216c573d6000803e3d6000fd5b505050506040513d601f19601f820116820180604052508101906121909190613d44565b509195945050505050565b6006546001146121bd5760405162461bcd60e51b815260040161098990613ba9565b600060065580428110156121e35760405162461bcd60e51b815260040161098990613bfc565b60045460ff166001146122085760405162461bcd60e51b815260040161098990613a73565b6000612212611edb565b905060008061222360001984613237565b909250905082620f424061223a620186a084613b0a565b6122449190613af6565b61224e9190613af6565b86111561226d5760405162461bcd60e51b815260040161098990613c2b565b60006122798484613296565b6122839085613ab1565b9050878110156122d55760405162461bcd60e51b815260206004820152601960248201527f636c6f7365206c6f6e67207072696365206973206c6f776572000000000000006044820152606401610989565b336000908152600e6020908152604091829020825160c08101845281548152600182015492810183905260028201549381019390935260038101546060840152600481015460808401526005015463ffffffff1660a08301528811156123885760405162461bcd60e51b815260206004820152602260248201527f636c6f736520616d6f756e742072657175697265203e3d206c6f6e67416d6f756044820152611b9d60f21b6064820152608401610989565b6000620f424061025861239b858c613b0a565b6123a59190613b0a565b6123af9190613af6565b905060008260400151846123c39190613b29565b6123cd908b613ca5565b90508983602001516123df9190613ab1565b336000908152600e602052604090206001015582518290612401908390613b68565b61240b9190613b29565b336000908152600e60209081526040909120919091558301518a141561243f57336000908152600e60205260408120600201555b89600b60008282546124519190613ab1565b9091555061246190508282613653565b604080516001198152602081018c90529081018590523390600080516020613ff683398151915290606001611ec1565b6006546001146124b35760405162461bcd60e51b815260040161098990613ba9565b600060065560045460ff166002146125025760405162461bcd60e51b81526020600482015260126024820152713837b7b629ba30ba329034b9903737ba101960711b6044820152606401610989565b6001600160a01b0381166000908152600e6020908152604091829020825160c08101845281548152600182015492810183905260028201549381019390935260038101546060840152600481015460808401526005015463ffffffff1660a0830152151580612575575060008160600151115b61259b5760405162461bcd60e51b81526020600482015260006024820152604401610989565b60006125a9826005546136f1565b90506000620f424062ffffff1661025861ffff1660055485606001516125cf9190613b0a565b60055486602001516125e19190613b0a565b6125eb9190613ac8565b6125f59190613b0a565b6125ff9190613af6565b602084015190915015612628578260200151600b60008282546126229190613ab1565b90915550505b60608301511561264e578260600151600a60008282546126489190613ab1565b90915550505b600a5415801561265e5750600b54155b15612671576004805460ff191660011790555b808213156126bc576126838183613b29565b6001600160a01b0385166000908152600e6020526040812091909155600980548392906126b1908490613b68565b909155506126ef9050565b6001600160a01b0384166000908152600e60205260408120819055600980548492906126e9908490613b68565b90915550505b6001600160a01b0384166000908152600e602052604081206001810182905560028101829055600381018290556004018190556a52b7d2dcc80cd2e40000007f000000000000000000000000000000000000000000000000000000000000000061275761210b565b61276590633b9aca00613b0a565b61276f9190613b0a565b6127799190613af6565b9050806009600082825461278d9190613b29565b909155506127be90507f00000000000000000000000000000000000000000000000000000000000000003383612ef1565b846001600160a01b03167ffca559ae7a3bea5c41671f27049d90b84fbf98be965e6d7f0259ee6e5caa980b85602001518660600151600554604051612816939291909283526020830191909152604082015260600190565b60405180910390a250506001600655505050565b6000610ba5338484613196565b60045460ff1660011461285c5760405162461bcd60e51b815260040161098990613a73565b6128887f000000000000000000000000000000000000000000000000000000000000000033308561306e565b600754829060ff16156128be57600061289f611b06565b905080846000546128b09190613b0a565b6128ba9190613af6565b9150505b82600960008282546128d09190613b68565b90915550506009547f00000000000000000000000000000000000000000000000000000000000000001361290c576007805460ff191660011790555b612916828261376c565b60405181815233907f0f6798a560793a54c3bcfe86a93cde1e73087d944c0ea20544137d412139688590602001610b8b565b4284101561298a5760405162461bcd60e51b815260206004820152600f60248201526e12195919d95e0e8811561412549151608a1b6044820152606401610989565b6001600160a01b038716600090815260036020526040812080547f0000000000000000000000000000000000000000000000000000000000000000917f6e71edae12b1b97f4d1f60370fef10105fa2faae0126114a169c64845d6126c9918b918b918b91876129f883613ea7565b909155506040805160208101969096526001600160a01b0394851690860152929091166060840152608083015260a082015260c0810187905260e00160405160208183030381529060405280519060200120604051602001612a7192919061190160f01b81526002810192909252602282015260420190565b60408051601f198184030181528282528051602091820120600080855291840180845281905260ff88169284019290925260608301869052608083018590529092509060019060a0016020604051602081039080840390855afa158015612adc573d6000803e3d6000fd5b5050604051601f1901519150506001600160a01b03811615801590612b125750886001600160a01b0316816001600160a01b0316145b612b5e5760405162461bcd60e51b815260206004820152601960248201527f4865646765783a20494e56414c49445f5349474e4154555245000000000000006044820152606401610989565b612b6989898961300c565b505050505050505050565b600654600114612b965760405162461bcd60e51b815260040161098990613ba9565b600060065560045460ff16600114612bc05760405162461bcd60e51b815260040161098990613a73565b6001600160a01b0381166000908152600e60209081526040808320815160c0810183528154815260018201549381019390935260028101549183019190915260038101546060830181905260048201546080840181905260059092015463ffffffff1660a0840152919291601e91612c3791613b0a565b83604001518460200151612c4b9190613b0a565b612c559190613ac8565b612c5f9190613af6565b90506000612c6b611edb565b90506000612c7984836136f1565b905082811315612cc35760405162461bcd60e51b815260206004820152601560248201527410d85b881b9bdd08189948195e1c1b1bdcda5d9959605a1b6044820152606401610989565b602084015115612ce9578360200151600b6000828254612ce39190613ab1565b90915550505b606084015115612d0f578360600151600a6000828254612d099190613ab1565b90915550505b60608401516020850151600119911115612d27575060025b6001600160a01b0386166000908152600e60205260408120818155600181018290556002810182905560038101829055600401819055821315612d9457612d8f7f00000000000000000000000000000000000000000000000000000000000000003384612ef1565b612dac565b8160096000828254612da69190613b68565b90915550505b856001600160a01b03167f1cf7369c3767c976b447baaae4eed8217e2d190d1750c589e62bf5f7ecc4aaff8287606001518860200151612dec9190613ac8565b6040805160009390930b83526020830191909152810186905260600160405180910390a25050600160065550505050565b60008082600b54612e2e9190613b0a565b600c54600a54612e3e9190613b0a565b612e489190613ac8565b600d54600b54612e589190613b0a565b84600a54611b5b9190613b0a565b6001600160a01b03821660009081526001602052604081208054839290612e8e908490613ab1565b9250508190555080600080828254612ea69190613ab1565b90915550506040518181526000906001600160a01b038416907fddf252ad1be2c89b69c2b068fc378daa952ba7f163c4a11628f55a4df523b3ef906020015b60405180910390a35050565b604080516001600160a01b038481166024830152604480830185905283518084039091018152606490920183526020820180516001600160e01b031663a9059cbb60e01b1790529151600092839290871691612f4d9190613ec2565b6000604051808303816000865af19150503d8060008114612f8a576040519150601f19603f3d011682016040523d82523d6000602084013e612f8f565b606091505b5091509150818015612fb9575080511580612fb9575080806020019051810190612fb99190613ede565b6130055760405162461bcd60e51b815260206004820152601f60248201527f5472616e7366657248656c7065723a205452414e534645525f4641494c4544006044820152606401610989565b5050505050565b6001600160a01b0383811660008181526002602090815260408083209487168084529482529182902085905590518481527f8c5be1e5ebec7d5bd14f71427d1e84f3dd0314c0f7b2291e5b200ac8c7c3b92591015b60405180910390a3505050565b604080516001600160a01b0385811660248301528481166044830152606480830185905283518084039091018152608490920183526020820180516001600160e01b03166323b872dd60e01b17905291516000928392908816916130d29190613ec2565b6000604051808303816000865af19150503d806000811461310f576040519150601f19603f3d011682016040523d82523d6000602084013e613114565b606091505b509150915081801561313e57508051158061313e57508080602001905181019061313e9190613ede565b6105265760405162461bcd60e51b8152602060048201526024808201527f5472616e7366657248656c7065723a205452414e534645525f46524f4d5f46416044820152631253115160e21b6064820152608401610989565b6001600160a01b038316600090815260016020526040812080548392906131be908490613ab1565b90915550506001600160a01b038216600090815260016020526040812080548392906131eb908490613ac8565b92505081905550816001600160a01b0316836001600160a01b03167fddf252ad1be2c89b69c2b068fc378daa952ba7f163c4a11628f55a4df523b3ef8360405161306191815260200190565b600080600061324584612e1d565b905080620f424060020b85600a54600b546132609190613b29565b8860000b61326e9190613ca5565b6132789190613ca5565b6132829190613ca5565b61328c9190613f00565b9590945092505050565b60008060026132a962030d406003613f2e565b6132b39190613fbb565b60020b83126133125760056132cc62030d406003613f2e565b60020b8460026132dc9190613ca5565b6132e69190613b29565b6132f09190613f00565b6132fe600a62030d40613fbb565b60020b61330b9190613b68565b9050613338565b62030d40831261333857600561332b62030d4085613b29565b6133359190613af6565b90505b620f4240613347603283613ac8565b6133519086613b0a565b61335b9190613af6565b949350505050565b60006133a46040518060c001604052806000815260200160008152602001600081526020016000815260200160008152602001600063ffffffff1681525090565b336000908152600e60209081526040808320815160c081018352815481526001820154938101939093526002810154918301919091526003810154606083018190526004820154608084015260059091015463ffffffff1660a083015290919061340f908790613b0a565b826040015183602001516134239190613b0a565b61342d9190613ac8565b826080015183606001516134419190613b0a565b8784602001516134519190613b0a565b61345b9190613ac8565b83516134679190613b68565b6134719190613b29565b905060007f000000000000000000000000000000000000000000000000000000000000000060ff16836080015184606001516134ad9190613b0a565b846040015185602001516134c19190613b0a565b6134cb9190613ac8565b6134d59190613af6565b9050600061350660ff7f00000000000000000000000000000000000000000000000000000000000000001688613af6565b90506000620f424061351a6102588a613b0a565b6135249190613af6565b9050600084826135348587613ac8565b61353e9190613ac8565b6135489190613b29565b905060008113156135bb5761355c81610e06565b336000908152600e6020908152604091829020825160c08101845281548152600182015492810192909252600281015492820192909252600382015460608201526004820154608082015260059091015463ffffffff1660a082015295505b50989397509295505050505050565b600754610100900460ff1615613638576000620f42406135ed6203d09084613b0a565b6135f79190613af6565b9050806008600082825461360b9190613ac8565b9091555061361b90508183613b29565b6009600082825461362c9190613b68565b90915550613650915050565b806009600082825461364a9190613b68565b90915550505b50565b600754610100900460ff16156136cc576000620f42406136766203d09085613b0a565b6136809190613af6565b905080600860008282546136949190613ac8565b909155508290506136a58285613b29565b6136af9190613b29565b600960008282546136c09190613b68565b909155506136ed915050565b6136d68183613b29565b600960008282546136e79190613b68565b90915550505b5050565b60008183606001516137039190613b0a565b836040015184602001516137179190613b0a565b6137219190613ac8565b836080015184606001516137359190613b0a565b8385602001516137459190613b0a565b61374f9190613ac8565b845161375b9190613b68565b6137659190613b29565b9392505050565b8060008082825461377d9190613ac8565b90915550506001600160a01b038216600090815260016020526040812080548392906137aa908490613ac8565b90915550506040518181526001600160a01b038316906000907fddf252ad1be2c89b69c2b068fc378daa952ba7f163c4a11628f55a4df523b3ef90602001612ee5565b80356001600160a01b038116811461380457600080fd5b919050565b6000806040838503121561381c57600080fd5b8235915061382c602084016137ed565b90509250929050565b60005b83811015613850578181015183820152602001613838565b8381111561385f576000848401525b50505050565b6020815260008251806020840152613884816040850160208701613835565b601f01601f19169190910160400192915050565b600080604083850312156138ab57600080fd5b6138b4836137ed565b946020939093013593505050565b6000602082840312156138d457600080fd5b5035919050565b6000806000606084860312156138f057600080fd5b6138f9846137ed565b9250613907602085016137ed565b9150604084013590509250925092565b803560ff8116811461380457600080fd5b60008060008060008060c0878903121561394157600080fd5b61394a876137ed565b9550613958602088016137ed565b9450604087013593506060870135925061397460808801613917565b915060a08701358060000b811461398a57600080fd5b809150509295509295509295565b6000602082840312156139aa57600080fd5b613765826137ed565b6000806000606084860312156139c857600080fd5b505081359360208301359350604090920135919050565b600080600080600080600060e0888a0312156139fa57600080fd5b613a03886137ed565b9650613a11602089016137ed565b95506040880135945060608801359350613a2d60808901613917565b925060a0880135915060c0880135905092959891949750929550565b60008060408385031215613a5c57600080fd5b613a65836137ed565b915061382c602084016137ed565b6020808252600e908201526d3837b7b629ba30ba329034b9901960911b604082015260600190565b634e487b7160e01b600052601160045260246000fd5b600082821015613ac357613ac3613a9b565b500390565b60008219821115613adb57613adb613a9b565b500190565b634e487b7160e01b600052601260045260246000fd5b600082613b0557613b05613ae0565b500490565b6000816000190483118215151615613b2457613b24613a9b565b500290565b60008083128015600160ff1b850184121615613b4757613b47613a9b565b6001600160ff1b0384018313811615613b6257613b62613a9b565b50500390565b600080821280156001600160ff1b0384900385131615613b8a57613b8a613a9b565b600160ff1b8390038412811615613ba357613ba3613a9b565b50500190565b6020808252600d908201526c1a195919d95e081b1bd8dad959609a1b604082015260600190565b600063ffffffff80831681851681830481118215151615613bf357613bf3613a9b565b02949350505050565b60208082526015908201527412195919d95e08151c9859194e8811561412549151605a1b604082015260600190565b6020808252601d908201527f73696e676c6520616d6f756e74206f766572206e6574202a2072617465000000604082015260600190565b60208082526023908201527f706f6f6c206e657420616d6f756e74206d75737420736d616c6c207468616e2060408201526233302560e81b606082015260800190565b60006001600160ff1b0381841382841380821686840486111615613ccb57613ccb613a9b565b600160ff1b6000871282811687830589121615613cea57613cea613a9b565b60008712925087820587128484161615613d0657613d06613a9b565b87850587128184161615613d1c57613d1c613a9b565b505050929093029392505050565b805169ffffffffffffffffffff8116811461380457600080fd5b600080600080600060a08688031215613d5c57600080fd5b613d6586613d2a565b9450602086015193506040860151925060608601519150613d8860808701613d2a565b90509295509295909350565b600181815b80851115613dcf578160001904821115613db557613db5613a9b565b80851615613dc257918102915b93841c9390800290613d99565b509250929050565b600082613de657506001610ba9565b81613df357506000610ba9565b8160018114613e095760028114613e1357613e2f565b6001915050610ba9565b60ff841115613e2457613e24613a9b565b50506001821b610ba9565b5060208310610133831016604e8410600b8410161715613e52575081810a610ba9565b613e5c8383613d94565b8060001904821115613e7057613e70613a9b565b029392505050565b600061376560ff841683613dd7565b600081810b607f19811415613e9e57613e9e613a9b565b60000392915050565b6000600019821415613ebb57613ebb613a9b565b5060010190565b60008251613ed4818460208701613835565b9190910192915050565b600060208284031215613ef057600080fd5b8151801515811461376557600080fd5b600082613f0f57613f0f613ae0565b600160ff1b821460001984141615613f2957613f29613a9b565b500590565b60008160020b8360020b627fffff600082136000841383830485118282161615613f5a57613f5a613a9b565b627fffff196000851282811687830587121615613f7957613f79613a9b565b60008712925085820587128484161615613f9557613f95613a9b565b85850587128184161615613fab57613fab613a9b565b5050509290910295945050505050565b60008160020b8360020b80613fd257613fd2613ae0565b627fffff19821460001982141615613fec57613fec613a9b565b9005939250505056fe303db7636b0e071f088d2cd5e8463efe513531272d61a18739b21053f6d7b430a264697066735822122088bb1a3ef0c236ca8d1653a6a24508cdfebc35403fb1ba480895b5b3056e839664736f6c634300080a0033",
    "sourcePath": "d:/contract/hedgex/Single.sol",
    "compiler": {
        "name": "solc",
        "version": "0.8.10+commit.fc410830"
    },
    "functionHashes": {
        "DOMAIN_SEPARATOR()": "3644e515",
        "PERMIT_TYPEHASH()": "30adf81f",
        "addLiquidity(uint256,address)": "c95f9d0e",
        "allowance(address,address)": "dd62ed3e",
        "amountDecimal()": "2be90282",
        "approve(address,uint256)": "095ea7b3",
        "balanceOf(address)": "70a08231",
        "closeLong(uint256,uint256,uint256)": "90edbeb0",
        "closeShort(uint256,uint256,uint256)": "807ca353",
        "dailyInterestRateBase()": "8967b694",
        "decimals()": "313ce567",
        "detectSlide(address)": "3d07bfb7",
        "divConst()": "7e4856c4",
        "explosive(address)": "fc1e2c45",
        "explosivePool()": "3e31fb45",
        "feeDivide()": "d375454f",
        "feeOn()": "4f335d0a",
        "feeRate()": "978bbdb9",
        "feedPrice()": "a04eecae",
        "feedPriceDecimal()": "08c73e74",
        "foceCloseRewardGas()": "3d5f8e7a",
        "forceCloseAccount(address)": "93f8d812",
        "gasUsdPriceFeed()": "6afb3760",
        "getGasUsdPrice()": "8ed3896c",
        "getLatestPrice()": "8e15f473",
        "getPoolNet()": "7bb71a97",
        "initialize(address,address,uint256,uint256,uint8,int8)": "251c073a",
        "interestRewardRate()": "01bcc908",
        "isStart()": "8a55d36e",
        "leverage()": "2c86d98e",
        "minPool()": "2678b8fd",
        "name()": "06fdde03",
        "nonces(address)": "7ecebe00",
        "openLong(uint256,uint256,uint256)": "6c2ee359",
        "openShort(uint256,uint256,uint256)": "71b31707",
        "permit(address,address,uint256,uint256,uint8,bytes32,bytes32)": "d505accf",
        "poolExplosivePrice()": "33d6f1f7",
        "poolLeftAmountRate()": "ce8ad1d2",
        "poolLongAmount()": "e5984319",
        "poolLongPrice()": "994af3ae",
        "poolNetAmountRateLimitOpen()": "cd8bb6cd",
        "poolNetAmountRateLimitPrice()": "1cce9103",
        "poolShortAmount()": "8e406892",
        "poolShortPrice()": "971059fb",
        "poolState()": "641ad8a9",
        "rechargeMargin(uint256)": "11ce83f8",
        "removeLiquidity(uint256,address)": "05fe138b",
        "singleCloseLimitRate()": "7aaae950",
        "singleOpenLimitRate()": "5d0291ac",
        "slideP()": "2c204fa8",
        "sumFee()": "190b065f",
        "symbol()": "95d89b41",
        "token0()": "0dfe1681",
        "token0Decimal()": "9ddc230a",
        "totalPool()": "ecfb49a3",
        "totalSupply()": "18160ddd",
        "traders(address)": "92a88fa2",
        "transfer(address,uint256)": "a9059cbb",
        "transferFrom(address,address,uint256)": "23b872dd",
        "withdrawMargin(uint256)": "0cea7534"
    },
    "gasEstimates": {
        "creation": {
            "codeDepositCost": "3291800",
            "executionCost": "infinite",
            "totalCost": "infinite"
        },
        "external": {
            "DOMAIN_SEPARATOR()": "infinite",
            "PERMIT_TYPEHASH()": "308",
            "addLiquidity(uint256,address)": "infinite",
            "allowance(address,address)": "infinite",
            "amountDecimal()": "infinite",
            "approve(address,uint256)": "24619",
            "balanceOf(address)": "2652",
            "closeLong(uint256,uint256,uint256)": "infinite",
            "closeShort(uint256,uint256,uint256)": "infinite",
            "dailyInterestRateBase()": "338",
            "decimals()": "infinite",
            "detectSlide(address)": "infinite",
            "divConst()": "261",
            "explosive(address)": "infinite",
            "explosivePool()": "infinite",
            "feeDivide()": "304",
            "feeOn()": "2433",
            "feeRate()": "294",
            "feedPrice()": "infinite",
            "feedPriceDecimal()": "infinite",
            "foceCloseRewardGas()": "263",
            "forceCloseAccount(address)": "infinite",
            "gasUsdPriceFeed()": "infinite",
            "getGasUsdPrice()": "infinite",
            "getLatestPrice()": "infinite",
            "getPoolNet()": "infinite",
            "initialize(address,address,uint256,uint256,uint8,int8)": "infinite",
            "interestRewardRate()": "263",
            "isStart()": "2378",
            "leverage()": "infinite",
            "minPool()": "infinite",
            "name()": "infinite",
            "nonces(address)": "2609",
            "openLong(uint256,uint256,uint256)": "infinite",
            "openShort(uint256,uint256,uint256)": "infinite",
            "permit(address,address,uint256,uint256,uint8,bytes32,bytes32)": "infinite",
            "poolExplosivePrice()": "2385",
            "poolLeftAmountRate()": "282",
            "poolLongAmount()": "2383",
            "poolLongPrice()": "2407",
            "poolNetAmountRateLimitOpen()": "276",
            "poolNetAmountRateLimitPrice()": "344",
            "poolShortAmount()": "2407",
            "poolShortPrice()": "2363",
            "poolState()": "2380",
            "rechargeMargin(uint256)": "infinite",
            "removeLiquidity(uint256,address)": "infinite",
            "singleCloseLimitRate()": "284",
            "singleOpenLimitRate()": "338",
            "slideP()": "273",
            "sumFee()": "2408",
            "symbol()": "infinite",
            "token0()": "infinite",
            "token0Decimal()": "infinite",
            "totalPool()": "2405",
            "totalSupply()": "2386",
            "traders(address)": "13291",
            "transfer(address,uint256)": "51184",
            "transferFrom(address,address,uint256)": "infinite",
            "withdrawMargin(uint256)": "infinite"
        },
        "internal": {
            "feeCharge(uint256)": "51151",
            "feeCharge(uint256,int256)": "infinite",
            "getAccountNet(struct HedgexSingle.Trader memory)": "infinite",
            "getAccountNet(struct HedgexSingle.Trader memory,uint256)": "infinite",
            "getPoolNet(uint256)": "infinite",
            "judegOpen(uint256,uint256)": "infinite",
            "poolLimitTrade(int8,uint256)": "infinite",
            "slideTradePrice(uint256,int256)": "infinite"
        }
    }
}