{
    "contractName": "HedgexSingle",
    "abi": [
        {
            "inputs": [
                {
                    "internalType": "address",
                    "name": "_token0",
                    "type": "address"
                },
                {
                    "internalType": "address",
                    "name": "_feedPrice",
                    "type": "address"
                },
                {
                    "internalType": "uint256",
                    "name": "_feedPriceDecimal",
                    "type": "uint256"
                },
                {
                    "internalType": "uint256",
                    "name": "_minStartPool",
                    "type": "uint256"
                },
                {
                    "internalType": "uint8",
                    "name": "_leverage",
                    "type": "uint8"
                },
                {
                    "internalType": "int8",
                    "name": "_amountDecimal",
                    "type": "int8"
                }
            ],
            "stateMutability": "nonpayable",
            "type": "constructor"
        },
        {
            "anonymous": false,
            "inputs": [
                {
                    "indexed": true,
                    "internalType": "address",
                    "name": "owner",
                    "type": "address"
                },
                {
                    "indexed": true,
                    "internalType": "address",
                    "name": "spender",
                    "type": "address"
                },
                {
                    "indexed": false,
                    "internalType": "uint256",
                    "name": "value",
                    "type": "uint256"
                }
            ],
            "name": "Approval",
            "type": "event"
        },
        {
            "anonymous": false,
            "inputs": [
                {
                    "indexed": true,
                    "internalType": "address",
                    "name": "sender",
                    "type": "address"
                },
                {
                    "indexed": false,
                    "internalType": "uint256",
                    "name": "amount",
                    "type": "uint256"
                }
            ],
            "name": "Burn",
            "type": "event"
        },
        {
            "anonymous": false,
            "inputs": [
                {
                    "indexed": true,
                    "internalType": "address",
                    "name": "user",
                    "type": "address"
                },
                {
                    "indexed": false,
                    "internalType": "int8",
                    "name": "direction",
                    "type": "int8"
                },
                {
                    "indexed": false,
                    "internalType": "uint256",
                    "name": "amount",
                    "type": "uint256"
                },
                {
                    "indexed": false,
                    "internalType": "uint256",
                    "name": "price",
                    "type": "uint256"
                }
            ],
            "name": "Explosive",
            "type": "event"
        },
        {
            "anonymous": false,
            "inputs": [
                {
                    "indexed": true,
                    "internalType": "address",
                    "name": "sender",
                    "type": "address"
                },
                {
                    "indexed": false,
                    "internalType": "uint256",
                    "name": "amount",
                    "type": "uint256"
                }
            ],
            "name": "Mint",
            "type": "event"
        },
        {
            "anonymous": false,
            "inputs": [
                {
                    "indexed": true,
                    "internalType": "address",
                    "name": "sender",
                    "type": "address"
                },
                {
                    "indexed": false,
                    "internalType": "uint256",
                    "name": "amount",
                    "type": "uint256"
                }
            ],
            "name": "Recharge",
            "type": "event"
        },
        {
            "anonymous": false,
            "inputs": [
                {
                    "indexed": true,
                    "internalType": "address",
                    "name": "user",
                    "type": "address"
                },
                {
                    "indexed": false,
                    "internalType": "int8",
                    "name": "direction",
                    "type": "int8"
                },
                {
                    "indexed": false,
                    "internalType": "uint256",
                    "name": "amount",
                    "type": "uint256"
                },
                {
                    "indexed": false,
                    "internalType": "uint256",
                    "name": "price",
                    "type": "uint256"
                }
            ],
            "name": "TakeInterest",
            "type": "event"
        },
        {
            "anonymous": false,
            "inputs": [
                {
                    "indexed": true,
                    "internalType": "address",
                    "name": "sender",
                    "type": "address"
                },
                {
                    "indexed": false,
                    "internalType": "int8",
                    "name": "direction",
                    "type": "int8"
                },
                {
                    "indexed": false,
                    "internalType": "uint256",
                    "name": "amount",
                    "type": "uint256"
                },
                {
                    "indexed": false,
                    "internalType": "uint256",
                    "name": "price",
                    "type": "uint256"
                }
            ],
            "name": "Trade",
            "type": "event"
        },
        {
            "anonymous": false,
            "inputs": [
                {
                    "indexed": true,
                    "internalType": "address",
                    "name": "from",
                    "type": "address"
                },
                {
                    "indexed": true,
                    "internalType": "address",
                    "name": "to",
                    "type": "address"
                },
                {
                    "indexed": false,
                    "internalType": "uint256",
                    "name": "value",
                    "type": "uint256"
                }
            ],
            "name": "Transfer",
            "type": "event"
        },
        {
            "anonymous": false,
            "inputs": [
                {
                    "indexed": true,
                    "internalType": "address",
                    "name": "sender",
                    "type": "address"
                },
                {
                    "indexed": false,
                    "internalType": "uint256",
                    "name": "amount",
                    "type": "uint256"
                }
            ],
            "name": "Withdraw",
            "type": "event"
        },
        {
            "inputs": [],
            "name": "DOMAIN_SEPARATOR",
            "outputs": [
                {
                    "internalType": "bytes32",
                    "name": "",
                    "type": "bytes32"
                }
            ],
            "stateMutability": "view",
            "type": "function"
        },
        {
            "inputs": [],
            "name": "PERMIT_TYPEHASH",
            "outputs": [
                {
                    "internalType": "bytes32",
                    "name": "",
                    "type": "bytes32"
                }
            ],
            "stateMutability": "view",
            "type": "function"
        },
        {
            "inputs": [
                {
                    "internalType": "uint256",
                    "name": "amount",
                    "type": "uint256"
                },
                {
                    "internalType": "address",
                    "name": "to",
                    "type": "address"
                }
            ],
            "name": "addLiquidity",
            "outputs": [],
            "stateMutability": "nonpayable",
            "type": "function"
        },
        {
            "inputs": [
                {
                    "internalType": "address",
                    "name": "",
                    "type": "address"
                },
                {
                    "internalType": "address",
                    "name": "",
                    "type": "address"
                }
            ],
            "name": "allowance",
            "outputs": [
                {
                    "internalType": "uint256",
                    "name": "",
                    "type": "uint256"
                }
            ],
            "stateMutability": "view",
            "type": "function"
        },
        {
            "inputs": [],
            "name": "amountDecimal",
            "outputs": [
                {
                    "internalType": "int8",
                    "name": "",
                    "type": "int8"
                }
            ],
            "stateMutability": "view",
            "type": "function"
        },
        {
            "inputs": [
                {
                    "internalType": "address",
                    "name": "spender",
                    "type": "address"
                },
                {
                    "internalType": "uint256",
                    "name": "value",
                    "type": "uint256"
                }
            ],
            "name": "approve",
            "outputs": [
                {
                    "internalType": "bool",
                    "name": "",
                    "type": "bool"
                }
            ],
            "stateMutability": "nonpayable",
            "type": "function"
        },
        {
            "inputs": [
                {
                    "internalType": "address",
                    "name": "",
                    "type": "address"
                }
            ],
            "name": "balanceOf",
            "outputs": [
                {
                    "internalType": "uint256",
                    "name": "",
                    "type": "uint256"
                }
            ],
            "stateMutability": "view",
            "type": "function"
        },
        {
            "inputs": [
                {
                    "internalType": "uint256",
                    "name": "priceExp",
                    "type": "uint256"
                },
                {
                    "internalType": "uint256",
                    "name": "amount",
                    "type": "uint256"
                }
            ],
            "name": "closeLong",
            "outputs": [],
            "stateMutability": "nonpayable",
            "type": "function"
        },
        {
            "inputs": [
                {
                    "internalType": "uint256",
                    "name": "priceExp",
                    "type": "uint256"
                },
                {
                    "internalType": "uint256",
                    "name": "amount",
                    "type": "uint256"
                }
            ],
            "name": "closeShort",
            "outputs": [],
            "stateMutability": "nonpayable",
            "type": "function"
        },
        {
            "inputs": [],
            "name": "dailyInterestRateBase",
            "outputs": [
                {
                    "internalType": "uint16",
                    "name": "",
                    "type": "uint16"
                }
            ],
            "stateMutability": "view",
            "type": "function"
        },
        {
            "inputs": [],
            "name": "decimals",
            "outputs": [
                {
                    "internalType": "uint8",
                    "name": "",
                    "type": "uint8"
                }
            ],
            "stateMutability": "view",
            "type": "function"
        },
        {
            "inputs": [
                {
                    "internalType": "address",
                    "name": "account",
                    "type": "address"
                }
            ],
            "name": "detectSlide",
            "outputs": [],
            "stateMutability": "nonpayable",
            "type": "function"
        },
        {
            "inputs": [],
            "name": "divConst",
            "outputs": [
                {
                    "internalType": "uint24",
                    "name": "",
                    "type": "uint24"
                }
            ],
            "stateMutability": "view",
            "type": "function"
        },
        {
            "inputs": [
                {
                    "internalType": "address",
                    "name": "account",
                    "type": "address"
                }
            ],
            "name": "explosive",
            "outputs": [],
            "stateMutability": "nonpayable",
            "type": "function"
        },
        {
            "inputs": [],
            "name": "feeDivide",
            "outputs": [
                {
                    "internalType": "uint24",
                    "name": "",
                    "type": "uint24"
                }
            ],
            "stateMutability": "view",
            "type": "function"
        },
        {
            "inputs": [],
            "name": "feeOn",
            "outputs": [
                {
                    "internalType": "bool",
                    "name": "",
                    "type": "bool"
                }
            ],
            "stateMutability": "view",
            "type": "function"
        },
        {
            "inputs": [],
            "name": "feeRate",
            "outputs": [
                {
                    "internalType": "uint16",
                    "name": "",
                    "type": "uint16"
                }
            ],
            "stateMutability": "view",
            "type": "function"
        },
        {
            "inputs": [],
            "name": "feedPrice",
            "outputs": [
                {
                    "internalType": "contract AggregatorV3Interface",
                    "name": "",
                    "type": "address"
                }
            ],
            "stateMutability": "view",
            "type": "function"
        },
        {
            "inputs": [],
            "name": "feedPriceDecimal",
            "outputs": [
                {
                    "internalType": "uint256",
                    "name": "",
                    "type": "uint256"
                }
            ],
            "stateMutability": "view",
            "type": "function"
        },
        {
            "inputs": [],
            "name": "getLatestPrice",
            "outputs": [
                {
                    "internalType": "uint256",
                    "name": "",
                    "type": "uint256"
                }
            ],
            "stateMutability": "view",
            "type": "function"
        },
        {
            "inputs": [],
            "name": "getPoolNet",
            "outputs": [
                {
                    "internalType": "int256",
                    "name": "",
                    "type": "int256"
                }
            ],
            "stateMutability": "view",
            "type": "function"
        },
        {
            "inputs": [
                {
                    "internalType": "address",
                    "name": "_token0",
                    "type": "address"
                },
                {
                    "internalType": "address",
                    "name": "_feedPrice",
                    "type": "address"
                },
                {
                    "internalType": "uint256",
                    "name": "_feedPriceDecimal",
                    "type": "uint256"
                },
                {
                    "internalType": "uint256",
                    "name": "_minStartPool",
                    "type": "uint256"
                },
                {
                    "internalType": "uint8",
                    "name": "_leverage",
                    "type": "uint8"
                },
                {
                    "internalType": "int8",
                    "name": "_amountDecimal",
                    "type": "int8"
                }
            ],
            "name": "initialize",
            "outputs": [],
            "stateMutability": "nonpayable",
            "type": "function"
        },
        {
            "inputs": [],
            "name": "interestRewardRate",
            "outputs": [
                {
                    "internalType": "uint24",
                    "name": "",
                    "type": "uint24"
                }
            ],
            "stateMutability": "view",
            "type": "function"
        },
        {
            "inputs": [],
            "name": "isStart",
            "outputs": [
                {
                    "internalType": "bool",
                    "name": "",
                    "type": "bool"
                }
            ],
            "stateMutability": "view",
            "type": "function"
        },
        {
            "inputs": [],
            "name": "leverage",
            "outputs": [
                {
                    "internalType": "uint8",
                    "name": "",
                    "type": "uint8"
                }
            ],
            "stateMutability": "view",
            "type": "function"
        },
        {
            "inputs": [],
            "name": "minPool",
            "outputs": [
                {
                    "internalType": "uint256",
                    "name": "",
                    "type": "uint256"
                }
            ],
            "stateMutability": "view",
            "type": "function"
        },
        {
            "inputs": [],
            "name": "name",
            "outputs": [
                {
                    "internalType": "string",
                    "name": "",
                    "type": "string"
                }
            ],
            "stateMutability": "view",
            "type": "function"
        },
        {
            "inputs": [
                {
                    "internalType": "address",
                    "name": "",
                    "type": "address"
                }
            ],
            "name": "nonces",
            "outputs": [
                {
                    "internalType": "uint256",
                    "name": "",
                    "type": "uint256"
                }
            ],
            "stateMutability": "view",
            "type": "function"
        },
        {
            "inputs": [
                {
                    "internalType": "uint256",
                    "name": "priceExp",
                    "type": "uint256"
                },
                {
                    "internalType": "uint256",
                    "name": "amount",
                    "type": "uint256"
                },
                {
                    "internalType": "uint256",
                    "name": "rechargeAmount",
                    "type": "uint256"
                }
            ],
            "name": "openLong",
            "outputs": [],
            "stateMutability": "nonpayable",
            "type": "function"
        },
        {
            "inputs": [
                {
                    "internalType": "uint256",
                    "name": "priceExp",
                    "type": "uint256"
                },
                {
                    "internalType": "uint256",
                    "name": "amount",
                    "type": "uint256"
                },
                {
                    "internalType": "uint256",
                    "name": "rechargeAmount",
                    "type": "uint256"
                }
            ],
            "name": "openShort",
            "outputs": [],
            "stateMutability": "nonpayable",
            "type": "function"
        },
        {
            "inputs": [
                {
                    "internalType": "address",
                    "name": "owner",
                    "type": "address"
                },
                {
                    "internalType": "address",
                    "name": "spender",
                    "type": "address"
                },
                {
                    "internalType": "uint256",
                    "name": "value",
                    "type": "uint256"
                },
                {
                    "internalType": "uint256",
                    "name": "deadline",
                    "type": "uint256"
                },
                {
                    "internalType": "uint8",
                    "name": "v",
                    "type": "uint8"
                },
                {
                    "internalType": "bytes32",
                    "name": "r",
                    "type": "bytes32"
                },
                {
                    "internalType": "bytes32",
                    "name": "s",
                    "type": "bytes32"
                }
            ],
            "name": "permit",
            "outputs": [],
            "stateMutability": "nonpayable",
            "type": "function"
        },
        {
            "inputs": [],
            "name": "poolLongAmount",
            "outputs": [
                {
                    "internalType": "uint256",
                    "name": "",
                    "type": "uint256"
                }
            ],
            "stateMutability": "view",
            "type": "function"
        },
        {
            "inputs": [],
            "name": "poolLongPrice",
            "outputs": [
                {
                    "internalType": "uint256",
                    "name": "",
                    "type": "uint256"
                }
            ],
            "stateMutability": "view",
            "type": "function"
        },
        {
            "inputs": [],
            "name": "poolShortAmount",
            "outputs": [
                {
                    "internalType": "uint256",
                    "name": "",
                    "type": "uint256"
                }
            ],
            "stateMutability": "view",
            "type": "function"
        },
        {
            "inputs": [],
            "name": "poolShortPrice",
            "outputs": [
                {
                    "internalType": "uint256",
                    "name": "",
                    "type": "uint256"
                }
            ],
            "stateMutability": "view",
            "type": "function"
        },
        {
            "inputs": [
                {
                    "internalType": "uint256",
                    "name": "amount",
                    "type": "uint256"
                }
            ],
            "name": "rechargeMargin",
            "outputs": [],
            "stateMutability": "nonpayable",
            "type": "function"
        },
        {
            "inputs": [
                {
                    "internalType": "uint256",
                    "name": "liquidity",
                    "type": "uint256"
                },
                {
                    "internalType": "address",
                    "name": "to",
                    "type": "address"
                }
            ],
            "name": "removeLiquidity",
            "outputs": [],
            "stateMutability": "nonpayable",
            "type": "function"
        },
        {
            "inputs": [],
            "name": "singleTradeLimitRate",
            "outputs": [
                {
                    "internalType": "uint16",
                    "name": "",
                    "type": "uint16"
                }
            ],
            "stateMutability": "view",
            "type": "function"
        },
        {
            "inputs": [],
            "name": "slideP",
            "outputs": [
                {
                    "internalType": "uint8",
                    "name": "",
                    "type": "uint8"
                }
            ],
            "stateMutability": "view",
            "type": "function"
        },
        {
            "inputs": [],
            "name": "sumFee",
            "outputs": [
                {
                    "internalType": "uint256",
                    "name": "",
                    "type": "uint256"
                }
            ],
            "stateMutability": "view",
            "type": "function"
        },
        {
            "inputs": [],
            "name": "symbol",
            "outputs": [
                {
                    "internalType": "string",
                    "name": "",
                    "type": "string"
                }
            ],
            "stateMutability": "view",
            "type": "function"
        },
        {
            "inputs": [],
            "name": "token0",
            "outputs": [
                {
                    "internalType": "address",
                    "name": "",
                    "type": "address"
                }
            ],
            "stateMutability": "view",
            "type": "function"
        },
        {
            "inputs": [],
            "name": "token0Decimal",
            "outputs": [
                {
                    "internalType": "uint256",
                    "name": "",
                    "type": "uint256"
                }
            ],
            "stateMutability": "view",
            "type": "function"
        },
        {
            "inputs": [],
            "name": "totalPool",
            "outputs": [
                {
                    "internalType": "int256",
                    "name": "",
                    "type": "int256"
                }
            ],
            "stateMutability": "view",
            "type": "function"
        },
        {
            "inputs": [],
            "name": "totalSupply",
            "outputs": [
                {
                    "internalType": "uint256",
                    "name": "",
                    "type": "uint256"
                }
            ],
            "stateMutability": "view",
            "type": "function"
        },
        {
            "inputs": [
                {
                    "internalType": "address",
                    "name": "",
                    "type": "address"
                }
            ],
            "name": "traders",
            "outputs": [
                {
                    "internalType": "int256",
                    "name": "margin",
                    "type": "int256"
                },
                {
                    "internalType": "uint256",
                    "name": "longAmount",
                    "type": "uint256"
                },
                {
                    "internalType": "uint256",
                    "name": "longPrice",
                    "type": "uint256"
                },
                {
                    "internalType": "uint256",
                    "name": "shortAmount",
                    "type": "uint256"
                },
                {
                    "internalType": "uint256",
                    "name": "shortPrice",
                    "type": "uint256"
                }
            ],
            "stateMutability": "view",
            "type": "function"
        },
        {
            "inputs": [
                {
                    "internalType": "address",
                    "name": "to",
                    "type": "address"
                },
                {
                    "internalType": "uint256",
                    "name": "value",
                    "type": "uint256"
                }
            ],
            "name": "transfer",
            "outputs": [
                {
                    "internalType": "bool",
                    "name": "",
                    "type": "bool"
                }
            ],
            "stateMutability": "nonpayable",
            "type": "function"
        },
        {
            "inputs": [
                {
                    "internalType": "address",
                    "name": "from",
                    "type": "address"
                },
                {
                    "internalType": "address",
                    "name": "to",
                    "type": "address"
                },
                {
                    "internalType": "uint256",
                    "name": "value",
                    "type": "uint256"
                }
            ],
            "name": "transferFrom",
            "outputs": [
                {
                    "internalType": "bool",
                    "name": "",
                    "type": "bool"
                }
            ],
            "stateMutability": "nonpayable",
            "type": "function"
        },
        {
            "inputs": [
                {
                    "internalType": "uint256",
                    "name": "amount",
                    "type": "uint256"
                }
            ],
            "name": "withdrawMargin",
            "outputs": [],
            "stateMutability": "nonpayable",
            "type": "function"
        }
    ],
    "bytecode": "6101a06040523480156200001257600080fd5b506040516200351e3803806200351e83398101604081905262000035916200027b565b856001600160a01b031663313ce5676040518163ffffffff1660e01b815260040160206040518083038186803b1580156200006f57600080fd5b505afa15801562000084573d6000803e3d6000fd5b505050506040513d601f19601f82011682018060405250810190620000aa9190620002f3565b604080518082018252600c81526b48656467657853696e676c6560a01b6020918201528151808301835260018152603160f81b9082015281517f8b73c3c69bb8fe3d512ecc4cf759cc79239f7b179b0ffacaa9a75d522b39400f918101919091527fdbb8f54117374490c454ab41b80d95cf4a0c3b286124d9b83e346d854dc3efcd918101919091527fc89efdaa54c0f20c7adf612882df0950f5a951637e0307cdcb4c672f298b8bc660608201524660808201523060a082015260c00160408051601f19818403018152828252805160209182012060a05260ff9093166080526001600160a01b0380891661016052891661010081905263313ce56760e01b83529051909263313ce5679260048082019391829003018186803b158015620001d257600080fd5b505afa158015620001e7573d6000803e3d6000fd5b505050506040513d601f19601f820116820180604052508101906200020d9190620002f3565b6200021a90600a6200042d565b610120526101809390935260c09190915260ff1660e0526004805461ffff1916905560000b61014052506200043e9050565b80516001600160a01b03811681146200026457600080fd5b919050565b805160ff811681146200026457600080fd5b60008060008060008060c087890312156200029557600080fd5b620002a0876200024c565b9550620002b0602088016200024c565b94506040870151935060608701519250620002ce6080880162000269565b915060a08701518060000b8114620002e557600080fd5b809150509295509295509295565b6000602082840312156200030657600080fd5b620003118262000269565b9392505050565b634e487b7160e01b600052601160045260246000fd5b600181815b808511156200036f57816000190482111562000353576200035362000318565b808516156200036157918102915b93841c939080029062000333565b509250929050565b600082620003885750600162000427565b81620003975750600062000427565b8160018114620003b05760028114620003bb57620003db565b600191505062000427565b60ff841115620003cf57620003cf62000318565b50506001821b62000427565b5060208310610133831016604e8410600b841016171562000400575081810a62000427565b6200040c83836200032e565b806000190482111562000423576200042362000318565b0290505b92915050565b60006200031160ff84168362000377565b60805160a05160c05160e0516101005161012051610140516101605161018051612fea6200053460003960008181610335015281816117c9015261185901526000818161070101526116a6015260008181610470015281816117a0015281816117ed015261187d0152600081816106da0152818161181801526118b10152600081816103a00152818161093c01528181610b5f01528181610bc901528181610ee4015281816118f20152611f6c0152600081816104c401528181610a0c015281816125d9015261262f015260008181610449015261196b0152600081816105390152611a37015260006105120152612fea6000f3fe608060405234801561001057600080fd5b50600436106102bb5760003560e01c806370a0823111610182578063978bbdb9116100e9578063d375454f116100a2578063e59843191161007c578063e598431914610791578063ecfb49a31461079a578063f69d91ae146107a3578063fc1e2c45146107b657600080fd5b8063d375454f14610749578063d505accf14610753578063dd62ed3e1461076657600080fd5b8063978bbdb9146106c3578063994af3ae146106cc5780639ddc230a146106d5578063a04eecae146106fc578063a9059cbb14610723578063c95f9d0e1461073657600080fd5b80638a55d36e1161013b5780638a55d36e146106145780638e15f473146106215780638e4068921461062957806392a88fa21461063257806395d89b4114610697578063971059fb146106ba57600080fd5b806370a08231146105a657806371b31707146105c65780637bb71a97146105d95780637e4856c4146105e15780637ecebe00146105eb5780638967b6941461060b57600080fd5b8063251c073a11610226578063313ce567116101df578063313ce5671461050d5780633644e515146105345780633d07bfb71461055b578063416c56901461056e5780634f335d0a146105815780636c2ee3591461059357600080fd5b8063251c073a1461042e5780632678b8fd146104445780632be902821461046b5780632c204fa8146104a55780632c86d98e146104bf57806330adf81f146104e657600080fd5b80630dfe1681116102785780630dfe16811461039b57806311ce83f8146103da57806318160ddd146103ed5780631865071d146103f6578063190b065f1461041257806323b872dd1461041b57600080fd5b806301bcc908146102c057806305fe138b146102e357806306fdde03146102f857806308c73e7414610330578063095ea7b3146103655780630cea753414610388575b600080fd5b6102ca620186a081565b60405162ffffff90911681526020015b60405180910390f35b6102f66102f136600461295c565b6107c9565b005b6103236040518060400160405280600c81526020016b48656467657853696e676c6560a01b81525081565b6040516102da91906129b8565b6103577f000000000000000000000000000000000000000000000000000000000000000081565b6040519081526020016102da565b6103786103733660046129eb565b61099d565b60405190151581526020016102da565b6102f6610396366004612a15565b6109b4565b6103c27f000000000000000000000000000000000000000000000000000000000000000081565b6040516001600160a01b0390911681526020016102da565b6102f66103e8366004612a15565b610bc4565b61035760005481565b6103ff61753081565b60405161ffff90911681526020016102da565b61035760055481565b610378610429366004612a2e565b610c4c565b6102f661043c366004612a7b565b505050505050565b6103577f000000000000000000000000000000000000000000000000000000000000000081565b6104927f000000000000000000000000000000000000000000000000000000000000000081565b60405160009190910b81526020016102da565b6104ad603281565b60405160ff90911681526020016102da565b6104ad7f000000000000000000000000000000000000000000000000000000000000000081565b6103577f6e71edae12b1b97f4d1f60370fef10105fa2faae0126114a169c64845d6126c981565b6104ad7f000000000000000000000000000000000000000000000000000000000000000081565b6103577f000000000000000000000000000000000000000000000000000000000000000081565b6102f6610569366004612aeb565b610cc6565b6102f661057c366004612b06565b610f64565b60045461037890610100900460ff1681565b6102f66105a1366004612b28565b61112f565b6103576105b4366004612aeb565b60016020526000908152604090205481565b6102f66105d4366004612b28565b611396565b6103576115e2565b6102ca620f424081565b6103576105f9366004612aeb565b60036020526000908152604090205481565b6103ff6103e881565b6004546103789060ff1681565b6103576116a1565b61035760085481565b61066f610640366004612aeb565b600b60205260009081526040902080546001820154600283015460038401546004909401549293919290919085565b604080519586526020860194909452928401919091526060830152608082015260a0016102da565b610323604051806040016040528060048152602001634845585360e01b81525081565b610357600a5481565b6103ff61025881565b61035760095481565b6103577f000000000000000000000000000000000000000000000000000000000000000081565b6103c27f000000000000000000000000000000000000000000000000000000000000000081565b6103786107313660046129eb565b6118e0565b6102f661074436600461295c565b6118ed565b6102ca6203d09081565b6102f6610761366004612b54565b6119d9565b610357610774366004612bbe565b600260209081526000928352604080842090915290825290205481565b61035760075481565b61035760065481565b6102f66107b1366004612b06565b611c05565b6102f66107c4366004612aeb565b611dd2565b600454829060ff16156109155760006107e06116a1565b905060006107ed8261201b565b90506000600854600754116108115760075460085461080c9190612bfe565b610821565b6008546007546108219190612bfe565b9050600061082f8483612c15565b905080831361087c5760405162461bcd60e51b81526020600482015260146024820152733732ba103732b2b2103132903837b9b4ba34b7b760611b60448201526064015b60405180910390fd5b60006108888285612bfe565b90506000610897600a86612c34565b9050808211156108a5578091505b6000546108b28a87612c15565b6108bc9190612c34565b96508187111561090e5760405162461bcd60e51b815260206004820152601860248201527f776974686472617720616d6f756e7420746f6f206d75636800000000000000006044820152606401610873565b5050505050505b80600660008282546109279190612c56565b9091555061093790503384612064565b6109627f000000000000000000000000000000000000000000000000000000000000000083836120ef565b60405183815233907fcc16f5dbb4873280815c1ee09dbd06736cffcc184412cf7a71a0fdb75d397ca5906020015b60405180910390a2505050565b60006109aa33848461220a565b5060015b92915050565b336000908152600b60209081526040808320815160a081018352815481526001820154938101939093526002810154918301919091526003810154606083015260040154608082015290610a066116a1565b905060007f000000000000000000000000000000000000000000000000000000000000000060ff168284606001518560200151610a439190612c95565b610a4d9190612c15565b610a579190612c34565b90506000828460600151610a6b9190612c15565b84604001518560200151610a7f9190612c15565b610a899190612c95565b84608001518560600151610a9d9190612c15565b848660200151610aad9190612c15565b610ab79190612c95565b8551610ac39190612cad565b610acd9190612c56565b90506000610adb8383612c56565b905060008113610b2d5760405162461bcd60e51b815260206004820152601860248201527f63616e207769746864726177206973206e6567617469766500000000000000006044820152606401610873565b8581811315610b395750805b8551610b46908290612c56565b336000818152600b6020526040902091909155610b85907f000000000000000000000000000000000000000000000000000000000000000090836120ef565b60405181815233907f884edad9ce6fa2440d8a54cc123490eb96d2768479d49ff9c7366125a9424364906020015b60405180910390a250505050505050565b610bf07f000000000000000000000000000000000000000000000000000000000000000033308461226c565b336000908152600b602052604081208054839290610c0f908490612cad565b909155505060405181815233907f78d9de6f3ad1cae9e0cbcbaa5267fd90f6a6728831eec42b7c147b398b2269249060200160405180910390a250565b6001600160a01b038316600090815260026020908152604080832033845290915281205460001914610cb1576001600160a01b038416600090815260026020908152604080832033845290915281208054849290610cab908490612bfe565b90915550505b610cbc848484612394565b5060019392505050565b6000610cd06116a1565b6001600160a01b0383166000908152600b602052604090206003810154600182015492935090911415610d455760405162461bcd60e51b815260206004820152601d60248201527f6e656564206c6f6e6720616e642073686f7274206e6f7420657175616c0000006044820152606401610873565b60085460075460038301546001848101546000921015610df257828411610da15760405162461bcd60e51b815260206004820152601060248201526f1a185d99481b9bc81a5b9d195c995cdd60821b6044820152606401610873565b83620f4240610db08583612bfe565b60018801546103e890610dc3908b612c15565b610dcd9190612c15565b610dd79190612c15565b610de19190612c34565b610deb9190612c34565b9150610e85565b838311610e345760405162461bcd60e51b815260206004820152601060248201526f1a185d99481b9bc81a5b9d195c995cdd60821b6044820152606401610873565b5060001982620f4240610e478683612bfe565b60038801546103e890610e5a908b612c15565b610e649190612c15565b610e6e9190612c15565b610e789190612c34565b610e829190612c34565b91505b6000620f4240610e98620186a085612c15565b610ea29190612c34565b905082866000016000828254610eb89190612c56565b90915550610ec890508184612c56565b60066000828254610ed99190612cad565b90915550610f0a90507f000000000000000000000000000000000000000000000000000000000000000033836120ef565b60408051600084900b8152602081018590529081018890526001600160a01b038916907f78213dfb97e98b601b3fee012a0f6bddbf4e63c293c77b5186137af1e7cf62ae9060600160405180910390a25050505050505050565b6000610f6e6116a1565b90506000620f4240610f81603282612cee565b62ffffff16610f8e6116a1565b610f989190612c15565b610fa29190612c34565b905083811015610ff45760405162461bcd60e51b815260206004820152601960248201527f636c6f7365206c6f6e67207072696365206973206c6f776572000000000000006044820152606401610873565b336000908152600b60209081526040808320815160a08101835281548152600182015493810184905260028201549281019290925260038101546060830152600401546080820152919061104d90859085908890612435565b905060008260400151846110619190612c56565b61106b9087612d12565b905085836020015161107d9190612bfe565b336000908152600b60205260409020600101558251829061109f908390612cad565b6110a99190612c56565b336000908152600b60209081526040909120919091558301518614156110dd57336000908152600b60205260408120600201555b85600860008282546110ef9190612bfe565b909155506110ff905082826124b5565b604080516001198152602081018890529081018590523390600080516020612f9583398151915290606001610bb3565b60006111396116a1565b90506000620f424061114c603282612d97565b61115b9062ffffff1684612c15565b6111659190612c34565b90508481111580611174575084155b6111c05760405162461bcd60e51b815260206004820152601b60248201527f6f70656e206c6f6e6720707269636520697320746f6f206869676800000000006044820152606401610873565b60045460ff1661120a5760405162461bcd60e51b815260206004820152601560248201527418dbdb9d1c9858dd081a5cc81b9bdd081cdd185c9d605a1b6044820152606401610873565b82156112195761121983610bc4565b336000908152600b60209081526040808320815160a08101835281548152600182015493810193909352600281015491830191909152600381015460608301526004015460808201529061126d8387612c15565b9050600061127d83888785612553565b905086836020015161128f9190612c95565b336000908152600b60209081526040909120600101919091558301516112b6908890612c95565b82846040015185602001516112cb9190612c15565b6112d59190612c95565b6112df9190612c34565b336000908152600b602052604090206002015582516112ff908290612c56565b336000908152600b602052604090205560085461131c8882612c95565b6008556113298882612c95565b83600a54836113389190612c15565b6113429190612c95565b61134c9190612c34565b600a556113588261273e565b6040805160018152602081018a90529081018690523390600080516020612f95833981519152906060015b60405180910390a2505050505050505050565b60006113a06116a1565b90506000620f42406113b3603282612cee565b6113c29062ffffff1684612c15565b6113cc9190612c34565b90508481101561141e5760405162461bcd60e51b815260206004820152601b60248201527f6f70656e2073686f727420707269636520697320746f6f206c6f7700000000006044820152606401610873565b60045460ff166114685760405162461bcd60e51b815260206004820152601560248201527418dbdb9d1c9858dd081a5cc81b9bdd081cdd185c9d605a1b6044820152606401610873565b82156114775761147783610bc4565b336000908152600b60209081526040808320815160a0810183528154815260018201549381019390935260028101549183019190915260038101546060830152600401546080820152906114cb8387612c15565b905060006114db83868985612553565b90508683606001516114ed9190612c95565b336000908152600b60205260409020600301556060830151611510908890612c95565b82846080015185606001516115259190612c15565b61152f9190612c95565b6115399190612c34565b336000908152600b60205260409020600401558251611559908290612c56565b336000908152600b60205260409020556007546115768882612c95565b6007556115838882612c95565b83600954836115929190612c15565b61159c9190612c95565b6115a69190612c34565b6009556115b28261273e565b604080516000198152602081018a90529081018690523390600080516020612f9583398151915290606001611383565b6000806115ed6116a1565b90506000816008546115ff9190612c15565b60095460075461160f9190612c15565b6116199190612c95565b600a546008546116299190612c15565b836007546116379190612c15565b6116419190612c95565b60065461164e9190612cad565b6116589190612c56565b9050600081136109ae5760405162461bcd60e51b81526020600482015260146024820152733732ba103732b2b2103132903837b9b4ba34b7b760611b6044820152606401610873565b6000807f00000000000000000000000000000000000000000000000000000000000000006001600160a01b031663feaf968c6040518163ffffffff1660e01b815260040160a06040518083038186803b1580156116fd57600080fd5b505afa158015611711573d6000803e3d6000fd5b505050506040513d601f19601f820116820180604052508101906117359190612dd8565b5050509150506000811361179c5760405162461bcd60e51b815260206004820152602860248201527f7468652070616972207374616e64617264207072696365206d75737420626520604482015267706f73697469766560c01b6064820152608401610873565b60007f000000000000000000000000000000000000000000000000000000000000000060000b12611857577f00000000000000000000000000000000000000000000000000000000000000006118137f0000000000000000000000000000000000000000000000000000000000000000600a612f0c565b61183d7f000000000000000000000000000000000000000000000000000000000000000084612c15565b6118479190612c15565b6118519190612c34565b91505090565b7f00000000000000000000000000000000000000000000000000000000000000006118a17f0000000000000000000000000000000000000000000000000000000000000000612f1b565b6118ac90600a612f0c565b6118d67f000000000000000000000000000000000000000000000000000000000000000084612c15565b6118479190612c34565b60006109aa338484612394565b6119197f000000000000000000000000000000000000000000000000000000000000000033308561226c565b600454829060ff161561194f5760006119306115e2565b905080846000546119419190612c15565b61194b9190612c34565b9150505b82600660008282546119619190612cad565b90915550506006547f00000000000000000000000000000000000000000000000000000000000000001361199d576004805460ff191660011790555b6119a782826127c7565b60405181815233907f0f6798a560793a54c3bcfe86a93cde1e73087d944c0ea20544137d412139688590602001610990565b42841015611a1b5760405162461bcd60e51b815260206004820152600f60248201526e12195919d95e0e8811561412549151608a1b6044820152606401610873565b6001600160a01b038716600090815260036020526040812080547f0000000000000000000000000000000000000000000000000000000000000000917f6e71edae12b1b97f4d1f60370fef10105fa2faae0126114a169c64845d6126c9918b918b918b9187611a8983612f3b565b909155506040805160208101969096526001600160a01b0394851690860152929091166060840152608083015260a082015260c0810187905260e00160405160208183030381529060405280519060200120604051602001611b0292919061190160f01b81526002810192909252602282015260420190565b60408051601f198184030181528282528051602091820120600080855291840180845281905260ff88169284019290925260608301869052608083018590529092509060019060a0016020604051602081039080840390855afa158015611b6d573d6000803e3d6000fd5b5050604051601f1901519150506001600160a01b03811615801590611ba35750886001600160a01b0316816001600160a01b0316145b611bef5760405162461bcd60e51b815260206004820152601960248201527f4865646765783a20494e56414c49445f5349474e4154555245000000000000006044820152606401610873565b611bfa89898961220a565b505050505050505050565b6000611c0f6116a1565b90506000620f4240611c22603282612d97565b611c319062ffffff1684612c15565b611c3b9190612c34565b90508381111580611c4a575083155b611c965760405162461bcd60e51b815260206004820152601b60248201527f636c6f73652073686f72742070726963652069732068696768657200000000006044820152606401610873565b336000908152600b60209081526040808320815160a081018352815481526001820154938101939093526002810154918301919091526003810154606083018190526004909101546080830152909190611cf590859085908890612435565b90506000838360800151611d099190612c56565b611d139087612d12565b9050858360600151611d259190612bfe565b336000908152600b602052604090206003015582518290611d47908390612cad565b611d519190612c56565b336000908152600b60205260409020556060830151861415611d8157336000908152600b60205260408120600401555b8560076000828254611d939190612bfe565b90915550611da3905082826124b5565b6040805160028152602081018890529081018590523390600080516020612f9583398151915290606001610bb3565b6001600160a01b0381166000908152600b60209081526040808320815160a0810183528154815260018201549381019390935260028101549183019190915260038101546060830181905260049091015460808301819052919291601e91611e3a9190612c15565b83604001518460200151611e4e9190612c15565b611e589190612c95565b611e629190612c34565b90506000611e6e6116a1565b90506000611e7c8483612848565b905082811315611ec65760405162461bcd60e51b815260206004820152601560248201527410d85b881b9bdd08189948195e1c1b1bdcda5d9959605a1b6044820152606401610873565b602084015115611eec57836020015160086000828254611ee69190612bfe565b90915550505b606084015115611f1257836060015160076000828254611f0c9190612bfe565b90915550505b60608401516020850151600119911115611f2a575060025b6001600160a01b0386166000908152600b60205260408120818155600181018290556002810182905560038101829055600401819055821315611f9757611f927f000000000000000000000000000000000000000000000000000000000000000033846120ef565b611faf565b8160066000828254611fa99190612cad565b90915550505b856001600160a01b03167f1cf7369c3767c976b447baaae4eed8217e2d190d1750c589e62bf5f7ecc4aaff8287606001518860200151611fef9190612c95565b6040805160009390930b83526020830191909152810186905260600160405180910390a2505050505050565b6000808260085461202c9190612c15565b60095460075461203c9190612c15565b6120469190612c95565b600a546008546120569190612c15565b846007546116379190612c15565b6001600160a01b0382166000908152600160205260408120805483929061208c908490612bfe565b92505081905550806000808282546120a49190612bfe565b90915550506040518181526000906001600160a01b038416907fddf252ad1be2c89b69c2b068fc378daa952ba7f163c4a11628f55a4df523b3ef906020015b60405180910390a35050565b604080516001600160a01b038481166024830152604480830185905283518084039091018152606490920183526020820180516001600160e01b031663a9059cbb60e01b179052915160009283929087169161214b9190612f56565b6000604051808303816000865af19150503d8060008114612188576040519150601f19603f3d011682016040523d82523d6000602084013e61218d565b606091505b50915091508180156121b75750805115806121b75750808060200190518101906121b79190612f72565b6122035760405162461bcd60e51b815260206004820152601f60248201527f5472616e7366657248656c7065723a205452414e534645525f4641494c4544006044820152606401610873565b5050505050565b6001600160a01b0383811660008181526002602090815260408083209487168084529482529182902085905590518481527f8c5be1e5ebec7d5bd14f71427d1e84f3dd0314c0f7b2291e5b200ac8c7c3b92591015b60405180910390a3505050565b604080516001600160a01b0385811660248301528481166044830152606480830185905283518084039091018152608490920183526020820180516001600160e01b03166323b872dd60e01b17905291516000928392908816916122d09190612f56565b6000604051808303816000865af19150503d806000811461230d576040519150601f19603f3d011682016040523d82523d6000602084013e612312565b606091505b509150915081801561233c57508051158061233c57508080602001905181019061233c9190612f72565b61043c5760405162461bcd60e51b8152602060048201526024808201527f5472616e7366657248656c7065723a205452414e534645525f46524f4d5f46416044820152631253115160e21b6064820152608401610873565b6001600160a01b038316600090815260016020526040812080548392906123bc908490612bfe565b90915550506001600160a01b038216600090815260016020526040812080548392906123e9908490612c95565b92505081905550816001600160a01b0316836001600160a01b03167fddf252ad1be2c89b69c2b068fc378daa952ba7f163c4a11628f55a4df523b3ef8360405161225f91815260200190565b600061244185846128c3565b818311156124875760405162461bcd60e51b81526020600482015260136024820152720e0dee6d2e8d2dedc40dcdee840cadcdeeaced606b1b6044820152606401610873565b620f42406102586124988686612c15565b6124a29190612c15565b6124ac9190612c34565b95945050505050565b600454610100900460ff161561252e576000620f42406124d86203d09085612c15565b6124e29190612c34565b905080600560008282546124f69190612c95565b909155508290506125078285612c56565b6125119190612c56565b600660008282546125229190612cad565b9091555061254f915050565b6125388183612c56565b600660008282546125499190612cad565b90915550505b5050565b600061255f84846128c3565b60008486606001516125719190612c15565b866040015187602001516125859190612c15565b61258f9190612c95565b866080015187606001516125a39190612c15565b8688602001516125b39190612c15565b6125bd9190612c95565b87516125c99190612cad565b6125d39190612c56565b905060007f000000000000000000000000000000000000000000000000000000000000000060ff1686886060015189602001516126109190612c95565b61261a9190612c15565b6126249190612c34565b9050600061265560ff7f00000000000000000000000000000000000000000000000000000000000000001686612c34565b90506000620f424061266961025888612c15565b6126739190612c34565b90506000816126828587612c56565b61268c9190612c56565b9050600081136126ea5760405162461bcd60e51b815260206004820152602360248201527f6c656674206d617267696e20697320657175616c206f72206c6573732074686160448201526206e20360ec1b6064820152608401610873565b828110156127315760405162461bcd60e51b81526020600482015260146024820152730dac2e4ced2dc40d2e640dcdee840cadcdeeaced60631b6044820152606401610873565b5098975050505050505050565b600454610100900460ff16156127ac576000620f42406127616203d09084612c15565b61276b9190612c34565b9050806005600082825461277f9190612c95565b9091555061278f90508183612c56565b600660008282546127a09190612cad565b909155506127c4915050565b80600660008282546127be9190612cad565b90915550505b50565b806000808282546127d89190612c95565b90915550506001600160a01b03821660009081526001602052604081208054839290612805908490612c95565b90915550506040518181526001600160a01b038316906000907fddf252ad1be2c89b69c2b068fc378daa952ba7f163c4a11628f55a4df523b3ef906020016120e3565b600081836060015161285a9190612c15565b8360400151846020015161286e9190612c15565b6128789190612c95565b8360800151846060015161288c9190612c15565b83856020015161289c9190612c15565b6128a69190612c95565b84516128b29190612cad565b6128bc9190612c56565b9392505050565b60006128ce8361201b565b905082620f42406128e161753084612c15565b6128eb9190612c34565b6128f59190612c34565b82111561293b5760405162461bcd60e51b8152602060048201526014602482015273616d6f756e74206f766572206e65742a7261746560601b6044820152606401610873565b505050565b80356001600160a01b038116811461295757600080fd5b919050565b6000806040838503121561296f57600080fd5b8235915061297f60208401612940565b90509250929050565b60005b838110156129a357818101518382015260200161298b565b838111156129b2576000848401525b50505050565b60208152600082518060208401526129d7816040850160208701612988565b601f01601f19169190910160400192915050565b600080604083850312156129fe57600080fd5b612a0783612940565b946020939093013593505050565b600060208284031215612a2757600080fd5b5035919050565b600080600060608486031215612a4357600080fd5b612a4c84612940565b9250612a5a60208501612940565b9150604084013590509250925092565b803560ff8116811461295757600080fd5b60008060008060008060c08789031215612a9457600080fd5b612a9d87612940565b9550612aab60208801612940565b94506040870135935060608701359250612ac760808801612a6a565b915060a08701358060000b8114612add57600080fd5b809150509295509295509295565b600060208284031215612afd57600080fd5b6128bc82612940565b60008060408385031215612b1957600080fd5b50508035926020909101359150565b600080600060608486031215612b3d57600080fd5b505081359360208301359350604090920135919050565b600080600080600080600060e0888a031215612b6f57600080fd5b612b7888612940565b9650612b8660208901612940565b95506040880135945060608801359350612ba260808901612a6a565b925060a0880135915060c0880135905092959891949750929550565b60008060408385031215612bd157600080fd5b612bda83612940565b915061297f60208401612940565b634e487b7160e01b600052601160045260246000fd5b600082821015612c1057612c10612be8565b500390565b6000816000190483118215151615612c2f57612c2f612be8565b500290565b600082612c5157634e487b7160e01b600052601260045260246000fd5b500490565b60008083128015600160ff1b850184121615612c7457612c74612be8565b6001600160ff1b0384018313811615612c8f57612c8f612be8565b50500390565b60008219821115612ca857612ca8612be8565b500190565b600080821280156001600160ff1b0384900385131615612ccf57612ccf612be8565b600160ff1b8390038412811615612ce857612ce8612be8565b50500190565b600062ffffff83811690831681811015612d0a57612d0a612be8565b039392505050565b60006001600160ff1b0381841382841380821686840486111615612d3857612d38612be8565b600160ff1b6000871282811687830589121615612d5757612d57612be8565b60008712925087820587128484161615612d7357612d73612be8565b87850587128184161615612d8957612d89612be8565b505050929093029392505050565b600062ffffff808316818516808303821115612db557612db5612be8565b01949350505050565b805169ffffffffffffffffffff8116811461295757600080fd5b600080600080600060a08688031215612df057600080fd5b612df986612dbe565b9450602086015193506040860151925060608601519150612e1c60808701612dbe565b90509295509295909350565b600181815b80851115612e63578160001904821115612e4957612e49612be8565b80851615612e5657918102915b93841c9390800290612e2d565b509250929050565b600082612e7a575060016109ae565b81612e87575060006109ae565b8160018114612e9d5760028114612ea757612ec3565b60019150506109ae565b60ff841115612eb857612eb8612be8565b50506001821b6109ae565b5060208310610133831016604e8410600b8410161715612ee6575081810a6109ae565b612ef08383612e28565b8060001904821115612f0457612f04612be8565b029392505050565b60006128bc60ff841683612e6b565b600081810b607f19811415612f3257612f32612be8565b60000392915050565b6000600019821415612f4f57612f4f612be8565b5060010190565b60008251612f68818460208701612988565b9190910192915050565b600060208284031215612f8457600080fd5b815180151581146128bc57600080fdfe303db7636b0e071f088d2cd5e8463efe513531272d61a18739b21053f6d7b430a26469706673582212204a7ed276ca948ffc722cef3e0ea42fb326a0a6f6bab934cc3004ee925c68a6b564736f6c63430008090033",
    "sourcePath": "d:/contract/hedgex/Single.sol",
    "compiler": {
        "name": "solc",
        "version": "0.8.9+commit.e5eed63a"
    },
    "functionHashes": {
        "DOMAIN_SEPARATOR()": "3644e515",
        "PERMIT_TYPEHASH()": "30adf81f",
        "addLiquidity(uint256,address)": "c95f9d0e",
        "allowance(address,address)": "dd62ed3e",
        "amountDecimal()": "2be90282",
        "approve(address,uint256)": "095ea7b3",
        "balanceOf(address)": "70a08231",
        "closeLong(uint256,uint256)": "416c5690",
        "closeShort(uint256,uint256)": "f69d91ae",
        "dailyInterestRateBase()": "8967b694",
        "decimals()": "313ce567",
        "detectSlide(address)": "3d07bfb7",
        "divConst()": "7e4856c4",
        "explosive(address)": "fc1e2c45",
        "feeDivide()": "d375454f",
        "feeOn()": "4f335d0a",
        "feeRate()": "978bbdb9",
        "feedPrice()": "a04eecae",
        "feedPriceDecimal()": "08c73e74",
        "getLatestPrice()": "8e15f473",
        "getPoolNet()": "7bb71a97",
        "initialize(address,address,uint256,uint256,uint8,int8)": "251c073a",
        "interestRewardRate()": "01bcc908",
        "isStart()": "8a55d36e",
        "leverage()": "2c86d98e",
        "minPool()": "2678b8fd",
        "name()": "06fdde03",
        "nonces(address)": "7ecebe00",
        "openLong(uint256,uint256,uint256)": "6c2ee359",
        "openShort(uint256,uint256,uint256)": "71b31707",
        "permit(address,address,uint256,uint256,uint8,bytes32,bytes32)": "d505accf",
        "poolLongAmount()": "e5984319",
        "poolLongPrice()": "994af3ae",
        "poolShortAmount()": "8e406892",
        "poolShortPrice()": "971059fb",
        "rechargeMargin(uint256)": "11ce83f8",
        "removeLiquidity(uint256,address)": "05fe138b",
        "singleTradeLimitRate()": "1865071d",
        "slideP()": "2c204fa8",
        "sumFee()": "190b065f",
        "symbol()": "95d89b41",
        "token0()": "0dfe1681",
        "token0Decimal()": "9ddc230a",
        "totalPool()": "ecfb49a3",
        "totalSupply()": "18160ddd",
        "traders(address)": "92a88fa2",
        "transfer(address,uint256)": "a9059cbb",
        "transferFrom(address,address,uint256)": "23b872dd",
        "withdrawMargin(uint256)": "0cea7534"
    },
    "gasEstimates": {
        "creation": {
            "codeDepositCost": "2453200",
            "executionCost": "infinite",
            "totalCost": "infinite"
        },
        "external": {
            "DOMAIN_SEPARATOR()": "infinite",
            "PERMIT_TYPEHASH()": "351",
            "addLiquidity(uint256,address)": "infinite",
            "allowance(address,address)": "infinite",
            "amountDecimal()": "infinite",
            "approve(address,uint256)": "24663",
            "balanceOf(address)": "2565",
            "closeLong(uint256,uint256)": "infinite",
            "closeShort(uint256,uint256)": "infinite",
            "dailyInterestRateBase()": "360",
            "decimals()": "infinite",
            "detectSlide(address)": "infinite",
            "divConst()": "305",
            "explosive(address)": "infinite",
            "feeDivide()": "260",
            "feeOn()": "2454",
            "feeRate()": "249",
            "feedPrice()": "infinite",
            "feedPriceDecimal()": "infinite",
            "getLatestPrice()": "infinite",
            "getPoolNet()": "infinite",
            "initialize(address,address,uint256,uint256,uint8,int8)": "infinite",
            "interestRewardRate()": "240",
            "isStart()": "2355",
            "leverage()": "infinite",
            "minPool()": "infinite",
            "name()": "infinite",
            "nonces(address)": "2653",
            "openLong(uint256,uint256,uint256)": "infinite",
            "openShort(uint256,uint256,uint256)": "infinite",
            "permit(address,address,uint256,uint256,uint8,bytes32,bytes32)": "infinite",
            "poolLongAmount()": "2361",
            "poolLongPrice()": "2362",
            "poolShortAmount()": "2384",
            "poolShortPrice()": "2450",
            "rechargeMargin(uint256)": "infinite",
            "removeLiquidity(uint256,address)": "infinite",
            "singleTradeLimitRate()": "316",
            "slideP()": "316",
            "sumFee()": "2429",
            "symbol()": "infinite",
            "token0()": "infinite",
            "token0Decimal()": "infinite",
            "totalPool()": "2383",
            "totalSupply()": "2385",
            "traders(address)": "11174",
            "transfer(address,uint256)": "51206",
            "transferFrom(address,address,uint256)": "infinite",
            "withdrawMargin(uint256)": "infinite"
        },
        "internal": {
            "feeCharge(uint256)": "51151",
            "feeCharge(uint256,int256)": "infinite",
            "getAccountNet(struct HedgexSingle.Trader memory)": "infinite",
            "getAccountNet(struct HedgexSingle.Trader memory,uint256)": "infinite",
            "getPoolNet(uint256)": "infinite",
            "judegOpen(struct HedgexSingle.Trader memory,uint256,uint256,uint256)": "infinite",
            "judgeClose(uint256,uint256,uint256,uint256)": "infinite",
            "limitTradeAmount(uint256,uint256)": "infinite"
        }
    }
}