{
    "contractName": "HedgexSingle",
    "abi": [
        {
            "inputs": [
                {
                    "internalType": "address",
                    "name": "_token0",
                    "type": "address"
                },
                {
                    "internalType": "address",
                    "name": "_feedPrice",
                    "type": "address"
                },
                {
                    "internalType": "uint256",
                    "name": "_minStartPool",
                    "type": "uint256"
                },
                {
                    "internalType": "uint8",
                    "name": "_leverage",
                    "type": "uint8"
                },
                {
                    "internalType": "int8",
                    "name": "_amountDecimal",
                    "type": "int8"
                }
            ],
            "stateMutability": "nonpayable",
            "type": "constructor"
        },
        {
            "anonymous": false,
            "inputs": [
                {
                    "indexed": true,
                    "internalType": "address",
                    "name": "owner",
                    "type": "address"
                },
                {
                    "indexed": true,
                    "internalType": "address",
                    "name": "spender",
                    "type": "address"
                },
                {
                    "indexed": false,
                    "internalType": "uint256",
                    "name": "value",
                    "type": "uint256"
                }
            ],
            "name": "Approval",
            "type": "event"
        },
        {
            "anonymous": false,
            "inputs": [
                {
                    "indexed": true,
                    "internalType": "address",
                    "name": "sender",
                    "type": "address"
                },
                {
                    "indexed": false,
                    "internalType": "uint256",
                    "name": "amount",
                    "type": "uint256"
                }
            ],
            "name": "Burn",
            "type": "event"
        },
        {
            "anonymous": false,
            "inputs": [
                {
                    "indexed": true,
                    "internalType": "address",
                    "name": "user",
                    "type": "address"
                },
                {
                    "indexed": false,
                    "internalType": "int8",
                    "name": "direction",
                    "type": "int8"
                },
                {
                    "indexed": false,
                    "internalType": "uint256",
                    "name": "amount",
                    "type": "uint256"
                },
                {
                    "indexed": false,
                    "internalType": "uint256",
                    "name": "price",
                    "type": "uint256"
                }
            ],
            "name": "Explosive",
            "type": "event"
        },
        {
            "anonymous": false,
            "inputs": [
                {
                    "indexed": false,
                    "internalType": "int256",
                    "name": "total",
                    "type": "int256"
                },
                {
                    "indexed": false,
                    "internalType": "uint256",
                    "name": "la",
                    "type": "uint256"
                },
                {
                    "indexed": false,
                    "internalType": "uint256",
                    "name": "lp",
                    "type": "uint256"
                },
                {
                    "indexed": false,
                    "internalType": "uint256",
                    "name": "sa",
                    "type": "uint256"
                },
                {
                    "indexed": false,
                    "internalType": "uint256",
                    "name": "sp",
                    "type": "uint256"
                },
                {
                    "indexed": false,
                    "internalType": "uint256",
                    "name": "ep",
                    "type": "uint256"
                }
            ],
            "name": "ExplosivePool",
            "type": "event"
        },
        {
            "anonymous": false,
            "inputs": [
                {
                    "indexed": true,
                    "internalType": "address",
                    "name": "account",
                    "type": "address"
                },
                {
                    "indexed": false,
                    "internalType": "uint256",
                    "name": "long",
                    "type": "uint256"
                },
                {
                    "indexed": false,
                    "internalType": "uint256",
                    "name": "short",
                    "type": "uint256"
                },
                {
                    "indexed": false,
                    "internalType": "uint256",
                    "name": "price",
                    "type": "uint256"
                }
            ],
            "name": "ForceClose",
            "type": "event"
        },
        {
            "anonymous": false,
            "inputs": [
                {
                    "indexed": true,
                    "internalType": "address",
                    "name": "sender",
                    "type": "address"
                },
                {
                    "indexed": false,
                    "internalType": "uint256",
                    "name": "amount",
                    "type": "uint256"
                }
            ],
            "name": "Mint",
            "type": "event"
        },
        {
            "anonymous": false,
            "inputs": [
                {
                    "indexed": true,
                    "internalType": "address",
                    "name": "sender",
                    "type": "address"
                },
                {
                    "indexed": false,
                    "internalType": "uint256",
                    "name": "amount",
                    "type": "uint256"
                }
            ],
            "name": "Recharge",
            "type": "event"
        },
        {
            "anonymous": false,
            "inputs": [
                {
                    "indexed": true,
                    "internalType": "address",
                    "name": "user",
                    "type": "address"
                },
                {
                    "indexed": false,
                    "internalType": "int8",
                    "name": "direction",
                    "type": "int8"
                },
                {
                    "indexed": false,
                    "internalType": "uint256",
                    "name": "amount",
                    "type": "uint256"
                },
                {
                    "indexed": false,
                    "internalType": "uint256",
                    "name": "price",
                    "type": "uint256"
                }
            ],
            "name": "TakeInterest",
            "type": "event"
        },
        {
            "anonymous": false,
            "inputs": [
                {
                    "indexed": true,
                    "internalType": "address",
                    "name": "sender",
                    "type": "address"
                },
                {
                    "indexed": false,
                    "internalType": "int8",
                    "name": "direction",
                    "type": "int8"
                },
                {
                    "indexed": false,
                    "internalType": "uint256",
                    "name": "amount",
                    "type": "uint256"
                },
                {
                    "indexed": false,
                    "internalType": "uint256",
                    "name": "price",
                    "type": "uint256"
                }
            ],
            "name": "Trade",
            "type": "event"
        },
        {
            "anonymous": false,
            "inputs": [
                {
                    "indexed": true,
                    "internalType": "address",
                    "name": "from",
                    "type": "address"
                },
                {
                    "indexed": true,
                    "internalType": "address",
                    "name": "to",
                    "type": "address"
                },
                {
                    "indexed": false,
                    "internalType": "uint256",
                    "name": "value",
                    "type": "uint256"
                }
            ],
            "name": "Transfer",
            "type": "event"
        },
        {
            "anonymous": false,
            "inputs": [
                {
                    "indexed": true,
                    "internalType": "address",
                    "name": "sender",
                    "type": "address"
                },
                {
                    "indexed": false,
                    "internalType": "uint256",
                    "name": "amount",
                    "type": "uint256"
                }
            ],
            "name": "Withdraw",
            "type": "event"
        },
        {
            "inputs": [],
            "name": "DOMAIN_SEPARATOR",
            "outputs": [
                {
                    "internalType": "bytes32",
                    "name": "",
                    "type": "bytes32"
                }
            ],
            "stateMutability": "view",
            "type": "function"
        },
        {
            "inputs": [],
            "name": "PERMIT_TYPEHASH",
            "outputs": [
                {
                    "internalType": "bytes32",
                    "name": "",
                    "type": "bytes32"
                }
            ],
            "stateMutability": "view",
            "type": "function"
        },
        {
            "inputs": [],
            "name": "R0",
            "outputs": [
                {
                    "internalType": "int256",
                    "name": "initR",
                    "type": "int256"
                },
                {
                    "internalType": "uint256",
                    "name": "number",
                    "type": "uint256"
                },
                {
                    "internalType": "int256",
                    "name": "deltaR",
                    "type": "int256"
                }
            ],
            "stateMutability": "view",
            "type": "function"
        },
        {
            "inputs": [],
            "name": "R1",
            "outputs": [
                {
                    "internalType": "int256",
                    "name": "initR",
                    "type": "int256"
                },
                {
                    "internalType": "uint256",
                    "name": "number",
                    "type": "uint256"
                },
                {
                    "internalType": "int256",
                    "name": "deltaR",
                    "type": "int256"
                }
            ],
            "stateMutability": "view",
            "type": "function"
        },
        {
            "inputs": [],
            "name": "R2",
            "outputs": [
                {
                    "internalType": "int256",
                    "name": "initR",
                    "type": "int256"
                },
                {
                    "internalType": "uint256",
                    "name": "number",
                    "type": "uint256"
                },
                {
                    "internalType": "int256",
                    "name": "deltaR",
                    "type": "int256"
                }
            ],
            "stateMutability": "view",
            "type": "function"
        },
        {
            "inputs": [],
            "name": "R3",
            "outputs": [
                {
                    "internalType": "int256",
                    "name": "initR",
                    "type": "int256"
                },
                {
                    "internalType": "uint256",
                    "name": "number",
                    "type": "uint256"
                },
                {
                    "internalType": "int256",
                    "name": "deltaR",
                    "type": "int256"
                }
            ],
            "stateMutability": "view",
            "type": "function"
        },
        {
            "inputs": [],
            "name": "acceptSetter",
            "outputs": [],
            "stateMutability": "nonpayable",
            "type": "function"
        },
        {
            "inputs": [
                {
                    "internalType": "uint256",
                    "name": "amount",
                    "type": "uint256"
                },
                {
                    "internalType": "address",
                    "name": "to",
                    "type": "address"
                }
            ],
            "name": "addLiquidity",
            "outputs": [],
            "stateMutability": "nonpayable",
            "type": "function"
        },
        {
            "inputs": [
                {
                    "internalType": "address",
                    "name": "",
                    "type": "address"
                },
                {
                    "internalType": "address",
                    "name": "",
                    "type": "address"
                }
            ],
            "name": "allowance",
            "outputs": [
                {
                    "internalType": "uint256",
                    "name": "",
                    "type": "uint256"
                }
            ],
            "stateMutability": "view",
            "type": "function"
        },
        {
            "inputs": [],
            "name": "amountDecimal",
            "outputs": [
                {
                    "internalType": "int8",
                    "name": "",
                    "type": "int8"
                }
            ],
            "stateMutability": "view",
            "type": "function"
        },
        {
            "inputs": [
                {
                    "internalType": "address",
                    "name": "spender",
                    "type": "address"
                },
                {
                    "internalType": "uint256",
                    "name": "value",
                    "type": "uint256"
                }
            ],
            "name": "approve",
            "outputs": [
                {
                    "internalType": "bool",
                    "name": "",
                    "type": "bool"
                }
            ],
            "stateMutability": "nonpayable",
            "type": "function"
        },
        {
            "inputs": [
                {
                    "internalType": "address",
                    "name": "",
                    "type": "address"
                }
            ],
            "name": "balanceOf",
            "outputs": [
                {
                    "internalType": "uint256",
                    "name": "",
                    "type": "uint256"
                }
            ],
            "stateMutability": "view",
            "type": "function"
        },
        {
            "inputs": [],
            "name": "canAddLiquidity",
            "outputs": [
                {
                    "internalType": "bool",
                    "name": "",
                    "type": "bool"
                }
            ],
            "stateMutability": "view",
            "type": "function"
        },
        {
            "inputs": [],
            "name": "canOpen",
            "outputs": [
                {
                    "internalType": "bool",
                    "name": "",
                    "type": "bool"
                }
            ],
            "stateMutability": "view",
            "type": "function"
        },
        {
            "inputs": [
                {
                    "internalType": "uint256",
                    "name": "priceExp",
                    "type": "uint256"
                },
                {
                    "internalType": "uint256",
                    "name": "amount",
                    "type": "uint256"
                },
                {
                    "internalType": "uint256",
                    "name": "deadline",
                    "type": "uint256"
                }
            ],
            "name": "closeLong",
            "outputs": [],
            "stateMutability": "nonpayable",
            "type": "function"
        },
        {
            "inputs": [
                {
                    "internalType": "uint256",
                    "name": "priceExp",
                    "type": "uint256"
                },
                {
                    "internalType": "uint256",
                    "name": "amount",
                    "type": "uint256"
                },
                {
                    "internalType": "uint256",
                    "name": "deadline",
                    "type": "uint256"
                }
            ],
            "name": "closeShort",
            "outputs": [],
            "stateMutability": "nonpayable",
            "type": "function"
        },
        {
            "inputs": [],
            "name": "dailyInterestRateBase",
            "outputs": [
                {
                    "internalType": "uint16",
                    "name": "",
                    "type": "uint16"
                }
            ],
            "stateMutability": "view",
            "type": "function"
        },
        {
            "inputs": [],
            "name": "decimals",
            "outputs": [
                {
                    "internalType": "uint8",
                    "name": "",
                    "type": "uint8"
                }
            ],
            "stateMutability": "view",
            "type": "function"
        },
        {
            "inputs": [
                {
                    "internalType": "address",
                    "name": "account",
                    "type": "address"
                },
                {
                    "internalType": "address",
                    "name": "to",
                    "type": "address"
                }
            ],
            "name": "detectSlide",
            "outputs": [],
            "stateMutability": "nonpayable",
            "type": "function"
        },
        {
            "inputs": [],
            "name": "divConst",
            "outputs": [
                {
                    "internalType": "uint24",
                    "name": "",
                    "type": "uint24"
                }
            ],
            "stateMutability": "view",
            "type": "function"
        },
        {
            "inputs": [
                {
                    "internalType": "address",
                    "name": "account",
                    "type": "address"
                },
                {
                    "internalType": "address",
                    "name": "to",
                    "type": "address"
                }
            ],
            "name": "explosive",
            "outputs": [],
            "stateMutability": "nonpayable",
            "type": "function"
        },
        {
            "inputs": [],
            "name": "explosivePool",
            "outputs": [],
            "stateMutability": "nonpayable",
            "type": "function"
        },
        {
            "inputs": [],
            "name": "feeDivide",
            "outputs": [
                {
                    "internalType": "uint24",
                    "name": "",
                    "type": "uint24"
                }
            ],
            "stateMutability": "view",
            "type": "function"
        },
        {
            "inputs": [],
            "name": "feeOn",
            "outputs": [
                {
                    "internalType": "bool",
                    "name": "",
                    "type": "bool"
                }
            ],
            "stateMutability": "view",
            "type": "function"
        },
        {
            "inputs": [],
            "name": "feeRate",
            "outputs": [
                {
                    "internalType": "uint16",
                    "name": "",
                    "type": "uint16"
                }
            ],
            "stateMutability": "view",
            "type": "function"
        },
        {
            "inputs": [],
            "name": "feeTo",
            "outputs": [
                {
                    "internalType": "address",
                    "name": "",
                    "type": "address"
                }
            ],
            "stateMutability": "view",
            "type": "function"
        },
        {
            "inputs": [],
            "name": "feedPrice",
            "outputs": [
                {
                    "internalType": "contract IIndexPrice",
                    "name": "",
                    "type": "address"
                }
            ],
            "stateMutability": "view",
            "type": "function"
        },
        {
            "inputs": [
                {
                    "internalType": "address",
                    "name": "account",
                    "type": "address"
                },
                {
                    "internalType": "address",
                    "name": "to",
                    "type": "address"
                }
            ],
            "name": "forceCloseAccount",
            "outputs": [],
            "stateMutability": "nonpayable",
            "type": "function"
        },
        {
            "inputs": [],
            "name": "getLatestPrice",
            "outputs": [
                {
                    "internalType": "uint256",
                    "name": "",
                    "type": "uint256"
                },
                {
                    "internalType": "int256",
                    "name": "",
                    "type": "int256"
                }
            ],
            "stateMutability": "view",
            "type": "function"
        },
        {
            "inputs": [],
            "name": "getPoolNet",
            "outputs": [
                {
                    "internalType": "int256",
                    "name": "",
                    "type": "int256"
                }
            ],
            "stateMutability": "view",
            "type": "function"
        },
        {
            "inputs": [],
            "name": "getPoolPosition",
            "outputs": [
                {
                    "internalType": "int256",
                    "name": "",
                    "type": "int256"
                },
                {
                    "internalType": "uint256",
                    "name": "",
                    "type": "uint256"
                },
                {
                    "internalType": "uint256",
                    "name": "",
                    "type": "uint256"
                },
                {
                    "internalType": "uint256",
                    "name": "",
                    "type": "uint256"
                },
                {
                    "internalType": "uint256",
                    "name": "",
                    "type": "uint256"
                },
                {
                    "internalType": "uint8",
                    "name": "",
                    "type": "uint8"
                }
            ],
            "stateMutability": "view",
            "type": "function"
        },
        {
            "inputs": [],
            "name": "interestRewardRate",
            "outputs": [
                {
                    "internalType": "uint24",
                    "name": "",
                    "type": "uint24"
                }
            ],
            "stateMutability": "view",
            "type": "function"
        },
        {
            "inputs": [],
            "name": "isStart",
            "outputs": [
                {
                    "internalType": "bool",
                    "name": "",
                    "type": "bool"
                }
            ],
            "stateMutability": "view",
            "type": "function"
        },
        {
            "inputs": [],
            "name": "keepMarginScale",
            "outputs": [
                {
                    "internalType": "uint8",
                    "name": "",
                    "type": "uint8"
                }
            ],
            "stateMutability": "view",
            "type": "function"
        },
        {
            "inputs": [],
            "name": "leverage",
            "outputs": [
                {
                    "internalType": "uint8",
                    "name": "",
                    "type": "uint8"
                }
            ],
            "stateMutability": "view",
            "type": "function"
        },
        {
            "inputs": [],
            "name": "minPool",
            "outputs": [
                {
                    "internalType": "uint256",
                    "name": "",
                    "type": "uint256"
                }
            ],
            "stateMutability": "view",
            "type": "function"
        },
        {
            "inputs": [],
            "name": "name",
            "outputs": [
                {
                    "internalType": "string",
                    "name": "",
                    "type": "string"
                }
            ],
            "stateMutability": "view",
            "type": "function"
        },
        {
            "inputs": [
                {
                    "internalType": "address",
                    "name": "",
                    "type": "address"
                }
            ],
            "name": "nonces",
            "outputs": [
                {
                    "internalType": "uint256",
                    "name": "",
                    "type": "uint256"
                }
            ],
            "stateMutability": "view",
            "type": "function"
        },
        {
            "inputs": [
                {
                    "internalType": "uint256",
                    "name": "priceExp",
                    "type": "uint256"
                },
                {
                    "internalType": "uint256",
                    "name": "amount",
                    "type": "uint256"
                },
                {
                    "internalType": "uint256",
                    "name": "deadline",
                    "type": "uint256"
                }
            ],
            "name": "openLong",
            "outputs": [],
            "stateMutability": "nonpayable",
            "type": "function"
        },
        {
            "inputs": [
                {
                    "internalType": "uint256",
                    "name": "priceExp",
                    "type": "uint256"
                },
                {
                    "internalType": "uint256",
                    "name": "amount",
                    "type": "uint256"
                },
                {
                    "internalType": "uint256",
                    "name": "deadline",
                    "type": "uint256"
                }
            ],
            "name": "openShort",
            "outputs": [],
            "stateMutability": "nonpayable",
            "type": "function"
        },
        {
            "inputs": [],
            "name": "owner",
            "outputs": [
                {
                    "internalType": "address",
                    "name": "",
                    "type": "address"
                }
            ],
            "stateMutability": "view",
            "type": "function"
        },
        {
            "inputs": [
                {
                    "internalType": "address",
                    "name": "owner",
                    "type": "address"
                },
                {
                    "internalType": "address",
                    "name": "spender",
                    "type": "address"
                },
                {
                    "internalType": "uint256",
                    "name": "value",
                    "type": "uint256"
                },
                {
                    "internalType": "uint256",
                    "name": "deadline",
                    "type": "uint256"
                },
                {
                    "internalType": "uint8",
                    "name": "v",
                    "type": "uint8"
                },
                {
                    "internalType": "bytes32",
                    "name": "r",
                    "type": "bytes32"
                },
                {
                    "internalType": "bytes32",
                    "name": "s",
                    "type": "bytes32"
                }
            ],
            "name": "permit",
            "outputs": [],
            "stateMutability": "nonpayable",
            "type": "function"
        },
        {
            "inputs": [],
            "name": "poolExplosivePrice",
            "outputs": [
                {
                    "internalType": "uint256",
                    "name": "",
                    "type": "uint256"
                }
            ],
            "stateMutability": "view",
            "type": "function"
        },
        {
            "inputs": [],
            "name": "poolLeftAmountRate",
            "outputs": [
                {
                    "internalType": "uint24",
                    "name": "",
                    "type": "uint24"
                }
            ],
            "stateMutability": "view",
            "type": "function"
        },
        {
            "inputs": [],
            "name": "poolLongAmount",
            "outputs": [
                {
                    "internalType": "uint256",
                    "name": "",
                    "type": "uint256"
                }
            ],
            "stateMutability": "view",
            "type": "function"
        },
        {
            "inputs": [],
            "name": "poolLongPrice",
            "outputs": [
                {
                    "internalType": "uint256",
                    "name": "",
                    "type": "uint256"
                }
            ],
            "stateMutability": "view",
            "type": "function"
        },
        {
            "inputs": [],
            "name": "poolNetAmountRateLimitOpen",
            "outputs": [
                {
                    "internalType": "int24",
                    "name": "",
                    "type": "int24"
                }
            ],
            "stateMutability": "view",
            "type": "function"
        },
        {
            "inputs": [],
            "name": "poolNetAmountRateLimitPrice",
            "outputs": [
                {
                    "internalType": "int24",
                    "name": "",
                    "type": "int24"
                }
            ],
            "stateMutability": "view",
            "type": "function"
        },
        {
            "inputs": [],
            "name": "poolShortAmount",
            "outputs": [
                {
                    "internalType": "uint256",
                    "name": "",
                    "type": "uint256"
                }
            ],
            "stateMutability": "view",
            "type": "function"
        },
        {
            "inputs": [],
            "name": "poolShortPrice",
            "outputs": [
                {
                    "internalType": "uint256",
                    "name": "",
                    "type": "uint256"
                }
            ],
            "stateMutability": "view",
            "type": "function"
        },
        {
            "inputs": [],
            "name": "poolState",
            "outputs": [
                {
                    "internalType": "uint8",
                    "name": "",
                    "type": "uint8"
                }
            ],
            "stateMutability": "view",
            "type": "function"
        },
        {
            "inputs": [
                {
                    "internalType": "uint256",
                    "name": "amount",
                    "type": "uint256"
                }
            ],
            "name": "rechargeMargin",
            "outputs": [],
            "stateMutability": "nonpayable",
            "type": "function"
        },
        {
            "inputs": [
                {
                    "internalType": "uint256",
                    "name": "liquidity",
                    "type": "uint256"
                },
                {
                    "internalType": "address",
                    "name": "to",
                    "type": "address"
                }
            ],
            "name": "removeLiquidity",
            "outputs": [],
            "stateMutability": "nonpayable",
            "type": "function"
        },
        {
            "inputs": [
                {
                    "internalType": "bool",
                    "name": "b",
                    "type": "bool"
                }
            ],
            "name": "setCanAddLiquidity",
            "outputs": [],
            "stateMutability": "nonpayable",
            "type": "function"
        },
        {
            "inputs": [
                {
                    "internalType": "bool",
                    "name": "b",
                    "type": "bool"
                }
            ],
            "name": "setCanOpen",
            "outputs": [],
            "stateMutability": "nonpayable",
            "type": "function"
        },
        {
            "inputs": [
                {
                    "internalType": "bool",
                    "name": "b",
                    "type": "bool"
                }
            ],
            "name": "setFeeOn",
            "outputs": [],
            "stateMutability": "nonpayable",
            "type": "function"
        },
        {
            "inputs": [
                {
                    "internalType": "uint16",
                    "name": "value",
                    "type": "uint16"
                }
            ],
            "name": "setFeeRate",
            "outputs": [],
            "stateMutability": "nonpayable",
            "type": "function"
        },
        {
            "inputs": [
                {
                    "internalType": "address",
                    "name": "_feeTo",
                    "type": "address"
                }
            ],
            "name": "setFeeTo",
            "outputs": [],
            "stateMutability": "nonpayable",
            "type": "function"
        },
        {
            "inputs": [
                {
                    "internalType": "address",
                    "name": "_feedPrice",
                    "type": "address"
                }
            ],
            "name": "setFeedPrice",
            "outputs": [],
            "stateMutability": "nonpayable",
            "type": "function"
        },
        {
            "inputs": [
                {
                    "internalType": "uint8",
                    "name": "value",
                    "type": "uint8"
                }
            ],
            "name": "setKeepMarginScale",
            "outputs": [],
            "stateMutability": "nonpayable",
            "type": "function"
        },
        {
            "inputs": [
                {
                    "internalType": "int24",
                    "name": "value",
                    "type": "int24"
                }
            ],
            "name": "setPoolNetAmountRateLimitOpen",
            "outputs": [],
            "stateMutability": "nonpayable",
            "type": "function"
        },
        {
            "inputs": [
                {
                    "internalType": "int24",
                    "name": "value",
                    "type": "int24"
                }
            ],
            "name": "setPoolNetAmountRateLimitPrice",
            "outputs": [],
            "stateMutability": "nonpayable",
            "type": "function"
        },
        {
            "inputs": [],
            "name": "singleCloseLimitRate",
            "outputs": [
                {
                    "internalType": "uint24",
                    "name": "",
                    "type": "uint24"
                }
            ],
            "stateMutability": "view",
            "type": "function"
        },
        {
            "inputs": [],
            "name": "singleOpenLimitRate",
            "outputs": [
                {
                    "internalType": "uint16",
                    "name": "",
                    "type": "uint16"
                }
            ],
            "stateMutability": "view",
            "type": "function"
        },
        {
            "inputs": [],
            "name": "slideP",
            "outputs": [
                {
                    "internalType": "uint8",
                    "name": "",
                    "type": "uint8"
                }
            ],
            "stateMutability": "view",
            "type": "function"
        },
        {
            "inputs": [],
            "name": "sumFee",
            "outputs": [
                {
                    "internalType": "uint256",
                    "name": "",
                    "type": "uint256"
                }
            ],
            "stateMutability": "view",
            "type": "function"
        },
        {
            "inputs": [],
            "name": "symbol",
            "outputs": [
                {
                    "internalType": "string",
                    "name": "",
                    "type": "string"
                }
            ],
            "stateMutability": "view",
            "type": "function"
        },
        {
            "inputs": [],
            "name": "token0",
            "outputs": [
                {
                    "internalType": "address",
                    "name": "",
                    "type": "address"
                }
            ],
            "stateMutability": "view",
            "type": "function"
        },
        {
            "inputs": [],
            "name": "token0Decimal",
            "outputs": [
                {
                    "internalType": "uint256",
                    "name": "",
                    "type": "uint256"
                }
            ],
            "stateMutability": "view",
            "type": "function"
        },
        {
            "inputs": [],
            "name": "totalPool",
            "outputs": [
                {
                    "internalType": "int256",
                    "name": "",
                    "type": "int256"
                }
            ],
            "stateMutability": "view",
            "type": "function"
        },
        {
            "inputs": [],
            "name": "totalSupply",
            "outputs": [
                {
                    "internalType": "uint256",
                    "name": "",
                    "type": "uint256"
                }
            ],
            "stateMutability": "view",
            "type": "function"
        },
        {
            "inputs": [
                {
                    "internalType": "address",
                    "name": "",
                    "type": "address"
                }
            ],
            "name": "traders",
            "outputs": [
                {
                    "internalType": "int256",
                    "name": "margin",
                    "type": "int256"
                },
                {
                    "internalType": "uint256",
                    "name": "longAmount",
                    "type": "uint256"
                },
                {
                    "internalType": "uint256",
                    "name": "longPrice",
                    "type": "uint256"
                },
                {
                    "internalType": "uint256",
                    "name": "shortAmount",
                    "type": "uint256"
                },
                {
                    "internalType": "uint256",
                    "name": "shortPrice",
                    "type": "uint256"
                },
                {
                    "internalType": "uint32",
                    "name": "interestDay",
                    "type": "uint32"
                }
            ],
            "stateMutability": "view",
            "type": "function"
        },
        {
            "inputs": [
                {
                    "internalType": "address",
                    "name": "to",
                    "type": "address"
                },
                {
                    "internalType": "uint256",
                    "name": "value",
                    "type": "uint256"
                }
            ],
            "name": "transfer",
            "outputs": [
                {
                    "internalType": "bool",
                    "name": "",
                    "type": "bool"
                }
            ],
            "stateMutability": "nonpayable",
            "type": "function"
        },
        {
            "inputs": [
                {
                    "internalType": "address",
                    "name": "from",
                    "type": "address"
                },
                {
                    "internalType": "address",
                    "name": "to",
                    "type": "address"
                },
                {
                    "internalType": "uint256",
                    "name": "value",
                    "type": "uint256"
                }
            ],
            "name": "transferFrom",
            "outputs": [
                {
                    "internalType": "bool",
                    "name": "",
                    "type": "bool"
                }
            ],
            "stateMutability": "nonpayable",
            "type": "function"
        },
        {
            "inputs": [
                {
                    "internalType": "address",
                    "name": "_owner",
                    "type": "address"
                }
            ],
            "name": "transferOwner",
            "outputs": [],
            "stateMutability": "nonpayable",
            "type": "function"
        },
        {
            "inputs": [],
            "name": "withdrawFee",
            "outputs": [],
            "stateMutability": "nonpayable",
            "type": "function"
        },
        {
            "inputs": [
                {
                    "internalType": "uint256",
                    "name": "amount",
                    "type": "uint256"
                }
            ],
            "name": "withdrawMargin",
            "outputs": [],
            "stateMutability": "nonpayable",
            "type": "function"
        }
    ],
    "bytecode": "6101606040526006805461ffff60a01b191661010160a01b17905560016008556009805466ffffffffffff001916660493e0061a80001790556016805463ffff00ff1916630258001e1790553480156200005857600080fd5b5060405162004f0b38038062004f0b8339810160408190526200007b91620002df565b846001600160a01b031663313ce5676040518163ffffffff1660e01b8152600401602060405180830381865afa158015620000ba573d6000803e3d6000fd5b505050506040513d601f19601f82011682018060405250810190620000e091906200034f565b604080518082018252600c81526b48656467657853696e676c6560a01b6020918201528151808301835260018152603160f81b9082015281517f8b73c3c69bb8fe3d512ecc4cf759cc79239f7b179b0ffacaa9a75d522b39400f918101919091527fdbb8f54117374490c454ab41b80d95cf4a0c3b286124d9b83e346d854dc3efcd918101919091527fc89efdaa54c0f20c7adf612882df0950f5a951637e0307cdcb4c672f298b8bc660608201524660808201523060a082015260c00160408051601f19818403018152828252805160209182012060a05260ff9093166080526006805460ff60b01b1916600160b01b179055601e80546001600160a01b03808a166001600160a01b031990921691909117909155881661010081905263313ce56760e01b83529051909263313ce56792600480820193918290030181865afa15801562000233573d6000803e3d6000fd5b505050506040513d601f19601f820116820180604052508101906200025991906200034f565b6200026690600a62000489565b6101205260c09290925260ff1660e0526009805460ff191690556016805461ff00191661010017905560000b610140525050600480546001600160a01b031916331790556200049a565b80516001600160a01b0381168114620002c857600080fd5b919050565b805160ff81168114620002c857600080fd5b600080600080600060a08688031215620002f857600080fd5b6200030386620002b0565b94506200031360208701620002b0565b9350604086015192506200032a60608701620002cd565b915060808601518060000b81146200034157600080fd5b809150509295509295909350565b6000602082840312156200036257600080fd5b6200036d82620002cd565b9392505050565b634e487b7160e01b600052601160045260246000fd5b600181815b80851115620003cb578160001904821115620003af57620003af62000374565b80851615620003bd57918102915b93841c93908002906200038f565b509250929050565b600082620003e45750600162000483565b81620003f35750600062000483565b81600181146200040c5760028114620004175762000437565b600191505062000483565b60ff8411156200042b576200042b62000374565b50506001821b62000483565b5060208310610133831016604e8410600b84101617156200045c575081810a62000483565b6200046883836200038a565b80600019048211156200047f576200047f62000374565b0290505b92915050565b60006200036d60ff841683620003d3565b60805160a05160c05160e05161010051610120516101405161497c6200058f6000396000818161061b0152818161271c01528181612749015281816127b301528181612828015261289b0152600081816109fb0152818161175401528181612774015281816127df015261285c01526000818161054d01528181610d8701528181610ffa015281816110ab015281816117970152818161253001528181612cf701528181613394015261345701526000818161066f01528181610e9401528181613cb10152613d1a0152600081816105e10152612d700152600081816106fa0152612e8b015260006106ca015261497c6000f3fe608060405234801561001057600080fd5b506004361061045f5760003560e01c8063807ca3531161024c578063b22dd2ca11610146578063dd62ed3e116100c3578063f46901ed11610087578063f46901ed14610b43578063fa50744514610b56578063fc4064b314610b69578063fee2cb0514610b7c578063ffaeb58214610b8e57600080fd5b8063dd62ed3e14610aeb578063ddcb04c214610b16578063e598431914610b29578063e941fa7814610b32578063ecfb49a314610b3a57600080fd5b8063ce8ad1d21161010a578063ce8ad1d214610aa0578063d1ad24be14610aa9578063d375454f14610abc578063d505accf14610ac6578063db4bed0e14610ad957600080fd5b8063b22dd2ca14610a43578063bedc409b14610a55578063c669c32c14610a68578063c95f9d0e14610a7b578063cd8bb6cd14610a8e57600080fd5b80638e406892116101d4578063978bbdb911610198578063978bbdb9146109d9578063994af3ae146109ed5780639ddc230a146109f6578063a04eecae14610a1d578063a9059cbb14610a3057600080fd5b80638e4068921461091557806390edbeb01461091e57806392a88fa21461093157806395d89b41146109ad578063971059fb146109d057600080fd5b80638a55d36e1161021b5780638a55d36e146108975780638b0af0fa146108a45780638d73d86a146108b85780638da5cb5b146108e55780638e15f473146108f857600080fd5b8063807ca353146108555780638632d4ab146108685780638967b6941461087b57806389d408ff1461088457600080fd5b806330adf81f1161035d578063641ad8a9116102e557806373e6054b116102a957806373e6054b146107da5780637aaae950146104945780637bb71a97146108235780637e4856c41461082b5780637ecebe001461083557600080fd5b8063641ad8a91461076d5780636422e08f146107815780636c2ee3591461079457806370a08231146107a757806371b31707146107c757600080fd5b80633e31fb451161032c5780633e31fb451461071c5780634f335d0a146107245780634fb2e45d146107365780635d0291ac146107495780635f8e422f1461076557600080fd5b806330adf81f1461069e578063313ce567146106c557806333d6f1f7146106ec5780633644e515146106f557600080fd5b806318160ddd116103eb57806329ff0773116103af57806329ff0773146106035780632be90282146106165780632c204fa8146106505780632c86d98e1461066a578063303c0a3b1461069157600080fd5b806318160ddd14610582578063190b065f146105995780631cce9103146105a257806323b872dd146105c95780632678b8fd146105dc57600080fd5b8063095ea7b311610432578063095ea7b3146104ff5780630cea7534146105225780630def3ead146105355780630dfe16811461054857806311ce83f81461056f57600080fd5b8063017e7e581461046457806301bcc9081461049457806305fe138b146104b257806306fdde03146104c7575b600080fd5b600654610477906001600160a01b031681565b6040516001600160a01b0390911681526020015b60405180910390f35b61049e620186a081565b60405162ffffff909116815260200161048b565b6104c56104c0366004614124565b610ba2565b005b6104f26040518060400160405280600c81526020016b48656467657853696e676c6560a01b81525081565b60405161048b9190614180565b61051261050d3660046141b3565b610de8565b604051901515815260200161048b565b6104c56105303660046141dd565b610dff565b6104c5610543366004614204565b61105e565b6104777f000000000000000000000000000000000000000000000000000000000000000081565b6104c561057d3660046141dd565b6110a6565b61058b60005481565b60405190815260200161048b565b61058b60175481565b6009546105b690600160201b900460020b81565b60405160029190910b815260200161048b565b6105126105d7366004614221565b61112e565b61058b7f000000000000000000000000000000000000000000000000000000000000000081565b6104c561061136600461425d565b6111a8565b61063d7f000000000000000000000000000000000000000000000000000000000000000081565b60405160009190910b815260200161048b565b610658603281565b60405160ff909116815260200161048b565b6106587f000000000000000000000000000000000000000000000000000000000000000081565b6016546106589060ff1681565b61058b7f6e71edae12b1b97f4d1f60370fef10105fa2faae0126114a169c64845d6126c981565b6106587f000000000000000000000000000000000000000000000000000000000000000081565b61058b60075481565b61058b7f000000000000000000000000000000000000000000000000000000000000000081565b6104c561120e565b60165461051290610100900460ff1681565b6104c5610744366004614281565b611447565b61075261753081565b60405161ffff909116815260200161048b565b6104c5611493565b60065461065890600160b01b900460ff1681565b6104c561078f36600461429c565b6114e4565b6104c56107a23660046142c6565b61181e565b61058b6107b5366004614281565b60016020526000908152604090205481565b6104c56107d53660046142c6565b611b72565b601854601954601b54601a54601c546006546040805196875260208701959095529385019290925260608401526080830152600160b01b900460ff1660a082015260c00161048b565b61058b611e99565b61049e620f424081565b61058b610843366004614281565b60036020526000908152604090205481565b6104c56108633660046142c6565b611f4b565b6104c5610876366004614303565b6122a6565b6107526103e881565b6104c561089236600461429c565b6122e6565b6009546105129060ff1681565b60065461051290600160a01b900460ff1681565b600a54600b54600c546108ca92919083565b6040805193845260208401929092529082015260600161048b565b600454610477906001600160a01b031681565b610900612632565b6040805192835260208301919091520161048b565b61058b601a5481565b6104c561092c3660046142c6565b6128ca565b61097a61093f366004614281565b601d60205260009081526040902080546001820154600283015460038401546004850154600590950154939492939192909163ffffffff1686565b604080519687526020870195909552938501929092526060840152608083015263ffffffff1660a082015260c00161048b565b6104f2604051806040016040528060048152602001634845585360e01b81525081565b61058b601c5481565b6016546107529062010000900461ffff1681565b61058b601b5481565b61058b7f000000000000000000000000000000000000000000000000000000000000000081565b601e54610477906001600160a01b031681565b610512610a3e3660046141b3565b612bfa565b600d54600e54600f546108ca92919083565b6104c5610a6336600461431e565b612c07565b6104c5610a76366004614281565b612c51565b6104c5610a89366004614124565b612c9d565b6009546105b690610100900460020b81565b61049e61c35081565b6104c5610ab736600461431e565b612dde565b61049e6203d09081565b6104c5610ad4366004614341565b612e2d565b6013546014546015546108ca92919083565b61058b610af936600461429c565b600260209081526000928352604080842090915290825290205481565b6104c5610b2436600461429c565b613059565b61058b60195481565b6104c561341b565b61058b60185481565b6104c5610b51366004614281565b613489565b6104c5610b64366004614204565b6134d5565b6104c5610b77366004614204565b61351d565b6010546011546012546108ca92919083565b60065461051290600160a81b900460ff1681565b600654600160b01b900460ff16600114610bd75760405162461bcd60e51b8152600401610bce906143ab565b60405180910390fd5b600954829060ff1615610d60576000610bee612632565b5090506000610bfc82613561565b90506000601a5460195411610c2057601954601a54610c1b91906143e8565b610c30565b601a54601954610c3091906143e8565b905060006003601a54601954610c4691906143ff565b610c50919061442d565b905080821015610c5e578091505b600954600090610100900462ffffff16620f4240610c7c8786614441565b610c869190614441565b610c90919061442d565b9050808413610ce15760405162461bcd60e51b815260206004820152601760248201527f6e6574206d757374203e20757365644d617267696e2f520000000000000000006044820152606401610bce565b6000610ced82866143e8565b600054909150610cfd8a87614441565b610d07919061442d565b965080871115610d595760405162461bcd60e51b815260206004820152601860248201527f776974686472617720616d6f756e7420746f6f206d616e7900000000000000006044820152606401610bce565b5050505050505b8060186000828254610d729190614460565b90915550610d82905033846135aa565b610dad7f00000000000000000000000000000000000000000000000000000000000000008383613635565b60405183815233907fcc16f5dbb4873280815c1ee09dbd06736cffcc184412cf7a71a0fdb75d397ca5906020015b60405180910390a2505050565b6000610df5338484613750565b5060015b92915050565b600654600160b01b900460ff16600114610e2b5760405162461bcd60e51b8152600401610bce906143ab565b336000908152601d60209081526040808320815160c0810183528154815260018201549381019390935260028101549183019190915260038101546060830152600481015460808301526005015463ffffffff1660a082015290610e8d612632565b50905060007f000000000000000000000000000000000000000000000000000000000000000060ff1683608001518460600151610eca9190614441565b84604001518560200151610ede9190614441565b610ee891906143ff565b610ef2919061442d565b90506000828460600151610f069190614441565b84604001518560200151610f1a9190614441565b610f2491906143ff565b84608001518560600151610f389190614441565b848660200151610f489190614441565b610f5291906143ff565b8551610f5e919061449f565b610f689190614460565b90506000610f768383614460565b905060008113610fc85760405162461bcd60e51b815260206004820152601860248201527f63616e207769746864726177206973206e6567617469766500000000000000006044820152606401610bce565b8581811315610fd45750805b8551610fe1908290614460565b336000818152601d6020526040902091909155611020907f00000000000000000000000000000000000000000000000000000000000000009083613635565b60405181815233907f884edad9ce6fa2440d8a54cc123490eb96d2768479d49ff9c7366125a94243649060200160405180910390a250505050505050565b6004546001600160a01b031633146110885760405162461bcd60e51b8152600401610bce906144e0565b60068054911515600160a81b0260ff60a81b19909216919091179055565b6110d27f00000000000000000000000000000000000000000000000000000000000000003330846137b2565b336000908152601d6020526040812080548392906110f190849061449f565b909155505060405181815233907f78d9de6f3ad1cae9e0cbcbaa5267fd90f6a6728831eec42b7c147b398b2269249060200160405180910390a250565b6001600160a01b038316600090815260026020908152604080832033845290915281205460001914611193576001600160a01b03841660009081526002602090815260408083203384529091528120805484929061118d9084906143e8565b90915550505b61119e8484846138e2565b5060019392505050565b6004546001600160a01b031633146111ee5760405162461bcd60e51b8152602060048201526009602482015268333937b134b23232b760b91b6044820152606401610bce565b6016805461ffff909216620100000263ffff000019909216919091179055565b6008546001146112305760405162461bcd60e51b8152600401610bce90614503565b6000600855600654600160b01b900460ff166001146112875760405162461bcd60e51b8152602060048201526013602482015272706f6f6c206973206578706c6f736976696e6760681b6044820152606401610bce565b6000611291612632565b509050600061129f82613561565b90506000601a54601954116112da57600583601954601a546112c191906143e8565b6112cb9190614441565b6112d5919061442d565b611301565b600583601a546019546112ed91906143e8565b6112f79190614441565b611301919061442d565b9050808213156113535760405162461bcd60e51b815260206004820152601960248201527f706f6f6c2063616e6e2774206265206578706c6f7369766564000000000000006044820152606401610bce565b6006805460ff60b01b1916600160b11b179055600061137360048361442d565b905080831215611427576000601954601a5461138f9190614460565b82601c54601a546113a09190614441565b601b546019546113b09190614441565b6018546113bd9190614460565b6113c7919061449f565b6113d19190614460565b6113db9190614523565b90506000811361141a5760405162461bcd60e51b815260206004820152600a6024820152690657072696365203e20360b41b6044820152606401610bce565b6007556018819055611432565b601883905560078490555b50506000601c819055601b5550506001600855565b6004546001600160a01b031633146114715760405162461bcd60e51b8152600401610bce906144e0565b600580546001600160a01b0319166001600160a01b0392909216919091179055565b6005546001600160a01b031633146114bd5760405162461bcd60e51b8152600401610bce906144e0565b60058054600480546001600160a01b03199081166001600160a01b03841617909155169055565b6008546001146115065760405162461bcd60e51b8152600401610bce90614503565b6000600855600654600160b01b900460ff1660021461155c5760405162461bcd60e51b81526020600482015260126024820152713837b7b629ba30ba329034b9903737ba101960711b6044820152606401610bce565b6001600160a01b0382166000908152601d60209081526040808320815160c0810183528154815260018201549381019390935260028101549183019190915260038101546060830152600481015460808301526005015463ffffffff1660a082015260075490916115cd8383613983565b6016546060850151919250600091620f42409162010000900461ffff16906115f6908690614441565b8587602001516116069190614441565b61161091906143ff565b61161a9190614441565b611624919061442d565b60208501519091501561164d578360200151601a600082825461164791906143e8565b90915550505b6060840151156116735783606001516019600082825461166d91906143e8565b90915550505b6019541580156116835750601a54155b1561169c576006805460ff60b01b1916600160b01b1790555b808213156116e7576116ae8183614460565b6001600160a01b0387166000908152601d6020526040812091909155601880548392906116dc90849061449f565b9091555061171a9050565b6001600160a01b0386166000908152601d602052604081208190556018805484929061171490849061449f565b90915550505b6001600160a01b0386166000908152601d60205260408120600181018290556002810182905560038101829055600401819055611778600a7f000000000000000000000000000000000000000000000000000000000000000061442d565b9050806018600082825461178c9190614460565b909155506117bd90507f00000000000000000000000000000000000000000000000000000000000000008783613635565b60208086015160608088015160408051938452938301529181018690526001600160a01b038916917ffca559ae7a3bea5c41671f27049d90b84fbf98be965e6d7f0259ee6e5caa980b910160405180910390a2505060016008555050505050565b6008546001146118405760405162461bcd60e51b8152600401610bce90614503565b600060085580428110156118665760405162461bcd60e51b8152600401610bce90614551565b600654600160b01b900460ff166001146118925760405162461bcd60e51b8152600401610bce906143ab565b60095460ff166118dc5760405162461bcd60e51b815260206004820152601560248201527418dbdb9d1c9858dd081a5cc81b9bdd081cdd185c9d605a1b6044820152606401610bce565b600654600160a81b900460ff166119055760405162461bcd60e51b8152600401610bce906144e0565b600080611910612632565b9150915060008060006119246001866139fe565b9194509250905084620f424061193c61753085614441565b611946919061442d565b611950919061442d565b88111561196f5760405162461bcd60e51b8152600401610bce90614580565b600954610100900460020b83126119985760405162461bcd60e51b8152600401610bce906145b7565b60006119a48685613a9a565b6119ae83886143ff565b6119b891906143ff565b905060008512156119d9576119cc856145fc565b6119d690826143ff565b90505b89811115806119e6575089155b611a325760405162461bcd60e51b815260206004820152601b60248201527f6f70656e206c6f6e6720707269636520697320746f6f206869676800000000006044820152606401610bce565b6000611a3e828b614441565b9050600080611a4d8984613b9d565b915091508b8160200151611a6191906143ff565b336000908152601d6020908152604090912060010191909155810151611a88908d906143ff565b8382604001518360200151611a9d9190614441565b611aa791906143ff565b611ab1919061442d565b336000908152601d60205260409020600201558051611ad1908390614460565b336000908152601d6020526040902055601a54611aee8d826143ff565b601a55611afb8d826143ff565b84601c5483611b0a9190614441565b611b1491906143ff565b611b1e919061442d565b601c55611b2a83613e12565b6040805160018152602081018f90529081018690523390600080516020614927833981519152906060015b60405180910390a250506001600855505050505050505050505050565b600854600114611b945760405162461bcd60e51b8152600401610bce90614503565b60006008558042811015611bba5760405162461bcd60e51b8152600401610bce90614551565b600654600160b01b900460ff16600114611be65760405162461bcd60e51b8152600401610bce906143ab565b60095460ff16611c305760405162461bcd60e51b815260206004820152601560248201527418dbdb9d1c9858dd081a5cc81b9bdd081cdd185c9d605a1b6044820152606401610bce565b600654600160a81b900460ff16611c595760405162461bcd60e51b8152600401610bce906144e0565b600080611c64612632565b915091506000806000611c79600019866139fe565b9194509250905084620f4240611c9161753085614441565b611c9b919061442d565b611ca5919061442d565b881115611cc45760405162461bcd60e51b8152600401610bce90614580565b600954610100900460020b8312611ced5760405162461bcd60e51b8152600401610bce906145b7565b6000611cf98685613a9a565b611d0383886143e8565b611d0d91906143e8565b90506000851315611d2557611d2285826143e8565b90505b89811015611d755760405162461bcd60e51b815260206004820152601b60248201527f6f70656e2073686f727420707269636520697320746f6f206c6f7700000000006044820152606401610bce565b6000611d81828b614441565b9050600080611d908984613b9d565b915091508b8160600151611da491906143ff565b336000908152601d60205260409020600301556060810151611dc7908d906143ff565b8382608001518360600151611ddc9190614441565b611de691906143ff565b611df0919061442d565b336000908152601d60205260409020600401558051611e10908390614460565b336000908152601d6020526040902055601954611e2d8d826143ff565b601955611e3a8d826143ff565b84601b5483611e499190614441565b611e5391906143ff565b611e5d919061442d565b601b55611e6983613e12565b604080516000198152602081018f9052908101869052339060008051602061492783398151915290606001611b55565b600080611ea4612632565b509050600081601a54611eb79190614441565b601b54601954611ec79190614441565b611ed191906143ff565b601c54601a54611ee19190614441565b83601954611eef9190614441565b611ef991906143ff565b601854611f06919061449f565b611f109190614460565b905060008113610df95760405162461bcd60e51b815260206004820152600660248201526506e65743c3d360d41b6044820152606401610bce565b600854600114611f6d5760405162461bcd60e51b8152600401610bce90614503565b60006008558042811015611f935760405162461bcd60e51b8152600401610bce90614551565b600654600160b01b900460ff16600114611fbf5760405162461bcd60e51b8152600401610bce906143ab565b600080611fca612632565b915091506000806000611fde6001866139fe565b9194509250905084620f4240611ff7620186a085614441565b612001919061442d565b61200b919061442d565b88111561202a5760405162461bcd60e51b8152600401610bce90614580565b60006120368685613a9a565b61204083886143ff565b61204a91906143ff565b9050600085121561206b5761205e856145fc565b61206890826143ff565b90505b8981111580612078575089155b6120c45760405162461bcd60e51b815260206004820152601d60248201527f636c6f73652073686f727420707269636520697320746f6f20686967680000006044820152606401610bce565b336000908152601d6020908152604091829020825160c081018452815481526001820154928101929092526002810154928201929092526003820154606082018190526004830154608083015260059092015463ffffffff1660a0820152908a111561217e5760405162461bcd60e51b815260206004820152602360248201527f636c6f736520616d6f756e742072657175697265203e3d2073686f7274416d6f6044820152621d5b9d60ea1b6064820152608401610bce565b601654600090620f42409062010000900461ffff1661219d858e614441565b6121a79190614441565b6121b1919061442d565b905060008383608001516121c59190614460565b6121cf908d614619565b90508b83606001516121e191906143e8565b336000908152601d60205260409020600301558251829061220390839061449f565b61220d9190614460565b336000908152601d602052604090205560608301518c141561223d57336000908152601d60205260408120600401555b8b6019600082825461224f91906143e8565b9091555061225f90508282613e9a565b6040805160028152602081018e90529081018590523390600080516020614927833981519152906060015b60405180910390a2505060016008555050505050505050505050565b6004546001600160a01b031633146122d05760405162461bcd60e51b8152600401610bce906144e0565b6016805460ff191660ff92909216919091179055565b6008546001146123085760405162461bcd60e51b8152600401610bce90614503565b6000600855600654600160b01b900460ff166001146123395760405162461bcd60e51b8152600401610bce906143ab565b6001600160a01b0382166000908152601d60209081526040808320815160c0810183528154815260018201549381019390935260028101549183019190915260038101546060830181905260048201546080840181905260059092015463ffffffff1660a084015260165492939260ff16916123b491614441565b836040015184602001516123c89190614441565b6123d291906143ff565b6123dc919061442d565b905060006123e8612632565b50905060006123f78483613983565b90508281131561243c5760405162461bcd60e51b815260206004820152601060248201526f63616e6e2774206578706c6f7369766560801b6044820152606401610bce565b602084015160009015612485578460200151601a600082825461245f91906143e8565b909155505060408501516124739084614460565b85602001516124829190614619565b90505b6060850151156124d6578460600151601960008282546124a591906143e8565b909155505060808501516124ba908490614460565b85606001516124c99190614619565b6124d3908261449f565b90505b606085015160208601516001199111156124ee575060025b6001600160a01b0388166000908152601d6020526040812081815560018101829055600281018290556003810182905560040181905583131561259e576125607f00000000000000000000000000000000000000000000000000000000000000008861255b600587614523565b613635565b81600561256e856004614619565b6125789190614523565b6125829190614460565b60186000828254612593919061449f565b909155506125bf9050565b6125a88284614460565b601860008282546125b9919061449f565b90915550505b876001600160a01b03167f1cf7369c3767c976b447baaae4eed8217e2d190d1750c589e62bf5f7ecc4aaff82886060015189602001516125ff91906143ff565b6040805160009390930b83526020830191909152810187905260600160405180910390a250506001600855505050505050565b6000806000806000601e60009054906101000a90046001600160a01b03166001600160a01b03166310bace8c6040518163ffffffff1660e01b8152600401606060405180830381865afa15801561268d573d6000803e3d6000fd5b505050506040513d601f19601f820116820180604052508101906126b1919061469e565b925092509250600083116127185760405162461bcd60e51b815260206004820152602860248201527f7468652070616972207374616e64617264207072696365206d75737420626520604482015267706f73697469766560c01b6064820152608401610bce565b60007f000000000000000000000000000000000000000000000000000000000000000060000b12612822578161276f7f0000000000000000000000000000000000000000000000000000000000000000600a6147b0565b6127997f000000000000000000000000000000000000000000000000000000000000000086614441565b6127a39190614441565b6127ad919061442d565b826127d97f0000000000000000000000000000000000000000000000000000000000000000600a6147b0565b612803907f0000000000000000000000000000000000000000000000000000000000000000614441565b61280d9084614619565b6128179190614523565b945094505050509091565b8161284c7f00000000000000000000000000000000000000000000000000000000000000006147bf565b61285790600a6147b0565b6128817f000000000000000000000000000000000000000000000000000000000000000086614441565b61288b919061442d565b612895919061442d565b826128bf7f00000000000000000000000000000000000000000000000000000000000000006147bf565b6127d990600a6147b0565b6008546001146128ec5760405162461bcd60e51b8152600401610bce90614503565b600060085580428110156129125760405162461bcd60e51b8152600401610bce90614551565b600654600160b01b900460ff1660011461293e5760405162461bcd60e51b8152600401610bce906143ab565b600080612949612632565b91509150600080600061295e600019866139fe565b9194509250905084620f4240612977620186a085614441565b612981919061442d565b61298b919061442d565b8811156129aa5760405162461bcd60e51b8152600401610bce90614580565b60006129b68685613a9a565b6129c083886143e8565b6129ca91906143e8565b905060008513156129e2576129df85826143e8565b90505b89811015612a325760405162461bcd60e51b815260206004820152601b60248201527f636c6f7365206c6f6e6720707269636520697320746f6f206c6f7700000000006044820152606401610bce565b336000908152601d6020908152604091829020825160c08101845281548152600182015492810183905260028201549381019390935260038101546060840152600481015460808401526005015463ffffffff1660a08301528a1115612ae55760405162461bcd60e51b815260206004820152602260248201527f636c6f736520616d6f756e742072657175697265203e3d206c6f6e67416d6f756044820152611b9d60f21b6064820152608401610bce565b601654600090620f42409062010000900461ffff16612b04858e614441565b612b0e9190614441565b612b18919061442d565b90506000826040015184612b2c9190614460565b612b36908d614619565b90508b8360200151612b4891906143e8565b336000908152601d602052604090206001015582518290612b6a90839061449f565b612b749190614460565b336000908152601d60209081526040909120919091558301518c1415612ba857336000908152601d60205260408120600201555b8b601a6000828254612bba91906143e8565b90915550612bca90508282613e9a565b604080516001198152602081018e905290810185905233906000805160206149278339815191529060600161228a565b6000610df53384846138e2565b6004546001600160a01b03163314612c315760405162461bcd60e51b8152600401610bce906144e0565b6009805462ffffff9092166101000263ffffff0019909216919091179055565b6004546001600160a01b03163314612c7b5760405162461bcd60e51b8152600401610bce906144e0565b601e80546001600160a01b0319166001600160a01b0392909216919091179055565b600654600160b01b900460ff16600114612cc95760405162461bcd60e51b8152600401610bce906143ab565b600654600160a01b900460ff16612cf25760405162461bcd60e51b8152600401610bce906144e0565b612d1e7f00000000000000000000000000000000000000000000000000000000000000003330856137b2565b600954829060ff1615612d54576000612d35611e99565b90508084600054612d469190614441565b612d50919061442d565b9150505b8260186000828254612d66919061449f565b90915550506018547f000000000000000000000000000000000000000000000000000000000000000013612da2576009805460ff191660011790555b612dac8282613f38565b60405181815233907f0f6798a560793a54c3bcfe86a93cde1e73087d944c0ea20544137d412139688590602001610ddb565b6004546001600160a01b03163314612e085760405162461bcd60e51b8152600401610bce906144e0565b6009805462ffffff909216600160201b0266ffffff0000000019909216919091179055565b42841015612e6f5760405162461bcd60e51b815260206004820152600f60248201526e12195919d95e0e8811561412549151608a1b6044820152606401610bce565b6001600160a01b038716600090815260036020526040812080547f0000000000000000000000000000000000000000000000000000000000000000917f6e71edae12b1b97f4d1f60370fef10105fa2faae0126114a169c64845d6126c9918b918b918b9187612edd836147df565b909155506040805160208101969096526001600160a01b0394851690860152929091166060840152608083015260a082015260c0810187905260e00160405160208183030381529060405280519060200120604051602001612f5692919061190160f01b81526002810192909252602282015260420190565b60408051601f198184030181528282528051602091820120600080855291840180845281905260ff88169284019290925260608301869052608083018590529092509060019060a0016020604051602081039080840390855afa158015612fc1573d6000803e3d6000fd5b5050604051601f1901519150506001600160a01b03811615801590612ff75750886001600160a01b0316816001600160a01b0316145b6130435760405162461bcd60e51b815260206004820152601960248201527f4865646765783a20494e56414c49445f5349474e4154555245000000000000006044820152606401610bce565b61304e898989613750565b505050505050505050565b60085460011461307b5760405162461bcd60e51b8152600401610bce90614503565b6000600855600654600160b01b900460ff166001146130ac5760405162461bcd60e51b8152600401610bce906143ab565b60006130bb620151804261442d565b905061012c6130cd82620151806147fa565b6130dd9063ffffffff16426143e8565b111561311a5760405162461bcd60e51b815260206004820152600c60248201526b74696d652064697361626c6560a01b6044820152606401610bce565b6001600160a01b0383166000908152601d60205260409020600581015463ffffffff908116908316116131885760405162461bcd60e51b81526020600482015260166024820152751a185cc81899595b881d185ad9481a5b9d195c995cdd60521b6044820152606401610bce565b8060030154816001015414156131d35760405162461bcd60e51b815260206004820152601060248201526f1b1bdb99c8195c5d585b081cda1bdc9d60821b6044820152606401610bce565b601a5460195460038301546001848101546000928391111561328d578385116132315760405162461bcd60e51b815260206004820152601060248201526f1a185d99481b9bc81a5b9d195c995cdd60821b6044820152606401610bce565b613239612632565b50905084620f424061324b86836143e8565b60018901546103e89061325e9086614441565b6132689190614441565b6132729190614441565b61327c919061442d565b613286919061442d565b925061332c565b8484116132cf5760405162461bcd60e51b815260206004820152601060248201526f1a185d99481b9bc81a5b9d195c995cdd60821b6044820152606401610bce565b6132d7612632565b506000199250905083620f42406132ee87836143e8565b60038901546103e8906133019086614441565b61330b9190614441565b6133159190614441565b61331f919061442d565b613329919061442d565b92505b6000620f424061333f620186a086614441565b613349919061442d565b60058801805463ffffffff191663ffffffff8b16179055875490915084908890600090613377908490614460565b9091555061338f905061338a82866143e8565b613e12565b6133ba7f00000000000000000000000000000000000000000000000000000000000000008a83613635565b60408051600085900b8152602081018690529081018390526001600160a01b038b16907f78213dfb97e98b601b3fee012a0f6bddbf4e63c293c77b5186137af1e7cf62ae9060600160405180910390a2505060016008555050505050505050565b6006546001600160a01b031633146134455760405162461bcd60e51b8152600401610bce906144e0565b601780546000909155600654613486907f0000000000000000000000000000000000000000000000000000000000000000906001600160a01b031683613635565b50565b6004546001600160a01b031633146134b35760405162461bcd60e51b8152600401610bce906144e0565b600680546001600160a01b0319166001600160a01b0392909216919091179055565b6004546001600160a01b031633146134ff5760405162461bcd60e51b8152600401610bce906144e0565b60068054911515600160a01b0260ff60a01b19909216919091179055565b6004546001600160a01b031633146135475760405162461bcd60e51b8152600401610bce906144e0565b601680549115156101000261ff0019909216919091179055565b60008082601a546135729190614441565b601b546019546135829190614441565b61358c91906143ff565b601c54601a5461359c9190614441565b84601954611eef9190614441565b6001600160a01b038216600090815260016020526040812080548392906135d29084906143e8565b92505081905550806000808282546135ea91906143e8565b90915550506040518181526000906001600160a01b038416907fddf252ad1be2c89b69c2b068fc378daa952ba7f163c4a11628f55a4df523b3ef906020015b60405180910390a35050565b604080516001600160a01b038481166024830152604480830185905283518084039091018152606490920183526020820180516001600160e01b031663a9059cbb60e01b17905291516000928392908716916136919190614826565b6000604051808303816000865af19150503d80600081146136ce576040519150601f19603f3d011682016040523d82523d6000602084013e6136d3565b606091505b50915091508180156136fd5750805115806136fd5750808060200190518101906136fd9190614842565b6137495760405162461bcd60e51b815260206004820152601f60248201527f5472616e7366657248656c7065723a205452414e534645525f4641494c4544006044820152606401610bce565b5050505050565b6001600160a01b0383811660008181526002602090815260408083209487168084529482529182902085905590518481527f8c5be1e5ebec7d5bd14f71427d1e84f3dd0314c0f7b2291e5b200ac8c7c3b92591015b60405180910390a3505050565b604080516001600160a01b0385811660248301528481166044830152606480830185905283518084039091018152608490920183526020820180516001600160e01b03166323b872dd60e01b17905291516000928392908816916138169190614826565b6000604051808303816000865af19150503d8060008114613853576040519150601f19603f3d011682016040523d82523d6000602084013e613858565b606091505b50915091508180156138825750805115806138825750808060200190518101906138829190614842565b6138da5760405162461bcd60e51b8152602060048201526024808201527f5472616e7366657248656c7065723a205452414e534645525f46524f4d5f46416044820152631253115160e21b6064820152608401610bce565b505050505050565b6001600160a01b0383166000908152600160205260408120805483929061390a9084906143e8565b90915550506001600160a01b038216600090815260016020526040812080548392906139379084906143ff565b92505081905550816001600160a01b0316836001600160a01b03167fddf252ad1be2c89b69c2b068fc378daa952ba7f163c4a11628f55a4df523b3ef836040516137a591815260200190565b60008183606001516139959190614441565b836040015184602001516139a99190614441565b6139b391906143ff565b836080015184606001516139c79190614441565b8385602001516139d79190614441565b6139e191906143ff565b84516139ed919061449f565b6139f79190614460565b9392505050565b600080600080613a0d85613561565b9050600081620f424060020b87601954601a54613a2a9190614460565b8a60000b613a389190614619565b613a429190614619565b613a4c9190614619565b613a569190614523565b905060008760000b613a6783613fb9565b60000b14613a8d57620f4240613a8088620f6950614441565b613a8a919061442d565b90505b9097919650945092505050565b6009546000908190600290613ab990600160201b9004820b600361485f565b613ac391906148ec565b60020b8312613b3857600954600590613ae790600160201b900460020b600361485f565b60020b846002613af79190614619565b613b019190614460565b613b0b9190614523565b600954613b2490600a90600160201b900460020b6148ec565b60020b613b31919061449f565b9050613b72565b600954600160201b900460020b8312613b7257600954600590613b6590600160201b900460020b85614460565b613b6f919061442d565b90505b620f4240613b816032836143ff565b613b8b9086614441565b613b95919061442d565b949350505050565b6000613bde6040518060c001604052806000815260200160008152602001600081526020016000815260200160008152602001600063ffffffff1681525090565b336000908152601d60209081526040808320815160c081018352815481526001820154938101939093526002810154918301919091526003810154606083018190526004820154608084015260059091015463ffffffff1660a0830152909190613c49908790614441565b82604001518360200151613c5d9190614441565b613c6791906143ff565b82608001518360600151613c7b9190614441565b878460200151613c8b9190614441565b613c9591906143ff565b8351613ca1919061449f565b613cab9190614460565b905060007f000000000000000000000000000000000000000000000000000000000000000060ff1683608001518460600151613ce79190614441565b84604001518560200151613cfb9190614441565b613d0591906143ff565b613d0f919061442d565b90506000613d4060ff7f0000000000000000000000000000000000000000000000000000000000000000168861442d565b601654909150600090620f424090613d629062010000900461ffff168a614441565b613d6c919061442d565b905060008482613d7c85876143ff565b613d8691906143ff565b613d909190614460565b90506000811315613e0357613da4816110a6565b336000908152601d6020908152604091829020825160c08101845281548152600182015492810192909252600281015492820192909252600382015460608201526004820154608082015260059091015463ffffffff1660a082015295505b50989397509295505050505050565b601654610100900460ff1615613e80576000620f4240613e356203d09084614441565b613e3f919061442d565b90508060176000828254613e5391906143ff565b90915550613e6390508183614460565b60186000828254613e74919061449f565b90915550613486915050565b8060186000828254613e92919061449f565b909155505050565b601654610100900460ff1615613f13576000620f4240613ebd6203d09085614441565b613ec7919061442d565b90508060176000828254613edb91906143ff565b90915550829050613eec8285614460565b613ef69190614460565b60186000828254613f07919061449f565b90915550613f34915050565b613f1d8183614460565b60186000828254613f2e919061449f565b90915550505b5050565b80600080828254613f4991906143ff565b90915550506001600160a01b03821660009081526001602052604081208054839290613f769084906143ff565b90915550506040518181526001600160a01b038316906000907fddf252ad1be2c89b69c2b068fc378daa952ba7f163c4a11628f55a4df523b3ef90602001613629565b600b5460009043146140ef57601080546013556011805460145560128054601555600d8054909355600e8054909255600f8054909155600a8054909355600b8054909255600c8054909155439182905591849055600090915561401e906001906143e8565b600e541461406f57601080546013556011805460145560128054601555600d8054909355600e8054909255600f8054909155600a54909255600b549055600c54905561406b6001436143e8565b600e555b61407a6002436143e8565b601154146140b657601080546013556011805460145560128054601555600d54909255600e549055600f5490556140b26002436143e8565b6011555b6140c16003436143e8565b601454146140ea576010546013556011546014556012546015556140e66003436143e8565b6014555b614100565b600a546140fc9083614460565b600c555b506001919050565b80356001600160a01b038116811461411f57600080fd5b919050565b6000806040838503121561413757600080fd5b8235915061414760208401614108565b90509250929050565b60005b8381101561416b578181015183820152602001614153565b8381111561417a576000848401525b50505050565b602081526000825180602084015261419f816040850160208701614150565b601f01601f19169190910160400192915050565b600080604083850312156141c657600080fd5b6141cf83614108565b946020939093013593505050565b6000602082840312156141ef57600080fd5b5035919050565b801515811461348657600080fd5b60006020828403121561421657600080fd5b81356139f7816141f6565b60008060006060848603121561423657600080fd5b61423f84614108565b925061424d60208501614108565b9150604084013590509250925092565b60006020828403121561426f57600080fd5b813561ffff811681146139f757600080fd5b60006020828403121561429357600080fd5b6139f782614108565b600080604083850312156142af57600080fd5b6142b883614108565b915061414760208401614108565b6000806000606084860312156142db57600080fd5b505081359360208301359350604090920135919050565b803560ff8116811461411f57600080fd5b60006020828403121561431557600080fd5b6139f7826142f2565b60006020828403121561433057600080fd5b81358060020b81146139f757600080fd5b600080600080600080600060e0888a03121561435c57600080fd5b61436588614108565b965061437360208901614108565b9550604088013594506060880135935061438f608089016142f2565b925060a0880135915060c0880135905092959891949750929550565b6020808252600d908201526c73746174652069736e2774203160981b604082015260600190565b634e487b7160e01b600052601160045260246000fd5b6000828210156143fa576143fa6143d2565b500390565b60008219821115614412576144126143d2565b500190565b634e487b7160e01b600052601260045260246000fd5b60008261443c5761443c614417565b500490565b600081600019048311821515161561445b5761445b6143d2565b500290565b60008083128015600160ff1b85018412161561447e5761447e6143d2565b6001600160ff1b0384018313811615614499576144996143d2565b50500390565b600080821280156001600160ff1b03849003851316156144c1576144c16143d2565b600160ff1b83900384128116156144da576144da6143d2565b50500190565b6020808252600990820152683337b93134b23232b760b91b604082015260600190565b6020808252600690820152651b1bd8dad95960d21b604082015260600190565b60008261453257614532614417565b600160ff1b82146000198414161561454c5761454c6143d2565b500590565b60208082526015908201527412195919d95e08151c9859194e8811561412549151605a1b604082015260600190565b6020808252601d908201527f73696e676c6520616d6f756e74206f766572206e6574202a2072617465000000604082015260600190565b60208082526025908201527f706f6f6c206e657420616d6f756e74206d75737420736d616c6c207468616e20604082015264706172616d60d81b606082015260800190565b6000600160ff1b821415614612576146126143d2565b5060000390565b60006001600160ff1b038184138284138082168684048611161561463f5761463f6143d2565b600160ff1b600087128281168783058912161561465e5761465e6143d2565b6000871292508782058712848416161561467a5761467a6143d2565b87850587128184161615614690576146906143d2565b505050929093029392505050565b6000806000606084860312156146b357600080fd5b8351925060208401519150604084015190509250925092565b600181815b808511156147075781600019048211156146ed576146ed6143d2565b808516156146fa57918102915b93841c93908002906146d1565b509250929050565b60008261471e57506001610df9565b8161472b57506000610df9565b8160018114614741576002811461474b57614767565b6001915050610df9565b60ff84111561475c5761475c6143d2565b50506001821b610df9565b5060208310610133831016604e8410600b841016171561478a575081810a610df9565b61479483836146cc565b80600019048211156147a8576147a86143d2565b029392505050565b60006139f760ff84168361470f565b600081810b607f198114156147d6576147d66143d2565b60000392915050565b60006000198214156147f3576147f36143d2565b5060010190565b600063ffffffff8083168185168183048111821515161561481d5761481d6143d2565b02949350505050565b60008251614838818460208701614150565b9190910192915050565b60006020828403121561485457600080fd5b81516139f7816141f6565b60008160020b8360020b627fffff60008213600084138383048511828216161561488b5761488b6143d2565b627fffff1960008512828116878305871216156148aa576148aa6143d2565b600087129250858205871284841616156148c6576148c66143d2565b858505871281841616156148dc576148dc6143d2565b5050509290910295945050505050565b60008160020b8360020b8061490357614903614417565b627fffff1982146000198214161561491d5761491d6143d2565b9005939250505056fe303db7636b0e071f088d2cd5e8463efe513531272d61a18739b21053f6d7b430a26469706673582212204e120faa7b000c33991ed9481829f7cd4ca84cf86a8df22e2d941e8cfa80546964736f6c634300080c0033",
    "sourcePath": "d:/contract/hedgex/Single.sol",
    "compiler": {
        "name": "solc",
        "version": "0.8.12+commit.f00d7308"
    },
    "functionHashes": {
        "DOMAIN_SEPARATOR()": "3644e515",
        "PERMIT_TYPEHASH()": "30adf81f",
        "R0()": "8d73d86a",
        "R1()": "b22dd2ca",
        "R2()": "fee2cb05",
        "R3()": "db4bed0e",
        "acceptSetter()": "5f8e422f",
        "addLiquidity(uint256,address)": "c95f9d0e",
        "allowance(address,address)": "dd62ed3e",
        "amountDecimal()": "2be90282",
        "approve(address,uint256)": "095ea7b3",
        "balanceOf(address)": "70a08231",
        "canAddLiquidity()": "8b0af0fa",
        "canOpen()": "ffaeb582",
        "closeLong(uint256,uint256,uint256)": "90edbeb0",
        "closeShort(uint256,uint256,uint256)": "807ca353",
        "dailyInterestRateBase()": "8967b694",
        "decimals()": "313ce567",
        "detectSlide(address,address)": "ddcb04c2",
        "divConst()": "7e4856c4",
        "explosive(address,address)": "89d408ff",
        "explosivePool()": "3e31fb45",
        "feeDivide()": "d375454f",
        "feeOn()": "4f335d0a",
        "feeRate()": "978bbdb9",
        "feeTo()": "017e7e58",
        "feedPrice()": "a04eecae",
        "forceCloseAccount(address,address)": "6422e08f",
        "getLatestPrice()": "8e15f473",
        "getPoolNet()": "7bb71a97",
        "getPoolPosition()": "73e6054b",
        "interestRewardRate()": "01bcc908",
        "isStart()": "8a55d36e",
        "keepMarginScale()": "303c0a3b",
        "leverage()": "2c86d98e",
        "minPool()": "2678b8fd",
        "name()": "06fdde03",
        "nonces(address)": "7ecebe00",
        "openLong(uint256,uint256,uint256)": "6c2ee359",
        "openShort(uint256,uint256,uint256)": "71b31707",
        "owner()": "8da5cb5b",
        "permit(address,address,uint256,uint256,uint8,bytes32,bytes32)": "d505accf",
        "poolExplosivePrice()": "33d6f1f7",
        "poolLeftAmountRate()": "ce8ad1d2",
        "poolLongAmount()": "e5984319",
        "poolLongPrice()": "994af3ae",
        "poolNetAmountRateLimitOpen()": "cd8bb6cd",
        "poolNetAmountRateLimitPrice()": "1cce9103",
        "poolShortAmount()": "8e406892",
        "poolShortPrice()": "971059fb",
        "poolState()": "641ad8a9",
        "rechargeMargin(uint256)": "11ce83f8",
        "removeLiquidity(uint256,address)": "05fe138b",
        "setCanAddLiquidity(bool)": "fa507445",
        "setCanOpen(bool)": "0def3ead",
        "setFeeOn(bool)": "fc4064b3",
        "setFeeRate(uint16)": "29ff0773",
        "setFeeTo(address)": "f46901ed",
        "setFeedPrice(address)": "c669c32c",
        "setKeepMarginScale(uint8)": "8632d4ab",
        "setPoolNetAmountRateLimitOpen(int24)": "bedc409b",
        "setPoolNetAmountRateLimitPrice(int24)": "d1ad24be",
        "singleCloseLimitRate()": "7aaae950",
        "singleOpenLimitRate()": "5d0291ac",
        "slideP()": "2c204fa8",
        "sumFee()": "190b065f",
        "symbol()": "95d89b41",
        "token0()": "0dfe1681",
        "token0Decimal()": "9ddc230a",
        "totalPool()": "ecfb49a3",
        "totalSupply()": "18160ddd",
        "traders(address)": "92a88fa2",
        "transfer(address,uint256)": "a9059cbb",
        "transferFrom(address,address,uint256)": "23b872dd",
        "transferOwner(address)": "4fb2e45d",
        "withdrawFee()": "e941fa78",
        "withdrawMargin(uint256)": "0cea7534"
    },
    "gasEstimates": {
        "creation": {
            "codeDepositCost": "3762400",
            "executionCost": "infinite",
            "totalCost": "infinite"
        },
        "external": {
            "DOMAIN_SEPARATOR()": "infinite",
            "PERMIT_TYPEHASH()": "264",
            "R0()": "6664",
            "R1()": "6620",
            "R2()": "6684",
            "R3()": "6707",
            "acceptSetter()": "50915",
            "addLiquidity(uint256,address)": "infinite",
            "allowance(address,address)": "infinite",
            "amountDecimal()": "infinite",
            "approve(address,uint256)": "24597",
            "balanceOf(address)": "2653",
            "canAddLiquidity()": "2417",
            "canOpen()": "2481",
            "closeLong(uint256,uint256,uint256)": "infinite",
            "closeShort(uint256,uint256,uint256)": "infinite",
            "dailyInterestRateBase()": "317",
            "decimals()": "infinite",
            "detectSlide(address,address)": "infinite",
            "divConst()": "337",
            "explosive(address,address)": "infinite",
            "explosivePool()": "infinite",
            "feeDivide()": "315",
            "feeOn()": "2411",
            "feeRate()": "2391",
            "feeTo()": "2396",
            "feedPrice()": "2459",
            "forceCloseAccount(address,address)": "infinite",
            "getLatestPrice()": "infinite",
            "getPoolNet()": "infinite",
            "getPoolPosition()": "12981",
            "interestRewardRate()": "296",
            "isStart()": "2378",
            "keepMarginScale()": "2469",
            "leverage()": "infinite",
            "minPool()": "infinite",
            "name()": "infinite",
            "nonces(address)": "2674",
            "openLong(uint256,uint256,uint256)": "infinite",
            "openShort(uint256,uint256,uint256)": "infinite",
            "owner()": "2460",
            "permit(address,address,uint256,uint256,uint8,bytes32,bytes32)": "infinite",
            "poolExplosivePrice()": "2408",
            "poolLeftAmountRate()": "271",
            "poolLongAmount()": "2406",
            "poolLongPrice()": "2384",
            "poolNetAmountRateLimitOpen()": "2487",
            "poolNetAmountRateLimitPrice()": "2450",
            "poolShortAmount()": "2363",
            "poolShortPrice()": "2451",
            "poolState()": "2398",
            "rechargeMargin(uint256)": "infinite",
            "removeLiquidity(uint256,address)": "infinite",
            "setCanAddLiquidity(bool)": "26777",
            "setCanOpen(bool)": "26802",
            "setFeeOn(bool)": "26787",
            "setFeeRate(uint16)": "26719",
            "setFeeTo(address)": "26777",
            "setFeedPrice(address)": "26823",
            "setKeepMarginScale(uint8)": "26766",
            "setPoolNetAmountRateLimitOpen(int24)": "26743",
            "setPoolNetAmountRateLimitPrice(int24)": "26748",
            "singleCloseLimitRate()": "293",
            "singleOpenLimitRate()": "338",
            "slideP()": "316",
            "sumFee()": "2386",
            "symbol()": "infinite",
            "token0()": "infinite",
            "token0Decimal()": "infinite",
            "totalPool()": "2450",
            "totalSupply()": "2364",
            "traders(address)": "13314",
            "transfer(address,uint256)": "51228",
            "transferFrom(address,address,uint256)": "infinite",
            "transferOwner(address)": "26823",
            "withdrawFee()": "infinite",
            "withdrawMargin(uint256)": "infinite"
        },
        "internal": {
            "feeCharge(uint256)": "51151",
            "feeCharge(uint256,int256)": "infinite",
            "getAccountNet(struct HedgexSingle.Trader memory)": "infinite",
            "getAccountNet(struct HedgexSingle.Trader memory,uint256)": "infinite",
            "getDeltaPriceByR(int256)": "infinite",
            "getPoolNet(uint256)": "infinite",
            "judegOpen(uint256,uint256)": "infinite",
            "poolLimitTrade(int8,uint256)": "infinite",
            "slideTradePrice(uint256,int256)": "infinite"
        }
    }
}