{
    "contractName": "HedgexSingle",
    "abi": [
        {
            "inputs": [
                {
                    "internalType": "address",
                    "name": "_token0",
                    "type": "address"
                },
                {
                    "internalType": "address",
                    "name": "_feedPrice",
                    "type": "address"
                },
                {
                    "internalType": "uint256",
                    "name": "_feedPriceDecimal",
                    "type": "uint256"
                },
                {
                    "internalType": "uint256",
                    "name": "_minStartPool",
                    "type": "uint256"
                },
                {
                    "internalType": "uint8",
                    "name": "_leverage",
                    "type": "uint8"
                },
                {
                    "internalType": "int8",
                    "name": "_amountDecimal",
                    "type": "int8"
                }
            ],
            "stateMutability": "nonpayable",
            "type": "constructor"
        },
        {
            "anonymous": false,
            "inputs": [
                {
                    "indexed": true,
                    "internalType": "address",
                    "name": "owner",
                    "type": "address"
                },
                {
                    "indexed": true,
                    "internalType": "address",
                    "name": "spender",
                    "type": "address"
                },
                {
                    "indexed": false,
                    "internalType": "uint256",
                    "name": "value",
                    "type": "uint256"
                }
            ],
            "name": "Approval",
            "type": "event"
        },
        {
            "anonymous": false,
            "inputs": [
                {
                    "indexed": true,
                    "internalType": "address",
                    "name": "sender",
                    "type": "address"
                },
                {
                    "indexed": false,
                    "internalType": "uint256",
                    "name": "amount",
                    "type": "uint256"
                }
            ],
            "name": "Burn",
            "type": "event"
        },
        {
            "anonymous": false,
            "inputs": [
                {
                    "indexed": true,
                    "internalType": "address",
                    "name": "user",
                    "type": "address"
                },
                {
                    "indexed": false,
                    "internalType": "int8",
                    "name": "direction",
                    "type": "int8"
                },
                {
                    "indexed": false,
                    "internalType": "uint256",
                    "name": "amount",
                    "type": "uint256"
                },
                {
                    "indexed": false,
                    "internalType": "uint256",
                    "name": "price",
                    "type": "uint256"
                }
            ],
            "name": "Explosive",
            "type": "event"
        },
        {
            "anonymous": false,
            "inputs": [
                {
                    "indexed": true,
                    "internalType": "address",
                    "name": "account",
                    "type": "address"
                },
                {
                    "indexed": false,
                    "internalType": "uint256",
                    "name": "long",
                    "type": "uint256"
                },
                {
                    "indexed": false,
                    "internalType": "uint256",
                    "name": "short",
                    "type": "uint256"
                },
                {
                    "indexed": false,
                    "internalType": "uint256",
                    "name": "price",
                    "type": "uint256"
                }
            ],
            "name": "ForceClose",
            "type": "event"
        },
        {
            "anonymous": false,
            "inputs": [
                {
                    "indexed": true,
                    "internalType": "address",
                    "name": "sender",
                    "type": "address"
                },
                {
                    "indexed": false,
                    "internalType": "uint256",
                    "name": "amount",
                    "type": "uint256"
                }
            ],
            "name": "Mint",
            "type": "event"
        },
        {
            "anonymous": false,
            "inputs": [
                {
                    "indexed": true,
                    "internalType": "address",
                    "name": "sender",
                    "type": "address"
                },
                {
                    "indexed": false,
                    "internalType": "uint256",
                    "name": "amount",
                    "type": "uint256"
                }
            ],
            "name": "Recharge",
            "type": "event"
        },
        {
            "anonymous": false,
            "inputs": [
                {
                    "indexed": true,
                    "internalType": "address",
                    "name": "user",
                    "type": "address"
                },
                {
                    "indexed": false,
                    "internalType": "int8",
                    "name": "direction",
                    "type": "int8"
                },
                {
                    "indexed": false,
                    "internalType": "uint256",
                    "name": "amount",
                    "type": "uint256"
                },
                {
                    "indexed": false,
                    "internalType": "uint256",
                    "name": "price",
                    "type": "uint256"
                }
            ],
            "name": "TakeInterest",
            "type": "event"
        },
        {
            "anonymous": false,
            "inputs": [
                {
                    "indexed": true,
                    "internalType": "address",
                    "name": "sender",
                    "type": "address"
                },
                {
                    "indexed": false,
                    "internalType": "int8",
                    "name": "direction",
                    "type": "int8"
                },
                {
                    "indexed": false,
                    "internalType": "uint256",
                    "name": "amount",
                    "type": "uint256"
                },
                {
                    "indexed": false,
                    "internalType": "uint256",
                    "name": "price",
                    "type": "uint256"
                }
            ],
            "name": "Trade",
            "type": "event"
        },
        {
            "anonymous": false,
            "inputs": [
                {
                    "indexed": true,
                    "internalType": "address",
                    "name": "from",
                    "type": "address"
                },
                {
                    "indexed": true,
                    "internalType": "address",
                    "name": "to",
                    "type": "address"
                },
                {
                    "indexed": false,
                    "internalType": "uint256",
                    "name": "value",
                    "type": "uint256"
                }
            ],
            "name": "Transfer",
            "type": "event"
        },
        {
            "anonymous": false,
            "inputs": [
                {
                    "indexed": true,
                    "internalType": "address",
                    "name": "sender",
                    "type": "address"
                },
                {
                    "indexed": false,
                    "internalType": "uint256",
                    "name": "amount",
                    "type": "uint256"
                }
            ],
            "name": "Withdraw",
            "type": "event"
        },
        {
            "inputs": [],
            "name": "DOMAIN_SEPARATOR",
            "outputs": [
                {
                    "internalType": "bytes32",
                    "name": "",
                    "type": "bytes32"
                }
            ],
            "stateMutability": "view",
            "type": "function"
        },
        {
            "inputs": [],
            "name": "PERMIT_TYPEHASH",
            "outputs": [
                {
                    "internalType": "bytes32",
                    "name": "",
                    "type": "bytes32"
                }
            ],
            "stateMutability": "view",
            "type": "function"
        },
        {
            "inputs": [
                {
                    "internalType": "uint256",
                    "name": "amount",
                    "type": "uint256"
                },
                {
                    "internalType": "address",
                    "name": "to",
                    "type": "address"
                }
            ],
            "name": "addLiquidity",
            "outputs": [],
            "stateMutability": "nonpayable",
            "type": "function"
        },
        {
            "inputs": [
                {
                    "internalType": "address",
                    "name": "",
                    "type": "address"
                },
                {
                    "internalType": "address",
                    "name": "",
                    "type": "address"
                }
            ],
            "name": "allowance",
            "outputs": [
                {
                    "internalType": "uint256",
                    "name": "",
                    "type": "uint256"
                }
            ],
            "stateMutability": "view",
            "type": "function"
        },
        {
            "inputs": [],
            "name": "amountDecimal",
            "outputs": [
                {
                    "internalType": "int8",
                    "name": "",
                    "type": "int8"
                }
            ],
            "stateMutability": "view",
            "type": "function"
        },
        {
            "inputs": [
                {
                    "internalType": "address",
                    "name": "spender",
                    "type": "address"
                },
                {
                    "internalType": "uint256",
                    "name": "value",
                    "type": "uint256"
                }
            ],
            "name": "approve",
            "outputs": [
                {
                    "internalType": "bool",
                    "name": "",
                    "type": "bool"
                }
            ],
            "stateMutability": "nonpayable",
            "type": "function"
        },
        {
            "inputs": [
                {
                    "internalType": "address",
                    "name": "",
                    "type": "address"
                }
            ],
            "name": "balanceOf",
            "outputs": [
                {
                    "internalType": "uint256",
                    "name": "",
                    "type": "uint256"
                }
            ],
            "stateMutability": "view",
            "type": "function"
        },
        {
            "inputs": [
                {
                    "internalType": "uint256",
                    "name": "priceExp",
                    "type": "uint256"
                },
                {
                    "internalType": "uint256",
                    "name": "amount",
                    "type": "uint256"
                }
            ],
            "name": "closeLong",
            "outputs": [],
            "stateMutability": "nonpayable",
            "type": "function"
        },
        {
            "inputs": [
                {
                    "internalType": "uint256",
                    "name": "priceExp",
                    "type": "uint256"
                },
                {
                    "internalType": "uint256",
                    "name": "amount",
                    "type": "uint256"
                }
            ],
            "name": "closeShort",
            "outputs": [],
            "stateMutability": "nonpayable",
            "type": "function"
        },
        {
            "inputs": [],
            "name": "dailyInterestRateBase",
            "outputs": [
                {
                    "internalType": "uint16",
                    "name": "",
                    "type": "uint16"
                }
            ],
            "stateMutability": "view",
            "type": "function"
        },
        {
            "inputs": [],
            "name": "decimals",
            "outputs": [
                {
                    "internalType": "uint8",
                    "name": "",
                    "type": "uint8"
                }
            ],
            "stateMutability": "view",
            "type": "function"
        },
        {
            "inputs": [
                {
                    "internalType": "address",
                    "name": "account",
                    "type": "address"
                }
            ],
            "name": "detectSlide",
            "outputs": [],
            "stateMutability": "nonpayable",
            "type": "function"
        },
        {
            "inputs": [],
            "name": "divConst",
            "outputs": [
                {
                    "internalType": "uint24",
                    "name": "",
                    "type": "uint24"
                }
            ],
            "stateMutability": "view",
            "type": "function"
        },
        {
            "inputs": [
                {
                    "internalType": "address",
                    "name": "account",
                    "type": "address"
                }
            ],
            "name": "explosive",
            "outputs": [],
            "stateMutability": "nonpayable",
            "type": "function"
        },
        {
            "inputs": [],
            "name": "explosivePool",
            "outputs": [],
            "stateMutability": "nonpayable",
            "type": "function"
        },
        {
            "inputs": [],
            "name": "feeDivide",
            "outputs": [
                {
                    "internalType": "uint24",
                    "name": "",
                    "type": "uint24"
                }
            ],
            "stateMutability": "view",
            "type": "function"
        },
        {
            "inputs": [],
            "name": "feeOn",
            "outputs": [
                {
                    "internalType": "bool",
                    "name": "",
                    "type": "bool"
                }
            ],
            "stateMutability": "view",
            "type": "function"
        },
        {
            "inputs": [],
            "name": "feeRate",
            "outputs": [
                {
                    "internalType": "uint16",
                    "name": "",
                    "type": "uint16"
                }
            ],
            "stateMutability": "view",
            "type": "function"
        },
        {
            "inputs": [],
            "name": "feedPrice",
            "outputs": [
                {
                    "internalType": "contract AggregatorV3Interface",
                    "name": "",
                    "type": "address"
                }
            ],
            "stateMutability": "view",
            "type": "function"
        },
        {
            "inputs": [],
            "name": "feedPriceDecimal",
            "outputs": [
                {
                    "internalType": "uint256",
                    "name": "",
                    "type": "uint256"
                }
            ],
            "stateMutability": "view",
            "type": "function"
        },
        {
            "inputs": [],
            "name": "foceCloseRewardGas",
            "outputs": [
                {
                    "internalType": "uint256",
                    "name": "",
                    "type": "uint256"
                }
            ],
            "stateMutability": "view",
            "type": "function"
        },
        {
            "inputs": [
                {
                    "internalType": "address",
                    "name": "account",
                    "type": "address"
                }
            ],
            "name": "forceCloseAccount",
            "outputs": [],
            "stateMutability": "nonpayable",
            "type": "function"
        },
        {
            "inputs": [],
            "name": "gasUsdPriceFeed",
            "outputs": [
                {
                    "internalType": "address",
                    "name": "",
                    "type": "address"
                }
            ],
            "stateMutability": "view",
            "type": "function"
        },
        {
            "inputs": [],
            "name": "getGasUsdPrice",
            "outputs": [
                {
                    "internalType": "uint256",
                    "name": "",
                    "type": "uint256"
                }
            ],
            "stateMutability": "view",
            "type": "function"
        },
        {
            "inputs": [],
            "name": "getLatestPrice",
            "outputs": [
                {
                    "internalType": "uint256",
                    "name": "",
                    "type": "uint256"
                }
            ],
            "stateMutability": "view",
            "type": "function"
        },
        {
            "inputs": [],
            "name": "getPoolNet",
            "outputs": [
                {
                    "internalType": "int256",
                    "name": "",
                    "type": "int256"
                }
            ],
            "stateMutability": "view",
            "type": "function"
        },
        {
            "inputs": [
                {
                    "internalType": "address",
                    "name": "_token0",
                    "type": "address"
                },
                {
                    "internalType": "address",
                    "name": "_feedPrice",
                    "type": "address"
                },
                {
                    "internalType": "uint256",
                    "name": "_feedPriceDecimal",
                    "type": "uint256"
                },
                {
                    "internalType": "uint256",
                    "name": "_minStartPool",
                    "type": "uint256"
                },
                {
                    "internalType": "uint8",
                    "name": "_leverage",
                    "type": "uint8"
                },
                {
                    "internalType": "int8",
                    "name": "_amountDecimal",
                    "type": "int8"
                }
            ],
            "name": "initialize",
            "outputs": [],
            "stateMutability": "nonpayable",
            "type": "function"
        },
        {
            "inputs": [],
            "name": "interestRewardRate",
            "outputs": [
                {
                    "internalType": "uint24",
                    "name": "",
                    "type": "uint24"
                }
            ],
            "stateMutability": "view",
            "type": "function"
        },
        {
            "inputs": [],
            "name": "isStart",
            "outputs": [
                {
                    "internalType": "bool",
                    "name": "",
                    "type": "bool"
                }
            ],
            "stateMutability": "view",
            "type": "function"
        },
        {
            "inputs": [],
            "name": "leverage",
            "outputs": [
                {
                    "internalType": "uint8",
                    "name": "",
                    "type": "uint8"
                }
            ],
            "stateMutability": "view",
            "type": "function"
        },
        {
            "inputs": [],
            "name": "minPool",
            "outputs": [
                {
                    "internalType": "uint256",
                    "name": "",
                    "type": "uint256"
                }
            ],
            "stateMutability": "view",
            "type": "function"
        },
        {
            "inputs": [],
            "name": "name",
            "outputs": [
                {
                    "internalType": "string",
                    "name": "",
                    "type": "string"
                }
            ],
            "stateMutability": "view",
            "type": "function"
        },
        {
            "inputs": [
                {
                    "internalType": "address",
                    "name": "",
                    "type": "address"
                }
            ],
            "name": "nonces",
            "outputs": [
                {
                    "internalType": "uint256",
                    "name": "",
                    "type": "uint256"
                }
            ],
            "stateMutability": "view",
            "type": "function"
        },
        {
            "inputs": [
                {
                    "internalType": "uint256",
                    "name": "priceExp",
                    "type": "uint256"
                },
                {
                    "internalType": "uint256",
                    "name": "amount",
                    "type": "uint256"
                }
            ],
            "name": "openLong",
            "outputs": [],
            "stateMutability": "nonpayable",
            "type": "function"
        },
        {
            "inputs": [
                {
                    "internalType": "uint256",
                    "name": "priceExp",
                    "type": "uint256"
                },
                {
                    "internalType": "uint256",
                    "name": "amount",
                    "type": "uint256"
                }
            ],
            "name": "openShort",
            "outputs": [],
            "stateMutability": "nonpayable",
            "type": "function"
        },
        {
            "inputs": [
                {
                    "internalType": "address",
                    "name": "owner",
                    "type": "address"
                },
                {
                    "internalType": "address",
                    "name": "spender",
                    "type": "address"
                },
                {
                    "internalType": "uint256",
                    "name": "value",
                    "type": "uint256"
                },
                {
                    "internalType": "uint256",
                    "name": "deadline",
                    "type": "uint256"
                },
                {
                    "internalType": "uint8",
                    "name": "v",
                    "type": "uint8"
                },
                {
                    "internalType": "bytes32",
                    "name": "r",
                    "type": "bytes32"
                },
                {
                    "internalType": "bytes32",
                    "name": "s",
                    "type": "bytes32"
                }
            ],
            "name": "permit",
            "outputs": [],
            "stateMutability": "nonpayable",
            "type": "function"
        },
        {
            "inputs": [],
            "name": "poolExplosivePrice",
            "outputs": [
                {
                    "internalType": "uint256",
                    "name": "",
                    "type": "uint256"
                }
            ],
            "stateMutability": "view",
            "type": "function"
        },
        {
            "inputs": [],
            "name": "poolLeftAmountRate",
            "outputs": [
                {
                    "internalType": "uint24",
                    "name": "",
                    "type": "uint24"
                }
            ],
            "stateMutability": "view",
            "type": "function"
        },
        {
            "inputs": [],
            "name": "poolLongAmount",
            "outputs": [
                {
                    "internalType": "uint256",
                    "name": "",
                    "type": "uint256"
                }
            ],
            "stateMutability": "view",
            "type": "function"
        },
        {
            "inputs": [],
            "name": "poolLongPrice",
            "outputs": [
                {
                    "internalType": "uint256",
                    "name": "",
                    "type": "uint256"
                }
            ],
            "stateMutability": "view",
            "type": "function"
        },
        {
            "inputs": [],
            "name": "poolNetAmountRateLimitOpen",
            "outputs": [
                {
                    "internalType": "int24",
                    "name": "",
                    "type": "int24"
                }
            ],
            "stateMutability": "view",
            "type": "function"
        },
        {
            "inputs": [],
            "name": "poolNetAmountRateLimitPrice",
            "outputs": [
                {
                    "internalType": "int24",
                    "name": "",
                    "type": "int24"
                }
            ],
            "stateMutability": "view",
            "type": "function"
        },
        {
            "inputs": [],
            "name": "poolShortAmount",
            "outputs": [
                {
                    "internalType": "uint256",
                    "name": "",
                    "type": "uint256"
                }
            ],
            "stateMutability": "view",
            "type": "function"
        },
        {
            "inputs": [],
            "name": "poolShortPrice",
            "outputs": [
                {
                    "internalType": "uint256",
                    "name": "",
                    "type": "uint256"
                }
            ],
            "stateMutability": "view",
            "type": "function"
        },
        {
            "inputs": [],
            "name": "poolState",
            "outputs": [
                {
                    "internalType": "uint8",
                    "name": "",
                    "type": "uint8"
                }
            ],
            "stateMutability": "view",
            "type": "function"
        },
        {
            "inputs": [
                {
                    "internalType": "uint256",
                    "name": "amount",
                    "type": "uint256"
                }
            ],
            "name": "rechargeMargin",
            "outputs": [],
            "stateMutability": "nonpayable",
            "type": "function"
        },
        {
            "inputs": [
                {
                    "internalType": "uint256",
                    "name": "liquidity",
                    "type": "uint256"
                },
                {
                    "internalType": "address",
                    "name": "to",
                    "type": "address"
                }
            ],
            "name": "removeLiquidity",
            "outputs": [],
            "stateMutability": "nonpayable",
            "type": "function"
        },
        {
            "inputs": [],
            "name": "singleTradeLimitRate",
            "outputs": [
                {
                    "internalType": "uint16",
                    "name": "",
                    "type": "uint16"
                }
            ],
            "stateMutability": "view",
            "type": "function"
        },
        {
            "inputs": [],
            "name": "slideP",
            "outputs": [
                {
                    "internalType": "uint8",
                    "name": "",
                    "type": "uint8"
                }
            ],
            "stateMutability": "view",
            "type": "function"
        },
        {
            "inputs": [],
            "name": "sumFee",
            "outputs": [
                {
                    "internalType": "uint256",
                    "name": "",
                    "type": "uint256"
                }
            ],
            "stateMutability": "view",
            "type": "function"
        },
        {
            "inputs": [],
            "name": "symbol",
            "outputs": [
                {
                    "internalType": "string",
                    "name": "",
                    "type": "string"
                }
            ],
            "stateMutability": "view",
            "type": "function"
        },
        {
            "inputs": [],
            "name": "token0",
            "outputs": [
                {
                    "internalType": "address",
                    "name": "",
                    "type": "address"
                }
            ],
            "stateMutability": "view",
            "type": "function"
        },
        {
            "inputs": [],
            "name": "token0Decimal",
            "outputs": [
                {
                    "internalType": "uint256",
                    "name": "",
                    "type": "uint256"
                }
            ],
            "stateMutability": "view",
            "type": "function"
        },
        {
            "inputs": [],
            "name": "totalPool",
            "outputs": [
                {
                    "internalType": "int256",
                    "name": "",
                    "type": "int256"
                }
            ],
            "stateMutability": "view",
            "type": "function"
        },
        {
            "inputs": [],
            "name": "totalSupply",
            "outputs": [
                {
                    "internalType": "uint256",
                    "name": "",
                    "type": "uint256"
                }
            ],
            "stateMutability": "view",
            "type": "function"
        },
        {
            "inputs": [
                {
                    "internalType": "address",
                    "name": "",
                    "type": "address"
                }
            ],
            "name": "traders",
            "outputs": [
                {
                    "internalType": "int256",
                    "name": "margin",
                    "type": "int256"
                },
                {
                    "internalType": "uint256",
                    "name": "longAmount",
                    "type": "uint256"
                },
                {
                    "internalType": "uint256",
                    "name": "longPrice",
                    "type": "uint256"
                },
                {
                    "internalType": "uint256",
                    "name": "shortAmount",
                    "type": "uint256"
                },
                {
                    "internalType": "uint256",
                    "name": "shortPrice",
                    "type": "uint256"
                },
                {
                    "internalType": "uint32",
                    "name": "interestDay",
                    "type": "uint32"
                }
            ],
            "stateMutability": "view",
            "type": "function"
        },
        {
            "inputs": [
                {
                    "internalType": "address",
                    "name": "to",
                    "type": "address"
                },
                {
                    "internalType": "uint256",
                    "name": "value",
                    "type": "uint256"
                }
            ],
            "name": "transfer",
            "outputs": [
                {
                    "internalType": "bool",
                    "name": "",
                    "type": "bool"
                }
            ],
            "stateMutability": "nonpayable",
            "type": "function"
        },
        {
            "inputs": [
                {
                    "internalType": "address",
                    "name": "from",
                    "type": "address"
                },
                {
                    "internalType": "address",
                    "name": "to",
                    "type": "address"
                },
                {
                    "internalType": "uint256",
                    "name": "value",
                    "type": "uint256"
                }
            ],
            "name": "transferFrom",
            "outputs": [
                {
                    "internalType": "bool",
                    "name": "",
                    "type": "bool"
                }
            ],
            "stateMutability": "nonpayable",
            "type": "function"
        },
        {
            "inputs": [
                {
                    "internalType": "uint256",
                    "name": "amount",
                    "type": "uint256"
                }
            ],
            "name": "withdrawMargin",
            "outputs": [],
            "stateMutability": "nonpayable",
            "type": "function"
        }
    ],
    "bytecode": "6101c06040526001600655732514895c72f50d8bd4b4f9b1110f0d6bd2c975266101a0523480156200003057600080fd5b506040516200447338038062004473833981016040819052620000539162000286565b856001600160a01b031663313ce5676040518163ffffffff1660e01b8152600401602060405180830381865afa15801562000092573d6000803e3d6000fd5b505050506040513d601f19601f82011682018060405250810190620000b89190620002fe565b604080518082018252600c81526b48656467657853696e676c6560a01b6020918201528151808301835260018152603160f81b9082015281517f8b73c3c69bb8fe3d512ecc4cf759cc79239f7b179b0ffacaa9a75d522b39400f918101919091527fdbb8f54117374490c454ab41b80d95cf4a0c3b286124d9b83e346d854dc3efcd918101919091527fc89efdaa54c0f20c7adf612882df0950f5a951637e0307cdcb4c672f298b8bc660608201524660808201523060a082015260c00160408051601f19818403018152828252805160209182012060a05260ff9093166080526004805460ff191660011781556001600160a01b03808a16610160528a1661010081905263313ce56760e01b84529151919363313ce56793828101939192908290030181865afa158015620001f2573d6000803e3d6000fd5b505050506040513d601f19601f82011682018060405250810190620002189190620002fe565b6200022590600a62000438565b610120526101809390935260c09190915260ff1660e0526007805461ffff1916905560000b6101405250620004499050565b80516001600160a01b03811681146200026f57600080fd5b919050565b805160ff811681146200026f57600080fd5b60008060008060008060c08789031215620002a057600080fd5b620002ab8762000257565b9550620002bb6020880162000257565b94506040870151935060608701519250620002d96080880162000274565b915060a08701518060000b8114620002f057600080fd5b809150509295509295509295565b6000602082840312156200031157600080fd5b6200031c8262000274565b9392505050565b634e487b7160e01b600052601160045260246000fd5b600181815b808511156200037a5781600019048211156200035e576200035e62000323565b808516156200036c57918102915b93841c93908002906200033e565b509250929050565b600082620003935750600162000432565b81620003a25750600062000432565b8160018114620003bb5760028114620003c657620003e6565b600191505062000432565b60ff841115620003da57620003da62000323565b50506001821b62000432565b5060208310610133831016604e8410600b84101617156200040b575081810a62000432565b62000417838362000339565b80600019048211156200042e576200042e62000323565b0290505b92915050565b60006200031c60ff84168362000382565b60805160a05160c05160e05161010051610120516101405161016051610180516101a051613f146200055f600039600081816106cf0152611dd601526000818161041301528181611cba0152611d4a01526000818161086b0152611ba601526000818161057e01528181611c9101528181611cde0152611d6e01526000818161084401528181611d0901528181611da2015261210001526000818161047e01528181610b2c01528181610d9701528181610e0001528181611530015281816121680152818161253e0152612d120152600081816105d201528181610c3101528181613319015261338201526000818161055701526125b70152600081816106500152612683015260006106200152613f146000f3fe608060405234801561001057600080fd5b50600436106103995760003560e01c80636afb3760116101e9578063994af3ae1161010f578063ce8ad1d2116100ad578063e59843191161007c578063e598431914610921578063ecfb49a31461092a578063f69d91ae14610933578063fc1e2c451461094657600080fd5b8063ce8ad1d2146108d0578063d375454f146108d9578063d505accf146108e3578063dd62ed3e146108f657600080fd5b8063a9059cbb116100e9578063a9059cbb1461088d578063c181d418146108a0578063c95f9d0e146108b3578063cd8bb6cd146108c657600080fd5b8063994af3ae146108365780639ddc230a1461083f578063a04eecae1461086657600080fd5b80638e15f4731161018757806393f8d8121161015657806393f8d812146107ee57806395d89b4114610801578063971059fb14610824578063978bbdb91461082d57600080fd5b80638e15f473146107595780638e406892146107615780638ed3896c1461076a57806392a88fa21461077257600080fd5b80637e4856c4116101c35780637e4856c4146107195780637ecebe00146107235780638967b694146107435780638a55d36e1461074c57600080fd5b80636afb3760146106ca57806370a08231146106f15780637bb71a971461071157600080fd5b8063251c073a116102ce57806333d6f1f71161026c5780633e31fb451161023b5780633e31fb4514610690578063416c5690146106985780634f335d0a146106ab578063641ad8a9146106bd57600080fd5b806333d6f1f7146106425780633644e5151461064b5780633d07bfb7146106725780633d5f8e7a1461068557600080fd5b80632c204fa8116102a85780632c204fa8146105b35780632c86d98e146105cd57806330adf81f146105f4578063313ce5671461061b57600080fd5b8063251c073a1461053c5780632678b8fd146105525780632be902821461057957600080fd5b806311ce83f81161033b5780631865071d116103155780631865071d146104e7578063190b065f146105035780631cce91031461050c57806323b872dd1461052957600080fd5b806311ce83f8146104b85780631266a619146104cb57806318160ddd146104de57600080fd5b806308c73e741161037757806308c73e741461040e578063095ea7b3146104435780630cea7534146104665780630dfe16811461047957600080fd5b806301bcc9081461039e57806305fe138b146103c157806306fdde03146103d6575b600080fd5b6103a8620186a081565b60405162ffffff90911681526020015b60405180910390f35b6103d46103cf366004613742565b610959565b005b6104016040518060400160405280600c81526020016b48656467657853696e676c6560a01b81525081565b6040516103b8919061379e565b6104357f000000000000000000000000000000000000000000000000000000000000000081565b6040519081526020016103b8565b6104566104513660046137d1565b610b8d565b60405190151581526020016103b8565b6103d46104743660046137fb565b610ba4565b6104a07f000000000000000000000000000000000000000000000000000000000000000081565b6040516001600160a01b0390911681526020016103b8565b6103d46104c63660046137fb565b610dfb565b6103d46104d9366004613814565b610e83565b61043560005481565b6104f061753081565b60405161ffff90911681526020016103b8565b61043560085481565b61051662030d4081565b60405160029190910b81526020016103b8565b610456610537366004613836565b611157565b6103d461054a366004613883565b505050505050565b6104357f000000000000000000000000000000000000000000000000000000000000000081565b6105a07f000000000000000000000000000000000000000000000000000000000000000081565b60405160009190910b81526020016103b8565b6105bb603281565b60405160ff90911681526020016103b8565b6105bb7f000000000000000000000000000000000000000000000000000000000000000081565b6104357f6e71edae12b1b97f4d1f60370fef10105fa2faae0126114a169c64845d6126c981565b6105bb7f000000000000000000000000000000000000000000000000000000000000000081565b61043560055481565b6104357f000000000000000000000000000000000000000000000000000000000000000081565b6103d46106803660046138f3565b6111d1565b610435633b9aca0081565b6103d46115b7565b6103d46106a6366004613814565b61181c565b60075461045690610100900460ff1681565b6004546105bb9060ff1681565b6104a07f000000000000000000000000000000000000000000000000000000000000000081565b6104356106ff3660046138f3565b60016020526000908152604090205481565b610435611ae2565b6103a8620f424081565b6104356107313660046138f3565b60036020526000908152604090205481565b6104f06103e881565b6007546104569060ff1681565b610435611ba1565b610435600b5481565b610435611dd1565b6107bb6107803660046138f3565b600e60205260009081526040902080546001820154600283015460038401546004850154600590950154939492939192909163ffffffff1686565b604080519687526020870195909552938501929092526060840152608083015263ffffffff1660a082015260c0016103b8565b6103d46107fc3660046138f3565b611e61565b610401604051806040016040528060048152602001634845585360e01b81525081565b610435600d5481565b6104f061025881565b610435600c5481565b6104357f000000000000000000000000000000000000000000000000000000000000000081565b6104a07f000000000000000000000000000000000000000000000000000000000000000081565b61045661089b3660046137d1565b6121fa565b6103d46108ae366004613814565b612207565b6103d46108c1366004613742565b612514565b610516620493e081565b6103a861c35081565b6103a86203d09081565b6103d46108f136600461390e565b612625565b610435610904366004613978565b600260209081526000928352604080842090915290825290205481565b610435600a5481565b61043560095481565b6103d4610941366004613814565b612851565b6103d46109543660046138f3565b612b1d565b60045460ff166001146109875760405162461bcd60e51b815260040161097e906139a2565b60405180910390fd5b600754829060ff1615610b0557600061099e611ba1565b905060006109ab82612dc6565b90506000600b54600a54116109cf57600a54600b546109ca91906139e0565b6109df565b600b54600a546109df91906139e0565b905060006003600b54600a546109f591906139f7565b6109ff9190613a25565b905080821015610a0d578091505b6000620493e0620f4240610a218786613a39565b610a2b9190613a39565b610a359190613a25565b9050808413610a865760405162461bcd60e51b815260206004820152601760248201527f6e6574206d757374203e20757365644d617267696e2f52000000000000000000604482015260640161097e565b6000610a9282866139e0565b600054909150610aa28a87613a39565b610aac9190613a25565b965080871115610afe5760405162461bcd60e51b815260206004820152601860248201527f776974686472617720616d6f756e7420746f6f206d616e790000000000000000604482015260640161097e565b5050505050505b8060096000828254610b179190613a58565b90915550610b2790503384612e0f565b610b527f00000000000000000000000000000000000000000000000000000000000000008383612e9a565b60405183815233907fcc16f5dbb4873280815c1ee09dbd06736cffcc184412cf7a71a0fdb75d397ca5906020015b60405180910390a2505050565b6000610b9a338484612fb5565b5060015b92915050565b60045460ff16600114610bc95760405162461bcd60e51b815260040161097e906139a2565b336000908152600e60209081526040808320815160c0810183528154815260018201549381019390935260028101549183019190915260038101546060830152600481015460808301526005015463ffffffff1660a082015290610c2b611ba1565b905060007f000000000000000000000000000000000000000000000000000000000000000060ff1683608001518460600151610c679190613a39565b84604001518560200151610c7b9190613a39565b610c8591906139f7565b610c8f9190613a25565b90506000828460600151610ca39190613a39565b84604001518560200151610cb79190613a39565b610cc191906139f7565b84608001518560600151610cd59190613a39565b848660200151610ce59190613a39565b610cef91906139f7565b8551610cfb9190613a97565b610d059190613a58565b90506000610d138383613a58565b905060008113610d655760405162461bcd60e51b815260206004820152601860248201527f63616e207769746864726177206973206e656761746976650000000000000000604482015260640161097e565b8581811315610d715750805b8551610d7e908290613a58565b336000818152600e6020526040902091909155610dbd907f00000000000000000000000000000000000000000000000000000000000000009083612e9a565b60405181815233907f884edad9ce6fa2440d8a54cc123490eb96d2768479d49ff9c7366125a94243649060200160405180910390a250505050505050565b610e277f0000000000000000000000000000000000000000000000000000000000000000333084613017565b336000908152600e602052604081208054839290610e46908490613a97565b909155505060405181815233907f78d9de6f3ad1cae9e0cbcbaa5267fd90f6a6728831eec42b7c147b398b2269249060200160405180910390a250565b60045460ff16600114610ea85760405162461bcd60e51b815260040161097e906139a2565b60075460ff16610ef25760405162461bcd60e51b815260206004820152601560248201527418dbdb9d1c9858dd081a5cc81b9bdd081cdd185c9d605a1b604482015260640161097e565b6000610efc611ba1565b90506000610f0a828461313f565b336000908152600e60209081526040808320815160c0810183528154815260018201549381018490526002820154928101929092526003810154606083018190526004820154608084015260059091015463ffffffff1660a0830152939450928491620f4240918791610f7c91613a58565b610f869190613ad8565b610f909190613ad8565b610f9a9190613b5d565b9050620493e08112610fbe5760405162461bcd60e51b815260040161097e90613b8b565b6000610fca85836131c8565b610fd490866139f7565b9050868110156110265760405162461bcd60e51b815260206004820152601b60248201527f6f70656e2073686f727420707269636520697320746f6f206c6f770000000000604482015260640161097e565b60006110328288613a39565b9050600061104185888461329e565b905087856060015161105391906139f7565b336000908152600e602052604090206003015560608501516110769089906139f7565b828660800151876060015161108b9190613a39565b61109591906139f7565b61109f9190613a25565b336000908152600e602052604090206004015584516110bf908290613a58565b336000908152600e6020526040902055600a546110dc89826139f7565b600a556110e989826139f7565b83600c54836110f89190613a39565b61110291906139f7565b61110c9190613a25565b600c5561111882613469565b604080516000198152602081018b90529081018590523390600080516020613ebf8339815191529060600160405180910390a250505050505050505050565b6001600160a01b0383166000908152600260209081526040808320338452909152812054600019146111bc576001600160a01b0384166000908152600260209081526040808320338452909152812080548492906111b69084906139e0565b90915550505b6111c78484846134f2565b5060019392505050565b6006546001146111f35760405162461bcd60e51b815260040161097e90613bce565b600060065560045460ff1660011461121d5760405162461bcd60e51b815260040161097e906139a2565b600061122c6201518042613a25565b905061012c61123e8262015180613bf5565b61124e9063ffffffff16426139e0565b111561129c5760405162461bcd60e51b815260206004820152601e60248201527f6e6f74207468652074696d6520666f722074616b6520696e7465726573740000604482015260640161097e565b6001600160a01b0382166000908152600e60205260409020600581015463ffffffff9081169083161161130a5760405162461bcd60e51b81526020600482015260166024820152751a185cc81899595b881d185ad9481a5b9d195c995cdd60521b604482015260640161097e565b8060030154816001015414156113625760405162461bcd60e51b815260206004820152601d60248201527f6e656564206c6f6e6720616e642073686f7274206e6f7420657175616c000000604482015260640161097e565b600061136c611ba1565b90506000600b5490506000600a54905060008060019050856003015486600101541115611426578284116113d55760405162461bcd60e51b815260206004820152601060248201526f1a185d99481b9bc81a5b9d195c995cdd60821b604482015260640161097e565b83620f42406113e485836139e0565b60018901546103e8906113f7908a613a39565b6114019190613a39565b61140b9190613a39565b6114159190613a25565b61141f9190613a25565b91506114b9565b8383116114685760405162461bcd60e51b815260206004820152601060248201526f1a185d99481b9bc81a5b9d195c995cdd60821b604482015260640161097e565b5060001982620f424061147b86836139e0565b60038901546103e89061148e908a613a39565b6114989190613a39565b6114a29190613a39565b6114ac9190613a25565b6114b69190613a25565b91505b6000620f42406114cc620186a085613a39565b6114d69190613a25565b60058801805463ffffffff191663ffffffff8b16179055875490915083908890600090611504908490613a58565b9091555061151490508184613a58565b600960008282546115259190613a97565b9091555061155690507f00000000000000000000000000000000000000000000000000000000000000003383612e9a565b60408051600084900b8152602081018590529081018790526001600160a01b038a16907f78213dfb97e98b601b3fee012a0f6bddbf4e63c293c77b5186137af1e7cf62ae906060015b60405180910390a25050600160065550505050505050565b6006546001146115d95760405162461bcd60e51b815260040161097e90613bce565b600060065560045460ff166001146116295760405162461bcd60e51b8152602060048201526013602482015272706f6f6c206973206578706c6f736976696e6760681b604482015260640161097e565b6000611633611ba1565b9050600061164082612dc6565b90506000600b54600a541161167b57600583600a54600b5461166291906139e0565b61166c9190613a39565b6116769190613a25565b6116a2565b600583600b54600a5461168e91906139e0565b6116989190613a39565b6116a29190613a25565b9050808213156116f45760405162461bcd60e51b815260206004820152601960248201527f706f6f6c2063616e6e2774206265206578706c6f736976656400000000000000604482015260640161097e565b6004805460ff1916600217815560009061170e9083613a25565b9050808312156117fc5780600954136117615760405162461bcd60e51b81526020600482015260156024820152741d1bdd185b141bdbdb081b5d5cdd080f881b19599d605a1b604482015260640161097e565b6000600b54600a5411156117ab57600b54600a5461177f91906139e0565b8260095461178d9190613a58565b6117979190613a25565b600c546117a491906139f7565b90506117ef565b600a54600b5411156117ef57600d54600a54600b546117ca91906139e0565b836009546117d89190613a58565b6117e29190613a25565b6117ec91906139f7565b90505b6005556009819055611807565b600983905560058490555b50506000600d819055600c5550506001600655565b60065460011461183e5760405162461bcd60e51b815260040161097e90613bce565b600060065560045460ff166001146118685760405162461bcd60e51b815260040161097e906139a2565b6000611872611ba1565b90506000611880828461313f565b336000908152600e60209081526040808320815160c0810183528154815260018201549381018490526002820154928101929092526003810154606083018190526004820154608084015260059091015463ffffffff1660a0830152939450928491620f42409187916118f291613a58565b6118fc9190613ad8565b6119069190613ad8565b6119109190613b5d565b9050600061191e85836131c8565b61192890866139e0565b90508681101561197a5760405162461bcd60e51b815260206004820152601960248201527f636c6f7365206c6f6e67207072696365206973206c6f77657200000000000000604482015260640161097e565b85836020015110156119d95760405162461bcd60e51b815260206004820152602260248201527f636c6f736520616d6f756e742072657175697265203e3d206c6f6e67416d6f756044820152611b9d60f21b606482015260840161097e565b6000620f42406102586119ec848a613a39565b6119f69190613a39565b611a009190613a25565b90506000846040015183611a149190613a58565b611a1e9089613ad8565b9050878560200151611a3091906139e0565b336000908152600e602052604090206001015584518290611a52908390613a97565b611a5c9190613a58565b336000908152600e6020908152604090912091909155850151881415611a9057336000908152600e60205260408120600201555b87600b6000828254611aa291906139e0565b90915550611ab290508282613593565b604080516001198152602081018a90529081018490523390600080516020613ebf8339815191529060600161159f565b600080611aed611ba1565b9050600081600b54611aff9190613a39565b600c54600a54611b0f9190613a39565b611b1991906139f7565b600d54600b54611b299190613a39565b83600a54611b379190613a39565b611b4191906139f7565b600954611b4e9190613a97565b611b589190613a58565b905060008113610b9e5760405162461bcd60e51b81526020600482015260146024820152733732ba103732b2b2103132903837b9b4ba34b7b760611b604482015260640161097e565b6000807f00000000000000000000000000000000000000000000000000000000000000006001600160a01b031663feaf968c6040518163ffffffff1660e01b815260040160a060405180830381865afa158015611c02573d6000803e3d6000fd5b505050506040513d601f19601f82011682018060405250810190611c269190613c3b565b50505091505060008113611c8d5760405162461bcd60e51b815260206004820152602860248201527f7468652070616972207374616e64617264207072696365206d75737420626520604482015267706f73697469766560c01b606482015260840161097e565b60007f000000000000000000000000000000000000000000000000000000000000000060000b12611d48577f0000000000000000000000000000000000000000000000000000000000000000611d047f0000000000000000000000000000000000000000000000000000000000000000600a613d6f565b611d2e7f000000000000000000000000000000000000000000000000000000000000000084613a39565b611d389190613a39565b611d429190613a25565b91505090565b7f0000000000000000000000000000000000000000000000000000000000000000611d927f0000000000000000000000000000000000000000000000000000000000000000613d7e565b611d9d90600a613d6f565b611dc77f000000000000000000000000000000000000000000000000000000000000000084613a39565b611d389190613a25565b6000807f00000000000000000000000000000000000000000000000000000000000000006001600160a01b031663feaf968c6040518163ffffffff1660e01b815260040160a060405180830381865afa158015611e32573d6000803e3d6000fd5b505050506040513d601f19601f82011682018060405250810190611e569190613c3b565b509195945050505050565b600654600114611e835760405162461bcd60e51b815260040161097e90613bce565b600060065560045460ff16600214611ed25760405162461bcd60e51b81526020600482015260126024820152713837b7b629ba30ba329034b9903737ba101960711b604482015260640161097e565b6001600160a01b0381166000908152600e6020908152604091829020825160c08101845281548152600182015492810183905260028201549381019390935260038101546060840152600481015460808401526005015463ffffffff1660a0830152151580611f45575060008160600151115b611f6b5760405162461bcd60e51b8152602060048201526000602482015260440161097e565b6000611f7982600554613631565b90506000620f424062ffffff1661025861ffff166005548560600151611f9f9190613a39565b6005548660200151611fb19190613a39565b611fbb91906139f7565b611fc59190613a39565b611fcf9190613a25565b602084015190915015611ff8578260200151600b6000828254611ff291906139e0565b90915550505b60608301511561201e578260600151600a600082825461201891906139e0565b90915550505b600a5415801561202e5750600b54155b15612041576004805460ff191660011790555b8082131561208c576120538183613a58565b6001600160a01b0385166000908152600e602052604081209190915560098054839290612081908490613a97565b909155506120bf9050565b6001600160a01b0384166000908152600e60205260408120819055600980548492906120b9908490613a97565b90915550505b6001600160a01b0384166000908152600e602052604081206001810182905560028101829055600381018290556004018190556a52b7d2dcc80cd2e40000007f0000000000000000000000000000000000000000000000000000000000000000612127611dd1565b61213590633b9aca00613a39565b61213f9190613a39565b6121499190613a25565b9050806009600082825461215d9190613a58565b9091555061218e90507f00000000000000000000000000000000000000000000000000000000000000003383612e9a565b846001600160a01b03167ffca559ae7a3bea5c41671f27049d90b84fbf98be965e6d7f0259ee6e5caa980b856020015186606001516005546040516121e6939291909283526020830191909152604082015260600190565b60405180910390a250506001600655505050565b6000610b9a3384846134f2565b6006546001146122295760405162461bcd60e51b815260040161097e90613bce565b600060065560045460ff166001146122535760405162461bcd60e51b815260040161097e906139a2565b60075460ff1661229d5760405162461bcd60e51b815260206004820152601560248201527418dbdb9d1c9858dd081a5cc81b9bdd081cdd185c9d605a1b604482015260640161097e565b60006122a7611ba1565b905060006122b5828461313f565b336000908152600e60209081526040808320815160c0810183528154815260018201549381018490526002820154928101929092526003810154606083018190526004820154608084015260059091015463ffffffff1660a0830152939450928491620f42409187916123289190613a58565b6123329190613ad8565b61233c9190613ad8565b6123469190613b5d565b9050620493e0811261236a5760405162461bcd60e51b815260040161097e90613b8b565b600061237685836131c8565b61238090866139f7565b9050868111158061238f575086155b6123db5760405162461bcd60e51b815260206004820152601b60248201527f6f70656e206c6f6e6720707269636520697320746f6f20686967680000000000604482015260640161097e565b60006123e78288613a39565b905060006123f685888461329e565b905087856020015161240891906139f7565b336000908152600e602090815260409091206001019190915585015161242f9089906139f7565b82866040015187602001516124449190613a39565b61244e91906139f7565b6124589190613a25565b336000908152600e60205260409020600201558451612478908290613a58565b336000908152600e6020526040902055600b5461249589826139f7565b600b556124a289826139f7565b83600d54836124b19190613a39565b6124bb91906139f7565b6124c59190613a25565b600d556124d182613469565b6040805160018152602081018b90529081018590523390600080516020613ebf8339815191529060600160405180910390a2505060016006555050505050505050565b60045460ff166001146125395760405162461bcd60e51b815260040161097e906139a2565b6125657f0000000000000000000000000000000000000000000000000000000000000000333085613017565b600754829060ff161561259b57600061257c611ae2565b9050808460005461258d9190613a39565b6125979190613a25565b9150505b82600960008282546125ad9190613a97565b90915550506009547f0000000000000000000000000000000000000000000000000000000000000000136125e9576007805460ff191660011790555b6125f382826136a5565b60405181815233907f0f6798a560793a54c3bcfe86a93cde1e73087d944c0ea20544137d412139688590602001610b80565b428410156126675760405162461bcd60e51b815260206004820152600f60248201526e12195919d95e0e8811561412549151608a1b604482015260640161097e565b6001600160a01b038716600090815260036020526040812080547f0000000000000000000000000000000000000000000000000000000000000000917f6e71edae12b1b97f4d1f60370fef10105fa2faae0126114a169c64845d6126c9918b918b918b91876126d583613d9e565b909155506040805160208101969096526001600160a01b0394851690860152929091166060840152608083015260a082015260c0810187905260e0016040516020818303038152906040528051906020012060405160200161274e92919061190160f01b81526002810192909252602282015260420190565b60408051601f198184030181528282528051602091820120600080855291840180845281905260ff88169284019290925260608301869052608083018590529092509060019060a0016020604051602081039080840390855afa1580156127b9573d6000803e3d6000fd5b5050604051601f1901519150506001600160a01b038116158015906127ef5750886001600160a01b0316816001600160a01b0316145b61283b5760405162461bcd60e51b815260206004820152601960248201527f4865646765783a20494e56414c49445f5349474e415455524500000000000000604482015260640161097e565b612846898989612fb5565b505050505050505050565b6006546001146128735760405162461bcd60e51b815260040161097e90613bce565b600060065560045460ff1660011461289d5760405162461bcd60e51b815260040161097e906139a2565b60006128a7611ba1565b905060006128b5828461313f565b336000908152600e60209081526040808320815160c0810183528154815260018201549381018490526002820154928101929092526003810154606083018190526004820154608084015260059091015463ffffffff1660a0830152939450928491620f42409187916129289190613a58565b6129329190613ad8565b61293c9190613ad8565b6129469190613b5d565b9050600061295485836131c8565b61295e90866139f7565b9050868111158061296d575086155b6129b95760405162461bcd60e51b815260206004820152601b60248201527f636c6f73652073686f7274207072696365206973206869676865720000000000604482015260640161097e565b8583606001511015612a195760405162461bcd60e51b815260206004820152602360248201527f636c6f736520616d6f756e742072657175697265203e3d2073686f7274416d6f6044820152621d5b9d60ea1b606482015260840161097e565b6000620f4240610258612a2c848a613a39565b612a369190613a39565b612a409190613a25565b90506000828560800151612a549190613a58565b612a5e9089613ad8565b9050878560600151612a7091906139e0565b336000908152600e602052604090206003015584518290612a92908390613a97565b612a9c9190613a58565b336000908152600e60205260409020556060850151881415612acc57336000908152600e60205260408120600401555b87600a6000828254612ade91906139e0565b90915550612aee90508282613593565b6040805160028152602081018a90529081018490523390600080516020613ebf8339815191529060600161159f565b600654600114612b3f5760405162461bcd60e51b815260040161097e90613bce565b600060065560045460ff16600114612b695760405162461bcd60e51b815260040161097e906139a2565b6001600160a01b0381166000908152600e60209081526040808320815160c0810183528154815260018201549381019390935260028101549183019190915260038101546060830181905260048201546080840181905260059092015463ffffffff1660a0840152919291601e91612be091613a39565b83604001518460200151612bf49190613a39565b612bfe91906139f7565b612c089190613a25565b90506000612c14611ba1565b90506000612c228483613631565b905082811315612c6c5760405162461bcd60e51b815260206004820152601560248201527410d85b881b9bdd08189948195e1c1b1bdcda5d9959605a1b604482015260640161097e565b602084015115612c92578360200151600b6000828254612c8c91906139e0565b90915550505b606084015115612cb8578360600151600a6000828254612cb291906139e0565b90915550505b60608401516020850151600119911115612cd0575060025b6001600160a01b0386166000908152600e60205260408120818155600181018290556002810182905560038101829055600401819055821315612d3d57612d387f00000000000000000000000000000000000000000000000000000000000000003384612e9a565b612d55565b8160096000828254612d4f9190613a97565b90915550505b856001600160a01b03167f1cf7369c3767c976b447baaae4eed8217e2d190d1750c589e62bf5f7ecc4aaff8287606001518860200151612d9591906139f7565b6040805160009390930b83526020830191909152810186905260600160405180910390a25050600160065550505050565b60008082600b54612dd79190613a39565b600c54600a54612de79190613a39565b612df191906139f7565b600d54600b54612e019190613a39565b84600a54611b379190613a39565b6001600160a01b03821660009081526001602052604081208054839290612e379084906139e0565b9250508190555080600080828254612e4f91906139e0565b90915550506040518181526000906001600160a01b038416907fddf252ad1be2c89b69c2b068fc378daa952ba7f163c4a11628f55a4df523b3ef906020015b60405180910390a35050565b604080516001600160a01b038481166024830152604480830185905283518084039091018152606490920183526020820180516001600160e01b031663a9059cbb60e01b1790529151600092839290871691612ef69190613db9565b6000604051808303816000865af19150503d8060008114612f33576040519150601f19603f3d011682016040523d82523d6000602084013e612f38565b606091505b5091509150818015612f62575080511580612f62575080806020019051810190612f629190613dd5565b612fae5760405162461bcd60e51b815260206004820152601f60248201527f5472616e7366657248656c7065723a205452414e534645525f4641494c454400604482015260640161097e565b5050505050565b6001600160a01b0383811660008181526002602090815260408083209487168084529482529182902085905590518481527f8c5be1e5ebec7d5bd14f71427d1e84f3dd0314c0f7b2291e5b200ac8c7c3b92591015b60405180910390a3505050565b604080516001600160a01b0385811660248301528481166044830152606480830185905283518084039091018152608490920183526020820180516001600160e01b03166323b872dd60e01b179052915160009283929088169161307b9190613db9565b6000604051808303816000865af19150503d80600081146130b8576040519150601f19603f3d011682016040523d82523d6000602084013e6130bd565b606091505b50915091508180156130e75750805115806130e75750808060200190518101906130e79190613dd5565b61054a5760405162461bcd60e51b8152602060048201526024808201527f5472616e7366657248656c7065723a205452414e534645525f46524f4d5f46416044820152631253115160e21b606482015260840161097e565b60008061314b84612dc6565b905083620f424061315e61753084613a39565b6131689190613a25565b6131729190613a25565b8311156131c15760405162461bcd60e51b815260206004820152601d60248201527f73696e676c6520616d6f756e74206f766572206e6574202a2072617465000000604482015260640161097e565b9392505050565b60008060026131db62030d406003613df7565b6131e59190613e84565b60020b831261324d576002806131ff62030d406003613df7565b6132099190613e84565b6132169060020b85613a58565b613221906005613ad8565b61322b9190613b5d565b613239600a62030d40613e84565b60020b6132469190613a97565b9050613273565b62030d40831261327357600561326662030d4085613a58565b6132709190613a25565b90505b620f42406132826032836139f7565b61328c9086613a39565b6132969190613a25565b949350505050565b6000808385606001516132b19190613a39565b856040015186602001516132c59190613a39565b6132cf91906139f7565b856080015186606001516132e39190613a39565b8587602001516132f39190613a39565b6132fd91906139f7565b86516133099190613a97565b6133139190613a58565b905060007f000000000000000000000000000000000000000000000000000000000000000060ff168660800151876060015161334f9190613a39565b876040015188602001516133639190613a39565b61336d91906139f7565b6133779190613a25565b905060006133a860ff7f00000000000000000000000000000000000000000000000000000000000000001686613a25565b90506000620f42406133bc61025888613a39565b6133c69190613a25565b9050600084826133d685876139f7565b6133e091906139f7565b6133ea9190613a58565b9050600081131561345d576133fe81610dfb565b336000908152600e6020908152604091829020825160c08101845281548152600182015492810192909252600281015492820192909252600382015460608201526004820154608082015260059091015463ffffffff1660a082015298505b50979650505050505050565b600754610100900460ff16156134d7576000620f424061348c6203d09084613a39565b6134969190613a25565b905080600860008282546134aa91906139f7565b909155506134ba90508183613a58565b600960008282546134cb9190613a97565b909155506134ef915050565b80600960008282546134e99190613a97565b90915550505b50565b6001600160a01b0383166000908152600160205260408120805483929061351a9084906139e0565b90915550506001600160a01b038216600090815260016020526040812080548392906135479084906139f7565b92505081905550816001600160a01b0316836001600160a01b03167fddf252ad1be2c89b69c2b068fc378daa952ba7f163c4a11628f55a4df523b3ef8360405161300a91815260200190565b600754610100900460ff161561360c576000620f42406135b66203d09085613a39565b6135c09190613a25565b905080600860008282546135d491906139f7565b909155508290506135e58285613a58565b6135ef9190613a58565b600960008282546136009190613a97565b9091555061362d915050565b6136168183613a58565b600960008282546136279190613a97565b90915550505b5050565b60008183606001516136439190613a39565b836040015184602001516136579190613a39565b61366191906139f7565b836080015184606001516136759190613a39565b8385602001516136859190613a39565b61368f91906139f7565b845161369b9190613a97565b6131c19190613a58565b806000808282546136b691906139f7565b90915550506001600160a01b038216600090815260016020526040812080548392906136e39084906139f7565b90915550506040518181526001600160a01b038316906000907fddf252ad1be2c89b69c2b068fc378daa952ba7f163c4a11628f55a4df523b3ef90602001612e8e565b80356001600160a01b038116811461373d57600080fd5b919050565b6000806040838503121561375557600080fd5b8235915061376560208401613726565b90509250929050565b60005b83811015613789578181015183820152602001613771565b83811115613798576000848401525b50505050565b60208152600082518060208401526137bd81604085016020870161376e565b601f01601f19169190910160400192915050565b600080604083850312156137e457600080fd5b6137ed83613726565b946020939093013593505050565b60006020828403121561380d57600080fd5b5035919050565b6000806040838503121561382757600080fd5b50508035926020909101359150565b60008060006060848603121561384b57600080fd5b61385484613726565b925061386260208501613726565b9150604084013590509250925092565b803560ff8116811461373d57600080fd5b60008060008060008060c0878903121561389c57600080fd5b6138a587613726565b95506138b360208801613726565b945060408701359350606087013592506138cf60808801613872565b915060a08701358060000b81146138e557600080fd5b809150509295509295509295565b60006020828403121561390557600080fd5b6131c182613726565b600080600080600080600060e0888a03121561392957600080fd5b61393288613726565b965061394060208901613726565b9550604088013594506060880135935061395c60808901613872565b925060a0880135915060c0880135905092959891949750929550565b6000806040838503121561398b57600080fd5b61399483613726565b915061376560208401613726565b6020808252600e908201526d3837b7b629ba30ba329034b9901960911b604082015260600190565b634e487b7160e01b600052601160045260246000fd5b6000828210156139f2576139f26139ca565b500390565b60008219821115613a0a57613a0a6139ca565b500190565b634e487b7160e01b600052601260045260246000fd5b600082613a3457613a34613a0f565b500490565b6000816000190483118215151615613a5357613a536139ca565b500290565b60008083128015600160ff1b850184121615613a7657613a766139ca565b6001600160ff1b0384018313811615613a9157613a916139ca565b50500390565b600080821280156001600160ff1b0384900385131615613ab957613ab96139ca565b600160ff1b8390038412811615613ad257613ad26139ca565b50500190565b60006001600160ff1b0381841382841380821686840486111615613afe57613afe6139ca565b600160ff1b6000871282811687830589121615613b1d57613b1d6139ca565b60008712925087820587128484161615613b3957613b396139ca565b87850587128184161615613b4f57613b4f6139ca565b505050929093029392505050565b600082613b6c57613b6c613a0f565b600160ff1b821460001984141615613b8657613b866139ca565b500590565b60208082526023908201527f706f6f6c206e657420616d6f756e74206d75737420736d616c6c207468616e2060408201526233302560e81b606082015260800190565b6020808252600d908201526c1a195919d95e081b1bd8dad959609a1b604082015260600190565b600063ffffffff80831681851681830481118215151615613c1857613c186139ca565b02949350505050565b805169ffffffffffffffffffff8116811461373d57600080fd5b600080600080600060a08688031215613c5357600080fd5b613c5c86613c21565b9450602086015193506040860151925060608601519150613c7f60808701613c21565b90509295509295909350565b600181815b80851115613cc6578160001904821115613cac57613cac6139ca565b80851615613cb957918102915b93841c9390800290613c90565b509250929050565b600082613cdd57506001610b9e565b81613cea57506000610b9e565b8160018114613d005760028114613d0a57613d26565b6001915050610b9e565b60ff841115613d1b57613d1b6139ca565b50506001821b610b9e565b5060208310610133831016604e8410600b8410161715613d49575081810a610b9e565b613d538383613c8b565b8060001904821115613d6757613d676139ca565b029392505050565b60006131c160ff841683613cce565b600081810b607f19811415613d9557613d956139ca565b60000392915050565b6000600019821415613db257613db26139ca565b5060010190565b60008251613dcb81846020870161376e565b9190910192915050565b600060208284031215613de757600080fd5b815180151581146131c157600080fd5b60008160020b8360020b627fffff600082136000841383830485118282161615613e2357613e236139ca565b627fffff196000851282811687830587121615613e4257613e426139ca565b60008712925085820587128484161615613e5e57613e5e6139ca565b85850587128184161615613e7457613e746139ca565b5050509290910295945050505050565b60008160020b8360020b80613e9b57613e9b613a0f565b627fffff19821460001982141615613eb557613eb56139ca565b9005939250505056fe303db7636b0e071f088d2cd5e8463efe513531272d61a18739b21053f6d7b430a2646970667358221220c6053dd83ecd2770075c0cc81a6ceb0dc71f09e44cbb35659e2d8f0b9ab7186564736f6c634300080a0033",
    "sourcePath": "d:/contract/hedgex/Single.sol",
    "compiler": {
        "name": "solc",
        "version": "0.8.10+commit.fc410830"
    },
    "functionHashes": {
        "DOMAIN_SEPARATOR()": "3644e515",
        "PERMIT_TYPEHASH()": "30adf81f",
        "addLiquidity(uint256,address)": "c95f9d0e",
        "allowance(address,address)": "dd62ed3e",
        "amountDecimal()": "2be90282",
        "approve(address,uint256)": "095ea7b3",
        "balanceOf(address)": "70a08231",
        "closeLong(uint256,uint256)": "416c5690",
        "closeShort(uint256,uint256)": "f69d91ae",
        "dailyInterestRateBase()": "8967b694",
        "decimals()": "313ce567",
        "detectSlide(address)": "3d07bfb7",
        "divConst()": "7e4856c4",
        "explosive(address)": "fc1e2c45",
        "explosivePool()": "3e31fb45",
        "feeDivide()": "d375454f",
        "feeOn()": "4f335d0a",
        "feeRate()": "978bbdb9",
        "feedPrice()": "a04eecae",
        "feedPriceDecimal()": "08c73e74",
        "foceCloseRewardGas()": "3d5f8e7a",
        "forceCloseAccount(address)": "93f8d812",
        "gasUsdPriceFeed()": "6afb3760",
        "getGasUsdPrice()": "8ed3896c",
        "getLatestPrice()": "8e15f473",
        "getPoolNet()": "7bb71a97",
        "initialize(address,address,uint256,uint256,uint8,int8)": "251c073a",
        "interestRewardRate()": "01bcc908",
        "isStart()": "8a55d36e",
        "leverage()": "2c86d98e",
        "minPool()": "2678b8fd",
        "name()": "06fdde03",
        "nonces(address)": "7ecebe00",
        "openLong(uint256,uint256)": "c181d418",
        "openShort(uint256,uint256)": "1266a619",
        "permit(address,address,uint256,uint256,uint8,bytes32,bytes32)": "d505accf",
        "poolExplosivePrice()": "33d6f1f7",
        "poolLeftAmountRate()": "ce8ad1d2",
        "poolLongAmount()": "e5984319",
        "poolLongPrice()": "994af3ae",
        "poolNetAmountRateLimitOpen()": "cd8bb6cd",
        "poolNetAmountRateLimitPrice()": "1cce9103",
        "poolShortAmount()": "8e406892",
        "poolShortPrice()": "971059fb",
        "poolState()": "641ad8a9",
        "rechargeMargin(uint256)": "11ce83f8",
        "removeLiquidity(uint256,address)": "05fe138b",
        "singleTradeLimitRate()": "1865071d",
        "slideP()": "2c204fa8",
        "sumFee()": "190b065f",
        "symbol()": "95d89b41",
        "token0()": "0dfe1681",
        "token0Decimal()": "9ddc230a",
        "totalPool()": "ecfb49a3",
        "totalSupply()": "18160ddd",
        "traders(address)": "92a88fa2",
        "transfer(address,uint256)": "a9059cbb",
        "transferFrom(address,address,uint256)": "23b872dd",
        "withdrawMargin(uint256)": "0cea7534"
    },
    "gasEstimates": {
        "creation": {
            "codeDepositCost": "3229600",
            "executionCost": "infinite",
            "totalCost": "infinite"
        },
        "external": {
            "DOMAIN_SEPARATOR()": "infinite",
            "PERMIT_TYPEHASH()": "307",
            "addLiquidity(uint256,address)": "infinite",
            "allowance(address,address)": "infinite",
            "amountDecimal()": "infinite",
            "approve(address,uint256)": "24619",
            "balanceOf(address)": "2610",
            "closeLong(uint256,uint256)": "infinite",
            "closeShort(uint256,uint256)": "infinite",
            "dailyInterestRateBase()": "316",
            "decimals()": "infinite",
            "detectSlide(address)": "infinite",
            "divConst()": "261",
            "explosive(address)": "infinite",
            "explosivePool()": "infinite",
            "feeDivide()": "282",
            "feeOn()": "2432",
            "feeRate()": "337",
            "feedPrice()": "infinite",
            "feedPriceDecimal()": "infinite",
            "foceCloseRewardGas()": "329",
            "forceCloseAccount(address)": "infinite",
            "gasUsdPriceFeed()": "infinite",
            "getGasUsdPrice()": "infinite",
            "getLatestPrice()": "infinite",
            "getPoolNet()": "infinite",
            "initialize(address,address,uint256,uint256,uint8,int8)": "infinite",
            "interestRewardRate()": "263",
            "isStart()": "2444",
            "leverage()": "infinite",
            "minPool()": "infinite",
            "name()": "infinite",
            "nonces(address)": "2609",
            "openLong(uint256,uint256)": "infinite",
            "openShort(uint256,uint256)": "infinite",
            "permit(address,address,uint256,uint256,uint8,bytes32,bytes32)": "infinite",
            "poolExplosivePrice()": "2363",
            "poolLeftAmountRate()": "260",
            "poolLongAmount()": "2361",
            "poolLongPrice()": "2363",
            "poolNetAmountRateLimitOpen()": "342",
            "poolNetAmountRateLimitPrice()": "321",
            "poolShortAmount()": "2385",
            "poolShortPrice()": "2406",
            "poolState()": "2446",
            "rechargeMargin(uint256)": "infinite",
            "removeLiquidity(uint256,address)": "infinite",
            "singleTradeLimitRate()": "272",
            "slideP()": "272",
            "sumFee()": "2385",
            "symbol()": "infinite",
            "token0()": "infinite",
            "token0Decimal()": "infinite",
            "totalPool()": "2383",
            "totalSupply()": "2408",
            "traders(address)": "13336",
            "transfer(address,uint256)": "51140",
            "transferFrom(address,address,uint256)": "infinite",
            "withdrawMargin(uint256)": "infinite"
        },
        "internal": {
            "feeCharge(uint256)": "51151",
            "feeCharge(uint256,int256)": "infinite",
            "getAccountNet(struct HedgexSingle.Trader memory)": "infinite",
            "getAccountNet(struct HedgexSingle.Trader memory,uint256)": "infinite",
            "getPoolNet(uint256)": "infinite",
            "judegOpen(struct HedgexSingle.Trader memory,uint256,uint256)": "infinite",
            "poolTradeLimit(uint256,uint256)": "infinite",
            "slideTradePrice(uint256,int256)": "infinite"
        }
    }
}