{
    "contractName": "HedgexSingle",
    "abi": [
        {
            "inputs": [
                {
                    "internalType": "address",
                    "name": "_token0",
                    "type": "address"
                },
                {
                    "internalType": "address",
                    "name": "_feedPrice",
                    "type": "address"
                },
                {
                    "internalType": "uint256",
                    "name": "_feedPriceDecimal",
                    "type": "uint256"
                },
                {
                    "internalType": "uint256",
                    "name": "_minStartPool",
                    "type": "uint256"
                },
                {
                    "internalType": "uint8",
                    "name": "_leverage",
                    "type": "uint8"
                },
                {
                    "internalType": "int8",
                    "name": "_amountDecimal",
                    "type": "int8"
                }
            ],
            "stateMutability": "nonpayable",
            "type": "constructor"
        },
        {
            "anonymous": false,
            "inputs": [
                {
                    "indexed": true,
                    "internalType": "address",
                    "name": "owner",
                    "type": "address"
                },
                {
                    "indexed": true,
                    "internalType": "address",
                    "name": "spender",
                    "type": "address"
                },
                {
                    "indexed": false,
                    "internalType": "uint256",
                    "name": "value",
                    "type": "uint256"
                }
            ],
            "name": "Approval",
            "type": "event"
        },
        {
            "anonymous": false,
            "inputs": [
                {
                    "indexed": true,
                    "internalType": "address",
                    "name": "sender",
                    "type": "address"
                },
                {
                    "indexed": false,
                    "internalType": "uint256",
                    "name": "amount",
                    "type": "uint256"
                }
            ],
            "name": "Burn",
            "type": "event"
        },
        {
            "anonymous": false,
            "inputs": [
                {
                    "indexed": true,
                    "internalType": "address",
                    "name": "sender",
                    "type": "address"
                },
                {
                    "indexed": false,
                    "internalType": "uint256",
                    "name": "amount",
                    "type": "uint256"
                }
            ],
            "name": "Mint",
            "type": "event"
        },
        {
            "anonymous": false,
            "inputs": [
                {
                    "indexed": true,
                    "internalType": "address",
                    "name": "sender",
                    "type": "address"
                },
                {
                    "indexed": false,
                    "internalType": "uint256",
                    "name": "amount",
                    "type": "uint256"
                }
            ],
            "name": "Recharge",
            "type": "event"
        },
        {
            "anonymous": false,
            "inputs": [
                {
                    "indexed": true,
                    "internalType": "address",
                    "name": "sender",
                    "type": "address"
                },
                {
                    "indexed": false,
                    "internalType": "int8",
                    "name": "direction",
                    "type": "int8"
                },
                {
                    "indexed": false,
                    "internalType": "uint256",
                    "name": "amount",
                    "type": "uint256"
                }
            ],
            "name": "Trade",
            "type": "event"
        },
        {
            "anonymous": false,
            "inputs": [
                {
                    "indexed": true,
                    "internalType": "address",
                    "name": "from",
                    "type": "address"
                },
                {
                    "indexed": true,
                    "internalType": "address",
                    "name": "to",
                    "type": "address"
                },
                {
                    "indexed": false,
                    "internalType": "uint256",
                    "name": "value",
                    "type": "uint256"
                }
            ],
            "name": "Transfer",
            "type": "event"
        },
        {
            "anonymous": false,
            "inputs": [
                {
                    "indexed": true,
                    "internalType": "address",
                    "name": "sender",
                    "type": "address"
                },
                {
                    "indexed": false,
                    "internalType": "uint256",
                    "name": "amount",
                    "type": "uint256"
                }
            ],
            "name": "Withdraw",
            "type": "event"
        },
        {
            "inputs": [],
            "name": "DOMAIN_SEPARATOR",
            "outputs": [
                {
                    "internalType": "bytes32",
                    "name": "",
                    "type": "bytes32"
                }
            ],
            "stateMutability": "view",
            "type": "function"
        },
        {
            "inputs": [],
            "name": "PERMIT_TYPEHASH",
            "outputs": [
                {
                    "internalType": "bytes32",
                    "name": "",
                    "type": "bytes32"
                }
            ],
            "stateMutability": "view",
            "type": "function"
        },
        {
            "inputs": [
                {
                    "internalType": "uint256",
                    "name": "amount",
                    "type": "uint256"
                },
                {
                    "internalType": "address",
                    "name": "to",
                    "type": "address"
                },
                {
                    "internalType": "uint256",
                    "name": "deadline",
                    "type": "uint256"
                }
            ],
            "name": "addLiquidity",
            "outputs": [],
            "stateMutability": "nonpayable",
            "type": "function"
        },
        {
            "inputs": [
                {
                    "internalType": "address",
                    "name": "",
                    "type": "address"
                },
                {
                    "internalType": "address",
                    "name": "",
                    "type": "address"
                }
            ],
            "name": "allowance",
            "outputs": [
                {
                    "internalType": "uint256",
                    "name": "",
                    "type": "uint256"
                }
            ],
            "stateMutability": "view",
            "type": "function"
        },
        {
            "inputs": [],
            "name": "amountDecimal",
            "outputs": [
                {
                    "internalType": "int8",
                    "name": "",
                    "type": "int8"
                }
            ],
            "stateMutability": "view",
            "type": "function"
        },
        {
            "inputs": [
                {
                    "internalType": "address",
                    "name": "spender",
                    "type": "address"
                },
                {
                    "internalType": "uint256",
                    "name": "value",
                    "type": "uint256"
                }
            ],
            "name": "approve",
            "outputs": [
                {
                    "internalType": "bool",
                    "name": "",
                    "type": "bool"
                }
            ],
            "stateMutability": "nonpayable",
            "type": "function"
        },
        {
            "inputs": [
                {
                    "internalType": "address",
                    "name": "",
                    "type": "address"
                }
            ],
            "name": "balanceOf",
            "outputs": [
                {
                    "internalType": "uint256",
                    "name": "",
                    "type": "uint256"
                }
            ],
            "stateMutability": "view",
            "type": "function"
        },
        {
            "inputs": [
                {
                    "internalType": "uint256",
                    "name": "priceExp",
                    "type": "uint256"
                },
                {
                    "internalType": "uint256",
                    "name": "amount",
                    "type": "uint256"
                }
            ],
            "name": "closeLong",
            "outputs": [],
            "stateMutability": "nonpayable",
            "type": "function"
        },
        {
            "inputs": [
                {
                    "internalType": "uint256",
                    "name": "priceExp",
                    "type": "uint256"
                },
                {
                    "internalType": "uint256",
                    "name": "amount",
                    "type": "uint256"
                }
            ],
            "name": "closeShort",
            "outputs": [],
            "stateMutability": "nonpayable",
            "type": "function"
        },
        {
            "inputs": [],
            "name": "decimals",
            "outputs": [
                {
                    "internalType": "uint8",
                    "name": "",
                    "type": "uint8"
                }
            ],
            "stateMutability": "view",
            "type": "function"
        },
        {
            "inputs": [
                {
                    "internalType": "address",
                    "name": "account",
                    "type": "address"
                },
                {
                    "internalType": "address",
                    "name": "to",
                    "type": "address"
                }
            ],
            "name": "detectSlide",
            "outputs": [],
            "stateMutability": "nonpayable",
            "type": "function"
        },
        {
            "inputs": [
                {
                    "internalType": "address",
                    "name": "account",
                    "type": "address"
                },
                {
                    "internalType": "address",
                    "name": "to",
                    "type": "address"
                }
            ],
            "name": "explosive",
            "outputs": [],
            "stateMutability": "nonpayable",
            "type": "function"
        },
        {
            "inputs": [],
            "name": "feeOn",
            "outputs": [
                {
                    "internalType": "bool",
                    "name": "",
                    "type": "bool"
                }
            ],
            "stateMutability": "view",
            "type": "function"
        },
        {
            "inputs": [],
            "name": "feedPrice",
            "outputs": [
                {
                    "internalType": "contract AggregatorV3Interface",
                    "name": "",
                    "type": "address"
                }
            ],
            "stateMutability": "view",
            "type": "function"
        },
        {
            "inputs": [],
            "name": "feedPriceDecimal",
            "outputs": [
                {
                    "internalType": "uint256",
                    "name": "",
                    "type": "uint256"
                }
            ],
            "stateMutability": "view",
            "type": "function"
        },
        {
            "inputs": [],
            "name": "getLatestPrice",
            "outputs": [
                {
                    "internalType": "uint256",
                    "name": "",
                    "type": "uint256"
                }
            ],
            "stateMutability": "view",
            "type": "function"
        },
        {
            "inputs": [],
            "name": "getPoolNet",
            "outputs": [
                {
                    "internalType": "int256",
                    "name": "",
                    "type": "int256"
                }
            ],
            "stateMutability": "view",
            "type": "function"
        },
        {
            "inputs": [],
            "name": "isStart",
            "outputs": [
                {
                    "internalType": "bool",
                    "name": "",
                    "type": "bool"
                }
            ],
            "stateMutability": "view",
            "type": "function"
        },
        {
            "inputs": [],
            "name": "leverage",
            "outputs": [
                {
                    "internalType": "uint8",
                    "name": "",
                    "type": "uint8"
                }
            ],
            "stateMutability": "view",
            "type": "function"
        },
        {
            "inputs": [],
            "name": "minPool",
            "outputs": [
                {
                    "internalType": "uint256",
                    "name": "",
                    "type": "uint256"
                }
            ],
            "stateMutability": "view",
            "type": "function"
        },
        {
            "inputs": [],
            "name": "name",
            "outputs": [
                {
                    "internalType": "string",
                    "name": "",
                    "type": "string"
                }
            ],
            "stateMutability": "view",
            "type": "function"
        },
        {
            "inputs": [
                {
                    "internalType": "address",
                    "name": "",
                    "type": "address"
                }
            ],
            "name": "nonces",
            "outputs": [
                {
                    "internalType": "uint256",
                    "name": "",
                    "type": "uint256"
                }
            ],
            "stateMutability": "view",
            "type": "function"
        },
        {
            "inputs": [
                {
                    "internalType": "uint256",
                    "name": "priceExp",
                    "type": "uint256"
                },
                {
                    "internalType": "uint256",
                    "name": "amount",
                    "type": "uint256"
                }
            ],
            "name": "openLong",
            "outputs": [],
            "stateMutability": "nonpayable",
            "type": "function"
        },
        {
            "inputs": [
                {
                    "internalType": "uint256",
                    "name": "priceExp",
                    "type": "uint256"
                },
                {
                    "internalType": "uint256",
                    "name": "amount",
                    "type": "uint256"
                }
            ],
            "name": "openShort",
            "outputs": [],
            "stateMutability": "nonpayable",
            "type": "function"
        },
        {
            "inputs": [
                {
                    "internalType": "address",
                    "name": "owner",
                    "type": "address"
                },
                {
                    "internalType": "address",
                    "name": "spender",
                    "type": "address"
                },
                {
                    "internalType": "uint256",
                    "name": "value",
                    "type": "uint256"
                },
                {
                    "internalType": "uint256",
                    "name": "deadline",
                    "type": "uint256"
                },
                {
                    "internalType": "uint8",
                    "name": "v",
                    "type": "uint8"
                },
                {
                    "internalType": "bytes32",
                    "name": "r",
                    "type": "bytes32"
                },
                {
                    "internalType": "bytes32",
                    "name": "s",
                    "type": "bytes32"
                }
            ],
            "name": "permit",
            "outputs": [],
            "stateMutability": "nonpayable",
            "type": "function"
        },
        {
            "inputs": [],
            "name": "poolLongAmount",
            "outputs": [
                {
                    "internalType": "uint256",
                    "name": "",
                    "type": "uint256"
                }
            ],
            "stateMutability": "view",
            "type": "function"
        },
        {
            "inputs": [],
            "name": "poolLongPrice",
            "outputs": [
                {
                    "internalType": "uint256",
                    "name": "",
                    "type": "uint256"
                }
            ],
            "stateMutability": "view",
            "type": "function"
        },
        {
            "inputs": [],
            "name": "poolShortAmount",
            "outputs": [
                {
                    "internalType": "uint256",
                    "name": "",
                    "type": "uint256"
                }
            ],
            "stateMutability": "view",
            "type": "function"
        },
        {
            "inputs": [],
            "name": "poolShortPrice",
            "outputs": [
                {
                    "internalType": "uint256",
                    "name": "",
                    "type": "uint256"
                }
            ],
            "stateMutability": "view",
            "type": "function"
        },
        {
            "inputs": [
                {
                    "internalType": "uint256",
                    "name": "amount",
                    "type": "uint256"
                },
                {
                    "internalType": "uint256",
                    "name": "deadline",
                    "type": "uint256"
                }
            ],
            "name": "rechargeMargin",
            "outputs": [],
            "stateMutability": "nonpayable",
            "type": "function"
        },
        {
            "inputs": [
                {
                    "internalType": "uint256",
                    "name": "liquidity",
                    "type": "uint256"
                },
                {
                    "internalType": "address",
                    "name": "to",
                    "type": "address"
                },
                {
                    "internalType": "uint256",
                    "name": "deadline",
                    "type": "uint256"
                }
            ],
            "name": "removeLiquidity",
            "outputs": [],
            "stateMutability": "nonpayable",
            "type": "function"
        },
        {
            "inputs": [],
            "name": "sumFee",
            "outputs": [
                {
                    "internalType": "uint256",
                    "name": "",
                    "type": "uint256"
                }
            ],
            "stateMutability": "view",
            "type": "function"
        },
        {
            "inputs": [],
            "name": "symbol",
            "outputs": [
                {
                    "internalType": "string",
                    "name": "",
                    "type": "string"
                }
            ],
            "stateMutability": "view",
            "type": "function"
        },
        {
            "inputs": [],
            "name": "token0",
            "outputs": [
                {
                    "internalType": "address",
                    "name": "",
                    "type": "address"
                }
            ],
            "stateMutability": "view",
            "type": "function"
        },
        {
            "inputs": [],
            "name": "token0Decimal",
            "outputs": [
                {
                    "internalType": "uint256",
                    "name": "",
                    "type": "uint256"
                }
            ],
            "stateMutability": "view",
            "type": "function"
        },
        {
            "inputs": [],
            "name": "totalPool",
            "outputs": [
                {
                    "internalType": "int256",
                    "name": "",
                    "type": "int256"
                }
            ],
            "stateMutability": "view",
            "type": "function"
        },
        {
            "inputs": [],
            "name": "totalSupply",
            "outputs": [
                {
                    "internalType": "uint256",
                    "name": "",
                    "type": "uint256"
                }
            ],
            "stateMutability": "view",
            "type": "function"
        },
        {
            "inputs": [
                {
                    "internalType": "address",
                    "name": "",
                    "type": "address"
                }
            ],
            "name": "traders",
            "outputs": [
                {
                    "internalType": "int256",
                    "name": "margin",
                    "type": "int256"
                },
                {
                    "internalType": "uint256",
                    "name": "longAmount",
                    "type": "uint256"
                },
                {
                    "internalType": "uint256",
                    "name": "longPrice",
                    "type": "uint256"
                },
                {
                    "internalType": "uint256",
                    "name": "shortAmount",
                    "type": "uint256"
                },
                {
                    "internalType": "uint256",
                    "name": "shortPrice",
                    "type": "uint256"
                }
            ],
            "stateMutability": "view",
            "type": "function"
        },
        {
            "inputs": [
                {
                    "internalType": "address",
                    "name": "to",
                    "type": "address"
                },
                {
                    "internalType": "uint256",
                    "name": "value",
                    "type": "uint256"
                }
            ],
            "name": "transfer",
            "outputs": [
                {
                    "internalType": "bool",
                    "name": "",
                    "type": "bool"
                }
            ],
            "stateMutability": "nonpayable",
            "type": "function"
        },
        {
            "inputs": [
                {
                    "internalType": "address",
                    "name": "from",
                    "type": "address"
                },
                {
                    "internalType": "address",
                    "name": "to",
                    "type": "address"
                },
                {
                    "internalType": "uint256",
                    "name": "value",
                    "type": "uint256"
                }
            ],
            "name": "transferFrom",
            "outputs": [
                {
                    "internalType": "bool",
                    "name": "",
                    "type": "bool"
                }
            ],
            "stateMutability": "nonpayable",
            "type": "function"
        },
        {
            "inputs": [
                {
                    "internalType": "uint256",
                    "name": "amount",
                    "type": "uint256"
                },
                {
                    "internalType": "uint256",
                    "name": "deadline",
                    "type": "uint256"
                }
            ],
            "name": "withdrawMargin",
            "outputs": [],
            "stateMutability": "nonpayable",
            "type": "function"
        }
    ],
    "bytecode": "6101a06040523480156200001257600080fd5b5060405162003196380380620031968339810160408190526200003591620002a8565b856001600160a01b031663313ce5676040518163ffffffff1660e01b815260040160206040518083038186803b1580156200006f57600080fd5b505afa15801562000084573d6000803e3d6000fd5b505050506040513d601f19601f82011682018060405250810190620000aa919062000320565b604080518082018252600c81526b48656467657853696e676c6560a01b6020918201528151808301835260018152603160f81b9082015281517f8b73c3c69bb8fe3d512ecc4cf759cc79239f7b179b0ffacaa9a75d522b39400f918101919091527fdbb8f54117374490c454ab41b80d95cf4a0c3b286124d9b83e346d854dc3efcd918101919091527fc89efdaa54c0f20c7adf612882df0950f5a951637e0307cdcb4c672f298b8bc660608201524660808201523060a082015260c00160408051808303601f19018152828252805160209182012060a05260f89390931b6001600160f81b031916608052606088811b6001600160601b031990811661016052908a901b166101005263313ce56760e01b8252516001600160a01b0389169263313ce5679260048082019391829003018186803b158015620001ec57600080fd5b505afa15801562000201573d6000803e3d6000fd5b505050506040513d601f19601f8201168201806040525081019062000227919062000320565b6200023490600a6200038e565b610120526101809390935260c0919091526001600160f81b031960f891821b1660e0526004805461ffff19169055600091820b90910b901b6101405250620004659050565b80516001600160a01b03811681146200029157600080fd5b919050565b805160ff811681146200029157600080fd5b60008060008060008060c08789031215620002c257600080fd5b620002cd8762000279565b9550620002dd6020880162000279565b94506040870151935060608701519250620002fb6080880162000296565b915060a08701518060000b81146200031257600080fd5b809150509295509295509295565b6000602082840312156200033357600080fd5b6200033e8262000296565b9392505050565b600181815b80851115620003865781600019048211156200036a576200036a6200044f565b808516156200037857918102915b93841c93908002906200034a565b509250929050565b60006200033e60ff841683600082620003aa5750600162000449565b81620003b95750600062000449565b8160018114620003d25760028114620003dd57620003fd565b600191505062000449565b60ff841115620003f157620003f16200044f565b50506001821b62000449565b5060208310610133831016604e8410600b841016171562000422575081810a62000449565b6200042e838362000345565b80600019048211156200044557620004456200044f565b0290505b92915050565b634e487b7160e01b600052601160045260246000fd5b60805160f81c60a05160c05160e05160f81c6101005160601c610120516101405160f81c6101605160601c61018051612c25620005716000396000818161029e0152818161114701526111d701526000818161061601526110240152600081816103960152818161111e0152818161116b01526111fb0152600081816105ef01528181611196015261122f0152600081816102f601528181610b1401528181610d1801528181610fd5015281816112840152818161170a0152611ba10152600081816103d0015281816109c1015281816115ce01528181611e280152611e7e01526000818161036f01526112fd01526000818161045701526117c0015260006104300152612c256000f3fe608060405234801561001057600080fd5b50600436106102535760003560e01c80637ecebe00116101465780639ddc230a116100c3578063d505accf11610087578063d505accf14610671578063dd62ed3e14610684578063ddcb04c2146106af578063e5984319146106c2578063ecfb49a3146106cb578063f69d91ae146106d457600080fd5b80639ddc230a146105ea578063a04eecae14610611578063a9059cbb14610638578063c181d4181461064b578063c4ccdeea1461065e57600080fd5b806392a88fa21161010a57806392a88fa21461053d57806395d89b41146105a2578063971059fb146105c5578063994af3ae146105ce5780639aa5d462146105d757600080fd5b80637ecebe00146104ec57806389d408ff1461050c5780638a55d36e1461051f5780638e15f4731461052c5780638e4068921461053457600080fd5b80632c86d98e116101d4578063416c569011610198578063416c56901461048c57806344b5f7841461049f5780634f335d0a146104b257806370a08231146104c45780637bb71a97146104e457600080fd5b80632c86d98e146103cb57806330adf81f14610404578063313ce5671461042b5780633644e515146104525780633bad4bbb1461047957600080fd5b806318160ddd1161021b57806318160ddd14610345578063190b065f1461034e57806323b872dd146103575780632678b8fd1461036a5780632be902821461039157600080fd5b806306fdde031461025857806308c73e7414610299578063095ea7b3146102ce5780630dfe1681146102f15780631266a61914610330575b600080fd5b6102836040518060400160405280600c81526020016b48656467657853696e676c6560a01b81525081565b6040516102909190612889565b60405180910390f35b6102c07f000000000000000000000000000000000000000000000000000000000000000081565b604051908152602001610290565b6102e16102dc36600461278a565b6106e7565b6040519015158152602001610290565b6103187f000000000000000000000000000000000000000000000000000000000000000081565b6040516001600160a01b039091168152602001610290565b61034361033e3660046127fb565b6106fe565b005b6102c060005481565b6102c060055481565b6102e16103653660046126db565b6108ce565b6102c07f000000000000000000000000000000000000000000000000000000000000000081565b6103b87f000000000000000000000000000000000000000000000000000000000000000081565b60405160009190910b8152602001610290565b6103f27f000000000000000000000000000000000000000000000000000000000000000081565b60405160ff9091168152602001610290565b6102c07f6e71edae12b1b97f4d1f60370fef10105fa2faae0126114a169c64845d6126c981565b6103f27f000000000000000000000000000000000000000000000000000000000000000081565b6102c07f000000000000000000000000000000000000000000000000000000000000000081565b6103436104873660046127fb565b610948565b61034361049a3660046127fb565b610b7a565b6103436104ad3660046127fb565b610cf2565b6004546102e190610100900460ff1681565b6102c06104d236600461268d565b60016020526000908152604090205481565b6102c0610d9d565b6102c06104fa36600461268d565b60036020526000908152604090205481565b61034361051a3660046126a8565b610e5c565b6004546102e19060ff1681565b6102c061101f565b6102c060085481565b61057a61054b36600461268d565b600b60205260009081526040902080546001820154600283015460038401546004909401549293919290919085565b604080519586526020860194909452928401919091526060830152608082015260a001610290565b610283604051806040016040528060048152602001634845585360e01b81525081565b6102c0600a5481565b6102c060095481565b6103436105e53660046127d6565b61125e565b6102c07f000000000000000000000000000000000000000000000000000000000000000081565b6103187f000000000000000000000000000000000000000000000000000000000000000081565b6102e161064636600461278a565b611376565b6103436106593660046127fb565b611383565b61034361066c3660046127d6565b61154d565b61034361067f366004612717565b611762565b6102c06106923660046126a8565b600260209081526000928352604080842090915290825290205481565b6103436106bd3660046126a8565b61198e565b6102c060075481565b6102c060065481565b6103436106e23660046127fb565b611bd1565b60006106f4338484611d4b565b5060015b92915050565b600061070861101f565b90508281101561075f5760405162461bcd60e51b815260206004820152601b60248201527f6f70656e2073686f727420707269636520697320746f6f206c6f77000000000060448201526064015b60405180910390fd5b336000908152600b60209081526040808320815160a0810183528154815260018201549381019390935260028101549183019190915260038101546060830152600401546080820152906107b38385612ad9565b905060006107c2838584611dad565b90508483606001516107d4919061292c565b336000908152600b602052604090206003015560608301516107f790869061292c565b828460800151856060015161080c9190612ad9565b610816919061292c565b6108209190612944565b336000908152600b60205260409020600401558251610840908290612af8565b336000908152600b602052604090205560075461085d868261292c565b60075561086a868261292c565b83600954836108799190612ad9565b610883919061292c565b61088d9190612944565b60095561089982611f8a565b604080516000198152602081018890523391600080516020612bd083398151915291015b60405180910390a250505050505050565b6001600160a01b038316600090815260026020908152604080832033845290915281205460001914610933576001600160a01b03841660009081526002602090815260408083203384529091528120805484929061092d908490612b37565b90915550505b61093e848484612011565b5060019392505050565b80428110156109695760405162461bcd60e51b8152600401610756906128bc565b336000908152600b60209081526040808320815160a0810183528154815260018201549381019390935260028101549183019190915260038101546060830152600401546080820152906109bb61101f565b905060007f000000000000000000000000000000000000000000000000000000000000000060ff1682846060015185602001516109f8919061292c565b610a029190612ad9565b610a0c9190612944565b90506000828460600151610a209190612ad9565b84604001518560200151610a349190612ad9565b610a3e919061292c565b84608001518560600151610a529190612ad9565b848660200151610a629190612ad9565b610a6c919061292c565b8551610a7891906128eb565b610a829190612af8565b90506000610a908383612af8565b905060008113610ae25760405162461bcd60e51b815260206004820152601860248201527f63616e207769746864726177206973206e6567617469766500000000000000006044820152606401610756565b8781811315610aee5750805b8551610afb908290612af8565b336000818152600b6020526040902091909155610b3a907f000000000000000000000000000000000000000000000000000000000000000090836120b2565b60405181815233907f884edad9ce6fa2440d8a54cc123490eb96d2768479d49ff9c7366125a94243649060200160405180910390a2505050505050505050565b6000610b8461101f565b905082811015610bd65760405162461bcd60e51b815260206004820152601960248201527f636c6f7365206c6f6e67207072696365206973206c6f776572000000000000006044820152606401610756565b336000908152600b60209081526040808320815160a081018352815481526001820154938101849052600282015492810192909252600381015460608301526004015460808201529190610c2d90849086906121c6565b90506000826040015184610c419190612af8565b610c4b9086612a54565b9050848360200151610c5d9190612b37565b336000908152600b602052604090206001015582518290610c7f9083906128eb565b610c899190612af8565b336000908152600b602052604081209190915560088054879290610cae908490612b37565b90915550610cbe905082826122b0565b604080516000198152602081018790523391600080516020612bd083398151915291015b60405180910390a2505050505050565b8042811015610d135760405162461bcd60e51b8152600401610756906128bc565b610d3f7f000000000000000000000000000000000000000000000000000000000000000033308661234c565b336000908152600b602052604081208054859290610d5e9084906128eb565b909155505060405183815233907f78d9de6f3ad1cae9e0cbcbaa5267fd90f6a6728831eec42b7c147b398b2269249060200160405180910390a2505050565b600080610da861101f565b9050600081600854610dba9190612ad9565b600954600754610dca9190612ad9565b610dd4919061292c565b600a54600854610de49190612ad9565b83600754610df29190612ad9565b610dfc919061292c565b600654610e0991906128eb565b610e139190612af8565b9050600081136106f85760405162461bcd60e51b81526020600482015260146024820152733732ba103732b2b2103132903837b9b4ba34b7b760611b6044820152606401610756565b6001600160a01b0382166000908152600b60209081526040808320815160a0810183528154815260018201549381019390935260028101549183019190915260038101546060830181905260049091015460808301819052919291601e91610ec49190612ad9565b83604001518460200151610ed89190612ad9565b610ee2919061292c565b610eec9190612944565b90506000610ef98361247c565b905081811315610f445760405162461bcd60e51b815260206004820152601660248201527510d85b9d081b9bdd08189948195e1c1b1bdcda5d995960521b6044820152606401610756565b6001600160a01b0385166000908152600b6020908152604082208281556001810183905560028101839055600381018390556004019190915583015115610fa157826020015160086000828254610f9b9190612b37565b90915550505b606083015115610fc757826060015160076000828254610fc19190612b37565b90915550505b600081131561100057610ffb7f000000000000000000000000000000000000000000000000000000000000000085836120b2565b611018565b806006600082825461101291906128eb565b90915550505b5050505050565b6000807f00000000000000000000000000000000000000000000000000000000000000006001600160a01b031663feaf968c6040518163ffffffff1660e01b815260040160a06040518083038186803b15801561107b57600080fd5b505afa15801561108f573d6000803e3d6000fd5b505050506040513d601f19601f820116820180604052508101906110b3919061281d565b5050509150506000811361111a5760405162461bcd60e51b815260206004820152602860248201527f7468652070616972207374616e64617264207072696365206d75737420626520604482015267706f73697469766560c01b6064820152608401610756565b60007f000000000000000000000000000000000000000000000000000000000000000060000b126111d5577f00000000000000000000000000000000000000000000000000000000000000006111917f0000000000000000000000000000000000000000000000000000000000000000600a6129a9565b6111bb7f000000000000000000000000000000000000000000000000000000000000000084612ad9565b6111c59190612ad9565b6111cf9190612944565b91505090565b7f000000000000000000000000000000000000000000000000000000000000000061121f7f0000000000000000000000000000000000000000000000000000000000000000612b99565b61122a90600a6129a9565b6112547f000000000000000000000000000000000000000000000000000000000000000084612ad9565b6111c59190612944565b804281101561127f5760405162461bcd60e51b8152600401610756906128bc565b6112ab7f000000000000000000000000000000000000000000000000000000000000000033308761234c565b600454849060ff16156112e15760006112c2610d9d565b905080866000546112d39190612ad9565b6112dd9190612944565b9150505b84600660008282546112f391906128eb565b90915550506006547f00000000000000000000000000000000000000000000000000000000000000001361132f576004805460ff191660011790555b6113398482612502565b60405181815233907f0f6798a560793a54c3bcfe86a93cde1e73087d944c0ea20544137d4121396885906020015b60405180910390a25050505050565b60006106f4338484612011565b600061138d61101f565b9050828111158061139c575082155b6113e85760405162461bcd60e51b815260206004820152601b60248201527f6f70656e206c6f6e6720707269636520697320746f6f206869676800000000006044820152606401610756565b336000908152600b60209081526040808320815160a08101835281548152600182015493810193909352600281015491830191909152600381015460608301526004015460808201529061143c8385612ad9565b9050600061144b838584611dad565b905084836020015161145d919061292c565b336000908152600b602090815260409091206001019190915583015161148490869061292c565b82846040015185602001516114999190612ad9565b6114a3919061292c565b6114ad9190612944565b336000908152600b602052604090206002015582516114cd908290612af8565b336000908152600b60205260409020556008546114ea868261292c565b6008556114f7868261292c565b83600a54836115069190612ad9565b611510919061292c565b61151a9190612944565b600a5561152682611f8a565b6040805160018152602081018890523391600080516020612bd083398151915291016108bd565b804281101561156e5760405162461bcd60e51b8152600401610756906128bc565b600454849060ff16156116e357600061158561101f565b905060006115928261258b565b90506000600854600754116115b6576007546008546115b19190612b37565b6115c6565b6008546007546115c69190612b37565b9050600060ff7f0000000000000000000000000000000000000000000000000000000000000000166115f88584612ad9565b6116029190612944565b905080831361164a5760405162461bcd60e51b81526020600482015260146024820152733732ba103732b2b2103132903837b9b4ba34b7b760611b6044820152606401610756565b60006116568285612b37565b90506000611665600a86612944565b905080821115611673578091505b6000546116808c87612ad9565b61168a9190612944565b9650818711156116dc5760405162461bcd60e51b815260206004820152601860248201527f776974686472617720616d6f756e7420746f6f206d75636800000000000000006044820152606401610756565b5050505050505b80600660008282546116f59190612af8565b90915550611705905033866125d4565b6117307f000000000000000000000000000000000000000000000000000000000000000085836120b2565b60405185815233907fcc16f5dbb4873280815c1ee09dbd06736cffcc184412cf7a71a0fdb75d397ca590602001611367565b428410156117a45760405162461bcd60e51b815260206004820152600f60248201526e12195919d95e0e8811561412549151608a1b6044820152606401610756565b6001600160a01b038716600090815260036020526040812080547f0000000000000000000000000000000000000000000000000000000000000000917f6e71edae12b1b97f4d1f60370fef10105fa2faae0126114a169c64845d6126c9918b918b918b918761181283612b7e565b909155506040805160208101969096526001600160a01b0394851690860152929091166060840152608083015260a082015260c0810187905260e0016040516020818303038152906040528051906020012060405160200161188b92919061190160f01b81526002810192909252602282015260420190565b60408051601f198184030181528282528051602091820120600080855291840180845281905260ff88169284019290925260608301869052608083018590529092509060019060a0016020604051602081039080840390855afa1580156118f6573d6000803e3d6000fd5b5050604051601f1901519150506001600160a01b0381161580159061192c5750886001600160a01b0316816001600160a01b0316145b6119785760405162461bcd60e51b815260206004820152601960248201527f4865646765783a20494e56414c49445f5349474e4154555245000000000000006044820152606401610756565b611983898989611d4b565b505050505050505050565b600061199861101f565b6001600160a01b0384166000908152600b602052604090206003810154600182015492935090911415611a0d5760405162461bcd60e51b815260206004820152601d60248201527f6e656564206c6f6e6720616e642073686f7274206e6f7420657175616c0000006044820152606401610756565b600854600754600383015460018401546000911015611ab757818311611a685760405162461bcd60e51b815260206004820152601060248201526f1a185d99481b9bc81a5b9d195c995cdd60821b6044820152606401610756565b82612710611a768483612b37565b6001870154600a90611a88908a612ad9565b611a929190612ad9565b611a9c9190612ad9565b611aa69190612944565b611ab09190612944565b9050611b44565b828211611af95760405162461bcd60e51b815260206004820152601060248201526f1a185d99481b9bc81a5b9d195c995cdd60821b6044820152606401610756565b81612710611b078583612b37565b6003870154600a90611b19908a612ad9565b611b239190612ad9565b611b2d9190612ad9565b611b379190612944565b611b419190612944565b90505b6000612710611b556103e884612ad9565b611b5f9190612944565b905081856000016000828254611b759190612af8565b90915550611b8590508183612af8565b60066000828254611b9691906128eb565b90915550611bc790507f000000000000000000000000000000000000000000000000000000000000000088836120b2565b5050505050505050565b6000611bdb61101f565b90508281111580611bea575082155b611c365760405162461bcd60e51b815260206004820152601b60248201527f636c6f73652073686f72742070726963652069732068696768657200000000006044820152606401610756565b336000908152600b60209081526040808320815160a081018352815481526001820154938101939093526002810154918301919091526003810154606083018190526004909101546080830152909190611c9390849086906121c6565b90506000838360800151611ca79190612af8565b611cb19086612a54565b9050848360600151611cc39190612b37565b336000908152600b602052604090206003015582518290611ce59083906128eb565b611cef9190612af8565b336000908152600b602052604081209190915560078054879290611d14908490612b37565b90915550611d24905082826122b0565b6040805160018152602081018790523391600080516020612bd08339815191529101610ce2565b6001600160a01b0383811660008181526002602090815260408083209487168084529482529182902085905590518481527f8c5be1e5ebec7d5bd14f71427d1e84f3dd0314c0f7b2291e5b200ac8c7c3b92591015b60405180910390a3505050565b600080838560600151611dc09190612ad9565b85604001518660200151611dd49190612ad9565b611dde919061292c565b85608001518660600151611df29190612ad9565b858760200151611e029190612ad9565b611e0c919061292c565b8651611e1891906128eb565b611e229190612af8565b905060007f000000000000000000000000000000000000000000000000000000000000000060ff168587606001518860200151611e5f919061292c565b611e699190612ad9565b611e739190612944565b90506000611ea460ff7f00000000000000000000000000000000000000000000000000000000000000001686612944565b90506000612710611eb6601e88612ad9565b611ec09190612944565b9050600081611ecf8587612af8565b611ed99190612af8565b905060008113611f375760405162461bcd60e51b815260206004820152602360248201527f6c656674206d617267696e20697320657175616c206f72206c6573732074686160448201526206e20360ec1b6064820152608401610756565b82811015611f7e5760405162461bcd60e51b81526020600482015260146024820152730dac2e4ced2dc40d2e640dcdee840cadcdeeaced60631b6044820152606401610756565b50979650505050505050565b600454610100900460ff1615611ff6576000612710611fab6105dc84612ad9565b611fb59190612944565b90508060056000828254611fc9919061292c565b90915550611fd990508183612af8565b60066000828254611fea91906128eb565b9091555061200e915050565b806006600082825461200891906128eb565b90915550505b50565b6001600160a01b03831660009081526001602052604081208054839290612039908490612b37565b90915550506001600160a01b0382166000908152600160205260408120805483929061206690849061292c565b92505081905550816001600160a01b0316836001600160a01b03167fddf252ad1be2c89b69c2b068fc378daa952ba7f163c4a11628f55a4df523b3ef83604051611da091815260200190565b604080516001600160a01b038481166024830152604480830185905283518084039091018152606490920183526020820180516001600160e01b031663a9059cbb60e01b179052915160009283929087169161210e919061286d565b6000604051808303816000865af19150503d806000811461214b576040519150601f19603f3d011682016040523d82523d6000602084013e612150565b606091505b509150915081801561217a57508051158061217a57508080602001905181019061217a91906127b4565b6110185760405162461bcd60e51b815260206004820152601f60248201527f5472616e7366657248656c7065723a205452414e534645525f4641494c4544006044820152606401610756565b6000806121d28561258b565b9050846127106121e461012c84612ad9565b6121ee9190612944565b6121f89190612944565b84111561223e5760405162461bcd60e51b8152602060048201526014602482015273616d6f756e74206f766572206e65742a7261746560601b6044820152606401610756565b828411156122845760405162461bcd60e51b81526020600482015260136024820152720e0dee6d2e8d2dedc40dcdee840cadcdeeaced606b1b6044820152606401610756565b612710601e6122938787612ad9565b61229d9190612ad9565b6122a79190612944565b95945050505050565b600454610100900460ff16156123275760006127106122d16105dc85612ad9565b6122db9190612944565b905080600560008282546122ef919061292c565b909155508290506123008285612af8565b61230a9190612af8565b6006600082825461231b91906128eb565b90915550612348915050565b6123318183612af8565b6006600082825461234291906128eb565b90915550505b5050565b604080516001600160a01b0385811660248301528481166044830152606480830185905283518084039091018152608490920183526020820180516001600160e01b03166323b872dd60e01b17905291516000928392908816916123b0919061286d565b6000604051808303816000865af19150503d80600081146123ed576040519150601f19603f3d011682016040523d82523d6000602084013e6123f2565b606091505b509150915081801561241c57508051158061241c57508080602001905181019061241c91906127b4565b6124745760405162461bcd60e51b8152602060048201526024808201527f5472616e7366657248656c7065723a205452414e534645525f46524f4d5f46416044820152631253115160e21b6064820152608401610756565b505050505050565b60008061248761101f565b90508083606001516124999190612ad9565b836040015184602001516124ad9190612ad9565b6124b7919061292c565b836080015184606001516124cb9190612ad9565b8285602001516124db9190612ad9565b6124e5919061292c565b84516124f191906128eb565b6124fb9190612af8565b9392505050565b80600080828254612513919061292c565b90915550506001600160a01b0382166000908152600160205260408120805483929061254090849061292c565b90915550506040518181526001600160a01b038316906000907fddf252ad1be2c89b69c2b068fc378daa952ba7f163c4a11628f55a4df523b3ef906020015b60405180910390a35050565b6000808260085461259c9190612ad9565b6009546007546125ac9190612ad9565b6125b6919061292c565b600a546008546125c69190612ad9565b84600754610df29190612ad9565b6001600160a01b038216600090815260016020526040812080548392906125fc908490612b37565b92505081905550806000808282546126149190612b37565b90915550506040518181526000906001600160a01b038416907fddf252ad1be2c89b69c2b068fc378daa952ba7f163c4a11628f55a4df523b3ef9060200161257f565b80356001600160a01b038116811461266e57600080fd5b919050565b805169ffffffffffffffffffff8116811461266e57600080fd5b60006020828403121561269f57600080fd5b6124fb82612657565b600080604083850312156126bb57600080fd5b6126c483612657565b91506126d260208401612657565b90509250929050565b6000806000606084860312156126f057600080fd5b6126f984612657565b925061270760208501612657565b9150604084013590509250925092565b600080600080600080600060e0888a03121561273257600080fd5b61273b88612657565b965061274960208901612657565b95506040880135945060608801359350608088013560ff8116811461276d57600080fd5b9699959850939692959460a0840135945060c09093013592915050565b6000806040838503121561279d57600080fd5b6127a683612657565b946020939093013593505050565b6000602082840312156127c657600080fd5b815180151581146124fb57600080fd5b6000806000606084860312156127eb57600080fd5b8335925061270760208501612657565b6000806040838503121561280e57600080fd5b50508035926020909101359150565b600080600080600060a0868803121561283557600080fd5b61283e86612673565b945060208601519350604086015192506060860151915061286160808701612673565b90509295509295909350565b6000825161287f818460208701612b4e565b9190910192915050565b60208152600082518060208401526128a8816040850160208701612b4e565b601f01601f19169190910160400192915050565b60208082526015908201527412195919d95e14da5b99db194e8811561412549151605a1b604082015260600190565b600080821280156001600160ff1b038490038513161561290d5761290d612bb9565b600160ff1b839003841281161561292657612926612bb9565b50500190565b6000821982111561293f5761293f612bb9565b500190565b60008261296157634e487b7160e01b600052601260045260246000fd5b500490565b600181815b808511156129a157816000190482111561298757612987612bb9565b8085161561299457918102915b93841c939080029061296b565b509250929050565b60006124fb60ff8416836000826129c2575060016106f8565b816129cf575060006106f8565b81600181146129e557600281146129ef57612a0b565b60019150506106f8565b60ff841115612a0057612a00612bb9565b50506001821b6106f8565b5060208310610133831016604e8410600b8410161715612a2e575081810a6106f8565b612a388383612966565b8060001904821115612a4c57612a4c612bb9565b029392505050565b60006001600160ff1b0381841382841380821686840486111615612a7a57612a7a612bb9565b600160ff1b6000871282811687830589121615612a9957612a99612bb9565b60008712925087820587128484161615612ab557612ab5612bb9565b87850587128184161615612acb57612acb612bb9565b505050929093029392505050565b6000816000190483118215151615612af357612af3612bb9565b500290565b60008083128015600160ff1b850184121615612b1657612b16612bb9565b6001600160ff1b0384018313811615612b3157612b31612bb9565b50500390565b600082821015612b4957612b49612bb9565b500390565b60005b83811015612b69578181015183820152602001612b51565b83811115612b78576000848401525b50505050565b6000600019821415612b9257612b92612bb9565b5060010190565b600081810b607f19811415612bb057612bb0612bb9565b60000392915050565b634e487b7160e01b600052601160045260246000fdfef969c87f3a20eddd8b06736bfcc49f8ead47cabb4f70b4d49b77022500076143a264697066735822122080eee57e5fd574a549a3300fc0e8876199a1d077b5a34e35317d183caf96e47364736f6c63430008070033",
    "sourcePath": "d:/contract/hedgex/Single.sol",
    "compiler": {
        "name": "solc",
        "version": "0.8.7+commit.e28d00a7"
    },
    "functionHashes": {
        "DOMAIN_SEPARATOR()": "3644e515",
        "PERMIT_TYPEHASH()": "30adf81f",
        "addLiquidity(uint256,address,uint256)": "9aa5d462",
        "allowance(address,address)": "dd62ed3e",
        "amountDecimal()": "2be90282",
        "approve(address,uint256)": "095ea7b3",
        "balanceOf(address)": "70a08231",
        "closeLong(uint256,uint256)": "416c5690",
        "closeShort(uint256,uint256)": "f69d91ae",
        "decimals()": "313ce567",
        "detectSlide(address,address)": "ddcb04c2",
        "explosive(address,address)": "89d408ff",
        "feeOn()": "4f335d0a",
        "feedPrice()": "a04eecae",
        "feedPriceDecimal()": "08c73e74",
        "getLatestPrice()": "8e15f473",
        "getPoolNet()": "7bb71a97",
        "isStart()": "8a55d36e",
        "leverage()": "2c86d98e",
        "minPool()": "2678b8fd",
        "name()": "06fdde03",
        "nonces(address)": "7ecebe00",
        "openLong(uint256,uint256)": "c181d418",
        "openShort(uint256,uint256)": "1266a619",
        "permit(address,address,uint256,uint256,uint8,bytes32,bytes32)": "d505accf",
        "poolLongAmount()": "e5984319",
        "poolLongPrice()": "994af3ae",
        "poolShortAmount()": "8e406892",
        "poolShortPrice()": "971059fb",
        "rechargeMargin(uint256,uint256)": "44b5f784",
        "removeLiquidity(uint256,address,uint256)": "c4ccdeea",
        "sumFee()": "190b065f",
        "symbol()": "95d89b41",
        "token0()": "0dfe1681",
        "token0Decimal()": "9ddc230a",
        "totalPool()": "ecfb49a3",
        "totalSupply()": "18160ddd",
        "traders(address)": "92a88fa2",
        "transfer(address,uint256)": "a9059cbb",
        "transferFrom(address,address,uint256)": "23b872dd",
        "withdrawMargin(uint256,uint256)": "3bad4bbb"
    },
    "gasEstimates": {
        "creation": {
            "codeDepositCost": "2260200",
            "executionCost": "infinite",
            "totalCost": "infinite"
        },
        "external": {
            "DOMAIN_SEPARATOR()": "infinite",
            "PERMIT_TYPEHASH()": "263",
            "addLiquidity(uint256,address,uint256)": "infinite",
            "allowance(address,address)": "infinite",
            "amountDecimal()": "infinite",
            "approve(address,uint256)": "24619",
            "balanceOf(address)": "2630",
            "closeLong(uint256,uint256)": "infinite",
            "closeShort(uint256,uint256)": "infinite",
            "decimals()": "infinite",
            "detectSlide(address,address)": "infinite",
            "explosive(address,address)": "infinite",
            "feeOn()": "2410",
            "feedPrice()": "infinite",
            "feedPriceDecimal()": "infinite",
            "getLatestPrice()": "infinite",
            "getPoolNet()": "infinite",
            "isStart()": "2400",
            "leverage()": "infinite",
            "minPool()": "infinite",
            "name()": "infinite",
            "nonces(address)": "2565",
            "openLong(uint256,uint256)": "infinite",
            "openShort(uint256,uint256)": "infinite",
            "permit(address,address,uint256,uint256,uint8,bytes32,bytes32)": "infinite",
            "poolLongAmount()": "2405",
            "poolLongPrice()": "2406",
            "poolShortAmount()": "2429",
            "poolShortPrice()": "2384",
            "rechargeMargin(uint256,uint256)": "infinite",
            "removeLiquidity(uint256,address,uint256)": "infinite",
            "sumFee()": "2363",
            "symbol()": "infinite",
            "token0()": "infinite",
            "token0Decimal()": "infinite",
            "totalPool()": "2427",
            "totalSupply()": "2341",
            "traders(address)": "11108",
            "transfer(address,uint256)": "51162",
            "transferFrom(address,address,uint256)": "infinite",
            "withdrawMargin(uint256,uint256)": "infinite"
        },
        "internal": {
            "feeCharge(uint256)": "51151",
            "feeCharge(uint256,int256)": "infinite",
            "getAccountNet(struct HedgexSingle.Trader memory)": "infinite",
            "getAccountNet(struct HedgexSingle.Trader memory,uint256)": "infinite",
            "getPoolNet(uint256)": "infinite",
            "judegOpen(struct HedgexSingle.Trader memory,uint256,uint256)": "infinite",
            "judgeClose(uint256,uint256,uint256)": "infinite"
        }
    }
}