{
    "contractName": "HedgexSingle",
    "abi": [
        {
            "inputs": [
                {
                    "internalType": "address",
                    "name": "_token0",
                    "type": "address"
                },
                {
                    "internalType": "address",
                    "name": "_feedPrice",
                    "type": "address"
                },
                {
                    "internalType": "uint256",
                    "name": "_feedPriceDecimal",
                    "type": "uint256"
                },
                {
                    "internalType": "uint256",
                    "name": "_minStartPool",
                    "type": "uint256"
                },
                {
                    "internalType": "uint8",
                    "name": "_leverage",
                    "type": "uint8"
                },
                {
                    "internalType": "int8",
                    "name": "_amountDecimal",
                    "type": "int8"
                }
            ],
            "stateMutability": "nonpayable",
            "type": "constructor"
        },
        {
            "anonymous": false,
            "inputs": [
                {
                    "indexed": true,
                    "internalType": "address",
                    "name": "owner",
                    "type": "address"
                },
                {
                    "indexed": true,
                    "internalType": "address",
                    "name": "spender",
                    "type": "address"
                },
                {
                    "indexed": false,
                    "internalType": "uint256",
                    "name": "value",
                    "type": "uint256"
                }
            ],
            "name": "Approval",
            "type": "event"
        },
        {
            "anonymous": false,
            "inputs": [
                {
                    "indexed": true,
                    "internalType": "address",
                    "name": "sender",
                    "type": "address"
                },
                {
                    "indexed": false,
                    "internalType": "uint256",
                    "name": "amount",
                    "type": "uint256"
                }
            ],
            "name": "Burn",
            "type": "event"
        },
        {
            "anonymous": false,
            "inputs": [
                {
                    "indexed": true,
                    "internalType": "address",
                    "name": "user",
                    "type": "address"
                },
                {
                    "indexed": false,
                    "internalType": "uint256",
                    "name": "amount",
                    "type": "uint256"
                },
                {
                    "indexed": false,
                    "internalType": "uint256",
                    "name": "price",
                    "type": "uint256"
                }
            ],
            "name": "Explosive",
            "type": "event"
        },
        {
            "anonymous": false,
            "inputs": [
                {
                    "indexed": true,
                    "internalType": "address",
                    "name": "sender",
                    "type": "address"
                },
                {
                    "indexed": false,
                    "internalType": "uint256",
                    "name": "amount",
                    "type": "uint256"
                }
            ],
            "name": "Mint",
            "type": "event"
        },
        {
            "anonymous": false,
            "inputs": [
                {
                    "indexed": true,
                    "internalType": "address",
                    "name": "sender",
                    "type": "address"
                },
                {
                    "indexed": false,
                    "internalType": "uint256",
                    "name": "amount",
                    "type": "uint256"
                }
            ],
            "name": "Recharge",
            "type": "event"
        },
        {
            "anonymous": false,
            "inputs": [
                {
                    "indexed": true,
                    "internalType": "address",
                    "name": "user",
                    "type": "address"
                },
                {
                    "indexed": false,
                    "internalType": "uint256",
                    "name": "amount",
                    "type": "uint256"
                },
                {
                    "indexed": false,
                    "internalType": "uint256",
                    "name": "price",
                    "type": "uint256"
                }
            ],
            "name": "TakeInterest",
            "type": "event"
        },
        {
            "anonymous": false,
            "inputs": [
                {
                    "indexed": true,
                    "internalType": "address",
                    "name": "sender",
                    "type": "address"
                },
                {
                    "indexed": false,
                    "internalType": "int8",
                    "name": "direction",
                    "type": "int8"
                },
                {
                    "indexed": false,
                    "internalType": "uint256",
                    "name": "amount",
                    "type": "uint256"
                },
                {
                    "indexed": false,
                    "internalType": "uint256",
                    "name": "price",
                    "type": "uint256"
                }
            ],
            "name": "Trade",
            "type": "event"
        },
        {
            "anonymous": false,
            "inputs": [
                {
                    "indexed": true,
                    "internalType": "address",
                    "name": "from",
                    "type": "address"
                },
                {
                    "indexed": true,
                    "internalType": "address",
                    "name": "to",
                    "type": "address"
                },
                {
                    "indexed": false,
                    "internalType": "uint256",
                    "name": "value",
                    "type": "uint256"
                }
            ],
            "name": "Transfer",
            "type": "event"
        },
        {
            "anonymous": false,
            "inputs": [
                {
                    "indexed": true,
                    "internalType": "address",
                    "name": "sender",
                    "type": "address"
                },
                {
                    "indexed": false,
                    "internalType": "uint256",
                    "name": "amount",
                    "type": "uint256"
                }
            ],
            "name": "Withdraw",
            "type": "event"
        },
        {
            "inputs": [],
            "name": "DOMAIN_SEPARATOR",
            "outputs": [
                {
                    "internalType": "bytes32",
                    "name": "",
                    "type": "bytes32"
                }
            ],
            "stateMutability": "view",
            "type": "function"
        },
        {
            "inputs": [],
            "name": "PERMIT_TYPEHASH",
            "outputs": [
                {
                    "internalType": "bytes32",
                    "name": "",
                    "type": "bytes32"
                }
            ],
            "stateMutability": "view",
            "type": "function"
        },
        {
            "inputs": [
                {
                    "internalType": "uint256",
                    "name": "amount",
                    "type": "uint256"
                },
                {
                    "internalType": "address",
                    "name": "to",
                    "type": "address"
                },
                {
                    "internalType": "uint256",
                    "name": "deadline",
                    "type": "uint256"
                }
            ],
            "name": "addLiquidity",
            "outputs": [],
            "stateMutability": "nonpayable",
            "type": "function"
        },
        {
            "inputs": [
                {
                    "internalType": "address",
                    "name": "",
                    "type": "address"
                },
                {
                    "internalType": "address",
                    "name": "",
                    "type": "address"
                }
            ],
            "name": "allowance",
            "outputs": [
                {
                    "internalType": "uint256",
                    "name": "",
                    "type": "uint256"
                }
            ],
            "stateMutability": "view",
            "type": "function"
        },
        {
            "inputs": [],
            "name": "amountDecimal",
            "outputs": [
                {
                    "internalType": "int8",
                    "name": "",
                    "type": "int8"
                }
            ],
            "stateMutability": "view",
            "type": "function"
        },
        {
            "inputs": [
                {
                    "internalType": "address",
                    "name": "spender",
                    "type": "address"
                },
                {
                    "internalType": "uint256",
                    "name": "value",
                    "type": "uint256"
                }
            ],
            "name": "approve",
            "outputs": [
                {
                    "internalType": "bool",
                    "name": "",
                    "type": "bool"
                }
            ],
            "stateMutability": "nonpayable",
            "type": "function"
        },
        {
            "inputs": [
                {
                    "internalType": "address",
                    "name": "",
                    "type": "address"
                }
            ],
            "name": "balanceOf",
            "outputs": [
                {
                    "internalType": "uint256",
                    "name": "",
                    "type": "uint256"
                }
            ],
            "stateMutability": "view",
            "type": "function"
        },
        {
            "inputs": [
                {
                    "internalType": "uint256",
                    "name": "priceExp",
                    "type": "uint256"
                },
                {
                    "internalType": "uint256",
                    "name": "amount",
                    "type": "uint256"
                }
            ],
            "name": "closeLong",
            "outputs": [],
            "stateMutability": "nonpayable",
            "type": "function"
        },
        {
            "inputs": [
                {
                    "internalType": "uint256",
                    "name": "priceExp",
                    "type": "uint256"
                },
                {
                    "internalType": "uint256",
                    "name": "amount",
                    "type": "uint256"
                }
            ],
            "name": "closeShort",
            "outputs": [],
            "stateMutability": "nonpayable",
            "type": "function"
        },
        {
            "inputs": [],
            "name": "decimals",
            "outputs": [
                {
                    "internalType": "uint8",
                    "name": "",
                    "type": "uint8"
                }
            ],
            "stateMutability": "view",
            "type": "function"
        },
        {
            "inputs": [
                {
                    "internalType": "address",
                    "name": "account",
                    "type": "address"
                },
                {
                    "internalType": "address",
                    "name": "to",
                    "type": "address"
                }
            ],
            "name": "detectSlide",
            "outputs": [],
            "stateMutability": "nonpayable",
            "type": "function"
        },
        {
            "inputs": [
                {
                    "internalType": "address",
                    "name": "account",
                    "type": "address"
                },
                {
                    "internalType": "address",
                    "name": "to",
                    "type": "address"
                }
            ],
            "name": "explosive",
            "outputs": [],
            "stateMutability": "nonpayable",
            "type": "function"
        },
        {
            "inputs": [],
            "name": "feeOn",
            "outputs": [
                {
                    "internalType": "bool",
                    "name": "",
                    "type": "bool"
                }
            ],
            "stateMutability": "view",
            "type": "function"
        },
        {
            "inputs": [],
            "name": "feedPrice",
            "outputs": [
                {
                    "internalType": "contract AggregatorV3Interface",
                    "name": "",
                    "type": "address"
                }
            ],
            "stateMutability": "view",
            "type": "function"
        },
        {
            "inputs": [],
            "name": "feedPriceDecimal",
            "outputs": [
                {
                    "internalType": "uint256",
                    "name": "",
                    "type": "uint256"
                }
            ],
            "stateMutability": "view",
            "type": "function"
        },
        {
            "inputs": [],
            "name": "getLatestPrice",
            "outputs": [
                {
                    "internalType": "uint256",
                    "name": "",
                    "type": "uint256"
                }
            ],
            "stateMutability": "view",
            "type": "function"
        },
        {
            "inputs": [],
            "name": "getPoolNet",
            "outputs": [
                {
                    "internalType": "int256",
                    "name": "",
                    "type": "int256"
                }
            ],
            "stateMutability": "view",
            "type": "function"
        },
        {
            "inputs": [],
            "name": "isStart",
            "outputs": [
                {
                    "internalType": "bool",
                    "name": "",
                    "type": "bool"
                }
            ],
            "stateMutability": "view",
            "type": "function"
        },
        {
            "inputs": [],
            "name": "leverage",
            "outputs": [
                {
                    "internalType": "uint8",
                    "name": "",
                    "type": "uint8"
                }
            ],
            "stateMutability": "view",
            "type": "function"
        },
        {
            "inputs": [],
            "name": "minPool",
            "outputs": [
                {
                    "internalType": "uint256",
                    "name": "",
                    "type": "uint256"
                }
            ],
            "stateMutability": "view",
            "type": "function"
        },
        {
            "inputs": [],
            "name": "name",
            "outputs": [
                {
                    "internalType": "string",
                    "name": "",
                    "type": "string"
                }
            ],
            "stateMutability": "view",
            "type": "function"
        },
        {
            "inputs": [
                {
                    "internalType": "address",
                    "name": "",
                    "type": "address"
                }
            ],
            "name": "nonces",
            "outputs": [
                {
                    "internalType": "uint256",
                    "name": "",
                    "type": "uint256"
                }
            ],
            "stateMutability": "view",
            "type": "function"
        },
        {
            "inputs": [
                {
                    "internalType": "uint256",
                    "name": "priceExp",
                    "type": "uint256"
                },
                {
                    "internalType": "uint256",
                    "name": "amount",
                    "type": "uint256"
                }
            ],
            "name": "openLong",
            "outputs": [],
            "stateMutability": "nonpayable",
            "type": "function"
        },
        {
            "inputs": [
                {
                    "internalType": "uint256",
                    "name": "priceExp",
                    "type": "uint256"
                },
                {
                    "internalType": "uint256",
                    "name": "amount",
                    "type": "uint256"
                }
            ],
            "name": "openShort",
            "outputs": [],
            "stateMutability": "nonpayable",
            "type": "function"
        },
        {
            "inputs": [
                {
                    "internalType": "address",
                    "name": "owner",
                    "type": "address"
                },
                {
                    "internalType": "address",
                    "name": "spender",
                    "type": "address"
                },
                {
                    "internalType": "uint256",
                    "name": "value",
                    "type": "uint256"
                },
                {
                    "internalType": "uint256",
                    "name": "deadline",
                    "type": "uint256"
                },
                {
                    "internalType": "uint8",
                    "name": "v",
                    "type": "uint8"
                },
                {
                    "internalType": "bytes32",
                    "name": "r",
                    "type": "bytes32"
                },
                {
                    "internalType": "bytes32",
                    "name": "s",
                    "type": "bytes32"
                }
            ],
            "name": "permit",
            "outputs": [],
            "stateMutability": "nonpayable",
            "type": "function"
        },
        {
            "inputs": [],
            "name": "poolLongAmount",
            "outputs": [
                {
                    "internalType": "uint256",
                    "name": "",
                    "type": "uint256"
                }
            ],
            "stateMutability": "view",
            "type": "function"
        },
        {
            "inputs": [],
            "name": "poolLongPrice",
            "outputs": [
                {
                    "internalType": "uint256",
                    "name": "",
                    "type": "uint256"
                }
            ],
            "stateMutability": "view",
            "type": "function"
        },
        {
            "inputs": [],
            "name": "poolShortAmount",
            "outputs": [
                {
                    "internalType": "uint256",
                    "name": "",
                    "type": "uint256"
                }
            ],
            "stateMutability": "view",
            "type": "function"
        },
        {
            "inputs": [],
            "name": "poolShortPrice",
            "outputs": [
                {
                    "internalType": "uint256",
                    "name": "",
                    "type": "uint256"
                }
            ],
            "stateMutability": "view",
            "type": "function"
        },
        {
            "inputs": [
                {
                    "internalType": "uint256",
                    "name": "amount",
                    "type": "uint256"
                },
                {
                    "internalType": "uint256",
                    "name": "deadline",
                    "type": "uint256"
                }
            ],
            "name": "rechargeMargin",
            "outputs": [],
            "stateMutability": "nonpayable",
            "type": "function"
        },
        {
            "inputs": [
                {
                    "internalType": "uint256",
                    "name": "liquidity",
                    "type": "uint256"
                },
                {
                    "internalType": "address",
                    "name": "to",
                    "type": "address"
                },
                {
                    "internalType": "uint256",
                    "name": "deadline",
                    "type": "uint256"
                }
            ],
            "name": "removeLiquidity",
            "outputs": [],
            "stateMutability": "nonpayable",
            "type": "function"
        },
        {
            "inputs": [],
            "name": "sumFee",
            "outputs": [
                {
                    "internalType": "uint256",
                    "name": "",
                    "type": "uint256"
                }
            ],
            "stateMutability": "view",
            "type": "function"
        },
        {
            "inputs": [],
            "name": "symbol",
            "outputs": [
                {
                    "internalType": "string",
                    "name": "",
                    "type": "string"
                }
            ],
            "stateMutability": "view",
            "type": "function"
        },
        {
            "inputs": [],
            "name": "token0",
            "outputs": [
                {
                    "internalType": "address",
                    "name": "",
                    "type": "address"
                }
            ],
            "stateMutability": "view",
            "type": "function"
        },
        {
            "inputs": [],
            "name": "token0Decimal",
            "outputs": [
                {
                    "internalType": "uint256",
                    "name": "",
                    "type": "uint256"
                }
            ],
            "stateMutability": "view",
            "type": "function"
        },
        {
            "inputs": [],
            "name": "totalPool",
            "outputs": [
                {
                    "internalType": "int256",
                    "name": "",
                    "type": "int256"
                }
            ],
            "stateMutability": "view",
            "type": "function"
        },
        {
            "inputs": [],
            "name": "totalSupply",
            "outputs": [
                {
                    "internalType": "uint256",
                    "name": "",
                    "type": "uint256"
                }
            ],
            "stateMutability": "view",
            "type": "function"
        },
        {
            "inputs": [
                {
                    "internalType": "address",
                    "name": "",
                    "type": "address"
                }
            ],
            "name": "traders",
            "outputs": [
                {
                    "internalType": "int256",
                    "name": "margin",
                    "type": "int256"
                },
                {
                    "internalType": "uint256",
                    "name": "longAmount",
                    "type": "uint256"
                },
                {
                    "internalType": "uint256",
                    "name": "longPrice",
                    "type": "uint256"
                },
                {
                    "internalType": "uint256",
                    "name": "shortAmount",
                    "type": "uint256"
                },
                {
                    "internalType": "uint256",
                    "name": "shortPrice",
                    "type": "uint256"
                }
            ],
            "stateMutability": "view",
            "type": "function"
        },
        {
            "inputs": [
                {
                    "internalType": "address",
                    "name": "to",
                    "type": "address"
                },
                {
                    "internalType": "uint256",
                    "name": "value",
                    "type": "uint256"
                }
            ],
            "name": "transfer",
            "outputs": [
                {
                    "internalType": "bool",
                    "name": "",
                    "type": "bool"
                }
            ],
            "stateMutability": "nonpayable",
            "type": "function"
        },
        {
            "inputs": [
                {
                    "internalType": "address",
                    "name": "from",
                    "type": "address"
                },
                {
                    "internalType": "address",
                    "name": "to",
                    "type": "address"
                },
                {
                    "internalType": "uint256",
                    "name": "value",
                    "type": "uint256"
                }
            ],
            "name": "transferFrom",
            "outputs": [
                {
                    "internalType": "bool",
                    "name": "",
                    "type": "bool"
                }
            ],
            "stateMutability": "nonpayable",
            "type": "function"
        },
        {
            "inputs": [
                {
                    "internalType": "uint256",
                    "name": "amount",
                    "type": "uint256"
                },
                {
                    "internalType": "uint256",
                    "name": "deadline",
                    "type": "uint256"
                }
            ],
            "name": "withdrawMargin",
            "outputs": [],
            "stateMutability": "nonpayable",
            "type": "function"
        }
    ],
    "bytecode": "6101a06040523480156200001257600080fd5b50604051620032b2380380620032b283398101604081905262000035916200027b565b856001600160a01b031663313ce5676040518163ffffffff1660e01b815260040160206040518083038186803b1580156200006f57600080fd5b505afa15801562000084573d6000803e3d6000fd5b505050506040513d601f19601f82011682018060405250810190620000aa9190620002f3565b604080518082018252600c81526b48656467657853696e676c6560a01b6020918201528151808301835260018152603160f81b9082015281517f8b73c3c69bb8fe3d512ecc4cf759cc79239f7b179b0ffacaa9a75d522b39400f918101919091527fdbb8f54117374490c454ab41b80d95cf4a0c3b286124d9b83e346d854dc3efcd918101919091527fc89efdaa54c0f20c7adf612882df0950f5a951637e0307cdcb4c672f298b8bc660608201524660808201523060a082015260c00160408051601f19818403018152828252805160209182012060a05260ff9093166080526001600160a01b0380891661016052891661010081905263313ce56760e01b83529051909263313ce5679260048082019391829003018186803b158015620001d257600080fd5b505afa158015620001e7573d6000803e3d6000fd5b505050506040513d601f19601f820116820180604052508101906200020d9190620002f3565b6200021a90600a6200042d565b610120526101809390935260c09190915260ff1660e0526004805461ffff1916905560000b61014052506200043e9050565b80516001600160a01b03811681146200026457600080fd5b919050565b805160ff811681146200026457600080fd5b60008060008060008060c087890312156200029557600080fd5b620002a0876200024c565b9550620002b0602088016200024c565b94506040870151935060608701519250620002ce6080880162000269565b915060a08701518060000b8114620002e557600080fd5b809150509295509295509295565b6000602082840312156200030657600080fd5b620003118262000269565b9392505050565b634e487b7160e01b600052601160045260246000fd5b600181815b808511156200036f57816000190482111562000353576200035362000318565b808516156200036157918102915b93841c939080029062000333565b509250929050565b600082620003885750600162000427565b81620003975750600062000427565b8160018114620003b05760028114620003bb57620003db565b600191505062000427565b60ff841115620003cf57620003cf62000318565b50506001821b62000427565b5060208310610133831016604e8410600b841016171562000400575081810a62000427565b6200040c83836200032e565b806000190482111562000423576200042362000318565b0290505b92915050565b60006200031160ff84168362000377565b60805160a05160c05160e0516101005161012051610140516101605161018051612d776200053b6000396000818161029e015281816111fa015261128a01526000818161061601526110d7015260008181610396015281816111d10152818161121e01526112ae0152600081816105ef0152818161124901526112e20152600081816102f601528181610b6601528181610d720152818161103c015281816113370152818161180f0152611ca60152600081816103d001528181610a13015281816116d301528181611f790152611fcf01526000818161036f01526113b001526000818161045701526118c5015260006104300152612d776000f3fe608060405234801561001057600080fd5b50600436106102535760003560e01c80637ecebe00116101465780639ddc230a116100c3578063d505accf11610087578063d505accf14610671578063dd62ed3e14610684578063ddcb04c2146106af578063e5984319146106c2578063ecfb49a3146106cb578063f69d91ae146106d457600080fd5b80639ddc230a146105ea578063a04eecae14610611578063a9059cbb14610638578063c181d4181461064b578063c4ccdeea1461065e57600080fd5b806392a88fa21161010a57806392a88fa21461053d57806395d89b41146105a2578063971059fb146105c5578063994af3ae146105ce5780639aa5d462146105d757600080fd5b80637ecebe00146104ec57806389d408ff1461050c5780638a55d36e1461051f5780638e15f4731461052c5780638e4068921461053457600080fd5b80632c86d98e116101d4578063416c569011610198578063416c56901461048c57806344b5f7841461049f5780634f335d0a146104b257806370a08231146104c45780637bb71a97146104e457600080fd5b80632c86d98e146103cb57806330adf81f14610404578063313ce5671461042b5780633644e515146104525780633bad4bbb1461047957600080fd5b806318160ddd1161021b57806318160ddd14610345578063190b065f1461034e57806323b872dd146103575780632678b8fd1461036a5780632be902821461039157600080fd5b806306fdde031461025857806308c73e7414610299578063095ea7b3146102ce5780630dfe1681146102f15780631266a61914610330575b600080fd5b6102836040518060400160405280600c81526020016b48656467657853696e676c6560a01b81525081565b60405161029091906127d4565b60405180910390f35b6102c07f000000000000000000000000000000000000000000000000000000000000000081565b604051908152602001610290565b6102e16102dc366004612823565b6106e7565b6040519015158152602001610290565b6103187f000000000000000000000000000000000000000000000000000000000000000081565b6040516001600160a01b039091168152602001610290565b61034361033e36600461284d565b6106fe565b005b6102c060005481565b6102c060055481565b6102e161036536600461286f565b610920565b6102c07f000000000000000000000000000000000000000000000000000000000000000081565b6103b87f000000000000000000000000000000000000000000000000000000000000000081565b60405160009190910b8152602001610290565b6103f27f000000000000000000000000000000000000000000000000000000000000000081565b60405160ff9091168152602001610290565b6102c07f6e71edae12b1b97f4d1f60370fef10105fa2faae0126114a169c64845d6126c981565b6103f27f000000000000000000000000000000000000000000000000000000000000000081565b6102c07f000000000000000000000000000000000000000000000000000000000000000081565b61034361048736600461284d565b61099a565b61034361049a36600461284d565b610bcc565b6103436104ad36600461284d565b610d4c565b6004546102e190610100900460ff1681565b6102c06104d23660046128ab565b60016020526000908152604090205481565b6102c0610df7565b6102c06104fa3660046128ab565b60036020526000908152604090205481565b61034361051a3660046128c6565b610eb6565b6004546102e19060ff1681565b6102c06110d2565b6102c060085481565b61057a61054b3660046128ab565b600b60205260009081526040902080546001820154600283015460038401546004909401549293919290919085565b604080519586526020860194909452928401919091526060830152608082015260a001610290565b610283604051806040016040528060048152602001634845585360e01b81525081565b6102c0600a5481565b6102c060095481565b6103436105e53660046128f9565b611311565b6102c07f000000000000000000000000000000000000000000000000000000000000000081565b6103187f000000000000000000000000000000000000000000000000000000000000000081565b6102e1610646366004612823565b611429565b61034361065936600461284d565b611436565b61034361066c3660046128f9565b611652565b61034361067f36600461291e565b611867565b6102c06106923660046128c6565b600260209081526000928352604080842090915290825290205481565b6103436106bd3660046128c6565b611a93565b6102c060075481565b6102c060065481565b6103436106e236600461284d565b611d1a565b60006106f4338484611e9c565b5060015b92915050565b60045460ff1661074d5760405162461bcd60e51b815260206004820152601560248201527418dbdb9d1c9858dd081a5cc81b9bdd081cdd185c9d605a1b60448201526064015b60405180910390fd5b60006107576110d2565b9050828110156107a95760405162461bcd60e51b815260206004820152601b60248201527f6f70656e2073686f727420707269636520697320746f6f206c6f7700000000006044820152606401610744565b336000908152600b60209081526040808320815160a0810183528154815260018201549381019390935260028101549183019190915260038101546060830152600401546080820152906107fd83856129a7565b9050600061080c838584611efe565b905084836060015161081e91906129c6565b336000908152600b602052604090206003015560608301516108419086906129c6565b828460800151856060015161085691906129a7565b61086091906129c6565b61086a91906129de565b336000908152600b6020526040902060040155825161088a908290612a00565b336000908152600b60205260409020556007546108a786826129c6565b6007556108b486826129c6565b83600954836108c391906129a7565b6108cd91906129c6565b6108d791906129de565b6009556108e3826120db565b604080516000198152602081018890529081018690523390600080516020612d22833981519152906060015b60405180910390a250505050505050565b6001600160a01b038316600090815260026020908152604080832033845290915281205460001914610985576001600160a01b03841660009081526002602090815260408083203384529091528120805484929061097f908490612a3f565b90915550505b610990848484612162565b5060019392505050565b80428110156109bb5760405162461bcd60e51b815260040161074490612a56565b336000908152600b60209081526040808320815160a081018352815481526001820154938101939093526002810154918301919091526003810154606083015260040154608082015290610a0d6110d2565b905060007f000000000000000000000000000000000000000000000000000000000000000060ff168284606001518560200151610a4a91906129c6565b610a5491906129a7565b610a5e91906129de565b90506000828460600151610a7291906129a7565b84604001518560200151610a8691906129a7565b610a9091906129c6565b84608001518560600151610aa491906129a7565b848660200151610ab491906129a7565b610abe91906129c6565b8551610aca9190612a85565b610ad49190612a00565b90506000610ae28383612a00565b905060008113610b345760405162461bcd60e51b815260206004820152601860248201527f63616e207769746864726177206973206e6567617469766500000000000000006044820152606401610744565b8781811315610b405750805b8551610b4d908290612a00565b336000818152600b6020526040902091909155610b8c907f00000000000000000000000000000000000000000000000000000000000000009083612203565b60405181815233907f884edad9ce6fa2440d8a54cc123490eb96d2768479d49ff9c7366125a94243649060200160405180910390a2505050505050505050565b6000610bd66110d2565b905082811015610c285760405162461bcd60e51b815260206004820152601960248201527f636c6f7365206c6f6e67207072696365206973206c6f776572000000000000006044820152606401610744565b336000908152600b60209081526040808320815160a081018352815481526001820154938101849052600282015492810192909252600381015460608301526004015460808201529190610c7f908490869061231e565b90506000826040015184610c939190612a00565b610c9d9086612ac6565b9050848360200151610caf9190612a3f565b336000908152600b602052604090206001015582518290610cd1908390612a85565b610cdb9190612a00565b336000908152600b602052604081209190915560088054879290610d00908490612a3f565b90915550610d1090508282612408565b604080516000198152602081018790529081018590523390600080516020612d22833981519152906060015b60405180910390a2505050505050565b8042811015610d6d5760405162461bcd60e51b815260040161074490612a56565b610d997f00000000000000000000000000000000000000000000000000000000000000003330866124a4565b336000908152600b602052604081208054859290610db8908490612a85565b909155505060405183815233907f78d9de6f3ad1cae9e0cbcbaa5267fd90f6a6728831eec42b7c147b398b2269249060200160405180910390a2505050565b600080610e026110d2565b9050600081600854610e1491906129a7565b600954600754610e2491906129a7565b610e2e91906129c6565b600a54600854610e3e91906129a7565b83600754610e4c91906129a7565b610e5691906129c6565b600654610e639190612a85565b610e6d9190612a00565b9050600081136106f85760405162461bcd60e51b81526020600482015260146024820152733732ba103732b2b2103132903837b9b4ba34b7b760611b6044820152606401610744565b6001600160a01b0382166000908152600b60209081526040808320815160a0810183528154815260018201549381019390935260028101549183019190915260038101546060830181905260049091015460808301819052919291601e91610f1e91906129a7565b83604001518460200151610f3291906129a7565b610f3c91906129c6565b610f4691906129de565b90506000610f526110d2565b90506000610f6084836125d4565b905082811315610fab5760405162461bcd60e51b815260206004820152601660248201527510d85b9d081b9bdd08189948195e1c1b1bdcda5d995960521b6044820152606401610744565b6001600160a01b0386166000908152600b6020908152604082208281556001810183905560028101839055600381018390556004019190915584015115611008578360200151600860008282546110029190612a3f565b90915550505b60608401511561102e578360600151600760008282546110289190612a3f565b90915550505b6000811315611067576110627f00000000000000000000000000000000000000000000000000000000000000008683612203565b61107f565b80600660008282546110799190612a85565b90915550505b856001600160a01b03167feff2642751f6d8380b39cb1211fb5d0b9965649c052b81fb8bfbd2d8c52c38fd856060015186602001516110be91906129c6565b604080519182526020820186905201610d3c565b6000807f00000000000000000000000000000000000000000000000000000000000000006001600160a01b031663feaf968c6040518163ffffffff1660e01b815260040160a06040518083038186803b15801561112e57600080fd5b505afa158015611142573d6000803e3d6000fd5b505050506040513d601f19601f820116820180604052508101906111669190612b65565b505050915050600081136111cd5760405162461bcd60e51b815260206004820152602860248201527f7468652070616972207374616e64617264207072696365206d75737420626520604482015267706f73697469766560c01b6064820152608401610744565b60007f000000000000000000000000000000000000000000000000000000000000000060000b12611288577f00000000000000000000000000000000000000000000000000000000000000006112447f0000000000000000000000000000000000000000000000000000000000000000600a612c99565b61126e7f0000000000000000000000000000000000000000000000000000000000000000846129a7565b61127891906129a7565b61128291906129de565b91505090565b7f00000000000000000000000000000000000000000000000000000000000000006112d27f0000000000000000000000000000000000000000000000000000000000000000612ca8565b6112dd90600a612c99565b6113077f0000000000000000000000000000000000000000000000000000000000000000846129a7565b61127891906129de565b80428110156113325760405162461bcd60e51b815260040161074490612a56565b61135e7f00000000000000000000000000000000000000000000000000000000000000003330876124a4565b600454849060ff1615611394576000611375610df7565b9050808660005461138691906129a7565b61139091906129de565b9150505b84600660008282546113a69190612a85565b90915550506006547f0000000000000000000000000000000000000000000000000000000000000000136113e2576004805460ff191660011790555b6113ec848261264f565b60405181815233907f0f6798a560793a54c3bcfe86a93cde1e73087d944c0ea20544137d4121396885906020015b60405180910390a25050505050565b60006106f4338484612162565b60045460ff166114805760405162461bcd60e51b815260206004820152601560248201527418dbdb9d1c9858dd081a5cc81b9bdd081cdd185c9d605a1b6044820152606401610744565b600061148a6110d2565b90508281111580611499575082155b6114e55760405162461bcd60e51b815260206004820152601b60248201527f6f70656e206c6f6e6720707269636520697320746f6f206869676800000000006044820152606401610744565b336000908152600b60209081526040808320815160a08101835281548152600182015493810193909352600281015491830191909152600381015460608301526004015460808201529061153983856129a7565b90506000611548838584611efe565b905084836020015161155a91906129c6565b336000908152600b60209081526040909120600101919091558301516115819086906129c6565b828460400151856020015161159691906129a7565b6115a091906129c6565b6115aa91906129de565b336000908152600b602052604090206002015582516115ca908290612a00565b336000908152600b60205260409020556008546115e786826129c6565b6008556115f486826129c6565b83600a548361160391906129a7565b61160d91906129c6565b61161791906129de565b600a55611623826120db565b6040805160018152602081018890529081018690523390600080516020612d228339815191529060600161090f565b80428110156116735760405162461bcd60e51b815260040161074490612a56565b600454849060ff16156117e857600061168a6110d2565b90506000611697826126d8565b90506000600854600754116116bb576007546008546116b69190612a3f565b6116cb565b6008546007546116cb9190612a3f565b9050600060ff7f0000000000000000000000000000000000000000000000000000000000000000166116fd85846129a7565b61170791906129de565b905080831361174f5760405162461bcd60e51b81526020600482015260146024820152733732ba103732b2b2103132903837b9b4ba34b7b760611b6044820152606401610744565b600061175b8285612a3f565b9050600061176a600a866129de565b905080821115611778578091505b6000546117858c876129a7565b61178f91906129de565b9650818711156117e15760405162461bcd60e51b815260206004820152601860248201527f776974686472617720616d6f756e7420746f6f206d75636800000000000000006044820152606401610744565b5050505050505b80600660008282546117fa9190612a00565b9091555061180a90503386612721565b6118357f00000000000000000000000000000000000000000000000000000000000000008583612203565b60405185815233907fcc16f5dbb4873280815c1ee09dbd06736cffcc184412cf7a71a0fdb75d397ca59060200161141a565b428410156118a95760405162461bcd60e51b815260206004820152600f60248201526e12195919d95e0e8811561412549151608a1b6044820152606401610744565b6001600160a01b038716600090815260036020526040812080547f0000000000000000000000000000000000000000000000000000000000000000917f6e71edae12b1b97f4d1f60370fef10105fa2faae0126114a169c64845d6126c9918b918b918b918761191783612cc8565b909155506040805160208101969096526001600160a01b0394851690860152929091166060840152608083015260a082015260c0810187905260e0016040516020818303038152906040528051906020012060405160200161199092919061190160f01b81526002810192909252602282015260420190565b60408051601f198184030181528282528051602091820120600080855291840180845281905260ff88169284019290925260608301869052608083018590529092509060019060a0016020604051602081039080840390855afa1580156119fb573d6000803e3d6000fd5b5050604051601f1901519150506001600160a01b03811615801590611a315750886001600160a01b0316816001600160a01b0316145b611a7d5760405162461bcd60e51b815260206004820152601960248201527f4865646765783a20494e56414c49445f5349474e4154555245000000000000006044820152606401610744565b611a88898989611e9c565b505050505050505050565b6000611a9d6110d2565b6001600160a01b0384166000908152600b602052604090206003810154600182015492935090911415611b125760405162461bcd60e51b815260206004820152601d60248201527f6e656564206c6f6e6720616e642073686f7274206e6f7420657175616c0000006044820152606401610744565b600854600754600383015460018401546000911015611bbc57818311611b6d5760405162461bcd60e51b815260206004820152601060248201526f1a185d99481b9bc81a5b9d195c995cdd60821b6044820152606401610744565b82612710611b7b8483612a3f565b6001870154600a90611b8d908a6129a7565b611b9791906129a7565b611ba191906129a7565b611bab91906129de565b611bb591906129de565b9050611c49565b828211611bfe5760405162461bcd60e51b815260206004820152601060248201526f1a185d99481b9bc81a5b9d195c995cdd60821b6044820152606401610744565b81612710611c0c8583612a3f565b6003870154600a90611c1e908a6129a7565b611c2891906129a7565b611c3291906129a7565b611c3c91906129de565b611c4691906129de565b90505b6000612710611c5a6103e8846129a7565b611c6491906129de565b905081856000016000828254611c7a9190612a00565b90915550611c8a90508183612a00565b60066000828254611c9b9190612a85565b90915550611ccc90507f00000000000000000000000000000000000000000000000000000000000000008883612203565b60408051838152602081018890526001600160a01b038a16917f5ff65a0fd12abffbfc04b259e6ad8ff02b8e0b6fcddee1bdb9d2e143cb6c8301910160405180910390a25050505050505050565b6000611d246110d2565b90508281111580611d33575082155b611d7f5760405162461bcd60e51b815260206004820152601b60248201527f636c6f73652073686f72742070726963652069732068696768657200000000006044820152606401610744565b336000908152600b60209081526040808320815160a081018352815481526001820154938101939093526002810154918301919091526003810154606083018190526004909101546080830152909190611ddc908490869061231e565b90506000838360800151611df09190612a00565b611dfa9086612ac6565b9050848360600151611e0c9190612a3f565b336000908152600b602052604090206003015582518290611e2e908390612a85565b611e389190612a00565b336000908152600b602052604081209190915560078054879290611e5d908490612a3f565b90915550611e6d90508282612408565b6040805160018152602081018790529081018590523390600080516020612d2283398151915290606001610d3c565b6001600160a01b0383811660008181526002602090815260408083209487168084529482529182902085905590518481527f8c5be1e5ebec7d5bd14f71427d1e84f3dd0314c0f7b2291e5b200ac8c7c3b92591015b60405180910390a3505050565b600080838560600151611f1191906129a7565b85604001518660200151611f2591906129a7565b611f2f91906129c6565b85608001518660600151611f4391906129a7565b858760200151611f5391906129a7565b611f5d91906129c6565b8651611f699190612a85565b611f739190612a00565b905060007f000000000000000000000000000000000000000000000000000000000000000060ff168587606001518860200151611fb091906129c6565b611fba91906129a7565b611fc491906129de565b90506000611ff560ff7f000000000000000000000000000000000000000000000000000000000000000016866129de565b90506000612710612007601e886129a7565b61201191906129de565b90506000816120208587612a00565b61202a9190612a00565b9050600081136120885760405162461bcd60e51b815260206004820152602360248201527f6c656674206d617267696e20697320657175616c206f72206c6573732074686160448201526206e20360ec1b6064820152608401610744565b828110156120cf5760405162461bcd60e51b81526020600482015260146024820152730dac2e4ced2dc40d2e640dcdee840cadcdeeaced60631b6044820152606401610744565b50979650505050505050565b600454610100900460ff16156121475760006127106120fc6105dc846129a7565b61210691906129de565b9050806005600082825461211a91906129c6565b9091555061212a90508183612a00565b6006600082825461213b9190612a85565b9091555061215f915050565b80600660008282546121599190612a85565b90915550505b50565b6001600160a01b0383166000908152600160205260408120805483929061218a908490612a3f565b90915550506001600160a01b038216600090815260016020526040812080548392906121b79084906129c6565b92505081905550816001600160a01b0316836001600160a01b03167fddf252ad1be2c89b69c2b068fc378daa952ba7f163c4a11628f55a4df523b3ef83604051611ef191815260200190565b604080516001600160a01b038481166024830152604480830185905283518084039091018152606490920183526020820180516001600160e01b031663a9059cbb60e01b179052915160009283929087169161225f9190612ce3565b6000604051808303816000865af19150503d806000811461229c576040519150601f19603f3d011682016040523d82523d6000602084013e6122a1565b606091505b50915091508180156122cb5750805115806122cb5750808060200190518101906122cb9190612cff565b6123175760405162461bcd60e51b815260206004820152601f60248201527f5472616e7366657248656c7065723a205452414e534645525f4641494c4544006044820152606401610744565b5050505050565b60008061232a856126d8565b90508461271061233c61012c846129a7565b61234691906129de565b61235091906129de565b8411156123965760405162461bcd60e51b8152602060048201526014602482015273616d6f756e74206f766572206e65742a7261746560601b6044820152606401610744565b828411156123dc5760405162461bcd60e51b81526020600482015260136024820152720e0dee6d2e8d2dedc40dcdee840cadcdeeaced606b1b6044820152606401610744565b612710601e6123eb87876129a7565b6123f591906129a7565b6123ff91906129de565b95945050505050565b600454610100900460ff161561247f5760006127106124296105dc856129a7565b61243391906129de565b9050806005600082825461244791906129c6565b909155508290506124588285612a00565b6124629190612a00565b600660008282546124739190612a85565b909155506124a0915050565b6124898183612a00565b6006600082825461249a9190612a85565b90915550505b5050565b604080516001600160a01b0385811660248301528481166044830152606480830185905283518084039091018152608490920183526020820180516001600160e01b03166323b872dd60e01b17905291516000928392908816916125089190612ce3565b6000604051808303816000865af19150503d8060008114612545576040519150601f19603f3d011682016040523d82523d6000602084013e61254a565b606091505b50915091508180156125745750805115806125745750808060200190518101906125749190612cff565b6125cc5760405162461bcd60e51b8152602060048201526024808201527f5472616e7366657248656c7065723a205452414e534645525f46524f4d5f46416044820152631253115160e21b6064820152608401610744565b505050505050565b60008183606001516125e691906129a7565b836040015184602001516125fa91906129a7565b61260491906129c6565b8360800151846060015161261891906129a7565b83856020015161262891906129a7565b61263291906129c6565b845161263e9190612a85565b6126489190612a00565b9392505050565b8060008082825461266091906129c6565b90915550506001600160a01b0382166000908152600160205260408120805483929061268d9084906129c6565b90915550506040518181526001600160a01b038316906000907fddf252ad1be2c89b69c2b068fc378daa952ba7f163c4a11628f55a4df523b3ef906020015b60405180910390a35050565b600080826008546126e991906129a7565b6009546007546126f991906129a7565b61270391906129c6565b600a5460085461271391906129a7565b84600754610e4c91906129a7565b6001600160a01b03821660009081526001602052604081208054839290612749908490612a3f565b92505081905550806000808282546127619190612a3f565b90915550506040518181526000906001600160a01b038416907fddf252ad1be2c89b69c2b068fc378daa952ba7f163c4a11628f55a4df523b3ef906020016126cc565b60005b838110156127bf5781810151838201526020016127a7565b838111156127ce576000848401525b50505050565b60208152600082518060208401526127f38160408501602087016127a4565b601f01601f19169190910160400192915050565b80356001600160a01b038116811461281e57600080fd5b919050565b6000806040838503121561283657600080fd5b61283f83612807565b946020939093013593505050565b6000806040838503121561286057600080fd5b50508035926020909101359150565b60008060006060848603121561288457600080fd5b61288d84612807565b925061289b60208501612807565b9150604084013590509250925092565b6000602082840312156128bd57600080fd5b61264882612807565b600080604083850312156128d957600080fd5b6128e283612807565b91506128f060208401612807565b90509250929050565b60008060006060848603121561290e57600080fd5b8335925061289b60208501612807565b600080600080600080600060e0888a03121561293957600080fd5b61294288612807565b965061295060208901612807565b95506040880135945060608801359350608088013560ff8116811461297457600080fd5b9699959850939692959460a0840135945060c09093013592915050565b634e487b7160e01b600052601160045260246000fd5b60008160001904831182151516156129c1576129c1612991565b500290565b600082198211156129d9576129d9612991565b500190565b6000826129fb57634e487b7160e01b600052601260045260246000fd5b500490565b60008083128015600160ff1b850184121615612a1e57612a1e612991565b6001600160ff1b0384018313811615612a3957612a39612991565b50500390565b600082821015612a5157612a51612991565b500390565b60208082526015908201527412195919d95e14da5b99db194e8811561412549151605a1b604082015260600190565b600080821280156001600160ff1b0384900385131615612aa757612aa7612991565b600160ff1b8390038412811615612ac057612ac0612991565b50500190565b60006001600160ff1b0381841382841380821686840486111615612aec57612aec612991565b600160ff1b6000871282811687830589121615612b0b57612b0b612991565b60008712925087820587128484161615612b2757612b27612991565b87850587128184161615612b3d57612b3d612991565b505050929093029392505050565b805169ffffffffffffffffffff8116811461281e57600080fd5b600080600080600060a08688031215612b7d57600080fd5b612b8686612b4b565b9450602086015193506040860151925060608601519150612ba960808701612b4b565b90509295509295909350565b600181815b80851115612bf0578160001904821115612bd657612bd6612991565b80851615612be357918102915b93841c9390800290612bba565b509250929050565b600082612c07575060016106f8565b81612c14575060006106f8565b8160018114612c2a5760028114612c3457612c50565b60019150506106f8565b60ff841115612c4557612c45612991565b50506001821b6106f8565b5060208310610133831016604e8410600b8410161715612c73575081810a6106f8565b612c7d8383612bb5565b8060001904821115612c9157612c91612991565b029392505050565b600061264860ff841683612bf8565b600081810b607f19811415612cbf57612cbf612991565b60000392915050565b6000600019821415612cdc57612cdc612991565b5060010190565b60008251612cf58184602087016127a4565b9190910192915050565b600060208284031215612d1157600080fd5b8151801515811461264857600080fdfe303db7636b0e071f088d2cd5e8463efe513531272d61a18739b21053f6d7b430a264697066735822122002f0512a2b8696b6da70140b3d91e6f4469522b804ab78bca8b89fce9f6c393664736f6c63430008090033",
    "sourcePath": "d:/contract/hedgex/Single.sol",
    "compiler": {
        "name": "solc",
        "version": "0.8.9+commit.e5eed63a"
    },
    "functionHashes": {
        "DOMAIN_SEPARATOR()": "3644e515",
        "PERMIT_TYPEHASH()": "30adf81f",
        "addLiquidity(uint256,address,uint256)": "9aa5d462",
        "allowance(address,address)": "dd62ed3e",
        "amountDecimal()": "2be90282",
        "approve(address,uint256)": "095ea7b3",
        "balanceOf(address)": "70a08231",
        "closeLong(uint256,uint256)": "416c5690",
        "closeShort(uint256,uint256)": "f69d91ae",
        "decimals()": "313ce567",
        "detectSlide(address,address)": "ddcb04c2",
        "explosive(address,address)": "89d408ff",
        "feeOn()": "4f335d0a",
        "feedPrice()": "a04eecae",
        "feedPriceDecimal()": "08c73e74",
        "getLatestPrice()": "8e15f473",
        "getPoolNet()": "7bb71a97",
        "isStart()": "8a55d36e",
        "leverage()": "2c86d98e",
        "minPool()": "2678b8fd",
        "name()": "06fdde03",
        "nonces(address)": "7ecebe00",
        "openLong(uint256,uint256)": "c181d418",
        "openShort(uint256,uint256)": "1266a619",
        "permit(address,address,uint256,uint256,uint8,bytes32,bytes32)": "d505accf",
        "poolLongAmount()": "e5984319",
        "poolLongPrice()": "994af3ae",
        "poolShortAmount()": "8e406892",
        "poolShortPrice()": "971059fb",
        "rechargeMargin(uint256,uint256)": "44b5f784",
        "removeLiquidity(uint256,address,uint256)": "c4ccdeea",
        "sumFee()": "190b065f",
        "symbol()": "95d89b41",
        "token0()": "0dfe1681",
        "token0Decimal()": "9ddc230a",
        "totalPool()": "ecfb49a3",
        "totalSupply()": "18160ddd",
        "traders(address)": "92a88fa2",
        "transfer(address,uint256)": "a9059cbb",
        "transferFrom(address,address,uint256)": "23b872dd",
        "withdrawMargin(uint256,uint256)": "3bad4bbb"
    },
    "gasEstimates": {
        "creation": {
            "codeDepositCost": "2327800",
            "executionCost": "infinite",
            "totalCost": "infinite"
        },
        "external": {
            "DOMAIN_SEPARATOR()": "infinite",
            "PERMIT_TYPEHASH()": "263",
            "addLiquidity(uint256,address,uint256)": "infinite",
            "allowance(address,address)": "infinite",
            "amountDecimal()": "infinite",
            "approve(address,uint256)": "24619",
            "balanceOf(address)": "2630",
            "closeLong(uint256,uint256)": "infinite",
            "closeShort(uint256,uint256)": "infinite",
            "decimals()": "infinite",
            "detectSlide(address,address)": "infinite",
            "explosive(address,address)": "infinite",
            "feeOn()": "2410",
            "feedPrice()": "infinite",
            "feedPriceDecimal()": "infinite",
            "getLatestPrice()": "infinite",
            "getPoolNet()": "infinite",
            "isStart()": "2400",
            "leverage()": "infinite",
            "minPool()": "infinite",
            "name()": "infinite",
            "nonces(address)": "2565",
            "openLong(uint256,uint256)": "infinite",
            "openShort(uint256,uint256)": "infinite",
            "permit(address,address,uint256,uint256,uint8,bytes32,bytes32)": "infinite",
            "poolLongAmount()": "2405",
            "poolLongPrice()": "2406",
            "poolShortAmount()": "2429",
            "poolShortPrice()": "2384",
            "rechargeMargin(uint256,uint256)": "infinite",
            "removeLiquidity(uint256,address,uint256)": "infinite",
            "sumFee()": "2363",
            "symbol()": "infinite",
            "token0()": "infinite",
            "token0Decimal()": "infinite",
            "totalPool()": "2427",
            "totalSupply()": "2341",
            "traders(address)": "11108",
            "transfer(address,uint256)": "51162",
            "transferFrom(address,address,uint256)": "infinite",
            "withdrawMargin(uint256,uint256)": "infinite"
        },
        "internal": {
            "feeCharge(uint256)": "51151",
            "feeCharge(uint256,int256)": "infinite",
            "getAccountNet(struct HedgexSingle.Trader memory)": "infinite",
            "getAccountNet(struct HedgexSingle.Trader memory,uint256)": "infinite",
            "getPoolNet(uint256)": "infinite",
            "judegOpen(struct HedgexSingle.Trader memory,uint256,uint256)": "infinite",
            "judgeClose(uint256,uint256,uint256)": "infinite"
        }
    }
}