{
    "contractName": "HedgexSingle",
    "abi": [
        {
            "inputs": [
                {
                    "internalType": "address",
                    "name": "_token0",
                    "type": "address"
                },
                {
                    "internalType": "address",
                    "name": "_feedPrice",
                    "type": "address"
                },
                {
                    "internalType": "uint256",
                    "name": "_minStartPool",
                    "type": "uint256"
                },
                {
                    "internalType": "uint8",
                    "name": "_leverage",
                    "type": "uint8"
                },
                {
                    "internalType": "int8",
                    "name": "_amountDecimal",
                    "type": "int8"
                }
            ],
            "stateMutability": "nonpayable",
            "type": "constructor"
        },
        {
            "anonymous": false,
            "inputs": [
                {
                    "indexed": true,
                    "internalType": "address",
                    "name": "owner",
                    "type": "address"
                },
                {
                    "indexed": true,
                    "internalType": "address",
                    "name": "spender",
                    "type": "address"
                },
                {
                    "indexed": false,
                    "internalType": "uint256",
                    "name": "value",
                    "type": "uint256"
                }
            ],
            "name": "Approval",
            "type": "event"
        },
        {
            "anonymous": false,
            "inputs": [
                {
                    "indexed": true,
                    "internalType": "address",
                    "name": "sender",
                    "type": "address"
                },
                {
                    "indexed": false,
                    "internalType": "uint256",
                    "name": "amount",
                    "type": "uint256"
                }
            ],
            "name": "Burn",
            "type": "event"
        },
        {
            "anonymous": false,
            "inputs": [
                {
                    "indexed": true,
                    "internalType": "address",
                    "name": "user",
                    "type": "address"
                },
                {
                    "indexed": false,
                    "internalType": "int8",
                    "name": "direction",
                    "type": "int8"
                },
                {
                    "indexed": false,
                    "internalType": "uint256",
                    "name": "amount",
                    "type": "uint256"
                },
                {
                    "indexed": false,
                    "internalType": "uint256",
                    "name": "price",
                    "type": "uint256"
                }
            ],
            "name": "Explosive",
            "type": "event"
        },
        {
            "anonymous": false,
            "inputs": [
                {
                    "indexed": false,
                    "internalType": "int256",
                    "name": "total",
                    "type": "int256"
                },
                {
                    "indexed": false,
                    "internalType": "uint256",
                    "name": "la",
                    "type": "uint256"
                },
                {
                    "indexed": false,
                    "internalType": "uint256",
                    "name": "lp",
                    "type": "uint256"
                },
                {
                    "indexed": false,
                    "internalType": "uint256",
                    "name": "sa",
                    "type": "uint256"
                },
                {
                    "indexed": false,
                    "internalType": "uint256",
                    "name": "sp",
                    "type": "uint256"
                },
                {
                    "indexed": false,
                    "internalType": "uint256",
                    "name": "ep",
                    "type": "uint256"
                }
            ],
            "name": "ExplosivePool",
            "type": "event"
        },
        {
            "anonymous": false,
            "inputs": [
                {
                    "indexed": true,
                    "internalType": "address",
                    "name": "account",
                    "type": "address"
                },
                {
                    "indexed": false,
                    "internalType": "uint256",
                    "name": "long",
                    "type": "uint256"
                },
                {
                    "indexed": false,
                    "internalType": "uint256",
                    "name": "short",
                    "type": "uint256"
                },
                {
                    "indexed": false,
                    "internalType": "uint256",
                    "name": "price",
                    "type": "uint256"
                }
            ],
            "name": "ForceClose",
            "type": "event"
        },
        {
            "anonymous": false,
            "inputs": [
                {
                    "indexed": true,
                    "internalType": "address",
                    "name": "sender",
                    "type": "address"
                },
                {
                    "indexed": false,
                    "internalType": "uint256",
                    "name": "amount",
                    "type": "uint256"
                }
            ],
            "name": "Mint",
            "type": "event"
        },
        {
            "anonymous": false,
            "inputs": [
                {
                    "indexed": true,
                    "internalType": "address",
                    "name": "sender",
                    "type": "address"
                },
                {
                    "indexed": false,
                    "internalType": "uint256",
                    "name": "amount",
                    "type": "uint256"
                }
            ],
            "name": "Recharge",
            "type": "event"
        },
        {
            "anonymous": false,
            "inputs": [
                {
                    "indexed": true,
                    "internalType": "address",
                    "name": "user",
                    "type": "address"
                },
                {
                    "indexed": false,
                    "internalType": "int8",
                    "name": "direction",
                    "type": "int8"
                },
                {
                    "indexed": false,
                    "internalType": "uint256",
                    "name": "amount",
                    "type": "uint256"
                },
                {
                    "indexed": false,
                    "internalType": "uint256",
                    "name": "price",
                    "type": "uint256"
                }
            ],
            "name": "TakeInterest",
            "type": "event"
        },
        {
            "anonymous": false,
            "inputs": [
                {
                    "indexed": true,
                    "internalType": "address",
                    "name": "sender",
                    "type": "address"
                },
                {
                    "indexed": false,
                    "internalType": "int8",
                    "name": "direction",
                    "type": "int8"
                },
                {
                    "indexed": false,
                    "internalType": "uint256",
                    "name": "amount",
                    "type": "uint256"
                },
                {
                    "indexed": false,
                    "internalType": "uint256",
                    "name": "price",
                    "type": "uint256"
                }
            ],
            "name": "Trade",
            "type": "event"
        },
        {
            "anonymous": false,
            "inputs": [
                {
                    "indexed": true,
                    "internalType": "address",
                    "name": "from",
                    "type": "address"
                },
                {
                    "indexed": true,
                    "internalType": "address",
                    "name": "to",
                    "type": "address"
                },
                {
                    "indexed": false,
                    "internalType": "uint256",
                    "name": "value",
                    "type": "uint256"
                }
            ],
            "name": "Transfer",
            "type": "event"
        },
        {
            "anonymous": false,
            "inputs": [
                {
                    "indexed": true,
                    "internalType": "address",
                    "name": "sender",
                    "type": "address"
                },
                {
                    "indexed": false,
                    "internalType": "uint256",
                    "name": "amount",
                    "type": "uint256"
                }
            ],
            "name": "Withdraw",
            "type": "event"
        },
        {
            "inputs": [],
            "name": "DOMAIN_SEPARATOR",
            "outputs": [
                {
                    "internalType": "bytes32",
                    "name": "",
                    "type": "bytes32"
                }
            ],
            "stateMutability": "view",
            "type": "function"
        },
        {
            "inputs": [],
            "name": "PERMIT_TYPEHASH",
            "outputs": [
                {
                    "internalType": "bytes32",
                    "name": "",
                    "type": "bytes32"
                }
            ],
            "stateMutability": "view",
            "type": "function"
        },
        {
            "inputs": [],
            "name": "acceptSetter",
            "outputs": [],
            "stateMutability": "nonpayable",
            "type": "function"
        },
        {
            "inputs": [
                {
                    "internalType": "uint256",
                    "name": "amount",
                    "type": "uint256"
                },
                {
                    "internalType": "address",
                    "name": "to",
                    "type": "address"
                }
            ],
            "name": "addLiquidity",
            "outputs": [],
            "stateMutability": "nonpayable",
            "type": "function"
        },
        {
            "inputs": [
                {
                    "internalType": "address",
                    "name": "",
                    "type": "address"
                },
                {
                    "internalType": "address",
                    "name": "",
                    "type": "address"
                }
            ],
            "name": "allowance",
            "outputs": [
                {
                    "internalType": "uint256",
                    "name": "",
                    "type": "uint256"
                }
            ],
            "stateMutability": "view",
            "type": "function"
        },
        {
            "inputs": [],
            "name": "amountDecimal",
            "outputs": [
                {
                    "internalType": "int8",
                    "name": "",
                    "type": "int8"
                }
            ],
            "stateMutability": "view",
            "type": "function"
        },
        {
            "inputs": [
                {
                    "internalType": "address",
                    "name": "spender",
                    "type": "address"
                },
                {
                    "internalType": "uint256",
                    "name": "value",
                    "type": "uint256"
                }
            ],
            "name": "approve",
            "outputs": [
                {
                    "internalType": "bool",
                    "name": "",
                    "type": "bool"
                }
            ],
            "stateMutability": "nonpayable",
            "type": "function"
        },
        {
            "inputs": [
                {
                    "internalType": "address",
                    "name": "",
                    "type": "address"
                }
            ],
            "name": "balanceOf",
            "outputs": [
                {
                    "internalType": "uint256",
                    "name": "",
                    "type": "uint256"
                }
            ],
            "stateMutability": "view",
            "type": "function"
        },
        {
            "inputs": [],
            "name": "canAddLiquidity",
            "outputs": [
                {
                    "internalType": "bool",
                    "name": "",
                    "type": "bool"
                }
            ],
            "stateMutability": "view",
            "type": "function"
        },
        {
            "inputs": [],
            "name": "canOpen",
            "outputs": [
                {
                    "internalType": "bool",
                    "name": "",
                    "type": "bool"
                }
            ],
            "stateMutability": "view",
            "type": "function"
        },
        {
            "inputs": [
                {
                    "internalType": "uint256",
                    "name": "priceExp",
                    "type": "uint256"
                },
                {
                    "internalType": "uint256",
                    "name": "amount",
                    "type": "uint256"
                },
                {
                    "internalType": "uint256",
                    "name": "deadline",
                    "type": "uint256"
                }
            ],
            "name": "closeLong",
            "outputs": [],
            "stateMutability": "nonpayable",
            "type": "function"
        },
        {
            "inputs": [
                {
                    "internalType": "uint256",
                    "name": "priceExp",
                    "type": "uint256"
                },
                {
                    "internalType": "uint256",
                    "name": "amount",
                    "type": "uint256"
                },
                {
                    "internalType": "uint256",
                    "name": "deadline",
                    "type": "uint256"
                }
            ],
            "name": "closeShort",
            "outputs": [],
            "stateMutability": "nonpayable",
            "type": "function"
        },
        {
            "inputs": [],
            "name": "dailyInterestRateBase",
            "outputs": [
                {
                    "internalType": "uint16",
                    "name": "",
                    "type": "uint16"
                }
            ],
            "stateMutability": "view",
            "type": "function"
        },
        {
            "inputs": [],
            "name": "decimals",
            "outputs": [
                {
                    "internalType": "uint8",
                    "name": "",
                    "type": "uint8"
                }
            ],
            "stateMutability": "view",
            "type": "function"
        },
        {
            "inputs": [
                {
                    "internalType": "address",
                    "name": "account",
                    "type": "address"
                },
                {
                    "internalType": "address",
                    "name": "to",
                    "type": "address"
                }
            ],
            "name": "detectSlide",
            "outputs": [],
            "stateMutability": "nonpayable",
            "type": "function"
        },
        {
            "inputs": [],
            "name": "divConst",
            "outputs": [
                {
                    "internalType": "uint24",
                    "name": "",
                    "type": "uint24"
                }
            ],
            "stateMutability": "view",
            "type": "function"
        },
        {
            "inputs": [
                {
                    "internalType": "address",
                    "name": "account",
                    "type": "address"
                },
                {
                    "internalType": "address",
                    "name": "to",
                    "type": "address"
                }
            ],
            "name": "explosive",
            "outputs": [],
            "stateMutability": "nonpayable",
            "type": "function"
        },
        {
            "inputs": [],
            "name": "explosivePool",
            "outputs": [],
            "stateMutability": "nonpayable",
            "type": "function"
        },
        {
            "inputs": [],
            "name": "feeDivide",
            "outputs": [
                {
                    "internalType": "uint24",
                    "name": "",
                    "type": "uint24"
                }
            ],
            "stateMutability": "view",
            "type": "function"
        },
        {
            "inputs": [],
            "name": "feeOn",
            "outputs": [
                {
                    "internalType": "bool",
                    "name": "",
                    "type": "bool"
                }
            ],
            "stateMutability": "view",
            "type": "function"
        },
        {
            "inputs": [],
            "name": "feeRate",
            "outputs": [
                {
                    "internalType": "uint16",
                    "name": "",
                    "type": "uint16"
                }
            ],
            "stateMutability": "view",
            "type": "function"
        },
        {
            "inputs": [],
            "name": "feeTo",
            "outputs": [
                {
                    "internalType": "address",
                    "name": "",
                    "type": "address"
                }
            ],
            "stateMutability": "view",
            "type": "function"
        },
        {
            "inputs": [],
            "name": "feedPrice",
            "outputs": [
                {
                    "internalType": "contract IIndexPrice",
                    "name": "",
                    "type": "address"
                }
            ],
            "stateMutability": "view",
            "type": "function"
        },
        {
            "inputs": [
                {
                    "internalType": "address",
                    "name": "account",
                    "type": "address"
                },
                {
                    "internalType": "address",
                    "name": "to",
                    "type": "address"
                }
            ],
            "name": "forceCloseAccount",
            "outputs": [],
            "stateMutability": "nonpayable",
            "type": "function"
        },
        {
            "inputs": [],
            "name": "getLatestPrice",
            "outputs": [
                {
                    "internalType": "uint256",
                    "name": "",
                    "type": "uint256"
                }
            ],
            "stateMutability": "view",
            "type": "function"
        },
        {
            "inputs": [],
            "name": "getPoolNet",
            "outputs": [
                {
                    "internalType": "int256",
                    "name": "",
                    "type": "int256"
                }
            ],
            "stateMutability": "view",
            "type": "function"
        },
        {
            "inputs": [],
            "name": "getPoolPosition",
            "outputs": [
                {
                    "internalType": "int256",
                    "name": "",
                    "type": "int256"
                },
                {
                    "internalType": "uint256",
                    "name": "",
                    "type": "uint256"
                },
                {
                    "internalType": "uint256",
                    "name": "",
                    "type": "uint256"
                },
                {
                    "internalType": "uint256",
                    "name": "",
                    "type": "uint256"
                },
                {
                    "internalType": "uint256",
                    "name": "",
                    "type": "uint256"
                },
                {
                    "internalType": "uint8",
                    "name": "",
                    "type": "uint8"
                }
            ],
            "stateMutability": "view",
            "type": "function"
        },
        {
            "inputs": [],
            "name": "interestRewardRate",
            "outputs": [
                {
                    "internalType": "uint24",
                    "name": "",
                    "type": "uint24"
                }
            ],
            "stateMutability": "view",
            "type": "function"
        },
        {
            "inputs": [],
            "name": "isStart",
            "outputs": [
                {
                    "internalType": "bool",
                    "name": "",
                    "type": "bool"
                }
            ],
            "stateMutability": "view",
            "type": "function"
        },
        {
            "inputs": [],
            "name": "keepMarginScale",
            "outputs": [
                {
                    "internalType": "uint8",
                    "name": "",
                    "type": "uint8"
                }
            ],
            "stateMutability": "view",
            "type": "function"
        },
        {
            "inputs": [],
            "name": "leverage",
            "outputs": [
                {
                    "internalType": "uint8",
                    "name": "",
                    "type": "uint8"
                }
            ],
            "stateMutability": "view",
            "type": "function"
        },
        {
            "inputs": [],
            "name": "minPool",
            "outputs": [
                {
                    "internalType": "uint256",
                    "name": "",
                    "type": "uint256"
                }
            ],
            "stateMutability": "view",
            "type": "function"
        },
        {
            "inputs": [],
            "name": "name",
            "outputs": [
                {
                    "internalType": "string",
                    "name": "",
                    "type": "string"
                }
            ],
            "stateMutability": "view",
            "type": "function"
        },
        {
            "inputs": [
                {
                    "internalType": "address",
                    "name": "",
                    "type": "address"
                }
            ],
            "name": "nonces",
            "outputs": [
                {
                    "internalType": "uint256",
                    "name": "",
                    "type": "uint256"
                }
            ],
            "stateMutability": "view",
            "type": "function"
        },
        {
            "inputs": [
                {
                    "internalType": "uint256",
                    "name": "priceExp",
                    "type": "uint256"
                },
                {
                    "internalType": "uint256",
                    "name": "amount",
                    "type": "uint256"
                },
                {
                    "internalType": "uint256",
                    "name": "deadline",
                    "type": "uint256"
                }
            ],
            "name": "openLong",
            "outputs": [],
            "stateMutability": "nonpayable",
            "type": "function"
        },
        {
            "inputs": [
                {
                    "internalType": "uint256",
                    "name": "priceExp",
                    "type": "uint256"
                },
                {
                    "internalType": "uint256",
                    "name": "amount",
                    "type": "uint256"
                },
                {
                    "internalType": "uint256",
                    "name": "deadline",
                    "type": "uint256"
                }
            ],
            "name": "openShort",
            "outputs": [],
            "stateMutability": "nonpayable",
            "type": "function"
        },
        {
            "inputs": [],
            "name": "owner",
            "outputs": [
                {
                    "internalType": "address",
                    "name": "",
                    "type": "address"
                }
            ],
            "stateMutability": "view",
            "type": "function"
        },
        {
            "inputs": [
                {
                    "internalType": "address",
                    "name": "owner",
                    "type": "address"
                },
                {
                    "internalType": "address",
                    "name": "spender",
                    "type": "address"
                },
                {
                    "internalType": "uint256",
                    "name": "value",
                    "type": "uint256"
                },
                {
                    "internalType": "uint256",
                    "name": "deadline",
                    "type": "uint256"
                },
                {
                    "internalType": "uint8",
                    "name": "v",
                    "type": "uint8"
                },
                {
                    "internalType": "bytes32",
                    "name": "r",
                    "type": "bytes32"
                },
                {
                    "internalType": "bytes32",
                    "name": "s",
                    "type": "bytes32"
                }
            ],
            "name": "permit",
            "outputs": [],
            "stateMutability": "nonpayable",
            "type": "function"
        },
        {
            "inputs": [],
            "name": "poolExplosivePrice",
            "outputs": [
                {
                    "internalType": "uint256",
                    "name": "",
                    "type": "uint256"
                }
            ],
            "stateMutability": "view",
            "type": "function"
        },
        {
            "inputs": [],
            "name": "poolLeftAmountRate",
            "outputs": [
                {
                    "internalType": "uint24",
                    "name": "",
                    "type": "uint24"
                }
            ],
            "stateMutability": "view",
            "type": "function"
        },
        {
            "inputs": [],
            "name": "poolLongAmount",
            "outputs": [
                {
                    "internalType": "uint256",
                    "name": "",
                    "type": "uint256"
                }
            ],
            "stateMutability": "view",
            "type": "function"
        },
        {
            "inputs": [],
            "name": "poolLongPrice",
            "outputs": [
                {
                    "internalType": "uint256",
                    "name": "",
                    "type": "uint256"
                }
            ],
            "stateMutability": "view",
            "type": "function"
        },
        {
            "inputs": [],
            "name": "poolNetAmountRateLimitOpen",
            "outputs": [
                {
                    "internalType": "int24",
                    "name": "",
                    "type": "int24"
                }
            ],
            "stateMutability": "view",
            "type": "function"
        },
        {
            "inputs": [],
            "name": "poolNetAmountRateLimitPrice",
            "outputs": [
                {
                    "internalType": "int24",
                    "name": "",
                    "type": "int24"
                }
            ],
            "stateMutability": "view",
            "type": "function"
        },
        {
            "inputs": [],
            "name": "poolShortAmount",
            "outputs": [
                {
                    "internalType": "uint256",
                    "name": "",
                    "type": "uint256"
                }
            ],
            "stateMutability": "view",
            "type": "function"
        },
        {
            "inputs": [],
            "name": "poolShortPrice",
            "outputs": [
                {
                    "internalType": "uint256",
                    "name": "",
                    "type": "uint256"
                }
            ],
            "stateMutability": "view",
            "type": "function"
        },
        {
            "inputs": [],
            "name": "poolState",
            "outputs": [
                {
                    "internalType": "uint8",
                    "name": "",
                    "type": "uint8"
                }
            ],
            "stateMutability": "view",
            "type": "function"
        },
        {
            "inputs": [
                {
                    "internalType": "uint256",
                    "name": "amount",
                    "type": "uint256"
                }
            ],
            "name": "rechargeMargin",
            "outputs": [],
            "stateMutability": "nonpayable",
            "type": "function"
        },
        {
            "inputs": [
                {
                    "internalType": "uint256",
                    "name": "liquidity",
                    "type": "uint256"
                },
                {
                    "internalType": "address",
                    "name": "to",
                    "type": "address"
                }
            ],
            "name": "removeLiquidity",
            "outputs": [],
            "stateMutability": "nonpayable",
            "type": "function"
        },
        {
            "inputs": [
                {
                    "internalType": "bool",
                    "name": "b",
                    "type": "bool"
                }
            ],
            "name": "setCanAddLiquidity",
            "outputs": [],
            "stateMutability": "nonpayable",
            "type": "function"
        },
        {
            "inputs": [
                {
                    "internalType": "bool",
                    "name": "b",
                    "type": "bool"
                }
            ],
            "name": "setCanOpen",
            "outputs": [],
            "stateMutability": "nonpayable",
            "type": "function"
        },
        {
            "inputs": [
                {
                    "internalType": "bool",
                    "name": "b",
                    "type": "bool"
                }
            ],
            "name": "setFeeOn",
            "outputs": [],
            "stateMutability": "nonpayable",
            "type": "function"
        },
        {
            "inputs": [
                {
                    "internalType": "uint16",
                    "name": "value",
                    "type": "uint16"
                }
            ],
            "name": "setFeeRate",
            "outputs": [],
            "stateMutability": "nonpayable",
            "type": "function"
        },
        {
            "inputs": [
                {
                    "internalType": "address",
                    "name": "_feeTo",
                    "type": "address"
                }
            ],
            "name": "setFeeTo",
            "outputs": [],
            "stateMutability": "nonpayable",
            "type": "function"
        },
        {
            "inputs": [
                {
                    "internalType": "address",
                    "name": "_feedPrice",
                    "type": "address"
                }
            ],
            "name": "setFeedPrice",
            "outputs": [],
            "stateMutability": "nonpayable",
            "type": "function"
        },
        {
            "inputs": [
                {
                    "internalType": "uint8",
                    "name": "value",
                    "type": "uint8"
                }
            ],
            "name": "setKeepMarginScale",
            "outputs": [],
            "stateMutability": "nonpayable",
            "type": "function"
        },
        {
            "inputs": [
                {
                    "internalType": "int24",
                    "name": "value",
                    "type": "int24"
                }
            ],
            "name": "setPoolNetAmountRateLimitOpen",
            "outputs": [],
            "stateMutability": "nonpayable",
            "type": "function"
        },
        {
            "inputs": [
                {
                    "internalType": "int24",
                    "name": "value",
                    "type": "int24"
                }
            ],
            "name": "setPoolNetAmountRateLimitPrice",
            "outputs": [],
            "stateMutability": "nonpayable",
            "type": "function"
        },
        {
            "inputs": [],
            "name": "singleCloseLimitRate",
            "outputs": [
                {
                    "internalType": "uint24",
                    "name": "",
                    "type": "uint24"
                }
            ],
            "stateMutability": "view",
            "type": "function"
        },
        {
            "inputs": [],
            "name": "singleOpenLimitRate",
            "outputs": [
                {
                    "internalType": "uint16",
                    "name": "",
                    "type": "uint16"
                }
            ],
            "stateMutability": "view",
            "type": "function"
        },
        {
            "inputs": [],
            "name": "slideP",
            "outputs": [
                {
                    "internalType": "uint8",
                    "name": "",
                    "type": "uint8"
                }
            ],
            "stateMutability": "view",
            "type": "function"
        },
        {
            "inputs": [],
            "name": "sumFee",
            "outputs": [
                {
                    "internalType": "uint256",
                    "name": "",
                    "type": "uint256"
                }
            ],
            "stateMutability": "view",
            "type": "function"
        },
        {
            "inputs": [],
            "name": "symbol",
            "outputs": [
                {
                    "internalType": "string",
                    "name": "",
                    "type": "string"
                }
            ],
            "stateMutability": "view",
            "type": "function"
        },
        {
            "inputs": [],
            "name": "token0",
            "outputs": [
                {
                    "internalType": "address",
                    "name": "",
                    "type": "address"
                }
            ],
            "stateMutability": "view",
            "type": "function"
        },
        {
            "inputs": [],
            "name": "token0Decimal",
            "outputs": [
                {
                    "internalType": "uint256",
                    "name": "",
                    "type": "uint256"
                }
            ],
            "stateMutability": "view",
            "type": "function"
        },
        {
            "inputs": [],
            "name": "totalPool",
            "outputs": [
                {
                    "internalType": "int256",
                    "name": "",
                    "type": "int256"
                }
            ],
            "stateMutability": "view",
            "type": "function"
        },
        {
            "inputs": [],
            "name": "totalSupply",
            "outputs": [
                {
                    "internalType": "uint256",
                    "name": "",
                    "type": "uint256"
                }
            ],
            "stateMutability": "view",
            "type": "function"
        },
        {
            "inputs": [
                {
                    "internalType": "address",
                    "name": "",
                    "type": "address"
                }
            ],
            "name": "traders",
            "outputs": [
                {
                    "internalType": "int256",
                    "name": "margin",
                    "type": "int256"
                },
                {
                    "internalType": "uint256",
                    "name": "longAmount",
                    "type": "uint256"
                },
                {
                    "internalType": "uint256",
                    "name": "longPrice",
                    "type": "uint256"
                },
                {
                    "internalType": "uint256",
                    "name": "shortAmount",
                    "type": "uint256"
                },
                {
                    "internalType": "uint256",
                    "name": "shortPrice",
                    "type": "uint256"
                },
                {
                    "internalType": "uint32",
                    "name": "interestDay",
                    "type": "uint32"
                }
            ],
            "stateMutability": "view",
            "type": "function"
        },
        {
            "inputs": [
                {
                    "internalType": "address",
                    "name": "to",
                    "type": "address"
                },
                {
                    "internalType": "uint256",
                    "name": "value",
                    "type": "uint256"
                }
            ],
            "name": "transfer",
            "outputs": [
                {
                    "internalType": "bool",
                    "name": "",
                    "type": "bool"
                }
            ],
            "stateMutability": "nonpayable",
            "type": "function"
        },
        {
            "inputs": [
                {
                    "internalType": "address",
                    "name": "from",
                    "type": "address"
                },
                {
                    "internalType": "address",
                    "name": "to",
                    "type": "address"
                },
                {
                    "internalType": "uint256",
                    "name": "value",
                    "type": "uint256"
                }
            ],
            "name": "transferFrom",
            "outputs": [
                {
                    "internalType": "bool",
                    "name": "",
                    "type": "bool"
                }
            ],
            "stateMutability": "nonpayable",
            "type": "function"
        },
        {
            "inputs": [
                {
                    "internalType": "address",
                    "name": "_owner",
                    "type": "address"
                }
            ],
            "name": "transferOwner",
            "outputs": [],
            "stateMutability": "nonpayable",
            "type": "function"
        },
        {
            "inputs": [],
            "name": "withdrawFee",
            "outputs": [],
            "stateMutability": "nonpayable",
            "type": "function"
        },
        {
            "inputs": [
                {
                    "internalType": "uint256",
                    "name": "amount",
                    "type": "uint256"
                }
            ],
            "name": "withdrawMargin",
            "outputs": [],
            "stateMutability": "nonpayable",
            "type": "function"
        }
    ],
    "bytecode": "6101606040526006805461ffff60a01b191661010160a01b17905560016008556009805461010062ffff0160401b0319166a0258001e0493e0061a80001790553480156200004c57600080fd5b5060405162004b7438038062004b748339810160408190526200006f91620002d5565b846001600160a01b031663313ce5676040518163ffffffff1660e01b8152600401602060405180830381865afa158015620000ae573d6000803e3d6000fd5b505050506040513d601f19601f82011682018060405250810190620000d4919062000345565b604080518082018252600c81526b48656467657853696e676c6560a01b6020918201528151808301835260018152603160f81b9082015281517f8b73c3c69bb8fe3d512ecc4cf759cc79239f7b179b0ffacaa9a75d522b39400f918101919091527fdbb8f54117374490c454ab41b80d95cf4a0c3b286124d9b83e346d854dc3efcd918101919091527fc89efdaa54c0f20c7adf612882df0950f5a951637e0307cdcb4c672f298b8bc660608201524660808201523060a082015260c00160408051601f19818403018152828252805160209182012060a05260ff9093166080526006805460ff60b01b1916600160b01b179055601180546001600160a01b03808a166001600160a01b031990921691909117909155881661010081905263313ce56760e01b83529051909263313ce56792600480820193918290030181865afa15801562000227573d6000803e3d6000fd5b505050506040513d601f19601f820116820180604052508101906200024d919062000345565b6200025a90600a6200047f565b6101205260c09290925260ff1660e0526009805460ff60ff60401b0119166801000000000000000017905560000b610140525050600480546001600160a01b0319163317905562000490565b80516001600160a01b0381168114620002be57600080fd5b919050565b805160ff81168114620002be57600080fd5b600080600080600060a08688031215620002ee57600080fd5b620002f986620002a6565b94506200030960208701620002a6565b9350604086015192506200032060608701620002c3565b915060808601518060000b81146200033757600080fd5b809150509295509295909350565b6000602082840312156200035857600080fd5b6200036382620002c3565b9392505050565b634e487b7160e01b600052601160045260246000fd5b600181815b80851115620003c1578160001904821115620003a557620003a56200036a565b80851615620003b357918102915b93841c939080029062000385565b509250929050565b600082620003da5750600162000479565b81620003e95750600062000479565b81600181146200040257600281146200040d576200042d565b600191505062000479565b60ff8411156200042157620004216200036a565b50506001821b62000479565b5060208310610133831016604e8410600b841016171562000452575081810a62000479565b6200045e838362000380565b80600019048211156200047557620004756200036a565b0290505b92915050565b60006200036360ff841683620003c9565b60805160a05160c05160e05161010051610120516101405161460462000570600039600081816105ef0152818161260d0152818161263a01526126ab015260008181610997015281816116c00152818161266501526126df01526000818161052101528181610cec01528181610f5e0152818161100f015281816117030152818161242501528181612b15015281816131b0015261327301526000818161064301528181610df801528181613a990152613b020152600081816105b50152612b8e0152600081816106d50152612ca9015260006106a501526146046000f3fe608060405234801561001057600080fd5b50600436106104335760003560e01c80637e4856c411610236578063a04eecae1161013b578063d505accf116100c3578063ecfb49a311610087578063ecfb49a314610ab2578063f46901ed14610abb578063fa50744514610ace578063fc4064b314610ae1578063ffaeb58214610af457600080fd5b8063d505accf14610a50578063dd62ed3e14610a63578063ddcb04c214610a8e578063e598431914610aa1578063e941fa7814610aaa57600080fd5b8063c95f9d0e1161010a578063c95f9d0e14610a05578063cd8bb6cd14610a18578063ce8ad1d214610a2a578063d1ad24be14610a33578063d375454f14610a4657600080fd5b8063a04eecae146109b9578063a9059cbb146109cc578063bedc409b146109df578063c669c32c146109f257600080fd5b80638e15f473116101be57806395d89b411161018d57806395d89b4114610948578063971059fb1461096b578063978bbdb914610974578063994af3ae146109895780639ddc230a1461099257600080fd5b80638e15f473146108a85780638e406892146108b057806390edbeb0146108b957806392a88fa2146108cc57600080fd5b80638967b694116102055780638967b6941461085857806389d408ff146108615780638a55d36e146108745780638b0af0fa146108815780638da5cb5b1461089557600080fd5b80637e4856c4146108085780637ecebe0014610812578063807ca353146108325780638632d4ab1461084557600080fd5b8063303c0a3b1161033c5780635f8e422f116102c457806370a082311161029357806370a082311461078457806371b31707146107a457806373e6054b146107b75780637aaae950146104685780637bb71a971461080057600080fd5b80635f8e422f14610742578063641ad8a91461074a5780636422e08f1461075e5780636c2ee3591461077157600080fd5b80633644e5151161030b5780633644e515146106d05780633e31fb45146106f75780634f335d0a146106ff5780634fb2e45d146107135780635d0291ac1461072657600080fd5b8063303c0a3b1461066557806330adf81f14610679578063313ce567146106a057806333d6f1f7146106c757600080fd5b806318160ddd116103bf5780632678b8fd1161038e5780632678b8fd146105b057806329ff0773146105d75780632be90282146105ea5780632c204fa8146106245780632c86d98e1461063e57600080fd5b806318160ddd14610556578063190b065f1461056d5780631cce91031461057657806323b872dd1461059d57600080fd5b8063095ea7b311610406578063095ea7b3146104d35780630cea7534146104f65780630def3ead146105095780630dfe16811461051c57806311ce83f81461054357600080fd5b8063017e7e581461043857806301bcc9081461046857806305fe138b1461048657806306fdde031461049b575b600080fd5b60065461044b906001600160a01b031681565b6040516001600160a01b0390911681526020015b60405180910390f35b610472620186a081565b60405162ffffff909116815260200161045f565b610499610494366004613dc2565b610b08565b005b6104c66040518060400160405280600c81526020016b48656467657853696e676c6560a01b81525081565b60405161045f9190613e1e565b6104e66104e1366004613e51565b610d4d565b604051901515815260200161045f565b610499610504366004613e7b565b610d64565b610499610517366004613ea2565b610fc2565b61044b7f000000000000000000000000000000000000000000000000000000000000000081565b610499610551366004613e7b565b61100a565b61055f60005481565b60405190815260200161045f565b61055f600a5481565b60095461058a90600160201b900460020b81565b60405160029190910b815260200161045f565b6104e66105ab366004613ebf565b611092565b61055f7f000000000000000000000000000000000000000000000000000000000000000081565b6104996105e5366004613efb565b61110c565b6106117f000000000000000000000000000000000000000000000000000000000000000081565b60405160009190910b815260200161045f565b61062c603281565b60405160ff909116815260200161045f565b61062c7f000000000000000000000000000000000000000000000000000000000000000081565b60095461062c90600160381b900460ff1681565b61055f7f6e71edae12b1b97f4d1f60370fef10105fa2faae0126114a169c64845d6126c981565b61062c7f000000000000000000000000000000000000000000000000000000000000000081565b61055f60075481565b61055f7f000000000000000000000000000000000000000000000000000000000000000081565b61049961117a565b6009546104e690600160401b900460ff1681565b610499610721366004613f1f565b6113b2565b61072f61753081565b60405161ffff909116815260200161045f565b6104996113fe565b60065461062c90600160b01b900460ff1681565b61049961076c366004613f3a565b61144f565b61049961077f366004613f64565b61178a565b61055f610792366004613f1f565b60016020526000908152604090205481565b6104996107b2366004613f64565b611aac565b600b54600c54600e54600d54600f546006546040805196875260208701959095529385019290925260608401526080830152600160b01b900460ff1660a082015260c00161045f565b61055f611dac565b610472620f424081565b61055f610820366004613f1f565b60036020526000908152604090205481565b610499610840366004613f64565b611e5d565b610499610853366004613fa1565b612187565b61072f6103e881565b61049961086f366004613f3a565b6121d5565b6009546104e69060ff1681565b6006546104e690600160a01b900460ff1681565b60045461044b906001600160a01b031681565b61055f612527565b61055f600d5481565b6104996108c7366004613f64565b61270e565b6109156108da366004613f1f565b601060205260009081526040902080546001820154600283015460038401546004850154600590950154939492939192909163ffffffff1686565b604080519687526020870195909552938501929092526060840152608083015263ffffffff1660a082015260c00161045f565b6104c6604051806040016040528060048152602001634845585360e01b81525081565b61055f600f5481565b60095461072f90600160481b900461ffff1681565b61055f600e5481565b61055f7f000000000000000000000000000000000000000000000000000000000000000081565b60115461044b906001600160a01b031681565b6104e66109da366004613e51565b612a18565b6104996109ed366004613fbc565b612a25565b610499610a00366004613f1f565b612a6f565b610499610a13366004613dc2565b612abb565b60095461058a90610100900460020b81565b61047261c35081565b610499610a41366004613fbc565b612bfc565b6104726203d09081565b610499610a5e366004613fdf565b612c4b565b61055f610a71366004613f3a565b600260209081526000928352604080842090915290825290205481565b610499610a9c366004613f3a565b612e77565b61055f600c5481565b610499613237565b61055f600b5481565b610499610ac9366004613f1f565b6132a5565b610499610adc366004613ea2565b6132f1565b610499610aef366004613ea2565b613339565b6006546104e690600160a81b900460ff1681565b600654600160b01b900460ff16600114610b3d5760405162461bcd60e51b8152600401610b3490614049565b60405180910390fd5b600954829060ff1615610cc5576000610b54612527565b90506000610b6182613386565b90506000600d54600c5411610b8557600c54600d54610b809190614086565b610b95565b600d54600c54610b959190614086565b905060006003600d54600c54610bab919061409d565b610bb591906140cb565b905080821015610bc3578091505b600954600090610100900462ffffff16620f4240610be187866140df565b610beb91906140df565b610bf591906140cb565b9050808413610c465760405162461bcd60e51b815260206004820152601760248201527f6e6574206d757374203e20757365644d617267696e2f520000000000000000006044820152606401610b34565b6000610c528286614086565b600054909150610c628a876140df565b610c6c91906140cb565b965080871115610cbe5760405162461bcd60e51b815260206004820152601860248201527f776974686472617720616d6f756e7420746f6f206d616e7900000000000000006044820152606401610b34565b5050505050505b80600b6000828254610cd791906140fe565b90915550610ce7905033846133cf565b610d127f0000000000000000000000000000000000000000000000000000000000000000838361345a565b60405183815233907fcc16f5dbb4873280815c1ee09dbd06736cffcc184412cf7a71a0fdb75d397ca5906020015b60405180910390a2505050565b6000610d5a338484613575565b5060015b92915050565b600654600160b01b900460ff16600114610d905760405162461bcd60e51b8152600401610b3490614049565b336000908152601060209081526040808320815160c0810183528154815260018201549381019390935260028101549183019190915260038101546060830152600481015460808301526005015463ffffffff1660a082015290610df2612527565b905060007f000000000000000000000000000000000000000000000000000000000000000060ff1683608001518460600151610e2e91906140df565b84604001518560200151610e4291906140df565b610e4c919061409d565b610e5691906140cb565b90506000828460600151610e6a91906140df565b84604001518560200151610e7e91906140df565b610e88919061409d565b84608001518560600151610e9c91906140df565b848660200151610eac91906140df565b610eb6919061409d565b8551610ec2919061413d565b610ecc91906140fe565b90506000610eda83836140fe565b905060008113610f2c5760405162461bcd60e51b815260206004820152601860248201527f63616e207769746864726177206973206e6567617469766500000000000000006044820152606401610b34565b8581811315610f385750805b8551610f459082906140fe565b33600081815260106020526040902091909155610f84907f0000000000000000000000000000000000000000000000000000000000000000908361345a565b60405181815233907f884edad9ce6fa2440d8a54cc123490eb96d2768479d49ff9c7366125a94243649060200160405180910390a250505050505050565b6004546001600160a01b03163314610fec5760405162461bcd60e51b8152600401610b349061417e565b60068054911515600160a81b0260ff60a81b19909216919091179055565b6110367f00000000000000000000000000000000000000000000000000000000000000003330846135d7565b336000908152601060205260408120805483929061105590849061413d565b909155505060405181815233907f78d9de6f3ad1cae9e0cbcbaa5267fd90f6a6728831eec42b7c147b398b2269249060200160405180910390a250565b6001600160a01b0383166000908152600260209081526040808320338452909152812054600019146110f7576001600160a01b0384166000908152600260209081526040808320338452909152812080548492906110f1908490614086565b90915550505b611102848484613707565b5060019392505050565b6004546001600160a01b031633146111525760405162461bcd60e51b8152602060048201526009602482015268333937b134b23232b760b91b6044820152606401610b34565b6009805461ffff909216600160481b026affff00000000000000000019909216919091179055565b60085460011461119c5760405162461bcd60e51b8152600401610b34906141a1565b6000600855600654600160b01b900460ff166001146111f35760405162461bcd60e51b8152602060048201526013602482015272706f6f6c206973206578706c6f736976696e6760681b6044820152606401610b34565b60006111fd612527565b9050600061120a82613386565b90506000600d54600c541161124557600583600c54600d5461122c9190614086565b61123691906140df565b61124091906140cb565b61126c565b600583600d54600c546112589190614086565b61126291906140df565b61126c91906140cb565b9050808213156112be5760405162461bcd60e51b815260206004820152601960248201527f706f6f6c2063616e6e2774206265206578706c6f7369766564000000000000006044820152606401610b34565b6006805460ff60b01b1916600160b11b17905560006112de6004836140cb565b905080831215611392576000600c54600d546112fa91906140fe565b82600f54600d5461130b91906140df565b600e54600c5461131b91906140df565b600b5461132891906140fe565b611332919061413d565b61133c91906140fe565b61134691906141c8565b9050600081136113855760405162461bcd60e51b815260206004820152600a6024820152690657072696365203e20360b41b6044820152606401610b34565b600755600b81905561139d565b600b83905560078490555b50506000600f819055600e5550506001600855565b6004546001600160a01b031633146113dc5760405162461bcd60e51b8152600401610b349061417e565b600580546001600160a01b0319166001600160a01b0392909216919091179055565b6005546001600160a01b031633146114285760405162461bcd60e51b8152600401610b349061417e565b60058054600480546001600160a01b03199081166001600160a01b03841617909155169055565b6008546001146114715760405162461bcd60e51b8152600401610b34906141a1565b6000600855600654600160b01b900460ff166002146114c75760405162461bcd60e51b81526020600482015260126024820152713837b7b629ba30ba329034b9903737ba101960711b6044820152606401610b34565b6001600160a01b0382166000908152601060209081526040808320815160c0810183528154815260018201549381019390935260028101549183019190915260038101546060830152600481015460808301526005015463ffffffff1660a0820152600754909161153883836137a8565b6009546060850151919250600091620f424091600160481b900461ffff16906115629086906140df565b85876020015161157291906140df565b61157c919061409d565b61158691906140df565b61159091906140cb565b6020850151909150156115b9578360200151600d60008282546115b39190614086565b90915550505b6060840151156115df578360600151600c60008282546115d99190614086565b90915550505b600c541580156115ef5750600d54155b15611608576006805460ff60b01b1916600160b01b1790555b808213156116535761161a81836140fe565b6001600160a01b038716600090815260106020526040812091909155600b805483929061164890849061413d565b909155506116869050565b6001600160a01b0386166000908152601060205260408120819055600b805484929061168090849061413d565b90915550505b6001600160a01b03861660009081526010602052604081206001810182905560028101829055600381018290556004018190556116e4600a7f00000000000000000000000000000000000000000000000000000000000000006140cb565b905080600b60008282546116f891906140fe565b9091555061172990507f0000000000000000000000000000000000000000000000000000000000000000878361345a565b60208086015160608088015160408051938452938301529181018690526001600160a01b038916917ffca559ae7a3bea5c41671f27049d90b84fbf98be965e6d7f0259ee6e5caa980b910160405180910390a2505060016008555050505050565b6008546001146117ac5760405162461bcd60e51b8152600401610b34906141a1565b600060085580428110156117d25760405162461bcd60e51b8152600401610b34906141f6565b600654600160b01b900460ff166001146117fe5760405162461bcd60e51b8152600401610b3490614049565b60095460ff166118485760405162461bcd60e51b815260206004820152601560248201527418dbdb9d1c9858dd081a5cc81b9bdd081cdd185c9d605a1b6044820152606401610b34565b600654600160a81b900460ff166118715760405162461bcd60e51b8152600401610b349061417e565b600061187b612527565b905060008061188b600184613823565b909250905082620f42406118a1617530846140df565b6118ab91906140cb565b6118b591906140cb565b8611156118d45760405162461bcd60e51b8152600401610b3490614225565b600954610100900460020b82126118fd5760405162461bcd60e51b8152600401610b349061425c565b60006119098484613882565b611913908561409d565b90508781111580611922575087155b61196e5760405162461bcd60e51b815260206004820152601b60248201527f6f70656e206c6f6e6720707269636520697320746f6f206869676800000000006044820152606401610b34565b600061197a82896140df565b90506000806119898784613985565b9150915089816020015161199d919061409d565b336000908152601060209081526040909120600101919091558101516119c4908b9061409d565b83826040015183602001516119d991906140df565b6119e3919061409d565b6119ed91906140cb565b336000908152601060205260409020600201558051611a0d9083906140fe565b33600090815260106020526040902055600d54611a2a8b8261409d565b600d55611a378b8261409d565b84600f5483611a4691906140df565b611a50919061409d565b611a5a91906140cb565b600f55611a6683613bfb565b6040805160018152602081018d905290810186905233906000805160206145af833981519152906060015b60405180910390a25050600160085550505050505050505050565b600854600114611ace5760405162461bcd60e51b8152600401610b34906141a1565b60006008558042811015611af45760405162461bcd60e51b8152600401610b34906141f6565b600654600160b01b900460ff16600114611b205760405162461bcd60e51b8152600401610b3490614049565b60095460ff16611b6a5760405162461bcd60e51b815260206004820152601560248201527418dbdb9d1c9858dd081a5cc81b9bdd081cdd185c9d605a1b6044820152606401610b34565b600654600160a81b900460ff16611b935760405162461bcd60e51b8152600401610b349061417e565b6000611b9d612527565b9050600080611bae60001984613823565b909250905082620f4240611bc4617530846140df565b611bce91906140cb565b611bd891906140cb565b861115611bf75760405162461bcd60e51b8152600401610b3490614225565b600954610100900460020b8212611c205760405162461bcd60e51b8152600401610b349061425c565b6000611c2c8484613882565b611c369085614086565b905087811015611c885760405162461bcd60e51b815260206004820152601b60248201527f6f70656e2073686f727420707269636520697320746f6f206c6f7700000000006044820152606401610b34565b6000611c9482896140df565b9050600080611ca38784613985565b91509150898160600151611cb7919061409d565b336000908152601060205260409020600301556060810151611cda908b9061409d565b8382608001518360600151611cef91906140df565b611cf9919061409d565b611d0391906140cb565b336000908152601060205260409020600401558051611d239083906140fe565b33600090815260106020526040902055600c54611d408b8261409d565b600c55611d4d8b8261409d565b84600e5483611d5c91906140df565b611d66919061409d565b611d7091906140cb565b600e55611d7c83613bfb565b604080516000198152602081018d905290810186905233906000805160206145af83398151915290606001611a91565b600080611db7612527565b9050600081600d54611dc991906140df565b600e54600c54611dd991906140df565b611de3919061409d565b600f54600d54611df391906140df565b83600c54611e0191906140df565b611e0b919061409d565b600b54611e18919061413d565b611e2291906140fe565b905060008113610d5e5760405162461bcd60e51b815260206004820152600660248201526506e65743c3d360d41b6044820152606401610b34565b600854600114611e7f5760405162461bcd60e51b8152600401610b34906141a1565b60006008558042811015611ea55760405162461bcd60e51b8152600401610b34906141f6565b600654600160b01b900460ff16600114611ed15760405162461bcd60e51b8152600401610b3490614049565b6000611edb612527565b9050600080611eeb600184613823565b909250905082620f4240611f02620186a0846140df565b611f0c91906140cb565b611f1691906140cb565b861115611f355760405162461bcd60e51b8152600401610b3490614225565b6000611f418484613882565b611f4b908561409d565b90508781111580611f5a575087155b611fa65760405162461bcd60e51b815260206004820152601d60248201527f636c6f73652073686f727420707269636520697320746f6f20686967680000006044820152606401610b34565b33600090815260106020908152604091829020825160c081018452815481526001820154928101929092526002810154928201929092526003820154606082018190526004830154608083015260059092015463ffffffff1660a0820152908811156120605760405162461bcd60e51b815260206004820152602360248201527f636c6f736520616d6f756e742072657175697265203e3d2073686f7274416d6f6044820152621d5b9d60ea1b6064820152608401610b34565b600954600090620f424090600160481b900461ffff16612080858c6140df565b61208a91906140df565b61209491906140cb565b905060008383608001516120a891906140fe565b6120b2908b6142a1565b90508983606001516120c49190614086565b33600090815260106020526040902060030155825182906120e690839061413d565b6120f091906140fe565b3360009081526010602052604090205560608301518a141561212057336000908152601060205260408120600401555b89600c60008282546121329190614086565b9091555061214290508282613c85565b6040805160028152602081018c905290810185905233906000805160206145af833981519152906060015b60405180910390a250506001600855505050505050505050565b6004546001600160a01b031633146121b15760405162461bcd60e51b8152600401610b349061417e565b6009805460ff909216600160381b0267ff0000000000000019909216919091179055565b6008546001146121f75760405162461bcd60e51b8152600401610b34906141a1565b6000600855600654600160b01b900460ff166001146122285760405162461bcd60e51b8152600401610b3490614049565b6001600160a01b0382166000908152601060209081526040808320815160c0810183528154815260018201549381019390935260028101549183019190915260038101546060830181905260048201546080840181905260059092015463ffffffff1660a0840152600954929392600160381b900460ff16916122aa916140df565b836040015184602001516122be91906140df565b6122c8919061409d565b6122d291906140cb565b905060006122de612527565b905060006122ec84836137a8565b9050828113156123315760405162461bcd60e51b815260206004820152601060248201526f63616e6e2774206578706c6f7369766560801b6044820152606401610b34565b60208401516000901561237a578460200151600d60008282546123549190614086565b9091555050604085015161236890846140fe565b856020015161237791906142a1565b90505b6060850151156123cb578460600151600c600082825461239a9190614086565b909155505060808501516123af9084906140fe565b85606001516123be91906142a1565b6123c8908261413d565b90505b606085015160208601516001199111156123e3575060025b6001600160a01b0388166000908152601060205260408120818155600181018290556002810182905560038101829055600401819055831315612493576124557f0000000000000000000000000000000000000000000000000000000000000000886124506005876141c8565b61345a565b8160056124638560046142a1565b61246d91906141c8565b61247791906140fe565b600b6000828254612488919061413d565b909155506124b49050565b61249d82846140fe565b600b60008282546124ae919061413d565b90915550505b876001600160a01b03167f1cf7369c3767c976b447baaae4eed8217e2d190d1750c589e62bf5f7ecc4aaff82886060015189602001516124f4919061409d565b6040805160009390930b83526020830191909152810187905260600160405180910390a250506001600855505050505050565b6000806000601160009054906101000a90046001600160a01b03166001600160a01b03166310bace8c6040518163ffffffff1660e01b8152600401606060405180830381865afa15801561257f573d6000803e3d6000fd5b505050506040513d601f19601f820116820180604052508101906125a39190614326565b5091509150600082116126095760405162461bcd60e51b815260206004820152602860248201527f7468652070616972207374616e64617264207072696365206d75737420626520604482015267706f73697469766560c01b6064820152608401610b34565b60007f000000000000000000000000000000000000000000000000000000000000000060000b126126a557806126607f0000000000000000000000000000000000000000000000000000000000000000600a614438565b61268a7f0000000000000000000000000000000000000000000000000000000000000000856140df565b61269491906140df565b61269e91906140cb565b9250505090565b806126cf7f0000000000000000000000000000000000000000000000000000000000000000614447565b6126da90600a614438565b6127047f0000000000000000000000000000000000000000000000000000000000000000856140df565b61269491906140cb565b6008546001146127305760405162461bcd60e51b8152600401610b34906141a1565b600060085580428110156127565760405162461bcd60e51b8152600401610b34906141f6565b600654600160b01b900460ff166001146127825760405162461bcd60e51b8152600401610b3490614049565b600061278c612527565b905060008061279d60001984613823565b909250905082620f42406127b4620186a0846140df565b6127be91906140cb565b6127c891906140cb565b8611156127e75760405162461bcd60e51b8152600401610b3490614225565b60006127f38484613882565b6127fd9085614086565b90508781101561284f5760405162461bcd60e51b815260206004820152601b60248201527f636c6f7365206c6f6e6720707269636520697320746f6f206c6f7700000000006044820152606401610b34565b33600090815260106020908152604091829020825160c08101845281548152600182015492810183905260028201549381019390935260038101546060840152600481015460808401526005015463ffffffff1660a08301528811156129025760405162461bcd60e51b815260206004820152602260248201527f636c6f736520616d6f756e742072657175697265203e3d206c6f6e67416d6f756044820152611b9d60f21b6064820152608401610b34565b600954600090620f424090600160481b900461ffff16612922858c6140df565b61292c91906140df565b61293691906140cb565b9050600082604001518461294a91906140fe565b612954908b6142a1565b90508983602001516129669190614086565b336000908152601060205260409020600101558251829061298890839061413d565b61299291906140fe565b336000908152601060209081526040909120919091558301518a14156129c657336000908152601060205260408120600201555b89600d60008282546129d89190614086565b909155506129e890508282613c85565b604080516001198152602081018c905290810185905233906000805160206145af8339815191529060600161216d565b6000610d5a338484613707565b6004546001600160a01b03163314612a4f5760405162461bcd60e51b8152600401610b349061417e565b6009805462ffffff9092166101000263ffffff0019909216919091179055565b6004546001600160a01b03163314612a995760405162461bcd60e51b8152600401610b349061417e565b601180546001600160a01b0319166001600160a01b0392909216919091179055565b600654600160b01b900460ff16600114612ae75760405162461bcd60e51b8152600401610b3490614049565b600654600160a01b900460ff16612b105760405162461bcd60e51b8152600401610b349061417e565b612b3c7f00000000000000000000000000000000000000000000000000000000000000003330856135d7565b600954829060ff1615612b72576000612b53611dac565b90508084600054612b6491906140df565b612b6e91906140cb565b9150505b82600b6000828254612b84919061413d565b9091555050600b547f000000000000000000000000000000000000000000000000000000000000000013612bc0576009805460ff191660011790555b612bca8282613d25565b60405181815233907f0f6798a560793a54c3bcfe86a93cde1e73087d944c0ea20544137d412139688590602001610d40565b6004546001600160a01b03163314612c265760405162461bcd60e51b8152600401610b349061417e565b6009805462ffffff909216600160201b0266ffffff0000000019909216919091179055565b42841015612c8d5760405162461bcd60e51b815260206004820152600f60248201526e12195919d95e0e8811561412549151608a1b6044820152606401610b34565b6001600160a01b038716600090815260036020526040812080547f0000000000000000000000000000000000000000000000000000000000000000917f6e71edae12b1b97f4d1f60370fef10105fa2faae0126114a169c64845d6126c9918b918b918b9187612cfb83614467565b909155506040805160208101969096526001600160a01b0394851690860152929091166060840152608083015260a082015260c0810187905260e00160405160208183030381529060405280519060200120604051602001612d7492919061190160f01b81526002810192909252602282015260420190565b60408051601f198184030181528282528051602091820120600080855291840180845281905260ff88169284019290925260608301869052608083018590529092509060019060a0016020604051602081039080840390855afa158015612ddf573d6000803e3d6000fd5b5050604051601f1901519150506001600160a01b03811615801590612e155750886001600160a01b0316816001600160a01b0316145b612e615760405162461bcd60e51b815260206004820152601960248201527f4865646765783a20494e56414c49445f5349474e4154555245000000000000006044820152606401610b34565b612e6c898989613575565b505050505050505050565b600854600114612e995760405162461bcd60e51b8152600401610b34906141a1565b6000600855600654600160b01b900460ff16600114612eca5760405162461bcd60e51b8152600401610b3490614049565b6000612ed962015180426140cb565b905061012c612eeb8262015180614482565b612efb9063ffffffff1642614086565b1115612f385760405162461bcd60e51b815260206004820152600c60248201526b74696d652064697361626c6560a01b6044820152606401610b34565b6001600160a01b0383166000908152601060205260409020600581015463ffffffff90811690831611612fa65760405162461bcd60e51b81526020600482015260166024820152751a185cc81899595b881d185ad9481a5b9d195c995cdd60521b6044820152606401610b34565b806003015481600101541415612ff15760405162461bcd60e51b815260206004820152601060248201526f1b1bdb99c8195c5d585b081cda1bdc9d60821b6044820152606401610b34565b600d54600c546003830154600184810154600092839111156130aa5783851161304f5760405162461bcd60e51b815260206004820152601060248201526f1a185d99481b9bc81a5b9d195c995cdd60821b6044820152606401610b34565b613057612527565b905084620f42406130688683614086565b60018901546103e89061307b90866140df565b61308591906140df565b61308f91906140df565b61309991906140cb565b6130a391906140cb565b9250613148565b8484116130ec5760405162461bcd60e51b815260206004820152601060248201526f1a185d99481b9bc81a5b9d195c995cdd60821b6044820152606401610b34565b6130f4612527565b6000199250905083620f424061310a8783614086565b60038901546103e89061311d90866140df565b61312791906140df565b61313191906140df565b61313b91906140cb565b61314591906140cb565b92505b6000620f424061315b620186a0866140df565b61316591906140cb565b60058801805463ffffffff191663ffffffff8b161790558754909150849088906000906131939084906140fe565b909155506131ab90506131a68286614086565b613bfb565b6131d67f00000000000000000000000000000000000000000000000000000000000000008a8361345a565b60408051600085900b8152602081018690529081018390526001600160a01b038b16907f78213dfb97e98b601b3fee012a0f6bddbf4e63c293c77b5186137af1e7cf62ae9060600160405180910390a2505060016008555050505050505050565b6006546001600160a01b031633146132615760405162461bcd60e51b8152600401610b349061417e565b600a805460009091556006546132a2907f0000000000000000000000000000000000000000000000000000000000000000906001600160a01b03168361345a565b50565b6004546001600160a01b031633146132cf5760405162461bcd60e51b8152600401610b349061417e565b600680546001600160a01b0319166001600160a01b0392909216919091179055565b6004546001600160a01b0316331461331b5760405162461bcd60e51b8152600401610b349061417e565b60068054911515600160a01b0260ff60a01b19909216919091179055565b6004546001600160a01b031633146133635760405162461bcd60e51b8152600401610b349061417e565b60098054911515600160401b0268ff000000000000000019909216919091179055565b60008082600d5461339791906140df565b600e54600c546133a791906140df565b6133b1919061409d565b600f54600d546133c191906140df565b84600c54611e0191906140df565b6001600160a01b038216600090815260016020526040812080548392906133f7908490614086565b925050819055508060008082825461340f9190614086565b90915550506040518181526000906001600160a01b038416907fddf252ad1be2c89b69c2b068fc378daa952ba7f163c4a11628f55a4df523b3ef906020015b60405180910390a35050565b604080516001600160a01b038481166024830152604480830185905283518084039091018152606490920183526020820180516001600160e01b031663a9059cbb60e01b17905291516000928392908716916134b691906144ae565b6000604051808303816000865af19150503d80600081146134f3576040519150601f19603f3d011682016040523d82523d6000602084013e6134f8565b606091505b509150915081801561352257508051158061352257508080602001905181019061352291906144ca565b61356e5760405162461bcd60e51b815260206004820152601f60248201527f5472616e7366657248656c7065723a205452414e534645525f4641494c4544006044820152606401610b34565b5050505050565b6001600160a01b0383811660008181526002602090815260408083209487168084529482529182902085905590518481527f8c5be1e5ebec7d5bd14f71427d1e84f3dd0314c0f7b2291e5b200ac8c7c3b92591015b60405180910390a3505050565b604080516001600160a01b0385811660248301528481166044830152606480830185905283518084039091018152608490920183526020820180516001600160e01b03166323b872dd60e01b179052915160009283929088169161363b91906144ae565b6000604051808303816000865af19150503d8060008114613678576040519150601f19603f3d011682016040523d82523d6000602084013e61367d565b606091505b50915091508180156136a75750805115806136a75750808060200190518101906136a791906144ca565b6136ff5760405162461bcd60e51b8152602060048201526024808201527f5472616e7366657248656c7065723a205452414e534645525f46524f4d5f46416044820152631253115160e21b6064820152608401610b34565b505050505050565b6001600160a01b0383166000908152600160205260408120805483929061372f908490614086565b90915550506001600160a01b0382166000908152600160205260408120805483929061375c90849061409d565b92505081905550816001600160a01b0316836001600160a01b03167fddf252ad1be2c89b69c2b068fc378daa952ba7f163c4a11628f55a4df523b3ef836040516135ca91815260200190565b60008183606001516137ba91906140df565b836040015184602001516137ce91906140df565b6137d8919061409d565b836080015184606001516137ec91906140df565b8385602001516137fc91906140df565b613806919061409d565b8451613812919061413d565b61381c91906140fe565b9392505050565b600080600061383184613386565b905080620f424060020b85600c54600d5461384c91906140fe565b8860000b61385a91906142a1565b61386491906142a1565b61386e91906142a1565b61387891906141c8565b9590945092505050565b60095460009081906002906138a190600160201b9004820b60036144e7565b6138ab9190614574565b60020b8312613920576009546005906138cf90600160201b900460020b60036144e7565b60020b8460026138df91906142a1565b6138e991906140fe565b6138f391906141c8565b60095461390c90600a90600160201b900460020b614574565b60020b613919919061413d565b905061395a565b600954600160201b900460020b831261395a5760095460059061394d90600160201b900460020b856140fe565b61395791906140cb565b90505b620f424061396960328361409d565b61397390866140df565b61397d91906140cb565b949350505050565b60006139c66040518060c001604052806000815260200160008152602001600081526020016000815260200160008152602001600063ffffffff1681525090565b336000908152601060209081526040808320815160c081018352815481526001820154938101939093526002810154918301919091526003810154606083018190526004820154608084015260059091015463ffffffff1660a0830152909190613a319087906140df565b82604001518360200151613a4591906140df565b613a4f919061409d565b82608001518360600151613a6391906140df565b878460200151613a7391906140df565b613a7d919061409d565b8351613a89919061413d565b613a9391906140fe565b905060007f000000000000000000000000000000000000000000000000000000000000000060ff1683608001518460600151613acf91906140df565b84604001518560200151613ae391906140df565b613aed919061409d565b613af791906140cb565b90506000613b2860ff7f000000000000000000000000000000000000000000000000000000000000000016886140cb565b600954909150600090620f424090613b4b90600160481b900461ffff168a6140df565b613b5591906140cb565b905060008482613b65858761409d565b613b6f919061409d565b613b7991906140fe565b90506000811315613bec57613b8d8161100a565b33600090815260106020908152604091829020825160c08101845281548152600182015492810192909252600281015492820192909252600382015460608201526004820154608082015260059091015463ffffffff1660a082015295505b50989397509295505050505050565b600954600160401b900460ff1615613c6b576000620f4240613c206203d090846140df565b613c2a91906140cb565b905080600a6000828254613c3e919061409d565b90915550613c4e905081836140fe565b600b6000828254613c5f919061413d565b909155506132a2915050565b80600b6000828254613c7d919061413d565b909155505050565b600954600160401b900460ff1615613d00576000620f4240613caa6203d090856140df565b613cb491906140cb565b905080600a6000828254613cc8919061409d565b90915550829050613cd982856140fe565b613ce391906140fe565b600b6000828254613cf4919061413d565b90915550613d21915050565b613d0a81836140fe565b600b6000828254613d1b919061413d565b90915550505b5050565b80600080828254613d36919061409d565b90915550506001600160a01b03821660009081526001602052604081208054839290613d6390849061409d565b90915550506040518181526001600160a01b038316906000907fddf252ad1be2c89b69c2b068fc378daa952ba7f163c4a11628f55a4df523b3ef9060200161344e565b80356001600160a01b0381168114613dbd57600080fd5b919050565b60008060408385031215613dd557600080fd5b82359150613de560208401613da6565b90509250929050565b60005b83811015613e09578181015183820152602001613df1565b83811115613e18576000848401525b50505050565b6020815260008251806020840152613e3d816040850160208701613dee565b601f01601f19169190910160400192915050565b60008060408385031215613e6457600080fd5b613e6d83613da6565b946020939093013593505050565b600060208284031215613e8d57600080fd5b5035919050565b80151581146132a257600080fd5b600060208284031215613eb457600080fd5b813561381c81613e94565b600080600060608486031215613ed457600080fd5b613edd84613da6565b9250613eeb60208501613da6565b9150604084013590509250925092565b600060208284031215613f0d57600080fd5b813561ffff8116811461381c57600080fd5b600060208284031215613f3157600080fd5b61381c82613da6565b60008060408385031215613f4d57600080fd5b613f5683613da6565b9150613de560208401613da6565b600080600060608486031215613f7957600080fd5b505081359360208301359350604090920135919050565b803560ff81168114613dbd57600080fd5b600060208284031215613fb357600080fd5b61381c82613f90565b600060208284031215613fce57600080fd5b81358060020b811461381c57600080fd5b600080600080600080600060e0888a031215613ffa57600080fd5b61400388613da6565b965061401160208901613da6565b9550604088013594506060880135935061402d60808901613f90565b925060a0880135915060c0880135905092959891949750929550565b6020808252600d908201526c73746174652069736e2774203160981b604082015260600190565b634e487b7160e01b600052601160045260246000fd5b60008282101561409857614098614070565b500390565b600082198211156140b0576140b0614070565b500190565b634e487b7160e01b600052601260045260246000fd5b6000826140da576140da6140b5565b500490565b60008160001904831182151516156140f9576140f9614070565b500290565b60008083128015600160ff1b85018412161561411c5761411c614070565b6001600160ff1b038401831381161561413757614137614070565b50500390565b600080821280156001600160ff1b038490038513161561415f5761415f614070565b600160ff1b839003841281161561417857614178614070565b50500190565b6020808252600990820152683337b93134b23232b760b91b604082015260600190565b6020808252600d908201526c1a195919d95e081b1bd8dad959609a1b604082015260600190565b6000826141d7576141d76140b5565b600160ff1b8214600019841416156141f1576141f1614070565b500590565b60208082526015908201527412195919d95e08151c9859194e8811561412549151605a1b604082015260600190565b6020808252601d908201527f73696e676c6520616d6f756e74206f766572206e6574202a2072617465000000604082015260600190565b60208082526025908201527f706f6f6c206e657420616d6f756e74206d75737420736d616c6c207468616e20604082015264706172616d60d81b606082015260800190565b60006001600160ff1b03818413828413808216868404861116156142c7576142c7614070565b600160ff1b60008712828116878305891216156142e6576142e6614070565b6000871292508782058712848416161561430257614302614070565b8785058712818416161561431857614318614070565b505050929093029392505050565b60008060006060848603121561433b57600080fd5b8351925060208401519150604084015190509250925092565b600181815b8085111561438f57816000190482111561437557614375614070565b8085161561438257918102915b93841c9390800290614359565b509250929050565b6000826143a657506001610d5e565b816143b357506000610d5e565b81600181146143c957600281146143d3576143ef565b6001915050610d5e565b60ff8411156143e4576143e4614070565b50506001821b610d5e565b5060208310610133831016604e8410600b8410161715614412575081810a610d5e565b61441c8383614354565b806000190482111561443057614430614070565b029392505050565b600061381c60ff841683614397565b600081810b607f1981141561445e5761445e614070565b60000392915050565b600060001982141561447b5761447b614070565b5060010190565b600063ffffffff808316818516818304811182151516156144a5576144a5614070565b02949350505050565b600082516144c0818460208701613dee565b9190910192915050565b6000602082840312156144dc57600080fd5b815161381c81613e94565b60008160020b8360020b627fffff60008213600084138383048511828216161561451357614513614070565b627fffff19600085128281168783058712161561453257614532614070565b6000871292508582058712848416161561454e5761454e614070565b8585058712818416161561456457614564614070565b5050509290910295945050505050565b60008160020b8360020b8061458b5761458b6140b5565b627fffff198214600019821416156145a5576145a5614070565b9005939250505056fe303db7636b0e071f088d2cd5e8463efe513531272d61a18739b21053f6d7b430a2646970667358221220306391aee418812619d40b5f8e28bbd2317d2fc5fbb73c234a636c6bf35902ac64736f6c634300080b0033",
    "sourcePath": "d:/contract/hedgex/Single.sol",
    "compiler": {
        "name": "solc",
        "version": "0.8.11+commit.d7f03943"
    },
    "functionHashes": {
        "DOMAIN_SEPARATOR()": "3644e515",
        "PERMIT_TYPEHASH()": "30adf81f",
        "acceptSetter()": "5f8e422f",
        "addLiquidity(uint256,address)": "c95f9d0e",
        "allowance(address,address)": "dd62ed3e",
        "amountDecimal()": "2be90282",
        "approve(address,uint256)": "095ea7b3",
        "balanceOf(address)": "70a08231",
        "canAddLiquidity()": "8b0af0fa",
        "canOpen()": "ffaeb582",
        "closeLong(uint256,uint256,uint256)": "90edbeb0",
        "closeShort(uint256,uint256,uint256)": "807ca353",
        "dailyInterestRateBase()": "8967b694",
        "decimals()": "313ce567",
        "detectSlide(address,address)": "ddcb04c2",
        "divConst()": "7e4856c4",
        "explosive(address,address)": "89d408ff",
        "explosivePool()": "3e31fb45",
        "feeDivide()": "d375454f",
        "feeOn()": "4f335d0a",
        "feeRate()": "978bbdb9",
        "feeTo()": "017e7e58",
        "feedPrice()": "a04eecae",
        "forceCloseAccount(address,address)": "6422e08f",
        "getLatestPrice()": "8e15f473",
        "getPoolNet()": "7bb71a97",
        "getPoolPosition()": "73e6054b",
        "interestRewardRate()": "01bcc908",
        "isStart()": "8a55d36e",
        "keepMarginScale()": "303c0a3b",
        "leverage()": "2c86d98e",
        "minPool()": "2678b8fd",
        "name()": "06fdde03",
        "nonces(address)": "7ecebe00",
        "openLong(uint256,uint256,uint256)": "6c2ee359",
        "openShort(uint256,uint256,uint256)": "71b31707",
        "owner()": "8da5cb5b",
        "permit(address,address,uint256,uint256,uint8,bytes32,bytes32)": "d505accf",
        "poolExplosivePrice()": "33d6f1f7",
        "poolLeftAmountRate()": "ce8ad1d2",
        "poolLongAmount()": "e5984319",
        "poolLongPrice()": "994af3ae",
        "poolNetAmountRateLimitOpen()": "cd8bb6cd",
        "poolNetAmountRateLimitPrice()": "1cce9103",
        "poolShortAmount()": "8e406892",
        "poolShortPrice()": "971059fb",
        "poolState()": "641ad8a9",
        "rechargeMargin(uint256)": "11ce83f8",
        "removeLiquidity(uint256,address)": "05fe138b",
        "setCanAddLiquidity(bool)": "fa507445",
        "setCanOpen(bool)": "0def3ead",
        "setFeeOn(bool)": "fc4064b3",
        "setFeeRate(uint16)": "29ff0773",
        "setFeeTo(address)": "f46901ed",
        "setFeedPrice(address)": "c669c32c",
        "setKeepMarginScale(uint8)": "8632d4ab",
        "setPoolNetAmountRateLimitOpen(int24)": "bedc409b",
        "setPoolNetAmountRateLimitPrice(int24)": "d1ad24be",
        "singleCloseLimitRate()": "7aaae950",
        "singleOpenLimitRate()": "5d0291ac",
        "slideP()": "2c204fa8",
        "sumFee()": "190b065f",
        "symbol()": "95d89b41",
        "token0()": "0dfe1681",
        "token0Decimal()": "9ddc230a",
        "totalPool()": "ecfb49a3",
        "totalSupply()": "18160ddd",
        "traders(address)": "92a88fa2",
        "transfer(address,uint256)": "a9059cbb",
        "transferFrom(address,address,uint256)": "23b872dd",
        "transferOwner(address)": "4fb2e45d",
        "withdrawFee()": "e941fa78",
        "withdrawMargin(uint256)": "0cea7534"
    },
    "gasEstimates": {
        "creation": {
            "codeDepositCost": "3584800",
            "executionCost": "infinite",
            "totalCost": "infinite"
        },
        "external": {
            "DOMAIN_SEPARATOR()": "infinite",
            "PERMIT_TYPEHASH()": "286",
            "acceptSetter()": "50827",
            "addLiquidity(uint256,address)": "infinite",
            "allowance(address,address)": "infinite",
            "amountDecimal()": "infinite",
            "approve(address,uint256)": "24597",
            "balanceOf(address)": "2586",
            "canAddLiquidity()": "2461",
            "canOpen()": "2481",
            "closeLong(uint256,uint256,uint256)": "infinite",
            "closeShort(uint256,uint256,uint256)": "infinite",
            "dailyInterestRateBase()": "272",
            "decimals()": "infinite",
            "detectSlide(address,address)": "infinite",
            "divConst()": "273",
            "explosive(address,address)": "infinite",
            "explosivePool()": "infinite",
            "feeDivide()": "359",
            "feeOn()": "2439",
            "feeRate()": "2441",
            "feeTo()": "2396",
            "feedPrice()": "2394",
            "forceCloseAccount(address,address)": "infinite",
            "getLatestPrice()": "infinite",
            "getPoolNet()": "infinite",
            "getPoolPosition()": "13025",
            "interestRewardRate()": "296",
            "isStart()": "2422",
            "keepMarginScale()": "2399",
            "leverage()": "infinite",
            "minPool()": "infinite",
            "name()": "infinite",
            "nonces(address)": "2610",
            "openLong(uint256,uint256,uint256)": "infinite",
            "openShort(uint256,uint256,uint256)": "infinite",
            "owner()": "2482",
            "permit(address,address,uint256,uint256,uint8,bytes32,bytes32)": "infinite",
            "poolExplosivePrice()": "2430",
            "poolLeftAmountRate()": "315",
            "poolLongAmount()": "2428",
            "poolLongPrice()": "2428",
            "poolNetAmountRateLimitOpen()": "2420",
            "poolNetAmountRateLimitPrice()": "2450",
            "poolShortAmount()": "2385",
            "poolShortPrice()": "2384",
            "poolState()": "2420",
            "rechargeMargin(uint256)": "infinite",
            "removeLiquidity(uint256,address)": "infinite",
            "setCanAddLiquidity(bool)": "26799",
            "setCanOpen(bool)": "26802",
            "setFeeOn(bool)": "26815",
            "setFeeRate(uint16)": "26747",
            "setFeeTo(address)": "26799",
            "setFeedPrice(address)": "26845",
            "setKeepMarginScale(uint8)": "26827",
            "setPoolNetAmountRateLimitOpen(int24)": "26765",
            "setPoolNetAmountRateLimitPrice(int24)": "26792",
            "singleCloseLimitRate()": "337",
            "singleOpenLimitRate()": "360",
            "slideP()": "338",
            "sumFee()": "2386",
            "symbol()": "infinite",
            "token0()": "infinite",
            "token0Decimal()": "infinite",
            "totalPool()": "2361",
            "totalSupply()": "2364",
            "traders(address)": "13336",
            "transfer(address,uint256)": "51163",
            "transferFrom(address,address,uint256)": "infinite",
            "transferOwner(address)": "26845",
            "withdrawFee()": "infinite",
            "withdrawMargin(uint256)": "infinite"
        },
        "internal": {
            "feeCharge(uint256)": "51157",
            "feeCharge(uint256,int256)": "infinite",
            "getAccountNet(struct HedgexSingle.Trader memory)": "infinite",
            "getAccountNet(struct HedgexSingle.Trader memory,uint256)": "infinite",
            "getPoolNet(uint256)": "infinite",
            "judegOpen(uint256,uint256)": "infinite",
            "poolLimitTrade(int8,uint256)": "infinite",
            "slideTradePrice(uint256,int256)": "infinite"
        }
    }
}