{
    "contractName": "HedgexSingle",
    "abi": [
        {
            "inputs": [
                {
                    "internalType": "address",
                    "name": "_token0",
                    "type": "address"
                },
                {
                    "internalType": "address",
                    "name": "_feedPrice",
                    "type": "address"
                },
                {
                    "internalType": "uint256",
                    "name": "_feedPriceDecimal",
                    "type": "uint256"
                },
                {
                    "internalType": "uint256",
                    "name": "_minStartPool",
                    "type": "uint256"
                },
                {
                    "internalType": "uint8",
                    "name": "_leverage",
                    "type": "uint8"
                },
                {
                    "internalType": "int8",
                    "name": "_amountDecimal",
                    "type": "int8"
                }
            ],
            "stateMutability": "nonpayable",
            "type": "constructor"
        },
        {
            "anonymous": false,
            "inputs": [
                {
                    "indexed": true,
                    "internalType": "address",
                    "name": "owner",
                    "type": "address"
                },
                {
                    "indexed": true,
                    "internalType": "address",
                    "name": "spender",
                    "type": "address"
                },
                {
                    "indexed": false,
                    "internalType": "uint256",
                    "name": "value",
                    "type": "uint256"
                }
            ],
            "name": "Approval",
            "type": "event"
        },
        {
            "anonymous": false,
            "inputs": [
                {
                    "indexed": true,
                    "internalType": "address",
                    "name": "sender",
                    "type": "address"
                },
                {
                    "indexed": false,
                    "internalType": "uint256",
                    "name": "amount",
                    "type": "uint256"
                }
            ],
            "name": "Burn",
            "type": "event"
        },
        {
            "anonymous": false,
            "inputs": [
                {
                    "indexed": true,
                    "internalType": "address",
                    "name": "user",
                    "type": "address"
                },
                {
                    "indexed": false,
                    "internalType": "int8",
                    "name": "direction",
                    "type": "int8"
                },
                {
                    "indexed": false,
                    "internalType": "uint256",
                    "name": "amount",
                    "type": "uint256"
                },
                {
                    "indexed": false,
                    "internalType": "uint256",
                    "name": "price",
                    "type": "uint256"
                }
            ],
            "name": "Explosive",
            "type": "event"
        },
        {
            "anonymous": false,
            "inputs": [
                {
                    "indexed": false,
                    "internalType": "int256",
                    "name": "total",
                    "type": "int256"
                },
                {
                    "indexed": false,
                    "internalType": "uint256",
                    "name": "la",
                    "type": "uint256"
                },
                {
                    "indexed": false,
                    "internalType": "uint256",
                    "name": "lp",
                    "type": "uint256"
                },
                {
                    "indexed": false,
                    "internalType": "uint256",
                    "name": "sa",
                    "type": "uint256"
                },
                {
                    "indexed": false,
                    "internalType": "uint256",
                    "name": "sp",
                    "type": "uint256"
                },
                {
                    "indexed": false,
                    "internalType": "uint256",
                    "name": "ep",
                    "type": "uint256"
                }
            ],
            "name": "ExplosivePool",
            "type": "event"
        },
        {
            "anonymous": false,
            "inputs": [
                {
                    "indexed": true,
                    "internalType": "address",
                    "name": "account",
                    "type": "address"
                },
                {
                    "indexed": false,
                    "internalType": "uint256",
                    "name": "long",
                    "type": "uint256"
                },
                {
                    "indexed": false,
                    "internalType": "uint256",
                    "name": "short",
                    "type": "uint256"
                },
                {
                    "indexed": false,
                    "internalType": "uint256",
                    "name": "price",
                    "type": "uint256"
                }
            ],
            "name": "ForceClose",
            "type": "event"
        },
        {
            "anonymous": false,
            "inputs": [
                {
                    "indexed": true,
                    "internalType": "address",
                    "name": "sender",
                    "type": "address"
                },
                {
                    "indexed": false,
                    "internalType": "uint256",
                    "name": "amount",
                    "type": "uint256"
                }
            ],
            "name": "Mint",
            "type": "event"
        },
        {
            "anonymous": false,
            "inputs": [
                {
                    "indexed": true,
                    "internalType": "address",
                    "name": "sender",
                    "type": "address"
                },
                {
                    "indexed": false,
                    "internalType": "uint256",
                    "name": "amount",
                    "type": "uint256"
                }
            ],
            "name": "Recharge",
            "type": "event"
        },
        {
            "anonymous": false,
            "inputs": [
                {
                    "indexed": true,
                    "internalType": "address",
                    "name": "user",
                    "type": "address"
                },
                {
                    "indexed": false,
                    "internalType": "int8",
                    "name": "direction",
                    "type": "int8"
                },
                {
                    "indexed": false,
                    "internalType": "uint256",
                    "name": "amount",
                    "type": "uint256"
                },
                {
                    "indexed": false,
                    "internalType": "uint256",
                    "name": "price",
                    "type": "uint256"
                }
            ],
            "name": "TakeInterest",
            "type": "event"
        },
        {
            "anonymous": false,
            "inputs": [
                {
                    "indexed": true,
                    "internalType": "address",
                    "name": "sender",
                    "type": "address"
                },
                {
                    "indexed": false,
                    "internalType": "int8",
                    "name": "direction",
                    "type": "int8"
                },
                {
                    "indexed": false,
                    "internalType": "uint256",
                    "name": "amount",
                    "type": "uint256"
                },
                {
                    "indexed": false,
                    "internalType": "uint256",
                    "name": "price",
                    "type": "uint256"
                }
            ],
            "name": "Trade",
            "type": "event"
        },
        {
            "anonymous": false,
            "inputs": [
                {
                    "indexed": true,
                    "internalType": "address",
                    "name": "from",
                    "type": "address"
                },
                {
                    "indexed": true,
                    "internalType": "address",
                    "name": "to",
                    "type": "address"
                },
                {
                    "indexed": false,
                    "internalType": "uint256",
                    "name": "value",
                    "type": "uint256"
                }
            ],
            "name": "Transfer",
            "type": "event"
        },
        {
            "anonymous": false,
            "inputs": [
                {
                    "indexed": true,
                    "internalType": "address",
                    "name": "sender",
                    "type": "address"
                },
                {
                    "indexed": false,
                    "internalType": "uint256",
                    "name": "amount",
                    "type": "uint256"
                }
            ],
            "name": "Withdraw",
            "type": "event"
        },
        {
            "inputs": [],
            "name": "DOMAIN_SEPARATOR",
            "outputs": [
                {
                    "internalType": "bytes32",
                    "name": "",
                    "type": "bytes32"
                }
            ],
            "stateMutability": "view",
            "type": "function"
        },
        {
            "inputs": [],
            "name": "PERMIT_TYPEHASH",
            "outputs": [
                {
                    "internalType": "bytes32",
                    "name": "",
                    "type": "bytes32"
                }
            ],
            "stateMutability": "view",
            "type": "function"
        },
        {
            "inputs": [],
            "name": "acceptFeeToSetter",
            "outputs": [],
            "stateMutability": "nonpayable",
            "type": "function"
        },
        {
            "inputs": [
                {
                    "internalType": "uint256",
                    "name": "amount",
                    "type": "uint256"
                },
                {
                    "internalType": "address",
                    "name": "to",
                    "type": "address"
                }
            ],
            "name": "addLiquidity",
            "outputs": [],
            "stateMutability": "nonpayable",
            "type": "function"
        },
        {
            "inputs": [
                {
                    "internalType": "address",
                    "name": "",
                    "type": "address"
                },
                {
                    "internalType": "address",
                    "name": "",
                    "type": "address"
                }
            ],
            "name": "allowance",
            "outputs": [
                {
                    "internalType": "uint256",
                    "name": "",
                    "type": "uint256"
                }
            ],
            "stateMutability": "view",
            "type": "function"
        },
        {
            "inputs": [],
            "name": "amountDecimal",
            "outputs": [
                {
                    "internalType": "int8",
                    "name": "",
                    "type": "int8"
                }
            ],
            "stateMutability": "view",
            "type": "function"
        },
        {
            "inputs": [
                {
                    "internalType": "address",
                    "name": "spender",
                    "type": "address"
                },
                {
                    "internalType": "uint256",
                    "name": "value",
                    "type": "uint256"
                }
            ],
            "name": "approve",
            "outputs": [
                {
                    "internalType": "bool",
                    "name": "",
                    "type": "bool"
                }
            ],
            "stateMutability": "nonpayable",
            "type": "function"
        },
        {
            "inputs": [
                {
                    "internalType": "address",
                    "name": "",
                    "type": "address"
                }
            ],
            "name": "balanceOf",
            "outputs": [
                {
                    "internalType": "uint256",
                    "name": "",
                    "type": "uint256"
                }
            ],
            "stateMutability": "view",
            "type": "function"
        },
        {
            "inputs": [
                {
                    "internalType": "uint256",
                    "name": "priceExp",
                    "type": "uint256"
                },
                {
                    "internalType": "uint256",
                    "name": "amount",
                    "type": "uint256"
                },
                {
                    "internalType": "uint256",
                    "name": "deadline",
                    "type": "uint256"
                }
            ],
            "name": "closeLong",
            "outputs": [],
            "stateMutability": "nonpayable",
            "type": "function"
        },
        {
            "inputs": [
                {
                    "internalType": "uint256",
                    "name": "priceExp",
                    "type": "uint256"
                },
                {
                    "internalType": "uint256",
                    "name": "amount",
                    "type": "uint256"
                },
                {
                    "internalType": "uint256",
                    "name": "deadline",
                    "type": "uint256"
                }
            ],
            "name": "closeShort",
            "outputs": [],
            "stateMutability": "nonpayable",
            "type": "function"
        },
        {
            "inputs": [],
            "name": "dailyInterestRateBase",
            "outputs": [
                {
                    "internalType": "uint16",
                    "name": "",
                    "type": "uint16"
                }
            ],
            "stateMutability": "view",
            "type": "function"
        },
        {
            "inputs": [],
            "name": "decimals",
            "outputs": [
                {
                    "internalType": "uint8",
                    "name": "",
                    "type": "uint8"
                }
            ],
            "stateMutability": "view",
            "type": "function"
        },
        {
            "inputs": [
                {
                    "internalType": "address",
                    "name": "account",
                    "type": "address"
                },
                {
                    "internalType": "address",
                    "name": "to",
                    "type": "address"
                }
            ],
            "name": "detectSlide",
            "outputs": [],
            "stateMutability": "nonpayable",
            "type": "function"
        },
        {
            "inputs": [],
            "name": "divConst",
            "outputs": [
                {
                    "internalType": "uint24",
                    "name": "",
                    "type": "uint24"
                }
            ],
            "stateMutability": "view",
            "type": "function"
        },
        {
            "inputs": [
                {
                    "internalType": "address",
                    "name": "account",
                    "type": "address"
                },
                {
                    "internalType": "address",
                    "name": "to",
                    "type": "address"
                }
            ],
            "name": "explosive",
            "outputs": [],
            "stateMutability": "nonpayable",
            "type": "function"
        },
        {
            "inputs": [],
            "name": "explosivePool",
            "outputs": [],
            "stateMutability": "nonpayable",
            "type": "function"
        },
        {
            "inputs": [],
            "name": "feeDivide",
            "outputs": [
                {
                    "internalType": "uint24",
                    "name": "",
                    "type": "uint24"
                }
            ],
            "stateMutability": "view",
            "type": "function"
        },
        {
            "inputs": [],
            "name": "feeOn",
            "outputs": [
                {
                    "internalType": "bool",
                    "name": "",
                    "type": "bool"
                }
            ],
            "stateMutability": "view",
            "type": "function"
        },
        {
            "inputs": [],
            "name": "feeRate",
            "outputs": [
                {
                    "internalType": "uint16",
                    "name": "",
                    "type": "uint16"
                }
            ],
            "stateMutability": "view",
            "type": "function"
        },
        {
            "inputs": [],
            "name": "feeTo",
            "outputs": [
                {
                    "internalType": "address",
                    "name": "",
                    "type": "address"
                }
            ],
            "stateMutability": "view",
            "type": "function"
        },
        {
            "inputs": [],
            "name": "feeToSetter",
            "outputs": [
                {
                    "internalType": "address",
                    "name": "",
                    "type": "address"
                }
            ],
            "stateMutability": "view",
            "type": "function"
        },
        {
            "inputs": [],
            "name": "feedPrice",
            "outputs": [
                {
                    "internalType": "contract AggregatorV3Interface",
                    "name": "",
                    "type": "address"
                }
            ],
            "stateMutability": "view",
            "type": "function"
        },
        {
            "inputs": [],
            "name": "feedPriceDecimal",
            "outputs": [
                {
                    "internalType": "uint256",
                    "name": "",
                    "type": "uint256"
                }
            ],
            "stateMutability": "view",
            "type": "function"
        },
        {
            "inputs": [
                {
                    "internalType": "address",
                    "name": "account",
                    "type": "address"
                },
                {
                    "internalType": "address",
                    "name": "to",
                    "type": "address"
                }
            ],
            "name": "forceCloseAccount",
            "outputs": [],
            "stateMutability": "nonpayable",
            "type": "function"
        },
        {
            "inputs": [],
            "name": "getLatestPrice",
            "outputs": [
                {
                    "internalType": "uint256",
                    "name": "",
                    "type": "uint256"
                }
            ],
            "stateMutability": "view",
            "type": "function"
        },
        {
            "inputs": [],
            "name": "getPoolNet",
            "outputs": [
                {
                    "internalType": "int256",
                    "name": "",
                    "type": "int256"
                }
            ],
            "stateMutability": "view",
            "type": "function"
        },
        {
            "inputs": [],
            "name": "getPoolPosition",
            "outputs": [
                {
                    "internalType": "int256",
                    "name": "",
                    "type": "int256"
                },
                {
                    "internalType": "uint256",
                    "name": "",
                    "type": "uint256"
                },
                {
                    "internalType": "uint256",
                    "name": "",
                    "type": "uint256"
                },
                {
                    "internalType": "uint256",
                    "name": "",
                    "type": "uint256"
                },
                {
                    "internalType": "uint256",
                    "name": "",
                    "type": "uint256"
                },
                {
                    "internalType": "uint8",
                    "name": "",
                    "type": "uint8"
                }
            ],
            "stateMutability": "view",
            "type": "function"
        },
        {
            "inputs": [],
            "name": "interestRewardRate",
            "outputs": [
                {
                    "internalType": "uint24",
                    "name": "",
                    "type": "uint24"
                }
            ],
            "stateMutability": "view",
            "type": "function"
        },
        {
            "inputs": [],
            "name": "isStart",
            "outputs": [
                {
                    "internalType": "bool",
                    "name": "",
                    "type": "bool"
                }
            ],
            "stateMutability": "view",
            "type": "function"
        },
        {
            "inputs": [],
            "name": "leverage",
            "outputs": [
                {
                    "internalType": "uint8",
                    "name": "",
                    "type": "uint8"
                }
            ],
            "stateMutability": "view",
            "type": "function"
        },
        {
            "inputs": [],
            "name": "minPool",
            "outputs": [
                {
                    "internalType": "uint256",
                    "name": "",
                    "type": "uint256"
                }
            ],
            "stateMutability": "view",
            "type": "function"
        },
        {
            "inputs": [],
            "name": "name",
            "outputs": [
                {
                    "internalType": "string",
                    "name": "",
                    "type": "string"
                }
            ],
            "stateMutability": "view",
            "type": "function"
        },
        {
            "inputs": [
                {
                    "internalType": "address",
                    "name": "",
                    "type": "address"
                }
            ],
            "name": "nonces",
            "outputs": [
                {
                    "internalType": "uint256",
                    "name": "",
                    "type": "uint256"
                }
            ],
            "stateMutability": "view",
            "type": "function"
        },
        {
            "inputs": [
                {
                    "internalType": "uint256",
                    "name": "priceExp",
                    "type": "uint256"
                },
                {
                    "internalType": "uint256",
                    "name": "amount",
                    "type": "uint256"
                },
                {
                    "internalType": "uint256",
                    "name": "deadline",
                    "type": "uint256"
                }
            ],
            "name": "openLong",
            "outputs": [],
            "stateMutability": "nonpayable",
            "type": "function"
        },
        {
            "inputs": [
                {
                    "internalType": "uint256",
                    "name": "priceExp",
                    "type": "uint256"
                },
                {
                    "internalType": "uint256",
                    "name": "amount",
                    "type": "uint256"
                },
                {
                    "internalType": "uint256",
                    "name": "deadline",
                    "type": "uint256"
                }
            ],
            "name": "openShort",
            "outputs": [],
            "stateMutability": "nonpayable",
            "type": "function"
        },
        {
            "inputs": [
                {
                    "internalType": "address",
                    "name": "owner",
                    "type": "address"
                },
                {
                    "internalType": "address",
                    "name": "spender",
                    "type": "address"
                },
                {
                    "internalType": "uint256",
                    "name": "value",
                    "type": "uint256"
                },
                {
                    "internalType": "uint256",
                    "name": "deadline",
                    "type": "uint256"
                },
                {
                    "internalType": "uint8",
                    "name": "v",
                    "type": "uint8"
                },
                {
                    "internalType": "bytes32",
                    "name": "r",
                    "type": "bytes32"
                },
                {
                    "internalType": "bytes32",
                    "name": "s",
                    "type": "bytes32"
                }
            ],
            "name": "permit",
            "outputs": [],
            "stateMutability": "nonpayable",
            "type": "function"
        },
        {
            "inputs": [],
            "name": "poolExplosivePrice",
            "outputs": [
                {
                    "internalType": "uint256",
                    "name": "",
                    "type": "uint256"
                }
            ],
            "stateMutability": "view",
            "type": "function"
        },
        {
            "inputs": [],
            "name": "poolLeftAmountRate",
            "outputs": [
                {
                    "internalType": "uint24",
                    "name": "",
                    "type": "uint24"
                }
            ],
            "stateMutability": "view",
            "type": "function"
        },
        {
            "inputs": [],
            "name": "poolLongAmount",
            "outputs": [
                {
                    "internalType": "uint256",
                    "name": "",
                    "type": "uint256"
                }
            ],
            "stateMutability": "view",
            "type": "function"
        },
        {
            "inputs": [],
            "name": "poolLongPrice",
            "outputs": [
                {
                    "internalType": "uint256",
                    "name": "",
                    "type": "uint256"
                }
            ],
            "stateMutability": "view",
            "type": "function"
        },
        {
            "inputs": [],
            "name": "poolNetAmountRateLimitOpen",
            "outputs": [
                {
                    "internalType": "int24",
                    "name": "",
                    "type": "int24"
                }
            ],
            "stateMutability": "view",
            "type": "function"
        },
        {
            "inputs": [],
            "name": "poolNetAmountRateLimitPrice",
            "outputs": [
                {
                    "internalType": "int24",
                    "name": "",
                    "type": "int24"
                }
            ],
            "stateMutability": "view",
            "type": "function"
        },
        {
            "inputs": [],
            "name": "poolShortAmount",
            "outputs": [
                {
                    "internalType": "uint256",
                    "name": "",
                    "type": "uint256"
                }
            ],
            "stateMutability": "view",
            "type": "function"
        },
        {
            "inputs": [],
            "name": "poolShortPrice",
            "outputs": [
                {
                    "internalType": "uint256",
                    "name": "",
                    "type": "uint256"
                }
            ],
            "stateMutability": "view",
            "type": "function"
        },
        {
            "inputs": [],
            "name": "poolState",
            "outputs": [
                {
                    "internalType": "uint8",
                    "name": "",
                    "type": "uint8"
                }
            ],
            "stateMutability": "view",
            "type": "function"
        },
        {
            "inputs": [
                {
                    "internalType": "uint256",
                    "name": "amount",
                    "type": "uint256"
                }
            ],
            "name": "rechargeMargin",
            "outputs": [],
            "stateMutability": "nonpayable",
            "type": "function"
        },
        {
            "inputs": [
                {
                    "internalType": "uint256",
                    "name": "liquidity",
                    "type": "uint256"
                },
                {
                    "internalType": "address",
                    "name": "to",
                    "type": "address"
                }
            ],
            "name": "removeLiquidity",
            "outputs": [],
            "stateMutability": "nonpayable",
            "type": "function"
        },
        {
            "inputs": [
                {
                    "internalType": "bool",
                    "name": "b",
                    "type": "bool"
                }
            ],
            "name": "setFeeOn",
            "outputs": [],
            "stateMutability": "nonpayable",
            "type": "function"
        },
        {
            "inputs": [
                {
                    "internalType": "address",
                    "name": "_feeTo",
                    "type": "address"
                }
            ],
            "name": "setFeeTo",
            "outputs": [],
            "stateMutability": "nonpayable",
            "type": "function"
        },
        {
            "inputs": [],
            "name": "singleCloseLimitRate",
            "outputs": [
                {
                    "internalType": "uint24",
                    "name": "",
                    "type": "uint24"
                }
            ],
            "stateMutability": "view",
            "type": "function"
        },
        {
            "inputs": [],
            "name": "singleOpenLimitRate",
            "outputs": [
                {
                    "internalType": "uint16",
                    "name": "",
                    "type": "uint16"
                }
            ],
            "stateMutability": "view",
            "type": "function"
        },
        {
            "inputs": [],
            "name": "slideP",
            "outputs": [
                {
                    "internalType": "uint8",
                    "name": "",
                    "type": "uint8"
                }
            ],
            "stateMutability": "view",
            "type": "function"
        },
        {
            "inputs": [],
            "name": "sumFee",
            "outputs": [
                {
                    "internalType": "uint256",
                    "name": "",
                    "type": "uint256"
                }
            ],
            "stateMutability": "view",
            "type": "function"
        },
        {
            "inputs": [],
            "name": "symbol",
            "outputs": [
                {
                    "internalType": "string",
                    "name": "",
                    "type": "string"
                }
            ],
            "stateMutability": "view",
            "type": "function"
        },
        {
            "inputs": [],
            "name": "token0",
            "outputs": [
                {
                    "internalType": "address",
                    "name": "",
                    "type": "address"
                }
            ],
            "stateMutability": "view",
            "type": "function"
        },
        {
            "inputs": [],
            "name": "token0Decimal",
            "outputs": [
                {
                    "internalType": "uint256",
                    "name": "",
                    "type": "uint256"
                }
            ],
            "stateMutability": "view",
            "type": "function"
        },
        {
            "inputs": [],
            "name": "totalPool",
            "outputs": [
                {
                    "internalType": "int256",
                    "name": "",
                    "type": "int256"
                }
            ],
            "stateMutability": "view",
            "type": "function"
        },
        {
            "inputs": [],
            "name": "totalSupply",
            "outputs": [
                {
                    "internalType": "uint256",
                    "name": "",
                    "type": "uint256"
                }
            ],
            "stateMutability": "view",
            "type": "function"
        },
        {
            "inputs": [
                {
                    "internalType": "address",
                    "name": "",
                    "type": "address"
                }
            ],
            "name": "traders",
            "outputs": [
                {
                    "internalType": "int256",
                    "name": "margin",
                    "type": "int256"
                },
                {
                    "internalType": "uint256",
                    "name": "longAmount",
                    "type": "uint256"
                },
                {
                    "internalType": "uint256",
                    "name": "longPrice",
                    "type": "uint256"
                },
                {
                    "internalType": "uint256",
                    "name": "shortAmount",
                    "type": "uint256"
                },
                {
                    "internalType": "uint256",
                    "name": "shortPrice",
                    "type": "uint256"
                },
                {
                    "internalType": "uint32",
                    "name": "interestDay",
                    "type": "uint32"
                }
            ],
            "stateMutability": "view",
            "type": "function"
        },
        {
            "inputs": [
                {
                    "internalType": "address",
                    "name": "to",
                    "type": "address"
                },
                {
                    "internalType": "uint256",
                    "name": "value",
                    "type": "uint256"
                }
            ],
            "name": "transfer",
            "outputs": [
                {
                    "internalType": "bool",
                    "name": "",
                    "type": "bool"
                }
            ],
            "stateMutability": "nonpayable",
            "type": "function"
        },
        {
            "inputs": [
                {
                    "internalType": "address",
                    "name": "_feeToSetter",
                    "type": "address"
                }
            ],
            "name": "transferFeeToSetter",
            "outputs": [],
            "stateMutability": "nonpayable",
            "type": "function"
        },
        {
            "inputs": [
                {
                    "internalType": "address",
                    "name": "from",
                    "type": "address"
                },
                {
                    "internalType": "address",
                    "name": "to",
                    "type": "address"
                },
                {
                    "internalType": "uint256",
                    "name": "value",
                    "type": "uint256"
                }
            ],
            "name": "transferFrom",
            "outputs": [
                {
                    "internalType": "bool",
                    "name": "",
                    "type": "bool"
                }
            ],
            "stateMutability": "nonpayable",
            "type": "function"
        },
        {
            "inputs": [],
            "name": "withdrawFee",
            "outputs": [],
            "stateMutability": "nonpayable",
            "type": "function"
        },
        {
            "inputs": [
                {
                    "internalType": "uint256",
                    "name": "amount",
                    "type": "uint256"
                }
            ],
            "name": "withdrawMargin",
            "outputs": [],
            "stateMutability": "nonpayable",
            "type": "function"
        }
    ],
    "bytecode": "6101a060405260016008553480156200001757600080fd5b5060405162004754380380620047548339810160408190526200003a9162000288565b856001600160a01b031663313ce5676040518163ffffffff1660e01b8152600401602060405180830381865afa15801562000079573d6000803e3d6000fd5b505050506040513d601f19601f820116820180604052508101906200009f919062000300565b604080518082018252600c81526b48656467657853696e676c6560a01b6020918201528151808301835260018152603160f81b9082015281517f8b73c3c69bb8fe3d512ecc4cf759cc79239f7b179b0ffacaa9a75d522b39400f918101919091527fdbb8f54117374490c454ab41b80d95cf4a0c3b286124d9b83e346d854dc3efcd918101919091527fc89efdaa54c0f20c7adf612882df0950f5a951637e0307cdcb4c672f298b8bc660608201524660808201523060a082015260c00160408051601f19818403018152828252805160209182012060a05260ff9093166080526006805460ff60a01b1916600160a01b1790556001600160a01b0380891661016052891661010081905263313ce56760e01b83529051909263313ce56792600480820193918290030181865afa158015620001df573d6000803e3d6000fd5b505050506040513d601f19601f8201168201806040525081019062000205919062000300565b6200021290600a6200043a565b610120526101809390935260c09190915260ff1660e0526009805461ffff191661010017905560000b610140525050600580546001600160a01b031916331790556200044b565b80516001600160a01b03811681146200027157600080fd5b919050565b805160ff811681146200027157600080fd5b60008060008060008060c08789031215620002a257600080fd5b620002ad8762000259565b9550620002bd6020880162000259565b94506040870151935060608701519250620002db6080880162000276565b915060a08701518060000b8114620002f257600080fd5b809150509295509295509295565b6000602082840312156200031357600080fd5b6200031e8262000276565b9392505050565b634e487b7160e01b600052601160045260246000fd5b600181815b808511156200037c57816000190482111562000360576200036062000325565b808516156200036e57918102915b93841c939080029062000340565b509250929050565b600082620003955750600162000434565b81620003a45750600062000434565b8160018114620003bd5760028114620003c857620003e8565b600191505062000434565b60ff841115620003dc57620003dc62000325565b50506001821b62000434565b5060208310610133831016604e8410600b84101617156200040d575081810a62000434565b6200041983836200033b565b806000190482111562000430576200043062000325565b0290505b92915050565b60006200031e60ff84168362000384565b60805160a05160c05160e05161010051610120516101405161016051610180516141fe62000556600039600081816104750152818161235f01526123ef0152600081816108f6015261224b015260008181610596015281816123360152818161238301526124130152600081816108cf015281816114a5015281816123ae01526124470152600081816104f301528181610bd901528181610e4b01528181610eb4015281816114e801528181612144015281816127fd01528181612e490152612f2f0152600081816105ea01528181610ce5015281816136ce015261373701526000818161056f015261287601526000818161067001526129420152600061064001526141fe6000f3fe608060405234801561001057600080fd5b50600436106103d05760003560e01c80637aaae950116101ff5780639ddc230a1161011a578063d505accf116100ad578063e941fa781161007c578063e941fa78146109c8578063ecfb49a3146109d0578063f46901ed146109d9578063fc4064b3146109ec57600080fd5b8063d505accf1461096e578063dd62ed3e14610981578063ddcb04c2146109ac578063e5984319146109bf57600080fd5b8063c95f9d0e116100e9578063c95f9d0e1461093e578063cd8bb6cd14610951578063ce8ad1d21461095b578063d375454f1461096457600080fd5b80639ddc230a146108ca578063a04eecae146108f1578063a9059cbb14610918578063c250332f1461092b57600080fd5b80638e15f4731161019257806395d89b411161016157806395d89b411461088c578063971059fb146108af578063978bbdb9146108b8578063994af3ae146108c157600080fd5b80638e15f473146107ec5780638e406892146107f457806390edbeb0146107fd57806392a88fa21461081057600080fd5b8063807ca353116101ce578063807ca353146107b05780638967b694146107c357806389d408ff146107cc5780638a55d36e146107df57600080fd5b80637aaae950146104055780637bb71a971461077e5780637e4856c4146107865780637ecebe001461079057600080fd5b80632c204fa8116102ef5780634f335d0a116102825780636c2ee359116102515780636c2ee359146106ef57806370a082311461070257806371b317071461072257806373e6054b1461073557600080fd5b80634f335d0a1461069a5780635d0291ac146106ac578063641ad8a9146106c85780636422e08f146106dc57600080fd5b8063313ce567116102be578063313ce5671461063b57806333d6f1f7146106625780633644e5151461066b5780633e31fb451461069257600080fd5b80632c204fa8146105cb5780632c86d98e146105e55780632dd072a01461060c57806330adf81f1461061457600080fd5b80630dfe1681116103675780631cce9103116103365780631cce91031461053a57806323b872dd146105575780632678b8fd1461056a5780632be902821461059157600080fd5b80630dfe1681146104ee57806311ce83f81461051557806318160ddd14610528578063190b065f1461053157600080fd5b806308c73e74116103a357806308c73e7414610470578063094b7415146104a5578063095ea7b3146104b85780630cea7534146104db57600080fd5b8063017e7e58146103d557806301bcc9081461040557806305fe138b1461042357806306fdde0314610438575b600080fd5b6004546103e8906001600160a01b031681565b6040516001600160a01b0390911681526020015b60405180910390f35b61040f620186a081565b60405162ffffff90911681526020016103fc565b6104366104313660046139e4565b6109ff565b005b6104636040518060400160405280600c81526020016b48656467657853696e676c6560a01b81525081565b6040516103fc9190613a40565b6104977f000000000000000000000000000000000000000000000000000000000000000081565b6040519081526020016103fc565b6005546103e8906001600160a01b031681565b6104cb6104c6366004613a73565b610c3a565b60405190151581526020016103fc565b6104366104e9366004613a9d565b610c51565b6103e87f000000000000000000000000000000000000000000000000000000000000000081565b610436610523366004613a9d565b610eaf565b61049760005481565b610497600a5481565b610544620493e081565b60405160029190910b81526020016103fc565b6104cb610565366004613ab6565b610f37565b6104977f000000000000000000000000000000000000000000000000000000000000000081565b6105b87f000000000000000000000000000000000000000000000000000000000000000081565b60405160009190910b81526020016103fc565b6105d3603281565b60405160ff90911681526020016103fc565b6105d37f000000000000000000000000000000000000000000000000000000000000000081565b610436610fb1565b6104977f6e71edae12b1b97f4d1f60370fef10105fa2faae0126114a169c64845d6126c981565b6105d37f000000000000000000000000000000000000000000000000000000000000000081565b61049760075481565b6104977f000000000000000000000000000000000000000000000000000000000000000081565b610436611002565b6009546104cb90610100900460ff1681565b6106b561753081565b60405161ffff90911681526020016103fc565b6006546105d390600160a01b900460ff1681565b6104366106ea366004613af2565b61123a565b6104366106fd366004613b1c565b61156f565b610497610710366004613b48565b60016020526000908152604090205481565b610436610730366004613b1c565b611861565b600b54600c54600e54600d54600f546006546040805196875260208701959095529385019290925260608401526080830152600160a01b900460ff1660a082015260c0016103fc565b610497611b31565b61040f620f424081565b61049761079e366004613b48565b60036020526000908152604090205481565b6104366107be366004613b1c565b611be2565b6106b56103e881565b6104366107da366004613af2565b611eff565b6009546104cb9060ff1681565b610497612246565b610497600d5481565b61043661080b366004613b1c565b612476565b61085961081e366004613b48565b601060205260009081526040902080546001820154600283015460038401546004850154600590950154939492939192909163ffffffff1686565b604080519687526020870195909552938501929092526060840152608083015263ffffffff1660a082015260c0016103fc565b610463604051806040016040528060048152602001634845585360e01b81525081565b610497600f5481565b6106b561025881565b610497600e5481565b6104977f000000000000000000000000000000000000000000000000000000000000000081565b6103e87f000000000000000000000000000000000000000000000000000000000000000081565b6104cb610926366004613a73565b612773565b610436610939366004613b48565b612780565b61043661094c3660046139e4565b6127cc565b61054462061a8081565b61040f61c35081565b61040f6203d09081565b61043661097c366004613b63565b6128e4565b61049761098f366004613af2565b600260209081526000928352604080842090915290825290205481565b6104366109ba366004613af2565b612b10565b610497600c5481565b610436612ed0565b610497600b5481565b6104366109e7366004613b48565b612f61565b6104366109fa366004613be4565b612fad565b600654600160a01b900460ff16600114610a345760405162461bcd60e51b8152600401610a2b90613c01565b60405180910390fd5b600954829060ff1615610bb2576000610a4b612246565b90506000610a5882612ff1565b90506000600d54600c5411610a7c57600c54600d54610a779190613c3e565b610a8c565b600d54600c54610a8c9190613c3e565b905060006003600d54600c54610aa29190613c55565b610aac9190613c83565b905080821015610aba578091505b600062061a80620f4240610ace8786613c97565b610ad89190613c97565b610ae29190613c83565b9050808413610b335760405162461bcd60e51b815260206004820152601760248201527f6e6574206d757374203e20757365644d617267696e2f520000000000000000006044820152606401610a2b565b6000610b3f8286613c3e565b600054909150610b4f8a87613c97565b610b599190613c83565b965080871115610bab5760405162461bcd60e51b815260206004820152601860248201527f776974686472617720616d6f756e7420746f6f206d616e7900000000000000006044820152606401610a2b565b5050505050505b80600b6000828254610bc49190613cb6565b90915550610bd49050338461303a565b610bff7f000000000000000000000000000000000000000000000000000000000000000083836130c5565b60405183815233907fcc16f5dbb4873280815c1ee09dbd06736cffcc184412cf7a71a0fdb75d397ca5906020015b60405180910390a2505050565b6000610c473384846131e0565b5060015b92915050565b600654600160a01b900460ff16600114610c7d5760405162461bcd60e51b8152600401610a2b90613c01565b336000908152601060209081526040808320815160c0810183528154815260018201549381019390935260028101549183019190915260038101546060830152600481015460808301526005015463ffffffff1660a082015290610cdf612246565b905060007f000000000000000000000000000000000000000000000000000000000000000060ff1683608001518460600151610d1b9190613c97565b84604001518560200151610d2f9190613c97565b610d399190613c55565b610d439190613c83565b90506000828460600151610d579190613c97565b84604001518560200151610d6b9190613c97565b610d759190613c55565b84608001518560600151610d899190613c97565b848660200151610d999190613c97565b610da39190613c55565b8551610daf9190613cf5565b610db99190613cb6565b90506000610dc78383613cb6565b905060008113610e195760405162461bcd60e51b815260206004820152601860248201527f63616e207769746864726177206973206e6567617469766500000000000000006044820152606401610a2b565b8581811315610e255750805b8551610e32908290613cb6565b33600081815260106020526040902091909155610e71907f000000000000000000000000000000000000000000000000000000000000000090836130c5565b60405181815233907f884edad9ce6fa2440d8a54cc123490eb96d2768479d49ff9c7366125a94243649060200160405180910390a250505050505050565b610edb7f0000000000000000000000000000000000000000000000000000000000000000333084613242565b3360009081526010602052604081208054839290610efa908490613cf5565b909155505060405181815233907f78d9de6f3ad1cae9e0cbcbaa5267fd90f6a6728831eec42b7c147b398b2269249060200160405180910390a250565b6001600160a01b038316600090815260026020908152604080832033845290915281205460001914610f9c576001600160a01b038416600090815260026020908152604080832033845290915281208054849290610f96908490613c3e565b90915550505b610fa7848484613372565b5060019392505050565b6006546001600160a01b03163314610fdb5760405162461bcd60e51b8152600401610a2b90613d36565b60068054600580546001600160a01b03199081166001600160a01b03841617909155169055565b6008546001146110245760405162461bcd60e51b8152600401610a2b90613d61565b6000600855600654600160a01b900460ff1660011461107b5760405162461bcd60e51b8152602060048201526013602482015272706f6f6c206973206578706c6f736976696e6760681b6044820152606401610a2b565b6000611085612246565b9050600061109282612ff1565b90506000600d54600c54116110cd57600583600c54600d546110b49190613c3e565b6110be9190613c97565b6110c89190613c83565b6110f4565b600583600d54600c546110e09190613c3e565b6110ea9190613c97565b6110f49190613c83565b9050808213156111465760405162461bcd60e51b815260206004820152601960248201527f706f6f6c2063616e6e2774206265206578706c6f7369766564000000000000006044820152606401610a2b565b6006805460ff60a01b1916600160a11b1790556000611166600483613c83565b90508083121561121a576000600c54600d546111829190613cb6565b82600f54600d546111939190613c97565b600e54600c546111a39190613c97565b600b546111b09190613cb6565b6111ba9190613cf5565b6111c49190613cb6565b6111ce9190613d88565b90506000811361120d5760405162461bcd60e51b815260206004820152600a6024820152690657072696365203e20360b41b6044820152606401610a2b565b600755600b819055611225565b600b83905560078490555b50506000600f819055600e5550506001600855565b60085460011461125c5760405162461bcd60e51b8152600401610a2b90613d61565b6000600855600654600160a01b900460ff166002146112b25760405162461bcd60e51b81526020600482015260126024820152713837b7b629ba30ba329034b9903737ba101960711b6044820152606401610a2b565b6001600160a01b0382166000908152601060209081526040808320815160c0810183528154815260018201549381019390935260028101549183019190915260038101546060830152600481015460808301526005015463ffffffff1660a082015260075490916113238383613413565b90506000620f424062ffffff1661025861ffff168486606001516113479190613c97565b8587602001516113579190613c97565b6113619190613c55565b61136b9190613c97565b6113759190613c83565b60208501519091501561139e578360200151600d60008282546113989190613c3e565b90915550505b6060840151156113c4578360600151600c60008282546113be9190613c3e565b90915550505b600c541580156113d45750600d54155b156113ed576006805460ff60a01b1916600160a01b1790555b80821315611438576113ff8183613cb6565b6001600160a01b038716600090815260106020526040812091909155600b805483929061142d908490613cf5565b9091555061146b9050565b6001600160a01b0386166000908152601060205260408120819055600b8054849290611465908490613cf5565b90915550505b6001600160a01b03861660009081526010602052604081206001810182905560028101829055600381018290556004018190556114c9600a7f0000000000000000000000000000000000000000000000000000000000000000613c83565b905080600b60008282546114dd9190613cb6565b9091555061150e90507f000000000000000000000000000000000000000000000000000000000000000087836130c5565b60208086015160608088015160408051938452938301529181018690526001600160a01b038916917ffca559ae7a3bea5c41671f27049d90b84fbf98be965e6d7f0259ee6e5caa980b910160405180910390a2505060016008555050505050565b6008546001146115915760405162461bcd60e51b8152600401610a2b90613d61565b600060085580428110156115b75760405162461bcd60e51b8152600401610a2b90613db6565b600654600160a01b900460ff166001146115e35760405162461bcd60e51b8152600401610a2b90613c01565b60095460ff1661162d5760405162461bcd60e51b815260206004820152601560248201527418dbdb9d1c9858dd081a5cc81b9bdd081cdd185c9d605a1b6044820152606401610a2b565b6000611637612246565b905060008061164760018461348e565b909250905082620f424061165d61753084613c97565b6116679190613c83565b6116719190613c83565b8611156116905760405162461bcd60e51b8152600401610a2b90613de5565b62061a8082126116b25760405162461bcd60e51b8152600401610a2b90613e1c565b60006116be84846134ed565b6116c89085613c55565b905087811115806116d7575087155b6117235760405162461bcd60e51b815260206004820152601b60248201527f6f70656e206c6f6e6720707269636520697320746f6f206869676800000000006044820152606401610a2b565b600061172f8289613c97565b905060008061173e87846135ba565b915091508981602001516117529190613c55565b33600090815260106020908152604090912060010191909155810151611779908b90613c55565b838260400151836020015161178e9190613c97565b6117989190613c55565b6117a29190613c83565b3360009081526010602052604090206002015580516117c2908390613cb6565b33600090815260106020526040902055600d546117df8b82613c55565b600d556117ec8b82613c55565b84600f54836117fb9190613c97565b6118059190613c55565b61180f9190613c83565b600f5561181b83613821565b6040805160018152602081018d905290810186905233906000805160206141a9833981519152906060015b60405180910390a25050600160085550505050505050505050565b6008546001146118835760405162461bcd60e51b8152600401610a2b90613d61565b600060085580428110156118a95760405162461bcd60e51b8152600401610a2b90613db6565b600654600160a01b900460ff166001146118d55760405162461bcd60e51b8152600401610a2b90613c01565b60095460ff1661191f5760405162461bcd60e51b815260206004820152601560248201527418dbdb9d1c9858dd081a5cc81b9bdd081cdd185c9d605a1b6044820152606401610a2b565b6000611929612246565b905060008061193a6000198461348e565b909250905082620f424061195061753084613c97565b61195a9190613c83565b6119649190613c83565b8611156119835760405162461bcd60e51b8152600401610a2b90613de5565b62061a8082126119a55760405162461bcd60e51b8152600401610a2b90613e1c565b60006119b184846134ed565b6119bb9085613c3e565b905087811015611a0d5760405162461bcd60e51b815260206004820152601b60248201527f6f70656e2073686f727420707269636520697320746f6f206c6f7700000000006044820152606401610a2b565b6000611a198289613c97565b9050600080611a2887846135ba565b91509150898160600151611a3c9190613c55565b336000908152601060205260409020600301556060810151611a5f908b90613c55565b8382608001518360600151611a749190613c97565b611a7e9190613c55565b611a889190613c83565b336000908152601060205260409020600401558051611aa8908390613cb6565b33600090815260106020526040902055600c54611ac58b82613c55565b600c55611ad28b82613c55565b84600e5483611ae19190613c97565b611aeb9190613c55565b611af59190613c83565b600e55611b0183613821565b604080516000198152602081018d905290810186905233906000805160206141a983398151915290606001611846565b600080611b3c612246565b9050600081600d54611b4e9190613c97565b600e54600c54611b5e9190613c97565b611b689190613c55565b600f54600d54611b789190613c97565b83600c54611b869190613c97565b611b909190613c55565b600b54611b9d9190613cf5565b611ba79190613cb6565b905060008113610c4b5760405162461bcd60e51b815260206004820152600660248201526506e65743c3d360d41b6044820152606401610a2b565b600854600114611c045760405162461bcd60e51b8152600401610a2b90613d61565b60006008558042811015611c2a5760405162461bcd60e51b8152600401610a2b90613db6565b600654600160a01b900460ff16600114611c565760405162461bcd60e51b8152600401610a2b90613c01565b6000611c60612246565b9050600080611c7060018461348e565b909250905082620f4240611c87620186a084613c97565b611c919190613c83565b611c9b9190613c83565b861115611cba5760405162461bcd60e51b8152600401610a2b90613de5565b6000611cc684846134ed565b611cd09085613c55565b90508781111580611cdf575087155b611d2b5760405162461bcd60e51b815260206004820152601d60248201527f636c6f73652073686f727420707269636520697320746f6f20686967680000006044820152606401610a2b565b33600090815260106020908152604091829020825160c081018452815481526001820154928101929092526002810154928201929092526003820154606082018190526004830154608083015260059092015463ffffffff1660a082015290881115611de55760405162461bcd60e51b815260206004820152602360248201527f636c6f736520616d6f756e742072657175697265203e3d2073686f7274416d6f6044820152621d5b9d60ea1b6064820152608401610a2b565b6000620f4240610258611df8858c613c97565b611e029190613c97565b611e0c9190613c83565b90506000838360800151611e209190613cb6565b611e2a908b613e5f565b9050898360600151611e3c9190613c3e565b3360009081526010602052604090206003015582518290611e5e908390613cf5565b611e689190613cb6565b3360009081526010602052604090205560608301518a1415611e9857336000908152601060205260408120600401555b89600c6000828254611eaa9190613c3e565b90915550611eba905082826138a9565b6040805160028152602081018c905290810185905233906000805160206141a9833981519152906060015b60405180910390a250506001600855505050505050505050565b600854600114611f215760405162461bcd60e51b8152600401610a2b90613d61565b6000600855600654600160a01b900460ff16600114611f525760405162461bcd60e51b8152600401610a2b90613c01565b6001600160a01b0382166000908152601060209081526040808320815160c0810183528154815260018201549381019390935260028101549183019190915260038101546060830181905260048201546080840181905260059092015463ffffffff1660a0840152919291601e91611fc991613c97565b83604001518460200151611fdd9190613c97565b611fe79190613c55565b611ff19190613c83565b90506000611ffd612246565b9050600061200b8483613413565b9050828113156120505760405162461bcd60e51b815260206004820152601060248201526f63616e6e2774206578706c6f7369766560801b6044820152606401610a2b565b602084015160009015612099578460200151600d60008282546120739190613c3e565b909155505060408501516120879084613cb6565b85602001516120969190613e5f565b90505b6060850151156120ea578460600151600c60008282546120b99190613c3e565b909155505060808501516120ce908490613cb6565b85606001516120dd9190613e5f565b6120e79082613cf5565b90505b60608501516020860151600119911115612102575060025b6001600160a01b03881660009081526010602052604081208181556001810182905560028101829055600381018290556004018190558313156121b2576121747f00000000000000000000000000000000000000000000000000000000000000008861216f600587613d88565b6130c5565b816005612182856004613e5f565b61218c9190613d88565b6121969190613cb6565b600b60008282546121a79190613cf5565b909155506121d39050565b6121bc8284613cb6565b600b60008282546121cd9190613cf5565b90915550505b876001600160a01b03167f1cf7369c3767c976b447baaae4eed8217e2d190d1750c589e62bf5f7ecc4aaff82886060015189602001516122139190613c55565b6040805160009390930b83526020830191909152810187905260600160405180910390a250506001600855505050505050565b6000807f00000000000000000000000000000000000000000000000000000000000000006001600160a01b031663feaf968c6040518163ffffffff1660e01b815260040160a060405180830381865afa1580156122a7573d6000803e3d6000fd5b505050506040513d601f19601f820116820180604052508101906122cb9190613efe565b505050915050600081136123325760405162461bcd60e51b815260206004820152602860248201527f7468652070616972207374616e64617264207072696365206d75737420626520604482015267706f73697469766560c01b6064820152608401610a2b565b60007f000000000000000000000000000000000000000000000000000000000000000060000b126123ed577f00000000000000000000000000000000000000000000000000000000000000006123a97f0000000000000000000000000000000000000000000000000000000000000000600a614032565b6123d37f000000000000000000000000000000000000000000000000000000000000000084613c97565b6123dd9190613c97565b6123e79190613c83565b91505090565b7f00000000000000000000000000000000000000000000000000000000000000006124377f0000000000000000000000000000000000000000000000000000000000000000614041565b61244290600a614032565b61246c7f000000000000000000000000000000000000000000000000000000000000000084613c97565b6123dd9190613c83565b6008546001146124985760405162461bcd60e51b8152600401610a2b90613d61565b600060085580428110156124be5760405162461bcd60e51b8152600401610a2b90613db6565b600654600160a01b900460ff166001146124ea5760405162461bcd60e51b8152600401610a2b90613c01565b60006124f4612246565b90506000806125056000198461348e565b909250905082620f424061251c620186a084613c97565b6125269190613c83565b6125309190613c83565b86111561254f5760405162461bcd60e51b8152600401610a2b90613de5565b600061255b84846134ed565b6125659085613c3e565b9050878110156125b75760405162461bcd60e51b815260206004820152601b60248201527f636c6f7365206c6f6e6720707269636520697320746f6f206c6f7700000000006044820152606401610a2b565b33600090815260106020908152604091829020825160c08101845281548152600182015492810183905260028201549381019390935260038101546060840152600481015460808401526005015463ffffffff1660a083015288111561266a5760405162461bcd60e51b815260206004820152602260248201527f636c6f736520616d6f756e742072657175697265203e3d206c6f6e67416d6f756044820152611b9d60f21b6064820152608401610a2b565b6000620f424061025861267d858c613c97565b6126879190613c97565b6126919190613c83565b905060008260400151846126a59190613cb6565b6126af908b613e5f565b90508983602001516126c19190613c3e565b33600090815260106020526040902060010155825182906126e3908390613cf5565b6126ed9190613cb6565b336000908152601060209081526040909120919091558301518a141561272157336000908152601060205260408120600201555b89600d60008282546127339190613c3e565b90915550612743905082826138a9565b604080516001198152602081018c905290810185905233906000805160206141a983398151915290606001611ee5565b6000610c47338484613372565b6005546001600160a01b031633146127aa5760405162461bcd60e51b8152600401610a2b90613d36565b600680546001600160a01b0319166001600160a01b0392909216919091179055565b600654600160a01b900460ff166001146127f85760405162461bcd60e51b8152600401610a2b90613c01565b6128247f0000000000000000000000000000000000000000000000000000000000000000333085613242565b600954829060ff161561285a57600061283b611b31565b9050808460005461284c9190613c97565b6128569190613c83565b9150505b82600b600082825461286c9190613cf5565b9091555050600b547f0000000000000000000000000000000000000000000000000000000000000000136128a8576009805460ff191660011790555b6128b28282613947565b60405181815233907f0f6798a560793a54c3bcfe86a93cde1e73087d944c0ea20544137d412139688590602001610c2d565b428410156129265760405162461bcd60e51b815260206004820152600f60248201526e12195919d95e0e8811561412549151608a1b6044820152606401610a2b565b6001600160a01b038716600090815260036020526040812080547f0000000000000000000000000000000000000000000000000000000000000000917f6e71edae12b1b97f4d1f60370fef10105fa2faae0126114a169c64845d6126c9918b918b918b918761299483614061565b909155506040805160208101969096526001600160a01b0394851690860152929091166060840152608083015260a082015260c0810187905260e00160405160208183030381529060405280519060200120604051602001612a0d92919061190160f01b81526002810192909252602282015260420190565b60408051601f198184030181528282528051602091820120600080855291840180845281905260ff88169284019290925260608301869052608083018590529092509060019060a0016020604051602081039080840390855afa158015612a78573d6000803e3d6000fd5b5050604051601f1901519150506001600160a01b03811615801590612aae5750886001600160a01b0316816001600160a01b0316145b612afa5760405162461bcd60e51b815260206004820152601960248201527f4865646765783a20494e56414c49445f5349474e4154555245000000000000006044820152606401610a2b565b612b058989896131e0565b505050505050505050565b600854600114612b325760405162461bcd60e51b8152600401610a2b90613d61565b6000600855600654600160a01b900460ff16600114612b635760405162461bcd60e51b8152600401610a2b90613c01565b6000612b726201518042613c83565b905061012c612b84826201518061407c565b612b949063ffffffff1642613c3e565b1115612bd15760405162461bcd60e51b815260206004820152600c60248201526b74696d652064697361626c6560a01b6044820152606401610a2b565b6001600160a01b0383166000908152601060205260409020600581015463ffffffff90811690831611612c3f5760405162461bcd60e51b81526020600482015260166024820152751a185cc81899595b881d185ad9481a5b9d195c995cdd60521b6044820152606401610a2b565b806003015481600101541415612c8a5760405162461bcd60e51b815260206004820152601060248201526f1b1bdb99c8195c5d585b081cda1bdc9d60821b6044820152606401610a2b565b600d54600c54600383015460018481015460009283911115612d4357838511612ce85760405162461bcd60e51b815260206004820152601060248201526f1a185d99481b9bc81a5b9d195c995cdd60821b6044820152606401610a2b565b612cf0612246565b905084620f4240612d018683613c3e565b60018901546103e890612d149086613c97565b612d1e9190613c97565b612d289190613c97565b612d329190613c83565b612d3c9190613c83565b9250612de1565b848411612d855760405162461bcd60e51b815260206004820152601060248201526f1a185d99481b9bc81a5b9d195c995cdd60821b6044820152606401610a2b565b612d8d612246565b6000199250905083620f4240612da38783613c3e565b60038901546103e890612db69086613c97565b612dc09190613c97565b612dca9190613c97565b612dd49190613c83565b612dde9190613c83565b92505b6000620f4240612df4620186a086613c97565b612dfe9190613c83565b60058801805463ffffffff191663ffffffff8b16179055875490915084908890600090612e2c908490613cb6565b90915550612e449050612e3f8286613c3e565b613821565b612e6f7f00000000000000000000000000000000000000000000000000000000000000008a836130c5565b60408051600085900b8152602081018690529081018390526001600160a01b038b16907f78213dfb97e98b601b3fee012a0f6bddbf4e63c293c77b5186137af1e7cf62ae9060600160405180910390a2505060016008555050505050505050565b6004546001600160a01b03163314612f1d5760405162461bcd60e51b815260206004820152601060248201526f3432b233b2bc1d2327a92124a22222a760811b6044820152606401610a2b565b600a80546000909155600454612f5e907f0000000000000000000000000000000000000000000000000000000000000000906001600160a01b0316836130c5565b50565b6005546001600160a01b03163314612f8b5760405162461bcd60e51b8152600401610a2b90613d36565b600480546001600160a01b0319166001600160a01b0392909216919091179055565b6005546001600160a01b03163314612fd75760405162461bcd60e51b8152600401610a2b90613d36565b600980549115156101000261ff0019909216919091179055565b60008082600d546130029190613c97565b600e54600c546130129190613c97565b61301c9190613c55565b600f54600d5461302c9190613c97565b84600c54611b869190613c97565b6001600160a01b03821660009081526001602052604081208054839290613062908490613c3e565b925050819055508060008082825461307a9190613c3e565b90915550506040518181526000906001600160a01b038416907fddf252ad1be2c89b69c2b068fc378daa952ba7f163c4a11628f55a4df523b3ef906020015b60405180910390a35050565b604080516001600160a01b038481166024830152604480830185905283518084039091018152606490920183526020820180516001600160e01b031663a9059cbb60e01b179052915160009283929087169161312191906140a8565b6000604051808303816000865af19150503d806000811461315e576040519150601f19603f3d011682016040523d82523d6000602084013e613163565b606091505b509150915081801561318d57508051158061318d57508080602001905181019061318d91906140c4565b6131d95760405162461bcd60e51b815260206004820152601f60248201527f5472616e7366657248656c7065723a205452414e534645525f4641494c4544006044820152606401610a2b565b5050505050565b6001600160a01b0383811660008181526002602090815260408083209487168084529482529182902085905590518481527f8c5be1e5ebec7d5bd14f71427d1e84f3dd0314c0f7b2291e5b200ac8c7c3b92591015b60405180910390a3505050565b604080516001600160a01b0385811660248301528481166044830152606480830185905283518084039091018152608490920183526020820180516001600160e01b03166323b872dd60e01b17905291516000928392908816916132a691906140a8565b6000604051808303816000865af19150503d80600081146132e3576040519150601f19603f3d011682016040523d82523d6000602084013e6132e8565b606091505b509150915081801561331257508051158061331257508080602001905181019061331291906140c4565b61336a5760405162461bcd60e51b8152602060048201526024808201527f5472616e7366657248656c7065723a205452414e534645525f46524f4d5f46416044820152631253115160e21b6064820152608401610a2b565b505050505050565b6001600160a01b0383166000908152600160205260408120805483929061339a908490613c3e565b90915550506001600160a01b038216600090815260016020526040812080548392906133c7908490613c55565b92505081905550816001600160a01b0316836001600160a01b03167fddf252ad1be2c89b69c2b068fc378daa952ba7f163c4a11628f55a4df523b3ef8360405161323591815260200190565b60008183606001516134259190613c97565b836040015184602001516134399190613c97565b6134439190613c55565b836080015184606001516134579190613c97565b8385602001516134679190613c97565b6134719190613c55565b845161347d9190613cf5565b6134879190613cb6565b9392505050565b600080600061349c84612ff1565b905080620f424060020b85600c54600d546134b79190613cb6565b8860000b6134c59190613e5f565b6134cf9190613e5f565b6134d99190613e5f565b6134e39190613d88565b9590945092505050565b6000806002613500620493e060036140e1565b61350a919061416e565b60020b8312613569576005613523620493e060036140e1565b60020b8460026135339190613e5f565b61353d9190613cb6565b6135479190613d88565b613555600a620493e061416e565b60020b6135629190613cf5565b905061358f565b620493e0831261358f576005613582620493e085613cb6565b61358c9190613c83565b90505b620f424061359e603283613c55565b6135a89086613c97565b6135b29190613c83565b949350505050565b60006135fb6040518060c001604052806000815260200160008152602001600081526020016000815260200160008152602001600063ffffffff1681525090565b336000908152601060209081526040808320815160c081018352815481526001820154938101939093526002810154918301919091526003810154606083018190526004820154608084015260059091015463ffffffff1660a0830152909190613666908790613c97565b8260400151836020015161367a9190613c97565b6136849190613c55565b826080015183606001516136989190613c97565b8784602001516136a89190613c97565b6136b29190613c55565b83516136be9190613cf5565b6136c89190613cb6565b905060007f000000000000000000000000000000000000000000000000000000000000000060ff16836080015184606001516137049190613c97565b846040015185602001516137189190613c97565b6137229190613c55565b61372c9190613c83565b9050600061375d60ff7f00000000000000000000000000000000000000000000000000000000000000001688613c83565b90506000620f42406137716102588a613c97565b61377b9190613c83565b90506000848261378b8587613c55565b6137959190613c55565b61379f9190613cb6565b90506000811315613812576137b381610eaf565b33600090815260106020908152604091829020825160c08101845281548152600182015492810192909252600281015492820192909252600382015460608201526004820154608082015260059091015463ffffffff1660a082015295505b50989397509295505050505050565b600954610100900460ff161561388f576000620f42406138446203d09084613c97565b61384e9190613c83565b905080600a60008282546138629190613c55565b9091555061387290508183613cb6565b600b60008282546138839190613cf5565b90915550612f5e915050565b80600b60008282546138a19190613cf5565b909155505050565b600954610100900460ff1615613922576000620f42406138cc6203d09085613c97565b6138d69190613c83565b905080600a60008282546138ea9190613c55565b909155508290506138fb8285613cb6565b6139059190613cb6565b600b60008282546139169190613cf5565b90915550613943915050565b61392c8183613cb6565b600b600082825461393d9190613cf5565b90915550505b5050565b806000808282546139589190613c55565b90915550506001600160a01b03821660009081526001602052604081208054839290613985908490613c55565b90915550506040518181526001600160a01b038316906000907fddf252ad1be2c89b69c2b068fc378daa952ba7f163c4a11628f55a4df523b3ef906020016130b9565b80356001600160a01b03811681146139df57600080fd5b919050565b600080604083850312156139f757600080fd5b82359150613a07602084016139c8565b90509250929050565b60005b83811015613a2b578181015183820152602001613a13565b83811115613a3a576000848401525b50505050565b6020815260008251806020840152613a5f816040850160208701613a10565b601f01601f19169190910160400192915050565b60008060408385031215613a8657600080fd5b613a8f836139c8565b946020939093013593505050565b600060208284031215613aaf57600080fd5b5035919050565b600080600060608486031215613acb57600080fd5b613ad4846139c8565b9250613ae2602085016139c8565b9150604084013590509250925092565b60008060408385031215613b0557600080fd5b613b0e836139c8565b9150613a07602084016139c8565b600080600060608486031215613b3157600080fd5b505081359360208301359350604090920135919050565b600060208284031215613b5a57600080fd5b613487826139c8565b600080600080600080600060e0888a031215613b7e57600080fd5b613b87886139c8565b9650613b95602089016139c8565b95506040880135945060608801359350608088013560ff81168114613bb957600080fd5b9699959850939692959460a0840135945060c09093013592915050565b8015158114612f5e57600080fd5b600060208284031215613bf657600080fd5b813561348781613bd6565b6020808252600d908201526c73746174652069736e2774203160981b604082015260600190565b634e487b7160e01b600052601160045260246000fd5b600082821015613c5057613c50613c28565b500390565b60008219821115613c6857613c68613c28565b500190565b634e487b7160e01b600052601260045260246000fd5b600082613c9257613c92613c6d565b500490565b6000816000190483118215151615613cb157613cb1613c28565b500290565b60008083128015600160ff1b850184121615613cd457613cd4613c28565b6001600160ff1b0384018313811615613cef57613cef613c28565b50500390565b600080821280156001600160ff1b0384900385131615613d1757613d17613c28565b600160ff1b8390038412811615613d3057613d30613c28565b50500190565b6020808252601190820152703432b233b2bc1d102327a92124a22222a760791b604082015260600190565b6020808252600d908201526c1a195919d95e081b1bd8dad959609a1b604082015260600190565b600082613d9757613d97613c6d565b600160ff1b821460001984141615613db157613db1613c28565b500590565b60208082526015908201527412195919d95e08151c9859194e8811561412549151605a1b604082015260600190565b6020808252601d908201527f73696e676c6520616d6f756e74206f766572206e6574202a2072617465000000604082015260600190565b60208082526023908201527f706f6f6c206e657420616d6f756e74206d75737420736d616c6c207468616e2060408201526233302560e81b606082015260800190565b60006001600160ff1b0381841382841380821686840486111615613e8557613e85613c28565b600160ff1b6000871282811687830589121615613ea457613ea4613c28565b60008712925087820587128484161615613ec057613ec0613c28565b87850587128184161615613ed657613ed6613c28565b505050929093029392505050565b805169ffffffffffffffffffff811681146139df57600080fd5b600080600080600060a08688031215613f1657600080fd5b613f1f86613ee4565b9450602086015193506040860151925060608601519150613f4260808701613ee4565b90509295509295909350565b600181815b80851115613f89578160001904821115613f6f57613f6f613c28565b80851615613f7c57918102915b93841c9390800290613f53565b509250929050565b600082613fa057506001610c4b565b81613fad57506000610c4b565b8160018114613fc35760028114613fcd57613fe9565b6001915050610c4b565b60ff841115613fde57613fde613c28565b50506001821b610c4b565b5060208310610133831016604e8410600b841016171561400c575081810a610c4b565b6140168383613f4e565b806000190482111561402a5761402a613c28565b029392505050565b600061348760ff841683613f91565b600081810b607f1981141561405857614058613c28565b60000392915050565b600060001982141561407557614075613c28565b5060010190565b600063ffffffff8083168185168183048111821515161561409f5761409f613c28565b02949350505050565b600082516140ba818460208701613a10565b9190910192915050565b6000602082840312156140d657600080fd5b815161348781613bd6565b60008160020b8360020b627fffff60008213600084138383048511828216161561410d5761410d613c28565b627fffff19600085128281168783058712161561412c5761412c613c28565b6000871292508582058712848416161561414857614148613c28565b8585058712818416161561415e5761415e613c28565b5050509290910295945050505050565b60008160020b8360020b8061418557614185613c6d565b627fffff1982146000198214161561419f5761419f613c28565b9005939250505056fe303db7636b0e071f088d2cd5e8463efe513531272d61a18739b21053f6d7b430a2646970667358221220b964cbc0df87a28f50a17611bdc1e153569c43ec9990656afd1b458998fc62f864736f6c634300080b0033",
    "sourcePath": "d:/contract/hedgex/Single.sol",
    "compiler": {
        "name": "solc",
        "version": "0.8.11+commit.d7f03943"
    },
    "functionHashes": {
        "DOMAIN_SEPARATOR()": "3644e515",
        "PERMIT_TYPEHASH()": "30adf81f",
        "acceptFeeToSetter()": "2dd072a0",
        "addLiquidity(uint256,address)": "c95f9d0e",
        "allowance(address,address)": "dd62ed3e",
        "amountDecimal()": "2be90282",
        "approve(address,uint256)": "095ea7b3",
        "balanceOf(address)": "70a08231",
        "closeLong(uint256,uint256,uint256)": "90edbeb0",
        "closeShort(uint256,uint256,uint256)": "807ca353",
        "dailyInterestRateBase()": "8967b694",
        "decimals()": "313ce567",
        "detectSlide(address,address)": "ddcb04c2",
        "divConst()": "7e4856c4",
        "explosive(address,address)": "89d408ff",
        "explosivePool()": "3e31fb45",
        "feeDivide()": "d375454f",
        "feeOn()": "4f335d0a",
        "feeRate()": "978bbdb9",
        "feeTo()": "017e7e58",
        "feeToSetter()": "094b7415",
        "feedPrice()": "a04eecae",
        "feedPriceDecimal()": "08c73e74",
        "forceCloseAccount(address,address)": "6422e08f",
        "getLatestPrice()": "8e15f473",
        "getPoolNet()": "7bb71a97",
        "getPoolPosition()": "73e6054b",
        "interestRewardRate()": "01bcc908",
        "isStart()": "8a55d36e",
        "leverage()": "2c86d98e",
        "minPool()": "2678b8fd",
        "name()": "06fdde03",
        "nonces(address)": "7ecebe00",
        "openLong(uint256,uint256,uint256)": "6c2ee359",
        "openShort(uint256,uint256,uint256)": "71b31707",
        "permit(address,address,uint256,uint256,uint8,bytes32,bytes32)": "d505accf",
        "poolExplosivePrice()": "33d6f1f7",
        "poolLeftAmountRate()": "ce8ad1d2",
        "poolLongAmount()": "e5984319",
        "poolLongPrice()": "994af3ae",
        "poolNetAmountRateLimitOpen()": "cd8bb6cd",
        "poolNetAmountRateLimitPrice()": "1cce9103",
        "poolShortAmount()": "8e406892",
        "poolShortPrice()": "971059fb",
        "poolState()": "641ad8a9",
        "rechargeMargin(uint256)": "11ce83f8",
        "removeLiquidity(uint256,address)": "05fe138b",
        "setFeeOn(bool)": "fc4064b3",
        "setFeeTo(address)": "f46901ed",
        "singleCloseLimitRate()": "7aaae950",
        "singleOpenLimitRate()": "5d0291ac",
        "slideP()": "2c204fa8",
        "sumFee()": "190b065f",
        "symbol()": "95d89b41",
        "token0()": "0dfe1681",
        "token0Decimal()": "9ddc230a",
        "totalPool()": "ecfb49a3",
        "totalSupply()": "18160ddd",
        "traders(address)": "92a88fa2",
        "transfer(address,uint256)": "a9059cbb",
        "transferFeeToSetter(address)": "c250332f",
        "transferFrom(address,address,uint256)": "23b872dd",
        "withdrawFee()": "e941fa78",
        "withdrawMargin(uint256)": "0cea7534"
    },
    "gasEstimates": {
        "creation": {
            "codeDepositCost": "3378800",
            "executionCost": "infinite",
            "totalCost": "infinite"
        },
        "external": {
            "DOMAIN_SEPARATOR()": "infinite",
            "PERMIT_TYPEHASH()": "330",
            "acceptFeeToSetter()": "50872",
            "addLiquidity(uint256,address)": "infinite",
            "allowance(address,address)": "infinite",
            "amountDecimal()": "infinite",
            "approve(address,uint256)": "24641",
            "balanceOf(address)": "2608",
            "closeLong(uint256,uint256,uint256)": "infinite",
            "closeShort(uint256,uint256,uint256)": "infinite",
            "dailyInterestRateBase()": "294",
            "decimals()": "infinite",
            "detectSlide(address,address)": "infinite",
            "divConst()": "317",
            "explosive(address,address)": "infinite",
            "explosivePool()": "infinite",
            "feeDivide()": "337",
            "feeOn()": "2389",
            "feeRate()": "315",
            "feeTo()": "2396",
            "feeToSetter()": "2417",
            "feedPrice()": "infinite",
            "feedPriceDecimal()": "infinite",
            "forceCloseAccount(address,address)": "infinite",
            "getLatestPrice()": "infinite",
            "getPoolNet()": "infinite",
            "getPoolPosition()": "13047",
            "interestRewardRate()": "296",
            "isStart()": "2444",
            "leverage()": "infinite",
            "minPool()": "infinite",
            "name()": "infinite",
            "nonces(address)": "2654",
            "openLong(uint256,uint256,uint256)": "infinite",
            "openShort(uint256,uint256,uint256)": "infinite",
            "permit(address,address,uint256,uint256,uint8,bytes32,bytes32)": "infinite",
            "poolExplosivePrice()": "2385",
            "poolLeftAmountRate()": "315",
            "poolLongAmount()": "2428",
            "poolLongPrice()": "2428",
            "poolNetAmountRateLimitOpen()": "298",
            "poolNetAmountRateLimitPrice()": "277",
            "poolShortAmount()": "2385",
            "poolShortPrice()": "2384",
            "poolState()": "2442",
            "rechargeMargin(uint256)": "infinite",
            "removeLiquidity(uint256,address)": "infinite",
            "setFeeOn(bool)": "26809",
            "setFeeTo(address)": "26821",
            "singleCloseLimitRate()": "273",
            "singleOpenLimitRate()": "294",
            "slideP()": "273",
            "sumFee()": "2430",
            "symbol()": "infinite",
            "token0()": "infinite",
            "token0Decimal()": "infinite",
            "totalPool()": "2383",
            "totalSupply()": "2408",
            "traders(address)": "13336",
            "transfer(address,uint256)": "51185",
            "transferFeeToSetter(address)": "26845",
            "transferFrom(address,address,uint256)": "infinite",
            "withdrawFee()": "infinite",
            "withdrawMargin(uint256)": "infinite"
        },
        "internal": {
            "feeCharge(uint256)": "51151",
            "feeCharge(uint256,int256)": "infinite",
            "getAccountNet(struct HedgexSingle.Trader memory)": "infinite",
            "getAccountNet(struct HedgexSingle.Trader memory,uint256)": "infinite",
            "getPoolNet(uint256)": "infinite",
            "judegOpen(uint256,uint256)": "infinite",
            "poolLimitTrade(int8,uint256)": "infinite",
            "slideTradePrice(uint256,int256)": "infinite"
        }
    }
}