{
    "contractName": "HedgexSingle",
    "abi": [
        {
            "inputs": [
                {
                    "internalType": "address",
                    "name": "_token0",
                    "type": "address"
                },
                {
                    "internalType": "address",
                    "name": "_feedPrice",
                    "type": "address"
                },
                {
                    "internalType": "uint256",
                    "name": "_feedPriceDecimal",
                    "type": "uint256"
                },
                {
                    "internalType": "uint256",
                    "name": "_minStartPool",
                    "type": "uint256"
                },
                {
                    "internalType": "uint8",
                    "name": "_leverage",
                    "type": "uint8"
                },
                {
                    "internalType": "int8",
                    "name": "_amountDecimal",
                    "type": "int8"
                }
            ],
            "stateMutability": "nonpayable",
            "type": "constructor"
        },
        {
            "anonymous": false,
            "inputs": [
                {
                    "indexed": true,
                    "internalType": "address",
                    "name": "owner",
                    "type": "address"
                },
                {
                    "indexed": true,
                    "internalType": "address",
                    "name": "spender",
                    "type": "address"
                },
                {
                    "indexed": false,
                    "internalType": "uint256",
                    "name": "value",
                    "type": "uint256"
                }
            ],
            "name": "Approval",
            "type": "event"
        },
        {
            "anonymous": false,
            "inputs": [
                {
                    "indexed": true,
                    "internalType": "address",
                    "name": "sender",
                    "type": "address"
                },
                {
                    "indexed": false,
                    "internalType": "uint256",
                    "name": "amount",
                    "type": "uint256"
                }
            ],
            "name": "Burn",
            "type": "event"
        },
        {
            "anonymous": false,
            "inputs": [
                {
                    "indexed": true,
                    "internalType": "address",
                    "name": "user",
                    "type": "address"
                },
                {
                    "indexed": false,
                    "internalType": "int8",
                    "name": "direction",
                    "type": "int8"
                },
                {
                    "indexed": false,
                    "internalType": "uint256",
                    "name": "amount",
                    "type": "uint256"
                },
                {
                    "indexed": false,
                    "internalType": "uint256",
                    "name": "price",
                    "type": "uint256"
                }
            ],
            "name": "Explosive",
            "type": "event"
        },
        {
            "anonymous": false,
            "inputs": [
                {
                    "indexed": true,
                    "internalType": "address",
                    "name": "sender",
                    "type": "address"
                },
                {
                    "indexed": false,
                    "internalType": "uint256",
                    "name": "amount",
                    "type": "uint256"
                }
            ],
            "name": "Mint",
            "type": "event"
        },
        {
            "anonymous": false,
            "inputs": [
                {
                    "indexed": true,
                    "internalType": "address",
                    "name": "sender",
                    "type": "address"
                },
                {
                    "indexed": false,
                    "internalType": "uint256",
                    "name": "amount",
                    "type": "uint256"
                }
            ],
            "name": "Recharge",
            "type": "event"
        },
        {
            "anonymous": false,
            "inputs": [
                {
                    "indexed": true,
                    "internalType": "address",
                    "name": "user",
                    "type": "address"
                },
                {
                    "indexed": false,
                    "internalType": "int8",
                    "name": "direction",
                    "type": "int8"
                },
                {
                    "indexed": false,
                    "internalType": "uint256",
                    "name": "amount",
                    "type": "uint256"
                },
                {
                    "indexed": false,
                    "internalType": "uint256",
                    "name": "price",
                    "type": "uint256"
                }
            ],
            "name": "TakeInterest",
            "type": "event"
        },
        {
            "anonymous": false,
            "inputs": [
                {
                    "indexed": true,
                    "internalType": "address",
                    "name": "sender",
                    "type": "address"
                },
                {
                    "indexed": false,
                    "internalType": "int8",
                    "name": "direction",
                    "type": "int8"
                },
                {
                    "indexed": false,
                    "internalType": "uint256",
                    "name": "amount",
                    "type": "uint256"
                },
                {
                    "indexed": false,
                    "internalType": "uint256",
                    "name": "price",
                    "type": "uint256"
                }
            ],
            "name": "Trade",
            "type": "event"
        },
        {
            "anonymous": false,
            "inputs": [
                {
                    "indexed": true,
                    "internalType": "address",
                    "name": "from",
                    "type": "address"
                },
                {
                    "indexed": true,
                    "internalType": "address",
                    "name": "to",
                    "type": "address"
                },
                {
                    "indexed": false,
                    "internalType": "uint256",
                    "name": "value",
                    "type": "uint256"
                }
            ],
            "name": "Transfer",
            "type": "event"
        },
        {
            "anonymous": false,
            "inputs": [
                {
                    "indexed": true,
                    "internalType": "address",
                    "name": "sender",
                    "type": "address"
                },
                {
                    "indexed": false,
                    "internalType": "uint256",
                    "name": "amount",
                    "type": "uint256"
                }
            ],
            "name": "Withdraw",
            "type": "event"
        },
        {
            "inputs": [],
            "name": "DOMAIN_SEPARATOR",
            "outputs": [
                {
                    "internalType": "bytes32",
                    "name": "",
                    "type": "bytes32"
                }
            ],
            "stateMutability": "view",
            "type": "function"
        },
        {
            "inputs": [],
            "name": "PERMIT_TYPEHASH",
            "outputs": [
                {
                    "internalType": "bytes32",
                    "name": "",
                    "type": "bytes32"
                }
            ],
            "stateMutability": "view",
            "type": "function"
        },
        {
            "inputs": [
                {
                    "internalType": "uint256",
                    "name": "amount",
                    "type": "uint256"
                },
                {
                    "internalType": "address",
                    "name": "to",
                    "type": "address"
                }
            ],
            "name": "addLiquidity",
            "outputs": [],
            "stateMutability": "nonpayable",
            "type": "function"
        },
        {
            "inputs": [
                {
                    "internalType": "address",
                    "name": "",
                    "type": "address"
                },
                {
                    "internalType": "address",
                    "name": "",
                    "type": "address"
                }
            ],
            "name": "allowance",
            "outputs": [
                {
                    "internalType": "uint256",
                    "name": "",
                    "type": "uint256"
                }
            ],
            "stateMutability": "view",
            "type": "function"
        },
        {
            "inputs": [],
            "name": "amountDecimal",
            "outputs": [
                {
                    "internalType": "int8",
                    "name": "",
                    "type": "int8"
                }
            ],
            "stateMutability": "view",
            "type": "function"
        },
        {
            "inputs": [
                {
                    "internalType": "address",
                    "name": "spender",
                    "type": "address"
                },
                {
                    "internalType": "uint256",
                    "name": "value",
                    "type": "uint256"
                }
            ],
            "name": "approve",
            "outputs": [
                {
                    "internalType": "bool",
                    "name": "",
                    "type": "bool"
                }
            ],
            "stateMutability": "nonpayable",
            "type": "function"
        },
        {
            "inputs": [
                {
                    "internalType": "address",
                    "name": "",
                    "type": "address"
                }
            ],
            "name": "balanceOf",
            "outputs": [
                {
                    "internalType": "uint256",
                    "name": "",
                    "type": "uint256"
                }
            ],
            "stateMutability": "view",
            "type": "function"
        },
        {
            "inputs": [
                {
                    "internalType": "uint256",
                    "name": "priceExp",
                    "type": "uint256"
                },
                {
                    "internalType": "uint256",
                    "name": "amount",
                    "type": "uint256"
                }
            ],
            "name": "closeLong",
            "outputs": [],
            "stateMutability": "nonpayable",
            "type": "function"
        },
        {
            "inputs": [
                {
                    "internalType": "uint256",
                    "name": "priceExp",
                    "type": "uint256"
                },
                {
                    "internalType": "uint256",
                    "name": "amount",
                    "type": "uint256"
                }
            ],
            "name": "closeShort",
            "outputs": [],
            "stateMutability": "nonpayable",
            "type": "function"
        },
        {
            "inputs": [],
            "name": "dailyInterestRateBase",
            "outputs": [
                {
                    "internalType": "uint16",
                    "name": "",
                    "type": "uint16"
                }
            ],
            "stateMutability": "view",
            "type": "function"
        },
        {
            "inputs": [],
            "name": "decimals",
            "outputs": [
                {
                    "internalType": "uint8",
                    "name": "",
                    "type": "uint8"
                }
            ],
            "stateMutability": "view",
            "type": "function"
        },
        {
            "inputs": [
                {
                    "internalType": "address",
                    "name": "account",
                    "type": "address"
                }
            ],
            "name": "detectSlide",
            "outputs": [],
            "stateMutability": "nonpayable",
            "type": "function"
        },
        {
            "inputs": [],
            "name": "divConst",
            "outputs": [
                {
                    "internalType": "uint24",
                    "name": "",
                    "type": "uint24"
                }
            ],
            "stateMutability": "view",
            "type": "function"
        },
        {
            "inputs": [
                {
                    "internalType": "address",
                    "name": "account",
                    "type": "address"
                }
            ],
            "name": "explosive",
            "outputs": [],
            "stateMutability": "nonpayable",
            "type": "function"
        },
        {
            "inputs": [],
            "name": "feeDivide",
            "outputs": [
                {
                    "internalType": "uint24",
                    "name": "",
                    "type": "uint24"
                }
            ],
            "stateMutability": "view",
            "type": "function"
        },
        {
            "inputs": [],
            "name": "feeOn",
            "outputs": [
                {
                    "internalType": "bool",
                    "name": "",
                    "type": "bool"
                }
            ],
            "stateMutability": "view",
            "type": "function"
        },
        {
            "inputs": [],
            "name": "feeRate",
            "outputs": [
                {
                    "internalType": "uint16",
                    "name": "",
                    "type": "uint16"
                }
            ],
            "stateMutability": "view",
            "type": "function"
        },
        {
            "inputs": [],
            "name": "feedPrice",
            "outputs": [
                {
                    "internalType": "contract AggregatorV3Interface",
                    "name": "",
                    "type": "address"
                }
            ],
            "stateMutability": "view",
            "type": "function"
        },
        {
            "inputs": [],
            "name": "feedPriceDecimal",
            "outputs": [
                {
                    "internalType": "uint256",
                    "name": "",
                    "type": "uint256"
                }
            ],
            "stateMutability": "view",
            "type": "function"
        },
        {
            "inputs": [],
            "name": "getLatestPrice",
            "outputs": [
                {
                    "internalType": "uint256",
                    "name": "",
                    "type": "uint256"
                }
            ],
            "stateMutability": "view",
            "type": "function"
        },
        {
            "inputs": [],
            "name": "getPoolNet",
            "outputs": [
                {
                    "internalType": "int256",
                    "name": "",
                    "type": "int256"
                }
            ],
            "stateMutability": "view",
            "type": "function"
        },
        {
            "inputs": [
                {
                    "internalType": "address",
                    "name": "_token0",
                    "type": "address"
                },
                {
                    "internalType": "address",
                    "name": "_feedPrice",
                    "type": "address"
                },
                {
                    "internalType": "uint256",
                    "name": "_feedPriceDecimal",
                    "type": "uint256"
                },
                {
                    "internalType": "uint256",
                    "name": "_minStartPool",
                    "type": "uint256"
                },
                {
                    "internalType": "uint8",
                    "name": "_leverage",
                    "type": "uint8"
                },
                {
                    "internalType": "int8",
                    "name": "_amountDecimal",
                    "type": "int8"
                }
            ],
            "name": "initialize",
            "outputs": [],
            "stateMutability": "nonpayable",
            "type": "function"
        },
        {
            "inputs": [],
            "name": "interestRewardRate",
            "outputs": [
                {
                    "internalType": "uint24",
                    "name": "",
                    "type": "uint24"
                }
            ],
            "stateMutability": "view",
            "type": "function"
        },
        {
            "inputs": [],
            "name": "isStart",
            "outputs": [
                {
                    "internalType": "bool",
                    "name": "",
                    "type": "bool"
                }
            ],
            "stateMutability": "view",
            "type": "function"
        },
        {
            "inputs": [],
            "name": "leverage",
            "outputs": [
                {
                    "internalType": "uint8",
                    "name": "",
                    "type": "uint8"
                }
            ],
            "stateMutability": "view",
            "type": "function"
        },
        {
            "inputs": [],
            "name": "minPool",
            "outputs": [
                {
                    "internalType": "uint256",
                    "name": "",
                    "type": "uint256"
                }
            ],
            "stateMutability": "view",
            "type": "function"
        },
        {
            "inputs": [],
            "name": "name",
            "outputs": [
                {
                    "internalType": "string",
                    "name": "",
                    "type": "string"
                }
            ],
            "stateMutability": "view",
            "type": "function"
        },
        {
            "inputs": [
                {
                    "internalType": "address",
                    "name": "",
                    "type": "address"
                }
            ],
            "name": "nonces",
            "outputs": [
                {
                    "internalType": "uint256",
                    "name": "",
                    "type": "uint256"
                }
            ],
            "stateMutability": "view",
            "type": "function"
        },
        {
            "inputs": [
                {
                    "internalType": "uint256",
                    "name": "priceExp",
                    "type": "uint256"
                },
                {
                    "internalType": "uint256",
                    "name": "amount",
                    "type": "uint256"
                },
                {
                    "internalType": "uint256",
                    "name": "rechargeAmount",
                    "type": "uint256"
                }
            ],
            "name": "openLong",
            "outputs": [],
            "stateMutability": "nonpayable",
            "type": "function"
        },
        {
            "inputs": [
                {
                    "internalType": "uint256",
                    "name": "priceExp",
                    "type": "uint256"
                },
                {
                    "internalType": "uint256",
                    "name": "amount",
                    "type": "uint256"
                },
                {
                    "internalType": "uint256",
                    "name": "rechargeAmount",
                    "type": "uint256"
                }
            ],
            "name": "openShort",
            "outputs": [],
            "stateMutability": "nonpayable",
            "type": "function"
        },
        {
            "inputs": [
                {
                    "internalType": "address",
                    "name": "owner",
                    "type": "address"
                },
                {
                    "internalType": "address",
                    "name": "spender",
                    "type": "address"
                },
                {
                    "internalType": "uint256",
                    "name": "value",
                    "type": "uint256"
                },
                {
                    "internalType": "uint256",
                    "name": "deadline",
                    "type": "uint256"
                },
                {
                    "internalType": "uint8",
                    "name": "v",
                    "type": "uint8"
                },
                {
                    "internalType": "bytes32",
                    "name": "r",
                    "type": "bytes32"
                },
                {
                    "internalType": "bytes32",
                    "name": "s",
                    "type": "bytes32"
                }
            ],
            "name": "permit",
            "outputs": [],
            "stateMutability": "nonpayable",
            "type": "function"
        },
        {
            "inputs": [],
            "name": "poolLongAmount",
            "outputs": [
                {
                    "internalType": "uint256",
                    "name": "",
                    "type": "uint256"
                }
            ],
            "stateMutability": "view",
            "type": "function"
        },
        {
            "inputs": [],
            "name": "poolLongPrice",
            "outputs": [
                {
                    "internalType": "uint256",
                    "name": "",
                    "type": "uint256"
                }
            ],
            "stateMutability": "view",
            "type": "function"
        },
        {
            "inputs": [],
            "name": "poolShortAmount",
            "outputs": [
                {
                    "internalType": "uint256",
                    "name": "",
                    "type": "uint256"
                }
            ],
            "stateMutability": "view",
            "type": "function"
        },
        {
            "inputs": [],
            "name": "poolShortPrice",
            "outputs": [
                {
                    "internalType": "uint256",
                    "name": "",
                    "type": "uint256"
                }
            ],
            "stateMutability": "view",
            "type": "function"
        },
        {
            "inputs": [
                {
                    "internalType": "uint256",
                    "name": "amount",
                    "type": "uint256"
                }
            ],
            "name": "rechargeMargin",
            "outputs": [],
            "stateMutability": "nonpayable",
            "type": "function"
        },
        {
            "inputs": [
                {
                    "internalType": "uint256",
                    "name": "liquidity",
                    "type": "uint256"
                },
                {
                    "internalType": "address",
                    "name": "to",
                    "type": "address"
                }
            ],
            "name": "removeLiquidity",
            "outputs": [],
            "stateMutability": "nonpayable",
            "type": "function"
        },
        {
            "inputs": [],
            "name": "singleTradeLimitRate",
            "outputs": [
                {
                    "internalType": "uint16",
                    "name": "",
                    "type": "uint16"
                }
            ],
            "stateMutability": "view",
            "type": "function"
        },
        {
            "inputs": [],
            "name": "slideP",
            "outputs": [
                {
                    "internalType": "uint8",
                    "name": "",
                    "type": "uint8"
                }
            ],
            "stateMutability": "view",
            "type": "function"
        },
        {
            "inputs": [],
            "name": "sumFee",
            "outputs": [
                {
                    "internalType": "uint256",
                    "name": "",
                    "type": "uint256"
                }
            ],
            "stateMutability": "view",
            "type": "function"
        },
        {
            "inputs": [],
            "name": "symbol",
            "outputs": [
                {
                    "internalType": "string",
                    "name": "",
                    "type": "string"
                }
            ],
            "stateMutability": "view",
            "type": "function"
        },
        {
            "inputs": [],
            "name": "token0",
            "outputs": [
                {
                    "internalType": "address",
                    "name": "",
                    "type": "address"
                }
            ],
            "stateMutability": "view",
            "type": "function"
        },
        {
            "inputs": [],
            "name": "token0Decimal",
            "outputs": [
                {
                    "internalType": "uint256",
                    "name": "",
                    "type": "uint256"
                }
            ],
            "stateMutability": "view",
            "type": "function"
        },
        {
            "inputs": [],
            "name": "totalPool",
            "outputs": [
                {
                    "internalType": "int256",
                    "name": "",
                    "type": "int256"
                }
            ],
            "stateMutability": "view",
            "type": "function"
        },
        {
            "inputs": [],
            "name": "totalSupply",
            "outputs": [
                {
                    "internalType": "uint256",
                    "name": "",
                    "type": "uint256"
                }
            ],
            "stateMutability": "view",
            "type": "function"
        },
        {
            "inputs": [
                {
                    "internalType": "address",
                    "name": "",
                    "type": "address"
                }
            ],
            "name": "traders",
            "outputs": [
                {
                    "internalType": "int256",
                    "name": "margin",
                    "type": "int256"
                },
                {
                    "internalType": "uint256",
                    "name": "longAmount",
                    "type": "uint256"
                },
                {
                    "internalType": "uint256",
                    "name": "longPrice",
                    "type": "uint256"
                },
                {
                    "internalType": "uint256",
                    "name": "shortAmount",
                    "type": "uint256"
                },
                {
                    "internalType": "uint256",
                    "name": "shortPrice",
                    "type": "uint256"
                }
            ],
            "stateMutability": "view",
            "type": "function"
        },
        {
            "inputs": [
                {
                    "internalType": "address",
                    "name": "to",
                    "type": "address"
                },
                {
                    "internalType": "uint256",
                    "name": "value",
                    "type": "uint256"
                }
            ],
            "name": "transfer",
            "outputs": [
                {
                    "internalType": "bool",
                    "name": "",
                    "type": "bool"
                }
            ],
            "stateMutability": "nonpayable",
            "type": "function"
        },
        {
            "inputs": [
                {
                    "internalType": "address",
                    "name": "from",
                    "type": "address"
                },
                {
                    "internalType": "address",
                    "name": "to",
                    "type": "address"
                },
                {
                    "internalType": "uint256",
                    "name": "value",
                    "type": "uint256"
                }
            ],
            "name": "transferFrom",
            "outputs": [
                {
                    "internalType": "bool",
                    "name": "",
                    "type": "bool"
                }
            ],
            "stateMutability": "nonpayable",
            "type": "function"
        },
        {
            "inputs": [
                {
                    "internalType": "uint256",
                    "name": "amount",
                    "type": "uint256"
                }
            ],
            "name": "withdrawMargin",
            "outputs": [],
            "stateMutability": "nonpayable",
            "type": "function"
        }
    ],
    "bytecode": "6101a06040523480156200001257600080fd5b50604051620035533803806200355383398101604081905262000035916200027b565b856001600160a01b031663313ce5676040518163ffffffff1660e01b815260040160206040518083038186803b1580156200006f57600080fd5b505afa15801562000084573d6000803e3d6000fd5b505050506040513d601f19601f82011682018060405250810190620000aa9190620002f3565b604080518082018252600c81526b48656467657853696e676c6560a01b6020918201528151808301835260018152603160f81b9082015281517f8b73c3c69bb8fe3d512ecc4cf759cc79239f7b179b0ffacaa9a75d522b39400f918101919091527fdbb8f54117374490c454ab41b80d95cf4a0c3b286124d9b83e346d854dc3efcd918101919091527fc89efdaa54c0f20c7adf612882df0950f5a951637e0307cdcb4c672f298b8bc660608201524660808201523060a082015260c00160408051601f19818403018152828252805160209182012060a05260ff9093166080526001600160a01b0380891661016052891661010081905263313ce56760e01b83529051909263313ce5679260048082019391829003018186803b158015620001d257600080fd5b505afa158015620001e7573d6000803e3d6000fd5b505050506040513d601f19601f820116820180604052508101906200020d9190620002f3565b6200021a90600a6200042d565b610120526101809390935260c09190915260ff1660e0526004805461ffff1916905560000b61014052506200043e9050565b80516001600160a01b03811681146200026457600080fd5b919050565b805160ff811681146200026457600080fd5b60008060008060008060c087890312156200029557600080fd5b620002a0876200024c565b9550620002b0602088016200024c565b94506040870151935060608701519250620002ce6080880162000269565b915060a08701518060000b8114620002e557600080fd5b809150509295509295509295565b6000602082840312156200030657600080fd5b620003118262000269565b9392505050565b634e487b7160e01b600052601160045260246000fd5b600181815b808511156200036f57816000190482111562000353576200035362000318565b808516156200036157918102915b93841c939080029062000333565b509250929050565b600082620003885750600162000427565b81620003975750600062000427565b8160018114620003b05760028114620003bb57620003db565b600191505062000427565b60ff841115620003cf57620003cf62000318565b50506001821b62000427565b5060208310610133831016604e8410600b841016171562000400575081810a62000427565b6200040c83836200032e565b806000190482111562000423576200042362000318565b0290505b92915050565b60006200031160ff84168362000377565b60805160a05160c05160e05161010051610120516101405161016051610180516130186200053b60003960008181610335015281816117f7015261188701526000818161070101526116d4015260008181610470015281816117ce0152818161181b01526118ab0152600081816106da0152818161184601526118df0152600081816103a00152818161096a01528181610b8d01528181610bf701528181610f12015281816119200152611f9a0152600081816104c40152818161082901528181610a3a01528181612607015261265d01526000818161044901526119990152600081816105390152611a650152600061051201526130186000f3fe608060405234801561001057600080fd5b50600436106102bb5760003560e01c806370a0823111610182578063978bbdb9116100e9578063d375454f116100a2578063e59843191161007c578063e598431914610791578063ecfb49a31461079a578063f69d91ae146107a3578063fc1e2c45146107b657600080fd5b8063d375454f14610749578063d505accf14610753578063dd62ed3e1461076657600080fd5b8063978bbdb9146106c3578063994af3ae146106cc5780639ddc230a146106d5578063a04eecae146106fc578063a9059cbb14610723578063c95f9d0e1461073657600080fd5b80638a55d36e1161013b5780638a55d36e146106145780638e15f473146106215780638e4068921461062957806392a88fa21461063257806395d89b4114610697578063971059fb146106ba57600080fd5b806370a08231146105a657806371b31707146105c65780637bb71a97146105d95780637e4856c4146105e15780637ecebe00146105eb5780638967b6941461060b57600080fd5b8063251c073a11610226578063313ce567116101df578063313ce5671461050d5780633644e515146105345780633d07bfb71461055b578063416c56901461056e5780634f335d0a146105815780636c2ee3591461059357600080fd5b8063251c073a1461042e5780632678b8fd146104445780632be902821461046b5780632c204fa8146104a55780632c86d98e146104bf57806330adf81f146104e657600080fd5b80630dfe1681116102785780630dfe16811461039b57806311ce83f8146103da57806318160ddd146103ed5780631865071d146103f6578063190b065f1461041257806323b872dd1461041b57600080fd5b806301bcc908146102c057806305fe138b146102e357806306fdde03146102f857806308c73e7414610330578063095ea7b3146103655780630cea753414610388575b600080fd5b6102ca620186a081565b60405162ffffff90911681526020015b60405180910390f35b6102f66102f136600461298a565b6107c9565b005b6103236040518060400160405280600c81526020016b48656467657853696e676c6560a01b81525081565b6040516102da91906129e6565b6103577f000000000000000000000000000000000000000000000000000000000000000081565b6040519081526020016102da565b610378610373366004612a19565b6109cb565b60405190151581526020016102da565b6102f6610396366004612a43565b6109e2565b6103c27f000000000000000000000000000000000000000000000000000000000000000081565b6040516001600160a01b0390911681526020016102da565b6102f66103e8366004612a43565b610bf2565b61035760005481565b6103ff61753081565b60405161ffff90911681526020016102da565b61035760055481565b610378610429366004612a5c565b610c7a565b6102f661043c366004612aa9565b505050505050565b6103577f000000000000000000000000000000000000000000000000000000000000000081565b6104927f000000000000000000000000000000000000000000000000000000000000000081565b60405160009190910b81526020016102da565b6104ad603281565b60405160ff90911681526020016102da565b6104ad7f000000000000000000000000000000000000000000000000000000000000000081565b6103577f6e71edae12b1b97f4d1f60370fef10105fa2faae0126114a169c64845d6126c981565b6104ad7f000000000000000000000000000000000000000000000000000000000000000081565b6103577f000000000000000000000000000000000000000000000000000000000000000081565b6102f6610569366004612b19565b610cf4565b6102f661057c366004612b34565b610f92565b60045461037890610100900460ff1681565b6102f66105a1366004612b56565b61115d565b6103576105b4366004612b19565b60016020526000908152604090205481565b6102f66105d4366004612b56565b6113c4565b610357611610565b6102ca620f424081565b6103576105f9366004612b19565b60036020526000908152604090205481565b6103ff6103e881565b6004546103789060ff1681565b6103576116cf565b61035760085481565b61066f610640366004612b19565b600b60205260009081526040902080546001820154600283015460038401546004909401549293919290919085565b604080519586526020860194909452928401919091526060830152608082015260a0016102da565b610323604051806040016040528060048152602001634845585360e01b81525081565b610357600a5481565b6103ff61025881565b61035760095481565b6103577f000000000000000000000000000000000000000000000000000000000000000081565b6103c27f000000000000000000000000000000000000000000000000000000000000000081565b610378610731366004612a19565b61190e565b6102f661074436600461298a565b61191b565b6102ca6203d09081565b6102f6610761366004612b82565b611a07565b610357610774366004612bec565b600260209081526000928352604080842090915290825290205481565b61035760075481565b61035760065481565b6102f66107b1366004612b34565b611c33565b6102f66107c4366004612b19565b611e00565b600454829060ff16156109435760006107e06116cf565b905060006107ed82612049565b90506000600854600754116108115760075460085461080c9190612c2c565b610821565b6008546007546108219190612c2c565b9050600060ff7f0000000000000000000000000000000000000000000000000000000000000000166108538584612c43565b61085d9190612c62565b90508083136108aa5760405162461bcd60e51b81526020600482015260146024820152733732ba103732b2b2103132903837b9b4ba34b7b760611b60448201526064015b60405180910390fd5b60006108b68285612c2c565b905060006108c5600a86612c62565b9050808211156108d3578091505b6000546108e08a87612c43565b6108ea9190612c62565b96508187111561093c5760405162461bcd60e51b815260206004820152601860248201527f776974686472617720616d6f756e7420746f6f206d756368000000000000000060448201526064016108a1565b5050505050505b80600660008282546109559190612c84565b9091555061096590503384612092565b6109907f0000000000000000000000000000000000000000000000000000000000000000838361211d565b60405183815233907fcc16f5dbb4873280815c1ee09dbd06736cffcc184412cf7a71a0fdb75d397ca5906020015b60405180910390a2505050565b60006109d8338484612238565b5060015b92915050565b336000908152600b60209081526040808320815160a081018352815481526001820154938101939093526002810154918301919091526003810154606083015260040154608082015290610a346116cf565b905060007f000000000000000000000000000000000000000000000000000000000000000060ff168284606001518560200151610a719190612cc3565b610a7b9190612c43565b610a859190612c62565b90506000828460600151610a999190612c43565b84604001518560200151610aad9190612c43565b610ab79190612cc3565b84608001518560600151610acb9190612c43565b848660200151610adb9190612c43565b610ae59190612cc3565b8551610af19190612cdb565b610afb9190612c84565b90506000610b098383612c84565b905060008113610b5b5760405162461bcd60e51b815260206004820152601860248201527f63616e207769746864726177206973206e65676174697665000000000000000060448201526064016108a1565b8581811315610b675750805b8551610b74908290612c84565b336000818152600b6020526040902091909155610bb3907f0000000000000000000000000000000000000000000000000000000000000000908361211d565b60405181815233907f884edad9ce6fa2440d8a54cc123490eb96d2768479d49ff9c7366125a9424364906020015b60405180910390a250505050505050565b610c1e7f000000000000000000000000000000000000000000000000000000000000000033308461229a565b336000908152600b602052604081208054839290610c3d908490612cdb565b909155505060405181815233907f78d9de6f3ad1cae9e0cbcbaa5267fd90f6a6728831eec42b7c147b398b2269249060200160405180910390a250565b6001600160a01b038316600090815260026020908152604080832033845290915281205460001914610cdf576001600160a01b038416600090815260026020908152604080832033845290915281208054849290610cd9908490612c2c565b90915550505b610cea8484846123c2565b5060019392505050565b6000610cfe6116cf565b6001600160a01b0383166000908152600b602052604090206003810154600182015492935090911415610d735760405162461bcd60e51b815260206004820152601d60248201527f6e656564206c6f6e6720616e642073686f7274206e6f7420657175616c00000060448201526064016108a1565b60085460075460038301546001848101546000921015610e2057828411610dcf5760405162461bcd60e51b815260206004820152601060248201526f1a185d99481b9bc81a5b9d195c995cdd60821b60448201526064016108a1565b83620f4240610dde8583612c2c565b60018801546103e890610df1908b612c43565b610dfb9190612c43565b610e059190612c43565b610e0f9190612c62565b610e199190612c62565b9150610eb3565b838311610e625760405162461bcd60e51b815260206004820152601060248201526f1a185d99481b9bc81a5b9d195c995cdd60821b60448201526064016108a1565b5060001982620f4240610e758683612c2c565b60038801546103e890610e88908b612c43565b610e929190612c43565b610e9c9190612c43565b610ea69190612c62565b610eb09190612c62565b91505b6000620f4240610ec6620186a085612c43565b610ed09190612c62565b905082866000016000828254610ee69190612c84565b90915550610ef690508184612c84565b60066000828254610f079190612cdb565b90915550610f3890507f0000000000000000000000000000000000000000000000000000000000000000338361211d565b60408051600084900b8152602081018590529081018890526001600160a01b038916907f78213dfb97e98b601b3fee012a0f6bddbf4e63c293c77b5186137af1e7cf62ae9060600160405180910390a25050505050505050565b6000610f9c6116cf565b90506000620f4240610faf603282612d1c565b62ffffff16610fbc6116cf565b610fc69190612c43565b610fd09190612c62565b9050838110156110225760405162461bcd60e51b815260206004820152601960248201527f636c6f7365206c6f6e67207072696365206973206c6f7765720000000000000060448201526064016108a1565b336000908152600b60209081526040808320815160a08101835281548152600182015493810184905260028201549281019290925260038101546060830152600401546080820152919061107b90859085908890612463565b9050600082604001518461108f9190612c84565b6110999087612d40565b90508583602001516110ab9190612c2c565b336000908152600b6020526040902060010155825182906110cd908390612cdb565b6110d79190612c84565b336000908152600b602090815260409091209190915583015186141561110b57336000908152600b60205260408120600201555b856008600082825461111d9190612c2c565b9091555061112d905082826124e3565b604080516001198152602081018890529081018590523390600080516020612fc383398151915290606001610be1565b60006111676116cf565b90506000620f424061117a603282612dc5565b6111899062ffffff1684612c43565b6111939190612c62565b905084811115806111a2575084155b6111ee5760405162461bcd60e51b815260206004820152601b60248201527f6f70656e206c6f6e6720707269636520697320746f6f2068696768000000000060448201526064016108a1565b60045460ff166112385760405162461bcd60e51b815260206004820152601560248201527418dbdb9d1c9858dd081a5cc81b9bdd081cdd185c9d605a1b60448201526064016108a1565b82156112475761124783610bf2565b336000908152600b60209081526040808320815160a08101835281548152600182015493810193909352600281015491830191909152600381015460608301526004015460808201529061129b8387612c43565b905060006112ab83888785612581565b90508683602001516112bd9190612cc3565b336000908152600b60209081526040909120600101919091558301516112e4908890612cc3565b82846040015185602001516112f99190612c43565b6113039190612cc3565b61130d9190612c62565b336000908152600b6020526040902060020155825161132d908290612c84565b336000908152600b602052604090205560085461134a8882612cc3565b6008556113578882612cc3565b83600a54836113669190612c43565b6113709190612cc3565b61137a9190612c62565b600a556113868261276c565b6040805160018152602081018a90529081018690523390600080516020612fc3833981519152906060015b60405180910390a2505050505050505050565b60006113ce6116cf565b90506000620f42406113e1603282612d1c565b6113f09062ffffff1684612c43565b6113fa9190612c62565b90508481101561144c5760405162461bcd60e51b815260206004820152601b60248201527f6f70656e2073686f727420707269636520697320746f6f206c6f77000000000060448201526064016108a1565b60045460ff166114965760405162461bcd60e51b815260206004820152601560248201527418dbdb9d1c9858dd081a5cc81b9bdd081cdd185c9d605a1b60448201526064016108a1565b82156114a5576114a583610bf2565b336000908152600b60209081526040808320815160a0810183528154815260018201549381019390935260028101549183019190915260038101546060830152600401546080820152906114f98387612c43565b9050600061150983868985612581565b905086836060015161151b9190612cc3565b336000908152600b6020526040902060030155606083015161153e908890612cc3565b82846080015185606001516115539190612c43565b61155d9190612cc3565b6115679190612c62565b336000908152600b60205260409020600401558251611587908290612c84565b336000908152600b60205260409020556007546115a48882612cc3565b6007556115b18882612cc3565b83600954836115c09190612c43565b6115ca9190612cc3565b6115d49190612c62565b6009556115e08261276c565b604080516000198152602081018a90529081018690523390600080516020612fc3833981519152906060016113b1565b60008061161b6116cf565b905060008160085461162d9190612c43565b60095460075461163d9190612c43565b6116479190612cc3565b600a546008546116579190612c43565b836007546116659190612c43565b61166f9190612cc3565b60065461167c9190612cdb565b6116869190612c84565b9050600081136109dc5760405162461bcd60e51b81526020600482015260146024820152733732ba103732b2b2103132903837b9b4ba34b7b760611b60448201526064016108a1565b6000807f00000000000000000000000000000000000000000000000000000000000000006001600160a01b031663feaf968c6040518163ffffffff1660e01b815260040160a06040518083038186803b15801561172b57600080fd5b505afa15801561173f573d6000803e3d6000fd5b505050506040513d601f19601f820116820180604052508101906117639190612e06565b505050915050600081136117ca5760405162461bcd60e51b815260206004820152602860248201527f7468652070616972207374616e64617264207072696365206d75737420626520604482015267706f73697469766560c01b60648201526084016108a1565b60007f000000000000000000000000000000000000000000000000000000000000000060000b12611885577f00000000000000000000000000000000000000000000000000000000000000006118417f0000000000000000000000000000000000000000000000000000000000000000600a612f3a565b61186b7f000000000000000000000000000000000000000000000000000000000000000084612c43565b6118759190612c43565b61187f9190612c62565b91505090565b7f00000000000000000000000000000000000000000000000000000000000000006118cf7f0000000000000000000000000000000000000000000000000000000000000000612f49565b6118da90600a612f3a565b6119047f000000000000000000000000000000000000000000000000000000000000000084612c43565b6118759190612c62565b60006109d83384846123c2565b6119477f000000000000000000000000000000000000000000000000000000000000000033308561229a565b600454829060ff161561197d57600061195e611610565b9050808460005461196f9190612c43565b6119799190612c62565b9150505b826006600082825461198f9190612cdb565b90915550506006547f0000000000000000000000000000000000000000000000000000000000000000136119cb576004805460ff191660011790555b6119d582826127f5565b60405181815233907f0f6798a560793a54c3bcfe86a93cde1e73087d944c0ea20544137d4121396885906020016109be565b42841015611a495760405162461bcd60e51b815260206004820152600f60248201526e12195919d95e0e8811561412549151608a1b60448201526064016108a1565b6001600160a01b038716600090815260036020526040812080547f0000000000000000000000000000000000000000000000000000000000000000917f6e71edae12b1b97f4d1f60370fef10105fa2faae0126114a169c64845d6126c9918b918b918b9187611ab783612f69565b909155506040805160208101969096526001600160a01b0394851690860152929091166060840152608083015260a082015260c0810187905260e00160405160208183030381529060405280519060200120604051602001611b3092919061190160f01b81526002810192909252602282015260420190565b60408051601f198184030181528282528051602091820120600080855291840180845281905260ff88169284019290925260608301869052608083018590529092509060019060a0016020604051602081039080840390855afa158015611b9b573d6000803e3d6000fd5b5050604051601f1901519150506001600160a01b03811615801590611bd15750886001600160a01b0316816001600160a01b0316145b611c1d5760405162461bcd60e51b815260206004820152601960248201527f4865646765783a20494e56414c49445f5349474e41545552450000000000000060448201526064016108a1565b611c28898989612238565b505050505050505050565b6000611c3d6116cf565b90506000620f4240611c50603282612dc5565b611c5f9062ffffff1684612c43565b611c699190612c62565b90508381111580611c78575083155b611cc45760405162461bcd60e51b815260206004820152601b60248201527f636c6f73652073686f727420707269636520697320686967686572000000000060448201526064016108a1565b336000908152600b60209081526040808320815160a081018352815481526001820154938101939093526002810154918301919091526003810154606083018190526004909101546080830152909190611d2390859085908890612463565b90506000838360800151611d379190612c84565b611d419087612d40565b9050858360600151611d539190612c2c565b336000908152600b602052604090206003015582518290611d75908390612cdb565b611d7f9190612c84565b336000908152600b60205260409020556060830151861415611daf57336000908152600b60205260408120600401555b8560076000828254611dc19190612c2c565b90915550611dd1905082826124e3565b6040805160028152602081018890529081018590523390600080516020612fc383398151915290606001610be1565b6001600160a01b0381166000908152600b60209081526040808320815160a0810183528154815260018201549381019390935260028101549183019190915260038101546060830181905260049091015460808301819052919291601e91611e689190612c43565b83604001518460200151611e7c9190612c43565b611e869190612cc3565b611e909190612c62565b90506000611e9c6116cf565b90506000611eaa8483612876565b905082811315611ef45760405162461bcd60e51b815260206004820152601560248201527410d85b881b9bdd08189948195e1c1b1bdcda5d9959605a1b60448201526064016108a1565b602084015115611f1a57836020015160086000828254611f149190612c2c565b90915550505b606084015115611f4057836060015160076000828254611f3a9190612c2c565b90915550505b60608401516020850151600119911115611f58575060025b6001600160a01b0386166000908152600b60205260408120818155600181018290556002810182905560038101829055600401819055821315611fc557611fc07f0000000000000000000000000000000000000000000000000000000000000000338461211d565b611fdd565b8160066000828254611fd79190612cdb565b90915550505b856001600160a01b03167f1cf7369c3767c976b447baaae4eed8217e2d190d1750c589e62bf5f7ecc4aaff828760600151886020015161201d9190612cc3565b6040805160009390930b83526020830191909152810186905260600160405180910390a2505050505050565b6000808260085461205a9190612c43565b60095460075461206a9190612c43565b6120749190612cc3565b600a546008546120849190612c43565b846007546116659190612c43565b6001600160a01b038216600090815260016020526040812080548392906120ba908490612c2c565b92505081905550806000808282546120d29190612c2c565b90915550506040518181526000906001600160a01b038416907fddf252ad1be2c89b69c2b068fc378daa952ba7f163c4a11628f55a4df523b3ef906020015b60405180910390a35050565b604080516001600160a01b038481166024830152604480830185905283518084039091018152606490920183526020820180516001600160e01b031663a9059cbb60e01b17905291516000928392908716916121799190612f84565b6000604051808303816000865af19150503d80600081146121b6576040519150601f19603f3d011682016040523d82523d6000602084013e6121bb565b606091505b50915091508180156121e55750805115806121e55750808060200190518101906121e59190612fa0565b6122315760405162461bcd60e51b815260206004820152601f60248201527f5472616e7366657248656c7065723a205452414e534645525f4641494c45440060448201526064016108a1565b5050505050565b6001600160a01b0383811660008181526002602090815260408083209487168084529482529182902085905590518481527f8c5be1e5ebec7d5bd14f71427d1e84f3dd0314c0f7b2291e5b200ac8c7c3b92591015b60405180910390a3505050565b604080516001600160a01b0385811660248301528481166044830152606480830185905283518084039091018152608490920183526020820180516001600160e01b03166323b872dd60e01b17905291516000928392908816916122fe9190612f84565b6000604051808303816000865af19150503d806000811461233b576040519150601f19603f3d011682016040523d82523d6000602084013e612340565b606091505b509150915081801561236a57508051158061236a57508080602001905181019061236a9190612fa0565b61043c5760405162461bcd60e51b8152602060048201526024808201527f5472616e7366657248656c7065723a205452414e534645525f46524f4d5f46416044820152631253115160e21b60648201526084016108a1565b6001600160a01b038316600090815260016020526040812080548392906123ea908490612c2c565b90915550506001600160a01b03821660009081526001602052604081208054839290612417908490612cc3565b92505081905550816001600160a01b0316836001600160a01b03167fddf252ad1be2c89b69c2b068fc378daa952ba7f163c4a11628f55a4df523b3ef8360405161228d91815260200190565b600061246f85846128f1565b818311156124b55760405162461bcd60e51b81526020600482015260136024820152720e0dee6d2e8d2dedc40dcdee840cadcdeeaced606b1b60448201526064016108a1565b620f42406102586124c68686612c43565b6124d09190612c43565b6124da9190612c62565b95945050505050565b600454610100900460ff161561255c576000620f42406125066203d09085612c43565b6125109190612c62565b905080600560008282546125249190612cc3565b909155508290506125358285612c84565b61253f9190612c84565b600660008282546125509190612cdb565b9091555061257d915050565b6125668183612c84565b600660008282546125779190612cdb565b90915550505b5050565b600061258d84846128f1565b600084866060015161259f9190612c43565b866040015187602001516125b39190612c43565b6125bd9190612cc3565b866080015187606001516125d19190612c43565b8688602001516125e19190612c43565b6125eb9190612cc3565b87516125f79190612cdb565b6126019190612c84565b905060007f000000000000000000000000000000000000000000000000000000000000000060ff16868860600151896020015161263e9190612cc3565b6126489190612c43565b6126529190612c62565b9050600061268360ff7f00000000000000000000000000000000000000000000000000000000000000001686612c62565b90506000620f424061269761025888612c43565b6126a19190612c62565b90506000816126b08587612c84565b6126ba9190612c84565b9050600081136127185760405162461bcd60e51b815260206004820152602360248201527f6c656674206d617267696e20697320657175616c206f72206c6573732074686160448201526206e20360ec1b60648201526084016108a1565b8281101561275f5760405162461bcd60e51b81526020600482015260146024820152730dac2e4ced2dc40d2e640dcdee840cadcdeeaced60631b60448201526064016108a1565b5098975050505050505050565b600454610100900460ff16156127da576000620f424061278f6203d09084612c43565b6127999190612c62565b905080600560008282546127ad9190612cc3565b909155506127bd90508183612c84565b600660008282546127ce9190612cdb565b909155506127f2915050565b80600660008282546127ec9190612cdb565b90915550505b50565b806000808282546128069190612cc3565b90915550506001600160a01b03821660009081526001602052604081208054839290612833908490612cc3565b90915550506040518181526001600160a01b038316906000907fddf252ad1be2c89b69c2b068fc378daa952ba7f163c4a11628f55a4df523b3ef90602001612111565b60008183606001516128889190612c43565b8360400151846020015161289c9190612c43565b6128a69190612cc3565b836080015184606001516128ba9190612c43565b8385602001516128ca9190612c43565b6128d49190612cc3565b84516128e09190612cdb565b6128ea9190612c84565b9392505050565b60006128fc83612049565b905082620f424061290f61753084612c43565b6129199190612c62565b6129239190612c62565b8211156129695760405162461bcd60e51b8152602060048201526014602482015273616d6f756e74206f766572206e65742a7261746560601b60448201526064016108a1565b505050565b80356001600160a01b038116811461298557600080fd5b919050565b6000806040838503121561299d57600080fd5b823591506129ad6020840161296e565b90509250929050565b60005b838110156129d15781810151838201526020016129b9565b838111156129e0576000848401525b50505050565b6020815260008251806020840152612a058160408501602087016129b6565b601f01601f19169190910160400192915050565b60008060408385031215612a2c57600080fd5b612a358361296e565b946020939093013593505050565b600060208284031215612a5557600080fd5b5035919050565b600080600060608486031215612a7157600080fd5b612a7a8461296e565b9250612a886020850161296e565b9150604084013590509250925092565b803560ff8116811461298557600080fd5b60008060008060008060c08789031215612ac257600080fd5b612acb8761296e565b9550612ad96020880161296e565b94506040870135935060608701359250612af560808801612a98565b915060a08701358060000b8114612b0b57600080fd5b809150509295509295509295565b600060208284031215612b2b57600080fd5b6128ea8261296e565b60008060408385031215612b4757600080fd5b50508035926020909101359150565b600080600060608486031215612b6b57600080fd5b505081359360208301359350604090920135919050565b600080600080600080600060e0888a031215612b9d57600080fd5b612ba68861296e565b9650612bb46020890161296e565b95506040880135945060608801359350612bd060808901612a98565b925060a0880135915060c0880135905092959891949750929550565b60008060408385031215612bff57600080fd5b612c088361296e565b91506129ad6020840161296e565b634e487b7160e01b600052601160045260246000fd5b600082821015612c3e57612c3e612c16565b500390565b6000816000190483118215151615612c5d57612c5d612c16565b500290565b600082612c7f57634e487b7160e01b600052601260045260246000fd5b500490565b60008083128015600160ff1b850184121615612ca257612ca2612c16565b6001600160ff1b0384018313811615612cbd57612cbd612c16565b50500390565b60008219821115612cd657612cd6612c16565b500190565b600080821280156001600160ff1b0384900385131615612cfd57612cfd612c16565b600160ff1b8390038412811615612d1657612d16612c16565b50500190565b600062ffffff83811690831681811015612d3857612d38612c16565b039392505050565b60006001600160ff1b0381841382841380821686840486111615612d6657612d66612c16565b600160ff1b6000871282811687830589121615612d8557612d85612c16565b60008712925087820587128484161615612da157612da1612c16565b87850587128184161615612db757612db7612c16565b505050929093029392505050565b600062ffffff808316818516808303821115612de357612de3612c16565b01949350505050565b805169ffffffffffffffffffff8116811461298557600080fd5b600080600080600060a08688031215612e1e57600080fd5b612e2786612dec565b9450602086015193506040860151925060608601519150612e4a60808701612dec565b90509295509295909350565b600181815b80851115612e91578160001904821115612e7757612e77612c16565b80851615612e8457918102915b93841c9390800290612e5b565b509250929050565b600082612ea8575060016109dc565b81612eb5575060006109dc565b8160018114612ecb5760028114612ed557612ef1565b60019150506109dc565b60ff841115612ee657612ee6612c16565b50506001821b6109dc565b5060208310610133831016604e8410600b8410161715612f14575081810a6109dc565b612f1e8383612e56565b8060001904821115612f3257612f32612c16565b029392505050565b60006128ea60ff841683612e99565b600081810b607f19811415612f6057612f60612c16565b60000392915050565b6000600019821415612f7d57612f7d612c16565b5060010190565b60008251612f968184602087016129b6565b9190910192915050565b600060208284031215612fb257600080fd5b815180151581146128ea57600080fdfe303db7636b0e071f088d2cd5e8463efe513531272d61a18739b21053f6d7b430a264697066735822122005eaccadab7b6cb4529af63444e0ab4997f60ad7df0fff89f26fc17c5288a0da64736f6c63430008090033",
    "sourcePath": "d:/contract/hedgex/Single.sol",
    "compiler": {
        "name": "solc",
        "version": "0.8.9+commit.e5eed63a"
    },
    "functionHashes": {
        "DOMAIN_SEPARATOR()": "3644e515",
        "PERMIT_TYPEHASH()": "30adf81f",
        "addLiquidity(uint256,address)": "c95f9d0e",
        "allowance(address,address)": "dd62ed3e",
        "amountDecimal()": "2be90282",
        "approve(address,uint256)": "095ea7b3",
        "balanceOf(address)": "70a08231",
        "closeLong(uint256,uint256)": "416c5690",
        "closeShort(uint256,uint256)": "f69d91ae",
        "dailyInterestRateBase()": "8967b694",
        "decimals()": "313ce567",
        "detectSlide(address)": "3d07bfb7",
        "divConst()": "7e4856c4",
        "explosive(address)": "fc1e2c45",
        "feeDivide()": "d375454f",
        "feeOn()": "4f335d0a",
        "feeRate()": "978bbdb9",
        "feedPrice()": "a04eecae",
        "feedPriceDecimal()": "08c73e74",
        "getLatestPrice()": "8e15f473",
        "getPoolNet()": "7bb71a97",
        "initialize(address,address,uint256,uint256,uint8,int8)": "251c073a",
        "interestRewardRate()": "01bcc908",
        "isStart()": "8a55d36e",
        "leverage()": "2c86d98e",
        "minPool()": "2678b8fd",
        "name()": "06fdde03",
        "nonces(address)": "7ecebe00",
        "openLong(uint256,uint256,uint256)": "6c2ee359",
        "openShort(uint256,uint256,uint256)": "71b31707",
        "permit(address,address,uint256,uint256,uint8,bytes32,bytes32)": "d505accf",
        "poolLongAmount()": "e5984319",
        "poolLongPrice()": "994af3ae",
        "poolShortAmount()": "8e406892",
        "poolShortPrice()": "971059fb",
        "rechargeMargin(uint256)": "11ce83f8",
        "removeLiquidity(uint256,address)": "05fe138b",
        "singleTradeLimitRate()": "1865071d",
        "slideP()": "2c204fa8",
        "sumFee()": "190b065f",
        "symbol()": "95d89b41",
        "token0()": "0dfe1681",
        "token0Decimal()": "9ddc230a",
        "totalPool()": "ecfb49a3",
        "totalSupply()": "18160ddd",
        "traders(address)": "92a88fa2",
        "transfer(address,uint256)": "a9059cbb",
        "transferFrom(address,address,uint256)": "23b872dd",
        "withdrawMargin(uint256)": "0cea7534"
    },
    "gasEstimates": {
        "creation": {
            "codeDepositCost": "2462400",
            "executionCost": "infinite",
            "totalCost": "infinite"
        },
        "external": {
            "DOMAIN_SEPARATOR()": "infinite",
            "PERMIT_TYPEHASH()": "351",
            "addLiquidity(uint256,address)": "infinite",
            "allowance(address,address)": "infinite",
            "amountDecimal()": "infinite",
            "approve(address,uint256)": "24663",
            "balanceOf(address)": "2565",
            "closeLong(uint256,uint256)": "infinite",
            "closeShort(uint256,uint256)": "infinite",
            "dailyInterestRateBase()": "360",
            "decimals()": "infinite",
            "detectSlide(address)": "infinite",
            "divConst()": "305",
            "explosive(address)": "infinite",
            "feeDivide()": "260",
            "feeOn()": "2454",
            "feeRate()": "249",
            "feedPrice()": "infinite",
            "feedPriceDecimal()": "infinite",
            "getLatestPrice()": "infinite",
            "getPoolNet()": "infinite",
            "initialize(address,address,uint256,uint256,uint8,int8)": "infinite",
            "interestRewardRate()": "240",
            "isStart()": "2355",
            "leverage()": "infinite",
            "minPool()": "infinite",
            "name()": "infinite",
            "nonces(address)": "2653",
            "openLong(uint256,uint256,uint256)": "infinite",
            "openShort(uint256,uint256,uint256)": "infinite",
            "permit(address,address,uint256,uint256,uint8,bytes32,bytes32)": "infinite",
            "poolLongAmount()": "2361",
            "poolLongPrice()": "2362",
            "poolShortAmount()": "2384",
            "poolShortPrice()": "2450",
            "rechargeMargin(uint256)": "infinite",
            "removeLiquidity(uint256,address)": "infinite",
            "singleTradeLimitRate()": "316",
            "slideP()": "316",
            "sumFee()": "2429",
            "symbol()": "infinite",
            "token0()": "infinite",
            "token0Decimal()": "infinite",
            "totalPool()": "2383",
            "totalSupply()": "2385",
            "traders(address)": "11174",
            "transfer(address,uint256)": "51206",
            "transferFrom(address,address,uint256)": "infinite",
            "withdrawMargin(uint256)": "infinite"
        },
        "internal": {
            "feeCharge(uint256)": "51151",
            "feeCharge(uint256,int256)": "infinite",
            "getAccountNet(struct HedgexSingle.Trader memory)": "infinite",
            "getAccountNet(struct HedgexSingle.Trader memory,uint256)": "infinite",
            "getPoolNet(uint256)": "infinite",
            "judegOpen(struct HedgexSingle.Trader memory,uint256,uint256,uint256)": "infinite",
            "judgeClose(uint256,uint256,uint256,uint256)": "infinite",
            "limitTradeAmount(uint256,uint256)": "infinite"
        }
    }
}