{
    "contractName": "HedgexSingle",
    "abi": [
        {
            "inputs": [
                {
                    "internalType": "address",
                    "name": "_token0",
                    "type": "address"
                },
                {
                    "internalType": "address",
                    "name": "_feedPrice",
                    "type": "address"
                },
                {
                    "internalType": "uint256",
                    "name": "_minStartPool",
                    "type": "uint256"
                },
                {
                    "internalType": "uint8",
                    "name": "_leverage",
                    "type": "uint8"
                },
                {
                    "internalType": "int8",
                    "name": "_amountDecimal",
                    "type": "int8"
                }
            ],
            "stateMutability": "nonpayable",
            "type": "constructor"
        },
        {
            "anonymous": false,
            "inputs": [
                {
                    "indexed": true,
                    "internalType": "address",
                    "name": "owner",
                    "type": "address"
                },
                {
                    "indexed": true,
                    "internalType": "address",
                    "name": "spender",
                    "type": "address"
                },
                {
                    "indexed": false,
                    "internalType": "uint256",
                    "name": "value",
                    "type": "uint256"
                }
            ],
            "name": "Approval",
            "type": "event"
        },
        {
            "anonymous": false,
            "inputs": [
                {
                    "indexed": true,
                    "internalType": "address",
                    "name": "sender",
                    "type": "address"
                },
                {
                    "indexed": false,
                    "internalType": "uint256",
                    "name": "amount",
                    "type": "uint256"
                }
            ],
            "name": "Burn",
            "type": "event"
        },
        {
            "anonymous": false,
            "inputs": [
                {
                    "indexed": true,
                    "internalType": "address",
                    "name": "user",
                    "type": "address"
                },
                {
                    "indexed": false,
                    "internalType": "int8",
                    "name": "direction",
                    "type": "int8"
                },
                {
                    "indexed": false,
                    "internalType": "uint256",
                    "name": "amount",
                    "type": "uint256"
                },
                {
                    "indexed": false,
                    "internalType": "uint256",
                    "name": "price",
                    "type": "uint256"
                }
            ],
            "name": "Explosive",
            "type": "event"
        },
        {
            "anonymous": false,
            "inputs": [
                {
                    "indexed": false,
                    "internalType": "int256",
                    "name": "total",
                    "type": "int256"
                },
                {
                    "indexed": false,
                    "internalType": "uint256",
                    "name": "la",
                    "type": "uint256"
                },
                {
                    "indexed": false,
                    "internalType": "uint256",
                    "name": "lp",
                    "type": "uint256"
                },
                {
                    "indexed": false,
                    "internalType": "uint256",
                    "name": "sa",
                    "type": "uint256"
                },
                {
                    "indexed": false,
                    "internalType": "uint256",
                    "name": "sp",
                    "type": "uint256"
                },
                {
                    "indexed": false,
                    "internalType": "uint256",
                    "name": "ep",
                    "type": "uint256"
                }
            ],
            "name": "ExplosivePool",
            "type": "event"
        },
        {
            "anonymous": false,
            "inputs": [
                {
                    "indexed": true,
                    "internalType": "address",
                    "name": "account",
                    "type": "address"
                },
                {
                    "indexed": false,
                    "internalType": "uint256",
                    "name": "long",
                    "type": "uint256"
                },
                {
                    "indexed": false,
                    "internalType": "uint256",
                    "name": "short",
                    "type": "uint256"
                },
                {
                    "indexed": false,
                    "internalType": "uint256",
                    "name": "price",
                    "type": "uint256"
                }
            ],
            "name": "ForceClose",
            "type": "event"
        },
        {
            "anonymous": false,
            "inputs": [
                {
                    "indexed": true,
                    "internalType": "address",
                    "name": "sender",
                    "type": "address"
                },
                {
                    "indexed": false,
                    "internalType": "uint256",
                    "name": "amount",
                    "type": "uint256"
                }
            ],
            "name": "Mint",
            "type": "event"
        },
        {
            "anonymous": false,
            "inputs": [
                {
                    "indexed": true,
                    "internalType": "address",
                    "name": "sender",
                    "type": "address"
                },
                {
                    "indexed": false,
                    "internalType": "uint256",
                    "name": "amount",
                    "type": "uint256"
                }
            ],
            "name": "Recharge",
            "type": "event"
        },
        {
            "anonymous": false,
            "inputs": [
                {
                    "indexed": true,
                    "internalType": "address",
                    "name": "user",
                    "type": "address"
                },
                {
                    "indexed": false,
                    "internalType": "int8",
                    "name": "direction",
                    "type": "int8"
                },
                {
                    "indexed": false,
                    "internalType": "uint256",
                    "name": "amount",
                    "type": "uint256"
                },
                {
                    "indexed": false,
                    "internalType": "uint256",
                    "name": "price",
                    "type": "uint256"
                }
            ],
            "name": "TakeInterest",
            "type": "event"
        },
        {
            "anonymous": false,
            "inputs": [
                {
                    "indexed": true,
                    "internalType": "address",
                    "name": "sender",
                    "type": "address"
                },
                {
                    "indexed": false,
                    "internalType": "int8",
                    "name": "direction",
                    "type": "int8"
                },
                {
                    "indexed": false,
                    "internalType": "uint256",
                    "name": "amount",
                    "type": "uint256"
                },
                {
                    "indexed": false,
                    "internalType": "uint256",
                    "name": "price",
                    "type": "uint256"
                }
            ],
            "name": "Trade",
            "type": "event"
        },
        {
            "anonymous": false,
            "inputs": [
                {
                    "indexed": true,
                    "internalType": "address",
                    "name": "from",
                    "type": "address"
                },
                {
                    "indexed": true,
                    "internalType": "address",
                    "name": "to",
                    "type": "address"
                },
                {
                    "indexed": false,
                    "internalType": "uint256",
                    "name": "value",
                    "type": "uint256"
                }
            ],
            "name": "Transfer",
            "type": "event"
        },
        {
            "anonymous": false,
            "inputs": [
                {
                    "indexed": true,
                    "internalType": "address",
                    "name": "sender",
                    "type": "address"
                },
                {
                    "indexed": false,
                    "internalType": "uint256",
                    "name": "amount",
                    "type": "uint256"
                }
            ],
            "name": "Withdraw",
            "type": "event"
        },
        {
            "inputs": [],
            "name": "DOMAIN_SEPARATOR",
            "outputs": [
                {
                    "internalType": "bytes32",
                    "name": "",
                    "type": "bytes32"
                }
            ],
            "stateMutability": "view",
            "type": "function"
        },
        {
            "inputs": [],
            "name": "PERMIT_TYPEHASH",
            "outputs": [
                {
                    "internalType": "bytes32",
                    "name": "",
                    "type": "bytes32"
                }
            ],
            "stateMutability": "view",
            "type": "function"
        },
        {
            "inputs": [],
            "name": "acceptContractSetter",
            "outputs": [],
            "stateMutability": "nonpayable",
            "type": "function"
        },
        {
            "inputs": [
                {
                    "internalType": "uint256",
                    "name": "amount",
                    "type": "uint256"
                },
                {
                    "internalType": "address",
                    "name": "to",
                    "type": "address"
                }
            ],
            "name": "addLiquidity",
            "outputs": [],
            "stateMutability": "nonpayable",
            "type": "function"
        },
        {
            "inputs": [
                {
                    "internalType": "address",
                    "name": "",
                    "type": "address"
                },
                {
                    "internalType": "address",
                    "name": "",
                    "type": "address"
                }
            ],
            "name": "allowance",
            "outputs": [
                {
                    "internalType": "uint256",
                    "name": "",
                    "type": "uint256"
                }
            ],
            "stateMutability": "view",
            "type": "function"
        },
        {
            "inputs": [],
            "name": "amountDecimal",
            "outputs": [
                {
                    "internalType": "int8",
                    "name": "",
                    "type": "int8"
                }
            ],
            "stateMutability": "view",
            "type": "function"
        },
        {
            "inputs": [
                {
                    "internalType": "address",
                    "name": "spender",
                    "type": "address"
                },
                {
                    "internalType": "uint256",
                    "name": "value",
                    "type": "uint256"
                }
            ],
            "name": "approve",
            "outputs": [
                {
                    "internalType": "bool",
                    "name": "",
                    "type": "bool"
                }
            ],
            "stateMutability": "nonpayable",
            "type": "function"
        },
        {
            "inputs": [],
            "name": "bAddLiquidity",
            "outputs": [
                {
                    "internalType": "bool",
                    "name": "",
                    "type": "bool"
                }
            ],
            "stateMutability": "view",
            "type": "function"
        },
        {
            "inputs": [],
            "name": "bOpen",
            "outputs": [
                {
                    "internalType": "bool",
                    "name": "",
                    "type": "bool"
                }
            ],
            "stateMutability": "view",
            "type": "function"
        },
        {
            "inputs": [
                {
                    "internalType": "address",
                    "name": "",
                    "type": "address"
                }
            ],
            "name": "balanceOf",
            "outputs": [
                {
                    "internalType": "uint256",
                    "name": "",
                    "type": "uint256"
                }
            ],
            "stateMutability": "view",
            "type": "function"
        },
        {
            "inputs": [
                {
                    "internalType": "uint256",
                    "name": "priceExp",
                    "type": "uint256"
                },
                {
                    "internalType": "uint256",
                    "name": "amount",
                    "type": "uint256"
                },
                {
                    "internalType": "uint256",
                    "name": "deadline",
                    "type": "uint256"
                }
            ],
            "name": "closeLong",
            "outputs": [],
            "stateMutability": "nonpayable",
            "type": "function"
        },
        {
            "inputs": [
                {
                    "internalType": "uint256",
                    "name": "priceExp",
                    "type": "uint256"
                },
                {
                    "internalType": "uint256",
                    "name": "amount",
                    "type": "uint256"
                },
                {
                    "internalType": "uint256",
                    "name": "deadline",
                    "type": "uint256"
                }
            ],
            "name": "closeShort",
            "outputs": [],
            "stateMutability": "nonpayable",
            "type": "function"
        },
        {
            "inputs": [],
            "name": "contractSetter",
            "outputs": [
                {
                    "internalType": "address",
                    "name": "",
                    "type": "address"
                }
            ],
            "stateMutability": "view",
            "type": "function"
        },
        {
            "inputs": [],
            "name": "dailyInterestRateBase",
            "outputs": [
                {
                    "internalType": "uint16",
                    "name": "",
                    "type": "uint16"
                }
            ],
            "stateMutability": "view",
            "type": "function"
        },
        {
            "inputs": [],
            "name": "decimals",
            "outputs": [
                {
                    "internalType": "uint8",
                    "name": "",
                    "type": "uint8"
                }
            ],
            "stateMutability": "view",
            "type": "function"
        },
        {
            "inputs": [
                {
                    "internalType": "address",
                    "name": "account",
                    "type": "address"
                },
                {
                    "internalType": "address",
                    "name": "to",
                    "type": "address"
                }
            ],
            "name": "detectSlide",
            "outputs": [],
            "stateMutability": "nonpayable",
            "type": "function"
        },
        {
            "inputs": [],
            "name": "divConst",
            "outputs": [
                {
                    "internalType": "uint24",
                    "name": "",
                    "type": "uint24"
                }
            ],
            "stateMutability": "view",
            "type": "function"
        },
        {
            "inputs": [
                {
                    "internalType": "address",
                    "name": "account",
                    "type": "address"
                },
                {
                    "internalType": "address",
                    "name": "to",
                    "type": "address"
                }
            ],
            "name": "explosive",
            "outputs": [],
            "stateMutability": "nonpayable",
            "type": "function"
        },
        {
            "inputs": [],
            "name": "explosivePool",
            "outputs": [],
            "stateMutability": "nonpayable",
            "type": "function"
        },
        {
            "inputs": [],
            "name": "feeDivide",
            "outputs": [
                {
                    "internalType": "uint24",
                    "name": "",
                    "type": "uint24"
                }
            ],
            "stateMutability": "view",
            "type": "function"
        },
        {
            "inputs": [],
            "name": "feeOn",
            "outputs": [
                {
                    "internalType": "bool",
                    "name": "",
                    "type": "bool"
                }
            ],
            "stateMutability": "view",
            "type": "function"
        },
        {
            "inputs": [],
            "name": "feeRate",
            "outputs": [
                {
                    "internalType": "uint16",
                    "name": "",
                    "type": "uint16"
                }
            ],
            "stateMutability": "view",
            "type": "function"
        },
        {
            "inputs": [],
            "name": "feeTo",
            "outputs": [
                {
                    "internalType": "address",
                    "name": "",
                    "type": "address"
                }
            ],
            "stateMutability": "view",
            "type": "function"
        },
        {
            "inputs": [],
            "name": "feedPrice",
            "outputs": [
                {
                    "internalType": "contract IIndexPrice",
                    "name": "",
                    "type": "address"
                }
            ],
            "stateMutability": "view",
            "type": "function"
        },
        {
            "inputs": [
                {
                    "internalType": "address",
                    "name": "account",
                    "type": "address"
                },
                {
                    "internalType": "address",
                    "name": "to",
                    "type": "address"
                }
            ],
            "name": "forceCloseAccount",
            "outputs": [],
            "stateMutability": "nonpayable",
            "type": "function"
        },
        {
            "inputs": [],
            "name": "getLatestPrice",
            "outputs": [
                {
                    "internalType": "uint256",
                    "name": "",
                    "type": "uint256"
                }
            ],
            "stateMutability": "view",
            "type": "function"
        },
        {
            "inputs": [],
            "name": "getPoolNet",
            "outputs": [
                {
                    "internalType": "int256",
                    "name": "",
                    "type": "int256"
                }
            ],
            "stateMutability": "view",
            "type": "function"
        },
        {
            "inputs": [],
            "name": "getPoolPosition",
            "outputs": [
                {
                    "internalType": "int256",
                    "name": "",
                    "type": "int256"
                },
                {
                    "internalType": "uint256",
                    "name": "",
                    "type": "uint256"
                },
                {
                    "internalType": "uint256",
                    "name": "",
                    "type": "uint256"
                },
                {
                    "internalType": "uint256",
                    "name": "",
                    "type": "uint256"
                },
                {
                    "internalType": "uint256",
                    "name": "",
                    "type": "uint256"
                },
                {
                    "internalType": "uint8",
                    "name": "",
                    "type": "uint8"
                }
            ],
            "stateMutability": "view",
            "type": "function"
        },
        {
            "inputs": [],
            "name": "interestRewardRate",
            "outputs": [
                {
                    "internalType": "uint24",
                    "name": "",
                    "type": "uint24"
                }
            ],
            "stateMutability": "view",
            "type": "function"
        },
        {
            "inputs": [],
            "name": "isStart",
            "outputs": [
                {
                    "internalType": "bool",
                    "name": "",
                    "type": "bool"
                }
            ],
            "stateMutability": "view",
            "type": "function"
        },
        {
            "inputs": [],
            "name": "keepMarginScale",
            "outputs": [
                {
                    "internalType": "uint8",
                    "name": "",
                    "type": "uint8"
                }
            ],
            "stateMutability": "view",
            "type": "function"
        },
        {
            "inputs": [],
            "name": "leverage",
            "outputs": [
                {
                    "internalType": "uint8",
                    "name": "",
                    "type": "uint8"
                }
            ],
            "stateMutability": "view",
            "type": "function"
        },
        {
            "inputs": [],
            "name": "minPool",
            "outputs": [
                {
                    "internalType": "uint256",
                    "name": "",
                    "type": "uint256"
                }
            ],
            "stateMutability": "view",
            "type": "function"
        },
        {
            "inputs": [],
            "name": "name",
            "outputs": [
                {
                    "internalType": "string",
                    "name": "",
                    "type": "string"
                }
            ],
            "stateMutability": "view",
            "type": "function"
        },
        {
            "inputs": [
                {
                    "internalType": "address",
                    "name": "",
                    "type": "address"
                }
            ],
            "name": "nonces",
            "outputs": [
                {
                    "internalType": "uint256",
                    "name": "",
                    "type": "uint256"
                }
            ],
            "stateMutability": "view",
            "type": "function"
        },
        {
            "inputs": [
                {
                    "internalType": "uint256",
                    "name": "priceExp",
                    "type": "uint256"
                },
                {
                    "internalType": "uint256",
                    "name": "amount",
                    "type": "uint256"
                },
                {
                    "internalType": "uint256",
                    "name": "deadline",
                    "type": "uint256"
                }
            ],
            "name": "openLong",
            "outputs": [],
            "stateMutability": "nonpayable",
            "type": "function"
        },
        {
            "inputs": [
                {
                    "internalType": "uint256",
                    "name": "priceExp",
                    "type": "uint256"
                },
                {
                    "internalType": "uint256",
                    "name": "amount",
                    "type": "uint256"
                },
                {
                    "internalType": "uint256",
                    "name": "deadline",
                    "type": "uint256"
                }
            ],
            "name": "openShort",
            "outputs": [],
            "stateMutability": "nonpayable",
            "type": "function"
        },
        {
            "inputs": [
                {
                    "internalType": "address",
                    "name": "owner",
                    "type": "address"
                },
                {
                    "internalType": "address",
                    "name": "spender",
                    "type": "address"
                },
                {
                    "internalType": "uint256",
                    "name": "value",
                    "type": "uint256"
                },
                {
                    "internalType": "uint256",
                    "name": "deadline",
                    "type": "uint256"
                },
                {
                    "internalType": "uint8",
                    "name": "v",
                    "type": "uint8"
                },
                {
                    "internalType": "bytes32",
                    "name": "r",
                    "type": "bytes32"
                },
                {
                    "internalType": "bytes32",
                    "name": "s",
                    "type": "bytes32"
                }
            ],
            "name": "permit",
            "outputs": [],
            "stateMutability": "nonpayable",
            "type": "function"
        },
        {
            "inputs": [],
            "name": "poolExplosivePrice",
            "outputs": [
                {
                    "internalType": "uint256",
                    "name": "",
                    "type": "uint256"
                }
            ],
            "stateMutability": "view",
            "type": "function"
        },
        {
            "inputs": [],
            "name": "poolLeftAmountRate",
            "outputs": [
                {
                    "internalType": "uint24",
                    "name": "",
                    "type": "uint24"
                }
            ],
            "stateMutability": "view",
            "type": "function"
        },
        {
            "inputs": [],
            "name": "poolLongAmount",
            "outputs": [
                {
                    "internalType": "uint256",
                    "name": "",
                    "type": "uint256"
                }
            ],
            "stateMutability": "view",
            "type": "function"
        },
        {
            "inputs": [],
            "name": "poolLongPrice",
            "outputs": [
                {
                    "internalType": "uint256",
                    "name": "",
                    "type": "uint256"
                }
            ],
            "stateMutability": "view",
            "type": "function"
        },
        {
            "inputs": [],
            "name": "poolNetAmountRateLimitOpen",
            "outputs": [
                {
                    "internalType": "int24",
                    "name": "",
                    "type": "int24"
                }
            ],
            "stateMutability": "view",
            "type": "function"
        },
        {
            "inputs": [],
            "name": "poolNetAmountRateLimitPrice",
            "outputs": [
                {
                    "internalType": "int24",
                    "name": "",
                    "type": "int24"
                }
            ],
            "stateMutability": "view",
            "type": "function"
        },
        {
            "inputs": [],
            "name": "poolShortAmount",
            "outputs": [
                {
                    "internalType": "uint256",
                    "name": "",
                    "type": "uint256"
                }
            ],
            "stateMutability": "view",
            "type": "function"
        },
        {
            "inputs": [],
            "name": "poolShortPrice",
            "outputs": [
                {
                    "internalType": "uint256",
                    "name": "",
                    "type": "uint256"
                }
            ],
            "stateMutability": "view",
            "type": "function"
        },
        {
            "inputs": [],
            "name": "poolState",
            "outputs": [
                {
                    "internalType": "uint8",
                    "name": "",
                    "type": "uint8"
                }
            ],
            "stateMutability": "view",
            "type": "function"
        },
        {
            "inputs": [
                {
                    "internalType": "uint256",
                    "name": "amount",
                    "type": "uint256"
                }
            ],
            "name": "rechargeMargin",
            "outputs": [],
            "stateMutability": "nonpayable",
            "type": "function"
        },
        {
            "inputs": [
                {
                    "internalType": "uint256",
                    "name": "liquidity",
                    "type": "uint256"
                },
                {
                    "internalType": "address",
                    "name": "to",
                    "type": "address"
                }
            ],
            "name": "removeLiquidity",
            "outputs": [],
            "stateMutability": "nonpayable",
            "type": "function"
        },
        {
            "inputs": [
                {
                    "internalType": "bool",
                    "name": "b",
                    "type": "bool"
                }
            ],
            "name": "setBAddLiquidity",
            "outputs": [],
            "stateMutability": "nonpayable",
            "type": "function"
        },
        {
            "inputs": [
                {
                    "internalType": "bool",
                    "name": "b",
                    "type": "bool"
                }
            ],
            "name": "setBOpen",
            "outputs": [],
            "stateMutability": "nonpayable",
            "type": "function"
        },
        {
            "inputs": [
                {
                    "internalType": "bool",
                    "name": "b",
                    "type": "bool"
                }
            ],
            "name": "setFeeOn",
            "outputs": [],
            "stateMutability": "nonpayable",
            "type": "function"
        },
        {
            "inputs": [
                {
                    "internalType": "uint16",
                    "name": "value",
                    "type": "uint16"
                }
            ],
            "name": "setFeeRate",
            "outputs": [],
            "stateMutability": "nonpayable",
            "type": "function"
        },
        {
            "inputs": [
                {
                    "internalType": "address",
                    "name": "_feeTo",
                    "type": "address"
                }
            ],
            "name": "setFeeTo",
            "outputs": [],
            "stateMutability": "nonpayable",
            "type": "function"
        },
        {
            "inputs": [
                {
                    "internalType": "address",
                    "name": "_feedPrice",
                    "type": "address"
                }
            ],
            "name": "setFeedPrice",
            "outputs": [],
            "stateMutability": "nonpayable",
            "type": "function"
        },
        {
            "inputs": [
                {
                    "internalType": "uint8",
                    "name": "value",
                    "type": "uint8"
                }
            ],
            "name": "setKeepMarginScale",
            "outputs": [],
            "stateMutability": "nonpayable",
            "type": "function"
        },
        {
            "inputs": [
                {
                    "internalType": "int24",
                    "name": "value",
                    "type": "int24"
                }
            ],
            "name": "setPoolNetAmountRateLimitOpen",
            "outputs": [],
            "stateMutability": "nonpayable",
            "type": "function"
        },
        {
            "inputs": [
                {
                    "internalType": "int24",
                    "name": "value",
                    "type": "int24"
                }
            ],
            "name": "setPoolNetAmountRateLimitPrice",
            "outputs": [],
            "stateMutability": "nonpayable",
            "type": "function"
        },
        {
            "inputs": [],
            "name": "singleCloseLimitRate",
            "outputs": [
                {
                    "internalType": "uint24",
                    "name": "",
                    "type": "uint24"
                }
            ],
            "stateMutability": "view",
            "type": "function"
        },
        {
            "inputs": [],
            "name": "singleOpenLimitRate",
            "outputs": [
                {
                    "internalType": "uint16",
                    "name": "",
                    "type": "uint16"
                }
            ],
            "stateMutability": "view",
            "type": "function"
        },
        {
            "inputs": [],
            "name": "slideP",
            "outputs": [
                {
                    "internalType": "uint8",
                    "name": "",
                    "type": "uint8"
                }
            ],
            "stateMutability": "view",
            "type": "function"
        },
        {
            "inputs": [],
            "name": "sumFee",
            "outputs": [
                {
                    "internalType": "uint256",
                    "name": "",
                    "type": "uint256"
                }
            ],
            "stateMutability": "view",
            "type": "function"
        },
        {
            "inputs": [],
            "name": "symbol",
            "outputs": [
                {
                    "internalType": "string",
                    "name": "",
                    "type": "string"
                }
            ],
            "stateMutability": "view",
            "type": "function"
        },
        {
            "inputs": [],
            "name": "token0",
            "outputs": [
                {
                    "internalType": "address",
                    "name": "",
                    "type": "address"
                }
            ],
            "stateMutability": "view",
            "type": "function"
        },
        {
            "inputs": [],
            "name": "token0Decimal",
            "outputs": [
                {
                    "internalType": "uint256",
                    "name": "",
                    "type": "uint256"
                }
            ],
            "stateMutability": "view",
            "type": "function"
        },
        {
            "inputs": [],
            "name": "totalPool",
            "outputs": [
                {
                    "internalType": "int256",
                    "name": "",
                    "type": "int256"
                }
            ],
            "stateMutability": "view",
            "type": "function"
        },
        {
            "inputs": [],
            "name": "totalSupply",
            "outputs": [
                {
                    "internalType": "uint256",
                    "name": "",
                    "type": "uint256"
                }
            ],
            "stateMutability": "view",
            "type": "function"
        },
        {
            "inputs": [
                {
                    "internalType": "address",
                    "name": "",
                    "type": "address"
                }
            ],
            "name": "traders",
            "outputs": [
                {
                    "internalType": "int256",
                    "name": "margin",
                    "type": "int256"
                },
                {
                    "internalType": "uint256",
                    "name": "longAmount",
                    "type": "uint256"
                },
                {
                    "internalType": "uint256",
                    "name": "longPrice",
                    "type": "uint256"
                },
                {
                    "internalType": "uint256",
                    "name": "shortAmount",
                    "type": "uint256"
                },
                {
                    "internalType": "uint256",
                    "name": "shortPrice",
                    "type": "uint256"
                },
                {
                    "internalType": "uint32",
                    "name": "interestDay",
                    "type": "uint32"
                }
            ],
            "stateMutability": "view",
            "type": "function"
        },
        {
            "inputs": [
                {
                    "internalType": "address",
                    "name": "to",
                    "type": "address"
                },
                {
                    "internalType": "uint256",
                    "name": "value",
                    "type": "uint256"
                }
            ],
            "name": "transfer",
            "outputs": [
                {
                    "internalType": "bool",
                    "name": "",
                    "type": "bool"
                }
            ],
            "stateMutability": "nonpayable",
            "type": "function"
        },
        {
            "inputs": [
                {
                    "internalType": "address",
                    "name": "_contractSetter",
                    "type": "address"
                }
            ],
            "name": "transferContractSetter",
            "outputs": [],
            "stateMutability": "nonpayable",
            "type": "function"
        },
        {
            "inputs": [
                {
                    "internalType": "address",
                    "name": "from",
                    "type": "address"
                },
                {
                    "internalType": "address",
                    "name": "to",
                    "type": "address"
                },
                {
                    "internalType": "uint256",
                    "name": "value",
                    "type": "uint256"
                }
            ],
            "name": "transferFrom",
            "outputs": [
                {
                    "internalType": "bool",
                    "name": "",
                    "type": "bool"
                }
            ],
            "stateMutability": "nonpayable",
            "type": "function"
        },
        {
            "inputs": [],
            "name": "withdrawFee",
            "outputs": [],
            "stateMutability": "nonpayable",
            "type": "function"
        },
        {
            "inputs": [
                {
                    "internalType": "uint256",
                    "name": "amount",
                    "type": "uint256"
                }
            ],
            "name": "withdrawMargin",
            "outputs": [],
            "stateMutability": "nonpayable",
            "type": "function"
        }
    ],
    "bytecode": "6101606040526006805461ffff60a01b191661010160a01b17905560016008556009805461010062ffff0160401b0319166a0258001e0493e0061a80001790553480156200004c57600080fd5b5060405162004b8038038062004b808339810160408190526200006f91620002d5565b846001600160a01b031663313ce5676040518163ffffffff1660e01b8152600401602060405180830381865afa158015620000ae573d6000803e3d6000fd5b505050506040513d601f19601f82011682018060405250810190620000d4919062000345565b604080518082018252600c81526b48656467657853696e676c6560a01b6020918201528151808301835260018152603160f81b9082015281517f8b73c3c69bb8fe3d512ecc4cf759cc79239f7b179b0ffacaa9a75d522b39400f918101919091527fdbb8f54117374490c454ab41b80d95cf4a0c3b286124d9b83e346d854dc3efcd918101919091527fc89efdaa54c0f20c7adf612882df0950f5a951637e0307cdcb4c672f298b8bc660608201524660808201523060a082015260c00160408051601f19818403018152828252805160209182012060a05260ff9093166080526006805460ff60b01b1916600160b01b179055601180546001600160a01b03808a166001600160a01b031990921691909117909155881661010081905263313ce56760e01b83529051909263313ce56792600480820193918290030181865afa15801562000227573d6000803e3d6000fd5b505050506040513d601f19601f820116820180604052508101906200024d919062000345565b6200025a90600a6200047f565b6101205260c09290925260ff1660e0526009805460ff60ff60401b0119166801000000000000000017905560000b610140525050600580546001600160a01b0319163317905562000490565b80516001600160a01b0381168114620002be57600080fd5b919050565b805160ff81168114620002be57600080fd5b600080600080600060a08688031215620002ee57600080fd5b620002f986620002a6565b94506200030960208701620002a6565b9350604086015192506200032060608701620002c3565b915060808601518060000b81146200033757600080fd5b809150509295509295909350565b6000602082840312156200035857600080fd5b6200036382620002c3565b9392505050565b634e487b7160e01b600052601160045260246000fd5b600181815b80851115620003c1578160001904821115620003a557620003a56200036a565b80851615620003b357918102915b93841c939080029062000385565b509250929050565b600082620003da5750600162000479565b81620003e95750600062000479565b81600181146200040257600281146200040d576200042d565b600191505062000479565b60ff8411156200042157620004216200036a565b50506001821b62000479565b5060208310610133831016604e8410600b841016171562000452575081810a62000479565b6200045e838362000380565b80600019048211156200047557620004756200036a565b0290505b92915050565b60006200036360ff841683620003c9565b60805160a05160c05160e05161010051610120516101405161461062000570600039600081816105dc01528181612576015281816125a30152612614015260008181610990015281816115bf015281816125ce015261264801526000818161050e01528181610cec01528181610f5e01528181610fc7015281816116020152818161238e01528181612aca01528181613165015261329c01526000818161063001528181610df801528181613a7a0152613ae30152600081816105a20152612b430152600081816106c20152612c5e0152600061069201526146106000f3fe608060405234801561001057600080fd5b50600436106104335760003560e01c80637ecebe0011610236578063a9059cbb1161013b578063d505accf116100c3578063e598431911610087578063e598431914610ac8578063e941fa7814610ad1578063ecfb49a314610ad9578063f46901ed14610ae2578063fc4064b314610af557600080fd5b8063d505accf14610a5c578063dd62ed3e14610a6f578063ddcb04c214610a9a578063e02b5d6014610aad578063e4344a6014610ab557600080fd5b8063c95f9d0e1161010a578063c95f9d0e14610a11578063cd8bb6cd14610a24578063ce8ad1d214610a36578063d1ad24be14610a3f578063d375454f14610a5257600080fd5b8063a9059cbb146109c5578063bb9186a6146109d8578063bedc409b146109eb578063c669c32c146109fe57600080fd5b806390edbeb0116101be578063978bbdb91161018d578063978bbdb914610959578063994af3ae1461096e5780639aa5d57f146109775780639ddc230a1461098b578063a04eecae146109b257600080fd5b806390edbeb01461089e57806392a88fa2146108b157806395d89b411461092d578063971059fb1461095057600080fd5b80638967b694116102055780638967b6941461086457806389d408ff1461086d5780638a55d36e146108805780638e15f4731461088d5780638e4068921461089557600080fd5b80637ecebe001461080a578063807ca3531461082a5780638632d4ab1461083d578063876e03101461085057600080fd5b806330adf81f1161033c5780636c2ee359116102c45780637aaae950116102935780637aaae950146104685780637bb71a97146107d25780637bc2a356146107da5780637da2535d146107ed5780637e4856c41461080057600080fd5b80636c2ee3591461074357806370a082311461075657806371b317071461077657806373e6054b1461078957600080fd5b80633e31fb451161030b5780633e31fb45146106e45780634f335d0a146106ec5780635d0291ac14610700578063641ad8a91461071c5780636422e08f1461073057600080fd5b806330adf81f14610666578063313ce5671461068d57806333d6f1f7146106b45780633644e515146106bd57600080fd5b8063190b065f116103bf57806329ff07731161038e57806329ff0773146105c45780632be90282146105d75780632c204fa8146106115780632c86d98e1461062b578063303c0a3b1461065257600080fd5b8063190b065f1461055a5780631cce91031461056357806323b872dd1461058a5780632678b8fd1461059d57600080fd5b8063095ea7b311610406578063095ea7b3146104d35780630cea7534146104f65780630dfe16811461050957806311ce83f81461053057806318160ddd1461054357600080fd5b8063017e7e581461043857806301bcc9081461046857806305fe138b1461048657806306fdde031461049b575b600080fd5b60045461044b906001600160a01b031681565b6040516001600160a01b0390911681526020015b60405180910390f35b610472620186a081565b60405162ffffff909116815260200161045f565b610499610494366004613da3565b610b08565b005b6104c66040518060400160405280600c81526020016b48656467657853696e676c6560a01b81525081565b60405161045f9190613dff565b6104e66104e1366004613e32565b610d4d565b604051901515815260200161045f565b610499610504366004613e5c565b610d64565b61044b7f000000000000000000000000000000000000000000000000000000000000000081565b61049961053e366004613e5c565b610fc2565b61054c60005481565b60405190815260200161045f565b61054c600a5481565b60095461057790600160201b900460020b81565b60405160029190910b815260200161045f565b6104e6610598366004613e75565b61104a565b61054c7f000000000000000000000000000000000000000000000000000000000000000081565b6104996105d2366004613eb1565b6110c4565b6105fe7f000000000000000000000000000000000000000000000000000000000000000081565b60405160009190910b815260200161045f565b610619603281565b60405160ff909116815260200161045f565b6106197f000000000000000000000000000000000000000000000000000000000000000081565b60095461061990600160381b900460ff1681565b61054c7f6e71edae12b1b97f4d1f60370fef10105fa2faae0126114a169c64845d6126c981565b6106197f000000000000000000000000000000000000000000000000000000000000000081565b61054c60075481565b61054c7f000000000000000000000000000000000000000000000000000000000000000081565b610499611116565b6009546104e690600160401b900460ff1681565b61070961753081565b60405161ffff909116815260200161045f565b60065461061990600160b01b900460ff1681565b61049961073e366004613ed5565b61134e565b610499610751366004613eff565b611689565b61054c610764366004613f2b565b60016020526000908152604090205481565b610499610784366004613eff565b6119ab565b600b54600c54600e54600d54600f546006546040805196875260208701959095529385019290925260608401526080830152600160b01b900460ff1660a082015260c00161045f565b61054c611cab565b6104996107e8366004613f54565b611d5c565b6104996107fb366004613f54565b611d91565b610472620f424081565b61054c610818366004613f2b565b60036020526000908152604090205481565b610499610838366004613eff565b611dc6565b61049961084b366004613f82565b6120f0565b6006546104e690600160a01b900460ff1681565b6107096103e881565b61049961087b366004613ed5565b61213e565b6009546104e69060ff1681565b61054c612490565b61054c600d5481565b6104996108ac366004613eff565b612677565b6108fa6108bf366004613f2b565b601060205260009081526040902080546001820154600283015460038401546004850154600590950154939492939192909163ffffffff1686565b604080519687526020870195909552938501929092526060840152608083015263ffffffff1660a082015260c00161045f565b6104c6604051806040016040528060048152602001634845585360e01b81525081565b61054c600f5481565b60095461070990600160481b900461ffff1681565b61054c600e5481565b6006546104e690600160a81b900460ff1681565b61054c7f000000000000000000000000000000000000000000000000000000000000000081565b60115461044b906001600160a01b031681565b6104e66109d3366004613e32565b612981565b6104996109e6366004613f2b565b61298e565b6104996109f9366004613f9d565b6129da565b610499610a0c366004613f2b565b612a24565b610499610a1f366004613da3565b612a70565b60095461057790610100900460020b81565b61047261c35081565b610499610a4d366004613f9d565b612bb1565b6104726203d09081565b610499610a6a366004613fc0565b612c00565b61054c610a7d366004613ed5565b600260209081526000928352604080842090915290825290205481565b610499610aa8366004613ed5565b612e2c565b6104996131ec565b60055461044b906001600160a01b031681565b61054c600c5481565b61049961323d565b61054c600b5481565b610499610af0366004613f2b565b6132ce565b610499610b03366004613f54565b61331a565b600654600160b01b900460ff16600114610b3d5760405162461bcd60e51b8152600401610b349061402a565b60405180910390fd5b600954829060ff1615610cc5576000610b54612490565b90506000610b6182613367565b90506000600d54600c5411610b8557600c54600d54610b809190614067565b610b95565b600d54600c54610b959190614067565b905060006003600d54600c54610bab919061407e565b610bb591906140ac565b905080821015610bc3578091505b600954600090610100900462ffffff16620f4240610be187866140c0565b610beb91906140c0565b610bf591906140ac565b9050808413610c465760405162461bcd60e51b815260206004820152601760248201527f6e6574206d757374203e20757365644d617267696e2f520000000000000000006044820152606401610b34565b6000610c528286614067565b600054909150610c628a876140c0565b610c6c91906140ac565b965080871115610cbe5760405162461bcd60e51b815260206004820152601860248201527f776974686472617720616d6f756e7420746f6f206d616e7900000000000000006044820152606401610b34565b5050505050505b80600b6000828254610cd791906140df565b90915550610ce7905033846133b0565b610d127f0000000000000000000000000000000000000000000000000000000000000000838361343b565b60405183815233907fcc16f5dbb4873280815c1ee09dbd06736cffcc184412cf7a71a0fdb75d397ca5906020015b60405180910390a2505050565b6000610d5a338484613556565b5060015b92915050565b600654600160b01b900460ff16600114610d905760405162461bcd60e51b8152600401610b349061402a565b336000908152601060209081526040808320815160c0810183528154815260018201549381019390935260028101549183019190915260038101546060830152600481015460808301526005015463ffffffff1660a082015290610df2612490565b905060007f000000000000000000000000000000000000000000000000000000000000000060ff1683608001518460600151610e2e91906140c0565b84604001518560200151610e4291906140c0565b610e4c919061407e565b610e5691906140ac565b90506000828460600151610e6a91906140c0565b84604001518560200151610e7e91906140c0565b610e88919061407e565b84608001518560600151610e9c91906140c0565b848660200151610eac91906140c0565b610eb6919061407e565b8551610ec2919061411e565b610ecc91906140df565b90506000610eda83836140df565b905060008113610f2c5760405162461bcd60e51b815260206004820152601860248201527f63616e207769746864726177206973206e6567617469766500000000000000006044820152606401610b34565b8581811315610f385750805b8551610f459082906140df565b33600081815260106020526040902091909155610f84907f0000000000000000000000000000000000000000000000000000000000000000908361343b565b60405181815233907f884edad9ce6fa2440d8a54cc123490eb96d2768479d49ff9c7366125a94243649060200160405180910390a250505050505050565b610fee7f00000000000000000000000000000000000000000000000000000000000000003330846135b8565b336000908152601060205260408120805483929061100d90849061411e565b909155505060405181815233907f78d9de6f3ad1cae9e0cbcbaa5267fd90f6a6728831eec42b7c147b398b2269249060200160405180910390a250565b6001600160a01b0383166000908152600260209081526040808320338452909152812054600019146110af576001600160a01b0384166000908152600260209081526040808320338452909152812080548492906110a9908490614067565b90915550505b6110ba8484846136e8565b5060019392505050565b6005546001600160a01b031633146110ee5760405162461bcd60e51b8152600401610b349061415f565b6009805461ffff909216600160481b026affff00000000000000000019909216919091179055565b6008546001146111385760405162461bcd60e51b8152600401610b349061418a565b6000600855600654600160b01b900460ff1660011461118f5760405162461bcd60e51b8152602060048201526013602482015272706f6f6c206973206578706c6f736976696e6760681b6044820152606401610b34565b6000611199612490565b905060006111a682613367565b90506000600d54600c54116111e157600583600c54600d546111c89190614067565b6111d291906140c0565b6111dc91906140ac565b611208565b600583600d54600c546111f49190614067565b6111fe91906140c0565b61120891906140ac565b90508082131561125a5760405162461bcd60e51b815260206004820152601960248201527f706f6f6c2063616e6e2774206265206578706c6f7369766564000000000000006044820152606401610b34565b6006805460ff60b01b1916600160b11b179055600061127a6004836140ac565b90508083121561132e576000600c54600d5461129691906140df565b82600f54600d546112a791906140c0565b600e54600c546112b791906140c0565b600b546112c491906140df565b6112ce919061411e565b6112d891906140df565b6112e291906141b1565b9050600081136113215760405162461bcd60e51b815260206004820152600a6024820152690657072696365203e20360b41b6044820152606401610b34565b600755600b819055611339565b600b83905560078490555b50506000600f819055600e5550506001600855565b6008546001146113705760405162461bcd60e51b8152600401610b349061418a565b6000600855600654600160b01b900460ff166002146113c65760405162461bcd60e51b81526020600482015260126024820152713837b7b629ba30ba329034b9903737ba101960711b6044820152606401610b34565b6001600160a01b0382166000908152601060209081526040808320815160c0810183528154815260018201549381019390935260028101549183019190915260038101546060830152600481015460808301526005015463ffffffff1660a082015260075490916114378383613789565b6009546060850151919250600091620f424091600160481b900461ffff16906114619086906140c0565b85876020015161147191906140c0565b61147b919061407e565b61148591906140c0565b61148f91906140ac565b6020850151909150156114b8578360200151600d60008282546114b29190614067565b90915550505b6060840151156114de578360600151600c60008282546114d89190614067565b90915550505b600c541580156114ee5750600d54155b15611507576006805460ff60b01b1916600160b01b1790555b808213156115525761151981836140df565b6001600160a01b038716600090815260106020526040812091909155600b805483929061154790849061411e565b909155506115859050565b6001600160a01b0386166000908152601060205260408120819055600b805484929061157f90849061411e565b90915550505b6001600160a01b03861660009081526010602052604081206001810182905560028101829055600381018290556004018190556115e3600a7f00000000000000000000000000000000000000000000000000000000000000006140ac565b905080600b60008282546115f791906140df565b9091555061162890507f0000000000000000000000000000000000000000000000000000000000000000878361343b565b60208086015160608088015160408051938452938301529181018690526001600160a01b038916917ffca559ae7a3bea5c41671f27049d90b84fbf98be965e6d7f0259ee6e5caa980b910160405180910390a2505060016008555050505050565b6008546001146116ab5760405162461bcd60e51b8152600401610b349061418a565b600060085580428110156116d15760405162461bcd60e51b8152600401610b34906141df565b600654600160b01b900460ff166001146116fd5760405162461bcd60e51b8152600401610b349061402a565b60095460ff166117475760405162461bcd60e51b815260206004820152601560248201527418dbdb9d1c9858dd081a5cc81b9bdd081cdd185c9d605a1b6044820152606401610b34565b600654600160a81b900460ff166117705760405162461bcd60e51b8152600401610b349061420e565b600061177a612490565b905060008061178a600184613804565b909250905082620f42406117a0617530846140c0565b6117aa91906140ac565b6117b491906140ac565b8611156117d35760405162461bcd60e51b8152600401610b3490614231565b600954610100900460020b82126117fc5760405162461bcd60e51b8152600401610b3490614268565b60006118088484613863565b611812908561407e565b90508781111580611821575087155b61186d5760405162461bcd60e51b815260206004820152601b60248201527f6f70656e206c6f6e6720707269636520697320746f6f206869676800000000006044820152606401610b34565b600061187982896140c0565b90506000806118888784613966565b9150915089816020015161189c919061407e565b336000908152601060209081526040909120600101919091558101516118c3908b9061407e565b83826040015183602001516118d891906140c0565b6118e2919061407e565b6118ec91906140ac565b33600090815260106020526040902060020155805161190c9083906140df565b33600090815260106020526040902055600d546119298b8261407e565b600d556119368b8261407e565b84600f548361194591906140c0565b61194f919061407e565b61195991906140ac565b600f5561196583613bdc565b6040805160018152602081018d905290810186905233906000805160206145bb833981519152906060015b60405180910390a25050600160085550505050505050505050565b6008546001146119cd5760405162461bcd60e51b8152600401610b349061418a565b600060085580428110156119f35760405162461bcd60e51b8152600401610b34906141df565b600654600160b01b900460ff16600114611a1f5760405162461bcd60e51b8152600401610b349061402a565b60095460ff16611a695760405162461bcd60e51b815260206004820152601560248201527418dbdb9d1c9858dd081a5cc81b9bdd081cdd185c9d605a1b6044820152606401610b34565b600654600160a81b900460ff16611a925760405162461bcd60e51b8152600401610b349061420e565b6000611a9c612490565b9050600080611aad60001984613804565b909250905082620f4240611ac3617530846140c0565b611acd91906140ac565b611ad791906140ac565b861115611af65760405162461bcd60e51b8152600401610b3490614231565b600954610100900460020b8212611b1f5760405162461bcd60e51b8152600401610b3490614268565b6000611b2b8484613863565b611b359085614067565b905087811015611b875760405162461bcd60e51b815260206004820152601b60248201527f6f70656e2073686f727420707269636520697320746f6f206c6f7700000000006044820152606401610b34565b6000611b9382896140c0565b9050600080611ba28784613966565b91509150898160600151611bb6919061407e565b336000908152601060205260409020600301556060810151611bd9908b9061407e565b8382608001518360600151611bee91906140c0565b611bf8919061407e565b611c0291906140ac565b336000908152601060205260409020600401558051611c229083906140df565b33600090815260106020526040902055600c54611c3f8b8261407e565b600c55611c4c8b8261407e565b84600e5483611c5b91906140c0565b611c65919061407e565b611c6f91906140ac565b600e55611c7b83613bdc565b604080516000198152602081018d905290810186905233906000805160206145bb83398151915290606001611990565b600080611cb6612490565b9050600081600d54611cc891906140c0565b600e54600c54611cd891906140c0565b611ce2919061407e565b600f54600d54611cf291906140c0565b83600c54611d0091906140c0565b611d0a919061407e565b600b54611d17919061411e565b611d2191906140df565b905060008113610d5e5760405162461bcd60e51b815260206004820152600660248201526506e65743c3d360d41b6044820152606401610b34565b6005546001600160a01b03163314611d7357600080fd5b60068054911515600160a81b0260ff60a81b19909216919091179055565b6005546001600160a01b03163314611da857600080fd5b60068054911515600160a01b0260ff60a01b19909216919091179055565b600854600114611de85760405162461bcd60e51b8152600401610b349061418a565b60006008558042811015611e0e5760405162461bcd60e51b8152600401610b34906141df565b600654600160b01b900460ff16600114611e3a5760405162461bcd60e51b8152600401610b349061402a565b6000611e44612490565b9050600080611e54600184613804565b909250905082620f4240611e6b620186a0846140c0565b611e7591906140ac565b611e7f91906140ac565b861115611e9e5760405162461bcd60e51b8152600401610b3490614231565b6000611eaa8484613863565b611eb4908561407e565b90508781111580611ec3575087155b611f0f5760405162461bcd60e51b815260206004820152601d60248201527f636c6f73652073686f727420707269636520697320746f6f20686967680000006044820152606401610b34565b33600090815260106020908152604091829020825160c081018452815481526001820154928101929092526002810154928201929092526003820154606082018190526004830154608083015260059092015463ffffffff1660a082015290881115611fc95760405162461bcd60e51b815260206004820152602360248201527f636c6f736520616d6f756e742072657175697265203e3d2073686f7274416d6f6044820152621d5b9d60ea1b6064820152608401610b34565b600954600090620f424090600160481b900461ffff16611fe9858c6140c0565b611ff391906140c0565b611ffd91906140ac565b9050600083836080015161201191906140df565b61201b908b6142ad565b905089836060015161202d9190614067565b336000908152601060205260409020600301558251829061204f90839061411e565b61205991906140df565b3360009081526010602052604090205560608301518a141561208957336000908152601060205260408120600401555b89600c600082825461209b9190614067565b909155506120ab90508282613c66565b6040805160028152602081018c905290810185905233906000805160206145bb833981519152906060015b60405180910390a250506001600855505050505050505050565b6005546001600160a01b0316331461211a5760405162461bcd60e51b8152600401610b349061415f565b6009805460ff909216600160381b0267ff0000000000000019909216919091179055565b6008546001146121605760405162461bcd60e51b8152600401610b349061418a565b6000600855600654600160b01b900460ff166001146121915760405162461bcd60e51b8152600401610b349061402a565b6001600160a01b0382166000908152601060209081526040808320815160c0810183528154815260018201549381019390935260028101549183019190915260038101546060830181905260048201546080840181905260059092015463ffffffff1660a0840152600954929392600160381b900460ff1691612213916140c0565b8360400151846020015161222791906140c0565b612231919061407e565b61223b91906140ac565b90506000612247612490565b905060006122558483613789565b90508281131561229a5760405162461bcd60e51b815260206004820152601060248201526f63616e6e2774206578706c6f7369766560801b6044820152606401610b34565b6020840151600090156122e3578460200151600d60008282546122bd9190614067565b909155505060408501516122d190846140df565b85602001516122e091906142ad565b90505b606085015115612334578460600151600c60008282546123039190614067565b909155505060808501516123189084906140df565b856060015161232791906142ad565b612331908261411e565b90505b6060850151602086015160011991111561234c575060025b6001600160a01b03881660009081526010602052604081208181556001810182905560028101829055600381018290556004018190558313156123fc576123be7f0000000000000000000000000000000000000000000000000000000000000000886123b96005876141b1565b61343b565b8160056123cc8560046142ad565b6123d691906141b1565b6123e091906140df565b600b60008282546123f1919061411e565b9091555061241d9050565b61240682846140df565b600b6000828254612417919061411e565b90915550505b876001600160a01b03167f1cf7369c3767c976b447baaae4eed8217e2d190d1750c589e62bf5f7ecc4aaff828860600151896020015161245d919061407e565b6040805160009390930b83526020830191909152810187905260600160405180910390a250506001600855505050505050565b6000806000601160009054906101000a90046001600160a01b03166001600160a01b03166310bace8c6040518163ffffffff1660e01b8152600401606060405180830381865afa1580156124e8573d6000803e3d6000fd5b505050506040513d601f19601f8201168201806040525081019061250c9190614332565b5091509150600082116125725760405162461bcd60e51b815260206004820152602860248201527f7468652070616972207374616e64617264207072696365206d75737420626520604482015267706f73697469766560c01b6064820152608401610b34565b60007f000000000000000000000000000000000000000000000000000000000000000060000b1261260e57806125c97f0000000000000000000000000000000000000000000000000000000000000000600a614444565b6125f37f0000000000000000000000000000000000000000000000000000000000000000856140c0565b6125fd91906140c0565b61260791906140ac565b9250505090565b806126387f0000000000000000000000000000000000000000000000000000000000000000614453565b61264390600a614444565b61266d7f0000000000000000000000000000000000000000000000000000000000000000856140c0565b6125fd91906140ac565b6008546001146126995760405162461bcd60e51b8152600401610b349061418a565b600060085580428110156126bf5760405162461bcd60e51b8152600401610b34906141df565b600654600160b01b900460ff166001146126eb5760405162461bcd60e51b8152600401610b349061402a565b60006126f5612490565b905060008061270660001984613804565b909250905082620f424061271d620186a0846140c0565b61272791906140ac565b61273191906140ac565b8611156127505760405162461bcd60e51b8152600401610b3490614231565b600061275c8484613863565b6127669085614067565b9050878110156127b85760405162461bcd60e51b815260206004820152601b60248201527f636c6f7365206c6f6e6720707269636520697320746f6f206c6f7700000000006044820152606401610b34565b33600090815260106020908152604091829020825160c08101845281548152600182015492810183905260028201549381019390935260038101546060840152600481015460808401526005015463ffffffff1660a083015288111561286b5760405162461bcd60e51b815260206004820152602260248201527f636c6f736520616d6f756e742072657175697265203e3d206c6f6e67416d6f756044820152611b9d60f21b6064820152608401610b34565b600954600090620f424090600160481b900461ffff1661288b858c6140c0565b61289591906140c0565b61289f91906140ac565b905060008260400151846128b391906140df565b6128bd908b6142ad565b90508983602001516128cf9190614067565b33600090815260106020526040902060010155825182906128f190839061411e565b6128fb91906140df565b336000908152601060209081526040909120919091558301518a141561292f57336000908152601060205260408120600201555b89600d60008282546129419190614067565b9091555061295190508282613c66565b604080516001198152602081018c905290810185905233906000805160206145bb833981519152906060016120d6565b6000610d5a3384846136e8565b6005546001600160a01b031633146129b85760405162461bcd60e51b8152600401610b349061415f565b600680546001600160a01b0319166001600160a01b0392909216919091179055565b6005546001600160a01b03163314612a045760405162461bcd60e51b8152600401610b349061415f565b6009805462ffffff9092166101000263ffffff0019909216919091179055565b6005546001600160a01b03163314612a4e5760405162461bcd60e51b8152600401610b349061415f565b601180546001600160a01b0319166001600160a01b0392909216919091179055565b600654600160b01b900460ff16600114612a9c5760405162461bcd60e51b8152600401610b349061402a565b600654600160a01b900460ff16612ac55760405162461bcd60e51b8152600401610b349061420e565b612af17f00000000000000000000000000000000000000000000000000000000000000003330856135b8565b600954829060ff1615612b27576000612b08611cab565b90508084600054612b1991906140c0565b612b2391906140ac565b9150505b82600b6000828254612b39919061411e565b9091555050600b547f000000000000000000000000000000000000000000000000000000000000000013612b75576009805460ff191660011790555b612b7f8282613d06565b60405181815233907f0f6798a560793a54c3bcfe86a93cde1e73087d944c0ea20544137d412139688590602001610d40565b6005546001600160a01b03163314612bdb5760405162461bcd60e51b8152600401610b349061415f565b6009805462ffffff909216600160201b0266ffffff0000000019909216919091179055565b42841015612c425760405162461bcd60e51b815260206004820152600f60248201526e12195919d95e0e8811561412549151608a1b6044820152606401610b34565b6001600160a01b038716600090815260036020526040812080547f0000000000000000000000000000000000000000000000000000000000000000917f6e71edae12b1b97f4d1f60370fef10105fa2faae0126114a169c64845d6126c9918b918b918b9187612cb083614473565b909155506040805160208101969096526001600160a01b0394851690860152929091166060840152608083015260a082015260c0810187905260e00160405160208183030381529060405280519060200120604051602001612d2992919061190160f01b81526002810192909252602282015260420190565b60408051601f198184030181528282528051602091820120600080855291840180845281905260ff88169284019290925260608301869052608083018590529092509060019060a0016020604051602081039080840390855afa158015612d94573d6000803e3d6000fd5b5050604051601f1901519150506001600160a01b03811615801590612dca5750886001600160a01b0316816001600160a01b0316145b612e165760405162461bcd60e51b815260206004820152601960248201527f4865646765783a20494e56414c49445f5349474e4154555245000000000000006044820152606401610b34565b612e21898989613556565b505050505050505050565b600854600114612e4e5760405162461bcd60e51b8152600401610b349061418a565b6000600855600654600160b01b900460ff16600114612e7f5760405162461bcd60e51b8152600401610b349061402a565b6000612e8e62015180426140ac565b905061012c612ea0826201518061448e565b612eb09063ffffffff1642614067565b1115612eed5760405162461bcd60e51b815260206004820152600c60248201526b74696d652064697361626c6560a01b6044820152606401610b34565b6001600160a01b0383166000908152601060205260409020600581015463ffffffff90811690831611612f5b5760405162461bcd60e51b81526020600482015260166024820152751a185cc81899595b881d185ad9481a5b9d195c995cdd60521b6044820152606401610b34565b806003015481600101541415612fa65760405162461bcd60e51b815260206004820152601060248201526f1b1bdb99c8195c5d585b081cda1bdc9d60821b6044820152606401610b34565b600d54600c5460038301546001848101546000928391111561305f578385116130045760405162461bcd60e51b815260206004820152601060248201526f1a185d99481b9bc81a5b9d195c995cdd60821b6044820152606401610b34565b61300c612490565b905084620f424061301d8683614067565b60018901546103e89061303090866140c0565b61303a91906140c0565b61304491906140c0565b61304e91906140ac565b61305891906140ac565b92506130fd565b8484116130a15760405162461bcd60e51b815260206004820152601060248201526f1a185d99481b9bc81a5b9d195c995cdd60821b6044820152606401610b34565b6130a9612490565b6000199250905083620f42406130bf8783614067565b60038901546103e8906130d290866140c0565b6130dc91906140c0565b6130e691906140c0565b6130f091906140ac565b6130fa91906140ac565b92505b6000620f4240613110620186a0866140c0565b61311a91906140ac565b60058801805463ffffffff191663ffffffff8b161790558754909150849088906000906131489084906140df565b90915550613160905061315b8286614067565b613bdc565b61318b7f00000000000000000000000000000000000000000000000000000000000000008a8361343b565b60408051600085900b8152602081018690529081018390526001600160a01b038b16907f78213dfb97e98b601b3fee012a0f6bddbf4e63c293c77b5186137af1e7cf62ae9060600160405180910390a2505060016008555050505050505050565b6006546001600160a01b031633146132165760405162461bcd60e51b8152600401610b349061415f565b60068054600580546001600160a01b03199081166001600160a01b03841617909155169055565b6004546001600160a01b0316331461328a5760405162461bcd60e51b815260206004820152601060248201526f3432b233b2bc1d2327a92124a22222a760811b6044820152606401610b34565b600a805460009091556004546132cb907f0000000000000000000000000000000000000000000000000000000000000000906001600160a01b03168361343b565b50565b6005546001600160a01b031633146132f85760405162461bcd60e51b8152600401610b349061415f565b600480546001600160a01b0319166001600160a01b0392909216919091179055565b6005546001600160a01b031633146133445760405162461bcd60e51b8152600401610b349061415f565b60098054911515600160401b0268ff000000000000000019909216919091179055565b60008082600d5461337891906140c0565b600e54600c5461338891906140c0565b613392919061407e565b600f54600d546133a291906140c0565b84600c54611d0091906140c0565b6001600160a01b038216600090815260016020526040812080548392906133d8908490614067565b92505081905550806000808282546133f09190614067565b90915550506040518181526000906001600160a01b038416907fddf252ad1be2c89b69c2b068fc378daa952ba7f163c4a11628f55a4df523b3ef906020015b60405180910390a35050565b604080516001600160a01b038481166024830152604480830185905283518084039091018152606490920183526020820180516001600160e01b031663a9059cbb60e01b179052915160009283929087169161349791906144ba565b6000604051808303816000865af19150503d80600081146134d4576040519150601f19603f3d011682016040523d82523d6000602084013e6134d9565b606091505b509150915081801561350357508051158061350357508080602001905181019061350391906144d6565b61354f5760405162461bcd60e51b815260206004820152601f60248201527f5472616e7366657248656c7065723a205452414e534645525f4641494c4544006044820152606401610b34565b5050505050565b6001600160a01b0383811660008181526002602090815260408083209487168084529482529182902085905590518481527f8c5be1e5ebec7d5bd14f71427d1e84f3dd0314c0f7b2291e5b200ac8c7c3b92591015b60405180910390a3505050565b604080516001600160a01b0385811660248301528481166044830152606480830185905283518084039091018152608490920183526020820180516001600160e01b03166323b872dd60e01b179052915160009283929088169161361c91906144ba565b6000604051808303816000865af19150503d8060008114613659576040519150601f19603f3d011682016040523d82523d6000602084013e61365e565b606091505b509150915081801561368857508051158061368857508080602001905181019061368891906144d6565b6136e05760405162461bcd60e51b8152602060048201526024808201527f5472616e7366657248656c7065723a205452414e534645525f46524f4d5f46416044820152631253115160e21b6064820152608401610b34565b505050505050565b6001600160a01b03831660009081526001602052604081208054839290613710908490614067565b90915550506001600160a01b0382166000908152600160205260408120805483929061373d90849061407e565b92505081905550816001600160a01b0316836001600160a01b03167fddf252ad1be2c89b69c2b068fc378daa952ba7f163c4a11628f55a4df523b3ef836040516135ab91815260200190565b600081836060015161379b91906140c0565b836040015184602001516137af91906140c0565b6137b9919061407e565b836080015184606001516137cd91906140c0565b8385602001516137dd91906140c0565b6137e7919061407e565b84516137f3919061411e565b6137fd91906140df565b9392505050565b600080600061381284613367565b905080620f424060020b85600c54600d5461382d91906140df565b8860000b61383b91906142ad565b61384591906142ad565b61384f91906142ad565b61385991906141b1565b9590945092505050565b600954600090819060029061388290600160201b9004820b60036144f3565b61388c9190614580565b60020b8312613901576009546005906138b090600160201b900460020b60036144f3565b60020b8460026138c091906142ad565b6138ca91906140df565b6138d491906141b1565b6009546138ed90600a90600160201b900460020b614580565b60020b6138fa919061411e565b905061393b565b600954600160201b900460020b831261393b5760095460059061392e90600160201b900460020b856140df565b61393891906140ac565b90505b620f424061394a60328361407e565b61395490866140c0565b61395e91906140ac565b949350505050565b60006139a76040518060c001604052806000815260200160008152602001600081526020016000815260200160008152602001600063ffffffff1681525090565b336000908152601060209081526040808320815160c081018352815481526001820154938101939093526002810154918301919091526003810154606083018190526004820154608084015260059091015463ffffffff1660a0830152909190613a129087906140c0565b82604001518360200151613a2691906140c0565b613a30919061407e565b82608001518360600151613a4491906140c0565b878460200151613a5491906140c0565b613a5e919061407e565b8351613a6a919061411e565b613a7491906140df565b905060007f000000000000000000000000000000000000000000000000000000000000000060ff1683608001518460600151613ab091906140c0565b84604001518560200151613ac491906140c0565b613ace919061407e565b613ad891906140ac565b90506000613b0960ff7f000000000000000000000000000000000000000000000000000000000000000016886140ac565b600954909150600090620f424090613b2c90600160481b900461ffff168a6140c0565b613b3691906140ac565b905060008482613b46858761407e565b613b50919061407e565b613b5a91906140df565b90506000811315613bcd57613b6e81610fc2565b33600090815260106020908152604091829020825160c08101845281548152600182015492810192909252600281015492820192909252600382015460608201526004820154608082015260059091015463ffffffff1660a082015295505b50989397509295505050505050565b600954600160401b900460ff1615613c4c576000620f4240613c016203d090846140c0565b613c0b91906140ac565b905080600a6000828254613c1f919061407e565b90915550613c2f905081836140df565b600b6000828254613c40919061411e565b909155506132cb915050565b80600b6000828254613c5e919061411e565b909155505050565b600954600160401b900460ff1615613ce1576000620f4240613c8b6203d090856140c0565b613c9591906140ac565b905080600a6000828254613ca9919061407e565b90915550829050613cba82856140df565b613cc491906140df565b600b6000828254613cd5919061411e565b90915550613d02915050565b613ceb81836140df565b600b6000828254613cfc919061411e565b90915550505b5050565b80600080828254613d17919061407e565b90915550506001600160a01b03821660009081526001602052604081208054839290613d4490849061407e565b90915550506040518181526001600160a01b038316906000907fddf252ad1be2c89b69c2b068fc378daa952ba7f163c4a11628f55a4df523b3ef9060200161342f565b80356001600160a01b0381168114613d9e57600080fd5b919050565b60008060408385031215613db657600080fd5b82359150613dc660208401613d87565b90509250929050565b60005b83811015613dea578181015183820152602001613dd2565b83811115613df9576000848401525b50505050565b6020815260008251806020840152613e1e816040850160208701613dcf565b601f01601f19169190910160400192915050565b60008060408385031215613e4557600080fd5b613e4e83613d87565b946020939093013593505050565b600060208284031215613e6e57600080fd5b5035919050565b600080600060608486031215613e8a57600080fd5b613e9384613d87565b9250613ea160208501613d87565b9150604084013590509250925092565b600060208284031215613ec357600080fd5b813561ffff811681146137fd57600080fd5b60008060408385031215613ee857600080fd5b613ef183613d87565b9150613dc660208401613d87565b600080600060608486031215613f1457600080fd5b505081359360208301359350604090920135919050565b600060208284031215613f3d57600080fd5b6137fd82613d87565b80151581146132cb57600080fd5b600060208284031215613f6657600080fd5b81356137fd81613f46565b803560ff81168114613d9e57600080fd5b600060208284031215613f9457600080fd5b6137fd82613f71565b600060208284031215613faf57600080fd5b81358060020b81146137fd57600080fd5b600080600080600080600060e0888a031215613fdb57600080fd5b613fe488613d87565b9650613ff260208901613d87565b9550604088013594506060880135935061400e60808901613f71565b925060a0880135915060c0880135905092959891949750929550565b6020808252600d908201526c73746174652069736e2774203160981b604082015260600190565b634e487b7160e01b600052601160045260246000fd5b60008282101561407957614079614051565b500390565b6000821982111561409157614091614051565b500190565b634e487b7160e01b600052601260045260246000fd5b6000826140bb576140bb614096565b500490565b60008160001904831182151516156140da576140da614051565b500290565b60008083128015600160ff1b8501841216156140fd576140fd614051565b6001600160ff1b038401831381161561411857614118614051565b50500390565b600080821280156001600160ff1b038490038513161561414057614140614051565b600160ff1b839003841281161561415957614159614051565b50500190565b6020808252601190820152703432b233b2bc1d102327a92124a22222a760791b604082015260600190565b6020808252600d908201526c1a195919d95e081b1bd8dad959609a1b604082015260600190565b6000826141c0576141c0614096565b600160ff1b8214600019841416156141da576141da614051565b500590565b60208082526015908201527412195919d95e08151c9859194e8811561412549151605a1b604082015260600190565b6020808252600990820152683337b93134b23232b760b91b604082015260600190565b6020808252601d908201527f73696e676c6520616d6f756e74206f766572206e6574202a2072617465000000604082015260600190565b60208082526025908201527f706f6f6c206e657420616d6f756e74206d75737420736d616c6c207468616e20604082015264706172616d60d81b606082015260800190565b60006001600160ff1b03818413828413808216868404861116156142d3576142d3614051565b600160ff1b60008712828116878305891216156142f2576142f2614051565b6000871292508782058712848416161561430e5761430e614051565b8785058712818416161561432457614324614051565b505050929093029392505050565b60008060006060848603121561434757600080fd5b8351925060208401519150604084015190509250925092565b600181815b8085111561439b57816000190482111561438157614381614051565b8085161561438e57918102915b93841c9390800290614365565b509250929050565b6000826143b257506001610d5e565b816143bf57506000610d5e565b81600181146143d557600281146143df576143fb565b6001915050610d5e565b60ff8411156143f0576143f0614051565b50506001821b610d5e565b5060208310610133831016604e8410600b841016171561441e575081810a610d5e565b6144288383614360565b806000190482111561443c5761443c614051565b029392505050565b60006137fd60ff8416836143a3565b600081810b607f1981141561446a5761446a614051565b60000392915050565b600060001982141561448757614487614051565b5060010190565b600063ffffffff808316818516818304811182151516156144b1576144b1614051565b02949350505050565b600082516144cc818460208701613dcf565b9190910192915050565b6000602082840312156144e857600080fd5b81516137fd81613f46565b60008160020b8360020b627fffff60008213600084138383048511828216161561451f5761451f614051565b627fffff19600085128281168783058712161561453e5761453e614051565b6000871292508582058712848416161561455a5761455a614051565b8585058712818416161561457057614570614051565b5050509290910295945050505050565b60008160020b8360020b8061459757614597614096565b627fffff198214600019821416156145b1576145b1614051565b9005939250505056fe303db7636b0e071f088d2cd5e8463efe513531272d61a18739b21053f6d7b430a2646970667358221220823f05c6394287e2ee75f53fe68751e5eb679fec4245519bc006f569a866b3d064736f6c634300080b0033",
    "sourcePath": "d:/contract/hedgex/Single.sol",
    "compiler": {
        "name": "solc",
        "version": "0.8.11+commit.d7f03943"
    },
    "functionHashes": {
        "DOMAIN_SEPARATOR()": "3644e515",
        "PERMIT_TYPEHASH()": "30adf81f",
        "acceptContractSetter()": "e02b5d60",
        "addLiquidity(uint256,address)": "c95f9d0e",
        "allowance(address,address)": "dd62ed3e",
        "amountDecimal()": "2be90282",
        "approve(address,uint256)": "095ea7b3",
        "bAddLiquidity()": "876e0310",
        "bOpen()": "9aa5d57f",
        "balanceOf(address)": "70a08231",
        "closeLong(uint256,uint256,uint256)": "90edbeb0",
        "closeShort(uint256,uint256,uint256)": "807ca353",
        "contractSetter()": "e4344a60",
        "dailyInterestRateBase()": "8967b694",
        "decimals()": "313ce567",
        "detectSlide(address,address)": "ddcb04c2",
        "divConst()": "7e4856c4",
        "explosive(address,address)": "89d408ff",
        "explosivePool()": "3e31fb45",
        "feeDivide()": "d375454f",
        "feeOn()": "4f335d0a",
        "feeRate()": "978bbdb9",
        "feeTo()": "017e7e58",
        "feedPrice()": "a04eecae",
        "forceCloseAccount(address,address)": "6422e08f",
        "getLatestPrice()": "8e15f473",
        "getPoolNet()": "7bb71a97",
        "getPoolPosition()": "73e6054b",
        "interestRewardRate()": "01bcc908",
        "isStart()": "8a55d36e",
        "keepMarginScale()": "303c0a3b",
        "leverage()": "2c86d98e",
        "minPool()": "2678b8fd",
        "name()": "06fdde03",
        "nonces(address)": "7ecebe00",
        "openLong(uint256,uint256,uint256)": "6c2ee359",
        "openShort(uint256,uint256,uint256)": "71b31707",
        "permit(address,address,uint256,uint256,uint8,bytes32,bytes32)": "d505accf",
        "poolExplosivePrice()": "33d6f1f7",
        "poolLeftAmountRate()": "ce8ad1d2",
        "poolLongAmount()": "e5984319",
        "poolLongPrice()": "994af3ae",
        "poolNetAmountRateLimitOpen()": "cd8bb6cd",
        "poolNetAmountRateLimitPrice()": "1cce9103",
        "poolShortAmount()": "8e406892",
        "poolShortPrice()": "971059fb",
        "poolState()": "641ad8a9",
        "rechargeMargin(uint256)": "11ce83f8",
        "removeLiquidity(uint256,address)": "05fe138b",
        "setBAddLiquidity(bool)": "7da2535d",
        "setBOpen(bool)": "7bc2a356",
        "setFeeOn(bool)": "fc4064b3",
        "setFeeRate(uint16)": "29ff0773",
        "setFeeTo(address)": "f46901ed",
        "setFeedPrice(address)": "c669c32c",
        "setKeepMarginScale(uint8)": "8632d4ab",
        "setPoolNetAmountRateLimitOpen(int24)": "bedc409b",
        "setPoolNetAmountRateLimitPrice(int24)": "d1ad24be",
        "singleCloseLimitRate()": "7aaae950",
        "singleOpenLimitRate()": "5d0291ac",
        "slideP()": "2c204fa8",
        "sumFee()": "190b065f",
        "symbol()": "95d89b41",
        "token0()": "0dfe1681",
        "token0Decimal()": "9ddc230a",
        "totalPool()": "ecfb49a3",
        "totalSupply()": "18160ddd",
        "traders(address)": "92a88fa2",
        "transfer(address,uint256)": "a9059cbb",
        "transferContractSetter(address)": "bb9186a6",
        "transferFrom(address,address,uint256)": "23b872dd",
        "withdrawFee()": "e941fa78",
        "withdrawMargin(uint256)": "0cea7534"
    },
    "gasEstimates": {
        "creation": {
            "codeDepositCost": "3587200",
            "executionCost": "infinite",
            "totalCost": "infinite"
        },
        "external": {
            "DOMAIN_SEPARATOR()": "infinite",
            "PERMIT_TYPEHASH()": "264",
            "acceptContractSetter()": "50892",
            "addLiquidity(uint256,address)": "infinite",
            "allowance(address,address)": "infinite",
            "amountDecimal()": "infinite",
            "approve(address,uint256)": "24597",
            "bAddLiquidity()": "2462",
            "bOpen()": "2438",
            "balanceOf(address)": "2609",
            "closeLong(uint256,uint256,uint256)": "infinite",
            "closeShort(uint256,uint256,uint256)": "infinite",
            "contractSetter()": "2481",
            "dailyInterestRateBase()": "272",
            "decimals()": "infinite",
            "detectSlide(address,address)": "infinite",
            "divConst()": "359",
            "explosive(address,address)": "infinite",
            "explosivePool()": "infinite",
            "feeDivide()": "359",
            "feeOn()": "2417",
            "feeRate()": "2397",
            "feeTo()": "2396",
            "feedPrice()": "2481",
            "forceCloseAccount(address,address)": "infinite",
            "getLatestPrice()": "infinite",
            "getPoolNet()": "infinite",
            "getPoolPosition()": "13048",
            "interestRewardRate()": "296",
            "isStart()": "2422",
            "keepMarginScale()": "2486",
            "leverage()": "infinite",
            "minPool()": "infinite",
            "name()": "infinite",
            "nonces(address)": "2588",
            "openLong(uint256,uint256,uint256)": "infinite",
            "openShort(uint256,uint256,uint256)": "infinite",
            "permit(address,address,uint256,uint256,uint8,bytes32,bytes32)": "infinite",
            "poolExplosivePrice()": "2408",
            "poolLeftAmountRate()": "315",
            "poolLongAmount()": "2361",
            "poolLongPrice()": "2384",
            "poolNetAmountRateLimitOpen()": "2420",
            "poolNetAmountRateLimitPrice()": "2428",
            "poolShortAmount()": "2451",
            "poolShortPrice()": "2429",
            "poolState()": "2464",
            "rechargeMargin(uint256)": "infinite",
            "removeLiquidity(uint256,address)": "infinite",
            "setBAddLiquidity(bool)": "26822",
            "setBOpen(bool)": "26800",
            "setFeeOn(bool)": "26837",
            "setFeeRate(uint16)": "26725",
            "setFeeTo(address)": "26843",
            "setFeedPrice(address)": "26845",
            "setKeepMarginScale(uint8)": "26805",
            "setPoolNetAmountRateLimitOpen(int24)": "26765",
            "setPoolNetAmountRateLimitPrice(int24)": "26792",
            "singleCloseLimitRate()": "271",
            "singleOpenLimitRate()": "316",
            "slideP()": "316",
            "sumFee()": "2364",
            "symbol()": "infinite",
            "token0()": "infinite",
            "token0Decimal()": "infinite",
            "totalPool()": "2405",
            "totalSupply()": "2452",
            "traders(address)": "13292",
            "transfer(address,uint256)": "51141",
            "transferContractSetter(address)": "26801",
            "transferFrom(address,address,uint256)": "infinite",
            "withdrawFee()": "infinite",
            "withdrawMargin(uint256)": "infinite"
        },
        "internal": {
            "feeCharge(uint256)": "51157",
            "feeCharge(uint256,int256)": "infinite",
            "getAccountNet(struct HedgexSingle.Trader memory)": "infinite",
            "getAccountNet(struct HedgexSingle.Trader memory,uint256)": "infinite",
            "getPoolNet(uint256)": "infinite",
            "judegOpen(uint256,uint256)": "infinite",
            "poolLimitTrade(int8,uint256)": "infinite",
            "slideTradePrice(uint256,int256)": "infinite"
        }
    }
}