{
    "contractName": "HedgexSingle",
    "abi": [
        {
            "inputs": [
                {
                    "internalType": "address",
                    "name": "_token0",
                    "type": "address"
                },
                {
                    "internalType": "address",
                    "name": "_feedPrice",
                    "type": "address"
                },
                {
                    "internalType": "uint256",
                    "name": "_feedPriceDecimal",
                    "type": "uint256"
                },
                {
                    "internalType": "uint256",
                    "name": "_minStartPool",
                    "type": "uint256"
                },
                {
                    "internalType": "uint8",
                    "name": "_leverage",
                    "type": "uint8"
                },
                {
                    "internalType": "int8",
                    "name": "_amountDecimal",
                    "type": "int8"
                }
            ],
            "stateMutability": "nonpayable",
            "type": "constructor"
        },
        {
            "anonymous": false,
            "inputs": [
                {
                    "indexed": true,
                    "internalType": "address",
                    "name": "owner",
                    "type": "address"
                },
                {
                    "indexed": true,
                    "internalType": "address",
                    "name": "spender",
                    "type": "address"
                },
                {
                    "indexed": false,
                    "internalType": "uint256",
                    "name": "value",
                    "type": "uint256"
                }
            ],
            "name": "Approval",
            "type": "event"
        },
        {
            "anonymous": false,
            "inputs": [
                {
                    "indexed": true,
                    "internalType": "address",
                    "name": "sender",
                    "type": "address"
                },
                {
                    "indexed": false,
                    "internalType": "uint256",
                    "name": "amount",
                    "type": "uint256"
                }
            ],
            "name": "Burn",
            "type": "event"
        },
        {
            "anonymous": false,
            "inputs": [
                {
                    "indexed": true,
                    "internalType": "address",
                    "name": "user",
                    "type": "address"
                },
                {
                    "indexed": false,
                    "internalType": "int8",
                    "name": "direction",
                    "type": "int8"
                },
                {
                    "indexed": false,
                    "internalType": "uint256",
                    "name": "amount",
                    "type": "uint256"
                },
                {
                    "indexed": false,
                    "internalType": "uint256",
                    "name": "price",
                    "type": "uint256"
                }
            ],
            "name": "Explosive",
            "type": "event"
        },
        {
            "anonymous": false,
            "inputs": [
                {
                    "indexed": true,
                    "internalType": "address",
                    "name": "account",
                    "type": "address"
                },
                {
                    "indexed": false,
                    "internalType": "uint256",
                    "name": "long",
                    "type": "uint256"
                },
                {
                    "indexed": false,
                    "internalType": "uint256",
                    "name": "short",
                    "type": "uint256"
                },
                {
                    "indexed": false,
                    "internalType": "uint256",
                    "name": "price",
                    "type": "uint256"
                }
            ],
            "name": "ForceClose",
            "type": "event"
        },
        {
            "anonymous": false,
            "inputs": [
                {
                    "indexed": true,
                    "internalType": "address",
                    "name": "sender",
                    "type": "address"
                },
                {
                    "indexed": false,
                    "internalType": "uint256",
                    "name": "amount",
                    "type": "uint256"
                }
            ],
            "name": "Mint",
            "type": "event"
        },
        {
            "anonymous": false,
            "inputs": [
                {
                    "indexed": true,
                    "internalType": "address",
                    "name": "sender",
                    "type": "address"
                },
                {
                    "indexed": false,
                    "internalType": "uint256",
                    "name": "amount",
                    "type": "uint256"
                }
            ],
            "name": "Recharge",
            "type": "event"
        },
        {
            "anonymous": false,
            "inputs": [
                {
                    "indexed": true,
                    "internalType": "address",
                    "name": "user",
                    "type": "address"
                },
                {
                    "indexed": false,
                    "internalType": "int8",
                    "name": "direction",
                    "type": "int8"
                },
                {
                    "indexed": false,
                    "internalType": "uint256",
                    "name": "amount",
                    "type": "uint256"
                },
                {
                    "indexed": false,
                    "internalType": "uint256",
                    "name": "price",
                    "type": "uint256"
                }
            ],
            "name": "TakeInterest",
            "type": "event"
        },
        {
            "anonymous": false,
            "inputs": [
                {
                    "indexed": true,
                    "internalType": "address",
                    "name": "sender",
                    "type": "address"
                },
                {
                    "indexed": false,
                    "internalType": "int8",
                    "name": "direction",
                    "type": "int8"
                },
                {
                    "indexed": false,
                    "internalType": "uint256",
                    "name": "amount",
                    "type": "uint256"
                },
                {
                    "indexed": false,
                    "internalType": "uint256",
                    "name": "price",
                    "type": "uint256"
                }
            ],
            "name": "Trade",
            "type": "event"
        },
        {
            "anonymous": false,
            "inputs": [
                {
                    "indexed": true,
                    "internalType": "address",
                    "name": "from",
                    "type": "address"
                },
                {
                    "indexed": true,
                    "internalType": "address",
                    "name": "to",
                    "type": "address"
                },
                {
                    "indexed": false,
                    "internalType": "uint256",
                    "name": "value",
                    "type": "uint256"
                }
            ],
            "name": "Transfer",
            "type": "event"
        },
        {
            "anonymous": false,
            "inputs": [
                {
                    "indexed": true,
                    "internalType": "address",
                    "name": "sender",
                    "type": "address"
                },
                {
                    "indexed": false,
                    "internalType": "uint256",
                    "name": "amount",
                    "type": "uint256"
                }
            ],
            "name": "Withdraw",
            "type": "event"
        },
        {
            "inputs": [],
            "name": "DOMAIN_SEPARATOR",
            "outputs": [
                {
                    "internalType": "bytes32",
                    "name": "",
                    "type": "bytes32"
                }
            ],
            "stateMutability": "view",
            "type": "function"
        },
        {
            "inputs": [],
            "name": "PERMIT_TYPEHASH",
            "outputs": [
                {
                    "internalType": "bytes32",
                    "name": "",
                    "type": "bytes32"
                }
            ],
            "stateMutability": "view",
            "type": "function"
        },
        {
            "inputs": [],
            "name": "acceptFeeToSetter",
            "outputs": [],
            "stateMutability": "nonpayable",
            "type": "function"
        },
        {
            "inputs": [
                {
                    "internalType": "uint256",
                    "name": "amount",
                    "type": "uint256"
                },
                {
                    "internalType": "address",
                    "name": "to",
                    "type": "address"
                }
            ],
            "name": "addLiquidity",
            "outputs": [],
            "stateMutability": "nonpayable",
            "type": "function"
        },
        {
            "inputs": [
                {
                    "internalType": "address",
                    "name": "",
                    "type": "address"
                },
                {
                    "internalType": "address",
                    "name": "",
                    "type": "address"
                }
            ],
            "name": "allowance",
            "outputs": [
                {
                    "internalType": "uint256",
                    "name": "",
                    "type": "uint256"
                }
            ],
            "stateMutability": "view",
            "type": "function"
        },
        {
            "inputs": [],
            "name": "amountDecimal",
            "outputs": [
                {
                    "internalType": "int8",
                    "name": "",
                    "type": "int8"
                }
            ],
            "stateMutability": "view",
            "type": "function"
        },
        {
            "inputs": [
                {
                    "internalType": "address",
                    "name": "spender",
                    "type": "address"
                },
                {
                    "internalType": "uint256",
                    "name": "value",
                    "type": "uint256"
                }
            ],
            "name": "approve",
            "outputs": [
                {
                    "internalType": "bool",
                    "name": "",
                    "type": "bool"
                }
            ],
            "stateMutability": "nonpayable",
            "type": "function"
        },
        {
            "inputs": [
                {
                    "internalType": "address",
                    "name": "",
                    "type": "address"
                }
            ],
            "name": "balanceOf",
            "outputs": [
                {
                    "internalType": "uint256",
                    "name": "",
                    "type": "uint256"
                }
            ],
            "stateMutability": "view",
            "type": "function"
        },
        {
            "inputs": [
                {
                    "internalType": "uint256",
                    "name": "priceExp",
                    "type": "uint256"
                },
                {
                    "internalType": "uint256",
                    "name": "amount",
                    "type": "uint256"
                },
                {
                    "internalType": "uint256",
                    "name": "deadline",
                    "type": "uint256"
                }
            ],
            "name": "closeLong",
            "outputs": [],
            "stateMutability": "nonpayable",
            "type": "function"
        },
        {
            "inputs": [
                {
                    "internalType": "uint256",
                    "name": "priceExp",
                    "type": "uint256"
                },
                {
                    "internalType": "uint256",
                    "name": "amount",
                    "type": "uint256"
                },
                {
                    "internalType": "uint256",
                    "name": "deadline",
                    "type": "uint256"
                }
            ],
            "name": "closeShort",
            "outputs": [],
            "stateMutability": "nonpayable",
            "type": "function"
        },
        {
            "inputs": [],
            "name": "dailyInterestRateBase",
            "outputs": [
                {
                    "internalType": "uint16",
                    "name": "",
                    "type": "uint16"
                }
            ],
            "stateMutability": "view",
            "type": "function"
        },
        {
            "inputs": [],
            "name": "decimals",
            "outputs": [
                {
                    "internalType": "uint8",
                    "name": "",
                    "type": "uint8"
                }
            ],
            "stateMutability": "view",
            "type": "function"
        },
        {
            "inputs": [
                {
                    "internalType": "address",
                    "name": "account",
                    "type": "address"
                },
                {
                    "internalType": "address",
                    "name": "to",
                    "type": "address"
                }
            ],
            "name": "detectSlide",
            "outputs": [],
            "stateMutability": "nonpayable",
            "type": "function"
        },
        {
            "inputs": [],
            "name": "divConst",
            "outputs": [
                {
                    "internalType": "uint24",
                    "name": "",
                    "type": "uint24"
                }
            ],
            "stateMutability": "view",
            "type": "function"
        },
        {
            "inputs": [
                {
                    "internalType": "address",
                    "name": "account",
                    "type": "address"
                },
                {
                    "internalType": "address",
                    "name": "to",
                    "type": "address"
                }
            ],
            "name": "explosive",
            "outputs": [],
            "stateMutability": "nonpayable",
            "type": "function"
        },
        {
            "inputs": [],
            "name": "explosivePool",
            "outputs": [],
            "stateMutability": "nonpayable",
            "type": "function"
        },
        {
            "inputs": [],
            "name": "feeDivide",
            "outputs": [
                {
                    "internalType": "uint24",
                    "name": "",
                    "type": "uint24"
                }
            ],
            "stateMutability": "view",
            "type": "function"
        },
        {
            "inputs": [],
            "name": "feeOn",
            "outputs": [
                {
                    "internalType": "bool",
                    "name": "",
                    "type": "bool"
                }
            ],
            "stateMutability": "view",
            "type": "function"
        },
        {
            "inputs": [],
            "name": "feeRate",
            "outputs": [
                {
                    "internalType": "uint16",
                    "name": "",
                    "type": "uint16"
                }
            ],
            "stateMutability": "view",
            "type": "function"
        },
        {
            "inputs": [],
            "name": "feeTo",
            "outputs": [
                {
                    "internalType": "address",
                    "name": "",
                    "type": "address"
                }
            ],
            "stateMutability": "view",
            "type": "function"
        },
        {
            "inputs": [],
            "name": "feeToSetter",
            "outputs": [
                {
                    "internalType": "address",
                    "name": "",
                    "type": "address"
                }
            ],
            "stateMutability": "view",
            "type": "function"
        },
        {
            "inputs": [],
            "name": "feedPrice",
            "outputs": [
                {
                    "internalType": "contract AggregatorV3Interface",
                    "name": "",
                    "type": "address"
                }
            ],
            "stateMutability": "view",
            "type": "function"
        },
        {
            "inputs": [],
            "name": "feedPriceDecimal",
            "outputs": [
                {
                    "internalType": "uint256",
                    "name": "",
                    "type": "uint256"
                }
            ],
            "stateMutability": "view",
            "type": "function"
        },
        {
            "inputs": [],
            "name": "foceCloseRewardGas",
            "outputs": [
                {
                    "internalType": "uint256",
                    "name": "",
                    "type": "uint256"
                }
            ],
            "stateMutability": "view",
            "type": "function"
        },
        {
            "inputs": [
                {
                    "internalType": "address",
                    "name": "account",
                    "type": "address"
                },
                {
                    "internalType": "address",
                    "name": "to",
                    "type": "address"
                }
            ],
            "name": "forceCloseAccount",
            "outputs": [],
            "stateMutability": "nonpayable",
            "type": "function"
        },
        {
            "inputs": [],
            "name": "gasUsdPriceFeed",
            "outputs": [
                {
                    "internalType": "address",
                    "name": "",
                    "type": "address"
                }
            ],
            "stateMutability": "view",
            "type": "function"
        },
        {
            "inputs": [],
            "name": "getGasUsdPrice",
            "outputs": [
                {
                    "internalType": "uint256",
                    "name": "",
                    "type": "uint256"
                }
            ],
            "stateMutability": "view",
            "type": "function"
        },
        {
            "inputs": [],
            "name": "getLatestPrice",
            "outputs": [
                {
                    "internalType": "uint256",
                    "name": "",
                    "type": "uint256"
                }
            ],
            "stateMutability": "view",
            "type": "function"
        },
        {
            "inputs": [],
            "name": "getPoolNet",
            "outputs": [
                {
                    "internalType": "int256",
                    "name": "",
                    "type": "int256"
                }
            ],
            "stateMutability": "view",
            "type": "function"
        },
        {
            "inputs": [],
            "name": "getPoolPosition",
            "outputs": [
                {
                    "internalType": "uint256",
                    "name": "",
                    "type": "uint256"
                },
                {
                    "internalType": "uint256",
                    "name": "",
                    "type": "uint256"
                },
                {
                    "internalType": "uint256",
                    "name": "",
                    "type": "uint256"
                },
                {
                    "internalType": "uint256",
                    "name": "",
                    "type": "uint256"
                }
            ],
            "stateMutability": "view",
            "type": "function"
        },
        {
            "inputs": [
                {
                    "internalType": "address",
                    "name": "_token0",
                    "type": "address"
                },
                {
                    "internalType": "address",
                    "name": "_feedPrice",
                    "type": "address"
                },
                {
                    "internalType": "uint256",
                    "name": "_feedPriceDecimal",
                    "type": "uint256"
                },
                {
                    "internalType": "uint256",
                    "name": "_minStartPool",
                    "type": "uint256"
                },
                {
                    "internalType": "uint8",
                    "name": "_leverage",
                    "type": "uint8"
                },
                {
                    "internalType": "int8",
                    "name": "_amountDecimal",
                    "type": "int8"
                }
            ],
            "name": "initialize",
            "outputs": [],
            "stateMutability": "nonpayable",
            "type": "function"
        },
        {
            "inputs": [],
            "name": "interestRewardRate",
            "outputs": [
                {
                    "internalType": "uint24",
                    "name": "",
                    "type": "uint24"
                }
            ],
            "stateMutability": "view",
            "type": "function"
        },
        {
            "inputs": [],
            "name": "isStart",
            "outputs": [
                {
                    "internalType": "bool",
                    "name": "",
                    "type": "bool"
                }
            ],
            "stateMutability": "view",
            "type": "function"
        },
        {
            "inputs": [],
            "name": "leverage",
            "outputs": [
                {
                    "internalType": "uint8",
                    "name": "",
                    "type": "uint8"
                }
            ],
            "stateMutability": "view",
            "type": "function"
        },
        {
            "inputs": [],
            "name": "minPool",
            "outputs": [
                {
                    "internalType": "uint256",
                    "name": "",
                    "type": "uint256"
                }
            ],
            "stateMutability": "view",
            "type": "function"
        },
        {
            "inputs": [],
            "name": "name",
            "outputs": [
                {
                    "internalType": "string",
                    "name": "",
                    "type": "string"
                }
            ],
            "stateMutability": "view",
            "type": "function"
        },
        {
            "inputs": [
                {
                    "internalType": "address",
                    "name": "",
                    "type": "address"
                }
            ],
            "name": "nonces",
            "outputs": [
                {
                    "internalType": "uint256",
                    "name": "",
                    "type": "uint256"
                }
            ],
            "stateMutability": "view",
            "type": "function"
        },
        {
            "inputs": [
                {
                    "internalType": "uint256",
                    "name": "priceExp",
                    "type": "uint256"
                },
                {
                    "internalType": "uint256",
                    "name": "amount",
                    "type": "uint256"
                },
                {
                    "internalType": "uint256",
                    "name": "deadline",
                    "type": "uint256"
                }
            ],
            "name": "openLong",
            "outputs": [],
            "stateMutability": "nonpayable",
            "type": "function"
        },
        {
            "inputs": [
                {
                    "internalType": "uint256",
                    "name": "priceExp",
                    "type": "uint256"
                },
                {
                    "internalType": "uint256",
                    "name": "amount",
                    "type": "uint256"
                },
                {
                    "internalType": "uint256",
                    "name": "deadline",
                    "type": "uint256"
                }
            ],
            "name": "openShort",
            "outputs": [],
            "stateMutability": "nonpayable",
            "type": "function"
        },
        {
            "inputs": [
                {
                    "internalType": "address",
                    "name": "owner",
                    "type": "address"
                },
                {
                    "internalType": "address",
                    "name": "spender",
                    "type": "address"
                },
                {
                    "internalType": "uint256",
                    "name": "value",
                    "type": "uint256"
                },
                {
                    "internalType": "uint256",
                    "name": "deadline",
                    "type": "uint256"
                },
                {
                    "internalType": "uint8",
                    "name": "v",
                    "type": "uint8"
                },
                {
                    "internalType": "bytes32",
                    "name": "r",
                    "type": "bytes32"
                },
                {
                    "internalType": "bytes32",
                    "name": "s",
                    "type": "bytes32"
                }
            ],
            "name": "permit",
            "outputs": [],
            "stateMutability": "nonpayable",
            "type": "function"
        },
        {
            "inputs": [],
            "name": "poolExplosivePrice",
            "outputs": [
                {
                    "internalType": "uint256",
                    "name": "",
                    "type": "uint256"
                }
            ],
            "stateMutability": "view",
            "type": "function"
        },
        {
            "inputs": [],
            "name": "poolLeftAmountRate",
            "outputs": [
                {
                    "internalType": "uint24",
                    "name": "",
                    "type": "uint24"
                }
            ],
            "stateMutability": "view",
            "type": "function"
        },
        {
            "inputs": [],
            "name": "poolLongAmount",
            "outputs": [
                {
                    "internalType": "uint256",
                    "name": "",
                    "type": "uint256"
                }
            ],
            "stateMutability": "view",
            "type": "function"
        },
        {
            "inputs": [],
            "name": "poolLongPrice",
            "outputs": [
                {
                    "internalType": "uint256",
                    "name": "",
                    "type": "uint256"
                }
            ],
            "stateMutability": "view",
            "type": "function"
        },
        {
            "inputs": [],
            "name": "poolNetAmountRateLimitOpen",
            "outputs": [
                {
                    "internalType": "int24",
                    "name": "",
                    "type": "int24"
                }
            ],
            "stateMutability": "view",
            "type": "function"
        },
        {
            "inputs": [],
            "name": "poolNetAmountRateLimitPrice",
            "outputs": [
                {
                    "internalType": "int24",
                    "name": "",
                    "type": "int24"
                }
            ],
            "stateMutability": "view",
            "type": "function"
        },
        {
            "inputs": [],
            "name": "poolShortAmount",
            "outputs": [
                {
                    "internalType": "uint256",
                    "name": "",
                    "type": "uint256"
                }
            ],
            "stateMutability": "view",
            "type": "function"
        },
        {
            "inputs": [],
            "name": "poolShortPrice",
            "outputs": [
                {
                    "internalType": "uint256",
                    "name": "",
                    "type": "uint256"
                }
            ],
            "stateMutability": "view",
            "type": "function"
        },
        {
            "inputs": [],
            "name": "poolState",
            "outputs": [
                {
                    "internalType": "uint8",
                    "name": "",
                    "type": "uint8"
                }
            ],
            "stateMutability": "view",
            "type": "function"
        },
        {
            "inputs": [
                {
                    "internalType": "uint256",
                    "name": "amount",
                    "type": "uint256"
                }
            ],
            "name": "rechargeMargin",
            "outputs": [],
            "stateMutability": "nonpayable",
            "type": "function"
        },
        {
            "inputs": [
                {
                    "internalType": "uint256",
                    "name": "liquidity",
                    "type": "uint256"
                },
                {
                    "internalType": "address",
                    "name": "to",
                    "type": "address"
                }
            ],
            "name": "removeLiquidity",
            "outputs": [],
            "stateMutability": "nonpayable",
            "type": "function"
        },
        {
            "inputs": [
                {
                    "internalType": "bool",
                    "name": "b",
                    "type": "bool"
                }
            ],
            "name": "setFeeOn",
            "outputs": [],
            "stateMutability": "nonpayable",
            "type": "function"
        },
        {
            "inputs": [
                {
                    "internalType": "address",
                    "name": "_feeTo",
                    "type": "address"
                }
            ],
            "name": "setFeeTo",
            "outputs": [],
            "stateMutability": "nonpayable",
            "type": "function"
        },
        {
            "inputs": [],
            "name": "singleCloseLimitRate",
            "outputs": [
                {
                    "internalType": "uint24",
                    "name": "",
                    "type": "uint24"
                }
            ],
            "stateMutability": "view",
            "type": "function"
        },
        {
            "inputs": [],
            "name": "singleOpenLimitRate",
            "outputs": [
                {
                    "internalType": "uint16",
                    "name": "",
                    "type": "uint16"
                }
            ],
            "stateMutability": "view",
            "type": "function"
        },
        {
            "inputs": [],
            "name": "slideP",
            "outputs": [
                {
                    "internalType": "uint8",
                    "name": "",
                    "type": "uint8"
                }
            ],
            "stateMutability": "view",
            "type": "function"
        },
        {
            "inputs": [],
            "name": "sumFee",
            "outputs": [
                {
                    "internalType": "uint256",
                    "name": "",
                    "type": "uint256"
                }
            ],
            "stateMutability": "view",
            "type": "function"
        },
        {
            "inputs": [],
            "name": "symbol",
            "outputs": [
                {
                    "internalType": "string",
                    "name": "",
                    "type": "string"
                }
            ],
            "stateMutability": "view",
            "type": "function"
        },
        {
            "inputs": [],
            "name": "token0",
            "outputs": [
                {
                    "internalType": "address",
                    "name": "",
                    "type": "address"
                }
            ],
            "stateMutability": "view",
            "type": "function"
        },
        {
            "inputs": [],
            "name": "token0Decimal",
            "outputs": [
                {
                    "internalType": "uint256",
                    "name": "",
                    "type": "uint256"
                }
            ],
            "stateMutability": "view",
            "type": "function"
        },
        {
            "inputs": [],
            "name": "totalPool",
            "outputs": [
                {
                    "internalType": "int256",
                    "name": "",
                    "type": "int256"
                }
            ],
            "stateMutability": "view",
            "type": "function"
        },
        {
            "inputs": [],
            "name": "totalSupply",
            "outputs": [
                {
                    "internalType": "uint256",
                    "name": "",
                    "type": "uint256"
                }
            ],
            "stateMutability": "view",
            "type": "function"
        },
        {
            "inputs": [
                {
                    "internalType": "address",
                    "name": "",
                    "type": "address"
                }
            ],
            "name": "traders",
            "outputs": [
                {
                    "internalType": "int256",
                    "name": "margin",
                    "type": "int256"
                },
                {
                    "internalType": "uint256",
                    "name": "longAmount",
                    "type": "uint256"
                },
                {
                    "internalType": "uint256",
                    "name": "longPrice",
                    "type": "uint256"
                },
                {
                    "internalType": "uint256",
                    "name": "shortAmount",
                    "type": "uint256"
                },
                {
                    "internalType": "uint256",
                    "name": "shortPrice",
                    "type": "uint256"
                },
                {
                    "internalType": "uint32",
                    "name": "interestDay",
                    "type": "uint32"
                }
            ],
            "stateMutability": "view",
            "type": "function"
        },
        {
            "inputs": [
                {
                    "internalType": "address",
                    "name": "to",
                    "type": "address"
                },
                {
                    "internalType": "uint256",
                    "name": "value",
                    "type": "uint256"
                }
            ],
            "name": "transfer",
            "outputs": [
                {
                    "internalType": "bool",
                    "name": "",
                    "type": "bool"
                }
            ],
            "stateMutability": "nonpayable",
            "type": "function"
        },
        {
            "inputs": [
                {
                    "internalType": "address",
                    "name": "_feeToSetter",
                    "type": "address"
                }
            ],
            "name": "transferFeeToSetter",
            "outputs": [],
            "stateMutability": "nonpayable",
            "type": "function"
        },
        {
            "inputs": [
                {
                    "internalType": "address",
                    "name": "from",
                    "type": "address"
                },
                {
                    "internalType": "address",
                    "name": "to",
                    "type": "address"
                },
                {
                    "internalType": "uint256",
                    "name": "value",
                    "type": "uint256"
                }
            ],
            "name": "transferFrom",
            "outputs": [
                {
                    "internalType": "bool",
                    "name": "",
                    "type": "bool"
                }
            ],
            "stateMutability": "nonpayable",
            "type": "function"
        },
        {
            "inputs": [],
            "name": "withdrawFee",
            "outputs": [],
            "stateMutability": "nonpayable",
            "type": "function"
        },
        {
            "inputs": [
                {
                    "internalType": "uint256",
                    "name": "amount",
                    "type": "uint256"
                }
            ],
            "name": "withdrawMargin",
            "outputs": [],
            "stateMutability": "nonpayable",
            "type": "function"
        }
    ],
    "bytecode": "6101c06040526001600855732514895c72f50d8bd4b4f9b1110f0d6bd2c975266101a0523480156200003057600080fd5b50604051620048c2380380620048c283398101604081905262000053916200029d565b856001600160a01b031663313ce5676040518163ffffffff1660e01b8152600401602060405180830381865afa15801562000092573d6000803e3d6000fd5b505050506040513d601f19601f82011682018060405250810190620000b8919062000315565b604080518082018252600c81526b48656467657853696e676c6560a01b6020918201528151808301835260018152603160f81b9082015281517f8b73c3c69bb8fe3d512ecc4cf759cc79239f7b179b0ffacaa9a75d522b39400f918101919091527fdbb8f54117374490c454ab41b80d95cf4a0c3b286124d9b83e346d854dc3efcd918101919091527fc89efdaa54c0f20c7adf612882df0950f5a951637e0307cdcb4c672f298b8bc660608201524660808201523060a082015260c00160408051601f19818403018152828252805160209182012060a05260ff9093166080526006805460ff60a01b1916600160a01b1790556001600160a01b0380891661016052891661010081905263313ce56760e01b83529051909263313ce56792600480820193918290030181865afa158015620001f8573d6000803e3d6000fd5b505050506040513d601f19601f820116820180604052508101906200021e919062000315565b6200022b90600a6200044f565b610120526101809390935260c09190915260ff1660e0526009805461ffff1916905560000b610140525050600580546001600160a01b0319163317905562000460565b80516001600160a01b03811681146200028657600080fd5b919050565b805160ff811681146200028657600080fd5b60008060008060008060c08789031215620002b757600080fd5b620002c2876200026e565b9550620002d2602088016200026e565b94506040870151935060608701519250620002f0608088016200028b565b915060a08701518060000b81146200030757600080fd5b809150509295509295509295565b6000602082840312156200032857600080fd5b62000333826200028b565b9392505050565b634e487b7160e01b600052601160045260246000fd5b600181815b80851115620003915781600019048211156200037557620003756200033a565b808516156200038357918102915b93841c939080029062000355565b509250929050565b600082620003aa5750600162000449565b81620003b95750600062000449565b8160018114620003d25760028114620003dd57620003fd565b600191505062000449565b60ff841115620003f157620003f16200033a565b50506001821b62000449565b5060208310610133831016604e8410600b841016171562000422575081810a62000449565b6200042e838362000350565b80600019048211156200044557620004456200033a565b0290505b92915050565b60006200033360ff84168362000399565b60805160a05160c05160e05161010051610120516101405161016051610180516101a0516143456200057d6000396000818161074101526124a60152600081816104a10152818161238a015261241a01526000818161095501526122760152600081816105d801528181612361015281816123ae015261243e01526000818161092e0152818161150b015281816123d9015261247201526000818161051f01528181610c3801528181610eaa01528181610f130152818161157301528181612195015281816128b801528181612f20015261300601526000818161062c01528181610d440152818161379d01526138060152600081816105b101526129310152600081816106b201526129fd0152600061068201526143456000f3fe608060405234801561001057600080fd5b50600436106103fc5760003560e01c806373e6054b11610215578063994af3ae11610125578063d375454f116100b8578063e598431911610087578063e598431914610a1e578063e941fa7814610a27578063ecfb49a314610a2f578063f46901ed14610a38578063fc4064b314610a4b57600080fd5b8063d375454f146109c3578063d505accf146109cd578063dd62ed3e146109e0578063ddcb04c214610a0b57600080fd5b8063c250332f116100f4578063c250332f1461098a578063c95f9d0e1461099d578063cd8bb6cd146109b0578063ce8ad1d2146109ba57600080fd5b8063994af3ae146109205780639ddc230a14610929578063a04eecae14610950578063a9059cbb1461097757600080fd5b80638a55d36e116101a857806390edbeb01161017757806390edbeb01461085c57806392a88fa21461086f57806395d89b41146108eb578063971059fb1461090e578063978bbdb91461091757600080fd5b80638a55d36e146108365780638e15f473146108435780638e4068921461084b5780638ed3896c1461085457600080fd5b80637ecebe00116101e45780637ecebe00146107e7578063807ca353146108075780638967b6941461081a57806389d408ff1461082357600080fd5b806373e6054b146107a95780637aaae950146104315780637bb71a97146107d55780637e4856c4146107dd57600080fd5b80632c204fa8116103105780633e31fb45116102a35780636422e08f116102725780636422e08f146107295780636afb37601461073c5780636c2ee3591461076357806370a082311461077657806371b317071461079657600080fd5b80633e31fb45146106df5780634f335d0a146106e75780635d0291ac146106f9578063641ad8a91461071557600080fd5b8063313ce567116102df578063313ce5671461067d57806333d6f1f7146106a45780633644e515146106ad5780633d5f8e7a146106d457600080fd5b80632c204fa81461060d5780632c86d98e146106275780632dd072a01461064e57806330adf81f1461065657600080fd5b80630dfe1681116103935780631cce9103116103625780631cce91031461056657806323b872dd14610583578063251c073a146105965780632678b8fd146105ac5780632be90282146105d357600080fd5b80630dfe16811461051a57806311ce83f81461054157806318160ddd14610554578063190b065f1461055d57600080fd5b806308c73e74116103cf57806308c73e741461049c578063094b7415146104d1578063095ea7b3146104e45780630cea75341461050757600080fd5b8063017e7e581461040157806301bcc9081461043157806305fe138b1461044f57806306fdde0314610464575b600080fd5b600454610414906001600160a01b031681565b6040516001600160a01b0390911681526020015b60405180910390f35b61043b620186a081565b60405162ffffff9091168152602001610428565b61046261045d366004613ab3565b610a5e565b005b61048f6040518060400160405280600c81526020016b48656467657853696e676c6560a01b81525081565b6040516104289190613b0f565b6104c37f000000000000000000000000000000000000000000000000000000000000000081565b604051908152602001610428565b600554610414906001600160a01b031681565b6104f76104f2366004613b42565b610c99565b6040519015158152602001610428565b610462610515366004613b6c565b610cb0565b6104147f000000000000000000000000000000000000000000000000000000000000000081565b61046261054f366004613b6c565b610f0e565b6104c360005481565b6104c3600a5481565b61057062030d4081565b60405160029190910b8152602001610428565b6104f7610591366004613b85565b610f96565b6104626105a4366004613bd2565b505050505050565b6104c37f000000000000000000000000000000000000000000000000000000000000000081565b6105fa7f000000000000000000000000000000000000000000000000000000000000000081565b60405160009190910b8152602001610428565b610615603281565b60405160ff9091168152602001610428565b6106157f000000000000000000000000000000000000000000000000000000000000000081565b610462611010565b6104c37f6e71edae12b1b97f4d1f60370fef10105fa2faae0126114a169c64845d6126c981565b6106157f000000000000000000000000000000000000000000000000000000000000000081565b6104c360075481565b6104c37f000000000000000000000000000000000000000000000000000000000000000081565b6104c3633b9aca0081565b610462611061565b6009546104f790610100900460ff1681565b61070261753081565b60405161ffff9091168152602001610428565b60065461061590600160a01b900460ff1681565b610462610737366004613c42565b611299565b6104147f000000000000000000000000000000000000000000000000000000000000000081565b610462610771366004613c6c565b6115fb565b6104c3610784366004613c98565b60016020526000908152604090205481565b6104626107a4366004613c6c565b6118ed565b600c54600e54600d54600f54604080519485526020850193909352918301526060820152608001610428565b6104c3611bbd565b61043b620f424081565b6104c36107f5366004613c98565b60036020526000908152604090205481565b610462610815366004613c6c565b611c7c565b6107026103e881565b610462610831366004613c42565b611f99565b6009546104f79060ff1681565b6104c3612271565b6104c3600d5481565b6104c36124a1565b61046261086a366004613c6c565b612531565b6108b861087d366004613c98565b601060205260009081526040902080546001820154600283015460038401546004850154600590950154939492939192909163ffffffff1686565b604080519687526020870195909552938501929092526060840152608083015263ffffffff1660a082015260c001610428565b61048f604051806040016040528060048152602001634845585360e01b81525081565b6104c3600f5481565b61070261025881565b6104c3600e5481565b6104c37f000000000000000000000000000000000000000000000000000000000000000081565b6104147f000000000000000000000000000000000000000000000000000000000000000081565b6104f7610985366004613b42565b61282e565b610462610998366004613c98565b61283b565b6104626109ab366004613ab3565b612887565b610570620493e081565b61043b61c35081565b61043b6203d09081565b6104626109db366004613cb3565b61299f565b6104c36109ee366004613c42565b600260209081526000928352604080842090915290825290205481565b610462610a19366004613c42565b612bcb565b6104c3600c5481565b610462612fa7565b6104c3600b5481565b610462610a46366004613c98565b613038565b610462610a59366004613d2b565b613084565b600654600160a01b900460ff16600114610a935760405162461bcd60e51b8152600401610a8a90613d48565b60405180910390fd5b600954829060ff1615610c11576000610aaa612271565b90506000610ab7826130c8565b90506000600d54600c5411610adb57600c54600d54610ad69190613d85565b610aeb565b600d54600c54610aeb9190613d85565b905060006003600d54600c54610b019190613d9c565b610b0b9190613dca565b905080821015610b19578091505b6000620493e0620f4240610b2d8786613dde565b610b379190613dde565b610b419190613dca565b9050808413610b925760405162461bcd60e51b815260206004820152601760248201527f6e6574206d757374203e20757365644d617267696e2f520000000000000000006044820152606401610a8a565b6000610b9e8286613d85565b600054909150610bae8a87613dde565b610bb89190613dca565b965080871115610c0a5760405162461bcd60e51b815260206004820152601860248201527f776974686472617720616d6f756e7420746f6f206d616e7900000000000000006044820152606401610a8a565b5050505050505b80600b6000828254610c239190613dfd565b90915550610c3390503384613111565b610c5e7f0000000000000000000000000000000000000000000000000000000000000000838361319c565b60405183815233907fcc16f5dbb4873280815c1ee09dbd06736cffcc184412cf7a71a0fdb75d397ca5906020015b60405180910390a2505050565b6000610ca63384846132b7565b5060015b92915050565b600654600160a01b900460ff16600114610cdc5760405162461bcd60e51b8152600401610a8a90613d48565b336000908152601060209081526040808320815160c0810183528154815260018201549381019390935260028101549183019190915260038101546060830152600481015460808301526005015463ffffffff1660a082015290610d3e612271565b905060007f000000000000000000000000000000000000000000000000000000000000000060ff1683608001518460600151610d7a9190613dde565b84604001518560200151610d8e9190613dde565b610d989190613d9c565b610da29190613dca565b90506000828460600151610db69190613dde565b84604001518560200151610dca9190613dde565b610dd49190613d9c565b84608001518560600151610de89190613dde565b848660200151610df89190613dde565b610e029190613d9c565b8551610e0e9190613e3c565b610e189190613dfd565b90506000610e268383613dfd565b905060008113610e785760405162461bcd60e51b815260206004820152601860248201527f63616e207769746864726177206973206e6567617469766500000000000000006044820152606401610a8a565b8581811315610e845750805b8551610e91908290613dfd565b33600081815260106020526040902091909155610ed0907f0000000000000000000000000000000000000000000000000000000000000000908361319c565b60405181815233907f884edad9ce6fa2440d8a54cc123490eb96d2768479d49ff9c7366125a94243649060200160405180910390a250505050505050565b610f3a7f0000000000000000000000000000000000000000000000000000000000000000333084613319565b3360009081526010602052604081208054839290610f59908490613e3c565b909155505060405181815233907f78d9de6f3ad1cae9e0cbcbaa5267fd90f6a6728831eec42b7c147b398b2269249060200160405180910390a250565b6001600160a01b038316600090815260026020908152604080832033845290915281205460001914610ffb576001600160a01b038416600090815260026020908152604080832033845290915281208054849290610ff5908490613d85565b90915550505b611006848484613441565b5060019392505050565b6006546001600160a01b0316331461103a5760405162461bcd60e51b8152600401610a8a90613e7d565b60068054600580546001600160a01b03199081166001600160a01b03841617909155169055565b6008546001146110835760405162461bcd60e51b8152600401610a8a90613ea8565b6000600855600654600160a01b900460ff166001146110da5760405162461bcd60e51b8152602060048201526013602482015272706f6f6c206973206578706c6f736976696e6760681b6044820152606401610a8a565b60006110e4612271565b905060006110f1826130c8565b90506000600d54600c541161112c57600583600c54600d546111139190613d85565b61111d9190613dde565b6111279190613dca565b611153565b600583600d54600c5461113f9190613d85565b6111499190613dde565b6111539190613dca565b9050808213156111a55760405162461bcd60e51b815260206004820152601960248201527f706f6f6c2063616e6e2774206265206578706c6f7369766564000000000000006044820152606401610a8a565b6006805460ff60a01b1916600160a11b17905560006111c5600483613dca565b905080831215611279576000600c54600d546111e19190613dfd565b82600f54600d546111f29190613dde565b600e54600c546112029190613dde565b600b5461120f9190613dfd565b6112199190613e3c565b6112239190613dfd565b61122d9190613ecf565b90506000811361126c5760405162461bcd60e51b815260206004820152600a6024820152690657072696365203e20360b41b6044820152606401610a8a565b600755600b819055611284565b600b83905560078490555b50506000600f819055600e5550506001600855565b6008546001146112bb5760405162461bcd60e51b8152600401610a8a90613ea8565b6000600855600654600160a01b900460ff166002146113115760405162461bcd60e51b81526020600482015260126024820152713837b7b629ba30ba329034b9903737ba101960711b6044820152606401610a8a565b6001600160a01b0382166000908152601060209081526040808320815160c0810183528154815260018201549381019390935260028101549183019190915260038101546060830152600481015460808301526005015463ffffffff1660a0820152600754909161138283836134e2565b90506000620f424062ffffff1661025861ffff168486606001516113a69190613dde565b8587602001516113b69190613dde565b6113c09190613d9c565b6113ca9190613dde565b6113d49190613dca565b6020850151909150156113fd578360200151600d60008282546113f79190613d85565b90915550505b606084015115611423578360600151600c600082825461141d9190613d85565b90915550505b600c541580156114335750600d54155b1561144c576006805460ff60a01b1916600160a01b1790555b808213156114975761145e8183613dfd565b6001600160a01b038716600090815260106020526040812091909155600b805483929061148c908490613e3c565b909155506114ca9050565b6001600160a01b0386166000908152601060205260408120819055600b80548492906114c4908490613e3c565b90915550505b6001600160a01b03861660009081526010602052604081206001810182905560028101829055600381018290556004018190556a52b7d2dcc80cd2e40000007f00000000000000000000000000000000000000000000000000000000000000006115326124a1565b61154090633b9aca00613dde565b61154a9190613dde565b6115549190613dca565b905080600b60008282546115689190613dfd565b9091555061159990507f0000000000000000000000000000000000000000000000000000000000000000878361319c565b60208086015160608088015160408051938452938301529181018690526001600160a01b038916917ffca559ae7a3bea5c41671f27049d90b84fbf98be965e6d7f0259ee6e5caa980b91015b60405180910390a2505060016008555050505050565b60085460011461161d5760405162461bcd60e51b8152600401610a8a90613ea8565b600060085580428110156116435760405162461bcd60e51b8152600401610a8a90613efd565b600654600160a01b900460ff1660011461166f5760405162461bcd60e51b8152600401610a8a90613d48565b60095460ff166116b95760405162461bcd60e51b815260206004820152601560248201527418dbdb9d1c9858dd081a5cc81b9bdd081cdd185c9d605a1b6044820152606401610a8a565b60006116c3612271565b90506000806116d360018461355d565b909250905082620f42406116e961753084613dde565b6116f39190613dca565b6116fd9190613dca565b86111561171c5760405162461bcd60e51b8152600401610a8a90613f2c565b620493e0821261173e5760405162461bcd60e51b8152600401610a8a90613f63565b600061174a84846135bc565b6117549085613d9c565b90508781111580611763575087155b6117af5760405162461bcd60e51b815260206004820152601b60248201527f6f70656e206c6f6e6720707269636520697320746f6f206869676800000000006044820152606401610a8a565b60006117bb8289613dde565b90506000806117ca8784613689565b915091508981602001516117de9190613d9c565b33600090815260106020908152604090912060010191909155810151611805908b90613d9c565b838260400151836020015161181a9190613dde565b6118249190613d9c565b61182e9190613dca565b33600090815260106020526040902060020155805161184e908390613dfd565b33600090815260106020526040902055600d5461186b8b82613d9c565b600d556118788b82613d9c565b84600f54836118879190613dde565b6118919190613d9c565b61189b9190613dca565b600f556118a7836138f0565b6040805160018152602081018d905290810186905233906000805160206142f0833981519152906060015b60405180910390a25050600160085550505050505050505050565b60085460011461190f5760405162461bcd60e51b8152600401610a8a90613ea8565b600060085580428110156119355760405162461bcd60e51b8152600401610a8a90613efd565b600654600160a01b900460ff166001146119615760405162461bcd60e51b8152600401610a8a90613d48565b60095460ff166119ab5760405162461bcd60e51b815260206004820152601560248201527418dbdb9d1c9858dd081a5cc81b9bdd081cdd185c9d605a1b6044820152606401610a8a565b60006119b5612271565b90506000806119c66000198461355d565b909250905082620f42406119dc61753084613dde565b6119e69190613dca565b6119f09190613dca565b861115611a0f5760405162461bcd60e51b8152600401610a8a90613f2c565b620493e08212611a315760405162461bcd60e51b8152600401610a8a90613f63565b6000611a3d84846135bc565b611a479085613d85565b905087811015611a995760405162461bcd60e51b815260206004820152601b60248201527f6f70656e2073686f727420707269636520697320746f6f206c6f7700000000006044820152606401610a8a565b6000611aa58289613dde565b9050600080611ab48784613689565b91509150898160600151611ac89190613d9c565b336000908152601060205260409020600301556060810151611aeb908b90613d9c565b8382608001518360600151611b009190613dde565b611b0a9190613d9c565b611b149190613dca565b336000908152601060205260409020600401558051611b34908390613dfd565b33600090815260106020526040902055600c54611b518b82613d9c565b600c55611b5e8b82613d9c565b84600e5483611b6d9190613dde565b611b779190613d9c565b611b819190613dca565b600e55611b8d836138f0565b604080516000198152602081018d905290810186905233906000805160206142f0833981519152906060016118d2565b600080611bc8612271565b9050600081600d54611bda9190613dde565b600e54600c54611bea9190613dde565b611bf49190613d9c565b600f54600d54611c049190613dde565b83600c54611c129190613dde565b611c1c9190613d9c565b600b54611c299190613e3c565b611c339190613dfd565b905060008113610caa5760405162461bcd60e51b81526020600482015260146024820152733732ba103732b2b2103132903837b9b4ba34b7b760611b6044820152606401610a8a565b600854600114611c9e5760405162461bcd60e51b8152600401610a8a90613ea8565b60006008558042811015611cc45760405162461bcd60e51b8152600401610a8a90613efd565b600654600160a01b900460ff16600114611cf05760405162461bcd60e51b8152600401610a8a90613d48565b6000611cfa612271565b9050600080611d0a60018461355d565b909250905082620f4240611d21620186a084613dde565b611d2b9190613dca565b611d359190613dca565b861115611d545760405162461bcd60e51b8152600401610a8a90613f2c565b6000611d6084846135bc565b611d6a9085613d9c565b90508781111580611d79575087155b611dc55760405162461bcd60e51b815260206004820152601b60248201527f636c6f73652073686f72742070726963652069732068696768657200000000006044820152606401610a8a565b33600090815260106020908152604091829020825160c081018452815481526001820154928101929092526002810154928201929092526003820154606082018190526004830154608083015260059092015463ffffffff1660a082015290881115611e7f5760405162461bcd60e51b815260206004820152602360248201527f636c6f736520616d6f756e742072657175697265203e3d2073686f7274416d6f6044820152621d5b9d60ea1b6064820152608401610a8a565b6000620f4240610258611e92858c613dde565b611e9c9190613dde565b611ea69190613dca565b90506000838360800151611eba9190613dfd565b611ec4908b613fa6565b9050898360600151611ed69190613d85565b3360009081526010602052604090206003015582518290611ef8908390613e3c565b611f029190613dfd565b3360009081526010602052604090205560608301518a1415611f3257336000908152601060205260408120600401555b89600c6000828254611f449190613d85565b90915550611f5490508282613978565b6040805160028152602081018c905290810185905233906000805160206142f0833981519152906060015b60405180910390a250506001600855505050505050505050565b600854600114611fbb5760405162461bcd60e51b8152600401610a8a90613ea8565b6000600855600654600160a01b900460ff16600114611fec5760405162461bcd60e51b8152600401610a8a90613d48565b6001600160a01b0382166000908152601060209081526040808320815160c0810183528154815260018201549381019390935260028101549183019190915260038101546060830181905260048201546080840181905260059092015463ffffffff1660a0840152919291601e9161206391613dde565b836040015184602001516120779190613dde565b6120819190613d9c565b61208b9190613dca565b90506000612097612271565b905060006120a584836134e2565b9050828113156120ef5760405162461bcd60e51b815260206004820152601560248201527410d85b881b9bdd08189948195e1c1b1bdcda5d9959605a1b6044820152606401610a8a565b602084015115612115578360200151600d600082825461210f9190613d85565b90915550505b60608401511561213b578360600151600c60008282546121359190613d85565b90915550505b60608401516020850151600119911115612153575060025b6001600160a01b03871660009081526010602052604081208181556001810182905560028101829055600381018290556004018190558213156121f8576121c57f0000000000000000000000000000000000000000000000000000000000000000876121c0600586613ecf565b61319c565b60056121d2836004613fa6565b6121dc9190613ecf565b600b60008282546121ed9190613e3c565b909155506122109050565b81600b600082825461220a9190613e3c565b90915550505b866001600160a01b03167f1cf7369c3767c976b447baaae4eed8217e2d190d1750c589e62bf5f7ecc4aaff82876060015188602001516122509190613d9c565b6040805160009390930b8352602083019190915281018690526060016115e5565b6000807f00000000000000000000000000000000000000000000000000000000000000006001600160a01b031663feaf968c6040518163ffffffff1660e01b815260040160a060405180830381865afa1580156122d2573d6000803e3d6000fd5b505050506040513d601f19601f820116820180604052508101906122f69190614045565b5050509150506000811361235d5760405162461bcd60e51b815260206004820152602860248201527f7468652070616972207374616e64617264207072696365206d75737420626520604482015267706f73697469766560c01b6064820152608401610a8a565b60007f000000000000000000000000000000000000000000000000000000000000000060000b12612418577f00000000000000000000000000000000000000000000000000000000000000006123d47f0000000000000000000000000000000000000000000000000000000000000000600a614179565b6123fe7f000000000000000000000000000000000000000000000000000000000000000084613dde565b6124089190613dde565b6124129190613dca565b91505090565b7f00000000000000000000000000000000000000000000000000000000000000006124627f0000000000000000000000000000000000000000000000000000000000000000614188565b61246d90600a614179565b6124977f000000000000000000000000000000000000000000000000000000000000000084613dde565b6124089190613dca565b6000807f00000000000000000000000000000000000000000000000000000000000000006001600160a01b031663feaf968c6040518163ffffffff1660e01b815260040160a060405180830381865afa158015612502573d6000803e3d6000fd5b505050506040513d601f19601f820116820180604052508101906125269190614045565b509195945050505050565b6008546001146125535760405162461bcd60e51b8152600401610a8a90613ea8565b600060085580428110156125795760405162461bcd60e51b8152600401610a8a90613efd565b600654600160a01b900460ff166001146125a55760405162461bcd60e51b8152600401610a8a90613d48565b60006125af612271565b90506000806125c06000198461355d565b909250905082620f42406125d7620186a084613dde565b6125e19190613dca565b6125eb9190613dca565b86111561260a5760405162461bcd60e51b8152600401610a8a90613f2c565b600061261684846135bc565b6126209085613d85565b9050878110156126725760405162461bcd60e51b815260206004820152601960248201527f636c6f7365206c6f6e67207072696365206973206c6f776572000000000000006044820152606401610a8a565b33600090815260106020908152604091829020825160c08101845281548152600182015492810183905260028201549381019390935260038101546060840152600481015460808401526005015463ffffffff1660a08301528811156127255760405162461bcd60e51b815260206004820152602260248201527f636c6f736520616d6f756e742072657175697265203e3d206c6f6e67416d6f756044820152611b9d60f21b6064820152608401610a8a565b6000620f4240610258612738858c613dde565b6127429190613dde565b61274c9190613dca565b905060008260400151846127609190613dfd565b61276a908b613fa6565b905089836020015161277c9190613d85565b336000908152601060205260409020600101558251829061279e908390613e3c565b6127a89190613dfd565b336000908152601060209081526040909120919091558301518a14156127dc57336000908152601060205260408120600201555b89600d60008282546127ee9190613d85565b909155506127fe90508282613978565b604080516001198152602081018c905290810185905233906000805160206142f083398151915290606001611f7f565b6000610ca6338484613441565b6005546001600160a01b031633146128655760405162461bcd60e51b8152600401610a8a90613e7d565b600680546001600160a01b0319166001600160a01b0392909216919091179055565b600654600160a01b900460ff166001146128b35760405162461bcd60e51b8152600401610a8a90613d48565b6128df7f0000000000000000000000000000000000000000000000000000000000000000333085613319565b600954829060ff16156129155760006128f6611bbd565b905080846000546129079190613dde565b6129119190613dca565b9150505b82600b60008282546129279190613e3c565b9091555050600b547f000000000000000000000000000000000000000000000000000000000000000013612963576009805460ff191660011790555b61296d8282613a16565b60405181815233907f0f6798a560793a54c3bcfe86a93cde1e73087d944c0ea20544137d412139688590602001610c8c565b428410156129e15760405162461bcd60e51b815260206004820152600f60248201526e12195919d95e0e8811561412549151608a1b6044820152606401610a8a565b6001600160a01b038716600090815260036020526040812080547f0000000000000000000000000000000000000000000000000000000000000000917f6e71edae12b1b97f4d1f60370fef10105fa2faae0126114a169c64845d6126c9918b918b918b9187612a4f836141a8565b909155506040805160208101969096526001600160a01b0394851690860152929091166060840152608083015260a082015260c0810187905260e00160405160208183030381529060405280519060200120604051602001612ac892919061190160f01b81526002810192909252602282015260420190565b60408051601f198184030181528282528051602091820120600080855291840180845281905260ff88169284019290925260608301869052608083018590529092509060019060a0016020604051602081039080840390855afa158015612b33573d6000803e3d6000fd5b5050604051601f1901519150506001600160a01b03811615801590612b695750886001600160a01b0316816001600160a01b0316145b612bb55760405162461bcd60e51b815260206004820152601960248201527f4865646765783a20494e56414c49445f5349474e4154555245000000000000006044820152606401610a8a565b612bc08989896132b7565b505050505050505050565b600854600114612bed5760405162461bcd60e51b8152600401610a8a90613ea8565b6000600855600654600160a01b900460ff16600114612c1e5760405162461bcd60e51b8152600401610a8a90613d48565b6000612c2d6201518042613dca565b905061012c612c3f82620151806141c3565b612c4f9063ffffffff1642613d85565b1115612c8c5760405162461bcd60e51b815260206004820152600c60248201526b74696d652064697361626c6560a01b6044820152606401610a8a565b6001600160a01b0383166000908152601060205260409020600581015463ffffffff90811690831611612cfa5760405162461bcd60e51b81526020600482015260166024820152751a185cc81899595b881d185ad9481a5b9d195c995cdd60521b6044820152606401610a8a565b806003015481600101541415612d525760405162461bcd60e51b815260206004820152601d60248201527f6e656564206c6f6e6720616e642073686f7274206e6f7420657175616c0000006044820152606401610a8a565b6000612d5c612271565b90506000600d5490506000600c54905060008060019050856003015486600101541115612e1657828411612dc55760405162461bcd60e51b815260206004820152601060248201526f1a185d99481b9bc81a5b9d195c995cdd60821b6044820152606401610a8a565b83620f4240612dd48583613d85565b60018901546103e890612de7908a613dde565b612df19190613dde565b612dfb9190613dde565b612e059190613dca565b612e0f9190613dca565b9150612ea9565b838311612e585760405162461bcd60e51b815260206004820152601060248201526f1a185d99481b9bc81a5b9d195c995cdd60821b6044820152606401610a8a565b5060001982620f4240612e6b8683613d85565b60038901546103e890612e7e908a613dde565b612e889190613dde565b612e929190613dde565b612e9c9190613dca565b612ea69190613dca565b91505b6000620f4240612ebc620186a085613dde565b612ec69190613dca565b60058801805463ffffffff191663ffffffff8b16179055875490915083908890600090612ef4908490613dfd565b90915550612f0490508184613dfd565b600b6000828254612f159190613e3c565b90915550612f4690507f00000000000000000000000000000000000000000000000000000000000000008a8361319c565b60408051600084900b8152602081018590529081018790526001600160a01b038b16907f78213dfb97e98b601b3fee012a0f6bddbf4e63c293c77b5186137af1e7cf62ae9060600160405180910390a2505060016008555050505050505050565b6004546001600160a01b03163314612ff45760405162461bcd60e51b815260206004820152601060248201526f3432b233b2bc1d2327a92124a22222a760811b6044820152606401610a8a565b600a80546000909155600454613035907f0000000000000000000000000000000000000000000000000000000000000000906001600160a01b03168361319c565b50565b6005546001600160a01b031633146130625760405162461bcd60e51b8152600401610a8a90613e7d565b600480546001600160a01b0319166001600160a01b0392909216919091179055565b6005546001600160a01b031633146130ae5760405162461bcd60e51b8152600401610a8a90613e7d565b600980549115156101000261ff0019909216919091179055565b60008082600d546130d99190613dde565b600e54600c546130e99190613dde565b6130f39190613d9c565b600f54600d546131039190613dde565b84600c54611c129190613dde565b6001600160a01b03821660009081526001602052604081208054839290613139908490613d85565b92505081905550806000808282546131519190613d85565b90915550506040518181526000906001600160a01b038416907fddf252ad1be2c89b69c2b068fc378daa952ba7f163c4a11628f55a4df523b3ef906020015b60405180910390a35050565b604080516001600160a01b038481166024830152604480830185905283518084039091018152606490920183526020820180516001600160e01b031663a9059cbb60e01b17905291516000928392908716916131f891906141ef565b6000604051808303816000865af19150503d8060008114613235576040519150601f19603f3d011682016040523d82523d6000602084013e61323a565b606091505b5091509150818015613264575080511580613264575080806020019051810190613264919061420b565b6132b05760405162461bcd60e51b815260206004820152601f60248201527f5472616e7366657248656c7065723a205452414e534645525f4641494c4544006044820152606401610a8a565b5050505050565b6001600160a01b0383811660008181526002602090815260408083209487168084529482529182902085905590518481527f8c5be1e5ebec7d5bd14f71427d1e84f3dd0314c0f7b2291e5b200ac8c7c3b92591015b60405180910390a3505050565b604080516001600160a01b0385811660248301528481166044830152606480830185905283518084039091018152608490920183526020820180516001600160e01b03166323b872dd60e01b179052915160009283929088169161337d91906141ef565b6000604051808303816000865af19150503d80600081146133ba576040519150601f19603f3d011682016040523d82523d6000602084013e6133bf565b606091505b50915091508180156133e95750805115806133e95750808060200190518101906133e9919061420b565b6105a45760405162461bcd60e51b8152602060048201526024808201527f5472616e7366657248656c7065723a205452414e534645525f46524f4d5f46416044820152631253115160e21b6064820152608401610a8a565b6001600160a01b03831660009081526001602052604081208054839290613469908490613d85565b90915550506001600160a01b03821660009081526001602052604081208054839290613496908490613d9c565b92505081905550816001600160a01b0316836001600160a01b03167fddf252ad1be2c89b69c2b068fc378daa952ba7f163c4a11628f55a4df523b3ef8360405161330c91815260200190565b60008183606001516134f49190613dde565b836040015184602001516135089190613dde565b6135129190613d9c565b836080015184606001516135269190613dde565b8385602001516135369190613dde565b6135409190613d9c565b845161354c9190613e3c565b6135569190613dfd565b9392505050565b600080600061356b846130c8565b905080620f424060020b85600c54600d546135869190613dfd565b8860000b6135949190613fa6565b61359e9190613fa6565b6135a89190613fa6565b6135b29190613ecf565b9590945092505050565b60008060026135cf62030d406003614228565b6135d991906142b5565b60020b83126136385760056135f262030d406003614228565b60020b8460026136029190613fa6565b61360c9190613dfd565b6136169190613ecf565b613624600a62030d406142b5565b60020b6136319190613e3c565b905061365e565b62030d40831261365e57600561365162030d4085613dfd565b61365b9190613dca565b90505b620f424061366d603283613d9c565b6136779086613dde565b6136819190613dca565b949350505050565b60006136ca6040518060c001604052806000815260200160008152602001600081526020016000815260200160008152602001600063ffffffff1681525090565b336000908152601060209081526040808320815160c081018352815481526001820154938101939093526002810154918301919091526003810154606083018190526004820154608084015260059091015463ffffffff1660a0830152909190613735908790613dde565b826040015183602001516137499190613dde565b6137539190613d9c565b826080015183606001516137679190613dde565b8784602001516137779190613dde565b6137819190613d9c565b835161378d9190613e3c565b6137979190613dfd565b905060007f000000000000000000000000000000000000000000000000000000000000000060ff16836080015184606001516137d39190613dde565b846040015185602001516137e79190613dde565b6137f19190613d9c565b6137fb9190613dca565b9050600061382c60ff7f00000000000000000000000000000000000000000000000000000000000000001688613dca565b90506000620f42406138406102588a613dde565b61384a9190613dca565b90506000848261385a8587613d9c565b6138649190613d9c565b61386e9190613dfd565b905060008113156138e15761388281610f0e565b33600090815260106020908152604091829020825160c08101845281548152600182015492810192909252600281015492820192909252600382015460608201526004820154608082015260059091015463ffffffff1660a082015295505b50989397509295505050505050565b600954610100900460ff161561395e576000620f42406139136203d09084613dde565b61391d9190613dca565b905080600a60008282546139319190613d9c565b9091555061394190508183613dfd565b600b60008282546139529190613e3c565b90915550613035915050565b80600b60008282546139709190613e3c565b909155505050565b600954610100900460ff16156139f1576000620f424061399b6203d09085613dde565b6139a59190613dca565b905080600a60008282546139b99190613d9c565b909155508290506139ca8285613dfd565b6139d49190613dfd565b600b60008282546139e59190613e3c565b90915550613a12915050565b6139fb8183613dfd565b600b6000828254613a0c9190613e3c565b90915550505b5050565b80600080828254613a279190613d9c565b90915550506001600160a01b03821660009081526001602052604081208054839290613a54908490613d9c565b90915550506040518181526001600160a01b038316906000907fddf252ad1be2c89b69c2b068fc378daa952ba7f163c4a11628f55a4df523b3ef90602001613190565b80356001600160a01b0381168114613aae57600080fd5b919050565b60008060408385031215613ac657600080fd5b82359150613ad660208401613a97565b90509250929050565b60005b83811015613afa578181015183820152602001613ae2565b83811115613b09576000848401525b50505050565b6020815260008251806020840152613b2e816040850160208701613adf565b601f01601f19169190910160400192915050565b60008060408385031215613b5557600080fd5b613b5e83613a97565b946020939093013593505050565b600060208284031215613b7e57600080fd5b5035919050565b600080600060608486031215613b9a57600080fd5b613ba384613a97565b9250613bb160208501613a97565b9150604084013590509250925092565b803560ff81168114613aae57600080fd5b60008060008060008060c08789031215613beb57600080fd5b613bf487613a97565b9550613c0260208801613a97565b94506040870135935060608701359250613c1e60808801613bc1565b915060a08701358060000b8114613c3457600080fd5b809150509295509295509295565b60008060408385031215613c5557600080fd5b613c5e83613a97565b9150613ad660208401613a97565b600080600060608486031215613c8157600080fd5b505081359360208301359350604090920135919050565b600060208284031215613caa57600080fd5b61355682613a97565b600080600080600080600060e0888a031215613cce57600080fd5b613cd788613a97565b9650613ce560208901613a97565b95506040880135945060608801359350613d0160808901613bc1565b925060a0880135915060c0880135905092959891949750929550565b801515811461303557600080fd5b600060208284031215613d3d57600080fd5b813561355681613d1d565b6020808252600d908201526c73746174652069736e2774203160981b604082015260600190565b634e487b7160e01b600052601160045260246000fd5b600082821015613d9757613d97613d6f565b500390565b60008219821115613daf57613daf613d6f565b500190565b634e487b7160e01b600052601260045260246000fd5b600082613dd957613dd9613db4565b500490565b6000816000190483118215151615613df857613df8613d6f565b500290565b60008083128015600160ff1b850184121615613e1b57613e1b613d6f565b6001600160ff1b0384018313811615613e3657613e36613d6f565b50500390565b600080821280156001600160ff1b0384900385131615613e5e57613e5e613d6f565b600160ff1b8390038412811615613e7757613e77613d6f565b50500190565b6020808252601190820152703432b233b2bc1d102327a92124a22222a760791b604082015260600190565b6020808252600d908201526c1a195919d95e081b1bd8dad959609a1b604082015260600190565b600082613ede57613ede613db4565b600160ff1b821460001984141615613ef857613ef8613d6f565b500590565b60208082526015908201527412195919d95e08151c9859194e8811561412549151605a1b604082015260600190565b6020808252601d908201527f73696e676c6520616d6f756e74206f766572206e6574202a2072617465000000604082015260600190565b60208082526023908201527f706f6f6c206e657420616d6f756e74206d75737420736d616c6c207468616e2060408201526233302560e81b606082015260800190565b60006001600160ff1b0381841382841380821686840486111615613fcc57613fcc613d6f565b600160ff1b6000871282811687830589121615613feb57613feb613d6f565b6000871292508782058712848416161561400757614007613d6f565b8785058712818416161561401d5761401d613d6f565b505050929093029392505050565b805169ffffffffffffffffffff81168114613aae57600080fd5b600080600080600060a0868803121561405d57600080fd5b6140668661402b565b94506020860151935060408601519250606086015191506140896080870161402b565b90509295509295909350565b600181815b808511156140d05781600019048211156140b6576140b6613d6f565b808516156140c357918102915b93841c939080029061409a565b509250929050565b6000826140e757506001610caa565b816140f457506000610caa565b816001811461410a576002811461411457614130565b6001915050610caa565b60ff84111561412557614125613d6f565b50506001821b610caa565b5060208310610133831016604e8410600b8410161715614153575081810a610caa565b61415d8383614095565b806000190482111561417157614171613d6f565b029392505050565b600061355660ff8416836140d8565b600081810b607f1981141561419f5761419f613d6f565b60000392915050565b60006000198214156141bc576141bc613d6f565b5060010190565b600063ffffffff808316818516818304811182151516156141e6576141e6613d6f565b02949350505050565b60008251614201818460208701613adf565b9190910192915050565b60006020828403121561421d57600080fd5b815161355681613d1d565b60008160020b8360020b627fffff60008213600084138383048511828216161561425457614254613d6f565b627fffff19600085128281168783058712161561427357614273613d6f565b6000871292508582058712848416161561428f5761428f613d6f565b858505871281841616156142a5576142a5613d6f565b5050509290910295945050505050565b60008160020b8360020b806142cc576142cc613db4565b627fffff198214600019821416156142e6576142e6613d6f565b9005939250505056fe303db7636b0e071f088d2cd5e8463efe513531272d61a18739b21053f6d7b430a2646970667358221220b6775343ee40be5f16900eefdc3bf66117c52b109d75d7c90c5628c643031f3764736f6c634300080a0033",
    "sourcePath": "d:/contract/hedgex/Single.sol",
    "compiler": {
        "name": "solc",
        "version": "0.8.10+commit.fc410830"
    },
    "functionHashes": {
        "DOMAIN_SEPARATOR()": "3644e515",
        "PERMIT_TYPEHASH()": "30adf81f",
        "acceptFeeToSetter()": "2dd072a0",
        "addLiquidity(uint256,address)": "c95f9d0e",
        "allowance(address,address)": "dd62ed3e",
        "amountDecimal()": "2be90282",
        "approve(address,uint256)": "095ea7b3",
        "balanceOf(address)": "70a08231",
        "closeLong(uint256,uint256,uint256)": "90edbeb0",
        "closeShort(uint256,uint256,uint256)": "807ca353",
        "dailyInterestRateBase()": "8967b694",
        "decimals()": "313ce567",
        "detectSlide(address,address)": "ddcb04c2",
        "divConst()": "7e4856c4",
        "explosive(address,address)": "89d408ff",
        "explosivePool()": "3e31fb45",
        "feeDivide()": "d375454f",
        "feeOn()": "4f335d0a",
        "feeRate()": "978bbdb9",
        "feeTo()": "017e7e58",
        "feeToSetter()": "094b7415",
        "feedPrice()": "a04eecae",
        "feedPriceDecimal()": "08c73e74",
        "foceCloseRewardGas()": "3d5f8e7a",
        "forceCloseAccount(address,address)": "6422e08f",
        "gasUsdPriceFeed()": "6afb3760",
        "getGasUsdPrice()": "8ed3896c",
        "getLatestPrice()": "8e15f473",
        "getPoolNet()": "7bb71a97",
        "getPoolPosition()": "73e6054b",
        "initialize(address,address,uint256,uint256,uint8,int8)": "251c073a",
        "interestRewardRate()": "01bcc908",
        "isStart()": "8a55d36e",
        "leverage()": "2c86d98e",
        "minPool()": "2678b8fd",
        "name()": "06fdde03",
        "nonces(address)": "7ecebe00",
        "openLong(uint256,uint256,uint256)": "6c2ee359",
        "openShort(uint256,uint256,uint256)": "71b31707",
        "permit(address,address,uint256,uint256,uint8,bytes32,bytes32)": "d505accf",
        "poolExplosivePrice()": "33d6f1f7",
        "poolLeftAmountRate()": "ce8ad1d2",
        "poolLongAmount()": "e5984319",
        "poolLongPrice()": "994af3ae",
        "poolNetAmountRateLimitOpen()": "cd8bb6cd",
        "poolNetAmountRateLimitPrice()": "1cce9103",
        "poolShortAmount()": "8e406892",
        "poolShortPrice()": "971059fb",
        "poolState()": "641ad8a9",
        "rechargeMargin(uint256)": "11ce83f8",
        "removeLiquidity(uint256,address)": "05fe138b",
        "setFeeOn(bool)": "fc4064b3",
        "setFeeTo(address)": "f46901ed",
        "singleCloseLimitRate()": "7aaae950",
        "singleOpenLimitRate()": "5d0291ac",
        "slideP()": "2c204fa8",
        "sumFee()": "190b065f",
        "symbol()": "95d89b41",
        "token0()": "0dfe1681",
        "token0Decimal()": "9ddc230a",
        "totalPool()": "ecfb49a3",
        "totalSupply()": "18160ddd",
        "traders(address)": "92a88fa2",
        "transfer(address,uint256)": "a9059cbb",
        "transferFeeToSetter(address)": "c250332f",
        "transferFrom(address,address,uint256)": "23b872dd",
        "withdrawFee()": "e941fa78",
        "withdrawMargin(uint256)": "0cea7534"
    },
    "gasEstimates": {
        "creation": {
            "codeDepositCost": "3444200",
            "executionCost": "infinite",
            "totalCost": "infinite"
        },
        "external": {
            "DOMAIN_SEPARATOR()": "infinite",
            "PERMIT_TYPEHASH()": "330",
            "acceptFeeToSetter()": "50872",
            "addLiquidity(uint256,address)": "infinite",
            "allowance(address,address)": "infinite",
            "amountDecimal()": "infinite",
            "approve(address,uint256)": "24641",
            "balanceOf(address)": "2652",
            "closeLong(uint256,uint256,uint256)": "infinite",
            "closeShort(uint256,uint256,uint256)": "infinite",
            "dailyInterestRateBase()": "316",
            "decimals()": "infinite",
            "detectSlide(address,address)": "infinite",
            "divConst()": "339",
            "explosive(address,address)": "infinite",
            "explosivePool()": "infinite",
            "feeDivide()": "271",
            "feeOn()": "2411",
            "feeRate()": "359",
            "feeTo()": "2396",
            "feeToSetter()": "2417",
            "feedPrice()": "infinite",
            "feedPriceDecimal()": "infinite",
            "foceCloseRewardGas()": "329",
            "forceCloseAccount(address,address)": "infinite",
            "gasUsdPriceFeed()": "infinite",
            "getGasUsdPrice()": "infinite",
            "getLatestPrice()": "infinite",
            "getPoolNet()": "infinite",
            "getPoolPosition()": "8715",
            "initialize(address,address,uint256,uint256,uint8,int8)": "infinite",
            "interestRewardRate()": "296",
            "isStart()": "2378",
            "leverage()": "infinite",
            "minPool()": "infinite",
            "name()": "infinite",
            "nonces(address)": "2587",
            "openLong(uint256,uint256,uint256)": "infinite",
            "openShort(uint256,uint256,uint256)": "infinite",
            "permit(address,address,uint256,uint256,uint8,bytes32,bytes32)": "infinite",
            "poolExplosivePrice()": "2385",
            "poolLeftAmountRate()": "337",
            "poolLongAmount()": "2361",
            "poolLongPrice()": "2363",
            "poolNetAmountRateLimitOpen()": "320",
            "poolNetAmountRateLimitPrice()": "277",
            "poolShortAmount()": "2407",
            "poolShortPrice()": "2428",
            "poolState()": "2464",
            "rechargeMargin(uint256)": "infinite",
            "removeLiquidity(uint256,address)": "infinite",
            "setFeeOn(bool)": "26831",
            "setFeeTo(address)": "26843",
            "singleCloseLimitRate()": "295",
            "singleOpenLimitRate()": "316",
            "slideP()": "273",
            "sumFee()": "2430",
            "symbol()": "infinite",
            "token0()": "infinite",
            "token0Decimal()": "infinite",
            "totalPool()": "2405",
            "totalSupply()": "2408",
            "traders(address)": "13291",
            "transfer(address,uint256)": "51207",
            "transferFeeToSetter(address)": "26778",
            "transferFrom(address,address,uint256)": "infinite",
            "withdrawFee()": "infinite",
            "withdrawMargin(uint256)": "infinite"
        },
        "internal": {
            "feeCharge(uint256)": "51151",
            "feeCharge(uint256,int256)": "infinite",
            "getAccountNet(struct HedgexSingle.Trader memory)": "infinite",
            "getAccountNet(struct HedgexSingle.Trader memory,uint256)": "infinite",
            "getPoolNet(uint256)": "infinite",
            "judegOpen(uint256,uint256)": "infinite",
            "poolLimitTrade(int8,uint256)": "infinite",
            "slideTradePrice(uint256,int256)": "infinite"
        }
    }
}