{
    "contractName": "HedgexSingle",
    "abi": [
        {
            "inputs": [
                {
                    "internalType": "address",
                    "name": "_token0",
                    "type": "address"
                },
                {
                    "internalType": "address",
                    "name": "_feedPrice",
                    "type": "address"
                },
                {
                    "internalType": "uint256",
                    "name": "_feedPriceDecimal",
                    "type": "uint256"
                },
                {
                    "internalType": "uint256",
                    "name": "_minStartPool",
                    "type": "uint256"
                },
                {
                    "internalType": "uint8",
                    "name": "_leverage",
                    "type": "uint8"
                },
                {
                    "internalType": "int8",
                    "name": "_amountDecimal",
                    "type": "int8"
                }
            ],
            "stateMutability": "nonpayable",
            "type": "constructor"
        },
        {
            "anonymous": false,
            "inputs": [
                {
                    "indexed": true,
                    "internalType": "address",
                    "name": "owner",
                    "type": "address"
                },
                {
                    "indexed": true,
                    "internalType": "address",
                    "name": "spender",
                    "type": "address"
                },
                {
                    "indexed": false,
                    "internalType": "uint256",
                    "name": "value",
                    "type": "uint256"
                }
            ],
            "name": "Approval",
            "type": "event"
        },
        {
            "anonymous": false,
            "inputs": [
                {
                    "indexed": true,
                    "internalType": "address",
                    "name": "sender",
                    "type": "address"
                },
                {
                    "indexed": false,
                    "internalType": "uint256",
                    "name": "amount",
                    "type": "uint256"
                }
            ],
            "name": "Burn",
            "type": "event"
        },
        {
            "anonymous": false,
            "inputs": [
                {
                    "indexed": true,
                    "internalType": "address",
                    "name": "user",
                    "type": "address"
                },
                {
                    "indexed": false,
                    "internalType": "int8",
                    "name": "direction",
                    "type": "int8"
                },
                {
                    "indexed": false,
                    "internalType": "uint256",
                    "name": "amount",
                    "type": "uint256"
                },
                {
                    "indexed": false,
                    "internalType": "uint256",
                    "name": "price",
                    "type": "uint256"
                }
            ],
            "name": "Explosive",
            "type": "event"
        },
        {
            "anonymous": false,
            "inputs": [
                {
                    "indexed": true,
                    "internalType": "address",
                    "name": "account",
                    "type": "address"
                },
                {
                    "indexed": false,
                    "internalType": "uint256",
                    "name": "long",
                    "type": "uint256"
                },
                {
                    "indexed": false,
                    "internalType": "uint256",
                    "name": "short",
                    "type": "uint256"
                },
                {
                    "indexed": false,
                    "internalType": "uint256",
                    "name": "price",
                    "type": "uint256"
                }
            ],
            "name": "ForceClose",
            "type": "event"
        },
        {
            "anonymous": false,
            "inputs": [
                {
                    "indexed": true,
                    "internalType": "address",
                    "name": "sender",
                    "type": "address"
                },
                {
                    "indexed": false,
                    "internalType": "uint256",
                    "name": "amount",
                    "type": "uint256"
                }
            ],
            "name": "Mint",
            "type": "event"
        },
        {
            "anonymous": false,
            "inputs": [
                {
                    "indexed": true,
                    "internalType": "address",
                    "name": "sender",
                    "type": "address"
                },
                {
                    "indexed": false,
                    "internalType": "uint256",
                    "name": "amount",
                    "type": "uint256"
                }
            ],
            "name": "Recharge",
            "type": "event"
        },
        {
            "anonymous": false,
            "inputs": [
                {
                    "indexed": true,
                    "internalType": "address",
                    "name": "user",
                    "type": "address"
                },
                {
                    "indexed": false,
                    "internalType": "int8",
                    "name": "direction",
                    "type": "int8"
                },
                {
                    "indexed": false,
                    "internalType": "uint256",
                    "name": "amount",
                    "type": "uint256"
                },
                {
                    "indexed": false,
                    "internalType": "uint256",
                    "name": "price",
                    "type": "uint256"
                }
            ],
            "name": "TakeInterest",
            "type": "event"
        },
        {
            "anonymous": false,
            "inputs": [
                {
                    "indexed": true,
                    "internalType": "address",
                    "name": "sender",
                    "type": "address"
                },
                {
                    "indexed": false,
                    "internalType": "int8",
                    "name": "direction",
                    "type": "int8"
                },
                {
                    "indexed": false,
                    "internalType": "uint256",
                    "name": "amount",
                    "type": "uint256"
                },
                {
                    "indexed": false,
                    "internalType": "uint256",
                    "name": "price",
                    "type": "uint256"
                }
            ],
            "name": "Trade",
            "type": "event"
        },
        {
            "anonymous": false,
            "inputs": [
                {
                    "indexed": true,
                    "internalType": "address",
                    "name": "from",
                    "type": "address"
                },
                {
                    "indexed": true,
                    "internalType": "address",
                    "name": "to",
                    "type": "address"
                },
                {
                    "indexed": false,
                    "internalType": "uint256",
                    "name": "value",
                    "type": "uint256"
                }
            ],
            "name": "Transfer",
            "type": "event"
        },
        {
            "anonymous": false,
            "inputs": [
                {
                    "indexed": true,
                    "internalType": "address",
                    "name": "sender",
                    "type": "address"
                },
                {
                    "indexed": false,
                    "internalType": "uint256",
                    "name": "amount",
                    "type": "uint256"
                }
            ],
            "name": "Withdraw",
            "type": "event"
        },
        {
            "inputs": [],
            "name": "DOMAIN_SEPARATOR",
            "outputs": [
                {
                    "internalType": "bytes32",
                    "name": "",
                    "type": "bytes32"
                }
            ],
            "stateMutability": "view",
            "type": "function"
        },
        {
            "inputs": [],
            "name": "PERMIT_TYPEHASH",
            "outputs": [
                {
                    "internalType": "bytes32",
                    "name": "",
                    "type": "bytes32"
                }
            ],
            "stateMutability": "view",
            "type": "function"
        },
        {
            "inputs": [
                {
                    "internalType": "uint256",
                    "name": "amount",
                    "type": "uint256"
                },
                {
                    "internalType": "address",
                    "name": "to",
                    "type": "address"
                }
            ],
            "name": "addLiquidity",
            "outputs": [],
            "stateMutability": "nonpayable",
            "type": "function"
        },
        {
            "inputs": [
                {
                    "internalType": "address",
                    "name": "",
                    "type": "address"
                },
                {
                    "internalType": "address",
                    "name": "",
                    "type": "address"
                }
            ],
            "name": "allowance",
            "outputs": [
                {
                    "internalType": "uint256",
                    "name": "",
                    "type": "uint256"
                }
            ],
            "stateMutability": "view",
            "type": "function"
        },
        {
            "inputs": [],
            "name": "amountDecimal",
            "outputs": [
                {
                    "internalType": "int8",
                    "name": "",
                    "type": "int8"
                }
            ],
            "stateMutability": "view",
            "type": "function"
        },
        {
            "inputs": [
                {
                    "internalType": "address",
                    "name": "spender",
                    "type": "address"
                },
                {
                    "internalType": "uint256",
                    "name": "value",
                    "type": "uint256"
                }
            ],
            "name": "approve",
            "outputs": [
                {
                    "internalType": "bool",
                    "name": "",
                    "type": "bool"
                }
            ],
            "stateMutability": "nonpayable",
            "type": "function"
        },
        {
            "inputs": [
                {
                    "internalType": "address",
                    "name": "",
                    "type": "address"
                }
            ],
            "name": "balanceOf",
            "outputs": [
                {
                    "internalType": "uint256",
                    "name": "",
                    "type": "uint256"
                }
            ],
            "stateMutability": "view",
            "type": "function"
        },
        {
            "inputs": [
                {
                    "internalType": "uint256",
                    "name": "priceExp",
                    "type": "uint256"
                },
                {
                    "internalType": "uint256",
                    "name": "amount",
                    "type": "uint256"
                },
                {
                    "internalType": "uint256",
                    "name": "deadline",
                    "type": "uint256"
                }
            ],
            "name": "closeLong",
            "outputs": [],
            "stateMutability": "nonpayable",
            "type": "function"
        },
        {
            "inputs": [
                {
                    "internalType": "uint256",
                    "name": "priceExp",
                    "type": "uint256"
                },
                {
                    "internalType": "uint256",
                    "name": "amount",
                    "type": "uint256"
                },
                {
                    "internalType": "uint256",
                    "name": "deadline",
                    "type": "uint256"
                }
            ],
            "name": "closeShort",
            "outputs": [],
            "stateMutability": "nonpayable",
            "type": "function"
        },
        {
            "inputs": [],
            "name": "dailyInterestRateBase",
            "outputs": [
                {
                    "internalType": "uint16",
                    "name": "",
                    "type": "uint16"
                }
            ],
            "stateMutability": "view",
            "type": "function"
        },
        {
            "inputs": [],
            "name": "decimals",
            "outputs": [
                {
                    "internalType": "uint8",
                    "name": "",
                    "type": "uint8"
                }
            ],
            "stateMutability": "view",
            "type": "function"
        },
        {
            "inputs": [
                {
                    "internalType": "address",
                    "name": "account",
                    "type": "address"
                }
            ],
            "name": "detectSlide",
            "outputs": [],
            "stateMutability": "nonpayable",
            "type": "function"
        },
        {
            "inputs": [],
            "name": "divConst",
            "outputs": [
                {
                    "internalType": "uint24",
                    "name": "",
                    "type": "uint24"
                }
            ],
            "stateMutability": "view",
            "type": "function"
        },
        {
            "inputs": [
                {
                    "internalType": "address",
                    "name": "account",
                    "type": "address"
                }
            ],
            "name": "explosive",
            "outputs": [],
            "stateMutability": "nonpayable",
            "type": "function"
        },
        {
            "inputs": [],
            "name": "explosivePool",
            "outputs": [],
            "stateMutability": "nonpayable",
            "type": "function"
        },
        {
            "inputs": [],
            "name": "feeDivide",
            "outputs": [
                {
                    "internalType": "uint24",
                    "name": "",
                    "type": "uint24"
                }
            ],
            "stateMutability": "view",
            "type": "function"
        },
        {
            "inputs": [],
            "name": "feeOn",
            "outputs": [
                {
                    "internalType": "bool",
                    "name": "",
                    "type": "bool"
                }
            ],
            "stateMutability": "view",
            "type": "function"
        },
        {
            "inputs": [],
            "name": "feeRate",
            "outputs": [
                {
                    "internalType": "uint16",
                    "name": "",
                    "type": "uint16"
                }
            ],
            "stateMutability": "view",
            "type": "function"
        },
        {
            "inputs": [],
            "name": "feedPrice",
            "outputs": [
                {
                    "internalType": "contract AggregatorV3Interface",
                    "name": "",
                    "type": "address"
                }
            ],
            "stateMutability": "view",
            "type": "function"
        },
        {
            "inputs": [],
            "name": "feedPriceDecimal",
            "outputs": [
                {
                    "internalType": "uint256",
                    "name": "",
                    "type": "uint256"
                }
            ],
            "stateMutability": "view",
            "type": "function"
        },
        {
            "inputs": [],
            "name": "foceCloseRewardGas",
            "outputs": [
                {
                    "internalType": "uint256",
                    "name": "",
                    "type": "uint256"
                }
            ],
            "stateMutability": "view",
            "type": "function"
        },
        {
            "inputs": [
                {
                    "internalType": "address",
                    "name": "account",
                    "type": "address"
                }
            ],
            "name": "forceCloseAccount",
            "outputs": [],
            "stateMutability": "nonpayable",
            "type": "function"
        },
        {
            "inputs": [],
            "name": "gasUsdPriceFeed",
            "outputs": [
                {
                    "internalType": "address",
                    "name": "",
                    "type": "address"
                }
            ],
            "stateMutability": "view",
            "type": "function"
        },
        {
            "inputs": [],
            "name": "getGasUsdPrice",
            "outputs": [
                {
                    "internalType": "uint256",
                    "name": "",
                    "type": "uint256"
                }
            ],
            "stateMutability": "view",
            "type": "function"
        },
        {
            "inputs": [],
            "name": "getLatestPrice",
            "outputs": [
                {
                    "internalType": "uint256",
                    "name": "",
                    "type": "uint256"
                }
            ],
            "stateMutability": "view",
            "type": "function"
        },
        {
            "inputs": [],
            "name": "getPoolNet",
            "outputs": [
                {
                    "internalType": "int256",
                    "name": "",
                    "type": "int256"
                }
            ],
            "stateMutability": "view",
            "type": "function"
        },
        {
            "inputs": [
                {
                    "internalType": "address",
                    "name": "_token0",
                    "type": "address"
                },
                {
                    "internalType": "address",
                    "name": "_feedPrice",
                    "type": "address"
                },
                {
                    "internalType": "uint256",
                    "name": "_feedPriceDecimal",
                    "type": "uint256"
                },
                {
                    "internalType": "uint256",
                    "name": "_minStartPool",
                    "type": "uint256"
                },
                {
                    "internalType": "uint8",
                    "name": "_leverage",
                    "type": "uint8"
                },
                {
                    "internalType": "int8",
                    "name": "_amountDecimal",
                    "type": "int8"
                }
            ],
            "name": "initialize",
            "outputs": [],
            "stateMutability": "nonpayable",
            "type": "function"
        },
        {
            "inputs": [],
            "name": "interestRewardRate",
            "outputs": [
                {
                    "internalType": "uint24",
                    "name": "",
                    "type": "uint24"
                }
            ],
            "stateMutability": "view",
            "type": "function"
        },
        {
            "inputs": [],
            "name": "isStart",
            "outputs": [
                {
                    "internalType": "bool",
                    "name": "",
                    "type": "bool"
                }
            ],
            "stateMutability": "view",
            "type": "function"
        },
        {
            "inputs": [],
            "name": "leverage",
            "outputs": [
                {
                    "internalType": "uint8",
                    "name": "",
                    "type": "uint8"
                }
            ],
            "stateMutability": "view",
            "type": "function"
        },
        {
            "inputs": [],
            "name": "minPool",
            "outputs": [
                {
                    "internalType": "uint256",
                    "name": "",
                    "type": "uint256"
                }
            ],
            "stateMutability": "view",
            "type": "function"
        },
        {
            "inputs": [],
            "name": "name",
            "outputs": [
                {
                    "internalType": "string",
                    "name": "",
                    "type": "string"
                }
            ],
            "stateMutability": "view",
            "type": "function"
        },
        {
            "inputs": [
                {
                    "internalType": "address",
                    "name": "",
                    "type": "address"
                }
            ],
            "name": "nonces",
            "outputs": [
                {
                    "internalType": "uint256",
                    "name": "",
                    "type": "uint256"
                }
            ],
            "stateMutability": "view",
            "type": "function"
        },
        {
            "inputs": [
                {
                    "internalType": "uint256",
                    "name": "priceExp",
                    "type": "uint256"
                },
                {
                    "internalType": "uint256",
                    "name": "amount",
                    "type": "uint256"
                },
                {
                    "internalType": "uint256",
                    "name": "deadline",
                    "type": "uint256"
                }
            ],
            "name": "openLong",
            "outputs": [],
            "stateMutability": "nonpayable",
            "type": "function"
        },
        {
            "inputs": [
                {
                    "internalType": "uint256",
                    "name": "priceExp",
                    "type": "uint256"
                },
                {
                    "internalType": "uint256",
                    "name": "amount",
                    "type": "uint256"
                },
                {
                    "internalType": "uint256",
                    "name": "deadline",
                    "type": "uint256"
                }
            ],
            "name": "openShort",
            "outputs": [],
            "stateMutability": "nonpayable",
            "type": "function"
        },
        {
            "inputs": [
                {
                    "internalType": "address",
                    "name": "owner",
                    "type": "address"
                },
                {
                    "internalType": "address",
                    "name": "spender",
                    "type": "address"
                },
                {
                    "internalType": "uint256",
                    "name": "value",
                    "type": "uint256"
                },
                {
                    "internalType": "uint256",
                    "name": "deadline",
                    "type": "uint256"
                },
                {
                    "internalType": "uint8",
                    "name": "v",
                    "type": "uint8"
                },
                {
                    "internalType": "bytes32",
                    "name": "r",
                    "type": "bytes32"
                },
                {
                    "internalType": "bytes32",
                    "name": "s",
                    "type": "bytes32"
                }
            ],
            "name": "permit",
            "outputs": [],
            "stateMutability": "nonpayable",
            "type": "function"
        },
        {
            "inputs": [],
            "name": "poolExplosivePrice",
            "outputs": [
                {
                    "internalType": "uint256",
                    "name": "",
                    "type": "uint256"
                }
            ],
            "stateMutability": "view",
            "type": "function"
        },
        {
            "inputs": [],
            "name": "poolLeftAmountRate",
            "outputs": [
                {
                    "internalType": "uint24",
                    "name": "",
                    "type": "uint24"
                }
            ],
            "stateMutability": "view",
            "type": "function"
        },
        {
            "inputs": [],
            "name": "poolLongAmount",
            "outputs": [
                {
                    "internalType": "uint256",
                    "name": "",
                    "type": "uint256"
                }
            ],
            "stateMutability": "view",
            "type": "function"
        },
        {
            "inputs": [],
            "name": "poolLongPrice",
            "outputs": [
                {
                    "internalType": "uint256",
                    "name": "",
                    "type": "uint256"
                }
            ],
            "stateMutability": "view",
            "type": "function"
        },
        {
            "inputs": [],
            "name": "poolNetAmountRateLimitOpen",
            "outputs": [
                {
                    "internalType": "int24",
                    "name": "",
                    "type": "int24"
                }
            ],
            "stateMutability": "view",
            "type": "function"
        },
        {
            "inputs": [],
            "name": "poolNetAmountRateLimitPrice",
            "outputs": [
                {
                    "internalType": "int24",
                    "name": "",
                    "type": "int24"
                }
            ],
            "stateMutability": "view",
            "type": "function"
        },
        {
            "inputs": [],
            "name": "poolShortAmount",
            "outputs": [
                {
                    "internalType": "uint256",
                    "name": "",
                    "type": "uint256"
                }
            ],
            "stateMutability": "view",
            "type": "function"
        },
        {
            "inputs": [],
            "name": "poolShortPrice",
            "outputs": [
                {
                    "internalType": "uint256",
                    "name": "",
                    "type": "uint256"
                }
            ],
            "stateMutability": "view",
            "type": "function"
        },
        {
            "inputs": [],
            "name": "poolState",
            "outputs": [
                {
                    "internalType": "uint8",
                    "name": "",
                    "type": "uint8"
                }
            ],
            "stateMutability": "view",
            "type": "function"
        },
        {
            "inputs": [
                {
                    "internalType": "uint256",
                    "name": "amount",
                    "type": "uint256"
                }
            ],
            "name": "rechargeMargin",
            "outputs": [],
            "stateMutability": "nonpayable",
            "type": "function"
        },
        {
            "inputs": [
                {
                    "internalType": "uint256",
                    "name": "liquidity",
                    "type": "uint256"
                },
                {
                    "internalType": "address",
                    "name": "to",
                    "type": "address"
                }
            ],
            "name": "removeLiquidity",
            "outputs": [],
            "stateMutability": "nonpayable",
            "type": "function"
        },
        {
            "inputs": [],
            "name": "singleTradeLimitRate",
            "outputs": [
                {
                    "internalType": "uint16",
                    "name": "",
                    "type": "uint16"
                }
            ],
            "stateMutability": "view",
            "type": "function"
        },
        {
            "inputs": [],
            "name": "slideP",
            "outputs": [
                {
                    "internalType": "uint8",
                    "name": "",
                    "type": "uint8"
                }
            ],
            "stateMutability": "view",
            "type": "function"
        },
        {
            "inputs": [],
            "name": "sumFee",
            "outputs": [
                {
                    "internalType": "uint256",
                    "name": "",
                    "type": "uint256"
                }
            ],
            "stateMutability": "view",
            "type": "function"
        },
        {
            "inputs": [],
            "name": "symbol",
            "outputs": [
                {
                    "internalType": "string",
                    "name": "",
                    "type": "string"
                }
            ],
            "stateMutability": "view",
            "type": "function"
        },
        {
            "inputs": [],
            "name": "token0",
            "outputs": [
                {
                    "internalType": "address",
                    "name": "",
                    "type": "address"
                }
            ],
            "stateMutability": "view",
            "type": "function"
        },
        {
            "inputs": [],
            "name": "token0Decimal",
            "outputs": [
                {
                    "internalType": "uint256",
                    "name": "",
                    "type": "uint256"
                }
            ],
            "stateMutability": "view",
            "type": "function"
        },
        {
            "inputs": [],
            "name": "totalPool",
            "outputs": [
                {
                    "internalType": "int256",
                    "name": "",
                    "type": "int256"
                }
            ],
            "stateMutability": "view",
            "type": "function"
        },
        {
            "inputs": [],
            "name": "totalSupply",
            "outputs": [
                {
                    "internalType": "uint256",
                    "name": "",
                    "type": "uint256"
                }
            ],
            "stateMutability": "view",
            "type": "function"
        },
        {
            "inputs": [
                {
                    "internalType": "address",
                    "name": "",
                    "type": "address"
                }
            ],
            "name": "traders",
            "outputs": [
                {
                    "internalType": "int256",
                    "name": "margin",
                    "type": "int256"
                },
                {
                    "internalType": "uint256",
                    "name": "longAmount",
                    "type": "uint256"
                },
                {
                    "internalType": "uint256",
                    "name": "longPrice",
                    "type": "uint256"
                },
                {
                    "internalType": "uint256",
                    "name": "shortAmount",
                    "type": "uint256"
                },
                {
                    "internalType": "uint256",
                    "name": "shortPrice",
                    "type": "uint256"
                },
                {
                    "internalType": "uint32",
                    "name": "interestDay",
                    "type": "uint32"
                }
            ],
            "stateMutability": "view",
            "type": "function"
        },
        {
            "inputs": [
                {
                    "internalType": "address",
                    "name": "to",
                    "type": "address"
                },
                {
                    "internalType": "uint256",
                    "name": "value",
                    "type": "uint256"
                }
            ],
            "name": "transfer",
            "outputs": [
                {
                    "internalType": "bool",
                    "name": "",
                    "type": "bool"
                }
            ],
            "stateMutability": "nonpayable",
            "type": "function"
        },
        {
            "inputs": [
                {
                    "internalType": "address",
                    "name": "from",
                    "type": "address"
                },
                {
                    "internalType": "address",
                    "name": "to",
                    "type": "address"
                },
                {
                    "internalType": "uint256",
                    "name": "value",
                    "type": "uint256"
                }
            ],
            "name": "transferFrom",
            "outputs": [
                {
                    "internalType": "bool",
                    "name": "",
                    "type": "bool"
                }
            ],
            "stateMutability": "nonpayable",
            "type": "function"
        },
        {
            "inputs": [
                {
                    "internalType": "uint256",
                    "name": "amount",
                    "type": "uint256"
                }
            ],
            "name": "withdrawMargin",
            "outputs": [],
            "stateMutability": "nonpayable",
            "type": "function"
        }
    ],
    "bytecode": "6101c06040526001600655732514895c72f50d8bd4b4f9b1110f0d6bd2c975266101a0523480156200003057600080fd5b50604051620044c9380380620044c9833981016040819052620000539162000286565b856001600160a01b031663313ce5676040518163ffffffff1660e01b8152600401602060405180830381865afa15801562000092573d6000803e3d6000fd5b505050506040513d601f19601f82011682018060405250810190620000b89190620002fe565b604080518082018252600c81526b48656467657853696e676c6560a01b6020918201528151808301835260018152603160f81b9082015281517f8b73c3c69bb8fe3d512ecc4cf759cc79239f7b179b0ffacaa9a75d522b39400f918101919091527fdbb8f54117374490c454ab41b80d95cf4a0c3b286124d9b83e346d854dc3efcd918101919091527fc89efdaa54c0f20c7adf612882df0950f5a951637e0307cdcb4c672f298b8bc660608201524660808201523060a082015260c00160408051601f19818403018152828252805160209182012060a05260ff9093166080526004805460ff191660011781556001600160a01b03808a16610160528a1661010081905263313ce56760e01b84529151919363313ce56793828101939192908290030181865afa158015620001f2573d6000803e3d6000fd5b505050506040513d601f19601f82011682018060405250810190620002189190620002fe565b6200022590600a62000438565b610120526101809390935260c09190915260ff1660e0526007805461ffff1916905560000b6101405250620004499050565b80516001600160a01b03811681146200026f57600080fd5b919050565b805160ff811681146200026f57600080fd5b60008060008060008060c08789031215620002a057600080fd5b620002ab8762000257565b9550620002bb6020880162000257565b94506040870151935060608701519250620002d96080880162000274565b915060a08701518060000b8114620002f057600080fd5b809150509295509295509295565b6000602082840312156200031157600080fd5b6200031c8262000274565b9392505050565b634e487b7160e01b600052601160045260246000fd5b600181815b808511156200037a5781600019048211156200035e576200035e62000323565b808516156200036c57918102915b93841c93908002906200033e565b509250929050565b600082620003935750600162000432565b81620003a25750600062000432565b8160018114620003bb5760028114620003c657620003e6565b600191505062000432565b60ff841115620003da57620003da62000323565b50506001821b62000432565b5060208310610133831016604e8410600b84101617156200040b575081810a62000432565b62000417838362000339565b80600019048211156200042e576200042e62000323565b0290505b92915050565b60006200031c60ff84168362000382565b60805160a05160c05160e05161010051610120516101405161016051610180516101a051613f6a6200055f600039600081816106a901526120d901526000818161041301528181611fbd015261204d0152600081816108910152611ea901526000818161056b01528181611f9401528181611fe1015261207101526000818161086a0152818161200c015281816120a501526126b101526000818161047e01528181610b2c01528181610d9701528181610e000152818161125c01528181612719015281816127e20152612cea0152600081816105bf01528181610c31015281816133d00152613439015260008181610544015261285b01526000818161063d01526129270152600061060d0152613f6a6000f3fe608060405234801561001057600080fd5b50600436106103995760003560e01c806370a08231116101e9578063971059fb1161010f578063cd8bb6cd116100ad578063dd62ed3e1161007c578063dd62ed3e14610909578063e598431914610934578063ecfb49a31461093d578063fc1e2c451461094657600080fd5b8063cd8bb6cd146108d9578063ce8ad1d2146108e3578063d375454f146108ec578063d505accf146108f657600080fd5b80639ddc230a116100e95780639ddc230a14610865578063a04eecae1461088c578063a9059cbb146108b3578063c95f9d0e146108c657600080fd5b8063971059fb1461084a578063978bbdb914610853578063994af3ae1461085c57600080fd5b80638a55d36e1161018757806390edbeb01161015657806390edbeb01461078557806392a88fa21461079857806393f8d8121461081457806395d89b411461082757600080fd5b80638a55d36e1461075f5780638e15f4731461076c5780638e406892146107745780638ed3896c1461077d57600080fd5b80637e4856c4116101c35780637e4856c4146107195780637ecebe0014610723578063807ca353146107435780638967b6941461075657600080fd5b806370a08231146106de57806371b31707146106fe5780637bb71a971461071157600080fd5b80632678b8fd116102ce5780633644e5151161026c5780634f335d0a1161023b5780634f335d0a14610685578063641ad8a9146106975780636afb3760146106a45780636c2ee359146106cb57600080fd5b80633644e515146106385780633d07bfb71461065f5780633d5f8e7a146106725780633e31fb451461067d57600080fd5b80632c86d98e116102a85780632c86d98e146105ba57806330adf81f146105e1578063313ce5671461060857806333d6f1f71461062f57600080fd5b80632678b8fd1461053f5780632be90282146105665780632c204fa8146105a057600080fd5b806311ce83f81161033b578063190b065f11610315578063190b065f146104f05780631cce9103146104f957806323b872dd14610516578063251c073a1461052957600080fd5b806311ce83f8146104b857806318160ddd146104cb5780631865071d146104d457600080fd5b806308c73e741161037757806308c73e741461040e578063095ea7b3146104435780630cea7534146104665780630dfe16811461047957600080fd5b806301bcc9081461039e57806305fe138b146103c157806306fdde03146103d6575b600080fd5b6103a8620186a081565b60405162ffffff90911681526020015b60405180910390f35b6103d46103cf36600461375f565b610959565b005b6104016040518060400160405280600c81526020016b48656467657853696e676c6560a01b81525081565b6040516103b891906137bb565b6104357f000000000000000000000000000000000000000000000000000000000000000081565b6040519081526020016103b8565b6104566104513660046137ee565b610b8d565b60405190151581526020016103b8565b6103d4610474366004613818565b610ba4565b6104a07f000000000000000000000000000000000000000000000000000000000000000081565b6040516001600160a01b0390911681526020016103b8565b6103d46104c6366004613818565b610dfb565b61043560005481565b6104dd61753081565b60405161ffff90911681526020016103b8565b61043560085481565b61050362030d4081565b60405160029190910b81526020016103b8565b610456610524366004613831565b610e83565b6103d461053736600461387e565b505050505050565b6104357f000000000000000000000000000000000000000000000000000000000000000081565b61058d7f000000000000000000000000000000000000000000000000000000000000000081565b60405160009190910b81526020016103b8565b6105a8603281565b60405160ff90911681526020016103b8565b6105a87f000000000000000000000000000000000000000000000000000000000000000081565b6104357f6e71edae12b1b97f4d1f60370fef10105fa2faae0126114a169c64845d6126c981565b6105a87f000000000000000000000000000000000000000000000000000000000000000081565b61043560055481565b6104357f000000000000000000000000000000000000000000000000000000000000000081565b6103d461066d3660046138ee565b610efd565b610435633b9aca0081565b6103d46112e2565b60075461045690610100900460ff1681565b6004546105a89060ff1681565b6104a07f000000000000000000000000000000000000000000000000000000000000000081565b6103d46106d9366004613909565b611547565b6104356106ec3660046138ee565b60016020526000908152604090205481565b6103d461070c366004613909565b611840565b610435611b18565b6103a8620f424081565b6104356107313660046138ee565b60036020526000908152604090205481565b6103d4610751366004613909565b611bd7565b6104dd6103e881565b6007546104569060ff1681565b610435611ea4565b610435600b5481565b6104356120d4565b6103d4610793366004613909565b612164565b6107e16107a63660046138ee565b600e60205260009081526040902080546001820154600283015460038401546004850154600590950154939492939192909163ffffffff1686565b604080519687526020870195909552938501929092526060840152608083015263ffffffff1660a082015260c0016103b8565b6103d46108223660046138ee565b612412565b610401604051806040016040528060048152602001634845585360e01b81525081565b610435600d5481565b6104dd61025881565b610435600c5481565b6104357f000000000000000000000000000000000000000000000000000000000000000081565b6104a07f000000000000000000000000000000000000000000000000000000000000000081565b6104566108c13660046137ee565b6127ab565b6103d46108d436600461375f565b6127b8565b610503620493e081565b6103a861c35081565b6103a86203d09081565b6103d4610904366004613935565b6128c9565b61043561091736600461399f565b600260209081526000928352604080842090915290825290205481565b610435600a5481565b61043560095481565b6103d46109543660046138ee565b612af5565b60045460ff166001146109875760405162461bcd60e51b815260040161097e906139c9565b60405180910390fd5b600754829060ff1615610b0557600061099e611ea4565b905060006109ab82612d9e565b90506000600b54600a54116109cf57600a54600b546109ca9190613a07565b6109df565b600b54600a546109df9190613a07565b905060006003600b54600a546109f59190613a1e565b6109ff9190613a4c565b905080821015610a0d578091505b6000620493e0620f4240610a218786613a60565b610a2b9190613a60565b610a359190613a4c565b9050808413610a865760405162461bcd60e51b815260206004820152601760248201527f6e6574206d757374203e20757365644d617267696e2f52000000000000000000604482015260640161097e565b6000610a928286613a07565b600054909150610aa28a87613a60565b610aac9190613a4c565b965080871115610afe5760405162461bcd60e51b815260206004820152601860248201527f776974686472617720616d6f756e7420746f6f206d616e790000000000000000604482015260640161097e565b5050505050505b8060096000828254610b179190613a7f565b90915550610b2790503384612de7565b610b527f00000000000000000000000000000000000000000000000000000000000000008383612e72565b60405183815233907fcc16f5dbb4873280815c1ee09dbd06736cffcc184412cf7a71a0fdb75d397ca5906020015b60405180910390a2505050565b6000610b9a338484612f8d565b5060015b92915050565b60045460ff16600114610bc95760405162461bcd60e51b815260040161097e906139c9565b336000908152600e60209081526040808320815160c0810183528154815260018201549381019390935260028101549183019190915260038101546060830152600481015460808301526005015463ffffffff1660a082015290610c2b611ea4565b905060007f000000000000000000000000000000000000000000000000000000000000000060ff1683608001518460600151610c679190613a60565b84604001518560200151610c7b9190613a60565b610c859190613a1e565b610c8f9190613a4c565b90506000828460600151610ca39190613a60565b84604001518560200151610cb79190613a60565b610cc19190613a1e565b84608001518560600151610cd59190613a60565b848660200151610ce59190613a60565b610cef9190613a1e565b8551610cfb9190613abe565b610d059190613a7f565b90506000610d138383613a7f565b905060008113610d655760405162461bcd60e51b815260206004820152601860248201527f63616e207769746864726177206973206e656761746976650000000000000000604482015260640161097e565b8581811315610d715750805b8551610d7e908290613a7f565b336000818152600e6020526040902091909155610dbd907f00000000000000000000000000000000000000000000000000000000000000009083612e72565b60405181815233907f884edad9ce6fa2440d8a54cc123490eb96d2768479d49ff9c7366125a94243649060200160405180910390a250505050505050565b610e277f0000000000000000000000000000000000000000000000000000000000000000333084612fef565b336000908152600e602052604081208054839290610e46908490613abe565b909155505060405181815233907f78d9de6f3ad1cae9e0cbcbaa5267fd90f6a6728831eec42b7c147b398b2269249060200160405180910390a250565b6001600160a01b038316600090815260026020908152604080832033845290915281205460001914610ee8576001600160a01b038416600090815260026020908152604080832033845290915281208054849290610ee2908490613a07565b90915550505b610ef3848484613117565b5060019392505050565b600654600114610f1f5760405162461bcd60e51b815260040161097e90613aff565b600060065560045460ff16600114610f495760405162461bcd60e51b815260040161097e906139c9565b6000610f586201518042613a4c565b905061012c610f6a8262015180613b26565b610f7a9063ffffffff1642613a07565b1115610fc85760405162461bcd60e51b815260206004820152601e60248201527f6e6f74207468652074696d6520666f722074616b6520696e7465726573740000604482015260640161097e565b6001600160a01b0382166000908152600e60205260409020600581015463ffffffff908116908316116110365760405162461bcd60e51b81526020600482015260166024820152751a185cc81899595b881d185ad9481a5b9d195c995cdd60521b604482015260640161097e565b80600301548160010154141561108e5760405162461bcd60e51b815260206004820152601d60248201527f6e656564206c6f6e6720616e642073686f7274206e6f7420657175616c000000604482015260640161097e565b6000611098611ea4565b90506000600b5490506000600a54905060008060019050856003015486600101541115611152578284116111015760405162461bcd60e51b815260206004820152601060248201526f1a185d99481b9bc81a5b9d195c995cdd60821b604482015260640161097e565b83620f42406111108583613a07565b60018901546103e890611123908a613a60565b61112d9190613a60565b6111379190613a60565b6111419190613a4c565b61114b9190613a4c565b91506111e5565b8383116111945760405162461bcd60e51b815260206004820152601060248201526f1a185d99481b9bc81a5b9d195c995cdd60821b604482015260640161097e565b5060001982620f42406111a78683613a07565b60038901546103e8906111ba908a613a60565b6111c49190613a60565b6111ce9190613a60565b6111d89190613a4c565b6111e29190613a4c565b91505b6000620f42406111f8620186a085613a60565b6112029190613a4c565b60058801805463ffffffff191663ffffffff8b16179055875490915083908890600090611230908490613a7f565b9091555061124090508184613a7f565b600960008282546112519190613abe565b9091555061128290507f00000000000000000000000000000000000000000000000000000000000000003383612e72565b60408051600084900b8152602081018590529081018790526001600160a01b038a16907f78213dfb97e98b601b3fee012a0f6bddbf4e63c293c77b5186137af1e7cf62ae9060600160405180910390a25050600160065550505050505050565b6006546001146113045760405162461bcd60e51b815260040161097e90613aff565b600060065560045460ff166001146113545760405162461bcd60e51b8152602060048201526013602482015272706f6f6c206973206578706c6f736976696e6760681b604482015260640161097e565b600061135e611ea4565b9050600061136b82612d9e565b90506000600b54600a54116113a657600583600a54600b5461138d9190613a07565b6113979190613a60565b6113a19190613a4c565b6113cd565b600583600b54600a546113b99190613a07565b6113c39190613a60565b6113cd9190613a4c565b90508082131561141f5760405162461bcd60e51b815260206004820152601960248201527f706f6f6c2063616e6e2774206265206578706c6f736976656400000000000000604482015260640161097e565b6004805460ff191660021781556000906114399083613a4c565b90508083121561152757806009541361148c5760405162461bcd60e51b81526020600482015260156024820152741d1bdd185b141bdbdb081b5d5cdd080f881b19599d605a1b604482015260640161097e565b6000600b54600a5411156114d657600b54600a546114aa9190613a07565b826009546114b89190613a7f565b6114c29190613a4c565b600c546114cf9190613a1e565b905061151a565b600a54600b54111561151a57600d54600a54600b546114f59190613a07565b836009546115039190613a7f565b61150d9190613a4c565b6115179190613a1e565b90505b6005556009819055611532565b600983905560058490555b50506000600d819055600c5550506001600655565b6006546001146115695760405162461bcd60e51b815260040161097e90613aff565b6000600655804281101561158f5760405162461bcd60e51b815260040161097e90613b52565b60045460ff166001146115b45760405162461bcd60e51b815260040161097e906139c9565b60075460ff166115fe5760405162461bcd60e51b815260206004820152601560248201527418dbdb9d1c9858dd081a5cc81b9bdd081cdd185c9d605a1b604482015260640161097e565b6000611608611ea4565b90506000611618600183876131b8565b9050620493e0811261163c5760405162461bcd60e51b815260040161097e90613b81565b60006116488383613288565b6116529084613a1e565b90508681111580611661575086155b6116ad5760405162461bcd60e51b815260206004820152601b60248201527f6f70656e206c6f6e6720707269636520697320746f6f20686967680000000000604482015260640161097e565b336000908152600e60209081526040808320815160c0810183528154815260018201549381019390935260028101549183019190915260038101546060830152600481015460808301526005015463ffffffff1660a0820152906117118389613a60565b90506000611720838784613355565b90508883602001516117329190613a1e565b336000908152600e6020908152604090912060010191909155830151611759908a90613a1e565b828460400151856020015161176e9190613a60565b6117789190613a1e565b6117829190613a4c565b336000908152600e602052604090206002015582516117a2908290613a7f565b336000908152600e6020526040902055600b546117bf8a82613a1e565b600b556117cc8a82613a1e565b83600d54836117db9190613a60565b6117e59190613a1e565b6117ef9190613a4c565b600d556117fb82613520565b6040805160018152602081018c90529081018690523390600080516020613f15833981519152906060015b60405180910390a250506001600655505050505050505050565b6006546001146118625760405162461bcd60e51b815260040161097e90613aff565b600060065580428110156118885760405162461bcd60e51b815260040161097e90613b52565b60045460ff166001146118ad5760405162461bcd60e51b815260040161097e906139c9565b60075460ff166118f75760405162461bcd60e51b815260206004820152601560248201527418dbdb9d1c9858dd081a5cc81b9bdd081cdd185c9d605a1b604482015260640161097e565b6000611901611ea4565b9050600061191260001983876131b8565b9050620493e081126119365760405162461bcd60e51b815260040161097e90613b81565b60006119428383613288565b61194c9084613a07565b90508681101561199e5760405162461bcd60e51b815260206004820152601b60248201527f6f70656e2073686f727420707269636520697320746f6f206c6f770000000000604482015260640161097e565b60006119aa8288613a60565b336000908152600e60209081526040808320815160c0810183528154815260018201549381019390935260028101549183019190915260038101546060830152600481015460808301526005015463ffffffff1660a0820152919250611a11828785613355565b9050888260600151611a239190613a1e565b336000908152600e60205260409020600301556060820151611a46908a90613a1e565b8383608001518460600151611a5b9190613a60565b611a659190613a1e565b611a6f9190613a4c565b336000908152600e60205260409020600401558151611a8f908290613a7f565b336000908152600e6020526040902055600a54611aac8a82613a1e565b600a55611ab98a82613a1e565b84600c5483611ac89190613a60565b611ad29190613a1e565b611adc9190613a4c565b600c55611ae882613520565b604080516000198152602081018c90529081018690523390600080516020613f1583398151915290606001611826565b600080611b23611ea4565b9050600081600b54611b359190613a60565b600c54600a54611b459190613a60565b611b4f9190613a1e565b600d54600b54611b5f9190613a60565b83600a54611b6d9190613a60565b611b779190613a1e565b600954611b849190613abe565b611b8e9190613a7f565b905060008113610b9e5760405162461bcd60e51b81526020600482015260146024820152733732ba103732b2b2103132903837b9b4ba34b7b760611b604482015260640161097e565b600654600114611bf95760405162461bcd60e51b815260040161097e90613aff565b60006006558042811015611c1f5760405162461bcd60e51b815260040161097e90613b52565b60045460ff16600114611c445760405162461bcd60e51b815260040161097e906139c9565b6000611c4e611ea4565b90506000611c5e600183876131b8565b90506000611c6c8383613288565b611c769084613a1e565b90508681111580611c85575086155b611cd15760405162461bcd60e51b815260206004820152601b60248201527f636c6f73652073686f7274207072696365206973206869676865720000000000604482015260640161097e565b336000908152600e6020908152604091829020825160c081018452815481526001820154928101929092526002810154928201929092526003820154606082018190526004830154608083015260059092015463ffffffff1660a082015290871115611d8b5760405162461bcd60e51b815260206004820152602360248201527f636c6f736520616d6f756e742072657175697265203e3d2073686f7274416d6f6044820152621d5b9d60ea1b606482015260840161097e565b6000620f4240610258611d9e858b613a60565b611da89190613a60565b611db29190613a4c565b90506000838360800151611dc69190613a7f565b611dd0908a613bc4565b9050888360600151611de29190613a07565b336000908152600e602052604090206003015582518290611e04908390613abe565b611e0e9190613a7f565b336000908152600e60205260409020556060830151891415611e3e57336000908152600e60205260408120600401555b88600a6000828254611e509190613a07565b90915550611e60905082826135a9565b6040805160028152602081018b90529081018590523390600080516020613f15833981519152906060015b60405180910390a2505060016006555050505050505050565b6000807f00000000000000000000000000000000000000000000000000000000000000006001600160a01b031663feaf968c6040518163ffffffff1660e01b815260040160a060405180830381865afa158015611f05573d6000803e3d6000fd5b505050506040513d601f19601f82011682018060405250810190611f299190613c63565b50505091505060008113611f905760405162461bcd60e51b815260206004820152602860248201527f7468652070616972207374616e64617264207072696365206d75737420626520604482015267706f73697469766560c01b606482015260840161097e565b60007f000000000000000000000000000000000000000000000000000000000000000060000b1261204b577f00000000000000000000000000000000000000000000000000000000000000006120077f0000000000000000000000000000000000000000000000000000000000000000600a613d97565b6120317f000000000000000000000000000000000000000000000000000000000000000084613a60565b61203b9190613a60565b6120459190613a4c565b91505090565b7f00000000000000000000000000000000000000000000000000000000000000006120957f0000000000000000000000000000000000000000000000000000000000000000613da6565b6120a090600a613d97565b6120ca7f000000000000000000000000000000000000000000000000000000000000000084613a60565b61203b9190613a4c565b6000807f00000000000000000000000000000000000000000000000000000000000000006001600160a01b031663feaf968c6040518163ffffffff1660e01b815260040160a060405180830381865afa158015612135573d6000803e3d6000fd5b505050506040513d601f19601f820116820180604052508101906121599190613c63565b509195945050505050565b6006546001146121865760405162461bcd60e51b815260040161097e90613aff565b600060065580428110156121ac5760405162461bcd60e51b815260040161097e90613b52565b60045460ff166001146121d15760405162461bcd60e51b815260040161097e906139c9565b60006121db611ea4565b905060006121ec60001983876131b8565b905060006121fa8383613288565b6122049084613a07565b9050868110156122565760405162461bcd60e51b815260206004820152601960248201527f636c6f7365206c6f6e67207072696365206973206c6f77657200000000000000604482015260640161097e565b336000908152600e6020908152604091829020825160c08101845281548152600182015492810183905260028201549381019390935260038101546060840152600481015460808401526005015463ffffffff1660a08301528711156123095760405162461bcd60e51b815260206004820152602260248201527f636c6f736520616d6f756e742072657175697265203e3d206c6f6e67416d6f756044820152611b9d60f21b606482015260840161097e565b6000620f424061025861231c858b613a60565b6123269190613a60565b6123309190613a4c565b905060008260400151846123449190613a7f565b61234e908a613bc4565b90508883602001516123609190613a07565b336000908152600e602052604090206001015582518290612382908390613abe565b61238c9190613a7f565b336000908152600e60209081526040909120919091558301518914156123c057336000908152600e60205260408120600201555b88600b60008282546123d29190613a07565b909155506123e2905082826135a9565b604080516001198152602081018b90529081018590523390600080516020613f1583398151915290606001611e8b565b6006546001146124345760405162461bcd60e51b815260040161097e90613aff565b600060065560045460ff166002146124835760405162461bcd60e51b81526020600482015260126024820152713837b7b629ba30ba329034b9903737ba101960711b604482015260640161097e565b6001600160a01b0381166000908152600e6020908152604091829020825160c08101845281548152600182015492810183905260028201549381019390935260038101546060840152600481015460808401526005015463ffffffff1660a08301521515806124f6575060008160600151115b61251c5760405162461bcd60e51b8152602060048201526000602482015260440161097e565b600061252a82600554613647565b90506000620f424062ffffff1661025861ffff1660055485606001516125509190613a60565b60055486602001516125629190613a60565b61256c9190613a1e565b6125769190613a60565b6125809190613a4c565b6020840151909150156125a9578260200151600b60008282546125a39190613a07565b90915550505b6060830151156125cf578260600151600a60008282546125c99190613a07565b90915550505b600a541580156125df5750600b54155b156125f2576004805460ff191660011790555b8082131561263d576126048183613a7f565b6001600160a01b0385166000908152600e602052604081209190915560098054839290612632908490613abe565b909155506126709050565b6001600160a01b0384166000908152600e602052604081208190556009805484929061266a908490613abe565b90915550505b6001600160a01b0384166000908152600e602052604081206001810182905560028101829055600381018290556004018190556a52b7d2dcc80cd2e40000007f00000000000000000000000000000000000000000000000000000000000000006126d86120d4565b6126e690633b9aca00613a60565b6126f09190613a60565b6126fa9190613a4c565b9050806009600082825461270e9190613a7f565b9091555061273f90507f00000000000000000000000000000000000000000000000000000000000000003383612e72565b846001600160a01b03167ffca559ae7a3bea5c41671f27049d90b84fbf98be965e6d7f0259ee6e5caa980b85602001518660600151600554604051612797939291909283526020830191909152604082015260600190565b60405180910390a250506001600655505050565b6000610b9a338484613117565b60045460ff166001146127dd5760405162461bcd60e51b815260040161097e906139c9565b6128097f0000000000000000000000000000000000000000000000000000000000000000333085612fef565b600754829060ff161561283f576000612820611b18565b905080846000546128319190613a60565b61283b9190613a4c565b9150505b82600960008282546128519190613abe565b90915550506009547f00000000000000000000000000000000000000000000000000000000000000001361288d576007805460ff191660011790555b61289782826136c2565b60405181815233907f0f6798a560793a54c3bcfe86a93cde1e73087d944c0ea20544137d412139688590602001610b80565b4284101561290b5760405162461bcd60e51b815260206004820152600f60248201526e12195919d95e0e8811561412549151608a1b604482015260640161097e565b6001600160a01b038716600090815260036020526040812080547f0000000000000000000000000000000000000000000000000000000000000000917f6e71edae12b1b97f4d1f60370fef10105fa2faae0126114a169c64845d6126c9918b918b918b918761297983613dc6565b909155506040805160208101969096526001600160a01b0394851690860152929091166060840152608083015260a082015260c0810187905260e001604051602081830303815290604052805190602001206040516020016129f292919061190160f01b81526002810192909252602282015260420190565b60408051601f198184030181528282528051602091820120600080855291840180845281905260ff88169284019290925260608301869052608083018590529092509060019060a0016020604051602081039080840390855afa158015612a5d573d6000803e3d6000fd5b5050604051601f1901519150506001600160a01b03811615801590612a935750886001600160a01b0316816001600160a01b0316145b612adf5760405162461bcd60e51b815260206004820152601960248201527f4865646765783a20494e56414c49445f5349474e415455524500000000000000604482015260640161097e565b612aea898989612f8d565b505050505050505050565b600654600114612b175760405162461bcd60e51b815260040161097e90613aff565b600060065560045460ff16600114612b415760405162461bcd60e51b815260040161097e906139c9565b6001600160a01b0381166000908152600e60209081526040808320815160c0810183528154815260018201549381019390935260028101549183019190915260038101546060830181905260048201546080840181905260059092015463ffffffff1660a0840152919291601e91612bb891613a60565b83604001518460200151612bcc9190613a60565b612bd69190613a1e565b612be09190613a4c565b90506000612bec611ea4565b90506000612bfa8483613647565b905082811315612c445760405162461bcd60e51b815260206004820152601560248201527410d85b881b9bdd08189948195e1c1b1bdcda5d9959605a1b604482015260640161097e565b602084015115612c6a578360200151600b6000828254612c649190613a07565b90915550505b606084015115612c90578360600151600a6000828254612c8a9190613a07565b90915550505b60608401516020850151600119911115612ca8575060025b6001600160a01b0386166000908152600e60205260408120818155600181018290556002810182905560038101829055600401819055821315612d1557612d107f00000000000000000000000000000000000000000000000000000000000000003384612e72565b612d2d565b8160096000828254612d279190613abe565b90915550505b856001600160a01b03167f1cf7369c3767c976b447baaae4eed8217e2d190d1750c589e62bf5f7ecc4aaff8287606001518860200151612d6d9190613a1e565b6040805160009390930b83526020830191909152810186905260600160405180910390a25050600160065550505050565b60008082600b54612daf9190613a60565b600c54600a54612dbf9190613a60565b612dc99190613a1e565b600d54600b54612dd99190613a60565b84600a54611b6d9190613a60565b6001600160a01b03821660009081526001602052604081208054839290612e0f908490613a07565b9250508190555080600080828254612e279190613a07565b90915550506040518181526000906001600160a01b038416907fddf252ad1be2c89b69c2b068fc378daa952ba7f163c4a11628f55a4df523b3ef906020015b60405180910390a35050565b604080516001600160a01b038481166024830152604480830185905283518084039091018152606490920183526020820180516001600160e01b031663a9059cbb60e01b1790529151600092839290871691612ece9190613de1565b6000604051808303816000865af19150503d8060008114612f0b576040519150601f19603f3d011682016040523d82523d6000602084013e612f10565b606091505b5091509150818015612f3a575080511580612f3a575080806020019051810190612f3a9190613dfd565b612f865760405162461bcd60e51b815260206004820152601f60248201527f5472616e7366657248656c7065723a205452414e534645525f4641494c454400604482015260640161097e565b5050505050565b6001600160a01b0383811660008181526002602090815260408083209487168084529482529182902085905590518481527f8c5be1e5ebec7d5bd14f71427d1e84f3dd0314c0f7b2291e5b200ac8c7c3b92591015b60405180910390a3505050565b604080516001600160a01b0385811660248301528481166044830152606480830185905283518084039091018152608490920183526020820180516001600160e01b03166323b872dd60e01b17905291516000928392908816916130539190613de1565b6000604051808303816000865af19150503d8060008114613090576040519150601f19603f3d011682016040523d82523d6000602084013e613095565b606091505b50915091508180156130bf5750805115806130bf5750808060200190518101906130bf9190613dfd565b6105375760405162461bcd60e51b8152602060048201526024808201527f5472616e7366657248656c7065723a205452414e534645525f46524f4d5f46416044820152631253115160e21b606482015260840161097e565b6001600160a01b0383166000908152600160205260408120805483929061313f908490613a07565b90915550506001600160a01b0382166000908152600160205260408120805483929061316c908490613a1e565b92505081905550816001600160a01b0316836001600160a01b03167fddf252ad1be2c89b69c2b068fc378daa952ba7f163c4a11628f55a4df523b3ef83604051612fe291815260200190565b6000806131c484612d9e565b905083620f42406131d761753084613a60565b6131e19190613a4c565b6131eb9190613a4c565b83111561323a5760405162461bcd60e51b815260206004820152601d60248201527f73696e676c6520616d6f756e74206f766572206e6574202a2072617465000000604482015260640161097e565b80620f424060020b85600a54600b546132539190613a7f565b8860000b6132619190613bc4565b61326b9190613bc4565b6132759190613bc4565b61327f9190613e1f565b95945050505050565b600080600261329b62030d406003613e4d565b6132a59190613eda565b60020b83126133045760056132be62030d406003613e4d565b60020b8460026132ce9190613bc4565b6132d89190613a7f565b6132e29190613e1f565b6132f0600a62030d40613eda565b60020b6132fd9190613abe565b905061332a565b62030d40831261332a57600561331d62030d4085613a7f565b6133279190613a4c565b90505b620f4240613339603283613a1e565b6133439086613a60565b61334d9190613a4c565b949350505050565b6000808385606001516133689190613a60565b8560400151866020015161337c9190613a60565b6133869190613a1e565b8560800151866060015161339a9190613a60565b8587602001516133aa9190613a60565b6133b49190613a1e565b86516133c09190613abe565b6133ca9190613a7f565b905060007f000000000000000000000000000000000000000000000000000000000000000060ff16866080015187606001516134069190613a60565b8760400151886020015161341a9190613a60565b6134249190613a1e565b61342e9190613a4c565b9050600061345f60ff7f00000000000000000000000000000000000000000000000000000000000000001686613a4c565b90506000620f424061347361025888613a60565b61347d9190613a4c565b90506000848261348d8587613a1e565b6134979190613a1e565b6134a19190613a7f565b90506000811315613514576134b581610dfb565b336000908152600e6020908152604091829020825160c08101845281548152600182015492810192909252600281015492820192909252600382015460608201526004820154608082015260059091015463ffffffff1660a082015298505b50979650505050505050565b600754610100900460ff161561358e576000620f42406135436203d09084613a60565b61354d9190613a4c565b905080600860008282546135619190613a1e565b9091555061357190508183613a7f565b600960008282546135829190613abe565b909155506135a6915050565b80600960008282546135a09190613abe565b90915550505b50565b600754610100900460ff1615613622576000620f42406135cc6203d09085613a60565b6135d69190613a4c565b905080600860008282546135ea9190613a1e565b909155508290506135fb8285613a7f565b6136059190613a7f565b600960008282546136169190613abe565b90915550613643915050565b61362c8183613a7f565b6009600082825461363d9190613abe565b90915550505b5050565b60008183606001516136599190613a60565b8360400151846020015161366d9190613a60565b6136779190613a1e565b8360800151846060015161368b9190613a60565b83856020015161369b9190613a60565b6136a59190613a1e565b84516136b19190613abe565b6136bb9190613a7f565b9392505050565b806000808282546136d39190613a1e565b90915550506001600160a01b03821660009081526001602052604081208054839290613700908490613a1e565b90915550506040518181526001600160a01b038316906000907fddf252ad1be2c89b69c2b068fc378daa952ba7f163c4a11628f55a4df523b3ef90602001612e66565b80356001600160a01b038116811461375a57600080fd5b919050565b6000806040838503121561377257600080fd5b8235915061378260208401613743565b90509250929050565b60005b838110156137a657818101518382015260200161378e565b838111156137b5576000848401525b50505050565b60208152600082518060208401526137da81604085016020870161378b565b601f01601f19169190910160400192915050565b6000806040838503121561380157600080fd5b61380a83613743565b946020939093013593505050565b60006020828403121561382a57600080fd5b5035919050565b60008060006060848603121561384657600080fd5b61384f84613743565b925061385d60208501613743565b9150604084013590509250925092565b803560ff8116811461375a57600080fd5b60008060008060008060c0878903121561389757600080fd5b6138a087613743565b95506138ae60208801613743565b945060408701359350606087013592506138ca6080880161386d565b915060a08701358060000b81146138e057600080fd5b809150509295509295509295565b60006020828403121561390057600080fd5b6136bb82613743565b60008060006060848603121561391e57600080fd5b505081359360208301359350604090920135919050565b600080600080600080600060e0888a03121561395057600080fd5b61395988613743565b965061396760208901613743565b955060408801359450606088013593506139836080890161386d565b925060a0880135915060c0880135905092959891949750929550565b600080604083850312156139b257600080fd5b6139bb83613743565b915061378260208401613743565b6020808252600e908201526d3837b7b629ba30ba329034b9901960911b604082015260600190565b634e487b7160e01b600052601160045260246000fd5b600082821015613a1957613a196139f1565b500390565b60008219821115613a3157613a316139f1565b500190565b634e487b7160e01b600052601260045260246000fd5b600082613a5b57613a5b613a36565b500490565b6000816000190483118215151615613a7a57613a7a6139f1565b500290565b60008083128015600160ff1b850184121615613a9d57613a9d6139f1565b6001600160ff1b0384018313811615613ab857613ab86139f1565b50500390565b600080821280156001600160ff1b0384900385131615613ae057613ae06139f1565b600160ff1b8390038412811615613af957613af96139f1565b50500190565b6020808252600d908201526c1a195919d95e081b1bd8dad959609a1b604082015260600190565b600063ffffffff80831681851681830481118215151615613b4957613b496139f1565b02949350505050565b60208082526015908201527412195919d95e08151c9859194e8811561412549151605a1b604082015260600190565b60208082526023908201527f706f6f6c206e657420616d6f756e74206d75737420736d616c6c207468616e2060408201526233302560e81b606082015260800190565b60006001600160ff1b0381841382841380821686840486111615613bea57613bea6139f1565b600160ff1b6000871282811687830589121615613c0957613c096139f1565b60008712925087820587128484161615613c2557613c256139f1565b87850587128184161615613c3b57613c3b6139f1565b505050929093029392505050565b805169ffffffffffffffffffff8116811461375a57600080fd5b600080600080600060a08688031215613c7b57600080fd5b613c8486613c49565b9450602086015193506040860151925060608601519150613ca760808701613c49565b90509295509295909350565b600181815b80851115613cee578160001904821115613cd457613cd46139f1565b80851615613ce157918102915b93841c9390800290613cb8565b509250929050565b600082613d0557506001610b9e565b81613d1257506000610b9e565b8160018114613d285760028114613d3257613d4e565b6001915050610b9e565b60ff841115613d4357613d436139f1565b50506001821b610b9e565b5060208310610133831016604e8410600b8410161715613d71575081810a610b9e565b613d7b8383613cb3565b8060001904821115613d8f57613d8f6139f1565b029392505050565b60006136bb60ff841683613cf6565b600081810b607f19811415613dbd57613dbd6139f1565b60000392915050565b6000600019821415613dda57613dda6139f1565b5060010190565b60008251613df381846020870161378b565b9190910192915050565b600060208284031215613e0f57600080fd5b815180151581146136bb57600080fd5b600082613e2e57613e2e613a36565b600160ff1b821460001984141615613e4857613e486139f1565b500590565b60008160020b8360020b627fffff600082136000841383830485118282161615613e7957613e796139f1565b627fffff196000851282811687830587121615613e9857613e986139f1565b60008712925085820587128484161615613eb457613eb46139f1565b85850587128184161615613eca57613eca6139f1565b5050509290910295945050505050565b60008160020b8360020b80613ef157613ef1613a36565b627fffff19821460001982141615613f0b57613f0b6139f1565b9005939250505056fe303db7636b0e071f088d2cd5e8463efe513531272d61a18739b21053f6d7b430a2646970667358221220e92c3ee5a008e9c829132fa2833df5cefdf893615d0649e3e3f36bc1cec1c92864736f6c634300080a0033",
    "sourcePath": "d:/contract/hedgex/Single.sol",
    "compiler": {
        "name": "solc",
        "version": "0.8.10+commit.fc410830"
    },
    "functionHashes": {
        "DOMAIN_SEPARATOR()": "3644e515",
        "PERMIT_TYPEHASH()": "30adf81f",
        "addLiquidity(uint256,address)": "c95f9d0e",
        "allowance(address,address)": "dd62ed3e",
        "amountDecimal()": "2be90282",
        "approve(address,uint256)": "095ea7b3",
        "balanceOf(address)": "70a08231",
        "closeLong(uint256,uint256,uint256)": "90edbeb0",
        "closeShort(uint256,uint256,uint256)": "807ca353",
        "dailyInterestRateBase()": "8967b694",
        "decimals()": "313ce567",
        "detectSlide(address)": "3d07bfb7",
        "divConst()": "7e4856c4",
        "explosive(address)": "fc1e2c45",
        "explosivePool()": "3e31fb45",
        "feeDivide()": "d375454f",
        "feeOn()": "4f335d0a",
        "feeRate()": "978bbdb9",
        "feedPrice()": "a04eecae",
        "feedPriceDecimal()": "08c73e74",
        "foceCloseRewardGas()": "3d5f8e7a",
        "forceCloseAccount(address)": "93f8d812",
        "gasUsdPriceFeed()": "6afb3760",
        "getGasUsdPrice()": "8ed3896c",
        "getLatestPrice()": "8e15f473",
        "getPoolNet()": "7bb71a97",
        "initialize(address,address,uint256,uint256,uint8,int8)": "251c073a",
        "interestRewardRate()": "01bcc908",
        "isStart()": "8a55d36e",
        "leverage()": "2c86d98e",
        "minPool()": "2678b8fd",
        "name()": "06fdde03",
        "nonces(address)": "7ecebe00",
        "openLong(uint256,uint256,uint256)": "6c2ee359",
        "openShort(uint256,uint256,uint256)": "71b31707",
        "permit(address,address,uint256,uint256,uint8,bytes32,bytes32)": "d505accf",
        "poolExplosivePrice()": "33d6f1f7",
        "poolLeftAmountRate()": "ce8ad1d2",
        "poolLongAmount()": "e5984319",
        "poolLongPrice()": "994af3ae",
        "poolNetAmountRateLimitOpen()": "cd8bb6cd",
        "poolNetAmountRateLimitPrice()": "1cce9103",
        "poolShortAmount()": "8e406892",
        "poolShortPrice()": "971059fb",
        "poolState()": "641ad8a9",
        "rechargeMargin(uint256)": "11ce83f8",
        "removeLiquidity(uint256,address)": "05fe138b",
        "singleTradeLimitRate()": "1865071d",
        "slideP()": "2c204fa8",
        "sumFee()": "190b065f",
        "symbol()": "95d89b41",
        "token0()": "0dfe1681",
        "token0Decimal()": "9ddc230a",
        "totalPool()": "ecfb49a3",
        "totalSupply()": "18160ddd",
        "traders(address)": "92a88fa2",
        "transfer(address,uint256)": "a9059cbb",
        "transferFrom(address,address,uint256)": "23b872dd",
        "withdrawMargin(uint256)": "0cea7534"
    },
    "gasEstimates": {
        "creation": {
            "codeDepositCost": "3246800",
            "executionCost": "infinite",
            "totalCost": "infinite"
        },
        "external": {
            "DOMAIN_SEPARATOR()": "infinite",
            "PERMIT_TYPEHASH()": "285",
            "addLiquidity(uint256,address)": "infinite",
            "allowance(address,address)": "infinite",
            "amountDecimal()": "infinite",
            "approve(address,uint256)": "24619",
            "balanceOf(address)": "2588",
            "closeLong(uint256,uint256,uint256)": "infinite",
            "closeShort(uint256,uint256,uint256)": "infinite",
            "dailyInterestRateBase()": "338",
            "decimals()": "infinite",
            "detectSlide(address)": "infinite",
            "divConst()": "261",
            "explosive(address)": "infinite",
            "explosivePool()": "infinite",
            "feeDivide()": "304",
            "feeOn()": "2388",
            "feeRate()": "294",
            "feedPrice()": "infinite",
            "feedPriceDecimal()": "infinite",
            "foceCloseRewardGas()": "307",
            "forceCloseAccount(address)": "infinite",
            "gasUsdPriceFeed()": "infinite",
            "getGasUsdPrice()": "infinite",
            "getLatestPrice()": "infinite",
            "getPoolNet()": "infinite",
            "initialize(address,address,uint256,uint256,uint8,int8)": "infinite",
            "interestRewardRate()": "263",
            "isStart()": "2378",
            "leverage()": "infinite",
            "minPool()": "infinite",
            "name()": "infinite",
            "nonces(address)": "2609",
            "openLong(uint256,uint256,uint256)": "infinite",
            "openShort(uint256,uint256,uint256)": "infinite",
            "permit(address,address,uint256,uint256,uint8,bytes32,bytes32)": "infinite",
            "poolExplosivePrice()": "2429",
            "poolLeftAmountRate()": "282",
            "poolLongAmount()": "2383",
            "poolLongPrice()": "2407",
            "poolNetAmountRateLimitOpen()": "276",
            "poolNetAmountRateLimitPrice()": "299",
            "poolShortAmount()": "2407",
            "poolShortPrice()": "2363",
            "poolState()": "2402",
            "rechargeMargin(uint256)": "infinite",
            "removeLiquidity(uint256,address)": "infinite",
            "singleTradeLimitRate()": "317",
            "slideP()": "317",
            "sumFee()": "2363",
            "symbol()": "infinite",
            "token0()": "infinite",
            "token0Decimal()": "infinite",
            "totalPool()": "2405",
            "totalSupply()": "2386",
            "traders(address)": "13291",
            "transfer(address,uint256)": "51184",
            "transferFrom(address,address,uint256)": "infinite",
            "withdrawMargin(uint256)": "infinite"
        },
        "internal": {
            "feeCharge(uint256)": "51151",
            "feeCharge(uint256,int256)": "infinite",
            "getAccountNet(struct HedgexSingle.Trader memory)": "infinite",
            "getAccountNet(struct HedgexSingle.Trader memory,uint256)": "infinite",
            "getPoolNet(uint256)": "infinite",
            "judegOpen(struct HedgexSingle.Trader memory,uint256,uint256)": "infinite",
            "poolLimitTrade(int8,uint256,uint256)": "infinite",
            "slideTradePrice(uint256,int256)": "infinite"
        }
    }
}