{
    "contractName": "HedgexSingle",
    "abi": [
        {
            "inputs": [
                {
                    "internalType": "address",
                    "name": "_token0",
                    "type": "address"
                },
                {
                    "internalType": "address",
                    "name": "_feedPrice",
                    "type": "address"
                },
                {
                    "internalType": "uint256",
                    "name": "_feedPriceDecimal",
                    "type": "uint256"
                },
                {
                    "internalType": "uint256",
                    "name": "_minStartPool",
                    "type": "uint256"
                },
                {
                    "internalType": "uint8",
                    "name": "_leverage",
                    "type": "uint8"
                },
                {
                    "internalType": "int8",
                    "name": "_amountDecimal",
                    "type": "int8"
                }
            ],
            "stateMutability": "nonpayable",
            "type": "constructor"
        },
        {
            "anonymous": false,
            "inputs": [
                {
                    "indexed": true,
                    "internalType": "address",
                    "name": "owner",
                    "type": "address"
                },
                {
                    "indexed": true,
                    "internalType": "address",
                    "name": "spender",
                    "type": "address"
                },
                {
                    "indexed": false,
                    "internalType": "uint256",
                    "name": "value",
                    "type": "uint256"
                }
            ],
            "name": "Approval",
            "type": "event"
        },
        {
            "anonymous": false,
            "inputs": [
                {
                    "indexed": true,
                    "internalType": "address",
                    "name": "sender",
                    "type": "address"
                },
                {
                    "indexed": false,
                    "internalType": "uint256",
                    "name": "amount",
                    "type": "uint256"
                }
            ],
            "name": "Burn",
            "type": "event"
        },
        {
            "anonymous": false,
            "inputs": [
                {
                    "indexed": true,
                    "internalType": "address",
                    "name": "user",
                    "type": "address"
                },
                {
                    "indexed": false,
                    "internalType": "int8",
                    "name": "direction",
                    "type": "int8"
                },
                {
                    "indexed": false,
                    "internalType": "uint256",
                    "name": "amount",
                    "type": "uint256"
                },
                {
                    "indexed": false,
                    "internalType": "uint256",
                    "name": "price",
                    "type": "uint256"
                }
            ],
            "name": "Explosive",
            "type": "event"
        },
        {
            "anonymous": false,
            "inputs": [
                {
                    "indexed": false,
                    "internalType": "int256",
                    "name": "total",
                    "type": "int256"
                },
                {
                    "indexed": false,
                    "internalType": "uint256",
                    "name": "la",
                    "type": "uint256"
                },
                {
                    "indexed": false,
                    "internalType": "uint256",
                    "name": "lp",
                    "type": "uint256"
                },
                {
                    "indexed": false,
                    "internalType": "uint256",
                    "name": "sa",
                    "type": "uint256"
                },
                {
                    "indexed": false,
                    "internalType": "uint256",
                    "name": "sp",
                    "type": "uint256"
                },
                {
                    "indexed": false,
                    "internalType": "uint256",
                    "name": "ep",
                    "type": "uint256"
                }
            ],
            "name": "ExplosivePool",
            "type": "event"
        },
        {
            "anonymous": false,
            "inputs": [
                {
                    "indexed": true,
                    "internalType": "address",
                    "name": "account",
                    "type": "address"
                },
                {
                    "indexed": false,
                    "internalType": "uint256",
                    "name": "long",
                    "type": "uint256"
                },
                {
                    "indexed": false,
                    "internalType": "uint256",
                    "name": "short",
                    "type": "uint256"
                },
                {
                    "indexed": false,
                    "internalType": "uint256",
                    "name": "price",
                    "type": "uint256"
                }
            ],
            "name": "ForceClose",
            "type": "event"
        },
        {
            "anonymous": false,
            "inputs": [
                {
                    "indexed": true,
                    "internalType": "address",
                    "name": "sender",
                    "type": "address"
                },
                {
                    "indexed": false,
                    "internalType": "uint256",
                    "name": "amount",
                    "type": "uint256"
                }
            ],
            "name": "Mint",
            "type": "event"
        },
        {
            "anonymous": false,
            "inputs": [
                {
                    "indexed": true,
                    "internalType": "address",
                    "name": "sender",
                    "type": "address"
                },
                {
                    "indexed": false,
                    "internalType": "uint256",
                    "name": "amount",
                    "type": "uint256"
                }
            ],
            "name": "Recharge",
            "type": "event"
        },
        {
            "anonymous": false,
            "inputs": [
                {
                    "indexed": true,
                    "internalType": "address",
                    "name": "user",
                    "type": "address"
                },
                {
                    "indexed": false,
                    "internalType": "int8",
                    "name": "direction",
                    "type": "int8"
                },
                {
                    "indexed": false,
                    "internalType": "uint256",
                    "name": "amount",
                    "type": "uint256"
                },
                {
                    "indexed": false,
                    "internalType": "uint256",
                    "name": "price",
                    "type": "uint256"
                }
            ],
            "name": "TakeInterest",
            "type": "event"
        },
        {
            "anonymous": false,
            "inputs": [
                {
                    "indexed": true,
                    "internalType": "address",
                    "name": "sender",
                    "type": "address"
                },
                {
                    "indexed": false,
                    "internalType": "int8",
                    "name": "direction",
                    "type": "int8"
                },
                {
                    "indexed": false,
                    "internalType": "uint256",
                    "name": "amount",
                    "type": "uint256"
                },
                {
                    "indexed": false,
                    "internalType": "uint256",
                    "name": "price",
                    "type": "uint256"
                }
            ],
            "name": "Trade",
            "type": "event"
        },
        {
            "anonymous": false,
            "inputs": [
                {
                    "indexed": true,
                    "internalType": "address",
                    "name": "from",
                    "type": "address"
                },
                {
                    "indexed": true,
                    "internalType": "address",
                    "name": "to",
                    "type": "address"
                },
                {
                    "indexed": false,
                    "internalType": "uint256",
                    "name": "value",
                    "type": "uint256"
                }
            ],
            "name": "Transfer",
            "type": "event"
        },
        {
            "anonymous": false,
            "inputs": [
                {
                    "indexed": true,
                    "internalType": "address",
                    "name": "sender",
                    "type": "address"
                },
                {
                    "indexed": false,
                    "internalType": "uint256",
                    "name": "amount",
                    "type": "uint256"
                }
            ],
            "name": "Withdraw",
            "type": "event"
        },
        {
            "inputs": [],
            "name": "DOMAIN_SEPARATOR",
            "outputs": [
                {
                    "internalType": "bytes32",
                    "name": "",
                    "type": "bytes32"
                }
            ],
            "stateMutability": "view",
            "type": "function"
        },
        {
            "inputs": [],
            "name": "PERMIT_TYPEHASH",
            "outputs": [
                {
                    "internalType": "bytes32",
                    "name": "",
                    "type": "bytes32"
                }
            ],
            "stateMutability": "view",
            "type": "function"
        },
        {
            "inputs": [],
            "name": "acceptFeeToSetter",
            "outputs": [],
            "stateMutability": "nonpayable",
            "type": "function"
        },
        {
            "inputs": [
                {
                    "internalType": "uint256",
                    "name": "amount",
                    "type": "uint256"
                },
                {
                    "internalType": "address",
                    "name": "to",
                    "type": "address"
                }
            ],
            "name": "addLiquidity",
            "outputs": [],
            "stateMutability": "nonpayable",
            "type": "function"
        },
        {
            "inputs": [
                {
                    "internalType": "address",
                    "name": "",
                    "type": "address"
                },
                {
                    "internalType": "address",
                    "name": "",
                    "type": "address"
                }
            ],
            "name": "allowance",
            "outputs": [
                {
                    "internalType": "uint256",
                    "name": "",
                    "type": "uint256"
                }
            ],
            "stateMutability": "view",
            "type": "function"
        },
        {
            "inputs": [],
            "name": "amountDecimal",
            "outputs": [
                {
                    "internalType": "int8",
                    "name": "",
                    "type": "int8"
                }
            ],
            "stateMutability": "view",
            "type": "function"
        },
        {
            "inputs": [
                {
                    "internalType": "address",
                    "name": "spender",
                    "type": "address"
                },
                {
                    "internalType": "uint256",
                    "name": "value",
                    "type": "uint256"
                }
            ],
            "name": "approve",
            "outputs": [
                {
                    "internalType": "bool",
                    "name": "",
                    "type": "bool"
                }
            ],
            "stateMutability": "nonpayable",
            "type": "function"
        },
        {
            "inputs": [
                {
                    "internalType": "address",
                    "name": "",
                    "type": "address"
                }
            ],
            "name": "balanceOf",
            "outputs": [
                {
                    "internalType": "uint256",
                    "name": "",
                    "type": "uint256"
                }
            ],
            "stateMutability": "view",
            "type": "function"
        },
        {
            "inputs": [
                {
                    "internalType": "uint256",
                    "name": "priceExp",
                    "type": "uint256"
                },
                {
                    "internalType": "uint256",
                    "name": "amount",
                    "type": "uint256"
                },
                {
                    "internalType": "uint256",
                    "name": "deadline",
                    "type": "uint256"
                }
            ],
            "name": "closeLong",
            "outputs": [],
            "stateMutability": "nonpayable",
            "type": "function"
        },
        {
            "inputs": [
                {
                    "internalType": "uint256",
                    "name": "priceExp",
                    "type": "uint256"
                },
                {
                    "internalType": "uint256",
                    "name": "amount",
                    "type": "uint256"
                },
                {
                    "internalType": "uint256",
                    "name": "deadline",
                    "type": "uint256"
                }
            ],
            "name": "closeShort",
            "outputs": [],
            "stateMutability": "nonpayable",
            "type": "function"
        },
        {
            "inputs": [],
            "name": "dailyInterestRateBase",
            "outputs": [
                {
                    "internalType": "uint16",
                    "name": "",
                    "type": "uint16"
                }
            ],
            "stateMutability": "view",
            "type": "function"
        },
        {
            "inputs": [],
            "name": "decimals",
            "outputs": [
                {
                    "internalType": "uint8",
                    "name": "",
                    "type": "uint8"
                }
            ],
            "stateMutability": "view",
            "type": "function"
        },
        {
            "inputs": [
                {
                    "internalType": "address",
                    "name": "account",
                    "type": "address"
                },
                {
                    "internalType": "address",
                    "name": "to",
                    "type": "address"
                }
            ],
            "name": "detectSlide",
            "outputs": [],
            "stateMutability": "nonpayable",
            "type": "function"
        },
        {
            "inputs": [],
            "name": "divConst",
            "outputs": [
                {
                    "internalType": "uint24",
                    "name": "",
                    "type": "uint24"
                }
            ],
            "stateMutability": "view",
            "type": "function"
        },
        {
            "inputs": [
                {
                    "internalType": "address",
                    "name": "account",
                    "type": "address"
                },
                {
                    "internalType": "address",
                    "name": "to",
                    "type": "address"
                }
            ],
            "name": "explosive",
            "outputs": [],
            "stateMutability": "nonpayable",
            "type": "function"
        },
        {
            "inputs": [],
            "name": "explosivePool",
            "outputs": [],
            "stateMutability": "nonpayable",
            "type": "function"
        },
        {
            "inputs": [],
            "name": "feeDivide",
            "outputs": [
                {
                    "internalType": "uint24",
                    "name": "",
                    "type": "uint24"
                }
            ],
            "stateMutability": "view",
            "type": "function"
        },
        {
            "inputs": [],
            "name": "feeOn",
            "outputs": [
                {
                    "internalType": "bool",
                    "name": "",
                    "type": "bool"
                }
            ],
            "stateMutability": "view",
            "type": "function"
        },
        {
            "inputs": [],
            "name": "feeRate",
            "outputs": [
                {
                    "internalType": "uint16",
                    "name": "",
                    "type": "uint16"
                }
            ],
            "stateMutability": "view",
            "type": "function"
        },
        {
            "inputs": [],
            "name": "feeTo",
            "outputs": [
                {
                    "internalType": "address",
                    "name": "",
                    "type": "address"
                }
            ],
            "stateMutability": "view",
            "type": "function"
        },
        {
            "inputs": [],
            "name": "feeToSetter",
            "outputs": [
                {
                    "internalType": "address",
                    "name": "",
                    "type": "address"
                }
            ],
            "stateMutability": "view",
            "type": "function"
        },
        {
            "inputs": [],
            "name": "feedPrice",
            "outputs": [
                {
                    "internalType": "contract AggregatorV3Interface",
                    "name": "",
                    "type": "address"
                }
            ],
            "stateMutability": "view",
            "type": "function"
        },
        {
            "inputs": [],
            "name": "feedPriceDecimal",
            "outputs": [
                {
                    "internalType": "uint256",
                    "name": "",
                    "type": "uint256"
                }
            ],
            "stateMutability": "view",
            "type": "function"
        },
        {
            "inputs": [],
            "name": "foceCloseRewardGas",
            "outputs": [
                {
                    "internalType": "uint256",
                    "name": "",
                    "type": "uint256"
                }
            ],
            "stateMutability": "view",
            "type": "function"
        },
        {
            "inputs": [
                {
                    "internalType": "address",
                    "name": "account",
                    "type": "address"
                },
                {
                    "internalType": "address",
                    "name": "to",
                    "type": "address"
                }
            ],
            "name": "forceCloseAccount",
            "outputs": [],
            "stateMutability": "nonpayable",
            "type": "function"
        },
        {
            "inputs": [],
            "name": "gasUsdPriceFeed",
            "outputs": [
                {
                    "internalType": "address",
                    "name": "",
                    "type": "address"
                }
            ],
            "stateMutability": "view",
            "type": "function"
        },
        {
            "inputs": [],
            "name": "getGasUsdPrice",
            "outputs": [
                {
                    "internalType": "uint256",
                    "name": "",
                    "type": "uint256"
                }
            ],
            "stateMutability": "view",
            "type": "function"
        },
        {
            "inputs": [],
            "name": "getLatestPrice",
            "outputs": [
                {
                    "internalType": "uint256",
                    "name": "",
                    "type": "uint256"
                }
            ],
            "stateMutability": "view",
            "type": "function"
        },
        {
            "inputs": [],
            "name": "getPoolNet",
            "outputs": [
                {
                    "internalType": "int256",
                    "name": "",
                    "type": "int256"
                }
            ],
            "stateMutability": "view",
            "type": "function"
        },
        {
            "inputs": [],
            "name": "getPoolPosition",
            "outputs": [
                {
                    "internalType": "int256",
                    "name": "",
                    "type": "int256"
                },
                {
                    "internalType": "uint256",
                    "name": "",
                    "type": "uint256"
                },
                {
                    "internalType": "uint256",
                    "name": "",
                    "type": "uint256"
                },
                {
                    "internalType": "uint256",
                    "name": "",
                    "type": "uint256"
                },
                {
                    "internalType": "uint256",
                    "name": "",
                    "type": "uint256"
                },
                {
                    "internalType": "uint8",
                    "name": "",
                    "type": "uint8"
                }
            ],
            "stateMutability": "view",
            "type": "function"
        },
        {
            "inputs": [],
            "name": "interestRewardRate",
            "outputs": [
                {
                    "internalType": "uint24",
                    "name": "",
                    "type": "uint24"
                }
            ],
            "stateMutability": "view",
            "type": "function"
        },
        {
            "inputs": [],
            "name": "isStart",
            "outputs": [
                {
                    "internalType": "bool",
                    "name": "",
                    "type": "bool"
                }
            ],
            "stateMutability": "view",
            "type": "function"
        },
        {
            "inputs": [],
            "name": "leverage",
            "outputs": [
                {
                    "internalType": "uint8",
                    "name": "",
                    "type": "uint8"
                }
            ],
            "stateMutability": "view",
            "type": "function"
        },
        {
            "inputs": [],
            "name": "minPool",
            "outputs": [
                {
                    "internalType": "uint256",
                    "name": "",
                    "type": "uint256"
                }
            ],
            "stateMutability": "view",
            "type": "function"
        },
        {
            "inputs": [],
            "name": "name",
            "outputs": [
                {
                    "internalType": "string",
                    "name": "",
                    "type": "string"
                }
            ],
            "stateMutability": "view",
            "type": "function"
        },
        {
            "inputs": [
                {
                    "internalType": "address",
                    "name": "",
                    "type": "address"
                }
            ],
            "name": "nonces",
            "outputs": [
                {
                    "internalType": "uint256",
                    "name": "",
                    "type": "uint256"
                }
            ],
            "stateMutability": "view",
            "type": "function"
        },
        {
            "inputs": [
                {
                    "internalType": "uint256",
                    "name": "priceExp",
                    "type": "uint256"
                },
                {
                    "internalType": "uint256",
                    "name": "amount",
                    "type": "uint256"
                },
                {
                    "internalType": "uint256",
                    "name": "deadline",
                    "type": "uint256"
                }
            ],
            "name": "openLong",
            "outputs": [],
            "stateMutability": "nonpayable",
            "type": "function"
        },
        {
            "inputs": [
                {
                    "internalType": "uint256",
                    "name": "priceExp",
                    "type": "uint256"
                },
                {
                    "internalType": "uint256",
                    "name": "amount",
                    "type": "uint256"
                },
                {
                    "internalType": "uint256",
                    "name": "deadline",
                    "type": "uint256"
                }
            ],
            "name": "openShort",
            "outputs": [],
            "stateMutability": "nonpayable",
            "type": "function"
        },
        {
            "inputs": [
                {
                    "internalType": "address",
                    "name": "owner",
                    "type": "address"
                },
                {
                    "internalType": "address",
                    "name": "spender",
                    "type": "address"
                },
                {
                    "internalType": "uint256",
                    "name": "value",
                    "type": "uint256"
                },
                {
                    "internalType": "uint256",
                    "name": "deadline",
                    "type": "uint256"
                },
                {
                    "internalType": "uint8",
                    "name": "v",
                    "type": "uint8"
                },
                {
                    "internalType": "bytes32",
                    "name": "r",
                    "type": "bytes32"
                },
                {
                    "internalType": "bytes32",
                    "name": "s",
                    "type": "bytes32"
                }
            ],
            "name": "permit",
            "outputs": [],
            "stateMutability": "nonpayable",
            "type": "function"
        },
        {
            "inputs": [],
            "name": "poolExplosivePrice",
            "outputs": [
                {
                    "internalType": "uint256",
                    "name": "",
                    "type": "uint256"
                }
            ],
            "stateMutability": "view",
            "type": "function"
        },
        {
            "inputs": [],
            "name": "poolLeftAmountRate",
            "outputs": [
                {
                    "internalType": "uint24",
                    "name": "",
                    "type": "uint24"
                }
            ],
            "stateMutability": "view",
            "type": "function"
        },
        {
            "inputs": [],
            "name": "poolLongAmount",
            "outputs": [
                {
                    "internalType": "uint256",
                    "name": "",
                    "type": "uint256"
                }
            ],
            "stateMutability": "view",
            "type": "function"
        },
        {
            "inputs": [],
            "name": "poolLongPrice",
            "outputs": [
                {
                    "internalType": "uint256",
                    "name": "",
                    "type": "uint256"
                }
            ],
            "stateMutability": "view",
            "type": "function"
        },
        {
            "inputs": [],
            "name": "poolNetAmountRateLimitOpen",
            "outputs": [
                {
                    "internalType": "int24",
                    "name": "",
                    "type": "int24"
                }
            ],
            "stateMutability": "view",
            "type": "function"
        },
        {
            "inputs": [],
            "name": "poolNetAmountRateLimitPrice",
            "outputs": [
                {
                    "internalType": "int24",
                    "name": "",
                    "type": "int24"
                }
            ],
            "stateMutability": "view",
            "type": "function"
        },
        {
            "inputs": [],
            "name": "poolShortAmount",
            "outputs": [
                {
                    "internalType": "uint256",
                    "name": "",
                    "type": "uint256"
                }
            ],
            "stateMutability": "view",
            "type": "function"
        },
        {
            "inputs": [],
            "name": "poolShortPrice",
            "outputs": [
                {
                    "internalType": "uint256",
                    "name": "",
                    "type": "uint256"
                }
            ],
            "stateMutability": "view",
            "type": "function"
        },
        {
            "inputs": [],
            "name": "poolState",
            "outputs": [
                {
                    "internalType": "uint8",
                    "name": "",
                    "type": "uint8"
                }
            ],
            "stateMutability": "view",
            "type": "function"
        },
        {
            "inputs": [
                {
                    "internalType": "uint256",
                    "name": "amount",
                    "type": "uint256"
                }
            ],
            "name": "rechargeMargin",
            "outputs": [],
            "stateMutability": "nonpayable",
            "type": "function"
        },
        {
            "inputs": [
                {
                    "internalType": "uint256",
                    "name": "liquidity",
                    "type": "uint256"
                },
                {
                    "internalType": "address",
                    "name": "to",
                    "type": "address"
                }
            ],
            "name": "removeLiquidity",
            "outputs": [],
            "stateMutability": "nonpayable",
            "type": "function"
        },
        {
            "inputs": [
                {
                    "internalType": "bool",
                    "name": "b",
                    "type": "bool"
                }
            ],
            "name": "setFeeOn",
            "outputs": [],
            "stateMutability": "nonpayable",
            "type": "function"
        },
        {
            "inputs": [
                {
                    "internalType": "address",
                    "name": "_feeTo",
                    "type": "address"
                }
            ],
            "name": "setFeeTo",
            "outputs": [],
            "stateMutability": "nonpayable",
            "type": "function"
        },
        {
            "inputs": [],
            "name": "singleCloseLimitRate",
            "outputs": [
                {
                    "internalType": "uint24",
                    "name": "",
                    "type": "uint24"
                }
            ],
            "stateMutability": "view",
            "type": "function"
        },
        {
            "inputs": [],
            "name": "singleOpenLimitRate",
            "outputs": [
                {
                    "internalType": "uint16",
                    "name": "",
                    "type": "uint16"
                }
            ],
            "stateMutability": "view",
            "type": "function"
        },
        {
            "inputs": [],
            "name": "slideP",
            "outputs": [
                {
                    "internalType": "uint8",
                    "name": "",
                    "type": "uint8"
                }
            ],
            "stateMutability": "view",
            "type": "function"
        },
        {
            "inputs": [],
            "name": "sumFee",
            "outputs": [
                {
                    "internalType": "uint256",
                    "name": "",
                    "type": "uint256"
                }
            ],
            "stateMutability": "view",
            "type": "function"
        },
        {
            "inputs": [],
            "name": "symbol",
            "outputs": [
                {
                    "internalType": "string",
                    "name": "",
                    "type": "string"
                }
            ],
            "stateMutability": "view",
            "type": "function"
        },
        {
            "inputs": [],
            "name": "token0",
            "outputs": [
                {
                    "internalType": "address",
                    "name": "",
                    "type": "address"
                }
            ],
            "stateMutability": "view",
            "type": "function"
        },
        {
            "inputs": [],
            "name": "token0Decimal",
            "outputs": [
                {
                    "internalType": "uint256",
                    "name": "",
                    "type": "uint256"
                }
            ],
            "stateMutability": "view",
            "type": "function"
        },
        {
            "inputs": [],
            "name": "totalPool",
            "outputs": [
                {
                    "internalType": "int256",
                    "name": "",
                    "type": "int256"
                }
            ],
            "stateMutability": "view",
            "type": "function"
        },
        {
            "inputs": [],
            "name": "totalSupply",
            "outputs": [
                {
                    "internalType": "uint256",
                    "name": "",
                    "type": "uint256"
                }
            ],
            "stateMutability": "view",
            "type": "function"
        },
        {
            "inputs": [
                {
                    "internalType": "address",
                    "name": "",
                    "type": "address"
                }
            ],
            "name": "traders",
            "outputs": [
                {
                    "internalType": "int256",
                    "name": "margin",
                    "type": "int256"
                },
                {
                    "internalType": "uint256",
                    "name": "longAmount",
                    "type": "uint256"
                },
                {
                    "internalType": "uint256",
                    "name": "longPrice",
                    "type": "uint256"
                },
                {
                    "internalType": "uint256",
                    "name": "shortAmount",
                    "type": "uint256"
                },
                {
                    "internalType": "uint256",
                    "name": "shortPrice",
                    "type": "uint256"
                },
                {
                    "internalType": "uint32",
                    "name": "interestDay",
                    "type": "uint32"
                }
            ],
            "stateMutability": "view",
            "type": "function"
        },
        {
            "inputs": [
                {
                    "internalType": "address",
                    "name": "to",
                    "type": "address"
                },
                {
                    "internalType": "uint256",
                    "name": "value",
                    "type": "uint256"
                }
            ],
            "name": "transfer",
            "outputs": [
                {
                    "internalType": "bool",
                    "name": "",
                    "type": "bool"
                }
            ],
            "stateMutability": "nonpayable",
            "type": "function"
        },
        {
            "inputs": [
                {
                    "internalType": "address",
                    "name": "_feeToSetter",
                    "type": "address"
                }
            ],
            "name": "transferFeeToSetter",
            "outputs": [],
            "stateMutability": "nonpayable",
            "type": "function"
        },
        {
            "inputs": [
                {
                    "internalType": "address",
                    "name": "from",
                    "type": "address"
                },
                {
                    "internalType": "address",
                    "name": "to",
                    "type": "address"
                },
                {
                    "internalType": "uint256",
                    "name": "value",
                    "type": "uint256"
                }
            ],
            "name": "transferFrom",
            "outputs": [
                {
                    "internalType": "bool",
                    "name": "",
                    "type": "bool"
                }
            ],
            "stateMutability": "nonpayable",
            "type": "function"
        },
        {
            "inputs": [],
            "name": "withdrawFee",
            "outputs": [],
            "stateMutability": "nonpayable",
            "type": "function"
        },
        {
            "inputs": [
                {
                    "internalType": "uint256",
                    "name": "amount",
                    "type": "uint256"
                }
            ],
            "name": "withdrawMargin",
            "outputs": [],
            "stateMutability": "nonpayable",
            "type": "function"
        }
    ],
    "bytecode": "6101c06040526001600855732514895c72f50d8bd4b4f9b1110f0d6bd2c975266101a0523480156200003057600080fd5b50604051620048a5380380620048a58339810160408190526200005391620002a1565b856001600160a01b031663313ce5676040518163ffffffff1660e01b8152600401602060405180830381865afa15801562000092573d6000803e3d6000fd5b505050506040513d601f19601f82011682018060405250810190620000b8919062000319565b604080518082018252600c81526b48656467657853696e676c6560a01b6020918201528151808301835260018152603160f81b9082015281517f8b73c3c69bb8fe3d512ecc4cf759cc79239f7b179b0ffacaa9a75d522b39400f918101919091527fdbb8f54117374490c454ab41b80d95cf4a0c3b286124d9b83e346d854dc3efcd918101919091527fc89efdaa54c0f20c7adf612882df0950f5a951637e0307cdcb4c672f298b8bc660608201524660808201523060a082015260c00160408051601f19818403018152828252805160209182012060a05260ff9093166080526006805460ff60a01b1916600160a01b1790556001600160a01b0380891661016052891661010081905263313ce56760e01b83529051909263313ce56792600480820193918290030181865afa158015620001f8573d6000803e3d6000fd5b505050506040513d601f19601f820116820180604052508101906200021e919062000319565b6200022b90600a62000453565b610120526101809390935260c09190915260ff1660e0526009805461ffff191661010017905560000b610140525050600580546001600160a01b0319163317905562000464565b80516001600160a01b03811681146200028a57600080fd5b919050565b805160ff811681146200028a57600080fd5b60008060008060008060c08789031215620002bb57600080fd5b620002c68762000272565b9550620002d66020880162000272565b94506040870151935060608701519250620002f4608088016200028f565b915060a08701518060000b81146200030b57600080fd5b809150509295509295509295565b6000602082840312156200032c57600080fd5b62000337826200028f565b9392505050565b634e487b7160e01b600052601160045260246000fd5b600181815b80851115620003955781600019048211156200037957620003796200033e565b808516156200038757918102915b93841c939080029062000359565b509250929050565b600082620003ae575060016200044d565b81620003bd575060006200044d565b8160018114620003d65760028114620003e15762000401565b60019150506200044d565b60ff841115620003f557620003f56200033e565b50506001821b6200044d565b5060208310610133831016604e8410600b841016171562000426575081810a6200044d565b62000432838362000354565b80600019048211156200044957620004496200033e565b0290505b92915050565b60006200033760ff8416836200039d565b60805160a05160c05160e05161010051610120516101405161016051610180516101a05161432462000581600039600081816107200152612502015260008181610496015281816123e6015261247601526000818161095101526122d20152600081816105b7015281816123bd0152818161240a015261249a01526000818161092a015281816115070152818161243501526124ce01526000818161051401528181610c3401528181610ea601528181610f0f0152818161156f015281816121cb0152818161291401528181612f6f015261305501526000818161060b01528181610d40015281816137f4015261385d015260008181610590015261298d0152600081816106910152612a590152600061066101526143246000f3fe608060405234801561001057600080fd5b50600436106103f15760003560e01c806373e6054b11610215578063994af3ae11610125578063d375454f116100b8578063e598431911610087578063e598431914610a1a578063e941fa7814610a23578063ecfb49a314610a2b578063f46901ed14610a34578063fc4064b314610a4757600080fd5b8063d375454f146109bf578063d505accf146109c9578063dd62ed3e146109dc578063ddcb04c214610a0757600080fd5b8063c250332f116100f4578063c250332f14610986578063c95f9d0e14610999578063cd8bb6cd146109ac578063ce8ad1d2146109b657600080fd5b8063994af3ae1461091c5780639ddc230a14610925578063a04eecae1461094c578063a9059cbb1461097357600080fd5b80638a55d36e116101a857806390edbeb01161017757806390edbeb01461085857806392a88fa21461086b57806395d89b41146108e7578063971059fb1461090a578063978bbdb91461091357600080fd5b80638a55d36e146108325780638e15f4731461083f5780638e406892146108475780638ed3896c1461085057600080fd5b80637ecebe00116101e45780637ecebe00146107e3578063807ca353146108035780638967b6941461081657806389d408ff1461081f57600080fd5b806373e6054b146107885780637aaae950146104265780637bb71a97146107d15780637e4856c4146107d957600080fd5b80632c204fa8116103105780633e31fb45116102a35780636422e08f116102725780636422e08f146107085780636afb37601461071b5780636c2ee3591461074257806370a082311461075557806371b317071461077557600080fd5b80633e31fb45146106be5780634f335d0a146106c65780635d0291ac146106d8578063641ad8a9146106f457600080fd5b8063313ce567116102df578063313ce5671461065c57806333d6f1f7146106835780633644e5151461068c5780633d5f8e7a146106b357600080fd5b80632c204fa8146105ec5780632c86d98e146106065780632dd072a01461062d57806330adf81f1461063557600080fd5b80630dfe1681116103885780631cce9103116103575780631cce91031461055b57806323b872dd146105785780632678b8fd1461058b5780632be90282146105b257600080fd5b80630dfe16811461050f57806311ce83f81461053657806318160ddd14610549578063190b065f1461055257600080fd5b806308c73e74116103c457806308c73e7414610491578063094b7415146104c6578063095ea7b3146104d95780630cea7534146104fc57600080fd5b8063017e7e58146103f657806301bcc9081461042657806305fe138b1461044457806306fdde0314610459575b600080fd5b600454610409906001600160a01b031681565b6040516001600160a01b0390911681526020015b60405180910390f35b610430620186a081565b60405162ffffff909116815260200161041d565b610457610452366004613b0a565b610a5a565b005b6104846040518060400160405280600c81526020016b48656467657853696e676c6560a01b81525081565b60405161041d9190613b66565b6104b87f000000000000000000000000000000000000000000000000000000000000000081565b60405190815260200161041d565b600554610409906001600160a01b031681565b6104ec6104e7366004613b99565b610c95565b604051901515815260200161041d565b61045761050a366004613bc3565b610cac565b6104097f000000000000000000000000000000000000000000000000000000000000000081565b610457610544366004613bc3565b610f0a565b6104b860005481565b6104b8600a5481565b61056562030d4081565b60405160029190910b815260200161041d565b6104ec610586366004613bdc565b610f92565b6104b87f000000000000000000000000000000000000000000000000000000000000000081565b6105d97f000000000000000000000000000000000000000000000000000000000000000081565b60405160009190910b815260200161041d565b6105f4603281565b60405160ff909116815260200161041d565b6105f47f000000000000000000000000000000000000000000000000000000000000000081565b61045761100c565b6104b87f6e71edae12b1b97f4d1f60370fef10105fa2faae0126114a169c64845d6126c981565b6105f47f000000000000000000000000000000000000000000000000000000000000000081565b6104b860075481565b6104b87f000000000000000000000000000000000000000000000000000000000000000081565b6104b8633b9aca0081565b61045761105d565b6009546104ec90610100900460ff1681565b6106e161753081565b60405161ffff909116815260200161041d565b6006546105f490600160a01b900460ff1681565b610457610716366004613c18565b611295565b6104097f000000000000000000000000000000000000000000000000000000000000000081565b610457610750366004613c42565b6115f6565b6104b8610763366004613c6e565b60016020526000908152604090205481565b610457610783366004613c42565b6118e8565b600b54600c54600e54600d54600f546006546040805196875260208701959095529385019290925260608401526080830152600160a01b900460ff1660a082015260c00161041d565b6104b8611bb8565b610430620f424081565b6104b86107f1366004613c6e565b60036020526000908152604090205481565b610457610811366004613c42565b611c69565b6106e16103e881565b61045761082d366004613c18565b611f86565b6009546104ec9060ff1681565b6104b86122cd565b6104b8600d5481565b6104b86124fd565b610457610866366004613c42565b61258d565b6108b4610879366004613c6e565b601060205260009081526040902080546001820154600283015460038401546004850154600590950154939492939192909163ffffffff1686565b604080519687526020870195909552938501929092526060840152608083015263ffffffff1660a082015260c00161041d565b610484604051806040016040528060048152602001634845585360e01b81525081565b6104b8600f5481565b6106e161025881565b6104b8600e5481565b6104b87f000000000000000000000000000000000000000000000000000000000000000081565b6104097f000000000000000000000000000000000000000000000000000000000000000081565b6104ec610981366004613b99565b61288a565b610457610994366004613c6e565b612897565b6104576109a7366004613b0a565b6128e3565b610565620493e081565b61043061c35081565b6104306203d09081565b6104576109d7366004613c89565b6129fb565b6104b86109ea366004613c18565b600260209081526000928352604080842090915290825290205481565b610457610a15366004613c18565b612c27565b6104b8600c5481565b610457612ff6565b6104b8600b5481565b610457610a42366004613c6e565b613087565b610457610a55366004613d0a565b6130d3565b600654600160a01b900460ff16600114610a8f5760405162461bcd60e51b8152600401610a8690613d27565b60405180910390fd5b600954829060ff1615610c0d576000610aa66122cd565b90506000610ab382613117565b90506000600d54600c5411610ad757600c54600d54610ad29190613d64565b610ae7565b600d54600c54610ae79190613d64565b905060006003600d54600c54610afd9190613d7b565b610b079190613da9565b905080821015610b15578091505b6000620493e0620f4240610b298786613dbd565b610b339190613dbd565b610b3d9190613da9565b9050808413610b8e5760405162461bcd60e51b815260206004820152601760248201527f6e6574206d757374203e20757365644d617267696e2f520000000000000000006044820152606401610a86565b6000610b9a8286613d64565b600054909150610baa8a87613dbd565b610bb49190613da9565b965080871115610c065760405162461bcd60e51b815260206004820152601860248201527f776974686472617720616d6f756e7420746f6f206d616e7900000000000000006044820152606401610a86565b5050505050505b80600b6000828254610c1f9190613ddc565b90915550610c2f90503384613160565b610c5a7f000000000000000000000000000000000000000000000000000000000000000083836131eb565b60405183815233907fcc16f5dbb4873280815c1ee09dbd06736cffcc184412cf7a71a0fdb75d397ca5906020015b60405180910390a2505050565b6000610ca2338484613306565b5060015b92915050565b600654600160a01b900460ff16600114610cd85760405162461bcd60e51b8152600401610a8690613d27565b336000908152601060209081526040808320815160c0810183528154815260018201549381019390935260028101549183019190915260038101546060830152600481015460808301526005015463ffffffff1660a082015290610d3a6122cd565b905060007f000000000000000000000000000000000000000000000000000000000000000060ff1683608001518460600151610d769190613dbd565b84604001518560200151610d8a9190613dbd565b610d949190613d7b565b610d9e9190613da9565b90506000828460600151610db29190613dbd565b84604001518560200151610dc69190613dbd565b610dd09190613d7b565b84608001518560600151610de49190613dbd565b848660200151610df49190613dbd565b610dfe9190613d7b565b8551610e0a9190613e1b565b610e149190613ddc565b90506000610e228383613ddc565b905060008113610e745760405162461bcd60e51b815260206004820152601860248201527f63616e207769746864726177206973206e6567617469766500000000000000006044820152606401610a86565b8581811315610e805750805b8551610e8d908290613ddc565b33600081815260106020526040902091909155610ecc907f000000000000000000000000000000000000000000000000000000000000000090836131eb565b60405181815233907f884edad9ce6fa2440d8a54cc123490eb96d2768479d49ff9c7366125a94243649060200160405180910390a250505050505050565b610f367f0000000000000000000000000000000000000000000000000000000000000000333084613368565b3360009081526010602052604081208054839290610f55908490613e1b565b909155505060405181815233907f78d9de6f3ad1cae9e0cbcbaa5267fd90f6a6728831eec42b7c147b398b2269249060200160405180910390a250565b6001600160a01b038316600090815260026020908152604080832033845290915281205460001914610ff7576001600160a01b038416600090815260026020908152604080832033845290915281208054849290610ff1908490613d64565b90915550505b611002848484613498565b5060019392505050565b6006546001600160a01b031633146110365760405162461bcd60e51b8152600401610a8690613e5c565b60068054600580546001600160a01b03199081166001600160a01b03841617909155169055565b60085460011461107f5760405162461bcd60e51b8152600401610a8690613e87565b6000600855600654600160a01b900460ff166001146110d65760405162461bcd60e51b8152602060048201526013602482015272706f6f6c206973206578706c6f736976696e6760681b6044820152606401610a86565b60006110e06122cd565b905060006110ed82613117565b90506000600d54600c541161112857600583600c54600d5461110f9190613d64565b6111199190613dbd565b6111239190613da9565b61114f565b600583600d54600c5461113b9190613d64565b6111459190613dbd565b61114f9190613da9565b9050808213156111a15760405162461bcd60e51b815260206004820152601960248201527f706f6f6c2063616e6e2774206265206578706c6f7369766564000000000000006044820152606401610a86565b6006805460ff60a01b1916600160a11b17905560006111c1600483613da9565b905080831215611275576000600c54600d546111dd9190613ddc565b82600f54600d546111ee9190613dbd565b600e54600c546111fe9190613dbd565b600b5461120b9190613ddc565b6112159190613e1b565b61121f9190613ddc565b6112299190613eae565b9050600081136112685760405162461bcd60e51b815260206004820152600a6024820152690657072696365203e20360b41b6044820152606401610a86565b600755600b819055611280565b600b83905560078490555b50506000600f819055600e5550506001600855565b6008546001146112b75760405162461bcd60e51b8152600401610a8690613e87565b6000600855600654600160a01b900460ff1660021461130d5760405162461bcd60e51b81526020600482015260126024820152713837b7b629ba30ba329034b9903737ba101960711b6044820152606401610a86565b6001600160a01b0382166000908152601060209081526040808320815160c0810183528154815260018201549381019390935260028101549183019190915260038101546060830152600481015460808301526005015463ffffffff1660a0820152600754909161137e8383613539565b90506000620f424062ffffff1661025861ffff168486606001516113a29190613dbd565b8587602001516113b29190613dbd565b6113bc9190613d7b565b6113c69190613dbd565b6113d09190613da9565b6020850151909150156113f9578360200151600d60008282546113f39190613d64565b90915550505b60608401511561141f578360600151600c60008282546114199190613d64565b90915550505b600c5415801561142f5750600d54155b15611448576006805460ff60a01b1916600160a01b1790555b808213156114935761145a8183613ddc565b6001600160a01b038716600090815260106020526040812091909155600b8054839290611488908490613e1b565b909155506114c69050565b6001600160a01b0386166000908152601060205260408120819055600b80548492906114c0908490613e1b565b90915550505b6001600160a01b03861660009081526010602052604081206001810182905560028101829055600381018290556004018190556a52b7d2dcc80cd2e40000007f000000000000000000000000000000000000000000000000000000000000000061152e6124fd565b61153c90633b9aca00613dbd565b6115469190613dbd565b6115509190613da9565b905080600b60008282546115649190613ddc565b9091555061159590507f000000000000000000000000000000000000000000000000000000000000000087836131eb565b60208086015160608088015160408051938452938301529181018690526001600160a01b038916917ffca559ae7a3bea5c41671f27049d90b84fbf98be965e6d7f0259ee6e5caa980b910160405180910390a2505060016008555050505050565b6008546001146116185760405162461bcd60e51b8152600401610a8690613e87565b6000600855804281101561163e5760405162461bcd60e51b8152600401610a8690613edc565b600654600160a01b900460ff1660011461166a5760405162461bcd60e51b8152600401610a8690613d27565b60095460ff166116b45760405162461bcd60e51b815260206004820152601560248201527418dbdb9d1c9858dd081a5cc81b9bdd081cdd185c9d605a1b6044820152606401610a86565b60006116be6122cd565b90506000806116ce6001846135b4565b909250905082620f42406116e461753084613dbd565b6116ee9190613da9565b6116f89190613da9565b8611156117175760405162461bcd60e51b8152600401610a8690613f0b565b620493e082126117395760405162461bcd60e51b8152600401610a8690613f42565b60006117458484613613565b61174f9085613d7b565b9050878111158061175e575087155b6117aa5760405162461bcd60e51b815260206004820152601b60248201527f6f70656e206c6f6e6720707269636520697320746f6f206869676800000000006044820152606401610a86565b60006117b68289613dbd565b90506000806117c587846136e0565b915091508981602001516117d99190613d7b565b33600090815260106020908152604090912060010191909155810151611800908b90613d7b565b83826040015183602001516118159190613dbd565b61181f9190613d7b565b6118299190613da9565b336000908152601060205260409020600201558051611849908390613ddc565b33600090815260106020526040902055600d546118668b82613d7b565b600d556118738b82613d7b565b84600f54836118829190613dbd565b61188c9190613d7b565b6118969190613da9565b600f556118a283613947565b6040805160018152602081018d905290810186905233906000805160206142cf833981519152906060015b60405180910390a25050600160085550505050505050505050565b60085460011461190a5760405162461bcd60e51b8152600401610a8690613e87565b600060085580428110156119305760405162461bcd60e51b8152600401610a8690613edc565b600654600160a01b900460ff1660011461195c5760405162461bcd60e51b8152600401610a8690613d27565b60095460ff166119a65760405162461bcd60e51b815260206004820152601560248201527418dbdb9d1c9858dd081a5cc81b9bdd081cdd185c9d605a1b6044820152606401610a86565b60006119b06122cd565b90506000806119c1600019846135b4565b909250905082620f42406119d761753084613dbd565b6119e19190613da9565b6119eb9190613da9565b861115611a0a5760405162461bcd60e51b8152600401610a8690613f0b565b620493e08212611a2c5760405162461bcd60e51b8152600401610a8690613f42565b6000611a388484613613565b611a429085613d64565b905087811015611a945760405162461bcd60e51b815260206004820152601b60248201527f6f70656e2073686f727420707269636520697320746f6f206c6f7700000000006044820152606401610a86565b6000611aa08289613dbd565b9050600080611aaf87846136e0565b91509150898160600151611ac39190613d7b565b336000908152601060205260409020600301556060810151611ae6908b90613d7b565b8382608001518360600151611afb9190613dbd565b611b059190613d7b565b611b0f9190613da9565b336000908152601060205260409020600401558051611b2f908390613ddc565b33600090815260106020526040902055600c54611b4c8b82613d7b565b600c55611b598b82613d7b565b84600e5483611b689190613dbd565b611b729190613d7b565b611b7c9190613da9565b600e55611b8883613947565b604080516000198152602081018d905290810186905233906000805160206142cf833981519152906060016118cd565b600080611bc36122cd565b9050600081600d54611bd59190613dbd565b600e54600c54611be59190613dbd565b611bef9190613d7b565b600f54600d54611bff9190613dbd565b83600c54611c0d9190613dbd565b611c179190613d7b565b600b54611c249190613e1b565b611c2e9190613ddc565b905060008113610ca65760405162461bcd60e51b815260206004820152600660248201526506e65743c3d360d41b6044820152606401610a86565b600854600114611c8b5760405162461bcd60e51b8152600401610a8690613e87565b60006008558042811015611cb15760405162461bcd60e51b8152600401610a8690613edc565b600654600160a01b900460ff16600114611cdd5760405162461bcd60e51b8152600401610a8690613d27565b6000611ce76122cd565b9050600080611cf76001846135b4565b909250905082620f4240611d0e620186a084613dbd565b611d189190613da9565b611d229190613da9565b861115611d415760405162461bcd60e51b8152600401610a8690613f0b565b6000611d4d8484613613565b611d579085613d7b565b90508781111580611d66575087155b611db25760405162461bcd60e51b815260206004820152601b60248201527f636c6f73652073686f72742070726963652069732068696768657200000000006044820152606401610a86565b33600090815260106020908152604091829020825160c081018452815481526001820154928101929092526002810154928201929092526003820154606082018190526004830154608083015260059092015463ffffffff1660a082015290881115611e6c5760405162461bcd60e51b815260206004820152602360248201527f636c6f736520616d6f756e742072657175697265203e3d2073686f7274416d6f6044820152621d5b9d60ea1b6064820152608401610a86565b6000620f4240610258611e7f858c613dbd565b611e899190613dbd565b611e939190613da9565b90506000838360800151611ea79190613ddc565b611eb1908b613f85565b9050898360600151611ec39190613d64565b3360009081526010602052604090206003015582518290611ee5908390613e1b565b611eef9190613ddc565b3360009081526010602052604090205560608301518a1415611f1f57336000908152601060205260408120600401555b89600c6000828254611f319190613d64565b90915550611f41905082826139cf565b6040805160028152602081018c905290810185905233906000805160206142cf833981519152906060015b60405180910390a250506001600855505050505050505050565b600854600114611fa85760405162461bcd60e51b8152600401610a8690613e87565b6000600855600654600160a01b900460ff16600114611fd95760405162461bcd60e51b8152600401610a8690613d27565b6001600160a01b0382166000908152601060209081526040808320815160c0810183528154815260018201549381019390935260028101549183019190915260038101546060830181905260048201546080840181905260059092015463ffffffff1660a0840152919291601e9161205091613dbd565b836040015184602001516120649190613dbd565b61206e9190613d7b565b6120789190613da9565b905060006120846122cd565b905060006120928483613539565b9050828113156120d75760405162461bcd60e51b815260206004820152601060248201526f63616e6e2774206578706c6f7369766560801b6044820152606401610a86565b602084015160009015612120578460200151600d60008282546120fa9190613d64565b9091555050604085015161210e9084613ddc565b856020015161211d9190613f85565b90505b606085015115612171578460600151600c60008282546121409190613d64565b90915550506080850151612155908490613ddc565b85606001516121649190613f85565b61216e9082613e1b565b90505b60608501516020860151600119911115612189575060025b6001600160a01b0388166000908152601060205260408120818155600181018290556002810182905560038101829055600401819055831315612239576121fb7f0000000000000000000000000000000000000000000000000000000000000000886121f6600587613eae565b6131eb565b816005612209856004613f85565b6122139190613eae565b61221d9190613ddc565b600b600082825461222e9190613e1b565b9091555061225a9050565b6122438284613ddc565b600b60008282546122549190613e1b565b90915550505b876001600160a01b03167f1cf7369c3767c976b447baaae4eed8217e2d190d1750c589e62bf5f7ecc4aaff828860600151896020015161229a9190613d7b565b6040805160009390930b83526020830191909152810187905260600160405180910390a250506001600855505050505050565b6000807f00000000000000000000000000000000000000000000000000000000000000006001600160a01b031663feaf968c6040518163ffffffff1660e01b815260040160a060405180830381865afa15801561232e573d6000803e3d6000fd5b505050506040513d601f19601f820116820180604052508101906123529190614024565b505050915050600081136123b95760405162461bcd60e51b815260206004820152602860248201527f7468652070616972207374616e64617264207072696365206d75737420626520604482015267706f73697469766560c01b6064820152608401610a86565b60007f000000000000000000000000000000000000000000000000000000000000000060000b12612474577f00000000000000000000000000000000000000000000000000000000000000006124307f0000000000000000000000000000000000000000000000000000000000000000600a614158565b61245a7f000000000000000000000000000000000000000000000000000000000000000084613dbd565b6124649190613dbd565b61246e9190613da9565b91505090565b7f00000000000000000000000000000000000000000000000000000000000000006124be7f0000000000000000000000000000000000000000000000000000000000000000614167565b6124c990600a614158565b6124f37f000000000000000000000000000000000000000000000000000000000000000084613dbd565b6124649190613da9565b6000807f00000000000000000000000000000000000000000000000000000000000000006001600160a01b031663feaf968c6040518163ffffffff1660e01b815260040160a060405180830381865afa15801561255e573d6000803e3d6000fd5b505050506040513d601f19601f820116820180604052508101906125829190614024565b509195945050505050565b6008546001146125af5760405162461bcd60e51b8152600401610a8690613e87565b600060085580428110156125d55760405162461bcd60e51b8152600401610a8690613edc565b600654600160a01b900460ff166001146126015760405162461bcd60e51b8152600401610a8690613d27565b600061260b6122cd565b905060008061261c600019846135b4565b909250905082620f4240612633620186a084613dbd565b61263d9190613da9565b6126479190613da9565b8611156126665760405162461bcd60e51b8152600401610a8690613f0b565b60006126728484613613565b61267c9085613d64565b9050878110156126ce5760405162461bcd60e51b815260206004820152601960248201527f636c6f7365206c6f6e67207072696365206973206c6f776572000000000000006044820152606401610a86565b33600090815260106020908152604091829020825160c08101845281548152600182015492810183905260028201549381019390935260038101546060840152600481015460808401526005015463ffffffff1660a08301528811156127815760405162461bcd60e51b815260206004820152602260248201527f636c6f736520616d6f756e742072657175697265203e3d206c6f6e67416d6f756044820152611b9d60f21b6064820152608401610a86565b6000620f4240610258612794858c613dbd565b61279e9190613dbd565b6127a89190613da9565b905060008260400151846127bc9190613ddc565b6127c6908b613f85565b90508983602001516127d89190613d64565b33600090815260106020526040902060010155825182906127fa908390613e1b565b6128049190613ddc565b336000908152601060209081526040909120919091558301518a141561283857336000908152601060205260408120600201555b89600d600082825461284a9190613d64565b9091555061285a905082826139cf565b604080516001198152602081018c905290810185905233906000805160206142cf83398151915290606001611f6c565b6000610ca2338484613498565b6005546001600160a01b031633146128c15760405162461bcd60e51b8152600401610a8690613e5c565b600680546001600160a01b0319166001600160a01b0392909216919091179055565b600654600160a01b900460ff1660011461290f5760405162461bcd60e51b8152600401610a8690613d27565b61293b7f0000000000000000000000000000000000000000000000000000000000000000333085613368565b600954829060ff1615612971576000612952611bb8565b905080846000546129639190613dbd565b61296d9190613da9565b9150505b82600b60008282546129839190613e1b565b9091555050600b547f0000000000000000000000000000000000000000000000000000000000000000136129bf576009805460ff191660011790555b6129c98282613a6d565b60405181815233907f0f6798a560793a54c3bcfe86a93cde1e73087d944c0ea20544137d412139688590602001610c88565b42841015612a3d5760405162461bcd60e51b815260206004820152600f60248201526e12195919d95e0e8811561412549151608a1b6044820152606401610a86565b6001600160a01b038716600090815260036020526040812080547f0000000000000000000000000000000000000000000000000000000000000000917f6e71edae12b1b97f4d1f60370fef10105fa2faae0126114a169c64845d6126c9918b918b918b9187612aab83614187565b909155506040805160208101969096526001600160a01b0394851690860152929091166060840152608083015260a082015260c0810187905260e00160405160208183030381529060405280519060200120604051602001612b2492919061190160f01b81526002810192909252602282015260420190565b60408051601f198184030181528282528051602091820120600080855291840180845281905260ff88169284019290925260608301869052608083018590529092509060019060a0016020604051602081039080840390855afa158015612b8f573d6000803e3d6000fd5b5050604051601f1901519150506001600160a01b03811615801590612bc55750886001600160a01b0316816001600160a01b0316145b612c115760405162461bcd60e51b815260206004820152601960248201527f4865646765783a20494e56414c49445f5349474e4154555245000000000000006044820152606401610a86565b612c1c898989613306565b505050505050505050565b600854600114612c495760405162461bcd60e51b8152600401610a8690613e87565b6000600855600654600160a01b900460ff16600114612c7a5760405162461bcd60e51b8152600401610a8690613d27565b6000612c896201518042613da9565b905061012c612c9b82620151806141a2565b612cab9063ffffffff1642613d64565b1115612ce85760405162461bcd60e51b815260206004820152600c60248201526b74696d652064697361626c6560a01b6044820152606401610a86565b6001600160a01b0383166000908152601060205260409020600581015463ffffffff90811690831611612d565760405162461bcd60e51b81526020600482015260166024820152751a185cc81899595b881d185ad9481a5b9d195c995cdd60521b6044820152606401610a86565b806003015481600101541415612da15760405162461bcd60e51b815260206004820152601060248201526f1b1bdb99c8195c5d585b081cda1bdc9d60821b6044820152606401610a86565b600d54600c54600383015460018481015460009283911115612e5a57838511612dff5760405162461bcd60e51b815260206004820152601060248201526f1a185d99481b9bc81a5b9d195c995cdd60821b6044820152606401610a86565b612e076122cd565b905084620f4240612e188683613d64565b60018901546103e890612e2b9086613dbd565b612e359190613dbd565b612e3f9190613dbd565b612e499190613da9565b612e539190613da9565b9250612ef8565b848411612e9c5760405162461bcd60e51b815260206004820152601060248201526f1a185d99481b9bc81a5b9d195c995cdd60821b6044820152606401610a86565b612ea46122cd565b6000199250905083620f4240612eba8783613d64565b60038901546103e890612ecd9086613dbd565b612ed79190613dbd565b612ee19190613dbd565b612eeb9190613da9565b612ef59190613da9565b92505b6000620f4240612f0b620186a086613dbd565b612f159190613da9565b60058801805463ffffffff191663ffffffff8b16179055875490915084908890600090612f43908490613ddc565b90915550612f5390508185613ddc565b600b6000828254612f649190613e1b565b90915550612f9590507f00000000000000000000000000000000000000000000000000000000000000008a836131eb565b60408051600085900b8152602081018690529081018390526001600160a01b038b16907f78213dfb97e98b601b3fee012a0f6bddbf4e63c293c77b5186137af1e7cf62ae9060600160405180910390a2505060016008555050505050505050565b6004546001600160a01b031633146130435760405162461bcd60e51b815260206004820152601060248201526f3432b233b2bc1d2327a92124a22222a760811b6044820152606401610a86565b600a80546000909155600454613084907f0000000000000000000000000000000000000000000000000000000000000000906001600160a01b0316836131eb565b50565b6005546001600160a01b031633146130b15760405162461bcd60e51b8152600401610a8690613e5c565b600480546001600160a01b0319166001600160a01b0392909216919091179055565b6005546001600160a01b031633146130fd5760405162461bcd60e51b8152600401610a8690613e5c565b600980549115156101000261ff0019909216919091179055565b60008082600d546131289190613dbd565b600e54600c546131389190613dbd565b6131429190613d7b565b600f54600d546131529190613dbd565b84600c54611c0d9190613dbd565b6001600160a01b03821660009081526001602052604081208054839290613188908490613d64565b92505081905550806000808282546131a09190613d64565b90915550506040518181526000906001600160a01b038416907fddf252ad1be2c89b69c2b068fc378daa952ba7f163c4a11628f55a4df523b3ef906020015b60405180910390a35050565b604080516001600160a01b038481166024830152604480830185905283518084039091018152606490920183526020820180516001600160e01b031663a9059cbb60e01b179052915160009283929087169161324791906141ce565b6000604051808303816000865af19150503d8060008114613284576040519150601f19603f3d011682016040523d82523d6000602084013e613289565b606091505b50915091508180156132b35750805115806132b35750808060200190518101906132b391906141ea565b6132ff5760405162461bcd60e51b815260206004820152601f60248201527f5472616e7366657248656c7065723a205452414e534645525f4641494c4544006044820152606401610a86565b5050505050565b6001600160a01b0383811660008181526002602090815260408083209487168084529482529182902085905590518481527f8c5be1e5ebec7d5bd14f71427d1e84f3dd0314c0f7b2291e5b200ac8c7c3b92591015b60405180910390a3505050565b604080516001600160a01b0385811660248301528481166044830152606480830185905283518084039091018152608490920183526020820180516001600160e01b03166323b872dd60e01b17905291516000928392908816916133cc91906141ce565b6000604051808303816000865af19150503d8060008114613409576040519150601f19603f3d011682016040523d82523d6000602084013e61340e565b606091505b509150915081801561343857508051158061343857508080602001905181019061343891906141ea565b6134905760405162461bcd60e51b8152602060048201526024808201527f5472616e7366657248656c7065723a205452414e534645525f46524f4d5f46416044820152631253115160e21b6064820152608401610a86565b505050505050565b6001600160a01b038316600090815260016020526040812080548392906134c0908490613d64565b90915550506001600160a01b038216600090815260016020526040812080548392906134ed908490613d7b565b92505081905550816001600160a01b0316836001600160a01b03167fddf252ad1be2c89b69c2b068fc378daa952ba7f163c4a11628f55a4df523b3ef8360405161335b91815260200190565b600081836060015161354b9190613dbd565b8360400151846020015161355f9190613dbd565b6135699190613d7b565b8360800151846060015161357d9190613dbd565b83856020015161358d9190613dbd565b6135979190613d7b565b84516135a39190613e1b565b6135ad9190613ddc565b9392505050565b60008060006135c284613117565b905080620f424060020b85600c54600d546135dd9190613ddc565b8860000b6135eb9190613f85565b6135f59190613f85565b6135ff9190613f85565b6136099190613eae565b9590945092505050565b600080600261362662030d406003614207565b6136309190614294565b60020b831261368f57600561364962030d406003614207565b60020b8460026136599190613f85565b6136639190613ddc565b61366d9190613eae565b61367b600a62030d40614294565b60020b6136889190613e1b565b90506136b5565b62030d4083126136b55760056136a862030d4085613ddc565b6136b29190613da9565b90505b620f42406136c4603283613d7b565b6136ce9086613dbd565b6136d89190613da9565b949350505050565b60006137216040518060c001604052806000815260200160008152602001600081526020016000815260200160008152602001600063ffffffff1681525090565b336000908152601060209081526040808320815160c081018352815481526001820154938101939093526002810154918301919091526003810154606083018190526004820154608084015260059091015463ffffffff1660a083015290919061378c908790613dbd565b826040015183602001516137a09190613dbd565b6137aa9190613d7b565b826080015183606001516137be9190613dbd565b8784602001516137ce9190613dbd565b6137d89190613d7b565b83516137e49190613e1b565b6137ee9190613ddc565b905060007f000000000000000000000000000000000000000000000000000000000000000060ff168360800151846060015161382a9190613dbd565b8460400151856020015161383e9190613dbd565b6138489190613d7b565b6138529190613da9565b9050600061388360ff7f00000000000000000000000000000000000000000000000000000000000000001688613da9565b90506000620f42406138976102588a613dbd565b6138a19190613da9565b9050600084826138b18587613d7b565b6138bb9190613d7b565b6138c59190613ddc565b90506000811315613938576138d981610f0a565b33600090815260106020908152604091829020825160c08101845281548152600182015492810192909252600281015492820192909252600382015460608201526004820154608082015260059091015463ffffffff1660a082015295505b50989397509295505050505050565b600954610100900460ff16156139b5576000620f424061396a6203d09084613dbd565b6139749190613da9565b905080600a60008282546139889190613d7b565b9091555061399890508183613ddc565b600b60008282546139a99190613e1b565b90915550613084915050565b80600b60008282546139c79190613e1b565b909155505050565b600954610100900460ff1615613a48576000620f42406139f26203d09085613dbd565b6139fc9190613da9565b905080600a6000828254613a109190613d7b565b90915550829050613a218285613ddc565b613a2b9190613ddc565b600b6000828254613a3c9190613e1b565b90915550613a69915050565b613a528183613ddc565b600b6000828254613a639190613e1b565b90915550505b5050565b80600080828254613a7e9190613d7b565b90915550506001600160a01b03821660009081526001602052604081208054839290613aab908490613d7b565b90915550506040518181526001600160a01b038316906000907fddf252ad1be2c89b69c2b068fc378daa952ba7f163c4a11628f55a4df523b3ef906020016131df565b80356001600160a01b0381168114613b0557600080fd5b919050565b60008060408385031215613b1d57600080fd5b82359150613b2d60208401613aee565b90509250929050565b60005b83811015613b51578181015183820152602001613b39565b83811115613b60576000848401525b50505050565b6020815260008251806020840152613b85816040850160208701613b36565b601f01601f19169190910160400192915050565b60008060408385031215613bac57600080fd5b613bb583613aee565b946020939093013593505050565b600060208284031215613bd557600080fd5b5035919050565b600080600060608486031215613bf157600080fd5b613bfa84613aee565b9250613c0860208501613aee565b9150604084013590509250925092565b60008060408385031215613c2b57600080fd5b613c3483613aee565b9150613b2d60208401613aee565b600080600060608486031215613c5757600080fd5b505081359360208301359350604090920135919050565b600060208284031215613c8057600080fd5b6135ad82613aee565b600080600080600080600060e0888a031215613ca457600080fd5b613cad88613aee565b9650613cbb60208901613aee565b95506040880135945060608801359350608088013560ff81168114613cdf57600080fd5b9699959850939692959460a0840135945060c09093013592915050565b801515811461308457600080fd5b600060208284031215613d1c57600080fd5b81356135ad81613cfc565b6020808252600d908201526c73746174652069736e2774203160981b604082015260600190565b634e487b7160e01b600052601160045260246000fd5b600082821015613d7657613d76613d4e565b500390565b60008219821115613d8e57613d8e613d4e565b500190565b634e487b7160e01b600052601260045260246000fd5b600082613db857613db8613d93565b500490565b6000816000190483118215151615613dd757613dd7613d4e565b500290565b60008083128015600160ff1b850184121615613dfa57613dfa613d4e565b6001600160ff1b0384018313811615613e1557613e15613d4e565b50500390565b600080821280156001600160ff1b0384900385131615613e3d57613e3d613d4e565b600160ff1b8390038412811615613e5657613e56613d4e565b50500190565b6020808252601190820152703432b233b2bc1d102327a92124a22222a760791b604082015260600190565b6020808252600d908201526c1a195919d95e081b1bd8dad959609a1b604082015260600190565b600082613ebd57613ebd613d93565b600160ff1b821460001984141615613ed757613ed7613d4e565b500590565b60208082526015908201527412195919d95e08151c9859194e8811561412549151605a1b604082015260600190565b6020808252601d908201527f73696e676c6520616d6f756e74206f766572206e6574202a2072617465000000604082015260600190565b60208082526023908201527f706f6f6c206e657420616d6f756e74206d75737420736d616c6c207468616e2060408201526233302560e81b606082015260800190565b60006001600160ff1b0381841382841380821686840486111615613fab57613fab613d4e565b600160ff1b6000871282811687830589121615613fca57613fca613d4e565b60008712925087820587128484161615613fe657613fe6613d4e565b87850587128184161615613ffc57613ffc613d4e565b505050929093029392505050565b805169ffffffffffffffffffff81168114613b0557600080fd5b600080600080600060a0868803121561403c57600080fd5b6140458661400a565b94506020860151935060408601519250606086015191506140686080870161400a565b90509295509295909350565b600181815b808511156140af57816000190482111561409557614095613d4e565b808516156140a257918102915b93841c9390800290614079565b509250929050565b6000826140c657506001610ca6565b816140d357506000610ca6565b81600181146140e957600281146140f35761410f565b6001915050610ca6565b60ff84111561410457614104613d4e565b50506001821b610ca6565b5060208310610133831016604e8410600b8410161715614132575081810a610ca6565b61413c8383614074565b806000190482111561415057614150613d4e565b029392505050565b60006135ad60ff8416836140b7565b600081810b607f1981141561417e5761417e613d4e565b60000392915050565b600060001982141561419b5761419b613d4e565b5060010190565b600063ffffffff808316818516818304811182151516156141c5576141c5613d4e565b02949350505050565b600082516141e0818460208701613b36565b9190910192915050565b6000602082840312156141fc57600080fd5b81516135ad81613cfc565b60008160020b8360020b627fffff60008213600084138383048511828216161561423357614233613d4e565b627fffff19600085128281168783058712161561425257614252613d4e565b6000871292508582058712848416161561426e5761426e613d4e565b8585058712818416161561428457614284613d4e565b5050509290910295945050505050565b60008160020b8360020b806142ab576142ab613d93565b627fffff198214600019821416156142c5576142c5613d4e565b9005939250505056fe303db7636b0e071f088d2cd5e8463efe513531272d61a18739b21053f6d7b430a2646970667358221220e569da8ffe54df029978636f96adc345a461de775df300306ede0e953546a6de64736f6c634300080a0033",
    "sourcePath": "d:/contract/hedgex/Single.sol",
    "compiler": {
        "name": "solc",
        "version": "0.8.10+commit.fc410830"
    },
    "functionHashes": {
        "DOMAIN_SEPARATOR()": "3644e515",
        "PERMIT_TYPEHASH()": "30adf81f",
        "acceptFeeToSetter()": "2dd072a0",
        "addLiquidity(uint256,address)": "c95f9d0e",
        "allowance(address,address)": "dd62ed3e",
        "amountDecimal()": "2be90282",
        "approve(address,uint256)": "095ea7b3",
        "balanceOf(address)": "70a08231",
        "closeLong(uint256,uint256,uint256)": "90edbeb0",
        "closeShort(uint256,uint256,uint256)": "807ca353",
        "dailyInterestRateBase()": "8967b694",
        "decimals()": "313ce567",
        "detectSlide(address,address)": "ddcb04c2",
        "divConst()": "7e4856c4",
        "explosive(address,address)": "89d408ff",
        "explosivePool()": "3e31fb45",
        "feeDivide()": "d375454f",
        "feeOn()": "4f335d0a",
        "feeRate()": "978bbdb9",
        "feeTo()": "017e7e58",
        "feeToSetter()": "094b7415",
        "feedPrice()": "a04eecae",
        "feedPriceDecimal()": "08c73e74",
        "foceCloseRewardGas()": "3d5f8e7a",
        "forceCloseAccount(address,address)": "6422e08f",
        "gasUsdPriceFeed()": "6afb3760",
        "getGasUsdPrice()": "8ed3896c",
        "getLatestPrice()": "8e15f473",
        "getPoolNet()": "7bb71a97",
        "getPoolPosition()": "73e6054b",
        "interestRewardRate()": "01bcc908",
        "isStart()": "8a55d36e",
        "leverage()": "2c86d98e",
        "minPool()": "2678b8fd",
        "name()": "06fdde03",
        "nonces(address)": "7ecebe00",
        "openLong(uint256,uint256,uint256)": "6c2ee359",
        "openShort(uint256,uint256,uint256)": "71b31707",
        "permit(address,address,uint256,uint256,uint8,bytes32,bytes32)": "d505accf",
        "poolExplosivePrice()": "33d6f1f7",
        "poolLeftAmountRate()": "ce8ad1d2",
        "poolLongAmount()": "e5984319",
        "poolLongPrice()": "994af3ae",
        "poolNetAmountRateLimitOpen()": "cd8bb6cd",
        "poolNetAmountRateLimitPrice()": "1cce9103",
        "poolShortAmount()": "8e406892",
        "poolShortPrice()": "971059fb",
        "poolState()": "641ad8a9",
        "rechargeMargin(uint256)": "11ce83f8",
        "removeLiquidity(uint256,address)": "05fe138b",
        "setFeeOn(bool)": "fc4064b3",
        "setFeeTo(address)": "f46901ed",
        "singleCloseLimitRate()": "7aaae950",
        "singleOpenLimitRate()": "5d0291ac",
        "slideP()": "2c204fa8",
        "sumFee()": "190b065f",
        "symbol()": "95d89b41",
        "token0()": "0dfe1681",
        "token0Decimal()": "9ddc230a",
        "totalPool()": "ecfb49a3",
        "totalSupply()": "18160ddd",
        "traders(address)": "92a88fa2",
        "transfer(address,uint256)": "a9059cbb",
        "transferFeeToSetter(address)": "c250332f",
        "transferFrom(address,address,uint256)": "23b872dd",
        "withdrawFee()": "e941fa78",
        "withdrawMargin(uint256)": "0cea7534"
    },
    "gasEstimates": {
        "creation": {
            "codeDepositCost": "3437600",
            "executionCost": "infinite",
            "totalCost": "infinite"
        },
        "external": {
            "DOMAIN_SEPARATOR()": "infinite",
            "PERMIT_TYPEHASH()": "330",
            "acceptFeeToSetter()": "50872",
            "addLiquidity(uint256,address)": "infinite",
            "allowance(address,address)": "infinite",
            "amountDecimal()": "infinite",
            "approve(address,uint256)": "24641",
            "balanceOf(address)": "2652",
            "closeLong(uint256,uint256,uint256)": "infinite",
            "closeShort(uint256,uint256,uint256)": "infinite",
            "dailyInterestRateBase()": "316",
            "decimals()": "infinite",
            "detectSlide(address,address)": "infinite",
            "divConst()": "339",
            "explosive(address,address)": "infinite",
            "explosivePool()": "infinite",
            "feeDivide()": "271",
            "feeOn()": "2411",
            "feeRate()": "359",
            "feeTo()": "2396",
            "feeToSetter()": "2417",
            "feedPrice()": "infinite",
            "feedPriceDecimal()": "infinite",
            "foceCloseRewardGas()": "329",
            "forceCloseAccount(address,address)": "infinite",
            "gasUsdPriceFeed()": "infinite",
            "getGasUsdPrice()": "infinite",
            "getLatestPrice()": "infinite",
            "getPoolNet()": "infinite",
            "getPoolPosition()": "12983",
            "interestRewardRate()": "296",
            "isStart()": "2378",
            "leverage()": "infinite",
            "minPool()": "infinite",
            "name()": "infinite",
            "nonces(address)": "2587",
            "openLong(uint256,uint256,uint256)": "infinite",
            "openShort(uint256,uint256,uint256)": "infinite",
            "permit(address,address,uint256,uint256,uint8,bytes32,bytes32)": "infinite",
            "poolExplosivePrice()": "2385",
            "poolLeftAmountRate()": "337",
            "poolLongAmount()": "2361",
            "poolLongPrice()": "2363",
            "poolNetAmountRateLimitOpen()": "320",
            "poolNetAmountRateLimitPrice()": "277",
            "poolShortAmount()": "2407",
            "poolShortPrice()": "2428",
            "poolState()": "2464",
            "rechargeMargin(uint256)": "infinite",
            "removeLiquidity(uint256,address)": "infinite",
            "setFeeOn(bool)": "26831",
            "setFeeTo(address)": "26843",
            "singleCloseLimitRate()": "295",
            "singleOpenLimitRate()": "316",
            "slideP()": "273",
            "sumFee()": "2430",
            "symbol()": "infinite",
            "token0()": "infinite",
            "token0Decimal()": "infinite",
            "totalPool()": "2405",
            "totalSupply()": "2408",
            "traders(address)": "13291",
            "transfer(address,uint256)": "51207",
            "transferFeeToSetter(address)": "26778",
            "transferFrom(address,address,uint256)": "infinite",
            "withdrawFee()": "infinite",
            "withdrawMargin(uint256)": "infinite"
        },
        "internal": {
            "feeCharge(uint256)": "51151",
            "feeCharge(uint256,int256)": "infinite",
            "getAccountNet(struct HedgexSingle.Trader memory)": "infinite",
            "getAccountNet(struct HedgexSingle.Trader memory,uint256)": "infinite",
            "getPoolNet(uint256)": "infinite",
            "judegOpen(uint256,uint256)": "infinite",
            "poolLimitTrade(int8,uint256)": "infinite",
            "slideTradePrice(uint256,int256)": "infinite"
        }
    }
}