{
    "contractName": "HedgexSingle",
    "abi": [
        {
            "inputs": [
                {
                    "internalType": "address",
                    "name": "_token0",
                    "type": "address"
                },
                {
                    "internalType": "address",
                    "name": "_feedPrice",
                    "type": "address"
                },
                {
                    "internalType": "uint256",
                    "name": "_minStartPool",
                    "type": "uint256"
                },
                {
                    "internalType": "uint8",
                    "name": "_leverage",
                    "type": "uint8"
                },
                {
                    "internalType": "int8",
                    "name": "_amountDecimal",
                    "type": "int8"
                }
            ],
            "stateMutability": "nonpayable",
            "type": "constructor"
        },
        {
            "anonymous": false,
            "inputs": [
                {
                    "indexed": true,
                    "internalType": "address",
                    "name": "owner",
                    "type": "address"
                },
                {
                    "indexed": true,
                    "internalType": "address",
                    "name": "spender",
                    "type": "address"
                },
                {
                    "indexed": false,
                    "internalType": "uint256",
                    "name": "value",
                    "type": "uint256"
                }
            ],
            "name": "Approval",
            "type": "event"
        },
        {
            "anonymous": false,
            "inputs": [
                {
                    "indexed": true,
                    "internalType": "address",
                    "name": "sender",
                    "type": "address"
                },
                {
                    "indexed": false,
                    "internalType": "uint256",
                    "name": "amount",
                    "type": "uint256"
                }
            ],
            "name": "Burn",
            "type": "event"
        },
        {
            "anonymous": false,
            "inputs": [
                {
                    "indexed": true,
                    "internalType": "address",
                    "name": "user",
                    "type": "address"
                },
                {
                    "indexed": false,
                    "internalType": "int8",
                    "name": "direction",
                    "type": "int8"
                },
                {
                    "indexed": false,
                    "internalType": "uint256",
                    "name": "amount",
                    "type": "uint256"
                },
                {
                    "indexed": false,
                    "internalType": "uint256",
                    "name": "price",
                    "type": "uint256"
                }
            ],
            "name": "Explosive",
            "type": "event"
        },
        {
            "anonymous": false,
            "inputs": [
                {
                    "indexed": false,
                    "internalType": "int256",
                    "name": "total",
                    "type": "int256"
                },
                {
                    "indexed": false,
                    "internalType": "uint256",
                    "name": "la",
                    "type": "uint256"
                },
                {
                    "indexed": false,
                    "internalType": "uint256",
                    "name": "lp",
                    "type": "uint256"
                },
                {
                    "indexed": false,
                    "internalType": "uint256",
                    "name": "sa",
                    "type": "uint256"
                },
                {
                    "indexed": false,
                    "internalType": "uint256",
                    "name": "sp",
                    "type": "uint256"
                },
                {
                    "indexed": false,
                    "internalType": "uint256",
                    "name": "ep",
                    "type": "uint256"
                }
            ],
            "name": "ExplosivePool",
            "type": "event"
        },
        {
            "anonymous": false,
            "inputs": [
                {
                    "indexed": true,
                    "internalType": "address",
                    "name": "account",
                    "type": "address"
                },
                {
                    "indexed": false,
                    "internalType": "uint256",
                    "name": "long",
                    "type": "uint256"
                },
                {
                    "indexed": false,
                    "internalType": "uint256",
                    "name": "short",
                    "type": "uint256"
                },
                {
                    "indexed": false,
                    "internalType": "uint256",
                    "name": "price",
                    "type": "uint256"
                }
            ],
            "name": "ForceClose",
            "type": "event"
        },
        {
            "anonymous": false,
            "inputs": [
                {
                    "indexed": true,
                    "internalType": "address",
                    "name": "sender",
                    "type": "address"
                },
                {
                    "indexed": false,
                    "internalType": "uint256",
                    "name": "amount",
                    "type": "uint256"
                }
            ],
            "name": "Mint",
            "type": "event"
        },
        {
            "anonymous": false,
            "inputs": [
                {
                    "indexed": true,
                    "internalType": "address",
                    "name": "sender",
                    "type": "address"
                },
                {
                    "indexed": false,
                    "internalType": "uint256",
                    "name": "amount",
                    "type": "uint256"
                }
            ],
            "name": "Recharge",
            "type": "event"
        },
        {
            "anonymous": false,
            "inputs": [
                {
                    "indexed": true,
                    "internalType": "address",
                    "name": "user",
                    "type": "address"
                },
                {
                    "indexed": false,
                    "internalType": "int8",
                    "name": "direction",
                    "type": "int8"
                },
                {
                    "indexed": false,
                    "internalType": "uint256",
                    "name": "amount",
                    "type": "uint256"
                },
                {
                    "indexed": false,
                    "internalType": "uint256",
                    "name": "price",
                    "type": "uint256"
                }
            ],
            "name": "TakeInterest",
            "type": "event"
        },
        {
            "anonymous": false,
            "inputs": [
                {
                    "indexed": true,
                    "internalType": "address",
                    "name": "sender",
                    "type": "address"
                },
                {
                    "indexed": false,
                    "internalType": "int8",
                    "name": "direction",
                    "type": "int8"
                },
                {
                    "indexed": false,
                    "internalType": "uint256",
                    "name": "amount",
                    "type": "uint256"
                },
                {
                    "indexed": false,
                    "internalType": "uint256",
                    "name": "price",
                    "type": "uint256"
                }
            ],
            "name": "Trade",
            "type": "event"
        },
        {
            "anonymous": false,
            "inputs": [
                {
                    "indexed": true,
                    "internalType": "address",
                    "name": "from",
                    "type": "address"
                },
                {
                    "indexed": true,
                    "internalType": "address",
                    "name": "to",
                    "type": "address"
                },
                {
                    "indexed": false,
                    "internalType": "uint256",
                    "name": "value",
                    "type": "uint256"
                }
            ],
            "name": "Transfer",
            "type": "event"
        },
        {
            "anonymous": false,
            "inputs": [
                {
                    "indexed": true,
                    "internalType": "address",
                    "name": "sender",
                    "type": "address"
                },
                {
                    "indexed": false,
                    "internalType": "uint256",
                    "name": "amount",
                    "type": "uint256"
                }
            ],
            "name": "Withdraw",
            "type": "event"
        },
        {
            "inputs": [],
            "name": "DOMAIN_SEPARATOR",
            "outputs": [
                {
                    "internalType": "bytes32",
                    "name": "",
                    "type": "bytes32"
                }
            ],
            "stateMutability": "view",
            "type": "function"
        },
        {
            "inputs": [],
            "name": "PERMIT_TYPEHASH",
            "outputs": [
                {
                    "internalType": "bytes32",
                    "name": "",
                    "type": "bytes32"
                }
            ],
            "stateMutability": "view",
            "type": "function"
        },
        {
            "inputs": [],
            "name": "R0",
            "outputs": [
                {
                    "internalType": "int256",
                    "name": "initR",
                    "type": "int256"
                },
                {
                    "internalType": "uint256",
                    "name": "number",
                    "type": "uint256"
                },
                {
                    "internalType": "int256",
                    "name": "deltaR",
                    "type": "int256"
                }
            ],
            "stateMutability": "view",
            "type": "function"
        },
        {
            "inputs": [],
            "name": "R1",
            "outputs": [
                {
                    "internalType": "int256",
                    "name": "initR",
                    "type": "int256"
                },
                {
                    "internalType": "uint256",
                    "name": "number",
                    "type": "uint256"
                },
                {
                    "internalType": "int256",
                    "name": "deltaR",
                    "type": "int256"
                }
            ],
            "stateMutability": "view",
            "type": "function"
        },
        {
            "inputs": [],
            "name": "R2",
            "outputs": [
                {
                    "internalType": "int256",
                    "name": "initR",
                    "type": "int256"
                },
                {
                    "internalType": "uint256",
                    "name": "number",
                    "type": "uint256"
                },
                {
                    "internalType": "int256",
                    "name": "deltaR",
                    "type": "int256"
                }
            ],
            "stateMutability": "view",
            "type": "function"
        },
        {
            "inputs": [],
            "name": "R3",
            "outputs": [
                {
                    "internalType": "int256",
                    "name": "initR",
                    "type": "int256"
                },
                {
                    "internalType": "uint256",
                    "name": "number",
                    "type": "uint256"
                },
                {
                    "internalType": "int256",
                    "name": "deltaR",
                    "type": "int256"
                }
            ],
            "stateMutability": "view",
            "type": "function"
        },
        {
            "inputs": [],
            "name": "acceptSetter",
            "outputs": [],
            "stateMutability": "nonpayable",
            "type": "function"
        },
        {
            "inputs": [
                {
                    "internalType": "uint256",
                    "name": "amount",
                    "type": "uint256"
                },
                {
                    "internalType": "address",
                    "name": "to",
                    "type": "address"
                }
            ],
            "name": "addLiquidity",
            "outputs": [],
            "stateMutability": "nonpayable",
            "type": "function"
        },
        {
            "inputs": [
                {
                    "internalType": "address",
                    "name": "",
                    "type": "address"
                },
                {
                    "internalType": "address",
                    "name": "",
                    "type": "address"
                }
            ],
            "name": "allowance",
            "outputs": [
                {
                    "internalType": "uint256",
                    "name": "",
                    "type": "uint256"
                }
            ],
            "stateMutability": "view",
            "type": "function"
        },
        {
            "inputs": [],
            "name": "amountDecimal",
            "outputs": [
                {
                    "internalType": "int8",
                    "name": "",
                    "type": "int8"
                }
            ],
            "stateMutability": "view",
            "type": "function"
        },
        {
            "inputs": [
                {
                    "internalType": "address",
                    "name": "spender",
                    "type": "address"
                },
                {
                    "internalType": "uint256",
                    "name": "value",
                    "type": "uint256"
                }
            ],
            "name": "approve",
            "outputs": [
                {
                    "internalType": "bool",
                    "name": "",
                    "type": "bool"
                }
            ],
            "stateMutability": "nonpayable",
            "type": "function"
        },
        {
            "inputs": [
                {
                    "internalType": "address",
                    "name": "",
                    "type": "address"
                }
            ],
            "name": "balanceOf",
            "outputs": [
                {
                    "internalType": "uint256",
                    "name": "",
                    "type": "uint256"
                }
            ],
            "stateMutability": "view",
            "type": "function"
        },
        {
            "inputs": [],
            "name": "canAddLiquidity",
            "outputs": [
                {
                    "internalType": "bool",
                    "name": "",
                    "type": "bool"
                }
            ],
            "stateMutability": "view",
            "type": "function"
        },
        {
            "inputs": [],
            "name": "canOpen",
            "outputs": [
                {
                    "internalType": "bool",
                    "name": "",
                    "type": "bool"
                }
            ],
            "stateMutability": "view",
            "type": "function"
        },
        {
            "inputs": [
                {
                    "internalType": "uint256",
                    "name": "priceExp",
                    "type": "uint256"
                },
                {
                    "internalType": "uint256",
                    "name": "amount",
                    "type": "uint256"
                },
                {
                    "internalType": "uint256",
                    "name": "deadline",
                    "type": "uint256"
                }
            ],
            "name": "closeLong",
            "outputs": [],
            "stateMutability": "nonpayable",
            "type": "function"
        },
        {
            "inputs": [
                {
                    "internalType": "uint256",
                    "name": "priceExp",
                    "type": "uint256"
                },
                {
                    "internalType": "uint256",
                    "name": "amount",
                    "type": "uint256"
                },
                {
                    "internalType": "uint256",
                    "name": "deadline",
                    "type": "uint256"
                }
            ],
            "name": "closeShort",
            "outputs": [],
            "stateMutability": "nonpayable",
            "type": "function"
        },
        {
            "inputs": [],
            "name": "dailyInterestRateBase",
            "outputs": [
                {
                    "internalType": "uint16",
                    "name": "",
                    "type": "uint16"
                }
            ],
            "stateMutability": "view",
            "type": "function"
        },
        {
            "inputs": [],
            "name": "decimals",
            "outputs": [
                {
                    "internalType": "uint8",
                    "name": "",
                    "type": "uint8"
                }
            ],
            "stateMutability": "view",
            "type": "function"
        },
        {
            "inputs": [
                {
                    "internalType": "address",
                    "name": "account",
                    "type": "address"
                },
                {
                    "internalType": "address",
                    "name": "to",
                    "type": "address"
                }
            ],
            "name": "detectSlide",
            "outputs": [],
            "stateMutability": "nonpayable",
            "type": "function"
        },
        {
            "inputs": [],
            "name": "divConst",
            "outputs": [
                {
                    "internalType": "uint24",
                    "name": "",
                    "type": "uint24"
                }
            ],
            "stateMutability": "view",
            "type": "function"
        },
        {
            "inputs": [
                {
                    "internalType": "address",
                    "name": "account",
                    "type": "address"
                },
                {
                    "internalType": "address",
                    "name": "to",
                    "type": "address"
                }
            ],
            "name": "explosive",
            "outputs": [],
            "stateMutability": "nonpayable",
            "type": "function"
        },
        {
            "inputs": [],
            "name": "explosivePool",
            "outputs": [],
            "stateMutability": "nonpayable",
            "type": "function"
        },
        {
            "inputs": [],
            "name": "feeDivide",
            "outputs": [
                {
                    "internalType": "uint24",
                    "name": "",
                    "type": "uint24"
                }
            ],
            "stateMutability": "view",
            "type": "function"
        },
        {
            "inputs": [],
            "name": "feeOn",
            "outputs": [
                {
                    "internalType": "bool",
                    "name": "",
                    "type": "bool"
                }
            ],
            "stateMutability": "view",
            "type": "function"
        },
        {
            "inputs": [],
            "name": "feeRate",
            "outputs": [
                {
                    "internalType": "uint16",
                    "name": "",
                    "type": "uint16"
                }
            ],
            "stateMutability": "view",
            "type": "function"
        },
        {
            "inputs": [],
            "name": "feeTo",
            "outputs": [
                {
                    "internalType": "address",
                    "name": "",
                    "type": "address"
                }
            ],
            "stateMutability": "view",
            "type": "function"
        },
        {
            "inputs": [],
            "name": "feedPrice",
            "outputs": [
                {
                    "internalType": "contract IIndexPrice",
                    "name": "",
                    "type": "address"
                }
            ],
            "stateMutability": "view",
            "type": "function"
        },
        {
            "inputs": [
                {
                    "internalType": "address",
                    "name": "account",
                    "type": "address"
                },
                {
                    "internalType": "address",
                    "name": "to",
                    "type": "address"
                }
            ],
            "name": "forceCloseAccount",
            "outputs": [],
            "stateMutability": "nonpayable",
            "type": "function"
        },
        {
            "inputs": [],
            "name": "getLatestPrice",
            "outputs": [
                {
                    "internalType": "uint256",
                    "name": "",
                    "type": "uint256"
                },
                {
                    "internalType": "int256",
                    "name": "",
                    "type": "int256"
                }
            ],
            "stateMutability": "view",
            "type": "function"
        },
        {
            "inputs": [],
            "name": "getPoolNet",
            "outputs": [
                {
                    "internalType": "int256",
                    "name": "",
                    "type": "int256"
                }
            ],
            "stateMutability": "view",
            "type": "function"
        },
        {
            "inputs": [],
            "name": "getPoolPosition",
            "outputs": [
                {
                    "internalType": "int256",
                    "name": "",
                    "type": "int256"
                },
                {
                    "internalType": "uint256",
                    "name": "",
                    "type": "uint256"
                },
                {
                    "internalType": "uint256",
                    "name": "",
                    "type": "uint256"
                },
                {
                    "internalType": "uint256",
                    "name": "",
                    "type": "uint256"
                },
                {
                    "internalType": "uint256",
                    "name": "",
                    "type": "uint256"
                },
                {
                    "internalType": "uint8",
                    "name": "",
                    "type": "uint8"
                }
            ],
            "stateMutability": "view",
            "type": "function"
        },
        {
            "inputs": [],
            "name": "interestRewardRate",
            "outputs": [
                {
                    "internalType": "uint24",
                    "name": "",
                    "type": "uint24"
                }
            ],
            "stateMutability": "view",
            "type": "function"
        },
        {
            "inputs": [],
            "name": "isStart",
            "outputs": [
                {
                    "internalType": "bool",
                    "name": "",
                    "type": "bool"
                }
            ],
            "stateMutability": "view",
            "type": "function"
        },
        {
            "inputs": [],
            "name": "keepMarginScale",
            "outputs": [
                {
                    "internalType": "uint8",
                    "name": "",
                    "type": "uint8"
                }
            ],
            "stateMutability": "view",
            "type": "function"
        },
        {
            "inputs": [],
            "name": "leverage",
            "outputs": [
                {
                    "internalType": "uint8",
                    "name": "",
                    "type": "uint8"
                }
            ],
            "stateMutability": "view",
            "type": "function"
        },
        {
            "inputs": [],
            "name": "minPool",
            "outputs": [
                {
                    "internalType": "uint256",
                    "name": "",
                    "type": "uint256"
                }
            ],
            "stateMutability": "view",
            "type": "function"
        },
        {
            "inputs": [],
            "name": "name",
            "outputs": [
                {
                    "internalType": "string",
                    "name": "",
                    "type": "string"
                }
            ],
            "stateMutability": "view",
            "type": "function"
        },
        {
            "inputs": [
                {
                    "internalType": "address",
                    "name": "",
                    "type": "address"
                }
            ],
            "name": "nonces",
            "outputs": [
                {
                    "internalType": "uint256",
                    "name": "",
                    "type": "uint256"
                }
            ],
            "stateMutability": "view",
            "type": "function"
        },
        {
            "inputs": [
                {
                    "internalType": "uint256",
                    "name": "priceExp",
                    "type": "uint256"
                },
                {
                    "internalType": "uint256",
                    "name": "amount",
                    "type": "uint256"
                },
                {
                    "internalType": "uint256",
                    "name": "deadline",
                    "type": "uint256"
                }
            ],
            "name": "openLong",
            "outputs": [],
            "stateMutability": "nonpayable",
            "type": "function"
        },
        {
            "inputs": [
                {
                    "internalType": "uint256",
                    "name": "priceExp",
                    "type": "uint256"
                },
                {
                    "internalType": "uint256",
                    "name": "amount",
                    "type": "uint256"
                },
                {
                    "internalType": "uint256",
                    "name": "deadline",
                    "type": "uint256"
                }
            ],
            "name": "openShort",
            "outputs": [],
            "stateMutability": "nonpayable",
            "type": "function"
        },
        {
            "inputs": [],
            "name": "owner",
            "outputs": [
                {
                    "internalType": "address",
                    "name": "",
                    "type": "address"
                }
            ],
            "stateMutability": "view",
            "type": "function"
        },
        {
            "inputs": [
                {
                    "internalType": "address",
                    "name": "owner",
                    "type": "address"
                },
                {
                    "internalType": "address",
                    "name": "spender",
                    "type": "address"
                },
                {
                    "internalType": "uint256",
                    "name": "value",
                    "type": "uint256"
                },
                {
                    "internalType": "uint256",
                    "name": "deadline",
                    "type": "uint256"
                },
                {
                    "internalType": "uint8",
                    "name": "v",
                    "type": "uint8"
                },
                {
                    "internalType": "bytes32",
                    "name": "r",
                    "type": "bytes32"
                },
                {
                    "internalType": "bytes32",
                    "name": "s",
                    "type": "bytes32"
                }
            ],
            "name": "permit",
            "outputs": [],
            "stateMutability": "nonpayable",
            "type": "function"
        },
        {
            "inputs": [],
            "name": "poolExplosivePrice",
            "outputs": [
                {
                    "internalType": "uint256",
                    "name": "",
                    "type": "uint256"
                }
            ],
            "stateMutability": "view",
            "type": "function"
        },
        {
            "inputs": [],
            "name": "poolLeftAmountRate",
            "outputs": [
                {
                    "internalType": "uint24",
                    "name": "",
                    "type": "uint24"
                }
            ],
            "stateMutability": "view",
            "type": "function"
        },
        {
            "inputs": [],
            "name": "poolLongAmount",
            "outputs": [
                {
                    "internalType": "uint256",
                    "name": "",
                    "type": "uint256"
                }
            ],
            "stateMutability": "view",
            "type": "function"
        },
        {
            "inputs": [],
            "name": "poolLongPrice",
            "outputs": [
                {
                    "internalType": "uint256",
                    "name": "",
                    "type": "uint256"
                }
            ],
            "stateMutability": "view",
            "type": "function"
        },
        {
            "inputs": [],
            "name": "poolNetAmountRateLimitOpen",
            "outputs": [
                {
                    "internalType": "int24",
                    "name": "",
                    "type": "int24"
                }
            ],
            "stateMutability": "view",
            "type": "function"
        },
        {
            "inputs": [],
            "name": "poolNetAmountRateLimitPrice",
            "outputs": [
                {
                    "internalType": "int24",
                    "name": "",
                    "type": "int24"
                }
            ],
            "stateMutability": "view",
            "type": "function"
        },
        {
            "inputs": [],
            "name": "poolShortAmount",
            "outputs": [
                {
                    "internalType": "uint256",
                    "name": "",
                    "type": "uint256"
                }
            ],
            "stateMutability": "view",
            "type": "function"
        },
        {
            "inputs": [],
            "name": "poolShortPrice",
            "outputs": [
                {
                    "internalType": "uint256",
                    "name": "",
                    "type": "uint256"
                }
            ],
            "stateMutability": "view",
            "type": "function"
        },
        {
            "inputs": [],
            "name": "poolState",
            "outputs": [
                {
                    "internalType": "uint8",
                    "name": "",
                    "type": "uint8"
                }
            ],
            "stateMutability": "view",
            "type": "function"
        },
        {
            "inputs": [
                {
                    "internalType": "uint256",
                    "name": "amount",
                    "type": "uint256"
                }
            ],
            "name": "rechargeMargin",
            "outputs": [],
            "stateMutability": "nonpayable",
            "type": "function"
        },
        {
            "inputs": [
                {
                    "internalType": "uint256",
                    "name": "liquidity",
                    "type": "uint256"
                },
                {
                    "internalType": "address",
                    "name": "to",
                    "type": "address"
                }
            ],
            "name": "removeLiquidity",
            "outputs": [],
            "stateMutability": "nonpayable",
            "type": "function"
        },
        {
            "inputs": [
                {
                    "internalType": "bool",
                    "name": "b",
                    "type": "bool"
                }
            ],
            "name": "setCanAddLiquidity",
            "outputs": [],
            "stateMutability": "nonpayable",
            "type": "function"
        },
        {
            "inputs": [
                {
                    "internalType": "bool",
                    "name": "b",
                    "type": "bool"
                }
            ],
            "name": "setCanOpen",
            "outputs": [],
            "stateMutability": "nonpayable",
            "type": "function"
        },
        {
            "inputs": [
                {
                    "internalType": "bool",
                    "name": "b",
                    "type": "bool"
                }
            ],
            "name": "setFeeOn",
            "outputs": [],
            "stateMutability": "nonpayable",
            "type": "function"
        },
        {
            "inputs": [
                {
                    "internalType": "uint16",
                    "name": "value",
                    "type": "uint16"
                }
            ],
            "name": "setFeeRate",
            "outputs": [],
            "stateMutability": "nonpayable",
            "type": "function"
        },
        {
            "inputs": [
                {
                    "internalType": "address",
                    "name": "_feeTo",
                    "type": "address"
                }
            ],
            "name": "setFeeTo",
            "outputs": [],
            "stateMutability": "nonpayable",
            "type": "function"
        },
        {
            "inputs": [
                {
                    "internalType": "address",
                    "name": "_feedPrice",
                    "type": "address"
                }
            ],
            "name": "setFeedPrice",
            "outputs": [],
            "stateMutability": "nonpayable",
            "type": "function"
        },
        {
            "inputs": [
                {
                    "internalType": "uint8",
                    "name": "value",
                    "type": "uint8"
                }
            ],
            "name": "setKeepMarginScale",
            "outputs": [],
            "stateMutability": "nonpayable",
            "type": "function"
        },
        {
            "inputs": [
                {
                    "internalType": "int24",
                    "name": "value",
                    "type": "int24"
                }
            ],
            "name": "setPoolNetAmountRateLimitOpen",
            "outputs": [],
            "stateMutability": "nonpayable",
            "type": "function"
        },
        {
            "inputs": [
                {
                    "internalType": "int24",
                    "name": "value",
                    "type": "int24"
                }
            ],
            "name": "setPoolNetAmountRateLimitPrice",
            "outputs": [],
            "stateMutability": "nonpayable",
            "type": "function"
        },
        {
            "inputs": [],
            "name": "singleCloseLimitRate",
            "outputs": [
                {
                    "internalType": "uint24",
                    "name": "",
                    "type": "uint24"
                }
            ],
            "stateMutability": "view",
            "type": "function"
        },
        {
            "inputs": [],
            "name": "singleOpenLimitRate",
            "outputs": [
                {
                    "internalType": "uint16",
                    "name": "",
                    "type": "uint16"
                }
            ],
            "stateMutability": "view",
            "type": "function"
        },
        {
            "inputs": [],
            "name": "slideP",
            "outputs": [
                {
                    "internalType": "uint8",
                    "name": "",
                    "type": "uint8"
                }
            ],
            "stateMutability": "view",
            "type": "function"
        },
        {
            "inputs": [],
            "name": "sumFee",
            "outputs": [
                {
                    "internalType": "uint256",
                    "name": "",
                    "type": "uint256"
                }
            ],
            "stateMutability": "view",
            "type": "function"
        },
        {
            "inputs": [],
            "name": "symbol",
            "outputs": [
                {
                    "internalType": "string",
                    "name": "",
                    "type": "string"
                }
            ],
            "stateMutability": "view",
            "type": "function"
        },
        {
            "inputs": [],
            "name": "token0",
            "outputs": [
                {
                    "internalType": "address",
                    "name": "",
                    "type": "address"
                }
            ],
            "stateMutability": "view",
            "type": "function"
        },
        {
            "inputs": [],
            "name": "token0Decimal",
            "outputs": [
                {
                    "internalType": "uint256",
                    "name": "",
                    "type": "uint256"
                }
            ],
            "stateMutability": "view",
            "type": "function"
        },
        {
            "inputs": [],
            "name": "totalPool",
            "outputs": [
                {
                    "internalType": "int256",
                    "name": "",
                    "type": "int256"
                }
            ],
            "stateMutability": "view",
            "type": "function"
        },
        {
            "inputs": [],
            "name": "totalSupply",
            "outputs": [
                {
                    "internalType": "uint256",
                    "name": "",
                    "type": "uint256"
                }
            ],
            "stateMutability": "view",
            "type": "function"
        },
        {
            "inputs": [
                {
                    "internalType": "address",
                    "name": "",
                    "type": "address"
                }
            ],
            "name": "traders",
            "outputs": [
                {
                    "internalType": "int256",
                    "name": "margin",
                    "type": "int256"
                },
                {
                    "internalType": "uint256",
                    "name": "longAmount",
                    "type": "uint256"
                },
                {
                    "internalType": "uint256",
                    "name": "longPrice",
                    "type": "uint256"
                },
                {
                    "internalType": "uint256",
                    "name": "shortAmount",
                    "type": "uint256"
                },
                {
                    "internalType": "uint256",
                    "name": "shortPrice",
                    "type": "uint256"
                },
                {
                    "internalType": "uint32",
                    "name": "interestDay",
                    "type": "uint32"
                }
            ],
            "stateMutability": "view",
            "type": "function"
        },
        {
            "inputs": [
                {
                    "internalType": "address",
                    "name": "to",
                    "type": "address"
                },
                {
                    "internalType": "uint256",
                    "name": "value",
                    "type": "uint256"
                }
            ],
            "name": "transfer",
            "outputs": [
                {
                    "internalType": "bool",
                    "name": "",
                    "type": "bool"
                }
            ],
            "stateMutability": "nonpayable",
            "type": "function"
        },
        {
            "inputs": [
                {
                    "internalType": "address",
                    "name": "from",
                    "type": "address"
                },
                {
                    "internalType": "address",
                    "name": "to",
                    "type": "address"
                },
                {
                    "internalType": "uint256",
                    "name": "value",
                    "type": "uint256"
                }
            ],
            "name": "transferFrom",
            "outputs": [
                {
                    "internalType": "bool",
                    "name": "",
                    "type": "bool"
                }
            ],
            "stateMutability": "nonpayable",
            "type": "function"
        },
        {
            "inputs": [
                {
                    "internalType": "address",
                    "name": "_owner",
                    "type": "address"
                }
            ],
            "name": "transferOwner",
            "outputs": [],
            "stateMutability": "nonpayable",
            "type": "function"
        },
        {
            "inputs": [],
            "name": "withdrawFee",
            "outputs": [],
            "stateMutability": "nonpayable",
            "type": "function"
        },
        {
            "inputs": [
                {
                    "internalType": "uint256",
                    "name": "amount",
                    "type": "uint256"
                }
            ],
            "name": "withdrawMargin",
            "outputs": [],
            "stateMutability": "nonpayable",
            "type": "function"
        }
    ],
    "bytecode": "6101606040526006805461ffff60a01b191661010160a01b17905560016008556009805466ffffffffffff001916660493e0061a80001790556016805463ffff00ff1916630258001e1790553480156200005857600080fd5b5060405162004d4538038062004d458339810160408190526200007b91620002df565b846001600160a01b031663313ce5676040518163ffffffff1660e01b8152600401602060405180830381865afa158015620000ba573d6000803e3d6000fd5b505050506040513d601f19601f82011682018060405250810190620000e091906200034f565b604080518082018252600c81526b48656467657853696e676c6560a01b6020918201528151808301835260018152603160f81b9082015281517f8b73c3c69bb8fe3d512ecc4cf759cc79239f7b179b0ffacaa9a75d522b39400f918101919091527fdbb8f54117374490c454ab41b80d95cf4a0c3b286124d9b83e346d854dc3efcd918101919091527fc89efdaa54c0f20c7adf612882df0950f5a951637e0307cdcb4c672f298b8bc660608201524660808201523060a082015260c00160408051601f19818403018152828252805160209182012060a05260ff9093166080526006805460ff60b01b1916600160b01b179055601e80546001600160a01b03808a166001600160a01b031990921691909117909155881661010081905263313ce56760e01b83529051909263313ce56792600480820193918290030181865afa15801562000233573d6000803e3d6000fd5b505050506040513d601f19601f820116820180604052508101906200025991906200034f565b6200026690600a62000489565b6101205260c09290925260ff1660e0526009805460ff191690556016805461ff00191661010017905560000b610140525050600480546001600160a01b031916331790556200049a565b80516001600160a01b0381168114620002c857600080fd5b919050565b805160ff81168114620002c857600080fd5b600080600080600060a08688031215620002f857600080fd5b6200030386620002b0565b94506200031360208701620002b0565b9350604086015192506200032a60608701620002cd565b915060808601518060000b81146200034157600080fd5b809150509295509295909350565b6000602082840312156200036257600080fd5b6200036d82620002cd565b9392505050565b634e487b7160e01b600052601160045260246000fd5b600181815b80851115620003cb578160001904821115620003af57620003af62000374565b80851615620003bd57918102915b93841c93908002906200038f565b509250929050565b600082620003e45750600162000483565b81620003f35750600062000483565b81600181146200040c5760028114620004175762000437565b600191505062000483565b60ff8411156200042b576200042b62000374565b50506001821b62000483565b5060208310610133831016604e8410600b84101617156200045c575081810a62000483565b6200046883836200038a565b80600019048211156200047f576200047f62000374565b0290505b92915050565b60006200036d60ff841683620003d3565b60805160a05160c05160e0516101005161012051610140516147b66200058f6000396000818161061b015281816126f00152818161271d01528181612787015281816127fc015261286f0152600081816109fb0152818161175401528181612748015281816127b3015261283001526000818161054d01528181610d8701528181610ffa015281816110ab015281816117970152818161250401528181612cbd0152818161335a015261341d01526000818161066f01528181610e9401528181613c3a0152613ca30152600081816105e10152612d360152600081816106fa0152612e51015260006106ca01526147b66000f3fe608060405234801561001057600080fd5b506004361061045f5760003560e01c8063807ca3531161024c578063b22dd2ca11610146578063dd62ed3e116100c3578063f46901ed11610087578063f46901ed14610b43578063fa50744514610b56578063fc4064b314610b69578063fee2cb0514610b7c578063ffaeb58214610b8e57600080fd5b8063dd62ed3e14610aeb578063ddcb04c214610b16578063e598431914610b29578063e941fa7814610b32578063ecfb49a314610b3a57600080fd5b8063ce8ad1d21161010a578063ce8ad1d214610aa0578063d1ad24be14610aa9578063d375454f14610abc578063d505accf14610ac6578063db4bed0e14610ad957600080fd5b8063b22dd2ca14610a43578063bedc409b14610a55578063c669c32c14610a68578063c95f9d0e14610a7b578063cd8bb6cd14610a8e57600080fd5b80638e406892116101d4578063978bbdb911610198578063978bbdb9146109d9578063994af3ae146109ed5780639ddc230a146109f6578063a04eecae14610a1d578063a9059cbb14610a3057600080fd5b80638e4068921461091557806390edbeb01461091e57806392a88fa21461093157806395d89b41146109ad578063971059fb146109d057600080fd5b80638a55d36e1161021b5780638a55d36e146108975780638b0af0fa146108a45780638d73d86a146108b85780638da5cb5b146108e55780638e15f473146108f857600080fd5b8063807ca353146108555780638632d4ab146108685780638967b6941461087b57806389d408ff1461088457600080fd5b806330adf81f1161035d578063641ad8a9116102e557806373e6054b116102a957806373e6054b146107da5780637aaae950146104945780637bb71a97146108235780637e4856c41461082b5780637ecebe001461083557600080fd5b8063641ad8a91461076d5780636422e08f146107815780636c2ee3591461079457806370a08231146107a757806371b31707146107c757600080fd5b80633e31fb451161032c5780633e31fb451461071c5780634f335d0a146107245780634fb2e45d146107365780635d0291ac146107495780635f8e422f1461076557600080fd5b806330adf81f1461069e578063313ce567146106c557806333d6f1f7146106ec5780633644e515146106f557600080fd5b806318160ddd116103eb57806329ff0773116103af57806329ff0773146106035780632be90282146106165780632c204fa8146106505780632c86d98e1461066a578063303c0a3b1461069157600080fd5b806318160ddd14610582578063190b065f146105995780631cce9103146105a257806323b872dd146105c95780632678b8fd146105dc57600080fd5b8063095ea7b311610432578063095ea7b3146104ff5780630cea7534146105225780630def3ead146105355780630dfe16811461054857806311ce83f81461056f57600080fd5b8063017e7e581461046457806301bcc9081461049457806305fe138b146104b257806306fdde03146104c7575b600080fd5b600654610477906001600160a01b031681565b6040516001600160a01b0390911681526020015b60405180910390f35b61049e620186a081565b60405162ffffff909116815260200161048b565b6104c56104c0366004613f5e565b610ba2565b005b6104f26040518060400160405280600c81526020016b48656467657853696e676c6560a01b81525081565b60405161048b9190613fba565b61051261050d366004613fed565b610de8565b604051901515815260200161048b565b6104c5610530366004614017565b610dff565b6104c561054336600461403e565b61105e565b6104777f000000000000000000000000000000000000000000000000000000000000000081565b6104c561057d366004614017565b6110a6565b61058b60005481565b60405190815260200161048b565b61058b60175481565b6009546105b690600160201b900460020b81565b60405160029190910b815260200161048b565b6105126105d736600461405b565b61112e565b61058b7f000000000000000000000000000000000000000000000000000000000000000081565b6104c5610611366004614097565b6111a8565b61063d7f000000000000000000000000000000000000000000000000000000000000000081565b60405160009190910b815260200161048b565b610658603281565b60405160ff909116815260200161048b565b6106587f000000000000000000000000000000000000000000000000000000000000000081565b6016546106589060ff1681565b61058b7f6e71edae12b1b97f4d1f60370fef10105fa2faae0126114a169c64845d6126c981565b6106587f000000000000000000000000000000000000000000000000000000000000000081565b61058b60075481565b61058b7f000000000000000000000000000000000000000000000000000000000000000081565b6104c561120e565b60165461051290610100900460ff1681565b6104c56107443660046140bb565b611447565b61075261753081565b60405161ffff909116815260200161048b565b6104c5611493565b60065461065890600160b01b900460ff1681565b6104c561078f3660046140d6565b6114e4565b6104c56107a2366004614100565b61181e565b61058b6107b53660046140bb565b60016020526000908152604090205481565b6104c56107d5366004614100565b611b63565b601854601954601b54601a54601c546006546040805196875260208701959095529385019290925260608401526080830152600160b01b900460ff1660a082015260c00161048b565b61058b611e7c565b61049e620f424081565b61058b6108433660046140bb565b60036020526000908152604090205481565b6104c5610863366004614100565b611f2e565b6104c561087636600461413d565b61227a565b6107526103e881565b6104c56108923660046140d6565b6122ba565b6009546105129060ff1681565b60065461051290600160a01b900460ff1681565b600a54600b54600c546108ca92919083565b6040805193845260208401929092529082015260600161048b565b600454610477906001600160a01b031681565b610900612606565b6040805192835260208301919091520161048b565b61058b601a5481565b6104c561092c366004614100565b61289e565b61097a61093f3660046140bb565b601d60205260009081526040902080546001820154600283015460038401546004850154600590950154939492939192909163ffffffff1686565b604080519687526020870195909552938501929092526060840152608083015263ffffffff1660a082015260c00161048b565b6104f2604051806040016040528060048152602001634845585360e01b81525081565b61058b601c5481565b6016546107529062010000900461ffff1681565b61058b601b5481565b61058b7f000000000000000000000000000000000000000000000000000000000000000081565b601e54610477906001600160a01b031681565b610512610a3e366004613fed565b612bc0565b600d54600e54600f546108ca92919083565b6104c5610a63366004614158565b612bcd565b6104c5610a763660046140bb565b612c17565b6104c5610a89366004613f5e565b612c63565b6009546105b690610100900460020b81565b61049e61c35081565b6104c5610ab7366004614158565b612da4565b61049e6203d09081565b6104c5610ad436600461417b565b612df3565b6013546014546015546108ca92919083565b61058b610af93660046140d6565b600260209081526000928352604080842090915290825290205481565b6104c5610b243660046140d6565b61301f565b61058b60195481565b6104c56133e1565b61058b60185481565b6104c5610b513660046140bb565b61344f565b6104c5610b6436600461403e565b61349b565b6104c5610b7736600461403e565b6134e3565b6010546011546012546108ca92919083565b60065461051290600160a81b900460ff1681565b600654600160b01b900460ff16600114610bd75760405162461bcd60e51b8152600401610bce906141e5565b60405180910390fd5b600954829060ff1615610d60576000610bee612606565b5090506000610bfc82613527565b90506000601a5460195411610c2057601954601a54610c1b9190614222565b610c30565b601a54601954610c309190614222565b905060006003601a54601954610c469190614239565b610c509190614267565b905080821015610c5e578091505b600954600090610100900462ffffff16620f4240610c7c878661427b565b610c86919061427b565b610c909190614267565b9050808413610ce15760405162461bcd60e51b815260206004820152601760248201527f6e6574206d757374203e20757365644d617267696e2f520000000000000000006044820152606401610bce565b6000610ced8286614222565b600054909150610cfd8a8761427b565b610d079190614267565b965080871115610d595760405162461bcd60e51b815260206004820152601860248201527f776974686472617720616d6f756e7420746f6f206d616e7900000000000000006044820152606401610bce565b5050505050505b8060186000828254610d72919061429a565b90915550610d8290503384613570565b610dad7f000000000000000000000000000000000000000000000000000000000000000083836135fb565b60405183815233907fcc16f5dbb4873280815c1ee09dbd06736cffcc184412cf7a71a0fdb75d397ca5906020015b60405180910390a2505050565b6000610df5338484613716565b5060015b92915050565b600654600160b01b900460ff16600114610e2b5760405162461bcd60e51b8152600401610bce906141e5565b336000908152601d60209081526040808320815160c0810183528154815260018201549381019390935260028101549183019190915260038101546060830152600481015460808301526005015463ffffffff1660a082015290610e8d612606565b50905060007f000000000000000000000000000000000000000000000000000000000000000060ff1683608001518460600151610eca919061427b565b84604001518560200151610ede919061427b565b610ee89190614239565b610ef29190614267565b90506000828460600151610f06919061427b565b84604001518560200151610f1a919061427b565b610f249190614239565b84608001518560600151610f38919061427b565b848660200151610f48919061427b565b610f529190614239565b8551610f5e91906142d9565b610f68919061429a565b90506000610f76838361429a565b905060008113610fc85760405162461bcd60e51b815260206004820152601860248201527f63616e207769746864726177206973206e6567617469766500000000000000006044820152606401610bce565b8581811315610fd45750805b8551610fe190829061429a565b336000818152601d6020526040902091909155611020907f000000000000000000000000000000000000000000000000000000000000000090836135fb565b60405181815233907f884edad9ce6fa2440d8a54cc123490eb96d2768479d49ff9c7366125a94243649060200160405180910390a250505050505050565b6004546001600160a01b031633146110885760405162461bcd60e51b8152600401610bce9061431a565b60068054911515600160a81b0260ff60a81b19909216919091179055565b6110d27f0000000000000000000000000000000000000000000000000000000000000000333084613778565b336000908152601d6020526040812080548392906110f19084906142d9565b909155505060405181815233907f78d9de6f3ad1cae9e0cbcbaa5267fd90f6a6728831eec42b7c147b398b2269249060200160405180910390a250565b6001600160a01b038316600090815260026020908152604080832033845290915281205460001914611193576001600160a01b03841660009081526002602090815260408083203384529091528120805484929061118d908490614222565b90915550505b61119e8484846138a8565b5060019392505050565b6004546001600160a01b031633146111ee5760405162461bcd60e51b8152602060048201526009602482015268333937b134b23232b760b91b6044820152606401610bce565b6016805461ffff909216620100000263ffff000019909216919091179055565b6008546001146112305760405162461bcd60e51b8152600401610bce9061433d565b6000600855600654600160b01b900460ff166001146112875760405162461bcd60e51b8152602060048201526013602482015272706f6f6c206973206578706c6f736976696e6760681b6044820152606401610bce565b6000611291612606565b509050600061129f82613527565b90506000601a54601954116112da57600583601954601a546112c19190614222565b6112cb919061427b565b6112d59190614267565b611301565b600583601a546019546112ed9190614222565b6112f7919061427b565b6113019190614267565b9050808213156113535760405162461bcd60e51b815260206004820152601960248201527f706f6f6c2063616e6e2774206265206578706c6f7369766564000000000000006044820152606401610bce565b6006805460ff60b01b1916600160b11b1790556000611373600483614267565b905080831215611427576000601954601a5461138f919061429a565b82601c54601a546113a0919061427b565b601b546019546113b0919061427b565b6018546113bd919061429a565b6113c791906142d9565b6113d1919061429a565b6113db919061435d565b90506000811361141a5760405162461bcd60e51b815260206004820152600a6024820152690657072696365203e20360b41b6044820152606401610bce565b6007556018819055611432565b601883905560078490555b50506000601c819055601b5550506001600855565b6004546001600160a01b031633146114715760405162461bcd60e51b8152600401610bce9061431a565b600580546001600160a01b0319166001600160a01b0392909216919091179055565b6005546001600160a01b031633146114bd5760405162461bcd60e51b8152600401610bce9061431a565b60058054600480546001600160a01b03199081166001600160a01b03841617909155169055565b6008546001146115065760405162461bcd60e51b8152600401610bce9061433d565b6000600855600654600160b01b900460ff1660021461155c5760405162461bcd60e51b81526020600482015260126024820152713837b7b629ba30ba329034b9903737ba101960711b6044820152606401610bce565b6001600160a01b0382166000908152601d60209081526040808320815160c0810183528154815260018201549381019390935260028101549183019190915260038101546060830152600481015460808301526005015463ffffffff1660a082015260075490916115cd8383613949565b6016546060850151919250600091620f42409162010000900461ffff16906115f690869061427b565b858760200151611606919061427b565b6116109190614239565b61161a919061427b565b6116249190614267565b60208501519091501561164d578360200151601a60008282546116479190614222565b90915550505b6060840151156116735783606001516019600082825461166d9190614222565b90915550505b6019541580156116835750601a54155b1561169c576006805460ff60b01b1916600160b01b1790555b808213156116e7576116ae818361429a565b6001600160a01b0387166000908152601d6020526040812091909155601880548392906116dc9084906142d9565b9091555061171a9050565b6001600160a01b0386166000908152601d60205260408120819055601880548492906117149084906142d9565b90915550505b6001600160a01b0386166000908152601d60205260408120600181018290556002810182905560038101829055600401819055611778600a7f0000000000000000000000000000000000000000000000000000000000000000614267565b9050806018600082825461178c919061429a565b909155506117bd90507f000000000000000000000000000000000000000000000000000000000000000087836135fb565b60208086015160608088015160408051938452938301529181018690526001600160a01b038916917ffca559ae7a3bea5c41671f27049d90b84fbf98be965e6d7f0259ee6e5caa980b910160405180910390a2505060016008555050505050565b6008546001146118405760405162461bcd60e51b8152600401610bce9061433d565b600060085580428110156118665760405162461bcd60e51b8152600401610bce9061438b565b600654600160b01b900460ff166001146118925760405162461bcd60e51b8152600401610bce906141e5565b60095460ff166118dc5760405162461bcd60e51b815260206004820152601560248201527418dbdb9d1c9858dd081a5cc81b9bdd081cdd185c9d605a1b6044820152606401610bce565b600654600160a81b900460ff166119055760405162461bcd60e51b8152600401610bce9061431a565b600080611910612606565b915091506000806119226001856139c4565b909250905083620f42406119386175308461427b565b6119429190614267565b61194c9190614267565b87111561196b5760405162461bcd60e51b8152600401610bce906143ba565b600954610100900460020b82126119945760405162461bcd60e51b8152600401610bce906143f1565b60006119a08584613a23565b6119aa9086614239565b905060008412156119cb576119be84614436565b6119c89082614239565b90505b88811115806119d8575088155b611a245760405162461bcd60e51b815260206004820152601b60248201527f6f70656e206c6f6e6720707269636520697320746f6f206869676800000000006044820152606401610bce565b6000611a30828a61427b565b9050600080611a3f8884613b26565b915091508a8160200151611a539190614239565b336000908152601d6020908152604090912060010191909155810151611a7a908c90614239565b8382604001518360200151611a8f919061427b565b611a999190614239565b611aa39190614267565b336000908152601d60205260409020600201558051611ac390839061429a565b336000908152601d6020526040902055601a54611ae08c82614239565b601a55611aed8c82614239565b84601c5483611afc919061427b565b611b069190614239565b611b109190614267565b601c55611b1c83613d9b565b6040805160018152602081018e90529081018690523390600080516020614761833981519152906060015b60405180910390a2505060016008555050505050505050505050565b600854600114611b855760405162461bcd60e51b8152600401610bce9061433d565b60006008558042811015611bab5760405162461bcd60e51b8152600401610bce9061438b565b600654600160b01b900460ff16600114611bd75760405162461bcd60e51b8152600401610bce906141e5565b60095460ff16611c215760405162461bcd60e51b815260206004820152601560248201527418dbdb9d1c9858dd081a5cc81b9bdd081cdd185c9d605a1b6044820152606401610bce565b600654600160a81b900460ff16611c4a5760405162461bcd60e51b8152600401610bce9061431a565b600080611c55612606565b91509150600080611c68600019856139c4565b909250905083620f4240611c7e6175308461427b565b611c889190614267565b611c929190614267565b871115611cb15760405162461bcd60e51b8152600401610bce906143ba565b600954610100900460020b8212611cda5760405162461bcd60e51b8152600401610bce906143f1565b6000611ce68584613a23565b611cf09086614222565b90506000841315611d0857611d058482614222565b90505b88811015611d585760405162461bcd60e51b815260206004820152601b60248201527f6f70656e2073686f727420707269636520697320746f6f206c6f7700000000006044820152606401610bce565b6000611d64828a61427b565b9050600080611d738884613b26565b915091508a8160600151611d879190614239565b336000908152601d60205260409020600301556060810151611daa908c90614239565b8382608001518360600151611dbf919061427b565b611dc99190614239565b611dd39190614267565b336000908152601d60205260409020600401558051611df390839061429a565b336000908152601d6020526040902055601954611e108c82614239565b601955611e1d8c82614239565b84601b5483611e2c919061427b565b611e369190614239565b611e409190614267565b601b55611e4c83613d9b565b604080516000198152602081018e9052908101869052339060008051602061476183398151915290606001611b47565b600080611e87612606565b509050600081601a54611e9a919061427b565b601b54601954611eaa919061427b565b611eb49190614239565b601c54601a54611ec4919061427b565b83601954611ed2919061427b565b611edc9190614239565b601854611ee991906142d9565b611ef3919061429a565b905060008113610df95760405162461bcd60e51b815260206004820152600660248201526506e65743c3d360d41b6044820152606401610bce565b600854600114611f505760405162461bcd60e51b8152600401610bce9061433d565b60006008558042811015611f765760405162461bcd60e51b8152600401610bce9061438b565b600654600160b01b900460ff16600114611fa25760405162461bcd60e51b8152600401610bce906141e5565b600080611fad612606565b91509150600080611fbf6001856139c4565b909250905083620f4240611fd6620186a08461427b565b611fe09190614267565b611fea9190614267565b8711156120095760405162461bcd60e51b8152600401610bce906143ba565b60006120158584613a23565b61201f9086614239565b905060008412156120405761203384614436565b61203d9082614239565b90505b888111158061204d575088155b6120995760405162461bcd60e51b815260206004820152601d60248201527f636c6f73652073686f727420707269636520697320746f6f20686967680000006044820152606401610bce565b336000908152601d6020908152604091829020825160c081018452815481526001820154928101929092526002810154928201929092526003820154606082018190526004830154608083015260059092015463ffffffff1660a0820152908911156121535760405162461bcd60e51b815260206004820152602360248201527f636c6f736520616d6f756e742072657175697265203e3d2073686f7274416d6f6044820152621d5b9d60ea1b6064820152608401610bce565b601654600090620f42409062010000900461ffff16612172858d61427b565b61217c919061427b565b6121869190614267565b9050600083836080015161219a919061429a565b6121a4908c614453565b90508a83606001516121b69190614222565b336000908152601d6020526040902060030155825182906121d89083906142d9565b6121e2919061429a565b336000908152601d602052604090205560608301518b141561221257336000908152601d60205260408120600401555b8a601960008282546122249190614222565b9091555061223490508282613e23565b6040805160028152602081018d90529081018590523390600080516020614761833981519152906060015b60405180910390a25050600160085550505050505050505050565b6004546001600160a01b031633146122a45760405162461bcd60e51b8152600401610bce9061431a565b6016805460ff191660ff92909216919091179055565b6008546001146122dc5760405162461bcd60e51b8152600401610bce9061433d565b6000600855600654600160b01b900460ff1660011461230d5760405162461bcd60e51b8152600401610bce906141e5565b6001600160a01b0382166000908152601d60209081526040808320815160c0810183528154815260018201549381019390935260028101549183019190915260038101546060830181905260048201546080840181905260059092015463ffffffff1660a084015260165492939260ff16916123889161427b565b8360400151846020015161239c919061427b565b6123a69190614239565b6123b09190614267565b905060006123bc612606565b50905060006123cb8483613949565b9050828113156124105760405162461bcd60e51b815260206004820152601060248201526f63616e6e2774206578706c6f7369766560801b6044820152606401610bce565b602084015160009015612459578460200151601a60008282546124339190614222565b90915550506040850151612447908461429a565b85602001516124569190614453565b90505b6060850151156124aa578460600151601960008282546124799190614222565b9091555050608085015161248e90849061429a565b856060015161249d9190614453565b6124a790826142d9565b90505b606085015160208601516001199111156124c2575060025b6001600160a01b0388166000908152601d60205260408120818155600181018290556002810182905560038101829055600401819055831315612572576125347f00000000000000000000000000000000000000000000000000000000000000008861252f60058761435d565b6135fb565b816005612542856004614453565b61254c919061435d565b612556919061429a565b6018600082825461256791906142d9565b909155506125939050565b61257c828461429a565b6018600082825461258d91906142d9565b90915550505b876001600160a01b03167f1cf7369c3767c976b447baaae4eed8217e2d190d1750c589e62bf5f7ecc4aaff82886060015189602001516125d39190614239565b6040805160009390930b83526020830191909152810187905260600160405180910390a250506001600855505050505050565b6000806000806000601e60009054906101000a90046001600160a01b03166001600160a01b03166310bace8c6040518163ffffffff1660e01b8152600401606060405180830381865afa158015612661573d6000803e3d6000fd5b505050506040513d601f19601f8201168201806040525081019061268591906144d8565b925092509250600083116126ec5760405162461bcd60e51b815260206004820152602860248201527f7468652070616972207374616e64617264207072696365206d75737420626520604482015267706f73697469766560c01b6064820152608401610bce565b60007f000000000000000000000000000000000000000000000000000000000000000060000b126127f657816127437f0000000000000000000000000000000000000000000000000000000000000000600a6145ea565b61276d7f00000000000000000000000000000000000000000000000000000000000000008661427b565b612777919061427b565b6127819190614267565b826127ad7f0000000000000000000000000000000000000000000000000000000000000000600a6145ea565b6127d7907f000000000000000000000000000000000000000000000000000000000000000061427b565b6127e19084614453565b6127eb919061435d565b945094505050509091565b816128207f00000000000000000000000000000000000000000000000000000000000000006145f9565b61282b90600a6145ea565b6128557f00000000000000000000000000000000000000000000000000000000000000008661427b565b61285f9190614267565b6128699190614267565b826128937f00000000000000000000000000000000000000000000000000000000000000006145f9565b6127ad90600a6145ea565b6008546001146128c05760405162461bcd60e51b8152600401610bce9061433d565b600060085580428110156128e65760405162461bcd60e51b8152600401610bce9061438b565b600654600160b01b900460ff166001146129125760405162461bcd60e51b8152600401610bce906141e5565b60008061291d612606565b91509150600080612930600019856139c4565b909250905083620f4240612947620186a08461427b565b6129519190614267565b61295b9190614267565b87111561297a5760405162461bcd60e51b8152600401610bce906143ba565b60006129868584613a23565b6129909086614222565b905060008413156129a8576129a58482614222565b90505b888110156129f85760405162461bcd60e51b815260206004820152601b60248201527f636c6f7365206c6f6e6720707269636520697320746f6f206c6f7700000000006044820152606401610bce565b336000908152601d6020908152604091829020825160c08101845281548152600182015492810183905260028201549381019390935260038101546060840152600481015460808401526005015463ffffffff1660a0830152891115612aab5760405162461bcd60e51b815260206004820152602260248201527f636c6f736520616d6f756e742072657175697265203e3d206c6f6e67416d6f756044820152611b9d60f21b6064820152608401610bce565b601654600090620f42409062010000900461ffff16612aca858d61427b565b612ad4919061427b565b612ade9190614267565b90506000826040015184612af2919061429a565b612afc908c614453565b90508a8360200151612b0e9190614222565b336000908152601d602052604090206001015582518290612b309083906142d9565b612b3a919061429a565b336000908152601d60209081526040909120919091558301518b1415612b6e57336000908152601d60205260408120600201555b8a601a6000828254612b809190614222565b90915550612b9090508282613e23565b604080516001198152602081018d905290810185905233906000805160206147618339815191529060600161225f565b6000610df53384846138a8565b6004546001600160a01b03163314612bf75760405162461bcd60e51b8152600401610bce9061431a565b6009805462ffffff9092166101000263ffffff0019909216919091179055565b6004546001600160a01b03163314612c415760405162461bcd60e51b8152600401610bce9061431a565b601e80546001600160a01b0319166001600160a01b0392909216919091179055565b600654600160b01b900460ff16600114612c8f5760405162461bcd60e51b8152600401610bce906141e5565b600654600160a01b900460ff16612cb85760405162461bcd60e51b8152600401610bce9061431a565b612ce47f0000000000000000000000000000000000000000000000000000000000000000333085613778565b600954829060ff1615612d1a576000612cfb611e7c565b90508084600054612d0c919061427b565b612d169190614267565b9150505b8260186000828254612d2c91906142d9565b90915550506018547f000000000000000000000000000000000000000000000000000000000000000013612d68576009805460ff191660011790555b612d728282613ec1565b60405181815233907f0f6798a560793a54c3bcfe86a93cde1e73087d944c0ea20544137d412139688590602001610ddb565b6004546001600160a01b03163314612dce5760405162461bcd60e51b8152600401610bce9061431a565b6009805462ffffff909216600160201b0266ffffff0000000019909216919091179055565b42841015612e355760405162461bcd60e51b815260206004820152600f60248201526e12195919d95e0e8811561412549151608a1b6044820152606401610bce565b6001600160a01b038716600090815260036020526040812080547f0000000000000000000000000000000000000000000000000000000000000000917f6e71edae12b1b97f4d1f60370fef10105fa2faae0126114a169c64845d6126c9918b918b918b9187612ea383614619565b909155506040805160208101969096526001600160a01b0394851690860152929091166060840152608083015260a082015260c0810187905260e00160405160208183030381529060405280519060200120604051602001612f1c92919061190160f01b81526002810192909252602282015260420190565b60408051601f198184030181528282528051602091820120600080855291840180845281905260ff88169284019290925260608301869052608083018590529092509060019060a0016020604051602081039080840390855afa158015612f87573d6000803e3d6000fd5b5050604051601f1901519150506001600160a01b03811615801590612fbd5750886001600160a01b0316816001600160a01b0316145b6130095760405162461bcd60e51b815260206004820152601960248201527f4865646765783a20494e56414c49445f5349474e4154555245000000000000006044820152606401610bce565b613014898989613716565b505050505050505050565b6008546001146130415760405162461bcd60e51b8152600401610bce9061433d565b6000600855600654600160b01b900460ff166001146130725760405162461bcd60e51b8152600401610bce906141e5565b60006130816201518042614267565b905061012c6130938262015180614634565b6130a39063ffffffff1642614222565b11156130e05760405162461bcd60e51b815260206004820152600c60248201526b74696d652064697361626c6560a01b6044820152606401610bce565b6001600160a01b0383166000908152601d60205260409020600581015463ffffffff9081169083161161314e5760405162461bcd60e51b81526020600482015260166024820152751a185cc81899595b881d185ad9481a5b9d195c995cdd60521b6044820152606401610bce565b8060030154816001015414156131995760405162461bcd60e51b815260206004820152601060248201526f1b1bdb99c8195c5d585b081cda1bdc9d60821b6044820152606401610bce565b601a54601954600383015460018481015460009283911115613253578385116131f75760405162461bcd60e51b815260206004820152601060248201526f1a185d99481b9bc81a5b9d195c995cdd60821b6044820152606401610bce565b6131ff612606565b50905084620f42406132118683614222565b60018901546103e890613224908661427b565b61322e919061427b565b613238919061427b565b6132429190614267565b61324c9190614267565b92506132f2565b8484116132955760405162461bcd60e51b815260206004820152601060248201526f1a185d99481b9bc81a5b9d195c995cdd60821b6044820152606401610bce565b61329d612606565b506000199250905083620f42406132b48783614222565b60038901546103e8906132c7908661427b565b6132d1919061427b565b6132db919061427b565b6132e59190614267565b6132ef9190614267565b92505b6000620f4240613305620186a08661427b565b61330f9190614267565b60058801805463ffffffff191663ffffffff8b1617905587549091508490889060009061333d90849061429a565b9091555061335590506133508286614222565b613d9b565b6133807f00000000000000000000000000000000000000000000000000000000000000008a836135fb565b60408051600085900b8152602081018690529081018390526001600160a01b038b16907f78213dfb97e98b601b3fee012a0f6bddbf4e63c293c77b5186137af1e7cf62ae9060600160405180910390a2505060016008555050505050505050565b6006546001600160a01b0316331461340b5760405162461bcd60e51b8152600401610bce9061431a565b60178054600090915560065461344c907f0000000000000000000000000000000000000000000000000000000000000000906001600160a01b0316836135fb565b50565b6004546001600160a01b031633146134795760405162461bcd60e51b8152600401610bce9061431a565b600680546001600160a01b0319166001600160a01b0392909216919091179055565b6004546001600160a01b031633146134c55760405162461bcd60e51b8152600401610bce9061431a565b60068054911515600160a01b0260ff60a01b19909216919091179055565b6004546001600160a01b0316331461350d5760405162461bcd60e51b8152600401610bce9061431a565b601680549115156101000261ff0019909216919091179055565b60008082601a54613538919061427b565b601b54601954613548919061427b565b6135529190614239565b601c54601a54613562919061427b565b84601954611ed2919061427b565b6001600160a01b03821660009081526001602052604081208054839290613598908490614222565b92505081905550806000808282546135b09190614222565b90915550506040518181526000906001600160a01b038416907fddf252ad1be2c89b69c2b068fc378daa952ba7f163c4a11628f55a4df523b3ef906020015b60405180910390a35050565b604080516001600160a01b038481166024830152604480830185905283518084039091018152606490920183526020820180516001600160e01b031663a9059cbb60e01b17905291516000928392908716916136579190614660565b6000604051808303816000865af19150503d8060008114613694576040519150601f19603f3d011682016040523d82523d6000602084013e613699565b606091505b50915091508180156136c35750805115806136c35750808060200190518101906136c3919061467c565b61370f5760405162461bcd60e51b815260206004820152601f60248201527f5472616e7366657248656c7065723a205452414e534645525f4641494c4544006044820152606401610bce565b5050505050565b6001600160a01b0383811660008181526002602090815260408083209487168084529482529182902085905590518481527f8c5be1e5ebec7d5bd14f71427d1e84f3dd0314c0f7b2291e5b200ac8c7c3b92591015b60405180910390a3505050565b604080516001600160a01b0385811660248301528481166044830152606480830185905283518084039091018152608490920183526020820180516001600160e01b03166323b872dd60e01b17905291516000928392908816916137dc9190614660565b6000604051808303816000865af19150503d8060008114613819576040519150601f19603f3d011682016040523d82523d6000602084013e61381e565b606091505b5091509150818015613848575080511580613848575080806020019051810190613848919061467c565b6138a05760405162461bcd60e51b8152602060048201526024808201527f5472616e7366657248656c7065723a205452414e534645525f46524f4d5f46416044820152631253115160e21b6064820152608401610bce565b505050505050565b6001600160a01b038316600090815260016020526040812080548392906138d0908490614222565b90915550506001600160a01b038216600090815260016020526040812080548392906138fd908490614239565b92505081905550816001600160a01b0316836001600160a01b03167fddf252ad1be2c89b69c2b068fc378daa952ba7f163c4a11628f55a4df523b3ef8360405161376b91815260200190565b600081836060015161395b919061427b565b8360400151846020015161396f919061427b565b6139799190614239565b8360800151846060015161398d919061427b565b83856020015161399d919061427b565b6139a79190614239565b84516139b391906142d9565b6139bd919061429a565b9392505050565b60008060006139d284613527565b905080620f424060020b85601954601a546139ed919061429a565b8860000b6139fb9190614453565b613a059190614453565b613a0f9190614453565b613a19919061435d565b9590945092505050565b6009546000908190600290613a4290600160201b9004820b6003614699565b613a4c9190614726565b60020b8312613ac157600954600590613a7090600160201b900460020b6003614699565b60020b846002613a809190614453565b613a8a919061429a565b613a94919061435d565b600954613aad90600a90600160201b900460020b614726565b60020b613aba91906142d9565b9050613afb565b600954600160201b900460020b8312613afb57600954600590613aee90600160201b900460020b8561429a565b613af89190614267565b90505b620f4240613b0a603283614239565b613b14908661427b565b613b1e9190614267565b949350505050565b6000613b676040518060c001604052806000815260200160008152602001600081526020016000815260200160008152602001600063ffffffff1681525090565b336000908152601d60209081526040808320815160c081018352815481526001820154938101939093526002810154918301919091526003810154606083018190526004820154608084015260059091015463ffffffff1660a0830152909190613bd290879061427b565b82604001518360200151613be6919061427b565b613bf09190614239565b82608001518360600151613c04919061427b565b878460200151613c14919061427b565b613c1e9190614239565b8351613c2a91906142d9565b613c34919061429a565b905060007f000000000000000000000000000000000000000000000000000000000000000060ff1683608001518460600151613c70919061427b565b84604001518560200151613c84919061427b565b613c8e9190614239565b613c989190614267565b90506000613cc960ff7f00000000000000000000000000000000000000000000000000000000000000001688614267565b601654909150600090620f424090613ceb9062010000900461ffff168a61427b565b613cf59190614267565b905060008482613d058587614239565b613d0f9190614239565b613d19919061429a565b90506000811315613d8c57613d2d816110a6565b336000908152601d6020908152604091829020825160c08101845281548152600182015492810192909252600281015492820192909252600382015460608201526004820154608082015260059091015463ffffffff1660a082015295505b50989397509295505050505050565b601654610100900460ff1615613e09576000620f4240613dbe6203d0908461427b565b613dc89190614267565b90508060176000828254613ddc9190614239565b90915550613dec9050818361429a565b60186000828254613dfd91906142d9565b9091555061344c915050565b8060186000828254613e1b91906142d9565b909155505050565b601654610100900460ff1615613e9c576000620f4240613e466203d0908561427b565b613e509190614267565b90508060176000828254613e649190614239565b90915550829050613e75828561429a565b613e7f919061429a565b60186000828254613e9091906142d9565b90915550613ebd915050565b613ea6818361429a565b60186000828254613eb791906142d9565b90915550505b5050565b80600080828254613ed29190614239565b90915550506001600160a01b03821660009081526001602052604081208054839290613eff908490614239565b90915550506040518181526001600160a01b038316906000907fddf252ad1be2c89b69c2b068fc378daa952ba7f163c4a11628f55a4df523b3ef906020016135ef565b80356001600160a01b0381168114613f5957600080fd5b919050565b60008060408385031215613f7157600080fd5b82359150613f8160208401613f42565b90509250929050565b60005b83811015613fa5578181015183820152602001613f8d565b83811115613fb4576000848401525b50505050565b6020815260008251806020840152613fd9816040850160208701613f8a565b601f01601f19169190910160400192915050565b6000806040838503121561400057600080fd5b61400983613f42565b946020939093013593505050565b60006020828403121561402957600080fd5b5035919050565b801515811461344c57600080fd5b60006020828403121561405057600080fd5b81356139bd81614030565b60008060006060848603121561407057600080fd5b61407984613f42565b925061408760208501613f42565b9150604084013590509250925092565b6000602082840312156140a957600080fd5b813561ffff811681146139bd57600080fd5b6000602082840312156140cd57600080fd5b6139bd82613f42565b600080604083850312156140e957600080fd5b6140f283613f42565b9150613f8160208401613f42565b60008060006060848603121561411557600080fd5b505081359360208301359350604090920135919050565b803560ff81168114613f5957600080fd5b60006020828403121561414f57600080fd5b6139bd8261412c565b60006020828403121561416a57600080fd5b81358060020b81146139bd57600080fd5b600080600080600080600060e0888a03121561419657600080fd5b61419f88613f42565b96506141ad60208901613f42565b955060408801359450606088013593506141c96080890161412c565b925060a0880135915060c0880135905092959891949750929550565b6020808252600d908201526c73746174652069736e2774203160981b604082015260600190565b634e487b7160e01b600052601160045260246000fd5b6000828210156142345761423461420c565b500390565b6000821982111561424c5761424c61420c565b500190565b634e487b7160e01b600052601260045260246000fd5b60008261427657614276614251565b500490565b60008160001904831182151516156142955761429561420c565b500290565b60008083128015600160ff1b8501841216156142b8576142b861420c565b6001600160ff1b03840183138116156142d3576142d361420c565b50500390565b600080821280156001600160ff1b03849003851316156142fb576142fb61420c565b600160ff1b83900384128116156143145761431461420c565b50500190565b6020808252600990820152683337b93134b23232b760b91b604082015260600190565b6020808252600690820152651b1bd8dad95960d21b604082015260600190565b60008261436c5761436c614251565b600160ff1b8214600019841416156143865761438661420c565b500590565b60208082526015908201527412195919d95e08151c9859194e8811561412549151605a1b604082015260600190565b6020808252601d908201527f73696e676c6520616d6f756e74206f766572206e6574202a2072617465000000604082015260600190565b60208082526025908201527f706f6f6c206e657420616d6f756e74206d75737420736d616c6c207468616e20604082015264706172616d60d81b606082015260800190565b6000600160ff1b82141561444c5761444c61420c565b5060000390565b60006001600160ff1b03818413828413808216868404861116156144795761447961420c565b600160ff1b60008712828116878305891216156144985761449861420c565b600087129250878205871284841616156144b4576144b461420c565b878505871281841616156144ca576144ca61420c565b505050929093029392505050565b6000806000606084860312156144ed57600080fd5b8351925060208401519150604084015190509250925092565b600181815b808511156145415781600019048211156145275761452761420c565b8085161561453457918102915b93841c939080029061450b565b509250929050565b60008261455857506001610df9565b8161456557506000610df9565b816001811461457b5760028114614585576145a1565b6001915050610df9565b60ff8411156145965761459661420c565b50506001821b610df9565b5060208310610133831016604e8410600b84101617156145c4575081810a610df9565b6145ce8383614506565b80600019048211156145e2576145e261420c565b029392505050565b60006139bd60ff841683614549565b600081810b607f198114156146105761461061420c565b60000392915050565b600060001982141561462d5761462d61420c565b5060010190565b600063ffffffff808316818516818304811182151516156146575761465761420c565b02949350505050565b60008251614672818460208701613f8a565b9190910192915050565b60006020828403121561468e57600080fd5b81516139bd81614030565b60008160020b8360020b627fffff6000821360008413838304851182821616156146c5576146c561420c565b627fffff1960008512828116878305871216156146e4576146e461420c565b600087129250858205871284841616156147005761470061420c565b858505871281841616156147165761471661420c565b5050509290910295945050505050565b60008160020b8360020b8061473d5761473d614251565b627fffff198214600019821416156147575761475761420c565b9005939250505056fe303db7636b0e071f088d2cd5e8463efe513531272d61a18739b21053f6d7b430a2646970667358221220b379d9ce228af7560b3069067677d0bcec10dddb336f570fa2e53887871a200164736f6c634300080c0033",
    "sourcePath": "d:/contract/hedgex/Single.sol",
    "compiler": {
        "name": "solc",
        "version": "0.8.12+commit.f00d7308"
    },
    "functionHashes": {
        "DOMAIN_SEPARATOR()": "3644e515",
        "PERMIT_TYPEHASH()": "30adf81f",
        "R0()": "8d73d86a",
        "R1()": "b22dd2ca",
        "R2()": "fee2cb05",
        "R3()": "db4bed0e",
        "acceptSetter()": "5f8e422f",
        "addLiquidity(uint256,address)": "c95f9d0e",
        "allowance(address,address)": "dd62ed3e",
        "amountDecimal()": "2be90282",
        "approve(address,uint256)": "095ea7b3",
        "balanceOf(address)": "70a08231",
        "canAddLiquidity()": "8b0af0fa",
        "canOpen()": "ffaeb582",
        "closeLong(uint256,uint256,uint256)": "90edbeb0",
        "closeShort(uint256,uint256,uint256)": "807ca353",
        "dailyInterestRateBase()": "8967b694",
        "decimals()": "313ce567",
        "detectSlide(address,address)": "ddcb04c2",
        "divConst()": "7e4856c4",
        "explosive(address,address)": "89d408ff",
        "explosivePool()": "3e31fb45",
        "feeDivide()": "d375454f",
        "feeOn()": "4f335d0a",
        "feeRate()": "978bbdb9",
        "feeTo()": "017e7e58",
        "feedPrice()": "a04eecae",
        "forceCloseAccount(address,address)": "6422e08f",
        "getLatestPrice()": "8e15f473",
        "getPoolNet()": "7bb71a97",
        "getPoolPosition()": "73e6054b",
        "interestRewardRate()": "01bcc908",
        "isStart()": "8a55d36e",
        "keepMarginScale()": "303c0a3b",
        "leverage()": "2c86d98e",
        "minPool()": "2678b8fd",
        "name()": "06fdde03",
        "nonces(address)": "7ecebe00",
        "openLong(uint256,uint256,uint256)": "6c2ee359",
        "openShort(uint256,uint256,uint256)": "71b31707",
        "owner()": "8da5cb5b",
        "permit(address,address,uint256,uint256,uint8,bytes32,bytes32)": "d505accf",
        "poolExplosivePrice()": "33d6f1f7",
        "poolLeftAmountRate()": "ce8ad1d2",
        "poolLongAmount()": "e5984319",
        "poolLongPrice()": "994af3ae",
        "poolNetAmountRateLimitOpen()": "cd8bb6cd",
        "poolNetAmountRateLimitPrice()": "1cce9103",
        "poolShortAmount()": "8e406892",
        "poolShortPrice()": "971059fb",
        "poolState()": "641ad8a9",
        "rechargeMargin(uint256)": "11ce83f8",
        "removeLiquidity(uint256,address)": "05fe138b",
        "setCanAddLiquidity(bool)": "fa507445",
        "setCanOpen(bool)": "0def3ead",
        "setFeeOn(bool)": "fc4064b3",
        "setFeeRate(uint16)": "29ff0773",
        "setFeeTo(address)": "f46901ed",
        "setFeedPrice(address)": "c669c32c",
        "setKeepMarginScale(uint8)": "8632d4ab",
        "setPoolNetAmountRateLimitOpen(int24)": "bedc409b",
        "setPoolNetAmountRateLimitPrice(int24)": "d1ad24be",
        "singleCloseLimitRate()": "7aaae950",
        "singleOpenLimitRate()": "5d0291ac",
        "slideP()": "2c204fa8",
        "sumFee()": "190b065f",
        "symbol()": "95d89b41",
        "token0()": "0dfe1681",
        "token0Decimal()": "9ddc230a",
        "totalPool()": "ecfb49a3",
        "totalSupply()": "18160ddd",
        "traders(address)": "92a88fa2",
        "transfer(address,uint256)": "a9059cbb",
        "transferFrom(address,address,uint256)": "23b872dd",
        "transferOwner(address)": "4fb2e45d",
        "withdrawFee()": "e941fa78",
        "withdrawMargin(uint256)": "0cea7534"
    },
    "gasEstimates": {
        "creation": {
            "codeDepositCost": "3671600",
            "executionCost": "infinite",
            "totalCost": "infinite"
        },
        "external": {
            "DOMAIN_SEPARATOR()": "infinite",
            "PERMIT_TYPEHASH()": "264",
            "R0()": "6664",
            "R1()": "6620",
            "R2()": "6684",
            "R3()": "6707",
            "acceptSetter()": "50915",
            "addLiquidity(uint256,address)": "infinite",
            "allowance(address,address)": "infinite",
            "amountDecimal()": "infinite",
            "approve(address,uint256)": "24597",
            "balanceOf(address)": "2653",
            "canAddLiquidity()": "2417",
            "canOpen()": "2481",
            "closeLong(uint256,uint256,uint256)": "infinite",
            "closeShort(uint256,uint256,uint256)": "infinite",
            "dailyInterestRateBase()": "317",
            "decimals()": "infinite",
            "detectSlide(address,address)": "infinite",
            "divConst()": "337",
            "explosive(address,address)": "infinite",
            "explosivePool()": "infinite",
            "feeDivide()": "315",
            "feeOn()": "2411",
            "feeRate()": "2391",
            "feeTo()": "2396",
            "feedPrice()": "2459",
            "forceCloseAccount(address,address)": "infinite",
            "getLatestPrice()": "infinite",
            "getPoolNet()": "infinite",
            "getPoolPosition()": "12981",
            "interestRewardRate()": "296",
            "isStart()": "2378",
            "keepMarginScale()": "2469",
            "leverage()": "infinite",
            "minPool()": "infinite",
            "name()": "infinite",
            "nonces(address)": "2674",
            "openLong(uint256,uint256,uint256)": "infinite",
            "openShort(uint256,uint256,uint256)": "infinite",
            "owner()": "2460",
            "permit(address,address,uint256,uint256,uint8,bytes32,bytes32)": "infinite",
            "poolExplosivePrice()": "2408",
            "poolLeftAmountRate()": "271",
            "poolLongAmount()": "2406",
            "poolLongPrice()": "2384",
            "poolNetAmountRateLimitOpen()": "2487",
            "poolNetAmountRateLimitPrice()": "2450",
            "poolShortAmount()": "2363",
            "poolShortPrice()": "2451",
            "poolState()": "2398",
            "rechargeMargin(uint256)": "infinite",
            "removeLiquidity(uint256,address)": "infinite",
            "setCanAddLiquidity(bool)": "26777",
            "setCanOpen(bool)": "26802",
            "setFeeOn(bool)": "26787",
            "setFeeRate(uint16)": "26719",
            "setFeeTo(address)": "26777",
            "setFeedPrice(address)": "26823",
            "setKeepMarginScale(uint8)": "26766",
            "setPoolNetAmountRateLimitOpen(int24)": "26743",
            "setPoolNetAmountRateLimitPrice(int24)": "26748",
            "singleCloseLimitRate()": "293",
            "singleOpenLimitRate()": "338",
            "slideP()": "316",
            "sumFee()": "2386",
            "symbol()": "infinite",
            "token0()": "infinite",
            "token0Decimal()": "infinite",
            "totalPool()": "2450",
            "totalSupply()": "2364",
            "traders(address)": "13314",
            "transfer(address,uint256)": "51228",
            "transferFrom(address,address,uint256)": "infinite",
            "transferOwner(address)": "26823",
            "withdrawFee()": "infinite",
            "withdrawMargin(uint256)": "infinite"
        },
        "internal": {
            "feeCharge(uint256)": "51151",
            "feeCharge(uint256,int256)": "infinite",
            "getAccountNet(struct HedgexSingle.Trader memory)": "infinite",
            "getAccountNet(struct HedgexSingle.Trader memory,uint256)": "infinite",
            "getDeltaPriceByR(int256)": "infinite",
            "getPoolNet(uint256)": "infinite",
            "judegOpen(uint256,uint256)": "infinite",
            "poolLimitTrade(int8,uint256)": "infinite",
            "slideTradePrice(uint256,int256)": "infinite"
        }
    }
}