{
    "contractName": "HedgexIndexHelper",
    "abi": [
        {
            "inputs": [],
            "stateMutability": "nonpayable",
            "type": "constructor"
        },
        {
            "inputs": [
                {
                    "internalType": "address[]",
                    "name": "addresses",
                    "type": "address[]"
                }
            ],
            "name": "indexPrice",
            "outputs": [
                {
                    "internalType": "uint256[]",
                    "name": "",
                    "type": "uint256[]"
                }
            ],
            "stateMutability": "view",
            "type": "function"
        }
    ],
    "bytecode": "608060405234801561001057600080fd5b5061034e806100206000396000f3fe608060405234801561001057600080fd5b506004361061002b5760003560e01c80634eda9b4214610030575b600080fd5b61004361003e3660046101a2565b610059565b6040516100509190610267565b60405180910390f35b60606000825167ffffffffffffffff81111561007757610077610170565b6040519080825280602002602001820160405280156100a0578160200160208202803683370190505b50905060005b83518110156101695760008482815181106100c3576100c36102ab565b602002602001015190506000816001600160a01b0316638e15f4736040518163ffffffff1660e01b8152600401606060405180830381865afa15801561010d573d6000803e3d6000fd5b505050506040513d601f19601f8201168201806040525081019061013191906102c1565b5050905080848481518110610148576101486102ab565b60200260200101818152505050508080610161906102ef565b9150506100a6565b5092915050565b634e487b7160e01b600052604160045260246000fd5b80356001600160a01b038116811461019d57600080fd5b919050565b600060208083850312156101b557600080fd5b823567ffffffffffffffff808211156101cd57600080fd5b818501915085601f8301126101e157600080fd5b8135818111156101f3576101f3610170565b8060051b604051601f19603f8301168101818110858211171561021857610218610170565b60405291825284820192508381018501918883111561023657600080fd5b938501935b8285101561025b5761024c85610186565b8452938501939285019261023b565b98975050505050505050565b6020808252825182820181905260009190848201906040850190845b8181101561029f57835183529284019291840191600101610283565b50909695505050505050565b634e487b7160e01b600052603260045260246000fd5b6000806000606084860312156102d657600080fd5b8351925060208401519150604084015190509250925092565b600060001982141561031157634e487b7160e01b600052601160045260246000fd5b506001019056fea2646970667358221220ea8dff9c20439080228fcf41a393078b1bc98eb712839f5554b853b9f0227d2964736f6c634300080c0033",
    "sourcePath": "d:/contract/hedgex/IndexPriceHelp.sol",
    "compiler": {
        "name": "solc",
        "version": "0.8.12+commit.f00d7308"
    },
    "functionHashes": {
        "indexPrice(address[])": "4eda9b42"
    },
    "gasEstimates": {
        "creation": {
            "codeDepositCost": "169200",
            "executionCost": "214",
            "totalCost": "169414"
        },
        "external": {
            "indexPrice(address[])": "infinite"
        }
    }
}