{
    "contractName": "HedgexSingle",
    "abi": [
        {
            "inputs": [
                {
                    "internalType": "address",
                    "name": "_token0",
                    "type": "address"
                },
                {
                    "internalType": "address",
                    "name": "_feedPrice",
                    "type": "address"
                },
                {
                    "internalType": "uint256",
                    "name": "_minStartPool",
                    "type": "uint256"
                },
                {
                    "internalType": "uint8",
                    "name": "_leverage",
                    "type": "uint8"
                },
                {
                    "internalType": "int8",
                    "name": "_amountDecimal",
                    "type": "int8"
                }
            ],
            "stateMutability": "nonpayable",
            "type": "constructor"
        },
        {
            "anonymous": false,
            "inputs": [
                {
                    "indexed": true,
                    "internalType": "address",
                    "name": "owner",
                    "type": "address"
                },
                {
                    "indexed": true,
                    "internalType": "address",
                    "name": "spender",
                    "type": "address"
                },
                {
                    "indexed": false,
                    "internalType": "uint256",
                    "name": "value",
                    "type": "uint256"
                }
            ],
            "name": "Approval",
            "type": "event"
        },
        {
            "anonymous": false,
            "inputs": [
                {
                    "indexed": true,
                    "internalType": "address",
                    "name": "sender",
                    "type": "address"
                },
                {
                    "indexed": false,
                    "internalType": "uint256",
                    "name": "amount",
                    "type": "uint256"
                }
            ],
            "name": "Burn",
            "type": "event"
        },
        {
            "anonymous": false,
            "inputs": [
                {
                    "indexed": true,
                    "internalType": "address",
                    "name": "user",
                    "type": "address"
                },
                {
                    "indexed": false,
                    "internalType": "int8",
                    "name": "direction",
                    "type": "int8"
                },
                {
                    "indexed": false,
                    "internalType": "uint256",
                    "name": "amount",
                    "type": "uint256"
                },
                {
                    "indexed": false,
                    "internalType": "uint256",
                    "name": "price",
                    "type": "uint256"
                }
            ],
            "name": "Explosive",
            "type": "event"
        },
        {
            "anonymous": false,
            "inputs": [
                {
                    "indexed": false,
                    "internalType": "int256",
                    "name": "total",
                    "type": "int256"
                },
                {
                    "indexed": false,
                    "internalType": "uint256",
                    "name": "la",
                    "type": "uint256"
                },
                {
                    "indexed": false,
                    "internalType": "uint256",
                    "name": "lp",
                    "type": "uint256"
                },
                {
                    "indexed": false,
                    "internalType": "uint256",
                    "name": "sa",
                    "type": "uint256"
                },
                {
                    "indexed": false,
                    "internalType": "uint256",
                    "name": "sp",
                    "type": "uint256"
                },
                {
                    "indexed": false,
                    "internalType": "uint256",
                    "name": "ep",
                    "type": "uint256"
                }
            ],
            "name": "ExplosivePool",
            "type": "event"
        },
        {
            "anonymous": false,
            "inputs": [
                {
                    "indexed": true,
                    "internalType": "address",
                    "name": "account",
                    "type": "address"
                },
                {
                    "indexed": false,
                    "internalType": "uint256",
                    "name": "long",
                    "type": "uint256"
                },
                {
                    "indexed": false,
                    "internalType": "uint256",
                    "name": "short",
                    "type": "uint256"
                },
                {
                    "indexed": false,
                    "internalType": "uint256",
                    "name": "price",
                    "type": "uint256"
                }
            ],
            "name": "ForceClose",
            "type": "event"
        },
        {
            "anonymous": false,
            "inputs": [
                {
                    "indexed": true,
                    "internalType": "address",
                    "name": "sender",
                    "type": "address"
                },
                {
                    "indexed": false,
                    "internalType": "uint256",
                    "name": "amount",
                    "type": "uint256"
                }
            ],
            "name": "Mint",
            "type": "event"
        },
        {
            "anonymous": false,
            "inputs": [
                {
                    "indexed": true,
                    "internalType": "address",
                    "name": "sender",
                    "type": "address"
                },
                {
                    "indexed": false,
                    "internalType": "uint256",
                    "name": "amount",
                    "type": "uint256"
                }
            ],
            "name": "Recharge",
            "type": "event"
        },
        {
            "anonymous": false,
            "inputs": [
                {
                    "indexed": true,
                    "internalType": "address",
                    "name": "user",
                    "type": "address"
                },
                {
                    "indexed": false,
                    "internalType": "int8",
                    "name": "direction",
                    "type": "int8"
                },
                {
                    "indexed": false,
                    "internalType": "uint256",
                    "name": "amount",
                    "type": "uint256"
                },
                {
                    "indexed": false,
                    "internalType": "uint256",
                    "name": "price",
                    "type": "uint256"
                }
            ],
            "name": "TakeInterest",
            "type": "event"
        },
        {
            "anonymous": false,
            "inputs": [
                {
                    "indexed": true,
                    "internalType": "address",
                    "name": "sender",
                    "type": "address"
                },
                {
                    "indexed": false,
                    "internalType": "int8",
                    "name": "direction",
                    "type": "int8"
                },
                {
                    "indexed": false,
                    "internalType": "uint256",
                    "name": "amount",
                    "type": "uint256"
                },
                {
                    "indexed": false,
                    "internalType": "uint256",
                    "name": "price",
                    "type": "uint256"
                }
            ],
            "name": "Trade",
            "type": "event"
        },
        {
            "anonymous": false,
            "inputs": [
                {
                    "indexed": true,
                    "internalType": "address",
                    "name": "from",
                    "type": "address"
                },
                {
                    "indexed": true,
                    "internalType": "address",
                    "name": "to",
                    "type": "address"
                },
                {
                    "indexed": false,
                    "internalType": "uint256",
                    "name": "value",
                    "type": "uint256"
                }
            ],
            "name": "Transfer",
            "type": "event"
        },
        {
            "anonymous": false,
            "inputs": [
                {
                    "indexed": true,
                    "internalType": "address",
                    "name": "sender",
                    "type": "address"
                },
                {
                    "indexed": false,
                    "internalType": "uint256",
                    "name": "amount",
                    "type": "uint256"
                }
            ],
            "name": "Withdraw",
            "type": "event"
        },
        {
            "inputs": [],
            "name": "DOMAIN_SEPARATOR",
            "outputs": [
                {
                    "internalType": "bytes32",
                    "name": "",
                    "type": "bytes32"
                }
            ],
            "stateMutability": "view",
            "type": "function"
        },
        {
            "inputs": [],
            "name": "PERMIT_TYPEHASH",
            "outputs": [
                {
                    "internalType": "bytes32",
                    "name": "",
                    "type": "bytes32"
                }
            ],
            "stateMutability": "view",
            "type": "function"
        },
        {
            "inputs": [],
            "name": "acceptContractSetter",
            "outputs": [],
            "stateMutability": "nonpayable",
            "type": "function"
        },
        {
            "inputs": [
                {
                    "internalType": "uint256",
                    "name": "amount",
                    "type": "uint256"
                },
                {
                    "internalType": "address",
                    "name": "to",
                    "type": "address"
                }
            ],
            "name": "addLiquidity",
            "outputs": [],
            "stateMutability": "nonpayable",
            "type": "function"
        },
        {
            "inputs": [
                {
                    "internalType": "address",
                    "name": "",
                    "type": "address"
                },
                {
                    "internalType": "address",
                    "name": "",
                    "type": "address"
                }
            ],
            "name": "allowance",
            "outputs": [
                {
                    "internalType": "uint256",
                    "name": "",
                    "type": "uint256"
                }
            ],
            "stateMutability": "view",
            "type": "function"
        },
        {
            "inputs": [],
            "name": "amountDecimal",
            "outputs": [
                {
                    "internalType": "int8",
                    "name": "",
                    "type": "int8"
                }
            ],
            "stateMutability": "view",
            "type": "function"
        },
        {
            "inputs": [
                {
                    "internalType": "address",
                    "name": "spender",
                    "type": "address"
                },
                {
                    "internalType": "uint256",
                    "name": "value",
                    "type": "uint256"
                }
            ],
            "name": "approve",
            "outputs": [
                {
                    "internalType": "bool",
                    "name": "",
                    "type": "bool"
                }
            ],
            "stateMutability": "nonpayable",
            "type": "function"
        },
        {
            "inputs": [
                {
                    "internalType": "address",
                    "name": "",
                    "type": "address"
                }
            ],
            "name": "balanceOf",
            "outputs": [
                {
                    "internalType": "uint256",
                    "name": "",
                    "type": "uint256"
                }
            ],
            "stateMutability": "view",
            "type": "function"
        },
        {
            "inputs": [],
            "name": "canAddLiquidity",
            "outputs": [
                {
                    "internalType": "bool",
                    "name": "",
                    "type": "bool"
                }
            ],
            "stateMutability": "view",
            "type": "function"
        },
        {
            "inputs": [],
            "name": "canOpen",
            "outputs": [
                {
                    "internalType": "bool",
                    "name": "",
                    "type": "bool"
                }
            ],
            "stateMutability": "view",
            "type": "function"
        },
        {
            "inputs": [
                {
                    "internalType": "uint256",
                    "name": "priceExp",
                    "type": "uint256"
                },
                {
                    "internalType": "uint256",
                    "name": "amount",
                    "type": "uint256"
                },
                {
                    "internalType": "uint256",
                    "name": "deadline",
                    "type": "uint256"
                }
            ],
            "name": "closeLong",
            "outputs": [],
            "stateMutability": "nonpayable",
            "type": "function"
        },
        {
            "inputs": [
                {
                    "internalType": "uint256",
                    "name": "priceExp",
                    "type": "uint256"
                },
                {
                    "internalType": "uint256",
                    "name": "amount",
                    "type": "uint256"
                },
                {
                    "internalType": "uint256",
                    "name": "deadline",
                    "type": "uint256"
                }
            ],
            "name": "closeShort",
            "outputs": [],
            "stateMutability": "nonpayable",
            "type": "function"
        },
        {
            "inputs": [],
            "name": "contractSetter",
            "outputs": [
                {
                    "internalType": "address",
                    "name": "",
                    "type": "address"
                }
            ],
            "stateMutability": "view",
            "type": "function"
        },
        {
            "inputs": [],
            "name": "dailyInterestRateBase",
            "outputs": [
                {
                    "internalType": "uint16",
                    "name": "",
                    "type": "uint16"
                }
            ],
            "stateMutability": "view",
            "type": "function"
        },
        {
            "inputs": [],
            "name": "decimals",
            "outputs": [
                {
                    "internalType": "uint8",
                    "name": "",
                    "type": "uint8"
                }
            ],
            "stateMutability": "view",
            "type": "function"
        },
        {
            "inputs": [
                {
                    "internalType": "address",
                    "name": "account",
                    "type": "address"
                },
                {
                    "internalType": "address",
                    "name": "to",
                    "type": "address"
                }
            ],
            "name": "detectSlide",
            "outputs": [],
            "stateMutability": "nonpayable",
            "type": "function"
        },
        {
            "inputs": [],
            "name": "divConst",
            "outputs": [
                {
                    "internalType": "uint24",
                    "name": "",
                    "type": "uint24"
                }
            ],
            "stateMutability": "view",
            "type": "function"
        },
        {
            "inputs": [
                {
                    "internalType": "address",
                    "name": "account",
                    "type": "address"
                },
                {
                    "internalType": "address",
                    "name": "to",
                    "type": "address"
                }
            ],
            "name": "explosive",
            "outputs": [],
            "stateMutability": "nonpayable",
            "type": "function"
        },
        {
            "inputs": [],
            "name": "explosivePool",
            "outputs": [],
            "stateMutability": "nonpayable",
            "type": "function"
        },
        {
            "inputs": [],
            "name": "feeDivide",
            "outputs": [
                {
                    "internalType": "uint24",
                    "name": "",
                    "type": "uint24"
                }
            ],
            "stateMutability": "view",
            "type": "function"
        },
        {
            "inputs": [],
            "name": "feeOn",
            "outputs": [
                {
                    "internalType": "bool",
                    "name": "",
                    "type": "bool"
                }
            ],
            "stateMutability": "view",
            "type": "function"
        },
        {
            "inputs": [],
            "name": "feeRate",
            "outputs": [
                {
                    "internalType": "uint16",
                    "name": "",
                    "type": "uint16"
                }
            ],
            "stateMutability": "view",
            "type": "function"
        },
        {
            "inputs": [],
            "name": "feeTo",
            "outputs": [
                {
                    "internalType": "address",
                    "name": "",
                    "type": "address"
                }
            ],
            "stateMutability": "view",
            "type": "function"
        },
        {
            "inputs": [],
            "name": "feedPrice",
            "outputs": [
                {
                    "internalType": "contract IIndexPrice",
                    "name": "",
                    "type": "address"
                }
            ],
            "stateMutability": "view",
            "type": "function"
        },
        {
            "inputs": [
                {
                    "internalType": "address",
                    "name": "account",
                    "type": "address"
                },
                {
                    "internalType": "address",
                    "name": "to",
                    "type": "address"
                }
            ],
            "name": "forceCloseAccount",
            "outputs": [],
            "stateMutability": "nonpayable",
            "type": "function"
        },
        {
            "inputs": [],
            "name": "getLatestPrice",
            "outputs": [
                {
                    "internalType": "uint256",
                    "name": "",
                    "type": "uint256"
                }
            ],
            "stateMutability": "view",
            "type": "function"
        },
        {
            "inputs": [],
            "name": "getPoolNet",
            "outputs": [
                {
                    "internalType": "int256",
                    "name": "",
                    "type": "int256"
                }
            ],
            "stateMutability": "view",
            "type": "function"
        },
        {
            "inputs": [],
            "name": "getPoolPosition",
            "outputs": [
                {
                    "internalType": "int256",
                    "name": "",
                    "type": "int256"
                },
                {
                    "internalType": "uint256",
                    "name": "",
                    "type": "uint256"
                },
                {
                    "internalType": "uint256",
                    "name": "",
                    "type": "uint256"
                },
                {
                    "internalType": "uint256",
                    "name": "",
                    "type": "uint256"
                },
                {
                    "internalType": "uint256",
                    "name": "",
                    "type": "uint256"
                },
                {
                    "internalType": "uint8",
                    "name": "",
                    "type": "uint8"
                }
            ],
            "stateMutability": "view",
            "type": "function"
        },
        {
            "inputs": [],
            "name": "interestRewardRate",
            "outputs": [
                {
                    "internalType": "uint24",
                    "name": "",
                    "type": "uint24"
                }
            ],
            "stateMutability": "view",
            "type": "function"
        },
        {
            "inputs": [],
            "name": "isStart",
            "outputs": [
                {
                    "internalType": "bool",
                    "name": "",
                    "type": "bool"
                }
            ],
            "stateMutability": "view",
            "type": "function"
        },
        {
            "inputs": [],
            "name": "keepMarginScale",
            "outputs": [
                {
                    "internalType": "uint8",
                    "name": "",
                    "type": "uint8"
                }
            ],
            "stateMutability": "view",
            "type": "function"
        },
        {
            "inputs": [],
            "name": "leverage",
            "outputs": [
                {
                    "internalType": "uint8",
                    "name": "",
                    "type": "uint8"
                }
            ],
            "stateMutability": "view",
            "type": "function"
        },
        {
            "inputs": [],
            "name": "minPool",
            "outputs": [
                {
                    "internalType": "uint256",
                    "name": "",
                    "type": "uint256"
                }
            ],
            "stateMutability": "view",
            "type": "function"
        },
        {
            "inputs": [],
            "name": "name",
            "outputs": [
                {
                    "internalType": "string",
                    "name": "",
                    "type": "string"
                }
            ],
            "stateMutability": "view",
            "type": "function"
        },
        {
            "inputs": [
                {
                    "internalType": "address",
                    "name": "",
                    "type": "address"
                }
            ],
            "name": "nonces",
            "outputs": [
                {
                    "internalType": "uint256",
                    "name": "",
                    "type": "uint256"
                }
            ],
            "stateMutability": "view",
            "type": "function"
        },
        {
            "inputs": [
                {
                    "internalType": "uint256",
                    "name": "priceExp",
                    "type": "uint256"
                },
                {
                    "internalType": "uint256",
                    "name": "amount",
                    "type": "uint256"
                },
                {
                    "internalType": "uint256",
                    "name": "deadline",
                    "type": "uint256"
                }
            ],
            "name": "openLong",
            "outputs": [],
            "stateMutability": "nonpayable",
            "type": "function"
        },
        {
            "inputs": [
                {
                    "internalType": "uint256",
                    "name": "priceExp",
                    "type": "uint256"
                },
                {
                    "internalType": "uint256",
                    "name": "amount",
                    "type": "uint256"
                },
                {
                    "internalType": "uint256",
                    "name": "deadline",
                    "type": "uint256"
                }
            ],
            "name": "openShort",
            "outputs": [],
            "stateMutability": "nonpayable",
            "type": "function"
        },
        {
            "inputs": [
                {
                    "internalType": "address",
                    "name": "owner",
                    "type": "address"
                },
                {
                    "internalType": "address",
                    "name": "spender",
                    "type": "address"
                },
                {
                    "internalType": "uint256",
                    "name": "value",
                    "type": "uint256"
                },
                {
                    "internalType": "uint256",
                    "name": "deadline",
                    "type": "uint256"
                },
                {
                    "internalType": "uint8",
                    "name": "v",
                    "type": "uint8"
                },
                {
                    "internalType": "bytes32",
                    "name": "r",
                    "type": "bytes32"
                },
                {
                    "internalType": "bytes32",
                    "name": "s",
                    "type": "bytes32"
                }
            ],
            "name": "permit",
            "outputs": [],
            "stateMutability": "nonpayable",
            "type": "function"
        },
        {
            "inputs": [],
            "name": "poolExplosivePrice",
            "outputs": [
                {
                    "internalType": "uint256",
                    "name": "",
                    "type": "uint256"
                }
            ],
            "stateMutability": "view",
            "type": "function"
        },
        {
            "inputs": [],
            "name": "poolLeftAmountRate",
            "outputs": [
                {
                    "internalType": "uint24",
                    "name": "",
                    "type": "uint24"
                }
            ],
            "stateMutability": "view",
            "type": "function"
        },
        {
            "inputs": [],
            "name": "poolLongAmount",
            "outputs": [
                {
                    "internalType": "uint256",
                    "name": "",
                    "type": "uint256"
                }
            ],
            "stateMutability": "view",
            "type": "function"
        },
        {
            "inputs": [],
            "name": "poolLongPrice",
            "outputs": [
                {
                    "internalType": "uint256",
                    "name": "",
                    "type": "uint256"
                }
            ],
            "stateMutability": "view",
            "type": "function"
        },
        {
            "inputs": [],
            "name": "poolNetAmountRateLimitOpen",
            "outputs": [
                {
                    "internalType": "int24",
                    "name": "",
                    "type": "int24"
                }
            ],
            "stateMutability": "view",
            "type": "function"
        },
        {
            "inputs": [],
            "name": "poolNetAmountRateLimitPrice",
            "outputs": [
                {
                    "internalType": "int24",
                    "name": "",
                    "type": "int24"
                }
            ],
            "stateMutability": "view",
            "type": "function"
        },
        {
            "inputs": [],
            "name": "poolShortAmount",
            "outputs": [
                {
                    "internalType": "uint256",
                    "name": "",
                    "type": "uint256"
                }
            ],
            "stateMutability": "view",
            "type": "function"
        },
        {
            "inputs": [],
            "name": "poolShortPrice",
            "outputs": [
                {
                    "internalType": "uint256",
                    "name": "",
                    "type": "uint256"
                }
            ],
            "stateMutability": "view",
            "type": "function"
        },
        {
            "inputs": [],
            "name": "poolState",
            "outputs": [
                {
                    "internalType": "uint8",
                    "name": "",
                    "type": "uint8"
                }
            ],
            "stateMutability": "view",
            "type": "function"
        },
        {
            "inputs": [
                {
                    "internalType": "uint256",
                    "name": "amount",
                    "type": "uint256"
                }
            ],
            "name": "rechargeMargin",
            "outputs": [],
            "stateMutability": "nonpayable",
            "type": "function"
        },
        {
            "inputs": [
                {
                    "internalType": "uint256",
                    "name": "liquidity",
                    "type": "uint256"
                },
                {
                    "internalType": "address",
                    "name": "to",
                    "type": "address"
                }
            ],
            "name": "removeLiquidity",
            "outputs": [],
            "stateMutability": "nonpayable",
            "type": "function"
        },
        {
            "inputs": [
                {
                    "internalType": "bool",
                    "name": "b",
                    "type": "bool"
                }
            ],
            "name": "setCanAddLiquidity",
            "outputs": [],
            "stateMutability": "nonpayable",
            "type": "function"
        },
        {
            "inputs": [
                {
                    "internalType": "bool",
                    "name": "b",
                    "type": "bool"
                }
            ],
            "name": "setCanOpen",
            "outputs": [],
            "stateMutability": "nonpayable",
            "type": "function"
        },
        {
            "inputs": [
                {
                    "internalType": "bool",
                    "name": "b",
                    "type": "bool"
                }
            ],
            "name": "setFeeOn",
            "outputs": [],
            "stateMutability": "nonpayable",
            "type": "function"
        },
        {
            "inputs": [
                {
                    "internalType": "uint16",
                    "name": "value",
                    "type": "uint16"
                }
            ],
            "name": "setFeeRate",
            "outputs": [],
            "stateMutability": "nonpayable",
            "type": "function"
        },
        {
            "inputs": [
                {
                    "internalType": "address",
                    "name": "_feeTo",
                    "type": "address"
                }
            ],
            "name": "setFeeTo",
            "outputs": [],
            "stateMutability": "nonpayable",
            "type": "function"
        },
        {
            "inputs": [
                {
                    "internalType": "address",
                    "name": "_feedPrice",
                    "type": "address"
                }
            ],
            "name": "setFeedPrice",
            "outputs": [],
            "stateMutability": "nonpayable",
            "type": "function"
        },
        {
            "inputs": [
                {
                    "internalType": "uint8",
                    "name": "value",
                    "type": "uint8"
                }
            ],
            "name": "setKeepMarginScale",
            "outputs": [],
            "stateMutability": "nonpayable",
            "type": "function"
        },
        {
            "inputs": [
                {
                    "internalType": "int24",
                    "name": "value",
                    "type": "int24"
                }
            ],
            "name": "setPoolNetAmountRateLimitOpen",
            "outputs": [],
            "stateMutability": "nonpayable",
            "type": "function"
        },
        {
            "inputs": [
                {
                    "internalType": "int24",
                    "name": "value",
                    "type": "int24"
                }
            ],
            "name": "setPoolNetAmountRateLimitPrice",
            "outputs": [],
            "stateMutability": "nonpayable",
            "type": "function"
        },
        {
            "inputs": [],
            "name": "singleCloseLimitRate",
            "outputs": [
                {
                    "internalType": "uint24",
                    "name": "",
                    "type": "uint24"
                }
            ],
            "stateMutability": "view",
            "type": "function"
        },
        {
            "inputs": [],
            "name": "singleOpenLimitRate",
            "outputs": [
                {
                    "internalType": "uint16",
                    "name": "",
                    "type": "uint16"
                }
            ],
            "stateMutability": "view",
            "type": "function"
        },
        {
            "inputs": [],
            "name": "slideP",
            "outputs": [
                {
                    "internalType": "uint8",
                    "name": "",
                    "type": "uint8"
                }
            ],
            "stateMutability": "view",
            "type": "function"
        },
        {
            "inputs": [],
            "name": "sumFee",
            "outputs": [
                {
                    "internalType": "uint256",
                    "name": "",
                    "type": "uint256"
                }
            ],
            "stateMutability": "view",
            "type": "function"
        },
        {
            "inputs": [],
            "name": "symbol",
            "outputs": [
                {
                    "internalType": "string",
                    "name": "",
                    "type": "string"
                }
            ],
            "stateMutability": "view",
            "type": "function"
        },
        {
            "inputs": [],
            "name": "token0",
            "outputs": [
                {
                    "internalType": "address",
                    "name": "",
                    "type": "address"
                }
            ],
            "stateMutability": "view",
            "type": "function"
        },
        {
            "inputs": [],
            "name": "token0Decimal",
            "outputs": [
                {
                    "internalType": "uint256",
                    "name": "",
                    "type": "uint256"
                }
            ],
            "stateMutability": "view",
            "type": "function"
        },
        {
            "inputs": [],
            "name": "totalPool",
            "outputs": [
                {
                    "internalType": "int256",
                    "name": "",
                    "type": "int256"
                }
            ],
            "stateMutability": "view",
            "type": "function"
        },
        {
            "inputs": [],
            "name": "totalSupply",
            "outputs": [
                {
                    "internalType": "uint256",
                    "name": "",
                    "type": "uint256"
                }
            ],
            "stateMutability": "view",
            "type": "function"
        },
        {
            "inputs": [
                {
                    "internalType": "address",
                    "name": "",
                    "type": "address"
                }
            ],
            "name": "traders",
            "outputs": [
                {
                    "internalType": "int256",
                    "name": "margin",
                    "type": "int256"
                },
                {
                    "internalType": "uint256",
                    "name": "longAmount",
                    "type": "uint256"
                },
                {
                    "internalType": "uint256",
                    "name": "longPrice",
                    "type": "uint256"
                },
                {
                    "internalType": "uint256",
                    "name": "shortAmount",
                    "type": "uint256"
                },
                {
                    "internalType": "uint256",
                    "name": "shortPrice",
                    "type": "uint256"
                },
                {
                    "internalType": "uint32",
                    "name": "interestDay",
                    "type": "uint32"
                }
            ],
            "stateMutability": "view",
            "type": "function"
        },
        {
            "inputs": [
                {
                    "internalType": "address",
                    "name": "to",
                    "type": "address"
                },
                {
                    "internalType": "uint256",
                    "name": "value",
                    "type": "uint256"
                }
            ],
            "name": "transfer",
            "outputs": [
                {
                    "internalType": "bool",
                    "name": "",
                    "type": "bool"
                }
            ],
            "stateMutability": "nonpayable",
            "type": "function"
        },
        {
            "inputs": [
                {
                    "internalType": "address",
                    "name": "_contractSetter",
                    "type": "address"
                }
            ],
            "name": "transferContractSetter",
            "outputs": [],
            "stateMutability": "nonpayable",
            "type": "function"
        },
        {
            "inputs": [
                {
                    "internalType": "address",
                    "name": "from",
                    "type": "address"
                },
                {
                    "internalType": "address",
                    "name": "to",
                    "type": "address"
                },
                {
                    "internalType": "uint256",
                    "name": "value",
                    "type": "uint256"
                }
            ],
            "name": "transferFrom",
            "outputs": [
                {
                    "internalType": "bool",
                    "name": "",
                    "type": "bool"
                }
            ],
            "stateMutability": "nonpayable",
            "type": "function"
        },
        {
            "inputs": [],
            "name": "withdrawFee",
            "outputs": [],
            "stateMutability": "nonpayable",
            "type": "function"
        },
        {
            "inputs": [
                {
                    "internalType": "uint256",
                    "name": "amount",
                    "type": "uint256"
                }
            ],
            "name": "withdrawMargin",
            "outputs": [],
            "stateMutability": "nonpayable",
            "type": "function"
        }
    ],
    "bytecode": "6101606040526006805461ffff60a01b191661010160a01b17905560016008556009805461010062ffff0160401b0319166a0258001e0493e0061a80001790553480156200004c57600080fd5b5060405162004b8038038062004b808339810160408190526200006f91620002d5565b846001600160a01b031663313ce5676040518163ffffffff1660e01b8152600401602060405180830381865afa158015620000ae573d6000803e3d6000fd5b505050506040513d601f19601f82011682018060405250810190620000d4919062000345565b604080518082018252600c81526b48656467657853696e676c6560a01b6020918201528151808301835260018152603160f81b9082015281517f8b73c3c69bb8fe3d512ecc4cf759cc79239f7b179b0ffacaa9a75d522b39400f918101919091527fdbb8f54117374490c454ab41b80d95cf4a0c3b286124d9b83e346d854dc3efcd918101919091527fc89efdaa54c0f20c7adf612882df0950f5a951637e0307cdcb4c672f298b8bc660608201524660808201523060a082015260c00160408051601f19818403018152828252805160209182012060a05260ff9093166080526006805460ff60b01b1916600160b01b179055601180546001600160a01b03808a166001600160a01b031990921691909117909155881661010081905263313ce56760e01b83529051909263313ce56792600480820193918290030181865afa15801562000227573d6000803e3d6000fd5b505050506040513d601f19601f820116820180604052508101906200024d919062000345565b6200025a90600a6200047f565b6101205260c09290925260ff1660e0526009805460ff60ff60401b0119166801000000000000000017905560000b610140525050600580546001600160a01b0319163317905562000490565b80516001600160a01b0381168114620002be57600080fd5b919050565b805160ff81168114620002be57600080fd5b600080600080600060a08688031215620002ee57600080fd5b620002f986620002a6565b94506200030960208701620002a6565b9350604086015192506200032060608701620002c3565b915060808601518060000b81146200033757600080fd5b809150509295509295909350565b6000602082840312156200035857600080fd5b6200036382620002c3565b9392505050565b634e487b7160e01b600052601160045260246000fd5b600181815b80851115620003c1578160001904821115620003a557620003a56200036a565b80851615620003b357918102915b93841c939080029062000385565b509250929050565b600082620003da5750600162000479565b81620003e95750600062000479565b81600181146200040257600281146200040d576200042d565b600191505062000479565b60ff8411156200042157620004216200036a565b50506001821b62000479565b5060208310610133831016604e8410600b841016171562000452575081810a62000479565b6200045e838362000380565b80600019048211156200047557620004756200036a565b0290505b92915050565b60006200036360ff841683620003c9565b60805160a05160c05160e05161010051610120516101405161461062000570600039600081816105ef015281816125410152818161256e01526125df015260008181610969015281816115f401528181612599015261261301526000818161052101528181610cec01528181610f5e01528181610ffc015281816116370152818161235901528181612a9501528181613130015261326701526000818161064301528181610df801528181613a7a0152613ae30152600081816105b50152612b0e0152600081816106d50152612c29015260006106a501526146106000f3fe608060405234801561001057600080fd5b50600436106104335760003560e01c8063807ca35311610236578063bedc409b1161013b578063ddcb04c2116100c3578063ecfb49a311610087578063ecfb49a314610ab2578063f46901ed14610abb578063fa50744514610ace578063fc4064b314610ae1578063ffaeb58214610af457600080fd5b8063ddcb04c214610a73578063e02b5d6014610a86578063e4344a6014610a8e578063e598431914610aa1578063e941fa7814610aaa57600080fd5b8063ce8ad1d21161010a578063ce8ad1d214610a0f578063d1ad24be14610a18578063d375454f14610a2b578063d505accf14610a35578063dd62ed3e14610a4857600080fd5b8063bedc409b146109c4578063c669c32c146109d7578063c95f9d0e146109ea578063cd8bb6cd146109fd57600080fd5b806392a88fa2116101be578063994af3ae1161018d578063994af3ae1461095b5780639ddc230a14610964578063a04eecae1461098b578063a9059cbb1461099e578063bb9186a6146109b157600080fd5b806392a88fa21461089e57806395d89b411461091a578063971059fb1461093d578063978bbdb91461094657600080fd5b80638a55d36e116102055780638a55d36e146108595780638b0af0fa146108665780638e15f4731461087a5780638e4068921461088257806390edbeb01461088b57600080fd5b8063807ca353146108175780638632d4ab1461082a5780638967b6941461083d57806389d408ff1461084657600080fd5b8063303c0a3b1161033c5780636422e08f116102c457806373e6054b1161029357806373e6054b1461079c5780637aaae950146104685780637bb71a97146107e55780637e4856c4146107ed5780637ecebe00146107f757600080fd5b80636422e08f146107435780636c2ee3591461075657806370a082311461076957806371b317071461078957600080fd5b80633644e5151161030b5780633644e515146106d05780633e31fb45146106f75780634f335d0a146106ff5780635d0291ac14610713578063641ad8a91461072f57600080fd5b8063303c0a3b1461066557806330adf81f14610679578063313ce567146106a057806333d6f1f7146106c757600080fd5b806318160ddd116103bf5780632678b8fd1161038e5780632678b8fd146105b057806329ff0773146105d75780632be90282146105ea5780632c204fa8146106245780632c86d98e1461063e57600080fd5b806318160ddd14610556578063190b065f1461056d5780631cce91031461057657806323b872dd1461059d57600080fd5b8063095ea7b311610406578063095ea7b3146104d35780630cea7534146104f65780630def3ead146105095780630dfe16811461051c57806311ce83f81461054357600080fd5b8063017e7e581461043857806301bcc9081461046857806305fe138b1461048657806306fdde031461049b575b600080fd5b60045461044b906001600160a01b031681565b6040516001600160a01b0390911681526020015b60405180910390f35b610472620186a081565b60405162ffffff909116815260200161045f565b610499610494366004613da3565b610b08565b005b6104c66040518060400160405280600c81526020016b48656467657853696e676c6560a01b81525081565b60405161045f9190613dff565b6104e66104e1366004613e32565b610d4d565b604051901515815260200161045f565b610499610504366004613e5c565b610d64565b610499610517366004613e83565b610fc2565b61044b7f000000000000000000000000000000000000000000000000000000000000000081565b610499610551366004613e5c565b610ff7565b61055f60005481565b60405190815260200161045f565b61055f600a5481565b60095461058a90600160201b900460020b81565b60405160029190910b815260200161045f565b6104e66105ab366004613ea0565b61107f565b61055f7f000000000000000000000000000000000000000000000000000000000000000081565b6104996105e5366004613edc565b6110f9565b6106117f000000000000000000000000000000000000000000000000000000000000000081565b60405160009190910b815260200161045f565b61062c603281565b60405160ff909116815260200161045f565b61062c7f000000000000000000000000000000000000000000000000000000000000000081565b60095461062c90600160381b900460ff1681565b61055f7f6e71edae12b1b97f4d1f60370fef10105fa2faae0126114a169c64845d6126c981565b61062c7f000000000000000000000000000000000000000000000000000000000000000081565b61055f60075481565b61055f7f000000000000000000000000000000000000000000000000000000000000000081565b61049961114b565b6009546104e690600160401b900460ff1681565b61071c61753081565b60405161ffff909116815260200161045f565b60065461062c90600160b01b900460ff1681565b610499610751366004613f00565b611383565b610499610764366004613f2a565b6116be565b61055f610777366004613f56565b60016020526000908152604090205481565b610499610797366004613f2a565b6119e0565b600b54600c54600e54600d54600f546006546040805196875260208701959095529385019290925260608401526080830152600160b01b900460ff1660a082015260c00161045f565b61055f611ce0565b610472620f424081565b61055f610805366004613f56565b60036020526000908152604090205481565b610499610825366004613f2a565b611d91565b610499610838366004613f82565b6120bb565b61071c6103e881565b610499610854366004613f00565b612109565b6009546104e69060ff1681565b6006546104e690600160a01b900460ff1681565b61055f61245b565b61055f600d5481565b610499610899366004613f2a565b612642565b6108e76108ac366004613f56565b601060205260009081526040902080546001820154600283015460038401546004850154600590950154939492939192909163ffffffff1686565b604080519687526020870195909552938501929092526060840152608083015263ffffffff1660a082015260c00161045f565b6104c6604051806040016040528060048152602001634845585360e01b81525081565b61055f600f5481565b60095461071c90600160481b900461ffff1681565b61055f600e5481565b61055f7f000000000000000000000000000000000000000000000000000000000000000081565b60115461044b906001600160a01b031681565b6104e66109ac366004613e32565b61294c565b6104996109bf366004613f56565b612959565b6104996109d2366004613f9d565b6129a5565b6104996109e5366004613f56565b6129ef565b6104996109f8366004613da3565b612a3b565b60095461058a90610100900460020b81565b61047261c35081565b610499610a26366004613f9d565b612b7c565b6104726203d09081565b610499610a43366004613fc0565b612bcb565b61055f610a56366004613f00565b600260209081526000928352604080842090915290825290205481565b610499610a81366004613f00565b612df7565b6104996131b7565b60055461044b906001600160a01b031681565b61055f600c5481565b610499613208565b61055f600b5481565b610499610ac9366004613f56565b613299565b610499610adc366004613e83565b6132e5565b610499610aef366004613e83565b61331a565b6006546104e690600160a81b900460ff1681565b600654600160b01b900460ff16600114610b3d5760405162461bcd60e51b8152600401610b349061402a565b60405180910390fd5b600954829060ff1615610cc5576000610b5461245b565b90506000610b6182613367565b90506000600d54600c5411610b8557600c54600d54610b809190614067565b610b95565b600d54600c54610b959190614067565b905060006003600d54600c54610bab919061407e565b610bb591906140ac565b905080821015610bc3578091505b600954600090610100900462ffffff16620f4240610be187866140c0565b610beb91906140c0565b610bf591906140ac565b9050808413610c465760405162461bcd60e51b815260206004820152601760248201527f6e6574206d757374203e20757365644d617267696e2f520000000000000000006044820152606401610b34565b6000610c528286614067565b600054909150610c628a876140c0565b610c6c91906140ac565b965080871115610cbe5760405162461bcd60e51b815260206004820152601860248201527f776974686472617720616d6f756e7420746f6f206d616e7900000000000000006044820152606401610b34565b5050505050505b80600b6000828254610cd791906140df565b90915550610ce7905033846133b0565b610d127f0000000000000000000000000000000000000000000000000000000000000000838361343b565b60405183815233907fcc16f5dbb4873280815c1ee09dbd06736cffcc184412cf7a71a0fdb75d397ca5906020015b60405180910390a2505050565b6000610d5a338484613556565b5060015b92915050565b600654600160b01b900460ff16600114610d905760405162461bcd60e51b8152600401610b349061402a565b336000908152601060209081526040808320815160c0810183528154815260018201549381019390935260028101549183019190915260038101546060830152600481015460808301526005015463ffffffff1660a082015290610df261245b565b905060007f000000000000000000000000000000000000000000000000000000000000000060ff1683608001518460600151610e2e91906140c0565b84604001518560200151610e4291906140c0565b610e4c919061407e565b610e5691906140ac565b90506000828460600151610e6a91906140c0565b84604001518560200151610e7e91906140c0565b610e88919061407e565b84608001518560600151610e9c91906140c0565b848660200151610eac91906140c0565b610eb6919061407e565b8551610ec2919061411e565b610ecc91906140df565b90506000610eda83836140df565b905060008113610f2c5760405162461bcd60e51b815260206004820152601860248201527f63616e207769746864726177206973206e6567617469766500000000000000006044820152606401610b34565b8581811315610f385750805b8551610f459082906140df565b33600081815260106020526040902091909155610f84907f0000000000000000000000000000000000000000000000000000000000000000908361343b565b60405181815233907f884edad9ce6fa2440d8a54cc123490eb96d2768479d49ff9c7366125a94243649060200160405180910390a250505050505050565b6005546001600160a01b03163314610fd957600080fd5b60068054911515600160a81b0260ff60a81b19909216919091179055565b6110237f00000000000000000000000000000000000000000000000000000000000000003330846135b8565b336000908152601060205260408120805483929061104290849061411e565b909155505060405181815233907f78d9de6f3ad1cae9e0cbcbaa5267fd90f6a6728831eec42b7c147b398b2269249060200160405180910390a250565b6001600160a01b0383166000908152600260209081526040808320338452909152812054600019146110e4576001600160a01b0384166000908152600260209081526040808320338452909152812080548492906110de908490614067565b90915550505b6110ef8484846136e8565b5060019392505050565b6005546001600160a01b031633146111235760405162461bcd60e51b8152600401610b349061415f565b6009805461ffff909216600160481b026affff00000000000000000019909216919091179055565b60085460011461116d5760405162461bcd60e51b8152600401610b349061418a565b6000600855600654600160b01b900460ff166001146111c45760405162461bcd60e51b8152602060048201526013602482015272706f6f6c206973206578706c6f736976696e6760681b6044820152606401610b34565b60006111ce61245b565b905060006111db82613367565b90506000600d54600c541161121657600583600c54600d546111fd9190614067565b61120791906140c0565b61121191906140ac565b61123d565b600583600d54600c546112299190614067565b61123391906140c0565b61123d91906140ac565b90508082131561128f5760405162461bcd60e51b815260206004820152601960248201527f706f6f6c2063616e6e2774206265206578706c6f7369766564000000000000006044820152606401610b34565b6006805460ff60b01b1916600160b11b17905560006112af6004836140ac565b905080831215611363576000600c54600d546112cb91906140df565b82600f54600d546112dc91906140c0565b600e54600c546112ec91906140c0565b600b546112f991906140df565b611303919061411e565b61130d91906140df565b61131791906141b1565b9050600081136113565760405162461bcd60e51b815260206004820152600a6024820152690657072696365203e20360b41b6044820152606401610b34565b600755600b81905561136e565b600b83905560078490555b50506000600f819055600e5550506001600855565b6008546001146113a55760405162461bcd60e51b8152600401610b349061418a565b6000600855600654600160b01b900460ff166002146113fb5760405162461bcd60e51b81526020600482015260126024820152713837b7b629ba30ba329034b9903737ba101960711b6044820152606401610b34565b6001600160a01b0382166000908152601060209081526040808320815160c0810183528154815260018201549381019390935260028101549183019190915260038101546060830152600481015460808301526005015463ffffffff1660a0820152600754909161146c8383613789565b6009546060850151919250600091620f424091600160481b900461ffff16906114969086906140c0565b8587602001516114a691906140c0565b6114b0919061407e565b6114ba91906140c0565b6114c491906140ac565b6020850151909150156114ed578360200151600d60008282546114e79190614067565b90915550505b606084015115611513578360600151600c600082825461150d9190614067565b90915550505b600c541580156115235750600d54155b1561153c576006805460ff60b01b1916600160b01b1790555b808213156115875761154e81836140df565b6001600160a01b038716600090815260106020526040812091909155600b805483929061157c90849061411e565b909155506115ba9050565b6001600160a01b0386166000908152601060205260408120819055600b80548492906115b490849061411e565b90915550505b6001600160a01b0386166000908152601060205260408120600181018290556002810182905560038101829055600401819055611618600a7f00000000000000000000000000000000000000000000000000000000000000006140ac565b905080600b600082825461162c91906140df565b9091555061165d90507f0000000000000000000000000000000000000000000000000000000000000000878361343b565b60208086015160608088015160408051938452938301529181018690526001600160a01b038916917ffca559ae7a3bea5c41671f27049d90b84fbf98be965e6d7f0259ee6e5caa980b910160405180910390a2505060016008555050505050565b6008546001146116e05760405162461bcd60e51b8152600401610b349061418a565b600060085580428110156117065760405162461bcd60e51b8152600401610b34906141df565b600654600160b01b900460ff166001146117325760405162461bcd60e51b8152600401610b349061402a565b60095460ff1661177c5760405162461bcd60e51b815260206004820152601560248201527418dbdb9d1c9858dd081a5cc81b9bdd081cdd185c9d605a1b6044820152606401610b34565b600654600160a81b900460ff166117a55760405162461bcd60e51b8152600401610b349061420e565b60006117af61245b565b90506000806117bf600184613804565b909250905082620f42406117d5617530846140c0565b6117df91906140ac565b6117e991906140ac565b8611156118085760405162461bcd60e51b8152600401610b3490614231565b600954610100900460020b82126118315760405162461bcd60e51b8152600401610b3490614268565b600061183d8484613863565b611847908561407e565b90508781111580611856575087155b6118a25760405162461bcd60e51b815260206004820152601b60248201527f6f70656e206c6f6e6720707269636520697320746f6f206869676800000000006044820152606401610b34565b60006118ae82896140c0565b90506000806118bd8784613966565b915091508981602001516118d1919061407e565b336000908152601060209081526040909120600101919091558101516118f8908b9061407e565b838260400151836020015161190d91906140c0565b611917919061407e565b61192191906140ac565b3360009081526010602052604090206002015580516119419083906140df565b33600090815260106020526040902055600d5461195e8b8261407e565b600d5561196b8b8261407e565b84600f548361197a91906140c0565b611984919061407e565b61198e91906140ac565b600f5561199a83613bdc565b6040805160018152602081018d905290810186905233906000805160206145bb833981519152906060015b60405180910390a25050600160085550505050505050505050565b600854600114611a025760405162461bcd60e51b8152600401610b349061418a565b60006008558042811015611a285760405162461bcd60e51b8152600401610b34906141df565b600654600160b01b900460ff16600114611a545760405162461bcd60e51b8152600401610b349061402a565b60095460ff16611a9e5760405162461bcd60e51b815260206004820152601560248201527418dbdb9d1c9858dd081a5cc81b9bdd081cdd185c9d605a1b6044820152606401610b34565b600654600160a81b900460ff16611ac75760405162461bcd60e51b8152600401610b349061420e565b6000611ad161245b565b9050600080611ae260001984613804565b909250905082620f4240611af8617530846140c0565b611b0291906140ac565b611b0c91906140ac565b861115611b2b5760405162461bcd60e51b8152600401610b3490614231565b600954610100900460020b8212611b545760405162461bcd60e51b8152600401610b3490614268565b6000611b608484613863565b611b6a9085614067565b905087811015611bbc5760405162461bcd60e51b815260206004820152601b60248201527f6f70656e2073686f727420707269636520697320746f6f206c6f7700000000006044820152606401610b34565b6000611bc882896140c0565b9050600080611bd78784613966565b91509150898160600151611beb919061407e565b336000908152601060205260409020600301556060810151611c0e908b9061407e565b8382608001518360600151611c2391906140c0565b611c2d919061407e565b611c3791906140ac565b336000908152601060205260409020600401558051611c579083906140df565b33600090815260106020526040902055600c54611c748b8261407e565b600c55611c818b8261407e565b84600e5483611c9091906140c0565b611c9a919061407e565b611ca491906140ac565b600e55611cb083613bdc565b604080516000198152602081018d905290810186905233906000805160206145bb833981519152906060016119c5565b600080611ceb61245b565b9050600081600d54611cfd91906140c0565b600e54600c54611d0d91906140c0565b611d17919061407e565b600f54600d54611d2791906140c0565b83600c54611d3591906140c0565b611d3f919061407e565b600b54611d4c919061411e565b611d5691906140df565b905060008113610d5e5760405162461bcd60e51b815260206004820152600660248201526506e65743c3d360d41b6044820152606401610b34565b600854600114611db35760405162461bcd60e51b8152600401610b349061418a565b60006008558042811015611dd95760405162461bcd60e51b8152600401610b34906141df565b600654600160b01b900460ff16600114611e055760405162461bcd60e51b8152600401610b349061402a565b6000611e0f61245b565b9050600080611e1f600184613804565b909250905082620f4240611e36620186a0846140c0565b611e4091906140ac565b611e4a91906140ac565b861115611e695760405162461bcd60e51b8152600401610b3490614231565b6000611e758484613863565b611e7f908561407e565b90508781111580611e8e575087155b611eda5760405162461bcd60e51b815260206004820152601d60248201527f636c6f73652073686f727420707269636520697320746f6f20686967680000006044820152606401610b34565b33600090815260106020908152604091829020825160c081018452815481526001820154928101929092526002810154928201929092526003820154606082018190526004830154608083015260059092015463ffffffff1660a082015290881115611f945760405162461bcd60e51b815260206004820152602360248201527f636c6f736520616d6f756e742072657175697265203e3d2073686f7274416d6f6044820152621d5b9d60ea1b6064820152608401610b34565b600954600090620f424090600160481b900461ffff16611fb4858c6140c0565b611fbe91906140c0565b611fc891906140ac565b90506000838360800151611fdc91906140df565b611fe6908b6142ad565b9050898360600151611ff89190614067565b336000908152601060205260409020600301558251829061201a90839061411e565b61202491906140df565b3360009081526010602052604090205560608301518a141561205457336000908152601060205260408120600401555b89600c60008282546120669190614067565b9091555061207690508282613c66565b6040805160028152602081018c905290810185905233906000805160206145bb833981519152906060015b60405180910390a250506001600855505050505050505050565b6005546001600160a01b031633146120e55760405162461bcd60e51b8152600401610b349061415f565b6009805460ff909216600160381b0267ff0000000000000019909216919091179055565b60085460011461212b5760405162461bcd60e51b8152600401610b349061418a565b6000600855600654600160b01b900460ff1660011461215c5760405162461bcd60e51b8152600401610b349061402a565b6001600160a01b0382166000908152601060209081526040808320815160c0810183528154815260018201549381019390935260028101549183019190915260038101546060830181905260048201546080840181905260059092015463ffffffff1660a0840152600954929392600160381b900460ff16916121de916140c0565b836040015184602001516121f291906140c0565b6121fc919061407e565b61220691906140ac565b9050600061221261245b565b905060006122208483613789565b9050828113156122655760405162461bcd60e51b815260206004820152601060248201526f63616e6e2774206578706c6f7369766560801b6044820152606401610b34565b6020840151600090156122ae578460200151600d60008282546122889190614067565b9091555050604085015161229c90846140df565b85602001516122ab91906142ad565b90505b6060850151156122ff578460600151600c60008282546122ce9190614067565b909155505060808501516122e39084906140df565b85606001516122f291906142ad565b6122fc908261411e565b90505b60608501516020860151600119911115612317575060025b6001600160a01b03881660009081526010602052604081208181556001810182905560028101829055600381018290556004018190558313156123c7576123897f0000000000000000000000000000000000000000000000000000000000000000886123846005876141b1565b61343b565b8160056123978560046142ad565b6123a191906141b1565b6123ab91906140df565b600b60008282546123bc919061411e565b909155506123e89050565b6123d182846140df565b600b60008282546123e2919061411e565b90915550505b876001600160a01b03167f1cf7369c3767c976b447baaae4eed8217e2d190d1750c589e62bf5f7ecc4aaff8288606001518960200151612428919061407e565b6040805160009390930b83526020830191909152810187905260600160405180910390a250506001600855505050505050565b6000806000601160009054906101000a90046001600160a01b03166001600160a01b03166310bace8c6040518163ffffffff1660e01b8152600401606060405180830381865afa1580156124b3573d6000803e3d6000fd5b505050506040513d601f19601f820116820180604052508101906124d79190614332565b50915091506000821161253d5760405162461bcd60e51b815260206004820152602860248201527f7468652070616972207374616e64617264207072696365206d75737420626520604482015267706f73697469766560c01b6064820152608401610b34565b60007f000000000000000000000000000000000000000000000000000000000000000060000b126125d957806125947f0000000000000000000000000000000000000000000000000000000000000000600a614444565b6125be7f0000000000000000000000000000000000000000000000000000000000000000856140c0565b6125c891906140c0565b6125d291906140ac565b9250505090565b806126037f0000000000000000000000000000000000000000000000000000000000000000614453565b61260e90600a614444565b6126387f0000000000000000000000000000000000000000000000000000000000000000856140c0565b6125c891906140ac565b6008546001146126645760405162461bcd60e51b8152600401610b349061418a565b6000600855804281101561268a5760405162461bcd60e51b8152600401610b34906141df565b600654600160b01b900460ff166001146126b65760405162461bcd60e51b8152600401610b349061402a565b60006126c061245b565b90506000806126d160001984613804565b909250905082620f42406126e8620186a0846140c0565b6126f291906140ac565b6126fc91906140ac565b86111561271b5760405162461bcd60e51b8152600401610b3490614231565b60006127278484613863565b6127319085614067565b9050878110156127835760405162461bcd60e51b815260206004820152601b60248201527f636c6f7365206c6f6e6720707269636520697320746f6f206c6f7700000000006044820152606401610b34565b33600090815260106020908152604091829020825160c08101845281548152600182015492810183905260028201549381019390935260038101546060840152600481015460808401526005015463ffffffff1660a08301528811156128365760405162461bcd60e51b815260206004820152602260248201527f636c6f736520616d6f756e742072657175697265203e3d206c6f6e67416d6f756044820152611b9d60f21b6064820152608401610b34565b600954600090620f424090600160481b900461ffff16612856858c6140c0565b61286091906140c0565b61286a91906140ac565b9050600082604001518461287e91906140df565b612888908b6142ad565b905089836020015161289a9190614067565b33600090815260106020526040902060010155825182906128bc90839061411e565b6128c691906140df565b336000908152601060209081526040909120919091558301518a14156128fa57336000908152601060205260408120600201555b89600d600082825461290c9190614067565b9091555061291c90508282613c66565b604080516001198152602081018c905290810185905233906000805160206145bb833981519152906060016120a1565b6000610d5a3384846136e8565b6005546001600160a01b031633146129835760405162461bcd60e51b8152600401610b349061415f565b600680546001600160a01b0319166001600160a01b0392909216919091179055565b6005546001600160a01b031633146129cf5760405162461bcd60e51b8152600401610b349061415f565b6009805462ffffff9092166101000263ffffff0019909216919091179055565b6005546001600160a01b03163314612a195760405162461bcd60e51b8152600401610b349061415f565b601180546001600160a01b0319166001600160a01b0392909216919091179055565b600654600160b01b900460ff16600114612a675760405162461bcd60e51b8152600401610b349061402a565b600654600160a01b900460ff16612a905760405162461bcd60e51b8152600401610b349061420e565b612abc7f00000000000000000000000000000000000000000000000000000000000000003330856135b8565b600954829060ff1615612af2576000612ad3611ce0565b90508084600054612ae491906140c0565b612aee91906140ac565b9150505b82600b6000828254612b04919061411e565b9091555050600b547f000000000000000000000000000000000000000000000000000000000000000013612b40576009805460ff191660011790555b612b4a8282613d06565b60405181815233907f0f6798a560793a54c3bcfe86a93cde1e73087d944c0ea20544137d412139688590602001610d40565b6005546001600160a01b03163314612ba65760405162461bcd60e51b8152600401610b349061415f565b6009805462ffffff909216600160201b0266ffffff0000000019909216919091179055565b42841015612c0d5760405162461bcd60e51b815260206004820152600f60248201526e12195919d95e0e8811561412549151608a1b6044820152606401610b34565b6001600160a01b038716600090815260036020526040812080547f0000000000000000000000000000000000000000000000000000000000000000917f6e71edae12b1b97f4d1f60370fef10105fa2faae0126114a169c64845d6126c9918b918b918b9187612c7b83614473565b909155506040805160208101969096526001600160a01b0394851690860152929091166060840152608083015260a082015260c0810187905260e00160405160208183030381529060405280519060200120604051602001612cf492919061190160f01b81526002810192909252602282015260420190565b60408051601f198184030181528282528051602091820120600080855291840180845281905260ff88169284019290925260608301869052608083018590529092509060019060a0016020604051602081039080840390855afa158015612d5f573d6000803e3d6000fd5b5050604051601f1901519150506001600160a01b03811615801590612d955750886001600160a01b0316816001600160a01b0316145b612de15760405162461bcd60e51b815260206004820152601960248201527f4865646765783a20494e56414c49445f5349474e4154555245000000000000006044820152606401610b34565b612dec898989613556565b505050505050505050565b600854600114612e195760405162461bcd60e51b8152600401610b349061418a565b6000600855600654600160b01b900460ff16600114612e4a5760405162461bcd60e51b8152600401610b349061402a565b6000612e5962015180426140ac565b905061012c612e6b826201518061448e565b612e7b9063ffffffff1642614067565b1115612eb85760405162461bcd60e51b815260206004820152600c60248201526b74696d652064697361626c6560a01b6044820152606401610b34565b6001600160a01b0383166000908152601060205260409020600581015463ffffffff90811690831611612f265760405162461bcd60e51b81526020600482015260166024820152751a185cc81899595b881d185ad9481a5b9d195c995cdd60521b6044820152606401610b34565b806003015481600101541415612f715760405162461bcd60e51b815260206004820152601060248201526f1b1bdb99c8195c5d585b081cda1bdc9d60821b6044820152606401610b34565b600d54600c5460038301546001848101546000928391111561302a57838511612fcf5760405162461bcd60e51b815260206004820152601060248201526f1a185d99481b9bc81a5b9d195c995cdd60821b6044820152606401610b34565b612fd761245b565b905084620f4240612fe88683614067565b60018901546103e890612ffb90866140c0565b61300591906140c0565b61300f91906140c0565b61301991906140ac565b61302391906140ac565b92506130c8565b84841161306c5760405162461bcd60e51b815260206004820152601060248201526f1a185d99481b9bc81a5b9d195c995cdd60821b6044820152606401610b34565b61307461245b565b6000199250905083620f424061308a8783614067565b60038901546103e89061309d90866140c0565b6130a791906140c0565b6130b191906140c0565b6130bb91906140ac565b6130c591906140ac565b92505b6000620f42406130db620186a0866140c0565b6130e591906140ac565b60058801805463ffffffff191663ffffffff8b161790558754909150849088906000906131139084906140df565b9091555061312b90506131268286614067565b613bdc565b6131567f00000000000000000000000000000000000000000000000000000000000000008a8361343b565b60408051600085900b8152602081018690529081018390526001600160a01b038b16907f78213dfb97e98b601b3fee012a0f6bddbf4e63c293c77b5186137af1e7cf62ae9060600160405180910390a2505060016008555050505050505050565b6006546001600160a01b031633146131e15760405162461bcd60e51b8152600401610b349061415f565b60068054600580546001600160a01b03199081166001600160a01b03841617909155169055565b6004546001600160a01b031633146132555760405162461bcd60e51b815260206004820152601060248201526f3432b233b2bc1d2327a92124a22222a760811b6044820152606401610b34565b600a80546000909155600454613296907f0000000000000000000000000000000000000000000000000000000000000000906001600160a01b03168361343b565b50565b6005546001600160a01b031633146132c35760405162461bcd60e51b8152600401610b349061415f565b600480546001600160a01b0319166001600160a01b0392909216919091179055565b6005546001600160a01b031633146132fc57600080fd5b60068054911515600160a01b0260ff60a01b19909216919091179055565b6005546001600160a01b031633146133445760405162461bcd60e51b8152600401610b349061415f565b60098054911515600160401b0268ff000000000000000019909216919091179055565b60008082600d5461337891906140c0565b600e54600c5461338891906140c0565b613392919061407e565b600f54600d546133a291906140c0565b84600c54611d3591906140c0565b6001600160a01b038216600090815260016020526040812080548392906133d8908490614067565b92505081905550806000808282546133f09190614067565b90915550506040518181526000906001600160a01b038416907fddf252ad1be2c89b69c2b068fc378daa952ba7f163c4a11628f55a4df523b3ef906020015b60405180910390a35050565b604080516001600160a01b038481166024830152604480830185905283518084039091018152606490920183526020820180516001600160e01b031663a9059cbb60e01b179052915160009283929087169161349791906144ba565b6000604051808303816000865af19150503d80600081146134d4576040519150601f19603f3d011682016040523d82523d6000602084013e6134d9565b606091505b509150915081801561350357508051158061350357508080602001905181019061350391906144d6565b61354f5760405162461bcd60e51b815260206004820152601f60248201527f5472616e7366657248656c7065723a205452414e534645525f4641494c4544006044820152606401610b34565b5050505050565b6001600160a01b0383811660008181526002602090815260408083209487168084529482529182902085905590518481527f8c5be1e5ebec7d5bd14f71427d1e84f3dd0314c0f7b2291e5b200ac8c7c3b92591015b60405180910390a3505050565b604080516001600160a01b0385811660248301528481166044830152606480830185905283518084039091018152608490920183526020820180516001600160e01b03166323b872dd60e01b179052915160009283929088169161361c91906144ba565b6000604051808303816000865af19150503d8060008114613659576040519150601f19603f3d011682016040523d82523d6000602084013e61365e565b606091505b509150915081801561368857508051158061368857508080602001905181019061368891906144d6565b6136e05760405162461bcd60e51b8152602060048201526024808201527f5472616e7366657248656c7065723a205452414e534645525f46524f4d5f46416044820152631253115160e21b6064820152608401610b34565b505050505050565b6001600160a01b03831660009081526001602052604081208054839290613710908490614067565b90915550506001600160a01b0382166000908152600160205260408120805483929061373d90849061407e565b92505081905550816001600160a01b0316836001600160a01b03167fddf252ad1be2c89b69c2b068fc378daa952ba7f163c4a11628f55a4df523b3ef836040516135ab91815260200190565b600081836060015161379b91906140c0565b836040015184602001516137af91906140c0565b6137b9919061407e565b836080015184606001516137cd91906140c0565b8385602001516137dd91906140c0565b6137e7919061407e565b84516137f3919061411e565b6137fd91906140df565b9392505050565b600080600061381284613367565b905080620f424060020b85600c54600d5461382d91906140df565b8860000b61383b91906142ad565b61384591906142ad565b61384f91906142ad565b61385991906141b1565b9590945092505050565b600954600090819060029061388290600160201b9004820b60036144f3565b61388c9190614580565b60020b8312613901576009546005906138b090600160201b900460020b60036144f3565b60020b8460026138c091906142ad565b6138ca91906140df565b6138d491906141b1565b6009546138ed90600a90600160201b900460020b614580565b60020b6138fa919061411e565b905061393b565b600954600160201b900460020b831261393b5760095460059061392e90600160201b900460020b856140df565b61393891906140ac565b90505b620f424061394a60328361407e565b61395490866140c0565b61395e91906140ac565b949350505050565b60006139a76040518060c001604052806000815260200160008152602001600081526020016000815260200160008152602001600063ffffffff1681525090565b336000908152601060209081526040808320815160c081018352815481526001820154938101939093526002810154918301919091526003810154606083018190526004820154608084015260059091015463ffffffff1660a0830152909190613a129087906140c0565b82604001518360200151613a2691906140c0565b613a30919061407e565b82608001518360600151613a4491906140c0565b878460200151613a5491906140c0565b613a5e919061407e565b8351613a6a919061411e565b613a7491906140df565b905060007f000000000000000000000000000000000000000000000000000000000000000060ff1683608001518460600151613ab091906140c0565b84604001518560200151613ac491906140c0565b613ace919061407e565b613ad891906140ac565b90506000613b0960ff7f000000000000000000000000000000000000000000000000000000000000000016886140ac565b600954909150600090620f424090613b2c90600160481b900461ffff168a6140c0565b613b3691906140ac565b905060008482613b46858761407e565b613b50919061407e565b613b5a91906140df565b90506000811315613bcd57613b6e81610ff7565b33600090815260106020908152604091829020825160c08101845281548152600182015492810192909252600281015492820192909252600382015460608201526004820154608082015260059091015463ffffffff1660a082015295505b50989397509295505050505050565b600954600160401b900460ff1615613c4c576000620f4240613c016203d090846140c0565b613c0b91906140ac565b905080600a6000828254613c1f919061407e565b90915550613c2f905081836140df565b600b6000828254613c40919061411e565b90915550613296915050565b80600b6000828254613c5e919061411e565b909155505050565b600954600160401b900460ff1615613ce1576000620f4240613c8b6203d090856140c0565b613c9591906140ac565b905080600a6000828254613ca9919061407e565b90915550829050613cba82856140df565b613cc491906140df565b600b6000828254613cd5919061411e565b90915550613d02915050565b613ceb81836140df565b600b6000828254613cfc919061411e565b90915550505b5050565b80600080828254613d17919061407e565b90915550506001600160a01b03821660009081526001602052604081208054839290613d4490849061407e565b90915550506040518181526001600160a01b038316906000907fddf252ad1be2c89b69c2b068fc378daa952ba7f163c4a11628f55a4df523b3ef9060200161342f565b80356001600160a01b0381168114613d9e57600080fd5b919050565b60008060408385031215613db657600080fd5b82359150613dc660208401613d87565b90509250929050565b60005b83811015613dea578181015183820152602001613dd2565b83811115613df9576000848401525b50505050565b6020815260008251806020840152613e1e816040850160208701613dcf565b601f01601f19169190910160400192915050565b60008060408385031215613e4557600080fd5b613e4e83613d87565b946020939093013593505050565b600060208284031215613e6e57600080fd5b5035919050565b801515811461329657600080fd5b600060208284031215613e9557600080fd5b81356137fd81613e75565b600080600060608486031215613eb557600080fd5b613ebe84613d87565b9250613ecc60208501613d87565b9150604084013590509250925092565b600060208284031215613eee57600080fd5b813561ffff811681146137fd57600080fd5b60008060408385031215613f1357600080fd5b613f1c83613d87565b9150613dc660208401613d87565b600080600060608486031215613f3f57600080fd5b505081359360208301359350604090920135919050565b600060208284031215613f6857600080fd5b6137fd82613d87565b803560ff81168114613d9e57600080fd5b600060208284031215613f9457600080fd5b6137fd82613f71565b600060208284031215613faf57600080fd5b81358060020b81146137fd57600080fd5b600080600080600080600060e0888a031215613fdb57600080fd5b613fe488613d87565b9650613ff260208901613d87565b9550604088013594506060880135935061400e60808901613f71565b925060a0880135915060c0880135905092959891949750929550565b6020808252600d908201526c73746174652069736e2774203160981b604082015260600190565b634e487b7160e01b600052601160045260246000fd5b60008282101561407957614079614051565b500390565b6000821982111561409157614091614051565b500190565b634e487b7160e01b600052601260045260246000fd5b6000826140bb576140bb614096565b500490565b60008160001904831182151516156140da576140da614051565b500290565b60008083128015600160ff1b8501841216156140fd576140fd614051565b6001600160ff1b038401831381161561411857614118614051565b50500390565b600080821280156001600160ff1b038490038513161561414057614140614051565b600160ff1b839003841281161561415957614159614051565b50500190565b6020808252601190820152703432b233b2bc1d102327a92124a22222a760791b604082015260600190565b6020808252600d908201526c1a195919d95e081b1bd8dad959609a1b604082015260600190565b6000826141c0576141c0614096565b600160ff1b8214600019841416156141da576141da614051565b500590565b60208082526015908201527412195919d95e08151c9859194e8811561412549151605a1b604082015260600190565b6020808252600990820152683337b93134b23232b760b91b604082015260600190565b6020808252601d908201527f73696e676c6520616d6f756e74206f766572206e6574202a2072617465000000604082015260600190565b60208082526025908201527f706f6f6c206e657420616d6f756e74206d75737420736d616c6c207468616e20604082015264706172616d60d81b606082015260800190565b60006001600160ff1b03818413828413808216868404861116156142d3576142d3614051565b600160ff1b60008712828116878305891216156142f2576142f2614051565b6000871292508782058712848416161561430e5761430e614051565b8785058712818416161561432457614324614051565b505050929093029392505050565b60008060006060848603121561434757600080fd5b8351925060208401519150604084015190509250925092565b600181815b8085111561439b57816000190482111561438157614381614051565b8085161561438e57918102915b93841c9390800290614365565b509250929050565b6000826143b257506001610d5e565b816143bf57506000610d5e565b81600181146143d557600281146143df576143fb565b6001915050610d5e565b60ff8411156143f0576143f0614051565b50506001821b610d5e565b5060208310610133831016604e8410600b841016171561441e575081810a610d5e565b6144288383614360565b806000190482111561443c5761443c614051565b029392505050565b60006137fd60ff8416836143a3565b600081810b607f1981141561446a5761446a614051565b60000392915050565b600060001982141561448757614487614051565b5060010190565b600063ffffffff808316818516818304811182151516156144b1576144b1614051565b02949350505050565b600082516144cc818460208701613dcf565b9190910192915050565b6000602082840312156144e857600080fd5b81516137fd81613e75565b60008160020b8360020b627fffff60008213600084138383048511828216161561451f5761451f614051565b627fffff19600085128281168783058712161561453e5761453e614051565b6000871292508582058712848416161561455a5761455a614051565b8585058712818416161561457057614570614051565b5050509290910295945050505050565b60008160020b8360020b8061459757614597614096565b627fffff198214600019821416156145b1576145b1614051565b9005939250505056fe303db7636b0e071f088d2cd5e8463efe513531272d61a18739b21053f6d7b430a2646970667358221220dd0153e58fafcc9814a310faef92e6c4616d2a4f2acc65c9406f1b1160d1c3c464736f6c634300080b0033",
    "sourcePath": "d:/contract/hedgex/Single.sol",
    "compiler": {
        "name": "solc",
        "version": "0.8.11+commit.d7f03943"
    },
    "functionHashes": {
        "DOMAIN_SEPARATOR()": "3644e515",
        "PERMIT_TYPEHASH()": "30adf81f",
        "acceptContractSetter()": "e02b5d60",
        "addLiquidity(uint256,address)": "c95f9d0e",
        "allowance(address,address)": "dd62ed3e",
        "amountDecimal()": "2be90282",
        "approve(address,uint256)": "095ea7b3",
        "balanceOf(address)": "70a08231",
        "canAddLiquidity()": "8b0af0fa",
        "canOpen()": "ffaeb582",
        "closeLong(uint256,uint256,uint256)": "90edbeb0",
        "closeShort(uint256,uint256,uint256)": "807ca353",
        "contractSetter()": "e4344a60",
        "dailyInterestRateBase()": "8967b694",
        "decimals()": "313ce567",
        "detectSlide(address,address)": "ddcb04c2",
        "divConst()": "7e4856c4",
        "explosive(address,address)": "89d408ff",
        "explosivePool()": "3e31fb45",
        "feeDivide()": "d375454f",
        "feeOn()": "4f335d0a",
        "feeRate()": "978bbdb9",
        "feeTo()": "017e7e58",
        "feedPrice()": "a04eecae",
        "forceCloseAccount(address,address)": "6422e08f",
        "getLatestPrice()": "8e15f473",
        "getPoolNet()": "7bb71a97",
        "getPoolPosition()": "73e6054b",
        "interestRewardRate()": "01bcc908",
        "isStart()": "8a55d36e",
        "keepMarginScale()": "303c0a3b",
        "leverage()": "2c86d98e",
        "minPool()": "2678b8fd",
        "name()": "06fdde03",
        "nonces(address)": "7ecebe00",
        "openLong(uint256,uint256,uint256)": "6c2ee359",
        "openShort(uint256,uint256,uint256)": "71b31707",
        "permit(address,address,uint256,uint256,uint8,bytes32,bytes32)": "d505accf",
        "poolExplosivePrice()": "33d6f1f7",
        "poolLeftAmountRate()": "ce8ad1d2",
        "poolLongAmount()": "e5984319",
        "poolLongPrice()": "994af3ae",
        "poolNetAmountRateLimitOpen()": "cd8bb6cd",
        "poolNetAmountRateLimitPrice()": "1cce9103",
        "poolShortAmount()": "8e406892",
        "poolShortPrice()": "971059fb",
        "poolState()": "641ad8a9",
        "rechargeMargin(uint256)": "11ce83f8",
        "removeLiquidity(uint256,address)": "05fe138b",
        "setCanAddLiquidity(bool)": "fa507445",
        "setCanOpen(bool)": "0def3ead",
        "setFeeOn(bool)": "fc4064b3",
        "setFeeRate(uint16)": "29ff0773",
        "setFeeTo(address)": "f46901ed",
        "setFeedPrice(address)": "c669c32c",
        "setKeepMarginScale(uint8)": "8632d4ab",
        "setPoolNetAmountRateLimitOpen(int24)": "bedc409b",
        "setPoolNetAmountRateLimitPrice(int24)": "d1ad24be",
        "singleCloseLimitRate()": "7aaae950",
        "singleOpenLimitRate()": "5d0291ac",
        "slideP()": "2c204fa8",
        "sumFee()": "190b065f",
        "symbol()": "95d89b41",
        "token0()": "0dfe1681",
        "token0Decimal()": "9ddc230a",
        "totalPool()": "ecfb49a3",
        "totalSupply()": "18160ddd",
        "traders(address)": "92a88fa2",
        "transfer(address,uint256)": "a9059cbb",
        "transferContractSetter(address)": "bb9186a6",
        "transferFrom(address,address,uint256)": "23b872dd",
        "withdrawFee()": "e941fa78",
        "withdrawMargin(uint256)": "0cea7534"
    },
    "gasEstimates": {
        "creation": {
            "codeDepositCost": "3587200",
            "executionCost": "infinite",
            "totalCost": "infinite"
        },
        "external": {
            "DOMAIN_SEPARATOR()": "infinite",
            "PERMIT_TYPEHASH()": "286",
            "acceptContractSetter()": "50848",
            "addLiquidity(uint256,address)": "infinite",
            "allowance(address,address)": "infinite",
            "amountDecimal()": "infinite",
            "approve(address,uint256)": "24597",
            "balanceOf(address)": "2631",
            "canAddLiquidity()": "2417",
            "canOpen()": "2481",
            "closeLong(uint256,uint256,uint256)": "infinite",
            "closeShort(uint256,uint256,uint256)": "infinite",
            "contractSetter()": "2437",
            "dailyInterestRateBase()": "317",
            "decimals()": "infinite",
            "detectSlide(address,address)": "infinite",
            "divConst()": "337",
            "explosive(address,address)": "infinite",
            "explosivePool()": "infinite",
            "feeDivide()": "315",
            "feeOn()": "2439",
            "feeRate()": "2464",
            "feeTo()": "2396",
            "feedPrice()": "2437",
            "forceCloseAccount(address,address)": "infinite",
            "getLatestPrice()": "infinite",
            "getPoolNet()": "infinite",
            "getPoolPosition()": "12981",
            "interestRewardRate()": "296",
            "isStart()": "2378",
            "keepMarginScale()": "2399",
            "leverage()": "infinite",
            "minPool()": "infinite",
            "name()": "infinite",
            "nonces(address)": "2674",
            "openLong(uint256,uint256,uint256)": "infinite",
            "openShort(uint256,uint256,uint256)": "infinite",
            "permit(address,address,uint256,uint256,uint8,bytes32,bytes32)": "infinite",
            "poolExplosivePrice()": "2430",
            "poolLeftAmountRate()": "271",
            "poolLongAmount()": "2428",
            "poolLongPrice()": "2362",
            "poolNetAmountRateLimitOpen()": "2465",
            "poolNetAmountRateLimitPrice()": "2450",
            "poolShortAmount()": "2429",
            "poolShortPrice()": "2407",
            "poolState()": "2486",
            "rechargeMargin(uint256)": "infinite",
            "removeLiquidity(uint256,address)": "infinite",
            "setCanAddLiquidity(bool)": "26799",
            "setCanOpen(bool)": "26802",
            "setFeeOn(bool)": "26815",
            "setFeeRate(uint16)": "26747",
            "setFeeTo(address)": "26799",
            "setFeedPrice(address)": "26801",
            "setKeepMarginScale(uint8)": "26783",
            "setPoolNetAmountRateLimitOpen(int24)": "26721",
            "setPoolNetAmountRateLimitPrice(int24)": "26748",
            "singleCloseLimitRate()": "293",
            "singleOpenLimitRate()": "338",
            "slideP()": "338",
            "sumFee()": "2386",
            "symbol()": "infinite",
            "token0()": "infinite",
            "token0Decimal()": "infinite",
            "totalPool()": "2361",
            "totalSupply()": "2364",
            "traders(address)": "13270",
            "transfer(address,uint256)": "51206",
            "transferContractSetter(address)": "26866",
            "transferFrom(address,address,uint256)": "infinite",
            "withdrawFee()": "infinite",
            "withdrawMargin(uint256)": "infinite"
        },
        "internal": {
            "feeCharge(uint256)": "51157",
            "feeCharge(uint256,int256)": "infinite",
            "getAccountNet(struct HedgexSingle.Trader memory)": "infinite",
            "getAccountNet(struct HedgexSingle.Trader memory,uint256)": "infinite",
            "getPoolNet(uint256)": "infinite",
            "judegOpen(uint256,uint256)": "infinite",
            "poolLimitTrade(int8,uint256)": "infinite",
            "slideTradePrice(uint256,int256)": "infinite"
        }
    }
}