{
    "contractName": "HedgexSingle",
    "abi": [
        {
            "inputs": [
                {
                    "internalType": "address",
                    "name": "_token0",
                    "type": "address"
                },
                {
                    "internalType": "address",
                    "name": "_feedPrice",
                    "type": "address"
                },
                {
                    "internalType": "uint256",
                    "name": "_feedPriceDecimal",
                    "type": "uint256"
                },
                {
                    "internalType": "uint256",
                    "name": "_minStartPool",
                    "type": "uint256"
                },
                {
                    "internalType": "uint8",
                    "name": "_leverage",
                    "type": "uint8"
                },
                {
                    "internalType": "int8",
                    "name": "_amountDecimal",
                    "type": "int8"
                }
            ],
            "stateMutability": "nonpayable",
            "type": "constructor"
        },
        {
            "anonymous": false,
            "inputs": [
                {
                    "indexed": true,
                    "internalType": "address",
                    "name": "owner",
                    "type": "address"
                },
                {
                    "indexed": true,
                    "internalType": "address",
                    "name": "spender",
                    "type": "address"
                },
                {
                    "indexed": false,
                    "internalType": "uint256",
                    "name": "value",
                    "type": "uint256"
                }
            ],
            "name": "Approval",
            "type": "event"
        },
        {
            "anonymous": false,
            "inputs": [
                {
                    "indexed": true,
                    "internalType": "address",
                    "name": "sender",
                    "type": "address"
                },
                {
                    "indexed": false,
                    "internalType": "uint256",
                    "name": "amount",
                    "type": "uint256"
                }
            ],
            "name": "Burn",
            "type": "event"
        },
        {
            "anonymous": false,
            "inputs": [
                {
                    "indexed": true,
                    "internalType": "address",
                    "name": "user",
                    "type": "address"
                },
                {
                    "indexed": false,
                    "internalType": "int8",
                    "name": "direction",
                    "type": "int8"
                },
                {
                    "indexed": false,
                    "internalType": "uint256",
                    "name": "amount",
                    "type": "uint256"
                },
                {
                    "indexed": false,
                    "internalType": "uint256",
                    "name": "price",
                    "type": "uint256"
                }
            ],
            "name": "Explosive",
            "type": "event"
        },
        {
            "anonymous": false,
            "inputs": [
                {
                    "indexed": true,
                    "internalType": "address",
                    "name": "account",
                    "type": "address"
                },
                {
                    "indexed": false,
                    "internalType": "uint256",
                    "name": "long",
                    "type": "uint256"
                },
                {
                    "indexed": false,
                    "internalType": "uint256",
                    "name": "short",
                    "type": "uint256"
                },
                {
                    "indexed": false,
                    "internalType": "uint256",
                    "name": "price",
                    "type": "uint256"
                }
            ],
            "name": "ForceClose",
            "type": "event"
        },
        {
            "anonymous": false,
            "inputs": [
                {
                    "indexed": true,
                    "internalType": "address",
                    "name": "sender",
                    "type": "address"
                },
                {
                    "indexed": false,
                    "internalType": "uint256",
                    "name": "amount",
                    "type": "uint256"
                }
            ],
            "name": "Mint",
            "type": "event"
        },
        {
            "anonymous": false,
            "inputs": [
                {
                    "indexed": true,
                    "internalType": "address",
                    "name": "sender",
                    "type": "address"
                },
                {
                    "indexed": false,
                    "internalType": "uint256",
                    "name": "amount",
                    "type": "uint256"
                }
            ],
            "name": "Recharge",
            "type": "event"
        },
        {
            "anonymous": false,
            "inputs": [
                {
                    "indexed": true,
                    "internalType": "address",
                    "name": "user",
                    "type": "address"
                },
                {
                    "indexed": false,
                    "internalType": "int8",
                    "name": "direction",
                    "type": "int8"
                },
                {
                    "indexed": false,
                    "internalType": "uint256",
                    "name": "amount",
                    "type": "uint256"
                },
                {
                    "indexed": false,
                    "internalType": "uint256",
                    "name": "price",
                    "type": "uint256"
                }
            ],
            "name": "TakeInterest",
            "type": "event"
        },
        {
            "anonymous": false,
            "inputs": [
                {
                    "indexed": true,
                    "internalType": "address",
                    "name": "sender",
                    "type": "address"
                },
                {
                    "indexed": false,
                    "internalType": "int8",
                    "name": "direction",
                    "type": "int8"
                },
                {
                    "indexed": false,
                    "internalType": "uint256",
                    "name": "amount",
                    "type": "uint256"
                },
                {
                    "indexed": false,
                    "internalType": "uint256",
                    "name": "price",
                    "type": "uint256"
                }
            ],
            "name": "Trade",
            "type": "event"
        },
        {
            "anonymous": false,
            "inputs": [
                {
                    "indexed": true,
                    "internalType": "address",
                    "name": "from",
                    "type": "address"
                },
                {
                    "indexed": true,
                    "internalType": "address",
                    "name": "to",
                    "type": "address"
                },
                {
                    "indexed": false,
                    "internalType": "uint256",
                    "name": "value",
                    "type": "uint256"
                }
            ],
            "name": "Transfer",
            "type": "event"
        },
        {
            "anonymous": false,
            "inputs": [
                {
                    "indexed": true,
                    "internalType": "address",
                    "name": "sender",
                    "type": "address"
                },
                {
                    "indexed": false,
                    "internalType": "uint256",
                    "name": "amount",
                    "type": "uint256"
                }
            ],
            "name": "Withdraw",
            "type": "event"
        },
        {
            "inputs": [],
            "name": "DOMAIN_SEPARATOR",
            "outputs": [
                {
                    "internalType": "bytes32",
                    "name": "",
                    "type": "bytes32"
                }
            ],
            "stateMutability": "view",
            "type": "function"
        },
        {
            "inputs": [],
            "name": "PERMIT_TYPEHASH",
            "outputs": [
                {
                    "internalType": "bytes32",
                    "name": "",
                    "type": "bytes32"
                }
            ],
            "stateMutability": "view",
            "type": "function"
        },
        {
            "inputs": [],
            "name": "acceptFeeToSetter",
            "outputs": [],
            "stateMutability": "nonpayable",
            "type": "function"
        },
        {
            "inputs": [
                {
                    "internalType": "uint256",
                    "name": "amount",
                    "type": "uint256"
                },
                {
                    "internalType": "address",
                    "name": "to",
                    "type": "address"
                }
            ],
            "name": "addLiquidity",
            "outputs": [],
            "stateMutability": "nonpayable",
            "type": "function"
        },
        {
            "inputs": [
                {
                    "internalType": "address",
                    "name": "",
                    "type": "address"
                },
                {
                    "internalType": "address",
                    "name": "",
                    "type": "address"
                }
            ],
            "name": "allowance",
            "outputs": [
                {
                    "internalType": "uint256",
                    "name": "",
                    "type": "uint256"
                }
            ],
            "stateMutability": "view",
            "type": "function"
        },
        {
            "inputs": [],
            "name": "amountDecimal",
            "outputs": [
                {
                    "internalType": "int8",
                    "name": "",
                    "type": "int8"
                }
            ],
            "stateMutability": "view",
            "type": "function"
        },
        {
            "inputs": [
                {
                    "internalType": "address",
                    "name": "spender",
                    "type": "address"
                },
                {
                    "internalType": "uint256",
                    "name": "value",
                    "type": "uint256"
                }
            ],
            "name": "approve",
            "outputs": [
                {
                    "internalType": "bool",
                    "name": "",
                    "type": "bool"
                }
            ],
            "stateMutability": "nonpayable",
            "type": "function"
        },
        {
            "inputs": [
                {
                    "internalType": "address",
                    "name": "",
                    "type": "address"
                }
            ],
            "name": "balanceOf",
            "outputs": [
                {
                    "internalType": "uint256",
                    "name": "",
                    "type": "uint256"
                }
            ],
            "stateMutability": "view",
            "type": "function"
        },
        {
            "inputs": [
                {
                    "internalType": "uint256",
                    "name": "priceExp",
                    "type": "uint256"
                },
                {
                    "internalType": "uint256",
                    "name": "amount",
                    "type": "uint256"
                },
                {
                    "internalType": "uint256",
                    "name": "deadline",
                    "type": "uint256"
                }
            ],
            "name": "closeLong",
            "outputs": [],
            "stateMutability": "nonpayable",
            "type": "function"
        },
        {
            "inputs": [
                {
                    "internalType": "uint256",
                    "name": "priceExp",
                    "type": "uint256"
                },
                {
                    "internalType": "uint256",
                    "name": "amount",
                    "type": "uint256"
                },
                {
                    "internalType": "uint256",
                    "name": "deadline",
                    "type": "uint256"
                }
            ],
            "name": "closeShort",
            "outputs": [],
            "stateMutability": "nonpayable",
            "type": "function"
        },
        {
            "inputs": [],
            "name": "dailyInterestRateBase",
            "outputs": [
                {
                    "internalType": "uint16",
                    "name": "",
                    "type": "uint16"
                }
            ],
            "stateMutability": "view",
            "type": "function"
        },
        {
            "inputs": [],
            "name": "decimals",
            "outputs": [
                {
                    "internalType": "uint8",
                    "name": "",
                    "type": "uint8"
                }
            ],
            "stateMutability": "view",
            "type": "function"
        },
        {
            "inputs": [
                {
                    "internalType": "address",
                    "name": "account",
                    "type": "address"
                },
                {
                    "internalType": "address",
                    "name": "to",
                    "type": "address"
                }
            ],
            "name": "detectSlide",
            "outputs": [],
            "stateMutability": "nonpayable",
            "type": "function"
        },
        {
            "inputs": [],
            "name": "divConst",
            "outputs": [
                {
                    "internalType": "uint24",
                    "name": "",
                    "type": "uint24"
                }
            ],
            "stateMutability": "view",
            "type": "function"
        },
        {
            "inputs": [
                {
                    "internalType": "address",
                    "name": "account",
                    "type": "address"
                },
                {
                    "internalType": "address",
                    "name": "to",
                    "type": "address"
                }
            ],
            "name": "explosive",
            "outputs": [],
            "stateMutability": "nonpayable",
            "type": "function"
        },
        {
            "inputs": [],
            "name": "explosivePool",
            "outputs": [],
            "stateMutability": "nonpayable",
            "type": "function"
        },
        {
            "inputs": [],
            "name": "feeDivide",
            "outputs": [
                {
                    "internalType": "uint24",
                    "name": "",
                    "type": "uint24"
                }
            ],
            "stateMutability": "view",
            "type": "function"
        },
        {
            "inputs": [],
            "name": "feeOn",
            "outputs": [
                {
                    "internalType": "bool",
                    "name": "",
                    "type": "bool"
                }
            ],
            "stateMutability": "view",
            "type": "function"
        },
        {
            "inputs": [],
            "name": "feeRate",
            "outputs": [
                {
                    "internalType": "uint16",
                    "name": "",
                    "type": "uint16"
                }
            ],
            "stateMutability": "view",
            "type": "function"
        },
        {
            "inputs": [],
            "name": "feeTo",
            "outputs": [
                {
                    "internalType": "address",
                    "name": "",
                    "type": "address"
                }
            ],
            "stateMutability": "view",
            "type": "function"
        },
        {
            "inputs": [],
            "name": "feeToSetter",
            "outputs": [
                {
                    "internalType": "address",
                    "name": "",
                    "type": "address"
                }
            ],
            "stateMutability": "view",
            "type": "function"
        },
        {
            "inputs": [],
            "name": "feedPrice",
            "outputs": [
                {
                    "internalType": "contract AggregatorV3Interface",
                    "name": "",
                    "type": "address"
                }
            ],
            "stateMutability": "view",
            "type": "function"
        },
        {
            "inputs": [],
            "name": "feedPriceDecimal",
            "outputs": [
                {
                    "internalType": "uint256",
                    "name": "",
                    "type": "uint256"
                }
            ],
            "stateMutability": "view",
            "type": "function"
        },
        {
            "inputs": [],
            "name": "foceCloseRewardGas",
            "outputs": [
                {
                    "internalType": "uint256",
                    "name": "",
                    "type": "uint256"
                }
            ],
            "stateMutability": "view",
            "type": "function"
        },
        {
            "inputs": [
                {
                    "internalType": "address",
                    "name": "account",
                    "type": "address"
                },
                {
                    "internalType": "address",
                    "name": "to",
                    "type": "address"
                }
            ],
            "name": "forceCloseAccount",
            "outputs": [],
            "stateMutability": "nonpayable",
            "type": "function"
        },
        {
            "inputs": [],
            "name": "gasUsdPriceFeed",
            "outputs": [
                {
                    "internalType": "address",
                    "name": "",
                    "type": "address"
                }
            ],
            "stateMutability": "view",
            "type": "function"
        },
        {
            "inputs": [],
            "name": "getGasUsdPrice",
            "outputs": [
                {
                    "internalType": "uint256",
                    "name": "",
                    "type": "uint256"
                }
            ],
            "stateMutability": "view",
            "type": "function"
        },
        {
            "inputs": [],
            "name": "getLatestPrice",
            "outputs": [
                {
                    "internalType": "uint256",
                    "name": "",
                    "type": "uint256"
                }
            ],
            "stateMutability": "view",
            "type": "function"
        },
        {
            "inputs": [],
            "name": "getPoolNet",
            "outputs": [
                {
                    "internalType": "int256",
                    "name": "",
                    "type": "int256"
                }
            ],
            "stateMutability": "view",
            "type": "function"
        },
        {
            "inputs": [
                {
                    "internalType": "address",
                    "name": "_token0",
                    "type": "address"
                },
                {
                    "internalType": "address",
                    "name": "_feedPrice",
                    "type": "address"
                },
                {
                    "internalType": "uint256",
                    "name": "_feedPriceDecimal",
                    "type": "uint256"
                },
                {
                    "internalType": "uint256",
                    "name": "_minStartPool",
                    "type": "uint256"
                },
                {
                    "internalType": "uint8",
                    "name": "_leverage",
                    "type": "uint8"
                },
                {
                    "internalType": "int8",
                    "name": "_amountDecimal",
                    "type": "int8"
                }
            ],
            "name": "initialize",
            "outputs": [],
            "stateMutability": "nonpayable",
            "type": "function"
        },
        {
            "inputs": [],
            "name": "interestRewardRate",
            "outputs": [
                {
                    "internalType": "uint24",
                    "name": "",
                    "type": "uint24"
                }
            ],
            "stateMutability": "view",
            "type": "function"
        },
        {
            "inputs": [],
            "name": "isStart",
            "outputs": [
                {
                    "internalType": "bool",
                    "name": "",
                    "type": "bool"
                }
            ],
            "stateMutability": "view",
            "type": "function"
        },
        {
            "inputs": [],
            "name": "leverage",
            "outputs": [
                {
                    "internalType": "uint8",
                    "name": "",
                    "type": "uint8"
                }
            ],
            "stateMutability": "view",
            "type": "function"
        },
        {
            "inputs": [],
            "name": "minPool",
            "outputs": [
                {
                    "internalType": "uint256",
                    "name": "",
                    "type": "uint256"
                }
            ],
            "stateMutability": "view",
            "type": "function"
        },
        {
            "inputs": [],
            "name": "name",
            "outputs": [
                {
                    "internalType": "string",
                    "name": "",
                    "type": "string"
                }
            ],
            "stateMutability": "view",
            "type": "function"
        },
        {
            "inputs": [
                {
                    "internalType": "address",
                    "name": "",
                    "type": "address"
                }
            ],
            "name": "nonces",
            "outputs": [
                {
                    "internalType": "uint256",
                    "name": "",
                    "type": "uint256"
                }
            ],
            "stateMutability": "view",
            "type": "function"
        },
        {
            "inputs": [
                {
                    "internalType": "uint256",
                    "name": "priceExp",
                    "type": "uint256"
                },
                {
                    "internalType": "uint256",
                    "name": "amount",
                    "type": "uint256"
                },
                {
                    "internalType": "uint256",
                    "name": "deadline",
                    "type": "uint256"
                }
            ],
            "name": "openLong",
            "outputs": [],
            "stateMutability": "nonpayable",
            "type": "function"
        },
        {
            "inputs": [
                {
                    "internalType": "uint256",
                    "name": "priceExp",
                    "type": "uint256"
                },
                {
                    "internalType": "uint256",
                    "name": "amount",
                    "type": "uint256"
                },
                {
                    "internalType": "uint256",
                    "name": "deadline",
                    "type": "uint256"
                }
            ],
            "name": "openShort",
            "outputs": [],
            "stateMutability": "nonpayable",
            "type": "function"
        },
        {
            "inputs": [
                {
                    "internalType": "address",
                    "name": "owner",
                    "type": "address"
                },
                {
                    "internalType": "address",
                    "name": "spender",
                    "type": "address"
                },
                {
                    "internalType": "uint256",
                    "name": "value",
                    "type": "uint256"
                },
                {
                    "internalType": "uint256",
                    "name": "deadline",
                    "type": "uint256"
                },
                {
                    "internalType": "uint8",
                    "name": "v",
                    "type": "uint8"
                },
                {
                    "internalType": "bytes32",
                    "name": "r",
                    "type": "bytes32"
                },
                {
                    "internalType": "bytes32",
                    "name": "s",
                    "type": "bytes32"
                }
            ],
            "name": "permit",
            "outputs": [],
            "stateMutability": "nonpayable",
            "type": "function"
        },
        {
            "inputs": [],
            "name": "poolExplosivePrice",
            "outputs": [
                {
                    "internalType": "uint256",
                    "name": "",
                    "type": "uint256"
                }
            ],
            "stateMutability": "view",
            "type": "function"
        },
        {
            "inputs": [],
            "name": "poolLeftAmountRate",
            "outputs": [
                {
                    "internalType": "uint24",
                    "name": "",
                    "type": "uint24"
                }
            ],
            "stateMutability": "view",
            "type": "function"
        },
        {
            "inputs": [],
            "name": "poolLongAmount",
            "outputs": [
                {
                    "internalType": "uint256",
                    "name": "",
                    "type": "uint256"
                }
            ],
            "stateMutability": "view",
            "type": "function"
        },
        {
            "inputs": [],
            "name": "poolLongPrice",
            "outputs": [
                {
                    "internalType": "uint256",
                    "name": "",
                    "type": "uint256"
                }
            ],
            "stateMutability": "view",
            "type": "function"
        },
        {
            "inputs": [],
            "name": "poolNetAmountRateLimitOpen",
            "outputs": [
                {
                    "internalType": "int24",
                    "name": "",
                    "type": "int24"
                }
            ],
            "stateMutability": "view",
            "type": "function"
        },
        {
            "inputs": [],
            "name": "poolNetAmountRateLimitPrice",
            "outputs": [
                {
                    "internalType": "int24",
                    "name": "",
                    "type": "int24"
                }
            ],
            "stateMutability": "view",
            "type": "function"
        },
        {
            "inputs": [],
            "name": "poolShortAmount",
            "outputs": [
                {
                    "internalType": "uint256",
                    "name": "",
                    "type": "uint256"
                }
            ],
            "stateMutability": "view",
            "type": "function"
        },
        {
            "inputs": [],
            "name": "poolShortPrice",
            "outputs": [
                {
                    "internalType": "uint256",
                    "name": "",
                    "type": "uint256"
                }
            ],
            "stateMutability": "view",
            "type": "function"
        },
        {
            "inputs": [],
            "name": "poolState",
            "outputs": [
                {
                    "internalType": "uint8",
                    "name": "",
                    "type": "uint8"
                }
            ],
            "stateMutability": "view",
            "type": "function"
        },
        {
            "inputs": [
                {
                    "internalType": "uint256",
                    "name": "amount",
                    "type": "uint256"
                }
            ],
            "name": "rechargeMargin",
            "outputs": [],
            "stateMutability": "nonpayable",
            "type": "function"
        },
        {
            "inputs": [
                {
                    "internalType": "uint256",
                    "name": "liquidity",
                    "type": "uint256"
                },
                {
                    "internalType": "address",
                    "name": "to",
                    "type": "address"
                }
            ],
            "name": "removeLiquidity",
            "outputs": [],
            "stateMutability": "nonpayable",
            "type": "function"
        },
        {
            "inputs": [
                {
                    "internalType": "bool",
                    "name": "b",
                    "type": "bool"
                }
            ],
            "name": "setFeeOn",
            "outputs": [],
            "stateMutability": "nonpayable",
            "type": "function"
        },
        {
            "inputs": [
                {
                    "internalType": "address",
                    "name": "_feeTo",
                    "type": "address"
                }
            ],
            "name": "setFeeTo",
            "outputs": [],
            "stateMutability": "nonpayable",
            "type": "function"
        },
        {
            "inputs": [],
            "name": "singleCloseLimitRate",
            "outputs": [
                {
                    "internalType": "uint24",
                    "name": "",
                    "type": "uint24"
                }
            ],
            "stateMutability": "view",
            "type": "function"
        },
        {
            "inputs": [],
            "name": "singleOpenLimitRate",
            "outputs": [
                {
                    "internalType": "uint16",
                    "name": "",
                    "type": "uint16"
                }
            ],
            "stateMutability": "view",
            "type": "function"
        },
        {
            "inputs": [],
            "name": "slideP",
            "outputs": [
                {
                    "internalType": "uint8",
                    "name": "",
                    "type": "uint8"
                }
            ],
            "stateMutability": "view",
            "type": "function"
        },
        {
            "inputs": [],
            "name": "sumFee",
            "outputs": [
                {
                    "internalType": "uint256",
                    "name": "",
                    "type": "uint256"
                }
            ],
            "stateMutability": "view",
            "type": "function"
        },
        {
            "inputs": [],
            "name": "symbol",
            "outputs": [
                {
                    "internalType": "string",
                    "name": "",
                    "type": "string"
                }
            ],
            "stateMutability": "view",
            "type": "function"
        },
        {
            "inputs": [],
            "name": "token0",
            "outputs": [
                {
                    "internalType": "address",
                    "name": "",
                    "type": "address"
                }
            ],
            "stateMutability": "view",
            "type": "function"
        },
        {
            "inputs": [],
            "name": "token0Decimal",
            "outputs": [
                {
                    "internalType": "uint256",
                    "name": "",
                    "type": "uint256"
                }
            ],
            "stateMutability": "view",
            "type": "function"
        },
        {
            "inputs": [],
            "name": "totalPool",
            "outputs": [
                {
                    "internalType": "int256",
                    "name": "",
                    "type": "int256"
                }
            ],
            "stateMutability": "view",
            "type": "function"
        },
        {
            "inputs": [],
            "name": "totalSupply",
            "outputs": [
                {
                    "internalType": "uint256",
                    "name": "",
                    "type": "uint256"
                }
            ],
            "stateMutability": "view",
            "type": "function"
        },
        {
            "inputs": [
                {
                    "internalType": "address",
                    "name": "",
                    "type": "address"
                }
            ],
            "name": "traders",
            "outputs": [
                {
                    "internalType": "int256",
                    "name": "margin",
                    "type": "int256"
                },
                {
                    "internalType": "uint256",
                    "name": "longAmount",
                    "type": "uint256"
                },
                {
                    "internalType": "uint256",
                    "name": "longPrice",
                    "type": "uint256"
                },
                {
                    "internalType": "uint256",
                    "name": "shortAmount",
                    "type": "uint256"
                },
                {
                    "internalType": "uint256",
                    "name": "shortPrice",
                    "type": "uint256"
                },
                {
                    "internalType": "uint32",
                    "name": "interestDay",
                    "type": "uint32"
                }
            ],
            "stateMutability": "view",
            "type": "function"
        },
        {
            "inputs": [
                {
                    "internalType": "address",
                    "name": "to",
                    "type": "address"
                },
                {
                    "internalType": "uint256",
                    "name": "value",
                    "type": "uint256"
                }
            ],
            "name": "transfer",
            "outputs": [
                {
                    "internalType": "bool",
                    "name": "",
                    "type": "bool"
                }
            ],
            "stateMutability": "nonpayable",
            "type": "function"
        },
        {
            "inputs": [
                {
                    "internalType": "address",
                    "name": "_feeToSetter",
                    "type": "address"
                }
            ],
            "name": "transferFeeToSetter",
            "outputs": [],
            "stateMutability": "nonpayable",
            "type": "function"
        },
        {
            "inputs": [
                {
                    "internalType": "address",
                    "name": "from",
                    "type": "address"
                },
                {
                    "internalType": "address",
                    "name": "to",
                    "type": "address"
                },
                {
                    "internalType": "uint256",
                    "name": "value",
                    "type": "uint256"
                }
            ],
            "name": "transferFrom",
            "outputs": [
                {
                    "internalType": "bool",
                    "name": "",
                    "type": "bool"
                }
            ],
            "stateMutability": "nonpayable",
            "type": "function"
        },
        {
            "inputs": [],
            "name": "withdrawFee",
            "outputs": [],
            "stateMutability": "nonpayable",
            "type": "function"
        },
        {
            "inputs": [
                {
                    "internalType": "uint256",
                    "name": "amount",
                    "type": "uint256"
                }
            ],
            "name": "withdrawMargin",
            "outputs": [],
            "stateMutability": "nonpayable",
            "type": "function"
        }
    ],
    "bytecode": "6101c06040526001600855732514895c72f50d8bd4b4f9b1110f0d6bd2c975266101a0523480156200003057600080fd5b506040516200492d3803806200492d83398101604081905262000053916200029d565b856001600160a01b031663313ce5676040518163ffffffff1660e01b8152600401602060405180830381865afa15801562000092573d6000803e3d6000fd5b505050506040513d601f19601f82011682018060405250810190620000b8919062000315565b604080518082018252600c81526b48656467657853696e676c6560a01b6020918201528151808301835260018152603160f81b9082015281517f8b73c3c69bb8fe3d512ecc4cf759cc79239f7b179b0ffacaa9a75d522b39400f918101919091527fdbb8f54117374490c454ab41b80d95cf4a0c3b286124d9b83e346d854dc3efcd918101919091527fc89efdaa54c0f20c7adf612882df0950f5a951637e0307cdcb4c672f298b8bc660608201524660808201523060a082015260c00160408051601f19818403018152828252805160209182012060a05260ff9093166080526006805460ff60a01b1916600160a01b1790556001600160a01b0380891661016052891661010081905263313ce56760e01b83529051909263313ce56792600480820193918290030181865afa158015620001f8573d6000803e3d6000fd5b505050506040513d601f19601f820116820180604052508101906200021e919062000315565b6200022b90600a6200044f565b610120526101809390935260c09190915260ff1660e0526009805461ffff1916905560000b610140525050600580546001600160a01b0319163317905562000460565b80516001600160a01b03811681146200028657600080fd5b919050565b805160ff811681146200028657600080fd5b60008060008060008060c08789031215620002b757600080fd5b620002c2876200026e565b9550620002d2602088016200026e565b94506040870151935060608701519250620002f0608088016200028b565b915060a08701518060000b81146200030757600080fd5b809150509295509295509295565b6000602082840312156200032857600080fd5b62000333826200028b565b9392505050565b634e487b7160e01b600052601160045260246000fd5b600181815b80851115620003915781600019048211156200037557620003756200033a565b808516156200038357918102915b93841c939080029062000355565b509250929050565b600082620003aa5750600162000449565b81620003b95750600062000449565b8160018114620003d25760028114620003dd57620003fd565b600191505062000449565b60ff841115620003f157620003f16200033a565b50506001821b62000449565b5060208310610133831016604e8410600b841016171562000422575081810a62000449565b6200042e838362000350565b80600019048211156200044557620004456200033a565b0290505b92915050565b60006200033360ff84168362000399565b60805160a05160c05160e05161010051610120516101405161016051610180516101a0516143b06200057d6000396000818161073601526124ff015260008181610496015281816123e3015261247301526000818161091e01526122cf0152600081816105cd015281816123ba0152818161240701526124970152600081816108f7015281816115480152818161243201526124cb01526000818161051401528181610c0101528181610e7301528181610edc015281816115b0015281816121dd0152818161291101528181612f8a015261307001526000818161062101528181610d0d0152818161380701526138700152600081816105a6015261298a0152600081816106a70152612a560152600061067701526143b06000f3fe608060405234801561001057600080fd5b50600436106103f15760003560e01c806371b3170711610215578063994af3ae11610125578063d375454f116100b8578063e598431911610087578063e5984319146109e7578063e941fa78146109f0578063ecfb49a3146109f8578063f46901ed14610a01578063fc4064b314610a1457600080fd5b8063d375454f1461098c578063d505accf14610996578063dd62ed3e146109a9578063ddcb04c2146109d457600080fd5b8063c250332f116100f4578063c250332f14610953578063c95f9d0e14610966578063cd8bb6cd14610979578063ce8ad1d21461098357600080fd5b8063994af3ae146108e95780639ddc230a146108f2578063a04eecae14610919578063a9059cbb1461094057600080fd5b80638a55d36e116101a857806390edbeb01161017757806390edbeb01461082557806392a88fa21461083857806395d89b41146108b4578063971059fb146108d7578063978bbdb9146108e057600080fd5b80638a55d36e146107ff5780638e15f4731461080c5780638e406892146108145780638ed3896c1461081d57600080fd5b80637ecebe00116101e45780637ecebe00146107b0578063807ca353146107d05780638967b694146107e357806389d408ff146107ec57600080fd5b806371b317071461078b5780637aaae950146104265780637bb71a971461079e5780637e4856c4146107a657600080fd5b80632be90282116103105780633d5f8e7a116102a3578063641ad8a911610272578063641ad8a91461070a5780636422e08f1461071e5780636afb3760146107315780636c2ee3591461075857806370a082311461076b57600080fd5b80633d5f8e7a146106c95780633e31fb45146106d45780634f335d0a146106dc5780635d0291ac146106ee57600080fd5b806330adf81f116102df57806330adf81f1461064b578063313ce5671461067257806333d6f1f7146106995780633644e515146106a257600080fd5b80632be90282146105c85780632c204fa8146106025780632c86d98e1461061c5780632dd072a01461064357600080fd5b80630dfe1681116103885780631cce9103116103575780631cce91031461055b57806323b872dd14610578578063251c073a1461058b5780632678b8fd146105a157600080fd5b80630dfe16811461050f57806311ce83f81461053657806318160ddd14610549578063190b065f1461055257600080fd5b806308c73e74116103c457806308c73e7414610491578063094b7415146104c6578063095ea7b3146104d95780630cea7534146104fc57600080fd5b8063017e7e58146103f657806301bcc9081461042657806305fe138b1461044457806306fdde0314610459575b600080fd5b600454610409906001600160a01b031681565b6040516001600160a01b0390911681526020015b60405180910390f35b610430620186a081565b60405162ffffff909116815260200161041d565b610457610452366004613b1d565b610a27565b005b6104846040518060400160405280600c81526020016b48656467657853696e676c6560a01b81525081565b60405161041d9190613b79565b6104b87f000000000000000000000000000000000000000000000000000000000000000081565b60405190815260200161041d565b600554610409906001600160a01b031681565b6104ec6104e7366004613bac565b610c62565b604051901515815260200161041d565b61045761050a366004613bd6565b610c79565b6104097f000000000000000000000000000000000000000000000000000000000000000081565b610457610544366004613bd6565b610ed7565b6104b860005481565b6104b8600a5481565b61056562030d4081565b60405160029190910b815260200161041d565b6104ec610586366004613bef565b610f5f565b610457610599366004613c3c565b505050505050565b6104b87f000000000000000000000000000000000000000000000000000000000000000081565b6105ef7f000000000000000000000000000000000000000000000000000000000000000081565b60405160009190910b815260200161041d565b61060a603281565b60405160ff909116815260200161041d565b61060a7f000000000000000000000000000000000000000000000000000000000000000081565b610457610fd9565b6104b87f6e71edae12b1b97f4d1f60370fef10105fa2faae0126114a169c64845d6126c981565b61060a7f000000000000000000000000000000000000000000000000000000000000000081565b6104b860075481565b6104b87f000000000000000000000000000000000000000000000000000000000000000081565b6104b8633b9aca0081565b61045761102a565b6009546104ec90610100900460ff1681565b6106f761753081565b60405161ffff909116815260200161041d565b60065461060a90600160a01b900460ff1681565b61045761072c366004613cac565b61129c565b6104097f000000000000000000000000000000000000000000000000000000000000000081565b610457610766366004613cd6565b611643565b6104b8610779366004613d02565b60016020526000908152604090205481565b610457610799366004613cd6565b611935565b6104b8611c05565b610430620f424081565b6104b86107be366004613d02565b60036020526000908152604090205481565b6104576107de366004613cd6565b611cc4565b6106f76103e881565b6104576107fa366004613cac565b611fe1565b6009546104ec9060ff1681565b6104b86122ca565b6104b8600d5481565b6104b86124fa565b610457610833366004613cd6565b61258a565b610881610846366004613d02565b601060205260009081526040902080546001820154600283015460038401546004850154600590950154939492939192909163ffffffff1686565b604080519687526020870195909552938501929092526060840152608083015263ffffffff1660a082015260c00161041d565b610484604051806040016040528060048152602001634845585360e01b81525081565b6104b8600f5481565b6106f761025881565b6104b8600e5481565b6104b87f000000000000000000000000000000000000000000000000000000000000000081565b6104097f000000000000000000000000000000000000000000000000000000000000000081565b6104ec61094e366004613bac565b612887565b610457610961366004613d02565b612894565b610457610974366004613b1d565b6128e0565b610565620493e081565b61043061c35081565b6104306203d09081565b6104576109a4366004613d1d565b6129f8565b6104b86109b7366004613cac565b600260209081526000928352604080842090915290825290205481565b6104576109e2366004613cac565b612c24565b6104b8600c5481565b610457613011565b6104b8600b5481565b610457610a0f366004613d02565b6130a2565b610457610a22366004613d95565b6130ee565b600654600160a01b900460ff16600114610a5c5760405162461bcd60e51b8152600401610a5390613db2565b60405180910390fd5b600954829060ff1615610bda576000610a736122ca565b90506000610a8082613132565b90506000600d54600c5411610aa457600c54600d54610a9f9190613df0565b610ab4565b600d54600c54610ab49190613df0565b905060006003600d54600c54610aca9190613e07565b610ad49190613e35565b905080821015610ae2578091505b6000620493e0620f4240610af68786613e49565b610b009190613e49565b610b0a9190613e35565b9050808413610b5b5760405162461bcd60e51b815260206004820152601760248201527f6e6574206d757374203e20757365644d617267696e2f520000000000000000006044820152606401610a53565b6000610b678286613df0565b600054909150610b778a87613e49565b610b819190613e35565b965080871115610bd35760405162461bcd60e51b815260206004820152601860248201527f776974686472617720616d6f756e7420746f6f206d616e7900000000000000006044820152606401610a53565b5050505050505b80600b6000828254610bec9190613e68565b90915550610bfc9050338461317b565b610c277f00000000000000000000000000000000000000000000000000000000000000008383613206565b60405183815233907fcc16f5dbb4873280815c1ee09dbd06736cffcc184412cf7a71a0fdb75d397ca5906020015b60405180910390a2505050565b6000610c6f338484613321565b5060015b92915050565b600654600160a01b900460ff16600114610ca55760405162461bcd60e51b8152600401610a5390613db2565b336000908152601060209081526040808320815160c0810183528154815260018201549381019390935260028101549183019190915260038101546060830152600481015460808301526005015463ffffffff1660a082015290610d076122ca565b905060007f000000000000000000000000000000000000000000000000000000000000000060ff1683608001518460600151610d439190613e49565b84604001518560200151610d579190613e49565b610d619190613e07565b610d6b9190613e35565b90506000828460600151610d7f9190613e49565b84604001518560200151610d939190613e49565b610d9d9190613e07565b84608001518560600151610db19190613e49565b848660200151610dc19190613e49565b610dcb9190613e07565b8551610dd79190613ea7565b610de19190613e68565b90506000610def8383613e68565b905060008113610e415760405162461bcd60e51b815260206004820152601860248201527f63616e207769746864726177206973206e6567617469766500000000000000006044820152606401610a53565b8581811315610e4d5750805b8551610e5a908290613e68565b33600081815260106020526040902091909155610e99907f00000000000000000000000000000000000000000000000000000000000000009083613206565b60405181815233907f884edad9ce6fa2440d8a54cc123490eb96d2768479d49ff9c7366125a94243649060200160405180910390a250505050505050565b610f037f0000000000000000000000000000000000000000000000000000000000000000333084613383565b3360009081526010602052604081208054839290610f22908490613ea7565b909155505060405181815233907f78d9de6f3ad1cae9e0cbcbaa5267fd90f6a6728831eec42b7c147b398b2269249060200160405180910390a250565b6001600160a01b038316600090815260026020908152604080832033845290915281205460001914610fc4576001600160a01b038416600090815260026020908152604080832033845290915281208054849290610fbe908490613df0565b90915550505b610fcf8484846134ab565b5060019392505050565b6006546001600160a01b031633146110035760405162461bcd60e51b8152600401610a5390613ee8565b60068054600580546001600160a01b03199081166001600160a01b03841617909155169055565b60085460011461104c5760405162461bcd60e51b8152600401610a5390613f13565b6000600855600654600160a01b900460ff166001146110a35760405162461bcd60e51b8152602060048201526013602482015272706f6f6c206973206578706c6f736976696e6760681b6044820152606401610a53565b60006110ad6122ca565b905060006110ba82613132565b90506000600d54600c54116110f557600583600c54600d546110dc9190613df0565b6110e69190613e49565b6110f09190613e35565b61111c565b600583600d54600c546111089190613df0565b6111129190613e49565b61111c9190613e35565b90508082131561116e5760405162461bcd60e51b815260206004820152601960248201527f706f6f6c2063616e6e2774206265206578706c6f7369766564000000000000006044820152606401610a53565b6006805460ff60a01b1916600160a11b179055600061118e600483613e35565b90508083121561127c5780600b54136111e15760405162461bcd60e51b81526020600482015260156024820152741d1bdd185b141bdbdb081b5d5cdd080f881b19599d605a1b6044820152606401610a53565b6000600d54600c54111561122b57600d54600c546111ff9190613df0565b82600b5461120d9190613e68565b6112179190613e35565b600e546112249190613e07565b905061126f565b600c54600d54111561126f57600f54600c54600d5461124a9190613df0565b83600b546112589190613e68565b6112629190613e35565b61126c9190613e07565b90505b600755600b819055611287565b600b83905560078490555b50506000600f819055600e5550506001600855565b6008546001146112be5760405162461bcd60e51b8152600401610a5390613f13565b6000600855600654600160a01b900460ff166002146113145760405162461bcd60e51b81526020600482015260126024820152713837b7b629ba30ba329034b9903737ba101960711b6044820152606401610a53565b6001600160a01b038216600090815260106020908152604091829020825160c08101845281548152600182015492810183905260028201549381019390935260038101546060840152600481015460808401526005015463ffffffff1660a0830152151580611387575060008160600151115b6113ad5760405162461bcd60e51b81526020600482015260006024820152604401610a53565b60006113bb8260075461354c565b90506000620f424062ffffff1661025861ffff1660075485606001516113e19190613e49565b60075486602001516113f39190613e49565b6113fd9190613e07565b6114079190613e49565b6114119190613e35565b60208401519091501561143a578260200151600d60008282546114349190613df0565b90915550505b606083015115611460578260600151600c600082825461145a9190613df0565b90915550505b600c541580156114705750600d54155b15611489576006805460ff60a01b1916600160a01b1790555b808213156114d45761149b8183613e68565b6001600160a01b038616600090815260106020526040812091909155600b80548392906114c9908490613ea7565b909155506115079050565b6001600160a01b0385166000908152601060205260408120819055600b8054849290611501908490613ea7565b90915550505b6001600160a01b03851660009081526010602052604081206001810182905560028101829055600381018290556004018190556a52b7d2dcc80cd2e40000007f000000000000000000000000000000000000000000000000000000000000000061156f6124fa565b61157d90633b9aca00613e49565b6115879190613e49565b6115919190613e35565b905080600b60008282546115a59190613e68565b909155506115d690507f00000000000000000000000000000000000000000000000000000000000000008683613206565b856001600160a01b03167ffca559ae7a3bea5c41671f27049d90b84fbf98be965e6d7f0259ee6e5caa980b8560200151866060015160075460405161162e939291909283526020830191909152604082015260600190565b60405180910390a25050600160085550505050565b6008546001146116655760405162461bcd60e51b8152600401610a5390613f13565b6000600855804281101561168b5760405162461bcd60e51b8152600401610a5390613f3a565b600654600160a01b900460ff166001146116b75760405162461bcd60e51b8152600401610a5390613db2565b60095460ff166117015760405162461bcd60e51b815260206004820152601560248201527418dbdb9d1c9858dd081a5cc81b9bdd081cdd185c9d605a1b6044820152606401610a53565b600061170b6122ca565b905060008061171b6001846135c7565b909250905082620f424061173161753084613e49565b61173b9190613e35565b6117459190613e35565b8611156117645760405162461bcd60e51b8152600401610a5390613f69565b620493e082126117865760405162461bcd60e51b8152600401610a5390613fa0565b60006117928484613626565b61179c9085613e07565b905087811115806117ab575087155b6117f75760405162461bcd60e51b815260206004820152601b60248201527f6f70656e206c6f6e6720707269636520697320746f6f206869676800000000006044820152606401610a53565b60006118038289613e49565b905060008061181287846136f3565b915091508981602001516118269190613e07565b3360009081526010602090815260409091206001019190915581015161184d908b90613e07565b83826040015183602001516118629190613e49565b61186c9190613e07565b6118769190613e35565b336000908152601060205260409020600201558051611896908390613e68565b33600090815260106020526040902055600d546118b38b82613e07565b600d556118c08b82613e07565b84600f54836118cf9190613e49565b6118d99190613e07565b6118e39190613e35565b600f556118ef8361395a565b6040805160018152602081018d9052908101869052339060008051602061435b833981519152906060015b60405180910390a25050600160085550505050505050505050565b6008546001146119575760405162461bcd60e51b8152600401610a5390613f13565b6000600855804281101561197d5760405162461bcd60e51b8152600401610a5390613f3a565b600654600160a01b900460ff166001146119a95760405162461bcd60e51b8152600401610a5390613db2565b60095460ff166119f35760405162461bcd60e51b815260206004820152601560248201527418dbdb9d1c9858dd081a5cc81b9bdd081cdd185c9d605a1b6044820152606401610a53565b60006119fd6122ca565b9050600080611a0e600019846135c7565b909250905082620f4240611a2461753084613e49565b611a2e9190613e35565b611a389190613e35565b861115611a575760405162461bcd60e51b8152600401610a5390613f69565b620493e08212611a795760405162461bcd60e51b8152600401610a5390613fa0565b6000611a858484613626565b611a8f9085613df0565b905087811015611ae15760405162461bcd60e51b815260206004820152601b60248201527f6f70656e2073686f727420707269636520697320746f6f206c6f7700000000006044820152606401610a53565b6000611aed8289613e49565b9050600080611afc87846136f3565b91509150898160600151611b109190613e07565b336000908152601060205260409020600301556060810151611b33908b90613e07565b8382608001518360600151611b489190613e49565b611b529190613e07565b611b5c9190613e35565b336000908152601060205260409020600401558051611b7c908390613e68565b33600090815260106020526040902055600c54611b998b82613e07565b600c55611ba68b82613e07565b84600e5483611bb59190613e49565b611bbf9190613e07565b611bc99190613e35565b600e55611bd58361395a565b604080516000198152602081018d9052908101869052339060008051602061435b8339815191529060600161191a565b600080611c106122ca565b9050600081600d54611c229190613e49565b600e54600c54611c329190613e49565b611c3c9190613e07565b600f54600d54611c4c9190613e49565b83600c54611c5a9190613e49565b611c649190613e07565b600b54611c719190613ea7565b611c7b9190613e68565b905060008113610c735760405162461bcd60e51b81526020600482015260146024820152733732ba103732b2b2103132903837b9b4ba34b7b760611b6044820152606401610a53565b600854600114611ce65760405162461bcd60e51b8152600401610a5390613f13565b60006008558042811015611d0c5760405162461bcd60e51b8152600401610a5390613f3a565b600654600160a01b900460ff16600114611d385760405162461bcd60e51b8152600401610a5390613db2565b6000611d426122ca565b9050600080611d526001846135c7565b909250905082620f4240611d69620186a084613e49565b611d739190613e35565b611d7d9190613e35565b861115611d9c5760405162461bcd60e51b8152600401610a5390613f69565b6000611da88484613626565b611db29085613e07565b90508781111580611dc1575087155b611e0d5760405162461bcd60e51b815260206004820152601b60248201527f636c6f73652073686f72742070726963652069732068696768657200000000006044820152606401610a53565b33600090815260106020908152604091829020825160c081018452815481526001820154928101929092526002810154928201929092526003820154606082018190526004830154608083015260059092015463ffffffff1660a082015290881115611ec75760405162461bcd60e51b815260206004820152602360248201527f636c6f736520616d6f756e742072657175697265203e3d2073686f7274416d6f6044820152621d5b9d60ea1b6064820152608401610a53565b6000620f4240610258611eda858c613e49565b611ee49190613e49565b611eee9190613e35565b90506000838360800151611f029190613e68565b611f0c908b613fe3565b9050898360600151611f1e9190613df0565b3360009081526010602052604090206003015582518290611f40908390613ea7565b611f4a9190613e68565b3360009081526010602052604090205560608301518a1415611f7a57336000908152601060205260408120600401555b89600c6000828254611f8c9190613df0565b90915550611f9c905082826139e2565b6040805160028152602081018c9052908101859052339060008051602061435b833981519152906060015b60405180910390a250506001600855505050505050505050565b6008546001146120035760405162461bcd60e51b8152600401610a5390613f13565b6000600855600654600160a01b900460ff166001146120345760405162461bcd60e51b8152600401610a5390613db2565b6001600160a01b0382166000908152601060209081526040808320815160c0810183528154815260018201549381019390935260028101549183019190915260038101546060830181905260048201546080840181905260059092015463ffffffff1660a0840152919291601e916120ab91613e49565b836040015184602001516120bf9190613e49565b6120c99190613e07565b6120d39190613e35565b905060006120df6122ca565b905060006120ed848361354c565b9050828113156121375760405162461bcd60e51b815260206004820152601560248201527410d85b881b9bdd08189948195e1c1b1bdcda5d9959605a1b6044820152606401610a53565b60208401511561215d578360200151600d60008282546121579190613df0565b90915550505b606084015115612183578360600151600c600082825461217d9190613df0565b90915550505b6060840151602085015160011991111561219b575060025b6001600160a01b03871660009081526010602052604081208181556001810182905560028101829055600381018290556004018190558213156122405761220d7f000000000000000000000000000000000000000000000000000000000000000087612208600586614068565b613206565b600561221a836004613fe3565b6122249190614068565b600b60008282546122359190613ea7565b909155506122589050565b81600b60008282546122529190613ea7565b90915550505b866001600160a01b03167f1cf7369c3767c976b447baaae4eed8217e2d190d1750c589e62bf5f7ecc4aaff82876060015188602001516122989190613e07565b6040805160009390930b83526020830191909152810186905260600160405180910390a2505060016008555050505050565b6000807f00000000000000000000000000000000000000000000000000000000000000006001600160a01b031663feaf968c6040518163ffffffff1660e01b815260040160a060405180830381865afa15801561232b573d6000803e3d6000fd5b505050506040513d601f19601f8201168201806040525081019061234f91906140b0565b505050915050600081136123b65760405162461bcd60e51b815260206004820152602860248201527f7468652070616972207374616e64617264207072696365206d75737420626520604482015267706f73697469766560c01b6064820152608401610a53565b60007f000000000000000000000000000000000000000000000000000000000000000060000b12612471577f000000000000000000000000000000000000000000000000000000000000000061242d7f0000000000000000000000000000000000000000000000000000000000000000600a6141e4565b6124577f000000000000000000000000000000000000000000000000000000000000000084613e49565b6124619190613e49565b61246b9190613e35565b91505090565b7f00000000000000000000000000000000000000000000000000000000000000006124bb7f00000000000000000000000000000000000000000000000000000000000000006141f3565b6124c690600a6141e4565b6124f07f000000000000000000000000000000000000000000000000000000000000000084613e49565b6124619190613e35565b6000807f00000000000000000000000000000000000000000000000000000000000000006001600160a01b031663feaf968c6040518163ffffffff1660e01b815260040160a060405180830381865afa15801561255b573d6000803e3d6000fd5b505050506040513d601f19601f8201168201806040525081019061257f91906140b0565b509195945050505050565b6008546001146125ac5760405162461bcd60e51b8152600401610a5390613f13565b600060085580428110156125d25760405162461bcd60e51b8152600401610a5390613f3a565b600654600160a01b900460ff166001146125fe5760405162461bcd60e51b8152600401610a5390613db2565b60006126086122ca565b9050600080612619600019846135c7565b909250905082620f4240612630620186a084613e49565b61263a9190613e35565b6126449190613e35565b8611156126635760405162461bcd60e51b8152600401610a5390613f69565b600061266f8484613626565b6126799085613df0565b9050878110156126cb5760405162461bcd60e51b815260206004820152601960248201527f636c6f7365206c6f6e67207072696365206973206c6f776572000000000000006044820152606401610a53565b33600090815260106020908152604091829020825160c08101845281548152600182015492810183905260028201549381019390935260038101546060840152600481015460808401526005015463ffffffff1660a083015288111561277e5760405162461bcd60e51b815260206004820152602260248201527f636c6f736520616d6f756e742072657175697265203e3d206c6f6e67416d6f756044820152611b9d60f21b6064820152608401610a53565b6000620f4240610258612791858c613e49565b61279b9190613e49565b6127a59190613e35565b905060008260400151846127b99190613e68565b6127c3908b613fe3565b90508983602001516127d59190613df0565b33600090815260106020526040902060010155825182906127f7908390613ea7565b6128019190613e68565b336000908152601060209081526040909120919091558301518a141561283557336000908152601060205260408120600201555b89600d60008282546128479190613df0565b90915550612857905082826139e2565b604080516001198152602081018c9052908101859052339060008051602061435b83398151915290606001611fc7565b6000610c6f3384846134ab565b6005546001600160a01b031633146128be5760405162461bcd60e51b8152600401610a5390613ee8565b600680546001600160a01b0319166001600160a01b0392909216919091179055565b600654600160a01b900460ff1660011461290c5760405162461bcd60e51b8152600401610a5390613db2565b6129387f0000000000000000000000000000000000000000000000000000000000000000333085613383565b600954829060ff161561296e57600061294f611c05565b905080846000546129609190613e49565b61296a9190613e35565b9150505b82600b60008282546129809190613ea7565b9091555050600b547f0000000000000000000000000000000000000000000000000000000000000000136129bc576009805460ff191660011790555b6129c68282613a80565b60405181815233907f0f6798a560793a54c3bcfe86a93cde1e73087d944c0ea20544137d412139688590602001610c55565b42841015612a3a5760405162461bcd60e51b815260206004820152600f60248201526e12195919d95e0e8811561412549151608a1b6044820152606401610a53565b6001600160a01b038716600090815260036020526040812080547f0000000000000000000000000000000000000000000000000000000000000000917f6e71edae12b1b97f4d1f60370fef10105fa2faae0126114a169c64845d6126c9918b918b918b9187612aa883614213565b909155506040805160208101969096526001600160a01b0394851690860152929091166060840152608083015260a082015260c0810187905260e00160405160208183030381529060405280519060200120604051602001612b2192919061190160f01b81526002810192909252602282015260420190565b60408051601f198184030181528282528051602091820120600080855291840180845281905260ff88169284019290925260608301869052608083018590529092509060019060a0016020604051602081039080840390855afa158015612b8c573d6000803e3d6000fd5b5050604051601f1901519150506001600160a01b03811615801590612bc25750886001600160a01b0316816001600160a01b0316145b612c0e5760405162461bcd60e51b815260206004820152601960248201527f4865646765783a20494e56414c49445f5349474e4154555245000000000000006044820152606401610a53565b612c19898989613321565b505050505050505050565b600854600114612c465760405162461bcd60e51b8152600401610a5390613f13565b6000600855600654600160a01b900460ff16600114612c775760405162461bcd60e51b8152600401610a5390613db2565b6000612c866201518042613e35565b905061012c612c98826201518061422e565b612ca89063ffffffff1642613df0565b1115612cf65760405162461bcd60e51b815260206004820152601e60248201527f6e6f74207468652074696d6520666f722074616b6520696e74657265737400006044820152606401610a53565b6001600160a01b0383166000908152601060205260409020600581015463ffffffff90811690831611612d645760405162461bcd60e51b81526020600482015260166024820152751a185cc81899595b881d185ad9481a5b9d195c995cdd60521b6044820152606401610a53565b806003015481600101541415612dbc5760405162461bcd60e51b815260206004820152601d60248201527f6e656564206c6f6e6720616e642073686f7274206e6f7420657175616c0000006044820152606401610a53565b6000612dc66122ca565b90506000600d5490506000600c54905060008060019050856003015486600101541115612e8057828411612e2f5760405162461bcd60e51b815260206004820152601060248201526f1a185d99481b9bc81a5b9d195c995cdd60821b6044820152606401610a53565b83620f4240612e3e8583613df0565b60018901546103e890612e51908a613e49565b612e5b9190613e49565b612e659190613e49565b612e6f9190613e35565b612e799190613e35565b9150612f13565b838311612ec25760405162461bcd60e51b815260206004820152601060248201526f1a185d99481b9bc81a5b9d195c995cdd60821b6044820152606401610a53565b5060001982620f4240612ed58683613df0565b60038901546103e890612ee8908a613e49565b612ef29190613e49565b612efc9190613e49565b612f069190613e35565b612f109190613e35565b91505b6000620f4240612f26620186a085613e49565b612f309190613e35565b60058801805463ffffffff191663ffffffff8b16179055875490915083908890600090612f5e908490613e68565b90915550612f6e90508184613e68565b600b6000828254612f7f9190613ea7565b90915550612fb090507f00000000000000000000000000000000000000000000000000000000000000008a83613206565b60408051600084900b8152602081018590529081018790526001600160a01b038b16907f78213dfb97e98b601b3fee012a0f6bddbf4e63c293c77b5186137af1e7cf62ae9060600160405180910390a2505060016008555050505050505050565b6004546001600160a01b0316331461305e5760405162461bcd60e51b815260206004820152601060248201526f3432b233b2bc1d2327a92124a22222a760811b6044820152606401610a53565b600a8054600090915560045461309f907f0000000000000000000000000000000000000000000000000000000000000000906001600160a01b031683613206565b50565b6005546001600160a01b031633146130cc5760405162461bcd60e51b8152600401610a5390613ee8565b600480546001600160a01b0319166001600160a01b0392909216919091179055565b6005546001600160a01b031633146131185760405162461bcd60e51b8152600401610a5390613ee8565b600980549115156101000261ff0019909216919091179055565b60008082600d546131439190613e49565b600e54600c546131539190613e49565b61315d9190613e07565b600f54600d5461316d9190613e49565b84600c54611c5a9190613e49565b6001600160a01b038216600090815260016020526040812080548392906131a3908490613df0565b92505081905550806000808282546131bb9190613df0565b90915550506040518181526000906001600160a01b038416907fddf252ad1be2c89b69c2b068fc378daa952ba7f163c4a11628f55a4df523b3ef906020015b60405180910390a35050565b604080516001600160a01b038481166024830152604480830185905283518084039091018152606490920183526020820180516001600160e01b031663a9059cbb60e01b1790529151600092839290871691613262919061425a565b6000604051808303816000865af19150503d806000811461329f576040519150601f19603f3d011682016040523d82523d6000602084013e6132a4565b606091505b50915091508180156132ce5750805115806132ce5750808060200190518101906132ce9190614276565b61331a5760405162461bcd60e51b815260206004820152601f60248201527f5472616e7366657248656c7065723a205452414e534645525f4641494c4544006044820152606401610a53565b5050505050565b6001600160a01b0383811660008181526002602090815260408083209487168084529482529182902085905590518481527f8c5be1e5ebec7d5bd14f71427d1e84f3dd0314c0f7b2291e5b200ac8c7c3b92591015b60405180910390a3505050565b604080516001600160a01b0385811660248301528481166044830152606480830185905283518084039091018152608490920183526020820180516001600160e01b03166323b872dd60e01b17905291516000928392908816916133e7919061425a565b6000604051808303816000865af19150503d8060008114613424576040519150601f19603f3d011682016040523d82523d6000602084013e613429565b606091505b50915091508180156134535750805115806134535750808060200190518101906134539190614276565b6105995760405162461bcd60e51b8152602060048201526024808201527f5472616e7366657248656c7065723a205452414e534645525f46524f4d5f46416044820152631253115160e21b6064820152608401610a53565b6001600160a01b038316600090815260016020526040812080548392906134d3908490613df0565b90915550506001600160a01b03821660009081526001602052604081208054839290613500908490613e07565b92505081905550816001600160a01b0316836001600160a01b03167fddf252ad1be2c89b69c2b068fc378daa952ba7f163c4a11628f55a4df523b3ef8360405161337691815260200190565b600081836060015161355e9190613e49565b836040015184602001516135729190613e49565b61357c9190613e07565b836080015184606001516135909190613e49565b8385602001516135a09190613e49565b6135aa9190613e07565b84516135b69190613ea7565b6135c09190613e68565b9392505050565b60008060006135d584613132565b905080620f424060020b85600c54600d546135f09190613e68565b8860000b6135fe9190613fe3565b6136089190613fe3565b6136129190613fe3565b61361c9190614068565b9590945092505050565b600080600261363962030d406003614293565b6136439190614320565b60020b83126136a257600561365c62030d406003614293565b60020b84600261366c9190613fe3565b6136769190613e68565b6136809190614068565b61368e600a62030d40614320565b60020b61369b9190613ea7565b90506136c8565b62030d4083126136c85760056136bb62030d4085613e68565b6136c59190613e35565b90505b620f42406136d7603283613e07565b6136e19086613e49565b6136eb9190613e35565b949350505050565b60006137346040518060c001604052806000815260200160008152602001600081526020016000815260200160008152602001600063ffffffff1681525090565b336000908152601060209081526040808320815160c081018352815481526001820154938101939093526002810154918301919091526003810154606083018190526004820154608084015260059091015463ffffffff1660a083015290919061379f908790613e49565b826040015183602001516137b39190613e49565b6137bd9190613e07565b826080015183606001516137d19190613e49565b8784602001516137e19190613e49565b6137eb9190613e07565b83516137f79190613ea7565b6138019190613e68565b905060007f000000000000000000000000000000000000000000000000000000000000000060ff168360800151846060015161383d9190613e49565b846040015185602001516138519190613e49565b61385b9190613e07565b6138659190613e35565b9050600061389660ff7f00000000000000000000000000000000000000000000000000000000000000001688613e35565b90506000620f42406138aa6102588a613e49565b6138b49190613e35565b9050600084826138c48587613e07565b6138ce9190613e07565b6138d89190613e68565b9050600081131561394b576138ec81610ed7565b33600090815260106020908152604091829020825160c08101845281548152600182015492810192909252600281015492820192909252600382015460608201526004820154608082015260059091015463ffffffff1660a082015295505b50989397509295505050505050565b600954610100900460ff16156139c8576000620f424061397d6203d09084613e49565b6139879190613e35565b905080600a600082825461399b9190613e07565b909155506139ab90508183613e68565b600b60008282546139bc9190613ea7565b9091555061309f915050565b80600b60008282546139da9190613ea7565b909155505050565b600954610100900460ff1615613a5b576000620f4240613a056203d09085613e49565b613a0f9190613e35565b905080600a6000828254613a239190613e07565b90915550829050613a348285613e68565b613a3e9190613e68565b600b6000828254613a4f9190613ea7565b90915550613a7c915050565b613a658183613e68565b600b6000828254613a769190613ea7565b90915550505b5050565b80600080828254613a919190613e07565b90915550506001600160a01b03821660009081526001602052604081208054839290613abe908490613e07565b90915550506040518181526001600160a01b038316906000907fddf252ad1be2c89b69c2b068fc378daa952ba7f163c4a11628f55a4df523b3ef906020016131fa565b80356001600160a01b0381168114613b1857600080fd5b919050565b60008060408385031215613b3057600080fd5b82359150613b4060208401613b01565b90509250929050565b60005b83811015613b64578181015183820152602001613b4c565b83811115613b73576000848401525b50505050565b6020815260008251806020840152613b98816040850160208701613b49565b601f01601f19169190910160400192915050565b60008060408385031215613bbf57600080fd5b613bc883613b01565b946020939093013593505050565b600060208284031215613be857600080fd5b5035919050565b600080600060608486031215613c0457600080fd5b613c0d84613b01565b9250613c1b60208501613b01565b9150604084013590509250925092565b803560ff81168114613b1857600080fd5b60008060008060008060c08789031215613c5557600080fd5b613c5e87613b01565b9550613c6c60208801613b01565b94506040870135935060608701359250613c8860808801613c2b565b915060a08701358060000b8114613c9e57600080fd5b809150509295509295509295565b60008060408385031215613cbf57600080fd5b613cc883613b01565b9150613b4060208401613b01565b600080600060608486031215613ceb57600080fd5b505081359360208301359350604090920135919050565b600060208284031215613d1457600080fd5b6135c082613b01565b600080600080600080600060e0888a031215613d3857600080fd5b613d4188613b01565b9650613d4f60208901613b01565b95506040880135945060608801359350613d6b60808901613c2b565b925060a0880135915060c0880135905092959891949750929550565b801515811461309f57600080fd5b600060208284031215613da757600080fd5b81356135c081613d87565b6020808252600e908201526d3837b7b629ba30ba329034b9901960911b604082015260600190565b634e487b7160e01b600052601160045260246000fd5b600082821015613e0257613e02613dda565b500390565b60008219821115613e1a57613e1a613dda565b500190565b634e487b7160e01b600052601260045260246000fd5b600082613e4457613e44613e1f565b500490565b6000816000190483118215151615613e6357613e63613dda565b500290565b60008083128015600160ff1b850184121615613e8657613e86613dda565b6001600160ff1b0384018313811615613ea157613ea1613dda565b50500390565b600080821280156001600160ff1b0384900385131615613ec957613ec9613dda565b600160ff1b8390038412811615613ee257613ee2613dda565b50500190565b6020808252601190820152703432b233b2bc1d102327a92124a22222a760791b604082015260600190565b6020808252600d908201526c1a195919d95e081b1bd8dad959609a1b604082015260600190565b60208082526015908201527412195919d95e08151c9859194e8811561412549151605a1b604082015260600190565b6020808252601d908201527f73696e676c6520616d6f756e74206f766572206e6574202a2072617465000000604082015260600190565b60208082526023908201527f706f6f6c206e657420616d6f756e74206d75737420736d616c6c207468616e2060408201526233302560e81b606082015260800190565b60006001600160ff1b038184138284138082168684048611161561400957614009613dda565b600160ff1b600087128281168783058912161561402857614028613dda565b6000871292508782058712848416161561404457614044613dda565b8785058712818416161561405a5761405a613dda565b505050929093029392505050565b60008261407757614077613e1f565b600160ff1b82146000198414161561409157614091613dda565b500590565b805169ffffffffffffffffffff81168114613b1857600080fd5b600080600080600060a086880312156140c857600080fd5b6140d186614096565b94506020860151935060408601519250606086015191506140f460808701614096565b90509295509295909350565b600181815b8085111561413b57816000190482111561412157614121613dda565b8085161561412e57918102915b93841c9390800290614105565b509250929050565b60008261415257506001610c73565b8161415f57506000610c73565b8160018114614175576002811461417f5761419b565b6001915050610c73565b60ff84111561419057614190613dda565b50506001821b610c73565b5060208310610133831016604e8410600b84101617156141be575081810a610c73565b6141c88383614100565b80600019048211156141dc576141dc613dda565b029392505050565b60006135c060ff841683614143565b600081810b607f1981141561420a5761420a613dda565b60000392915050565b600060001982141561422757614227613dda565b5060010190565b600063ffffffff8083168185168183048111821515161561425157614251613dda565b02949350505050565b6000825161426c818460208701613b49565b9190910192915050565b60006020828403121561428857600080fd5b81516135c081613d87565b60008160020b8360020b627fffff6000821360008413838304851182821616156142bf576142bf613dda565b627fffff1960008512828116878305871216156142de576142de613dda565b600087129250858205871284841616156142fa576142fa613dda565b8585058712818416161561431057614310613dda565b5050509290910295945050505050565b60008160020b8360020b8061433757614337613e1f565b627fffff1982146000198214161561435157614351613dda565b9005939250505056fe303db7636b0e071f088d2cd5e8463efe513531272d61a18739b21053f6d7b430a26469706673582212207e78f7a68b77f34854a8d2059bb6ab2d62df50c3d3a48462e9b4d3eb303cf6d864736f6c634300080a0033",
    "sourcePath": "d:/contract/hedgex/Single.sol",
    "compiler": {
        "name": "solc",
        "version": "0.8.10+commit.fc410830"
    },
    "functionHashes": {
        "DOMAIN_SEPARATOR()": "3644e515",
        "PERMIT_TYPEHASH()": "30adf81f",
        "acceptFeeToSetter()": "2dd072a0",
        "addLiquidity(uint256,address)": "c95f9d0e",
        "allowance(address,address)": "dd62ed3e",
        "amountDecimal()": "2be90282",
        "approve(address,uint256)": "095ea7b3",
        "balanceOf(address)": "70a08231",
        "closeLong(uint256,uint256,uint256)": "90edbeb0",
        "closeShort(uint256,uint256,uint256)": "807ca353",
        "dailyInterestRateBase()": "8967b694",
        "decimals()": "313ce567",
        "detectSlide(address,address)": "ddcb04c2",
        "divConst()": "7e4856c4",
        "explosive(address,address)": "89d408ff",
        "explosivePool()": "3e31fb45",
        "feeDivide()": "d375454f",
        "feeOn()": "4f335d0a",
        "feeRate()": "978bbdb9",
        "feeTo()": "017e7e58",
        "feeToSetter()": "094b7415",
        "feedPrice()": "a04eecae",
        "feedPriceDecimal()": "08c73e74",
        "foceCloseRewardGas()": "3d5f8e7a",
        "forceCloseAccount(address,address)": "6422e08f",
        "gasUsdPriceFeed()": "6afb3760",
        "getGasUsdPrice()": "8ed3896c",
        "getLatestPrice()": "8e15f473",
        "getPoolNet()": "7bb71a97",
        "initialize(address,address,uint256,uint256,uint8,int8)": "251c073a",
        "interestRewardRate()": "01bcc908",
        "isStart()": "8a55d36e",
        "leverage()": "2c86d98e",
        "minPool()": "2678b8fd",
        "name()": "06fdde03",
        "nonces(address)": "7ecebe00",
        "openLong(uint256,uint256,uint256)": "6c2ee359",
        "openShort(uint256,uint256,uint256)": "71b31707",
        "permit(address,address,uint256,uint256,uint8,bytes32,bytes32)": "d505accf",
        "poolExplosivePrice()": "33d6f1f7",
        "poolLeftAmountRate()": "ce8ad1d2",
        "poolLongAmount()": "e5984319",
        "poolLongPrice()": "994af3ae",
        "poolNetAmountRateLimitOpen()": "cd8bb6cd",
        "poolNetAmountRateLimitPrice()": "1cce9103",
        "poolShortAmount()": "8e406892",
        "poolShortPrice()": "971059fb",
        "poolState()": "641ad8a9",
        "rechargeMargin(uint256)": "11ce83f8",
        "removeLiquidity(uint256,address)": "05fe138b",
        "setFeeOn(bool)": "fc4064b3",
        "setFeeTo(address)": "f46901ed",
        "singleCloseLimitRate()": "7aaae950",
        "singleOpenLimitRate()": "5d0291ac",
        "slideP()": "2c204fa8",
        "sumFee()": "190b065f",
        "symbol()": "95d89b41",
        "token0()": "0dfe1681",
        "token0Decimal()": "9ddc230a",
        "totalPool()": "ecfb49a3",
        "totalSupply()": "18160ddd",
        "traders(address)": "92a88fa2",
        "transfer(address,uint256)": "a9059cbb",
        "transferFeeToSetter(address)": "c250332f",
        "transferFrom(address,address,uint256)": "23b872dd",
        "withdrawFee()": "e941fa78",
        "withdrawMargin(uint256)": "0cea7534"
    },
    "gasEstimates": {
        "creation": {
            "codeDepositCost": "3465600",
            "executionCost": "infinite",
            "totalCost": "infinite"
        },
        "external": {
            "DOMAIN_SEPARATOR()": "infinite",
            "PERMIT_TYPEHASH()": "263",
            "acceptFeeToSetter()": "50894",
            "addLiquidity(uint256,address)": "infinite",
            "allowance(address,address)": "infinite",
            "amountDecimal()": "infinite",
            "approve(address,uint256)": "24641",
            "balanceOf(address)": "2674",
            "closeLong(uint256,uint256,uint256)": "infinite",
            "closeShort(uint256,uint256,uint256)": "infinite",
            "dailyInterestRateBase()": "316",
            "decimals()": "infinite",
            "detectSlide(address,address)": "infinite",
            "divConst()": "339",
            "explosive(address,address)": "infinite",
            "explosivePool()": "infinite",
            "feeDivide()": "271",
            "feeOn()": "2433",
            "feeRate()": "359",
            "feeTo()": "2396",
            "feeToSetter()": "2417",
            "feedPrice()": "infinite",
            "feedPriceDecimal()": "infinite",
            "foceCloseRewardGas()": "263",
            "forceCloseAccount(address,address)": "infinite",
            "gasUsdPriceFeed()": "infinite",
            "getGasUsdPrice()": "infinite",
            "getLatestPrice()": "infinite",
            "getPoolNet()": "infinite",
            "initialize(address,address,uint256,uint256,uint8,int8)": "infinite",
            "interestRewardRate()": "296",
            "isStart()": "2378",
            "leverage()": "infinite",
            "minPool()": "infinite",
            "name()": "infinite",
            "nonces(address)": "2587",
            "openLong(uint256,uint256,uint256)": "infinite",
            "openShort(uint256,uint256,uint256)": "infinite",
            "permit(address,address,uint256,uint256,uint8,bytes32,bytes32)": "infinite",
            "poolExplosivePrice()": "2407",
            "poolLeftAmountRate()": "337",
            "poolLongAmount()": "2361",
            "poolLongPrice()": "2363",
            "poolNetAmountRateLimitOpen()": "320",
            "poolNetAmountRateLimitPrice()": "277",
            "poolShortAmount()": "2407",
            "poolShortPrice()": "2428",
            "poolState()": "2397",
            "rechargeMargin(uint256)": "infinite",
            "removeLiquidity(uint256,address)": "infinite",
            "setFeeOn(bool)": "26831",
            "setFeeTo(address)": "26843",
            "singleCloseLimitRate()": "295",
            "singleOpenLimitRate()": "338",
            "slideP()": "295",
            "sumFee()": "2430",
            "symbol()": "infinite",
            "token0()": "infinite",
            "token0Decimal()": "infinite",
            "totalPool()": "2405",
            "totalSupply()": "2408",
            "traders(address)": "13291",
            "transfer(address,uint256)": "51207",
            "transferFeeToSetter(address)": "26778",
            "transferFrom(address,address,uint256)": "infinite",
            "withdrawFee()": "infinite",
            "withdrawMargin(uint256)": "infinite"
        },
        "internal": {
            "feeCharge(uint256)": "51151",
            "feeCharge(uint256,int256)": "infinite",
            "getAccountNet(struct HedgexSingle.Trader memory)": "infinite",
            "getAccountNet(struct HedgexSingle.Trader memory,uint256)": "infinite",
            "getPoolNet(uint256)": "infinite",
            "judegOpen(uint256,uint256)": "infinite",
            "poolLimitTrade(int8,uint256)": "infinite",
            "slideTradePrice(uint256,int256)": "infinite"
        }
    }
}