{
    "contractName": "HedgexSingle",
    "abi": [
        {
            "inputs": [
                {
                    "internalType": "address",
                    "name": "_token0",
                    "type": "address"
                },
                {
                    "internalType": "address",
                    "name": "_feedPrice",
                    "type": "address"
                },
                {
                    "internalType": "uint256",
                    "name": "_minStartPool",
                    "type": "uint256"
                },
                {
                    "internalType": "uint8",
                    "name": "_leverage",
                    "type": "uint8"
                },
                {
                    "internalType": "int8",
                    "name": "_amountDecimal",
                    "type": "int8"
                }
            ],
            "stateMutability": "nonpayable",
            "type": "constructor"
        },
        {
            "anonymous": false,
            "inputs": [
                {
                    "indexed": true,
                    "internalType": "address",
                    "name": "owner",
                    "type": "address"
                },
                {
                    "indexed": true,
                    "internalType": "address",
                    "name": "spender",
                    "type": "address"
                },
                {
                    "indexed": false,
                    "internalType": "uint256",
                    "name": "value",
                    "type": "uint256"
                }
            ],
            "name": "Approval",
            "type": "event"
        },
        {
            "anonymous": false,
            "inputs": [
                {
                    "indexed": true,
                    "internalType": "address",
                    "name": "sender",
                    "type": "address"
                },
                {
                    "indexed": false,
                    "internalType": "uint256",
                    "name": "amount",
                    "type": "uint256"
                }
            ],
            "name": "Burn",
            "type": "event"
        },
        {
            "anonymous": false,
            "inputs": [
                {
                    "indexed": true,
                    "internalType": "address",
                    "name": "user",
                    "type": "address"
                },
                {
                    "indexed": false,
                    "internalType": "int8",
                    "name": "direction",
                    "type": "int8"
                },
                {
                    "indexed": false,
                    "internalType": "uint256",
                    "name": "amount",
                    "type": "uint256"
                },
                {
                    "indexed": false,
                    "internalType": "uint256",
                    "name": "price",
                    "type": "uint256"
                }
            ],
            "name": "Explosive",
            "type": "event"
        },
        {
            "anonymous": false,
            "inputs": [
                {
                    "indexed": false,
                    "internalType": "int256",
                    "name": "total",
                    "type": "int256"
                },
                {
                    "indexed": false,
                    "internalType": "uint256",
                    "name": "la",
                    "type": "uint256"
                },
                {
                    "indexed": false,
                    "internalType": "uint256",
                    "name": "lp",
                    "type": "uint256"
                },
                {
                    "indexed": false,
                    "internalType": "uint256",
                    "name": "sa",
                    "type": "uint256"
                },
                {
                    "indexed": false,
                    "internalType": "uint256",
                    "name": "sp",
                    "type": "uint256"
                },
                {
                    "indexed": false,
                    "internalType": "uint256",
                    "name": "ep",
                    "type": "uint256"
                }
            ],
            "name": "ExplosivePool",
            "type": "event"
        },
        {
            "anonymous": false,
            "inputs": [
                {
                    "indexed": true,
                    "internalType": "address",
                    "name": "account",
                    "type": "address"
                },
                {
                    "indexed": false,
                    "internalType": "uint256",
                    "name": "long",
                    "type": "uint256"
                },
                {
                    "indexed": false,
                    "internalType": "uint256",
                    "name": "short",
                    "type": "uint256"
                },
                {
                    "indexed": false,
                    "internalType": "uint256",
                    "name": "price",
                    "type": "uint256"
                }
            ],
            "name": "ForceClose",
            "type": "event"
        },
        {
            "anonymous": false,
            "inputs": [
                {
                    "indexed": true,
                    "internalType": "address",
                    "name": "sender",
                    "type": "address"
                },
                {
                    "indexed": false,
                    "internalType": "uint256",
                    "name": "amount",
                    "type": "uint256"
                }
            ],
            "name": "Mint",
            "type": "event"
        },
        {
            "anonymous": false,
            "inputs": [
                {
                    "indexed": true,
                    "internalType": "address",
                    "name": "sender",
                    "type": "address"
                },
                {
                    "indexed": false,
                    "internalType": "uint256",
                    "name": "amount",
                    "type": "uint256"
                }
            ],
            "name": "Recharge",
            "type": "event"
        },
        {
            "anonymous": false,
            "inputs": [
                {
                    "indexed": true,
                    "internalType": "address",
                    "name": "user",
                    "type": "address"
                },
                {
                    "indexed": false,
                    "internalType": "int8",
                    "name": "direction",
                    "type": "int8"
                },
                {
                    "indexed": false,
                    "internalType": "uint256",
                    "name": "amount",
                    "type": "uint256"
                },
                {
                    "indexed": false,
                    "internalType": "uint256",
                    "name": "price",
                    "type": "uint256"
                }
            ],
            "name": "TakeInterest",
            "type": "event"
        },
        {
            "anonymous": false,
            "inputs": [
                {
                    "indexed": true,
                    "internalType": "address",
                    "name": "sender",
                    "type": "address"
                },
                {
                    "indexed": false,
                    "internalType": "int8",
                    "name": "direction",
                    "type": "int8"
                },
                {
                    "indexed": false,
                    "internalType": "uint256",
                    "name": "amount",
                    "type": "uint256"
                },
                {
                    "indexed": false,
                    "internalType": "uint256",
                    "name": "price",
                    "type": "uint256"
                }
            ],
            "name": "Trade",
            "type": "event"
        },
        {
            "anonymous": false,
            "inputs": [
                {
                    "indexed": true,
                    "internalType": "address",
                    "name": "from",
                    "type": "address"
                },
                {
                    "indexed": true,
                    "internalType": "address",
                    "name": "to",
                    "type": "address"
                },
                {
                    "indexed": false,
                    "internalType": "uint256",
                    "name": "value",
                    "type": "uint256"
                }
            ],
            "name": "Transfer",
            "type": "event"
        },
        {
            "anonymous": false,
            "inputs": [
                {
                    "indexed": true,
                    "internalType": "address",
                    "name": "sender",
                    "type": "address"
                },
                {
                    "indexed": false,
                    "internalType": "uint256",
                    "name": "amount",
                    "type": "uint256"
                }
            ],
            "name": "Withdraw",
            "type": "event"
        },
        {
            "inputs": [],
            "name": "DOMAIN_SEPARATOR",
            "outputs": [
                {
                    "internalType": "bytes32",
                    "name": "",
                    "type": "bytes32"
                }
            ],
            "stateMutability": "view",
            "type": "function"
        },
        {
            "inputs": [],
            "name": "PERMIT_TYPEHASH",
            "outputs": [
                {
                    "internalType": "bytes32",
                    "name": "",
                    "type": "bytes32"
                }
            ],
            "stateMutability": "view",
            "type": "function"
        },
        {
            "inputs": [],
            "name": "R0",
            "outputs": [
                {
                    "internalType": "int256",
                    "name": "initR",
                    "type": "int256"
                },
                {
                    "internalType": "uint256",
                    "name": "number",
                    "type": "uint256"
                },
                {
                    "internalType": "int8",
                    "name": "deltaR",
                    "type": "int8"
                }
            ],
            "stateMutability": "view",
            "type": "function"
        },
        {
            "inputs": [],
            "name": "R1",
            "outputs": [
                {
                    "internalType": "int256",
                    "name": "initR",
                    "type": "int256"
                },
                {
                    "internalType": "uint256",
                    "name": "number",
                    "type": "uint256"
                },
                {
                    "internalType": "int8",
                    "name": "deltaR",
                    "type": "int8"
                }
            ],
            "stateMutability": "view",
            "type": "function"
        },
        {
            "inputs": [],
            "name": "R2",
            "outputs": [
                {
                    "internalType": "int256",
                    "name": "initR",
                    "type": "int256"
                },
                {
                    "internalType": "uint256",
                    "name": "number",
                    "type": "uint256"
                },
                {
                    "internalType": "int8",
                    "name": "deltaR",
                    "type": "int8"
                }
            ],
            "stateMutability": "view",
            "type": "function"
        },
        {
            "inputs": [],
            "name": "acceptSetter",
            "outputs": [],
            "stateMutability": "nonpayable",
            "type": "function"
        },
        {
            "inputs": [
                {
                    "internalType": "uint256",
                    "name": "amount",
                    "type": "uint256"
                },
                {
                    "internalType": "address",
                    "name": "to",
                    "type": "address"
                }
            ],
            "name": "addLiquidity",
            "outputs": [],
            "stateMutability": "nonpayable",
            "type": "function"
        },
        {
            "inputs": [
                {
                    "internalType": "address",
                    "name": "",
                    "type": "address"
                },
                {
                    "internalType": "address",
                    "name": "",
                    "type": "address"
                }
            ],
            "name": "allowance",
            "outputs": [
                {
                    "internalType": "uint256",
                    "name": "",
                    "type": "uint256"
                }
            ],
            "stateMutability": "view",
            "type": "function"
        },
        {
            "inputs": [],
            "name": "amountDecimal",
            "outputs": [
                {
                    "internalType": "int8",
                    "name": "",
                    "type": "int8"
                }
            ],
            "stateMutability": "view",
            "type": "function"
        },
        {
            "inputs": [
                {
                    "internalType": "address",
                    "name": "spender",
                    "type": "address"
                },
                {
                    "internalType": "uint256",
                    "name": "value",
                    "type": "uint256"
                }
            ],
            "name": "approve",
            "outputs": [
                {
                    "internalType": "bool",
                    "name": "",
                    "type": "bool"
                }
            ],
            "stateMutability": "nonpayable",
            "type": "function"
        },
        {
            "inputs": [
                {
                    "internalType": "address",
                    "name": "",
                    "type": "address"
                }
            ],
            "name": "balanceOf",
            "outputs": [
                {
                    "internalType": "uint256",
                    "name": "",
                    "type": "uint256"
                }
            ],
            "stateMutability": "view",
            "type": "function"
        },
        {
            "inputs": [],
            "name": "canAddLiquidity",
            "outputs": [
                {
                    "internalType": "bool",
                    "name": "",
                    "type": "bool"
                }
            ],
            "stateMutability": "view",
            "type": "function"
        },
        {
            "inputs": [],
            "name": "canOpen",
            "outputs": [
                {
                    "internalType": "bool",
                    "name": "",
                    "type": "bool"
                }
            ],
            "stateMutability": "view",
            "type": "function"
        },
        {
            "inputs": [
                {
                    "internalType": "uint256",
                    "name": "priceExp",
                    "type": "uint256"
                },
                {
                    "internalType": "uint256",
                    "name": "amount",
                    "type": "uint256"
                },
                {
                    "internalType": "uint256",
                    "name": "deadline",
                    "type": "uint256"
                }
            ],
            "name": "closeLong",
            "outputs": [],
            "stateMutability": "nonpayable",
            "type": "function"
        },
        {
            "inputs": [
                {
                    "internalType": "uint256",
                    "name": "priceExp",
                    "type": "uint256"
                },
                {
                    "internalType": "uint256",
                    "name": "amount",
                    "type": "uint256"
                },
                {
                    "internalType": "uint256",
                    "name": "deadline",
                    "type": "uint256"
                }
            ],
            "name": "closeShort",
            "outputs": [],
            "stateMutability": "nonpayable",
            "type": "function"
        },
        {
            "inputs": [],
            "name": "dailyInterestRateBase",
            "outputs": [
                {
                    "internalType": "uint16",
                    "name": "",
                    "type": "uint16"
                }
            ],
            "stateMutability": "view",
            "type": "function"
        },
        {
            "inputs": [],
            "name": "decimals",
            "outputs": [
                {
                    "internalType": "uint8",
                    "name": "",
                    "type": "uint8"
                }
            ],
            "stateMutability": "view",
            "type": "function"
        },
        {
            "inputs": [],
            "name": "deltaR0Limit",
            "outputs": [
                {
                    "internalType": "int24",
                    "name": "",
                    "type": "int24"
                }
            ],
            "stateMutability": "view",
            "type": "function"
        },
        {
            "inputs": [],
            "name": "deltaR2Limit",
            "outputs": [
                {
                    "internalType": "int24",
                    "name": "",
                    "type": "int24"
                }
            ],
            "stateMutability": "view",
            "type": "function"
        },
        {
            "inputs": [],
            "name": "deltaRSlidePriceRate",
            "outputs": [
                {
                    "internalType": "uint24",
                    "name": "",
                    "type": "uint24"
                }
            ],
            "stateMutability": "view",
            "type": "function"
        },
        {
            "inputs": [
                {
                    "internalType": "address",
                    "name": "account",
                    "type": "address"
                },
                {
                    "internalType": "address",
                    "name": "to",
                    "type": "address"
                }
            ],
            "name": "detectSlide",
            "outputs": [],
            "stateMutability": "nonpayable",
            "type": "function"
        },
        {
            "inputs": [],
            "name": "divConst",
            "outputs": [
                {
                    "internalType": "uint24",
                    "name": "",
                    "type": "uint24"
                }
            ],
            "stateMutability": "view",
            "type": "function"
        },
        {
            "inputs": [
                {
                    "internalType": "address",
                    "name": "account",
                    "type": "address"
                },
                {
                    "internalType": "address",
                    "name": "to",
                    "type": "address"
                }
            ],
            "name": "explosive",
            "outputs": [],
            "stateMutability": "nonpayable",
            "type": "function"
        },
        {
            "inputs": [],
            "name": "explosivePool",
            "outputs": [],
            "stateMutability": "nonpayable",
            "type": "function"
        },
        {
            "inputs": [],
            "name": "feeDivide",
            "outputs": [
                {
                    "internalType": "uint24",
                    "name": "",
                    "type": "uint24"
                }
            ],
            "stateMutability": "view",
            "type": "function"
        },
        {
            "inputs": [],
            "name": "feeOn",
            "outputs": [
                {
                    "internalType": "bool",
                    "name": "",
                    "type": "bool"
                }
            ],
            "stateMutability": "view",
            "type": "function"
        },
        {
            "inputs": [],
            "name": "feeRate",
            "outputs": [
                {
                    "internalType": "uint16",
                    "name": "",
                    "type": "uint16"
                }
            ],
            "stateMutability": "view",
            "type": "function"
        },
        {
            "inputs": [],
            "name": "feeTo",
            "outputs": [
                {
                    "internalType": "address",
                    "name": "",
                    "type": "address"
                }
            ],
            "stateMutability": "view",
            "type": "function"
        },
        {
            "inputs": [],
            "name": "feedPrice",
            "outputs": [
                {
                    "internalType": "contract IIndexPrice",
                    "name": "",
                    "type": "address"
                }
            ],
            "stateMutability": "view",
            "type": "function"
        },
        {
            "inputs": [
                {
                    "internalType": "address",
                    "name": "account",
                    "type": "address"
                },
                {
                    "internalType": "address",
                    "name": "to",
                    "type": "address"
                }
            ],
            "name": "forceCloseAccount",
            "outputs": [],
            "stateMutability": "nonpayable",
            "type": "function"
        },
        {
            "inputs": [],
            "name": "getLatestPrice",
            "outputs": [
                {
                    "internalType": "uint256",
                    "name": "",
                    "type": "uint256"
                },
                {
                    "internalType": "int256",
                    "name": "",
                    "type": "int256"
                }
            ],
            "stateMutability": "view",
            "type": "function"
        },
        {
            "inputs": [],
            "name": "getPoolNet",
            "outputs": [
                {
                    "internalType": "int256",
                    "name": "",
                    "type": "int256"
                }
            ],
            "stateMutability": "view",
            "type": "function"
        },
        {
            "inputs": [],
            "name": "getPoolPosition",
            "outputs": [
                {
                    "internalType": "int256",
                    "name": "",
                    "type": "int256"
                },
                {
                    "internalType": "uint256",
                    "name": "",
                    "type": "uint256"
                },
                {
                    "internalType": "uint256",
                    "name": "",
                    "type": "uint256"
                },
                {
                    "internalType": "uint256",
                    "name": "",
                    "type": "uint256"
                },
                {
                    "internalType": "uint256",
                    "name": "",
                    "type": "uint256"
                },
                {
                    "internalType": "uint8",
                    "name": "",
                    "type": "uint8"
                }
            ],
            "stateMutability": "view",
            "type": "function"
        },
        {
            "inputs": [],
            "name": "interestRewardRate",
            "outputs": [
                {
                    "internalType": "uint24",
                    "name": "",
                    "type": "uint24"
                }
            ],
            "stateMutability": "view",
            "type": "function"
        },
        {
            "inputs": [],
            "name": "isStart",
            "outputs": [
                {
                    "internalType": "bool",
                    "name": "",
                    "type": "bool"
                }
            ],
            "stateMutability": "view",
            "type": "function"
        },
        {
            "inputs": [],
            "name": "keepMarginScale",
            "outputs": [
                {
                    "internalType": "uint8",
                    "name": "",
                    "type": "uint8"
                }
            ],
            "stateMutability": "view",
            "type": "function"
        },
        {
            "inputs": [],
            "name": "leverage",
            "outputs": [
                {
                    "internalType": "uint8",
                    "name": "",
                    "type": "uint8"
                }
            ],
            "stateMutability": "view",
            "type": "function"
        },
        {
            "inputs": [],
            "name": "minPool",
            "outputs": [
                {
                    "internalType": "uint256",
                    "name": "",
                    "type": "uint256"
                }
            ],
            "stateMutability": "view",
            "type": "function"
        },
        {
            "inputs": [],
            "name": "name",
            "outputs": [
                {
                    "internalType": "string",
                    "name": "",
                    "type": "string"
                }
            ],
            "stateMutability": "view",
            "type": "function"
        },
        {
            "inputs": [
                {
                    "internalType": "address",
                    "name": "",
                    "type": "address"
                }
            ],
            "name": "nonces",
            "outputs": [
                {
                    "internalType": "uint256",
                    "name": "",
                    "type": "uint256"
                }
            ],
            "stateMutability": "view",
            "type": "function"
        },
        {
            "inputs": [
                {
                    "internalType": "uint256",
                    "name": "priceExp",
                    "type": "uint256"
                },
                {
                    "internalType": "uint256",
                    "name": "amount",
                    "type": "uint256"
                },
                {
                    "internalType": "uint256",
                    "name": "deadline",
                    "type": "uint256"
                }
            ],
            "name": "openLong",
            "outputs": [],
            "stateMutability": "nonpayable",
            "type": "function"
        },
        {
            "inputs": [
                {
                    "internalType": "uint256",
                    "name": "priceExp",
                    "type": "uint256"
                },
                {
                    "internalType": "uint256",
                    "name": "amount",
                    "type": "uint256"
                },
                {
                    "internalType": "uint256",
                    "name": "deadline",
                    "type": "uint256"
                }
            ],
            "name": "openShort",
            "outputs": [],
            "stateMutability": "nonpayable",
            "type": "function"
        },
        {
            "inputs": [],
            "name": "owner",
            "outputs": [
                {
                    "internalType": "address",
                    "name": "",
                    "type": "address"
                }
            ],
            "stateMutability": "view",
            "type": "function"
        },
        {
            "inputs": [
                {
                    "internalType": "address",
                    "name": "owner",
                    "type": "address"
                },
                {
                    "internalType": "address",
                    "name": "spender",
                    "type": "address"
                },
                {
                    "internalType": "uint256",
                    "name": "value",
                    "type": "uint256"
                },
                {
                    "internalType": "uint256",
                    "name": "deadline",
                    "type": "uint256"
                },
                {
                    "internalType": "uint8",
                    "name": "v",
                    "type": "uint8"
                },
                {
                    "internalType": "bytes32",
                    "name": "r",
                    "type": "bytes32"
                },
                {
                    "internalType": "bytes32",
                    "name": "s",
                    "type": "bytes32"
                }
            ],
            "name": "permit",
            "outputs": [],
            "stateMutability": "nonpayable",
            "type": "function"
        },
        {
            "inputs": [],
            "name": "poolExplosivePrice",
            "outputs": [
                {
                    "internalType": "uint256",
                    "name": "",
                    "type": "uint256"
                }
            ],
            "stateMutability": "view",
            "type": "function"
        },
        {
            "inputs": [],
            "name": "poolLeftAmountRate",
            "outputs": [
                {
                    "internalType": "uint24",
                    "name": "",
                    "type": "uint24"
                }
            ],
            "stateMutability": "view",
            "type": "function"
        },
        {
            "inputs": [],
            "name": "poolLongAmount",
            "outputs": [
                {
                    "internalType": "uint256",
                    "name": "",
                    "type": "uint256"
                }
            ],
            "stateMutability": "view",
            "type": "function"
        },
        {
            "inputs": [],
            "name": "poolLongPrice",
            "outputs": [
                {
                    "internalType": "uint256",
                    "name": "",
                    "type": "uint256"
                }
            ],
            "stateMutability": "view",
            "type": "function"
        },
        {
            "inputs": [],
            "name": "poolNetAmountRateLimitOpen",
            "outputs": [
                {
                    "internalType": "int24",
                    "name": "",
                    "type": "int24"
                }
            ],
            "stateMutability": "view",
            "type": "function"
        },
        {
            "inputs": [],
            "name": "poolNetAmountRateLimitPrice",
            "outputs": [
                {
                    "internalType": "int24",
                    "name": "",
                    "type": "int24"
                }
            ],
            "stateMutability": "view",
            "type": "function"
        },
        {
            "inputs": [],
            "name": "poolShortAmount",
            "outputs": [
                {
                    "internalType": "uint256",
                    "name": "",
                    "type": "uint256"
                }
            ],
            "stateMutability": "view",
            "type": "function"
        },
        {
            "inputs": [],
            "name": "poolShortPrice",
            "outputs": [
                {
                    "internalType": "uint256",
                    "name": "",
                    "type": "uint256"
                }
            ],
            "stateMutability": "view",
            "type": "function"
        },
        {
            "inputs": [],
            "name": "poolState",
            "outputs": [
                {
                    "internalType": "uint8",
                    "name": "",
                    "type": "uint8"
                }
            ],
            "stateMutability": "view",
            "type": "function"
        },
        {
            "inputs": [
                {
                    "internalType": "uint256",
                    "name": "amount",
                    "type": "uint256"
                }
            ],
            "name": "rechargeMargin",
            "outputs": [],
            "stateMutability": "nonpayable",
            "type": "function"
        },
        {
            "inputs": [
                {
                    "internalType": "uint256",
                    "name": "liquidity",
                    "type": "uint256"
                },
                {
                    "internalType": "address",
                    "name": "to",
                    "type": "address"
                }
            ],
            "name": "removeLiquidity",
            "outputs": [],
            "stateMutability": "nonpayable",
            "type": "function"
        },
        {
            "inputs": [
                {
                    "internalType": "bool",
                    "name": "b",
                    "type": "bool"
                }
            ],
            "name": "setCanAddLiquidity",
            "outputs": [],
            "stateMutability": "nonpayable",
            "type": "function"
        },
        {
            "inputs": [
                {
                    "internalType": "bool",
                    "name": "b",
                    "type": "bool"
                }
            ],
            "name": "setCanOpen",
            "outputs": [],
            "stateMutability": "nonpayable",
            "type": "function"
        },
        {
            "inputs": [
                {
                    "internalType": "int24",
                    "name": "value",
                    "type": "int24"
                }
            ],
            "name": "setDeltaR0Limit",
            "outputs": [],
            "stateMutability": "nonpayable",
            "type": "function"
        },
        {
            "inputs": [
                {
                    "internalType": "int24",
                    "name": "value",
                    "type": "int24"
                }
            ],
            "name": "setDeltaR2Limit",
            "outputs": [],
            "stateMutability": "nonpayable",
            "type": "function"
        },
        {
            "inputs": [
                {
                    "internalType": "uint24",
                    "name": "value",
                    "type": "uint24"
                }
            ],
            "name": "setDeltaRSlidePriceRate",
            "outputs": [],
            "stateMutability": "nonpayable",
            "type": "function"
        },
        {
            "inputs": [
                {
                    "internalType": "bool",
                    "name": "b",
                    "type": "bool"
                }
            ],
            "name": "setFeeOn",
            "outputs": [],
            "stateMutability": "nonpayable",
            "type": "function"
        },
        {
            "inputs": [
                {
                    "internalType": "uint16",
                    "name": "value",
                    "type": "uint16"
                }
            ],
            "name": "setFeeRate",
            "outputs": [],
            "stateMutability": "nonpayable",
            "type": "function"
        },
        {
            "inputs": [
                {
                    "internalType": "address",
                    "name": "_feeTo",
                    "type": "address"
                }
            ],
            "name": "setFeeTo",
            "outputs": [],
            "stateMutability": "nonpayable",
            "type": "function"
        },
        {
            "inputs": [
                {
                    "internalType": "address",
                    "name": "_feedPrice",
                    "type": "address"
                }
            ],
            "name": "setFeedPrice",
            "outputs": [],
            "stateMutability": "nonpayable",
            "type": "function"
        },
        {
            "inputs": [
                {
                    "internalType": "uint8",
                    "name": "value",
                    "type": "uint8"
                }
            ],
            "name": "setKeepMarginScale",
            "outputs": [],
            "stateMutability": "nonpayable",
            "type": "function"
        },
        {
            "inputs": [
                {
                    "internalType": "int24",
                    "name": "value",
                    "type": "int24"
                }
            ],
            "name": "setPoolNetAmountRateLimitOpen",
            "outputs": [],
            "stateMutability": "nonpayable",
            "type": "function"
        },
        {
            "inputs": [
                {
                    "internalType": "int24",
                    "name": "value",
                    "type": "int24"
                }
            ],
            "name": "setPoolNetAmountRateLimitPrice",
            "outputs": [],
            "stateMutability": "nonpayable",
            "type": "function"
        },
        {
            "inputs": [],
            "name": "singleCloseLimitRate",
            "outputs": [
                {
                    "internalType": "uint24",
                    "name": "",
                    "type": "uint24"
                }
            ],
            "stateMutability": "view",
            "type": "function"
        },
        {
            "inputs": [],
            "name": "singleOpenLimitRate",
            "outputs": [
                {
                    "internalType": "uint16",
                    "name": "",
                    "type": "uint16"
                }
            ],
            "stateMutability": "view",
            "type": "function"
        },
        {
            "inputs": [],
            "name": "sumFee",
            "outputs": [
                {
                    "internalType": "uint256",
                    "name": "",
                    "type": "uint256"
                }
            ],
            "stateMutability": "view",
            "type": "function"
        },
        {
            "inputs": [],
            "name": "symbol",
            "outputs": [
                {
                    "internalType": "string",
                    "name": "",
                    "type": "string"
                }
            ],
            "stateMutability": "view",
            "type": "function"
        },
        {
            "inputs": [],
            "name": "token0",
            "outputs": [
                {
                    "internalType": "address",
                    "name": "",
                    "type": "address"
                }
            ],
            "stateMutability": "view",
            "type": "function"
        },
        {
            "inputs": [],
            "name": "token0Decimal",
            "outputs": [
                {
                    "internalType": "uint256",
                    "name": "",
                    "type": "uint256"
                }
            ],
            "stateMutability": "view",
            "type": "function"
        },
        {
            "inputs": [],
            "name": "totalPool",
            "outputs": [
                {
                    "internalType": "int256",
                    "name": "",
                    "type": "int256"
                }
            ],
            "stateMutability": "view",
            "type": "function"
        },
        {
            "inputs": [],
            "name": "totalSupply",
            "outputs": [
                {
                    "internalType": "uint256",
                    "name": "",
                    "type": "uint256"
                }
            ],
            "stateMutability": "view",
            "type": "function"
        },
        {
            "inputs": [
                {
                    "internalType": "address",
                    "name": "",
                    "type": "address"
                }
            ],
            "name": "traders",
            "outputs": [
                {
                    "internalType": "int256",
                    "name": "margin",
                    "type": "int256"
                },
                {
                    "internalType": "uint256",
                    "name": "longAmount",
                    "type": "uint256"
                },
                {
                    "internalType": "uint256",
                    "name": "longPrice",
                    "type": "uint256"
                },
                {
                    "internalType": "uint256",
                    "name": "shortAmount",
                    "type": "uint256"
                },
                {
                    "internalType": "uint256",
                    "name": "shortPrice",
                    "type": "uint256"
                },
                {
                    "internalType": "uint32",
                    "name": "interestDay",
                    "type": "uint32"
                }
            ],
            "stateMutability": "view",
            "type": "function"
        },
        {
            "inputs": [
                {
                    "internalType": "address",
                    "name": "to",
                    "type": "address"
                },
                {
                    "internalType": "uint256",
                    "name": "value",
                    "type": "uint256"
                }
            ],
            "name": "transfer",
            "outputs": [
                {
                    "internalType": "bool",
                    "name": "",
                    "type": "bool"
                }
            ],
            "stateMutability": "nonpayable",
            "type": "function"
        },
        {
            "inputs": [
                {
                    "internalType": "address",
                    "name": "from",
                    "type": "address"
                },
                {
                    "internalType": "address",
                    "name": "to",
                    "type": "address"
                },
                {
                    "internalType": "uint256",
                    "name": "value",
                    "type": "uint256"
                }
            ],
            "name": "transferFrom",
            "outputs": [
                {
                    "internalType": "bool",
                    "name": "",
                    "type": "bool"
                }
            ],
            "stateMutability": "nonpayable",
            "type": "function"
        },
        {
            "inputs": [
                {
                    "internalType": "address",
                    "name": "_owner",
                    "type": "address"
                }
            ],
            "name": "transferOwner",
            "outputs": [],
            "stateMutability": "nonpayable",
            "type": "function"
        },
        {
            "inputs": [],
            "name": "withdrawFee",
            "outputs": [],
            "stateMutability": "nonpayable",
            "type": "function"
        },
        {
            "inputs": [
                {
                    "internalType": "uint256",
                    "name": "amount",
                    "type": "uint256"
                }
            ],
            "name": "withdrawMargin",
            "outputs": [],
            "stateMutability": "nonpayable",
            "type": "function"
        }
    ],
    "bytecode": "6101606040526006805461ffff60a01b191661010160a01b17905560016008556009805466ffffffffffff001916660493e0061a800017905560138054600162ffff0160501b0319166c0258001e0027100186a000c3501790553480156200006657600080fd5b50604051620051ba380380620051ba8339810160408190526200008991620002f8565b846001600160a01b031663313ce5676040518163ffffffff1660e01b8152600401602060405180830381865afa158015620000c8573d6000803e3d6000fd5b505050506040513d601f19601f82011682018060405250810190620000ee919062000368565b604080518082018252600c81526b48656467657853696e676c6560a01b6020918201528151808301835260018152603160f81b9082015281517f8b73c3c69bb8fe3d512ecc4cf759cc79239f7b179b0ffacaa9a75d522b39400f918101919091527fdbb8f54117374490c454ab41b80d95cf4a0c3b286124d9b83e346d854dc3efcd918101919091527fc89efdaa54c0f20c7adf612882df0950f5a951637e0307cdcb4c672f298b8bc660608201524660808201523060a082015260c00160408051601f19818403018152828252805160209182012060a05260ff9093166080526006805460ff60b01b1916600160b01b179055601b80546001600160a01b03808a166001600160a01b031990921691909117909155881661010081905263313ce56760e01b83529051909263313ce56792600480820193918290030181865afa15801562000241573d6000803e3d6000fd5b505050506040513d601f19601f8201168201806040525081019062000267919062000368565b6200027490600a620004a2565b6101205260c09290925260ff1660e0526009805460ff191690556013805460ff60501b19166a010000000000000000000017905560000b610140525050600480546001600160a01b03191633179055620004b3565b80516001600160a01b0381168114620002e157600080fd5b919050565b805160ff81168114620002e157600080fd5b600080600080600060a086880312156200031157600080fd5b6200031c86620002c9565b94506200032c60208701620002c9565b9350604086015192506200034360608701620002e6565b915060808601518060000b81146200035a57600080fd5b809150509295509295909350565b6000602082840312156200037b57600080fd5b6200038682620002e6565b9392505050565b634e487b7160e01b600052601160045260246000fd5b600181815b80851115620003e4578160001904821115620003c857620003c86200038d565b80851615620003d657918102915b93841c9390800290620003a8565b509250929050565b600082620003fd575060016200049c565b816200040c575060006200049c565b8160018114620004255760028114620004305762000450565b60019150506200049c565b60ff8411156200044457620004446200038d565b50506001821b6200049c565b5060208310610133831016604e8410600b841016171562000475575081810a6200049c565b620004818383620003a3565b80600019048211156200049857620004986200038d565b0290505b92915050565b60006200038660ff841683620003ec565b60805160a05160c05160e051610100516101205161014051614c0b620005af6000396000818161065a015281816128610152818161288e015281816128f80152818161296d01526129e0015260008181610a6201528181611881015281816128b901528181612924015281816129a10152612a1401526000818161058c01528181610e1f015281816110e001528181611191015281816118c40152818161267501528181612ec20152818161355f015261362201526000818161069401528181610f7a01528181613e830152613eec0152600081816106200152612f3b0152600081816107380152613056015260006107080152614c0b6000f3fe608060405234801561001057600080fd5b506004361061048b5760003560e01c8063807ca35311610262578063bedc409b11610151578063dd62ed3e116100ce578063ecfb49a311610092578063ecfb49a314610bcf578063f46901ed14610bd8578063fa50744514610beb578063fc4064b314610bfe578063fee2cb0514610c11578063ffaeb58214610c2657600080fd5b8063dd62ed3e14610b6a578063ddcb04c214610b95578063de87861f14610ba8578063e598431914610bbe578063e941fa7814610bc757600080fd5b8063ce8ad1d211610115578063ce8ad1d214610b1d578063d1ad24be14610b26578063d375454f14610b39578063d421fefc14610b43578063d505accf14610b5757600080fd5b8063bedc409b14610abf578063c26c9aff14610ad2578063c669c32c14610ae5578063c95f9d0e14610af8578063cd8bb6cd14610b0b57600080fd5b806390edbeb0116101df578063994af3ae116101a3578063994af3ae14610a545780639ddc230a14610a5d578063a04eecae14610a84578063a9059cbb14610a97578063b22dd2ca14610aaa57600080fd5b806390edbeb01461098457806392a88fa21461099757806395d89b4114610a13578063971059fb14610a36578063978bbdb914610a3f57600080fd5b80638b0af0fa116102265780638b0af0fa146109045780638d73d86a146109185780638da5cb5b1461094b5780638e15f4731461095e5780638e4068921461097b57600080fd5b8063807ca353146108b55780638632d4ab146108c85780638967b694146108db57806389d408ff146108e45780638a55d36e146108f757600080fd5b8063313ce5671161037e578063641ad8a9116102fb57806373e6054b116102bf57806373e6054b1461083a5780637aaae950146104c05780637bb71a97146108835780637e4856c41461088b5780637ecebe001461089557600080fd5b8063641ad8a9146107cd5780636422e08f146107e15780636c2ee359146107f457806370a082311461080757806371b317071461082757600080fd5b80634f335d0a116103425780634f335d0a146107755780634fb2e45d146107895780635d0291ac1461079c5780635dd535ad146107b85780635f8e422f146107c557600080fd5b8063313ce5671461070357806333d6f1f71461072a5780633644e515146107335780633acb7bb21461075a5780633e31fb451461076d57600080fd5b806318160ddd1161040c57806329ff0773116103d057806329ff0773146106425780632be90282146106555780632c86d98e1461068f578063303c0a3b146106c857806330adf81f146106dc57600080fd5b806318160ddd146105c1578063190b065f146105d85780631cce9103146105e157806323b872dd146106085780632678b8fd1461061b57600080fd5b80630b399758116104535780630b3997581461054e5780630cea7534146105615780630def3ead146105745780630dfe16811461058757806311ce83f8146105ae57600080fd5b8063017e7e581461049057806301bcc908146104c057806305fe138b146104de57806306fdde03146104f3578063095ea7b31461052b575b600080fd5b6006546104a3906001600160a01b031681565b6040516001600160a01b0390911681526020015b60405180910390f35b6104ca620186a081565b60405162ffffff90911681526020016104b7565b6104f16104ec366004614374565b610c3a565b005b61051e6040518060400160405280600c81526020016b48656467657853696e676c6560a01b81525081565b6040516104b791906143d0565b61053e610539366004614403565b610e80565b60405190151581526020016104b7565b6104f161055c36600461442d565b610e97565b6104f161056f366004614450565b610ee5565b6104f1610582366004614477565b611144565b6104a37f000000000000000000000000000000000000000000000000000000000000000081565b6104f16105bc366004614450565b61118c565b6105ca60005481565b6040519081526020016104b7565b6105ca60145481565b6009546105f590600160201b900460020b81565b60405160029190910b81526020016104b7565b61053e610616366004614494565b611214565b6105ca7f000000000000000000000000000000000000000000000000000000000000000081565b6104f16106503660046144d0565b61128e565b61067c7f000000000000000000000000000000000000000000000000000000000000000081565b60405160009190910b81526020016104b7565b6106b67f000000000000000000000000000000000000000000000000000000000000000081565b60405160ff90911681526020016104b7565b6013546106b690600160481b900460ff1681565b6105ca7f6e71edae12b1b97f4d1f60370fef10105fa2faae0126114a169c64845d6126c981565b6106b67f000000000000000000000000000000000000000000000000000000000000000081565b6105ca60075481565b6105ca7f000000000000000000000000000000000000000000000000000000000000000081565b6104f161076836600461442d565b6112f6565b6104f161133a565b60135461053e90600160501b900460ff1681565b6104f16107973660046144f4565b611573565b6107a561753081565b60405161ffff90911681526020016104b7565b6013546105f59060020b81565b6104f16115bf565b6006546106b690600160b01b900460ff1681565b6104f16107ef36600461450f565b611610565b6104f1610802366004614539565b61194b565b6105ca6108153660046144f4565b60016020526000908152604090205481565b6104f1610835366004614539565b611c9f565b6015546016546018546017546019546006546040805196875260208701959095529385019290925260608401526080830152600160b01b900460ff1660a082015260c0016104b7565b6105ca611fc6565b6104ca620f424081565b6105ca6108a33660046144f4565b60036020526000908152604090205481565b6104f16108c3366004614539565b612078565b6104f16108d6366004614576565b6123d4565b6107a56103e881565b6104f16108f236600461450f565b612424565b60095461053e9060ff1681565b60065461053e90600160a01b900460ff1681565b600a54600b54600c5461092d92919060000b83565b60408051938452602084019290925260000b908201526060016104b7565b6004546104a3906001600160a01b031681565b610966612777565b604080519283526020830191909152016104b7565b6105ca60175481565b6104f1610992366004614539565b612a43565b6109e06109a53660046144f4565b601a60205260009081526040902080546001820154600283015460038401546004850154600590950154939492939192909163ffffffff1686565b604080519687526020870195909552938501929092526060840152608083015263ffffffff1660a082015260c0016104b7565b61051e604051806040016040528060048152602001634845585360e01b81525081565b6105ca60195481565b6013546107a590600160581b900461ffff1681565b6105ca60185481565b6105ca7f000000000000000000000000000000000000000000000000000000000000000081565b601b546104a3906001600160a01b031681565b61053e610aa5366004614403565b612d74565b600d54600e54600f5461092d92919060000b83565b6104f1610acd36600461442d565b612d81565b6104f1610ae0366004614591565b612dcb565b6104f1610af33660046144f4565b612e1c565b6104f1610b06366004614374565b612e68565b6009546105f590610100900460020b81565b6104ca61c35081565b6104f1610b3436600461442d565b612fa9565b6104ca6203d09081565b6013546105f5906301000000900460020b81565b6104f1610b653660046145b6565b612ff8565b6105ca610b7836600461450f565b600260209081526000928352604080842090915290825290205481565b6104f1610ba336600461450f565b613224565b6013546104ca90600160301b900462ffffff1681565b6105ca60165481565b6104f16135e6565b6105ca60155481565b6104f1610be63660046144f4565b613654565b6104f1610bf9366004614477565b6136a0565b6104f1610c0c366004614477565b6136e8565b60105460115460125461092d92919060000b83565b60065461053e90600160a81b900460ff1681565b600654600160b01b900460ff16600114610c6f5760405162461bcd60e51b8152600401610c6690614620565b60405180910390fd5b600954829060ff1615610df8576000610c86612777565b5090506000610c9482613730565b9050600060175460165411610cb857601654601754610cb3919061465d565b610cc8565b601754601654610cc8919061465d565b905060006003601754601654610cde9190614674565b610ce891906146a2565b905080821015610cf6578091505b600954600090610100900462ffffff16620f4240610d1487866146b6565b610d1e91906146b6565b610d2891906146a2565b9050808413610d795760405162461bcd60e51b815260206004820152601760248201527f6e6574206d757374203e20757365644d617267696e2f520000000000000000006044820152606401610c66565b6000610d85828661465d565b600054909150610d958a876146b6565b610d9f91906146a2565b965080871115610df15760405162461bcd60e51b815260206004820152601860248201527f776974686472617720616d6f756e7420746f6f206d616e7900000000000000006044820152606401610c66565b5050505050505b8060156000828254610e0a91906146d5565b90915550610e1a90503384613779565b610e457f00000000000000000000000000000000000000000000000000000000000000008383613804565b60405183815233907fcc16f5dbb4873280815c1ee09dbd06736cffcc184412cf7a71a0fdb75d397ca5906020015b60405180910390a2505050565b6000610e8d33848461391f565b5060015b92915050565b6004546001600160a01b03163314610ec15760405162461bcd60e51b8152600401610c6690614714565b6013805462ffffff90921663010000000265ffffff00000019909216919091179055565b600654600160b01b900460ff16600114610f115760405162461bcd60e51b8152600401610c6690614620565b336000908152601a60209081526040808320815160c0810183528154815260018201549381019390935260028101549183019190915260038101546060830152600481015460808301526005015463ffffffff1660a082015290610f73612777565b50905060007f000000000000000000000000000000000000000000000000000000000000000060ff1683608001518460600151610fb091906146b6565b84604001518560200151610fc491906146b6565b610fce9190614674565b610fd891906146a2565b90506000828460600151610fec91906146b6565b8460400151856020015161100091906146b6565b61100a9190614674565b8460800151856060015161101e91906146b6565b84866020015161102e91906146b6565b6110389190614674565b85516110449190614737565b61104e91906146d5565b9050600061105c83836146d5565b9050600081136110ae5760405162461bcd60e51b815260206004820152601860248201527f63616e207769746864726177206973206e6567617469766500000000000000006044820152606401610c66565b85818113156110ba5750805b85516110c79082906146d5565b336000818152601a6020526040902091909155611106907f00000000000000000000000000000000000000000000000000000000000000009083613804565b60405181815233907f884edad9ce6fa2440d8a54cc123490eb96d2768479d49ff9c7366125a94243649060200160405180910390a250505050505050565b6004546001600160a01b0316331461116e5760405162461bcd60e51b8152600401610c6690614714565b60068054911515600160a81b0260ff60a81b19909216919091179055565b6111b87f0000000000000000000000000000000000000000000000000000000000000000333084613981565b336000908152601a6020526040812080548392906111d7908490614737565b909155505060405181815233907f78d9de6f3ad1cae9e0cbcbaa5267fd90f6a6728831eec42b7c147b398b2269249060200160405180910390a250565b6001600160a01b038316600090815260026020908152604080832033845290915281205460001914611279576001600160a01b03841660009081526002602090815260408083203384529091528120805484929061127390849061465d565b90915550505b611284848484613ab1565b5060019392505050565b6004546001600160a01b031633146112d45760405162461bcd60e51b8152602060048201526009602482015268333937b134b23232b760b91b6044820152606401610c66565b6013805461ffff909216600160581b0261ffff60581b19909216919091179055565b6004546001600160a01b031633146113205760405162461bcd60e51b8152600401610c6690614714565b6013805462ffffff191662ffffff92909216919091179055565b60085460011461135c5760405162461bcd60e51b8152600401610c6690614778565b6000600855600654600160b01b900460ff166001146113b35760405162461bcd60e51b8152602060048201526013602482015272706f6f6c206973206578706c6f736976696e6760681b6044820152606401610c66565b60006113bd612777565b50905060006113cb82613730565b9050600060175460165411611406576005836016546017546113ed919061465d565b6113f791906146b6565b61140191906146a2565b61142d565b600583601754601654611419919061465d565b61142391906146b6565b61142d91906146a2565b90508082131561147f5760405162461bcd60e51b815260206004820152601960248201527f706f6f6c2063616e6e2774206265206578706c6f7369766564000000000000006044820152606401610c66565b6006805460ff60b01b1916600160b11b179055600061149f6004836146a2565b9050808312156115535760006016546017546114bb91906146d5565b826019546017546114cc91906146b6565b6018546016546114dc91906146b6565b6015546114e991906146d5565b6114f39190614737565b6114fd91906146d5565b6115079190614798565b9050600081136115465760405162461bcd60e51b815260206004820152600a6024820152690657072696365203e20360b41b6044820152606401610c66565b600755601581905561155e565b601583905560078490555b50506000601981905560185550506001600855565b6004546001600160a01b0316331461159d5760405162461bcd60e51b8152600401610c6690614714565b600580546001600160a01b0319166001600160a01b0392909216919091179055565b6005546001600160a01b031633146115e95760405162461bcd60e51b8152600401610c6690614714565b60058054600480546001600160a01b03199081166001600160a01b03841617909155169055565b6008546001146116325760405162461bcd60e51b8152600401610c6690614778565b6000600855600654600160b01b900460ff166002146116885760405162461bcd60e51b81526020600482015260126024820152713837b7b629ba30ba329034b9903737ba101960711b6044820152606401610c66565b6001600160a01b0382166000908152601a60209081526040808320815160c0810183528154815260018201549381019390935260028101549183019190915260038101546060830152600481015460808301526005015463ffffffff1660a082015260075490916116f98383613b52565b6013546060850151919250600091620f424091600160581b900461ffff16906117239086906146b6565b85876020015161173391906146b6565b61173d9190614674565b61174791906146b6565b61175191906146a2565b60208501519091501561177a57836020015160176000828254611774919061465d565b90915550505b6060840151156117a05783606001516016600082825461179a919061465d565b90915550505b6016541580156117b05750601754155b156117c9576006805460ff60b01b1916600160b01b1790555b80821315611814576117db81836146d5565b6001600160a01b0387166000908152601a602052604081209190915560158054839290611809908490614737565b909155506118479050565b6001600160a01b0386166000908152601a6020526040812081905560158054849290611841908490614737565b90915550505b6001600160a01b0386166000908152601a602052604081206001810182905560028101829055600381018290556004018190556118a5600a7f00000000000000000000000000000000000000000000000000000000000000006146a2565b905080601560008282546118b991906146d5565b909155506118ea90507f00000000000000000000000000000000000000000000000000000000000000008783613804565b60208086015160608088015160408051938452938301529181018690526001600160a01b038916917ffca559ae7a3bea5c41671f27049d90b84fbf98be965e6d7f0259ee6e5caa980b910160405180910390a2505060016008555050505050565b60085460011461196d5760405162461bcd60e51b8152600401610c6690614778565b600060085580428110156119935760405162461bcd60e51b8152600401610c66906147c6565b600654600160b01b900460ff166001146119bf5760405162461bcd60e51b8152600401610c6690614620565b60095460ff16611a095760405162461bcd60e51b815260206004820152601560248201527418dbdb9d1c9858dd081a5cc81b9bdd081cdd185c9d605a1b6044820152606401610c66565b600654600160a81b900460ff16611a325760405162461bcd60e51b8152600401610c6690614714565b600080611a3d612777565b915091506000806000611a51600186613bcd565b9194509250905084620f4240611a69617530856146b6565b611a7391906146a2565b611a7d91906146a2565b881115611a9c5760405162461bcd60e51b8152600401610c66906147f5565b600954610100900460020b8312611ac55760405162461bcd60e51b8152600401610c669061482c565b6000611ad18685613c77565b611adb8388614674565b611ae59190614674565b90506000851215611b0657611af985614871565b611b039082614674565b90505b8981111580611b13575089155b611b5f5760405162461bcd60e51b815260206004820152601b60248201527f6f70656e206c6f6e6720707269636520697320746f6f206869676800000000006044820152606401610c66565b6000611b6b828b6146b6565b9050600080611b7a8984613d6f565b915091508b8160200151611b8e9190614674565b336000908152601a6020908152604090912060010191909155810151611bb5908d90614674565b8382604001518360200151611bca91906146b6565b611bd49190614674565b611bde91906146a2565b336000908152601a60205260409020600201558051611bfe9083906146d5565b336000908152601a6020526040902055601754611c1b8d82614674565b601755611c288d82614674565b8460195483611c3791906146b6565b611c419190614674565b611c4b91906146a2565b601955611c5783613fe5565b6040805160018152602081018f90529081018690523390600080516020614bb6833981519152906060015b60405180910390a250506001600855505050505050505050505050565b600854600114611cc15760405162461bcd60e51b8152600401610c6690614778565b60006008558042811015611ce75760405162461bcd60e51b8152600401610c66906147c6565b600654600160b01b900460ff16600114611d135760405162461bcd60e51b8152600401610c6690614620565b60095460ff16611d5d5760405162461bcd60e51b815260206004820152601560248201527418dbdb9d1c9858dd081a5cc81b9bdd081cdd185c9d605a1b6044820152606401610c66565b600654600160a81b900460ff16611d865760405162461bcd60e51b8152600401610c6690614714565b600080611d91612777565b915091506000806000611da660001986613bcd565b9194509250905084620f4240611dbe617530856146b6565b611dc891906146a2565b611dd291906146a2565b881115611df15760405162461bcd60e51b8152600401610c66906147f5565b600954610100900460020b8312611e1a5760405162461bcd60e51b8152600401610c669061482c565b6000611e268685613c77565b611e30838861465d565b611e3a919061465d565b90506000851315611e5257611e4f858261465d565b90505b89811015611ea25760405162461bcd60e51b815260206004820152601b60248201527f6f70656e2073686f727420707269636520697320746f6f206c6f7700000000006044820152606401610c66565b6000611eae828b6146b6565b9050600080611ebd8984613d6f565b915091508b8160600151611ed19190614674565b336000908152601a60205260409020600301556060810151611ef4908d90614674565b8382608001518360600151611f0991906146b6565b611f139190614674565b611f1d91906146a2565b336000908152601a60205260409020600401558051611f3d9083906146d5565b336000908152601a6020526040902055601654611f5a8d82614674565b601655611f678d82614674565b8460185483611f7691906146b6565b611f809190614674565b611f8a91906146a2565b601855611f9683613fe5565b604080516000198152602081018f90529081018690523390600080516020614bb683398151915290606001611c82565b600080611fd1612777565b509050600081601754611fe491906146b6565b601854601654611ff491906146b6565b611ffe9190614674565b60195460175461200e91906146b6565b8360165461201c91906146b6565b6120269190614674565b6015546120339190614737565b61203d91906146d5565b905060008113610e915760405162461bcd60e51b815260206004820152600660248201526506e65743c3d360d41b6044820152606401610c66565b60085460011461209a5760405162461bcd60e51b8152600401610c6690614778565b600060085580428110156120c05760405162461bcd60e51b8152600401610c66906147c6565b600654600160b01b900460ff166001146120ec5760405162461bcd60e51b8152600401610c6690614620565b6000806120f7612777565b91509150600080600061210b600186613bcd565b9194509250905084620f4240612124620186a0856146b6565b61212e91906146a2565b61213891906146a2565b8811156121575760405162461bcd60e51b8152600401610c66906147f5565b60006121638685613c77565b61216d8388614674565b6121779190614674565b905060008512156121985761218b85614871565b6121959082614674565b90505b89811115806121a5575089155b6121f15760405162461bcd60e51b815260206004820152601d60248201527f636c6f73652073686f727420707269636520697320746f6f20686967680000006044820152606401610c66565b336000908152601a6020908152604091829020825160c081018452815481526001820154928101929092526002810154928201929092526003820154606082018190526004830154608083015260059092015463ffffffff1660a0820152908a11156122ab5760405162461bcd60e51b815260206004820152602360248201527f636c6f736520616d6f756e742072657175697265203e3d2073686f7274416d6f6044820152621d5b9d60ea1b6064820152608401610c66565b601354600090620f424090600160581b900461ffff166122cb858e6146b6565b6122d591906146b6565b6122df91906146a2565b905060008383608001516122f391906146d5565b6122fd908d61488e565b90508b836060015161230f919061465d565b336000908152601a602052604090206003015582518290612331908390614737565b61233b91906146d5565b336000908152601a602052604090205560608301518c141561236b57336000908152601a60205260408120600401555b8b6016600082825461237d919061465d565b9091555061238d9050828261406f565b6040805160028152602081018e90529081018590523390600080516020614bb6833981519152906060015b60405180910390a2505060016008555050505050505050505050565b6004546001600160a01b031633146123fe5760405162461bcd60e51b8152600401610c6690614714565b6013805460ff909216600160481b0269ff00000000000000000019909216919091179055565b6008546001146124465760405162461bcd60e51b8152600401610c6690614778565b6000600855600654600160b01b900460ff166001146124775760405162461bcd60e51b8152600401610c6690614620565b6001600160a01b0382166000908152601a60209081526040808320815160c0810183528154815260018201549381019390935260028101549183019190915260038101546060830181905260048201546080840181905260059092015463ffffffff1660a0840152601354929392600160481b900460ff16916124f9916146b6565b8360400151846020015161250d91906146b6565b6125179190614674565b61252191906146a2565b9050600061252d612777565b509050600061253c8483613b52565b9050828113156125815760405162461bcd60e51b815260206004820152601060248201526f63616e6e2774206578706c6f7369766560801b6044820152606401610c66565b6020840151600090156125ca578460200151601760008282546125a4919061465d565b909155505060408501516125b890846146d5565b85602001516125c7919061488e565b90505b60608501511561261b578460600151601660008282546125ea919061465d565b909155505060808501516125ff9084906146d5565b856060015161260e919061488e565b6126189082614737565b90505b60608501516020860151600119911115612633575060025b6001600160a01b0388166000908152601a602052604081208181556001810182905560028101829055600381018290556004018190558313156126e3576126a57f0000000000000000000000000000000000000000000000000000000000000000886126a0600587614798565b613804565b8160056126b385600461488e565b6126bd9190614798565b6126c791906146d5565b601560008282546126d89190614737565b909155506127049050565b6126ed82846146d5565b601560008282546126fe9190614737565b90915550505b876001600160a01b03167f1cf7369c3767c976b447baaae4eed8217e2d190d1750c589e62bf5f7ecc4aaff82886060015189602001516127449190614674565b6040805160009390930b83526020830191909152810187905260600160405180910390a250506001600855505050505050565b6000806000806000601b60009054906101000a90046001600160a01b03166001600160a01b03166310bace8c6040518163ffffffff1660e01b8152600401606060405180830381865afa1580156127d2573d6000803e3d6000fd5b505050506040513d601f19601f820116820180604052508101906127f69190614913565b9250925092506000831161285d5760405162461bcd60e51b815260206004820152602860248201527f7468652070616972207374616e64617264207072696365206d75737420626520604482015267706f73697469766560c01b6064820152608401610c66565b60007f000000000000000000000000000000000000000000000000000000000000000060000b1261296757816128b47f0000000000000000000000000000000000000000000000000000000000000000600a614a25565b6128de7f0000000000000000000000000000000000000000000000000000000000000000866146b6565b6128e891906146b6565b6128f291906146a2565b8261291e7f0000000000000000000000000000000000000000000000000000000000000000600a614a25565b612948907f00000000000000000000000000000000000000000000000000000000000000006146b6565b612952908461488e565b61295c9190614798565b945094505050509091565b816129917f0000000000000000000000000000000000000000000000000000000000000000614a34565b61299c90600a614a25565b6129c67f0000000000000000000000000000000000000000000000000000000000000000866146b6565b6129d091906146a2565b6129da91906146a2565b82612a047f0000000000000000000000000000000000000000000000000000000000000000614a34565b612a0f90600a614a25565b612a397f00000000000000000000000000000000000000000000000000000000000000008561488e565b6129529190614798565b600854600114612a655760405162461bcd60e51b8152600401610c6690614778565b60006008558042811015612a8b5760405162461bcd60e51b8152600401610c66906147c6565b600654600160b01b900460ff16600114612ab75760405162461bcd60e51b8152600401610c6690614620565b600080612ac2612777565b915091506000806000612ad760001986613bcd565b9194509250905084620f4240612af0620186a0856146b6565b612afa91906146a2565b612b0491906146a2565b881115612b235760405162461bcd60e51b8152600401610c66906147f5565b6000612b2f8685613c77565b612b39838861465d565b612b43919061465d565b90506000851315612b5b57612b58858261465d565b90505b89811015612bab5760405162461bcd60e51b815260206004820152601b60248201527f636c6f7365206c6f6e6720707269636520697320746f6f206c6f7700000000006044820152606401610c66565b336000908152601a6020908152604091829020825160c08101845281548152600182015492810183905260028201549381019390935260038101546060840152600481015460808401526005015463ffffffff1660a08301528a1115612c5e5760405162461bcd60e51b815260206004820152602260248201527f636c6f736520616d6f756e742072657175697265203e3d206c6f6e67416d6f756044820152611b9d60f21b6064820152608401610c66565b601354600090620f424090600160581b900461ffff16612c7e858e6146b6565b612c8891906146b6565b612c9291906146a2565b90506000826040015184612ca691906146d5565b612cb0908d61488e565b90508b8360200151612cc2919061465d565b336000908152601a602052604090206001015582518290612ce4908390614737565b612cee91906146d5565b336000908152601a60209081526040909120919091558301518c1415612d2257336000908152601a60205260408120600201555b8b60176000828254612d34919061465d565b90915550612d449050828261406f565b604080516001198152602081018e90529081018590523390600080516020614bb6833981519152906060016123b8565b6000610e8d338484613ab1565b6004546001600160a01b03163314612dab5760405162461bcd60e51b8152600401610c6690614714565b6009805462ffffff9092166101000263ffffff0019909216919091179055565b6004546001600160a01b03163314612df55760405162461bcd60e51b8152600401610c6690614714565b6013805462ffffff909216600160301b0268ffffff00000000000019909216919091179055565b6004546001600160a01b03163314612e465760405162461bcd60e51b8152600401610c6690614714565b601b80546001600160a01b0319166001600160a01b0392909216919091179055565b600654600160b01b900460ff16600114612e945760405162461bcd60e51b8152600401610c6690614620565b600654600160a01b900460ff16612ebd5760405162461bcd60e51b8152600401610c6690614714565b612ee97f0000000000000000000000000000000000000000000000000000000000000000333085613981565b600954829060ff1615612f1f576000612f00611fc6565b90508084600054612f1191906146b6565b612f1b91906146a2565b9150505b8260156000828254612f319190614737565b90915550506015547f000000000000000000000000000000000000000000000000000000000000000013612f6d576009805460ff191660011790555b612f77828261410f565b60405181815233907f0f6798a560793a54c3bcfe86a93cde1e73087d944c0ea20544137d412139688590602001610e73565b6004546001600160a01b03163314612fd35760405162461bcd60e51b8152600401610c6690614714565b6009805462ffffff909216600160201b0266ffffff0000000019909216919091179055565b4284101561303a5760405162461bcd60e51b815260206004820152600f60248201526e12195919d95e0e8811561412549151608a1b6044820152606401610c66565b6001600160a01b038716600090815260036020526040812080547f0000000000000000000000000000000000000000000000000000000000000000917f6e71edae12b1b97f4d1f60370fef10105fa2faae0126114a169c64845d6126c9918b918b918b91876130a883614a54565b909155506040805160208101969096526001600160a01b0394851690860152929091166060840152608083015260a082015260c0810187905260e0016040516020818303038152906040528051906020012060405160200161312192919061190160f01b81526002810192909252602282015260420190565b60408051601f198184030181528282528051602091820120600080855291840180845281905260ff88169284019290925260608301869052608083018590529092509060019060a0016020604051602081039080840390855afa15801561318c573d6000803e3d6000fd5b5050604051601f1901519150506001600160a01b038116158015906131c25750886001600160a01b0316816001600160a01b0316145b61320e5760405162461bcd60e51b815260206004820152601960248201527f4865646765783a20494e56414c49445f5349474e4154555245000000000000006044820152606401610c66565b61321989898961391f565b505050505050505050565b6008546001146132465760405162461bcd60e51b8152600401610c6690614778565b6000600855600654600160b01b900460ff166001146132775760405162461bcd60e51b8152600401610c6690614620565b600061328662015180426146a2565b905061012c6132988262015180614a6f565b6132a89063ffffffff164261465d565b11156132e55760405162461bcd60e51b815260206004820152600c60248201526b74696d652064697361626c6560a01b6044820152606401610c66565b6001600160a01b0383166000908152601a60205260409020600581015463ffffffff908116908316116133535760405162461bcd60e51b81526020600482015260166024820152751a185cc81899595b881d185ad9481a5b9d195c995cdd60521b6044820152606401610c66565b80600301548160010154141561339e5760405162461bcd60e51b815260206004820152601060248201526f1b1bdb99c8195c5d585b081cda1bdc9d60821b6044820152606401610c66565b601754601654600383015460018481015460009283911115613458578385116133fc5760405162461bcd60e51b815260206004820152601060248201526f1a185d99481b9bc81a5b9d195c995cdd60821b6044820152606401610c66565b613404612777565b50905084620f4240613416868361465d565b60018901546103e89061342990866146b6565b61343391906146b6565b61343d91906146b6565b61344791906146a2565b61345191906146a2565b92506134f7565b84841161349a5760405162461bcd60e51b815260206004820152601060248201526f1a185d99481b9bc81a5b9d195c995cdd60821b6044820152606401610c66565b6134a2612777565b506000199250905083620f42406134b9878361465d565b60038901546103e8906134cc90866146b6565b6134d691906146b6565b6134e091906146b6565b6134ea91906146a2565b6134f491906146a2565b92505b6000620f424061350a620186a0866146b6565b61351491906146a2565b60058801805463ffffffff191663ffffffff8b161790558754909150849088906000906135429084906146d5565b9091555061355a9050613555828661465d565b613fe5565b6135857f00000000000000000000000000000000000000000000000000000000000000008a83613804565b60408051600085900b8152602081018690529081018390526001600160a01b038b16907f78213dfb97e98b601b3fee012a0f6bddbf4e63c293c77b5186137af1e7cf62ae9060600160405180910390a2505060016008555050505050505050565b6006546001600160a01b031633146136105760405162461bcd60e51b8152600401610c6690614714565b601480546000909155600654613651907f0000000000000000000000000000000000000000000000000000000000000000906001600160a01b031683613804565b50565b6004546001600160a01b0316331461367e5760405162461bcd60e51b8152600401610c6690614714565b600680546001600160a01b0319166001600160a01b0392909216919091179055565b6004546001600160a01b031633146136ca5760405162461bcd60e51b8152600401610c6690614714565b60068054911515600160a01b0260ff60a01b19909216919091179055565b6004546001600160a01b031633146137125760405162461bcd60e51b8152600401610c6690614714565b60138054911515600160501b0260ff60501b19909216919091179055565b6000808260175461374191906146b6565b60185460165461375191906146b6565b61375b9190614674565b60195460175461376b91906146b6565b8460165461201c91906146b6565b6001600160a01b038216600090815260016020526040812080548392906137a190849061465d565b92505081905550806000808282546137b9919061465d565b90915550506040518181526000906001600160a01b038416907fddf252ad1be2c89b69c2b068fc378daa952ba7f163c4a11628f55a4df523b3ef906020015b60405180910390a35050565b604080516001600160a01b038481166024830152604480830185905283518084039091018152606490920183526020820180516001600160e01b031663a9059cbb60e01b17905291516000928392908716916138609190614a9b565b6000604051808303816000865af19150503d806000811461389d576040519150601f19603f3d011682016040523d82523d6000602084013e6138a2565b606091505b50915091508180156138cc5750805115806138cc5750808060200190518101906138cc9190614ab7565b6139185760405162461bcd60e51b815260206004820152601f60248201527f5472616e7366657248656c7065723a205452414e534645525f4641494c4544006044820152606401610c66565b5050505050565b6001600160a01b0383811660008181526002602090815260408083209487168084529482529182902085905590518481527f8c5be1e5ebec7d5bd14f71427d1e84f3dd0314c0f7b2291e5b200ac8c7c3b92591015b60405180910390a3505050565b604080516001600160a01b0385811660248301528481166044830152606480830185905283518084039091018152608490920183526020820180516001600160e01b03166323b872dd60e01b17905291516000928392908816916139e59190614a9b565b6000604051808303816000865af19150503d8060008114613a22576040519150601f19603f3d011682016040523d82523d6000602084013e613a27565b606091505b5091509150818015613a51575080511580613a51575080806020019051810190613a519190614ab7565b613aa95760405162461bcd60e51b8152602060048201526024808201527f5472616e7366657248656c7065723a205452414e534645525f46524f4d5f46416044820152631253115160e21b6064820152608401610c66565b505050505050565b6001600160a01b03831660009081526001602052604081208054839290613ad990849061465d565b90915550506001600160a01b03821660009081526001602052604081208054839290613b06908490614674565b92505081905550816001600160a01b0316836001600160a01b03167fddf252ad1be2c89b69c2b068fc378daa952ba7f163c4a11628f55a4df523b3ef8360405161397491815260200190565b6000818360600151613b6491906146b6565b83604001518460200151613b7891906146b6565b613b829190614674565b83608001518460600151613b9691906146b6565b838560200151613ba691906146b6565b613bb09190614674565b8451613bbc9190614737565b613bc691906146d5565b9392505050565b600080600080613bdc85613730565b9050600081620f424060020b87601654601754613bf991906146d5565b8a60000b613c07919061488e565b613c11919061488e565b613c1b919061488e565b613c259190614798565b905060008760000b613c3683614190565b60000b1415613c6a57601354620f424090613c5d90600160301b900462ffffff16896146b6565b613c6791906146a2565b90505b9097919650945092505050565b6009546000908190600290613c9690600160201b9004820b6003614ad4565b613ca09190614b61565b60020b8312613d1557600954600590613cc490600160201b900460020b6003614ad4565b60020b846002613cd4919061488e565b613cde91906146d5565b613ce89190614798565b600954613d0190600a90600160201b900460020b614b61565b60020b613d0e9190614737565b9050613d4f565b600954600160201b900460020b8312613d4f57600954600590613d4290600160201b900460020b856146d5565b613d4c91906146a2565b90505b620f4240613d5d82866146b6565b613d6791906146a2565b949350505050565b6000613db06040518060c001604052806000815260200160008152602001600081526020016000815260200160008152602001600063ffffffff1681525090565b336000908152601a60209081526040808320815160c081018352815481526001820154938101939093526002810154918301919091526003810154606083018190526004820154608084015260059091015463ffffffff1660a0830152909190613e1b9087906146b6565b82604001518360200151613e2f91906146b6565b613e399190614674565b82608001518360600151613e4d91906146b6565b878460200151613e5d91906146b6565b613e679190614674565b8351613e739190614737565b613e7d91906146d5565b905060007f000000000000000000000000000000000000000000000000000000000000000060ff1683608001518460600151613eb991906146b6565b84604001518560200151613ecd91906146b6565b613ed79190614674565b613ee191906146a2565b90506000613f1260ff7f000000000000000000000000000000000000000000000000000000000000000016886146a2565b601354909150600090620f424090613f3590600160581b900461ffff168a6146b6565b613f3f91906146a2565b905060008482613f4f8587614674565b613f599190614674565b613f6391906146d5565b90506000811315613fd657613f778161118c565b336000908152601a6020908152604091829020825160c08101845281548152600182015492810192909252600281015492820192909252600382015460608201526004820154608082015260059091015463ffffffff1660a082015295505b50989397509295505050505050565b601354600160501b900460ff1615614055576000620f424061400a6203d090846146b6565b61401491906146a2565b905080601460008282546140289190614674565b90915550614038905081836146d5565b601560008282546140499190614737565b90915550613651915050565b80601560008282546140679190614737565b909155505050565b601354600160501b900460ff16156140ea576000620f42406140946203d090856146b6565b61409e91906146a2565b905080601460008282546140b29190614674565b909155508290506140c382856146d5565b6140cd91906146d5565b601560008282546140de9190614737565b9091555061410b915050565b6140f481836146d5565b601560008282546141059190614737565b90915550505b5050565b806000808282546141209190614674565b90915550506001600160a01b0382166000908152600160205260408120805483929061414d908490614674565b90915550506040518181526001600160a01b038316906000907fddf252ad1be2c89b69c2b068fc378daa952ba7f163c4a11628f55a4df523b3ef906020016137f8565b600b54600090431461429657600d8054601055600e8054601155600f80546012805460ff80841660ff1992831617909255600a8054909655600b8054909555600c80549283169382169390931790935543938490559386905592169091556141fa9060019061465d565b600e541461425257600d8054601055600e8054601155600f80546012805460ff80841660ff1992831617909255600a54909555600b54909355600c549092169290911691909117905561424e60014361465d565b600e555b61425d60024361465d565b6011541461429657600d54601055600e54601155600f546012805460ff191660ff90921691909117905561429260024361465d565b6011555b600a546000906142a690846146d5565b6010549091506000906142b990856146d5565b60135490915060020b8213806142da57506013546301000000900460020b81135b156142f7575050600c805460ff1916600190811790915592915050565b6013546143069060020b614b9b565b60020b82128061432d5750601354614327906301000000900460020b614b9b565b60020b81125b1561434a575050600c805460ff191660ff17905550600019919050565b5050600f5460000b92915050565b80356001600160a01b038116811461436f57600080fd5b919050565b6000806040838503121561438757600080fd5b8235915061439760208401614358565b90509250929050565b60005b838110156143bb5781810151838201526020016143a3565b838111156143ca576000848401525b50505050565b60208152600082518060208401526143ef8160408501602087016143a0565b601f01601f19169190910160400192915050565b6000806040838503121561441657600080fd5b61441f83614358565b946020939093013593505050565b60006020828403121561443f57600080fd5b81358060020b8114613bc657600080fd5b60006020828403121561446257600080fd5b5035919050565b801515811461365157600080fd5b60006020828403121561448957600080fd5b8135613bc681614469565b6000806000606084860312156144a957600080fd5b6144b284614358565b92506144c060208501614358565b9150604084013590509250925092565b6000602082840312156144e257600080fd5b813561ffff81168114613bc657600080fd5b60006020828403121561450657600080fd5b613bc682614358565b6000806040838503121561452257600080fd5b61452b83614358565b915061439760208401614358565b60008060006060848603121561454e57600080fd5b505081359360208301359350604090920135919050565b803560ff8116811461436f57600080fd5b60006020828403121561458857600080fd5b613bc682614565565b6000602082840312156145a357600080fd5b813562ffffff81168114613bc657600080fd5b600080600080600080600060e0888a0312156145d157600080fd5b6145da88614358565b96506145e860208901614358565b9550604088013594506060880135935061460460808901614565565b925060a0880135915060c0880135905092959891949750929550565b6020808252600d908201526c73746174652069736e2774203160981b604082015260600190565b634e487b7160e01b600052601160045260246000fd5b60008282101561466f5761466f614647565b500390565b6000821982111561468757614687614647565b500190565b634e487b7160e01b600052601260045260246000fd5b6000826146b1576146b161468c565b500490565b60008160001904831182151516156146d0576146d0614647565b500290565b60008083128015600160ff1b8501841216156146f3576146f3614647565b6001600160ff1b038401831381161561470e5761470e614647565b50500390565b6020808252600990820152683337b93134b23232b760b91b604082015260600190565b600080821280156001600160ff1b038490038513161561475957614759614647565b600160ff1b839003841281161561477257614772614647565b50500190565b6020808252600690820152651b1bd8dad95960d21b604082015260600190565b6000826147a7576147a761468c565b600160ff1b8214600019841416156147c1576147c1614647565b500590565b60208082526015908201527412195919d95e08151c9859194e8811561412549151605a1b604082015260600190565b6020808252601d908201527f73696e676c6520616d6f756e74206f766572206e6574202a2072617465000000604082015260600190565b60208082526025908201527f706f6f6c206e657420616d6f756e74206d75737420736d616c6c207468616e20604082015264706172616d60d81b606082015260800190565b6000600160ff1b82141561488757614887614647565b5060000390565b60006001600160ff1b03818413828413808216868404861116156148b4576148b4614647565b600160ff1b60008712828116878305891216156148d3576148d3614647565b600087129250878205871284841616156148ef576148ef614647565b8785058712818416161561490557614905614647565b505050929093029392505050565b60008060006060848603121561492857600080fd5b8351925060208401519150604084015190509250925092565b600181815b8085111561497c57816000190482111561496257614962614647565b8085161561496f57918102915b93841c9390800290614946565b509250929050565b60008261499357506001610e91565b816149a057506000610e91565b81600181146149b657600281146149c0576149dc565b6001915050610e91565b60ff8411156149d1576149d1614647565b50506001821b610e91565b5060208310610133831016604e8410600b84101617156149ff575081810a610e91565b614a098383614941565b8060001904821115614a1d57614a1d614647565b029392505050565b6000613bc660ff841683614984565b600081810b607f19811415614a4b57614a4b614647565b60000392915050565b6000600019821415614a6857614a68614647565b5060010190565b600063ffffffff80831681851681830481118215151615614a9257614a92614647565b02949350505050565b60008251614aad8184602087016143a0565b9190910192915050565b600060208284031215614ac957600080fd5b8151613bc681614469565b60008160020b8360020b627fffff600082136000841383830485118282161615614b0057614b00614647565b627fffff196000851282811687830587121615614b1f57614b1f614647565b60008712925085820587128484161615614b3b57614b3b614647565b85850587128184161615614b5157614b51614647565b5050509290910295945050505050565b60008160020b8360020b80614b7857614b7861468c565b627fffff19821460001982141615614b9257614b92614647565b90059392505050565b60008160020b627fffff19811415614a4b57614a4b61464756fe303db7636b0e071f088d2cd5e8463efe513531272d61a18739b21053f6d7b430a26469706673582212204393da58f23a4b54b8f2a816c3620349a089fdc0dd2a00185f7322451c2e6a8564736f6c634300080c0033",
    "sourcePath": "d:/contract/hedgex/Single.sol",
    "compiler": {
        "name": "solc",
        "version": "0.8.12+commit.f00d7308"
    },
    "functionHashes": {
        "DOMAIN_SEPARATOR()": "3644e515",
        "PERMIT_TYPEHASH()": "30adf81f",
        "R0()": "8d73d86a",
        "R1()": "b22dd2ca",
        "R2()": "fee2cb05",
        "acceptSetter()": "5f8e422f",
        "addLiquidity(uint256,address)": "c95f9d0e",
        "allowance(address,address)": "dd62ed3e",
        "amountDecimal()": "2be90282",
        "approve(address,uint256)": "095ea7b3",
        "balanceOf(address)": "70a08231",
        "canAddLiquidity()": "8b0af0fa",
        "canOpen()": "ffaeb582",
        "closeLong(uint256,uint256,uint256)": "90edbeb0",
        "closeShort(uint256,uint256,uint256)": "807ca353",
        "dailyInterestRateBase()": "8967b694",
        "decimals()": "313ce567",
        "deltaR0Limit()": "5dd535ad",
        "deltaR2Limit()": "d421fefc",
        "deltaRSlidePriceRate()": "de87861f",
        "detectSlide(address,address)": "ddcb04c2",
        "divConst()": "7e4856c4",
        "explosive(address,address)": "89d408ff",
        "explosivePool()": "3e31fb45",
        "feeDivide()": "d375454f",
        "feeOn()": "4f335d0a",
        "feeRate()": "978bbdb9",
        "feeTo()": "017e7e58",
        "feedPrice()": "a04eecae",
        "forceCloseAccount(address,address)": "6422e08f",
        "getLatestPrice()": "8e15f473",
        "getPoolNet()": "7bb71a97",
        "getPoolPosition()": "73e6054b",
        "interestRewardRate()": "01bcc908",
        "isStart()": "8a55d36e",
        "keepMarginScale()": "303c0a3b",
        "leverage()": "2c86d98e",
        "minPool()": "2678b8fd",
        "name()": "06fdde03",
        "nonces(address)": "7ecebe00",
        "openLong(uint256,uint256,uint256)": "6c2ee359",
        "openShort(uint256,uint256,uint256)": "71b31707",
        "owner()": "8da5cb5b",
        "permit(address,address,uint256,uint256,uint8,bytes32,bytes32)": "d505accf",
        "poolExplosivePrice()": "33d6f1f7",
        "poolLeftAmountRate()": "ce8ad1d2",
        "poolLongAmount()": "e5984319",
        "poolLongPrice()": "994af3ae",
        "poolNetAmountRateLimitOpen()": "cd8bb6cd",
        "poolNetAmountRateLimitPrice()": "1cce9103",
        "poolShortAmount()": "8e406892",
        "poolShortPrice()": "971059fb",
        "poolState()": "641ad8a9",
        "rechargeMargin(uint256)": "11ce83f8",
        "removeLiquidity(uint256,address)": "05fe138b",
        "setCanAddLiquidity(bool)": "fa507445",
        "setCanOpen(bool)": "0def3ead",
        "setDeltaR0Limit(int24)": "3acb7bb2",
        "setDeltaR2Limit(int24)": "0b399758",
        "setDeltaRSlidePriceRate(uint24)": "c26c9aff",
        "setFeeOn(bool)": "fc4064b3",
        "setFeeRate(uint16)": "29ff0773",
        "setFeeTo(address)": "f46901ed",
        "setFeedPrice(address)": "c669c32c",
        "setKeepMarginScale(uint8)": "8632d4ab",
        "setPoolNetAmountRateLimitOpen(int24)": "bedc409b",
        "setPoolNetAmountRateLimitPrice(int24)": "d1ad24be",
        "singleCloseLimitRate()": "7aaae950",
        "singleOpenLimitRate()": "5d0291ac",
        "sumFee()": "190b065f",
        "symbol()": "95d89b41",
        "token0()": "0dfe1681",
        "token0Decimal()": "9ddc230a",
        "totalPool()": "ecfb49a3",
        "totalSupply()": "18160ddd",
        "traders(address)": "92a88fa2",
        "transfer(address,uint256)": "a9059cbb",
        "transferFrom(address,address,uint256)": "23b872dd",
        "transferOwner(address)": "4fb2e45d",
        "withdrawFee()": "e941fa78",
        "withdrawMargin(uint256)": "0cea7534"
    },
    "gasEstimates": {
        "creation": {
            "codeDepositCost": "3893400",
            "executionCost": "infinite",
            "totalCost": "infinite"
        },
        "external": {
            "DOMAIN_SEPARATOR()": "infinite",
            "PERMIT_TYPEHASH()": "351",
            "R0()": "6658",
            "R1()": "6723",
            "R2()": "6722",
            "acceptSetter()": "50915",
            "addLiquidity(uint256,address)": "infinite",
            "allowance(address,address)": "infinite",
            "amountDecimal()": "infinite",
            "approve(address,uint256)": "24686",
            "balanceOf(address)": "2653",
            "canAddLiquidity()": "2395",
            "canOpen()": "2503",
            "closeLong(uint256,uint256,uint256)": "infinite",
            "closeShort(uint256,uint256,uint256)": "infinite",
            "dailyInterestRateBase()": "317",
            "decimals()": "infinite",
            "deltaR0Limit()": "2454",
            "deltaR2Limit()": "2464",
            "deltaRSlidePriceRate()": "2441",
            "detectSlide(address,address)": "infinite",
            "divConst()": "337",
            "explosive(address,address)": "infinite",
            "explosivePool()": "infinite",
            "feeDivide()": "315",
            "feeOn()": "2395",
            "feeRate()": "2486",
            "feeTo()": "2396",
            "feedPrice()": "2437",
            "forceCloseAccount(address,address)": "infinite",
            "getLatestPrice()": "infinite",
            "getPoolNet()": "infinite",
            "getPoolPosition()": "12981",
            "interestRewardRate()": "296",
            "isStart()": "2467",
            "keepMarginScale()": "2464",
            "leverage()": "infinite",
            "minPool()": "infinite",
            "name()": "infinite",
            "nonces(address)": "2674",
            "openLong(uint256,uint256,uint256)": "infinite",
            "openShort(uint256,uint256,uint256)": "infinite",
            "owner()": "2438",
            "permit(address,address,uint256,uint256,uint8,bytes32,bytes32)": "infinite",
            "poolExplosivePrice()": "2386",
            "poolLeftAmountRate()": "271",
            "poolLongAmount()": "2428",
            "poolLongPrice()": "2362",
            "poolNetAmountRateLimitOpen()": "2487",
            "poolNetAmountRateLimitPrice()": "2450",
            "poolShortAmount()": "2451",
            "poolShortPrice()": "2429",
            "poolState()": "2398",
            "rechargeMargin(uint256)": "infinite",
            "removeLiquidity(uint256,address)": "infinite",
            "setCanAddLiquidity(bool)": "26799",
            "setCanOpen(bool)": "26802",
            "setDeltaR0Limit(int24)": "26777",
            "setDeltaR2Limit(int24)": "26722",
            "setDeltaRSlidePriceRate(uint24)": "26747",
            "setFeeOn(bool)": "26821",
            "setFeeRate(uint16)": "26731",
            "setFeeTo(address)": "26799",
            "setFeedPrice(address)": "26823",
            "setKeepMarginScale(uint8)": "26783",
            "setPoolNetAmountRateLimitOpen(int24)": "26721",
            "setPoolNetAmountRateLimitPrice(int24)": "26748",
            "singleCloseLimitRate()": "293",
            "singleOpenLimitRate()": "316",
            "sumFee()": "2386",
            "symbol()": "infinite",
            "token0()": "infinite",
            "token0Decimal()": "infinite",
            "totalPool()": "2361",
            "totalSupply()": "2364",
            "traders(address)": "13292",
            "transfer(address,uint256)": "51206",
            "transferFrom(address,address,uint256)": "infinite",
            "transferOwner(address)": "26801",
            "withdrawFee()": "infinite",
            "withdrawMargin(uint256)": "infinite"
        },
        "internal": {
            "feeCharge(uint256)": "51157",
            "feeCharge(uint256,int256)": "infinite",
            "getAccountNet(struct HedgexSingle.Trader memory)": "infinite",
            "getAccountNet(struct HedgexSingle.Trader memory,uint256)": "infinite",
            "getDeltaPriceByR(int256)": "infinite",
            "getPoolNet(uint256)": "infinite",
            "judegOpen(uint256,uint256)": "infinite",
            "poolLimitTrade(int8,uint256)": "infinite",
            "slideTradePrice(uint256,int256)": "infinite"
        }
    }
}