{
    "contractName": "HedgexSingle",
    "abi": [
        {
            "inputs": [
                {
                    "internalType": "address",
                    "name": "_token0",
                    "type": "address"
                },
                {
                    "internalType": "address",
                    "name": "_feedPrice",
                    "type": "address"
                },
                {
                    "internalType": "uint256",
                    "name": "_minStartPool",
                    "type": "uint256"
                },
                {
                    "internalType": "uint8",
                    "name": "_leverage",
                    "type": "uint8"
                },
                {
                    "internalType": "int8",
                    "name": "_amountDecimal",
                    "type": "int8"
                },
                {
                    "internalType": "uint8",
                    "name": "_keepMarginScale",
                    "type": "uint8"
                },
                {
                    "internalType": "int24",
                    "name": "_ROpen",
                    "type": "int24"
                },
                {
                    "internalType": "int24",
                    "name": "_RPrice",
                    "type": "int24"
                }
            ],
            "stateMutability": "nonpayable",
            "type": "constructor"
        },
        {
            "anonymous": false,
            "inputs": [
                {
                    "indexed": true,
                    "internalType": "address",
                    "name": "owner",
                    "type": "address"
                },
                {
                    "indexed": true,
                    "internalType": "address",
                    "name": "spender",
                    "type": "address"
                },
                {
                    "indexed": false,
                    "internalType": "uint256",
                    "name": "value",
                    "type": "uint256"
                }
            ],
            "name": "Approval",
            "type": "event"
        },
        {
            "anonymous": false,
            "inputs": [
                {
                    "indexed": true,
                    "internalType": "address",
                    "name": "sender",
                    "type": "address"
                },
                {
                    "indexed": false,
                    "internalType": "uint256",
                    "name": "amount",
                    "type": "uint256"
                }
            ],
            "name": "Burn",
            "type": "event"
        },
        {
            "anonymous": false,
            "inputs": [
                {
                    "indexed": true,
                    "internalType": "address",
                    "name": "user",
                    "type": "address"
                },
                {
                    "indexed": false,
                    "internalType": "int8",
                    "name": "direction",
                    "type": "int8"
                },
                {
                    "indexed": false,
                    "internalType": "uint256",
                    "name": "amount",
                    "type": "uint256"
                },
                {
                    "indexed": false,
                    "internalType": "uint256",
                    "name": "price",
                    "type": "uint256"
                }
            ],
            "name": "Explosive",
            "type": "event"
        },
        {
            "anonymous": false,
            "inputs": [
                {
                    "indexed": false,
                    "internalType": "int256",
                    "name": "total",
                    "type": "int256"
                },
                {
                    "indexed": false,
                    "internalType": "uint256",
                    "name": "la",
                    "type": "uint256"
                },
                {
                    "indexed": false,
                    "internalType": "uint256",
                    "name": "lp",
                    "type": "uint256"
                },
                {
                    "indexed": false,
                    "internalType": "uint256",
                    "name": "sa",
                    "type": "uint256"
                },
                {
                    "indexed": false,
                    "internalType": "uint256",
                    "name": "sp",
                    "type": "uint256"
                },
                {
                    "indexed": false,
                    "internalType": "uint256",
                    "name": "ep",
                    "type": "uint256"
                }
            ],
            "name": "ExplosivePool",
            "type": "event"
        },
        {
            "anonymous": false,
            "inputs": [
                {
                    "indexed": true,
                    "internalType": "address",
                    "name": "account",
                    "type": "address"
                },
                {
                    "indexed": false,
                    "internalType": "uint256",
                    "name": "long",
                    "type": "uint256"
                },
                {
                    "indexed": false,
                    "internalType": "uint256",
                    "name": "short",
                    "type": "uint256"
                },
                {
                    "indexed": false,
                    "internalType": "uint256",
                    "name": "price",
                    "type": "uint256"
                }
            ],
            "name": "ForceClose",
            "type": "event"
        },
        {
            "anonymous": false,
            "inputs": [
                {
                    "indexed": true,
                    "internalType": "address",
                    "name": "sender",
                    "type": "address"
                },
                {
                    "indexed": false,
                    "internalType": "uint256",
                    "name": "amount",
                    "type": "uint256"
                }
            ],
            "name": "Mint",
            "type": "event"
        },
        {
            "anonymous": false,
            "inputs": [
                {
                    "indexed": true,
                    "internalType": "address",
                    "name": "sender",
                    "type": "address"
                },
                {
                    "indexed": false,
                    "internalType": "uint256",
                    "name": "amount",
                    "type": "uint256"
                }
            ],
            "name": "Recharge",
            "type": "event"
        },
        {
            "anonymous": false,
            "inputs": [
                {
                    "indexed": true,
                    "internalType": "address",
                    "name": "user",
                    "type": "address"
                },
                {
                    "indexed": false,
                    "internalType": "int8",
                    "name": "direction",
                    "type": "int8"
                },
                {
                    "indexed": false,
                    "internalType": "uint256",
                    "name": "amount",
                    "type": "uint256"
                },
                {
                    "indexed": false,
                    "internalType": "uint256",
                    "name": "price",
                    "type": "uint256"
                }
            ],
            "name": "TakeInterest",
            "type": "event"
        },
        {
            "anonymous": false,
            "inputs": [
                {
                    "indexed": true,
                    "internalType": "address",
                    "name": "sender",
                    "type": "address"
                },
                {
                    "indexed": false,
                    "internalType": "int8",
                    "name": "direction",
                    "type": "int8"
                },
                {
                    "indexed": false,
                    "internalType": "uint256",
                    "name": "amount",
                    "type": "uint256"
                },
                {
                    "indexed": false,
                    "internalType": "uint256",
                    "name": "price",
                    "type": "uint256"
                }
            ],
            "name": "Trade",
            "type": "event"
        },
        {
            "anonymous": false,
            "inputs": [
                {
                    "indexed": true,
                    "internalType": "address",
                    "name": "from",
                    "type": "address"
                },
                {
                    "indexed": true,
                    "internalType": "address",
                    "name": "to",
                    "type": "address"
                },
                {
                    "indexed": false,
                    "internalType": "uint256",
                    "name": "value",
                    "type": "uint256"
                }
            ],
            "name": "Transfer",
            "type": "event"
        },
        {
            "anonymous": false,
            "inputs": [
                {
                    "indexed": true,
                    "internalType": "address",
                    "name": "sender",
                    "type": "address"
                },
                {
                    "indexed": false,
                    "internalType": "uint256",
                    "name": "amount",
                    "type": "uint256"
                }
            ],
            "name": "Withdraw",
            "type": "event"
        },
        {
            "inputs": [],
            "name": "DOMAIN_SEPARATOR",
            "outputs": [
                {
                    "internalType": "bytes32",
                    "name": "",
                    "type": "bytes32"
                }
            ],
            "stateMutability": "view",
            "type": "function"
        },
        {
            "inputs": [],
            "name": "PERMIT_TYPEHASH",
            "outputs": [
                {
                    "internalType": "bytes32",
                    "name": "",
                    "type": "bytes32"
                }
            ],
            "stateMutability": "view",
            "type": "function"
        },
        {
            "inputs": [],
            "name": "R0",
            "outputs": [
                {
                    "internalType": "int256",
                    "name": "initR",
                    "type": "int256"
                },
                {
                    "internalType": "uint256",
                    "name": "number",
                    "type": "uint256"
                },
                {
                    "internalType": "int8",
                    "name": "deltaR",
                    "type": "int8"
                }
            ],
            "stateMutability": "view",
            "type": "function"
        },
        {
            "inputs": [],
            "name": "R1",
            "outputs": [
                {
                    "internalType": "int256",
                    "name": "initR",
                    "type": "int256"
                },
                {
                    "internalType": "uint256",
                    "name": "number",
                    "type": "uint256"
                },
                {
                    "internalType": "int8",
                    "name": "deltaR",
                    "type": "int8"
                }
            ],
            "stateMutability": "view",
            "type": "function"
        },
        {
            "inputs": [],
            "name": "R2",
            "outputs": [
                {
                    "internalType": "int256",
                    "name": "initR",
                    "type": "int256"
                },
                {
                    "internalType": "uint256",
                    "name": "number",
                    "type": "uint256"
                },
                {
                    "internalType": "int8",
                    "name": "deltaR",
                    "type": "int8"
                }
            ],
            "stateMutability": "view",
            "type": "function"
        },
        {
            "inputs": [],
            "name": "acceptSetter",
            "outputs": [],
            "stateMutability": "nonpayable",
            "type": "function"
        },
        {
            "inputs": [
                {
                    "internalType": "uint256",
                    "name": "amount",
                    "type": "uint256"
                },
                {
                    "internalType": "address",
                    "name": "to",
                    "type": "address"
                }
            ],
            "name": "addLiquidity",
            "outputs": [],
            "stateMutability": "nonpayable",
            "type": "function"
        },
        {
            "inputs": [
                {
                    "internalType": "address",
                    "name": "",
                    "type": "address"
                },
                {
                    "internalType": "address",
                    "name": "",
                    "type": "address"
                }
            ],
            "name": "allowance",
            "outputs": [
                {
                    "internalType": "uint256",
                    "name": "",
                    "type": "uint256"
                }
            ],
            "stateMutability": "view",
            "type": "function"
        },
        {
            "inputs": [],
            "name": "amountDecimal",
            "outputs": [
                {
                    "internalType": "int8",
                    "name": "",
                    "type": "int8"
                }
            ],
            "stateMutability": "view",
            "type": "function"
        },
        {
            "inputs": [
                {
                    "internalType": "address",
                    "name": "spender",
                    "type": "address"
                },
                {
                    "internalType": "uint256",
                    "name": "value",
                    "type": "uint256"
                }
            ],
            "name": "approve",
            "outputs": [
                {
                    "internalType": "bool",
                    "name": "",
                    "type": "bool"
                }
            ],
            "stateMutability": "nonpayable",
            "type": "function"
        },
        {
            "inputs": [
                {
                    "internalType": "address",
                    "name": "",
                    "type": "address"
                }
            ],
            "name": "balanceOf",
            "outputs": [
                {
                    "internalType": "uint256",
                    "name": "",
                    "type": "uint256"
                }
            ],
            "stateMutability": "view",
            "type": "function"
        },
        {
            "inputs": [],
            "name": "canAddLiquidity",
            "outputs": [
                {
                    "internalType": "bool",
                    "name": "",
                    "type": "bool"
                }
            ],
            "stateMutability": "view",
            "type": "function"
        },
        {
            "inputs": [],
            "name": "canOpen",
            "outputs": [
                {
                    "internalType": "bool",
                    "name": "",
                    "type": "bool"
                }
            ],
            "stateMutability": "view",
            "type": "function"
        },
        {
            "inputs": [
                {
                    "internalType": "uint256",
                    "name": "priceExp",
                    "type": "uint256"
                },
                {
                    "internalType": "uint256",
                    "name": "amount",
                    "type": "uint256"
                },
                {
                    "internalType": "uint256",
                    "name": "deadline",
                    "type": "uint256"
                }
            ],
            "name": "closeLong",
            "outputs": [],
            "stateMutability": "nonpayable",
            "type": "function"
        },
        {
            "inputs": [
                {
                    "internalType": "uint256",
                    "name": "priceExp",
                    "type": "uint256"
                },
                {
                    "internalType": "uint256",
                    "name": "amount",
                    "type": "uint256"
                },
                {
                    "internalType": "uint256",
                    "name": "deadline",
                    "type": "uint256"
                }
            ],
            "name": "closeShort",
            "outputs": [],
            "stateMutability": "nonpayable",
            "type": "function"
        },
        {
            "inputs": [],
            "name": "dailyInterestRateBase",
            "outputs": [
                {
                    "internalType": "uint16",
                    "name": "",
                    "type": "uint16"
                }
            ],
            "stateMutability": "view",
            "type": "function"
        },
        {
            "inputs": [],
            "name": "decimals",
            "outputs": [
                {
                    "internalType": "uint8",
                    "name": "",
                    "type": "uint8"
                }
            ],
            "stateMutability": "view",
            "type": "function"
        },
        {
            "inputs": [],
            "name": "deltaR0Limit",
            "outputs": [
                {
                    "internalType": "int24",
                    "name": "",
                    "type": "int24"
                }
            ],
            "stateMutability": "view",
            "type": "function"
        },
        {
            "inputs": [],
            "name": "deltaR2Limit",
            "outputs": [
                {
                    "internalType": "int24",
                    "name": "",
                    "type": "int24"
                }
            ],
            "stateMutability": "view",
            "type": "function"
        },
        {
            "inputs": [],
            "name": "deltaRSlidePriceRate",
            "outputs": [
                {
                    "internalType": "uint24",
                    "name": "",
                    "type": "uint24"
                }
            ],
            "stateMutability": "view",
            "type": "function"
        },
        {
            "inputs": [
                {
                    "internalType": "address",
                    "name": "account",
                    "type": "address"
                },
                {
                    "internalType": "address",
                    "name": "to",
                    "type": "address"
                }
            ],
            "name": "detectSlide",
            "outputs": [],
            "stateMutability": "nonpayable",
            "type": "function"
        },
        {
            "inputs": [],
            "name": "divConst",
            "outputs": [
                {
                    "internalType": "uint24",
                    "name": "",
                    "type": "uint24"
                }
            ],
            "stateMutability": "view",
            "type": "function"
        },
        {
            "inputs": [
                {
                    "internalType": "address",
                    "name": "account",
                    "type": "address"
                },
                {
                    "internalType": "address",
                    "name": "to",
                    "type": "address"
                }
            ],
            "name": "explosive",
            "outputs": [],
            "stateMutability": "nonpayable",
            "type": "function"
        },
        {
            "inputs": [],
            "name": "explosivePool",
            "outputs": [],
            "stateMutability": "nonpayable",
            "type": "function"
        },
        {
            "inputs": [],
            "name": "feeDivide",
            "outputs": [
                {
                    "internalType": "uint24",
                    "name": "",
                    "type": "uint24"
                }
            ],
            "stateMutability": "view",
            "type": "function"
        },
        {
            "inputs": [],
            "name": "feeOn",
            "outputs": [
                {
                    "internalType": "bool",
                    "name": "",
                    "type": "bool"
                }
            ],
            "stateMutability": "view",
            "type": "function"
        },
        {
            "inputs": [],
            "name": "feeRate",
            "outputs": [
                {
                    "internalType": "uint16",
                    "name": "",
                    "type": "uint16"
                }
            ],
            "stateMutability": "view",
            "type": "function"
        },
        {
            "inputs": [],
            "name": "feeTo",
            "outputs": [
                {
                    "internalType": "address",
                    "name": "",
                    "type": "address"
                }
            ],
            "stateMutability": "view",
            "type": "function"
        },
        {
            "inputs": [],
            "name": "feedPrice",
            "outputs": [
                {
                    "internalType": "contract IIndexPrice",
                    "name": "",
                    "type": "address"
                }
            ],
            "stateMutability": "view",
            "type": "function"
        },
        {
            "inputs": [
                {
                    "internalType": "address",
                    "name": "account",
                    "type": "address"
                },
                {
                    "internalType": "address",
                    "name": "to",
                    "type": "address"
                }
            ],
            "name": "forceCloseAccount",
            "outputs": [],
            "stateMutability": "nonpayable",
            "type": "function"
        },
        {
            "inputs": [],
            "name": "getLatestPrice",
            "outputs": [
                {
                    "internalType": "uint256",
                    "name": "",
                    "type": "uint256"
                },
                {
                    "internalType": "uint256",
                    "name": "",
                    "type": "uint256"
                },
                {
                    "internalType": "uint256",
                    "name": "",
                    "type": "uint256"
                }
            ],
            "stateMutability": "view",
            "type": "function"
        },
        {
            "inputs": [],
            "name": "getPoolNet",
            "outputs": [
                {
                    "internalType": "int256",
                    "name": "",
                    "type": "int256"
                }
            ],
            "stateMutability": "view",
            "type": "function"
        },
        {
            "inputs": [],
            "name": "getPoolPosition",
            "outputs": [
                {
                    "internalType": "int256",
                    "name": "",
                    "type": "int256"
                },
                {
                    "internalType": "uint256",
                    "name": "",
                    "type": "uint256"
                },
                {
                    "internalType": "uint256",
                    "name": "",
                    "type": "uint256"
                },
                {
                    "internalType": "uint256",
                    "name": "",
                    "type": "uint256"
                },
                {
                    "internalType": "uint256",
                    "name": "",
                    "type": "uint256"
                },
                {
                    "internalType": "uint8",
                    "name": "",
                    "type": "uint8"
                }
            ],
            "stateMutability": "view",
            "type": "function"
        },
        {
            "inputs": [],
            "name": "interestRewardRate",
            "outputs": [
                {
                    "internalType": "uint24",
                    "name": "",
                    "type": "uint24"
                }
            ],
            "stateMutability": "view",
            "type": "function"
        },
        {
            "inputs": [],
            "name": "isStart",
            "outputs": [
                {
                    "internalType": "bool",
                    "name": "",
                    "type": "bool"
                }
            ],
            "stateMutability": "view",
            "type": "function"
        },
        {
            "inputs": [],
            "name": "keepMarginScale",
            "outputs": [
                {
                    "internalType": "uint8",
                    "name": "",
                    "type": "uint8"
                }
            ],
            "stateMutability": "view",
            "type": "function"
        },
        {
            "inputs": [],
            "name": "leverage",
            "outputs": [
                {
                    "internalType": "uint8",
                    "name": "",
                    "type": "uint8"
                }
            ],
            "stateMutability": "view",
            "type": "function"
        },
        {
            "inputs": [],
            "name": "minPool",
            "outputs": [
                {
                    "internalType": "uint256",
                    "name": "",
                    "type": "uint256"
                }
            ],
            "stateMutability": "view",
            "type": "function"
        },
        {
            "inputs": [],
            "name": "name",
            "outputs": [
                {
                    "internalType": "string",
                    "name": "",
                    "type": "string"
                }
            ],
            "stateMutability": "view",
            "type": "function"
        },
        {
            "inputs": [
                {
                    "internalType": "address",
                    "name": "",
                    "type": "address"
                }
            ],
            "name": "nonces",
            "outputs": [
                {
                    "internalType": "uint256",
                    "name": "",
                    "type": "uint256"
                }
            ],
            "stateMutability": "view",
            "type": "function"
        },
        {
            "inputs": [
                {
                    "internalType": "uint256",
                    "name": "priceExp",
                    "type": "uint256"
                },
                {
                    "internalType": "uint256",
                    "name": "amount",
                    "type": "uint256"
                },
                {
                    "internalType": "uint256",
                    "name": "deadline",
                    "type": "uint256"
                }
            ],
            "name": "openLong",
            "outputs": [],
            "stateMutability": "nonpayable",
            "type": "function"
        },
        {
            "inputs": [
                {
                    "internalType": "uint256",
                    "name": "priceExp",
                    "type": "uint256"
                },
                {
                    "internalType": "uint256",
                    "name": "amount",
                    "type": "uint256"
                },
                {
                    "internalType": "uint256",
                    "name": "deadline",
                    "type": "uint256"
                }
            ],
            "name": "openShort",
            "outputs": [],
            "stateMutability": "nonpayable",
            "type": "function"
        },
        {
            "inputs": [],
            "name": "owner",
            "outputs": [
                {
                    "internalType": "address",
                    "name": "",
                    "type": "address"
                }
            ],
            "stateMutability": "view",
            "type": "function"
        },
        {
            "inputs": [
                {
                    "internalType": "address",
                    "name": "owner",
                    "type": "address"
                },
                {
                    "internalType": "address",
                    "name": "spender",
                    "type": "address"
                },
                {
                    "internalType": "uint256",
                    "name": "value",
                    "type": "uint256"
                },
                {
                    "internalType": "uint256",
                    "name": "deadline",
                    "type": "uint256"
                },
                {
                    "internalType": "uint8",
                    "name": "v",
                    "type": "uint8"
                },
                {
                    "internalType": "bytes32",
                    "name": "r",
                    "type": "bytes32"
                },
                {
                    "internalType": "bytes32",
                    "name": "s",
                    "type": "bytes32"
                }
            ],
            "name": "permit",
            "outputs": [],
            "stateMutability": "nonpayable",
            "type": "function"
        },
        {
            "inputs": [],
            "name": "poolExplosivePrice",
            "outputs": [
                {
                    "internalType": "uint256",
                    "name": "",
                    "type": "uint256"
                }
            ],
            "stateMutability": "view",
            "type": "function"
        },
        {
            "inputs": [],
            "name": "poolLeftAmountRate",
            "outputs": [
                {
                    "internalType": "uint24",
                    "name": "",
                    "type": "uint24"
                }
            ],
            "stateMutability": "view",
            "type": "function"
        },
        {
            "inputs": [],
            "name": "poolLongAmount",
            "outputs": [
                {
                    "internalType": "uint256",
                    "name": "",
                    "type": "uint256"
                }
            ],
            "stateMutability": "view",
            "type": "function"
        },
        {
            "inputs": [],
            "name": "poolLongPrice",
            "outputs": [
                {
                    "internalType": "uint256",
                    "name": "",
                    "type": "uint256"
                }
            ],
            "stateMutability": "view",
            "type": "function"
        },
        {
            "inputs": [],
            "name": "poolNetAmountRateLimitOpen",
            "outputs": [
                {
                    "internalType": "int24",
                    "name": "",
                    "type": "int24"
                }
            ],
            "stateMutability": "view",
            "type": "function"
        },
        {
            "inputs": [],
            "name": "poolNetAmountRateLimitPrice",
            "outputs": [
                {
                    "internalType": "int24",
                    "name": "",
                    "type": "int24"
                }
            ],
            "stateMutability": "view",
            "type": "function"
        },
        {
            "inputs": [],
            "name": "poolShortAmount",
            "outputs": [
                {
                    "internalType": "uint256",
                    "name": "",
                    "type": "uint256"
                }
            ],
            "stateMutability": "view",
            "type": "function"
        },
        {
            "inputs": [],
            "name": "poolShortPrice",
            "outputs": [
                {
                    "internalType": "uint256",
                    "name": "",
                    "type": "uint256"
                }
            ],
            "stateMutability": "view",
            "type": "function"
        },
        {
            "inputs": [],
            "name": "poolState",
            "outputs": [
                {
                    "internalType": "uint8",
                    "name": "",
                    "type": "uint8"
                }
            ],
            "stateMutability": "view",
            "type": "function"
        },
        {
            "inputs": [
                {
                    "internalType": "uint256",
                    "name": "amount",
                    "type": "uint256"
                }
            ],
            "name": "rechargeMargin",
            "outputs": [],
            "stateMutability": "nonpayable",
            "type": "function"
        },
        {
            "inputs": [
                {
                    "internalType": "uint256",
                    "name": "liquidity",
                    "type": "uint256"
                },
                {
                    "internalType": "address",
                    "name": "to",
                    "type": "address"
                }
            ],
            "name": "removeLiquidity",
            "outputs": [],
            "stateMutability": "nonpayable",
            "type": "function"
        },
        {
            "inputs": [
                {
                    "internalType": "bool",
                    "name": "b",
                    "type": "bool"
                }
            ],
            "name": "setCanAddLiquidity",
            "outputs": [],
            "stateMutability": "nonpayable",
            "type": "function"
        },
        {
            "inputs": [
                {
                    "internalType": "bool",
                    "name": "b",
                    "type": "bool"
                }
            ],
            "name": "setCanOpen",
            "outputs": [],
            "stateMutability": "nonpayable",
            "type": "function"
        },
        {
            "inputs": [
                {
                    "internalType": "int24",
                    "name": "value",
                    "type": "int24"
                }
            ],
            "name": "setDeltaR0Limit",
            "outputs": [],
            "stateMutability": "nonpayable",
            "type": "function"
        },
        {
            "inputs": [
                {
                    "internalType": "int24",
                    "name": "value",
                    "type": "int24"
                }
            ],
            "name": "setDeltaR2Limit",
            "outputs": [],
            "stateMutability": "nonpayable",
            "type": "function"
        },
        {
            "inputs": [
                {
                    "internalType": "uint24",
                    "name": "value",
                    "type": "uint24"
                }
            ],
            "name": "setDeltaRSlidePriceRate",
            "outputs": [],
            "stateMutability": "nonpayable",
            "type": "function"
        },
        {
            "inputs": [
                {
                    "internalType": "bool",
                    "name": "b",
                    "type": "bool"
                }
            ],
            "name": "setFeeOn",
            "outputs": [],
            "stateMutability": "nonpayable",
            "type": "function"
        },
        {
            "inputs": [
                {
                    "internalType": "uint16",
                    "name": "value",
                    "type": "uint16"
                }
            ],
            "name": "setFeeRate",
            "outputs": [],
            "stateMutability": "nonpayable",
            "type": "function"
        },
        {
            "inputs": [
                {
                    "internalType": "address",
                    "name": "_feeTo",
                    "type": "address"
                }
            ],
            "name": "setFeeTo",
            "outputs": [],
            "stateMutability": "nonpayable",
            "type": "function"
        },
        {
            "inputs": [
                {
                    "internalType": "address",
                    "name": "_feedPrice",
                    "type": "address"
                }
            ],
            "name": "setFeedPrice",
            "outputs": [],
            "stateMutability": "nonpayable",
            "type": "function"
        },
        {
            "inputs": [
                {
                    "internalType": "uint8",
                    "name": "value",
                    "type": "uint8"
                }
            ],
            "name": "setKeepMarginScale",
            "outputs": [],
            "stateMutability": "nonpayable",
            "type": "function"
        },
        {
            "inputs": [
                {
                    "internalType": "int24",
                    "name": "value",
                    "type": "int24"
                }
            ],
            "name": "setPoolNetAmountRateLimitOpen",
            "outputs": [],
            "stateMutability": "nonpayable",
            "type": "function"
        },
        {
            "inputs": [
                {
                    "internalType": "int24",
                    "name": "value",
                    "type": "int24"
                }
            ],
            "name": "setPoolNetAmountRateLimitPrice",
            "outputs": [],
            "stateMutability": "nonpayable",
            "type": "function"
        },
        {
            "inputs": [],
            "name": "singleCloseLimitRate",
            "outputs": [
                {
                    "internalType": "uint24",
                    "name": "",
                    "type": "uint24"
                }
            ],
            "stateMutability": "view",
            "type": "function"
        },
        {
            "inputs": [],
            "name": "singleOpenLimitRate",
            "outputs": [
                {
                    "internalType": "uint16",
                    "name": "",
                    "type": "uint16"
                }
            ],
            "stateMutability": "view",
            "type": "function"
        },
        {
            "inputs": [],
            "name": "sumFee",
            "outputs": [
                {
                    "internalType": "uint256",
                    "name": "",
                    "type": "uint256"
                }
            ],
            "stateMutability": "view",
            "type": "function"
        },
        {
            "inputs": [],
            "name": "symbol",
            "outputs": [
                {
                    "internalType": "string",
                    "name": "",
                    "type": "string"
                }
            ],
            "stateMutability": "view",
            "type": "function"
        },
        {
            "inputs": [],
            "name": "token0",
            "outputs": [
                {
                    "internalType": "address",
                    "name": "",
                    "type": "address"
                }
            ],
            "stateMutability": "view",
            "type": "function"
        },
        {
            "inputs": [],
            "name": "token0Decimal",
            "outputs": [
                {
                    "internalType": "uint256",
                    "name": "",
                    "type": "uint256"
                }
            ],
            "stateMutability": "view",
            "type": "function"
        },
        {
            "inputs": [],
            "name": "totalPool",
            "outputs": [
                {
                    "internalType": "int256",
                    "name": "",
                    "type": "int256"
                }
            ],
            "stateMutability": "view",
            "type": "function"
        },
        {
            "inputs": [],
            "name": "totalSupply",
            "outputs": [
                {
                    "internalType": "uint256",
                    "name": "",
                    "type": "uint256"
                }
            ],
            "stateMutability": "view",
            "type": "function"
        },
        {
            "inputs": [
                {
                    "internalType": "address",
                    "name": "",
                    "type": "address"
                }
            ],
            "name": "traders",
            "outputs": [
                {
                    "internalType": "int256",
                    "name": "margin",
                    "type": "int256"
                },
                {
                    "internalType": "uint256",
                    "name": "longAmount",
                    "type": "uint256"
                },
                {
                    "internalType": "uint256",
                    "name": "longPrice",
                    "type": "uint256"
                },
                {
                    "internalType": "uint256",
                    "name": "shortAmount",
                    "type": "uint256"
                },
                {
                    "internalType": "uint256",
                    "name": "shortPrice",
                    "type": "uint256"
                },
                {
                    "internalType": "uint32",
                    "name": "interestDay",
                    "type": "uint32"
                }
            ],
            "stateMutability": "view",
            "type": "function"
        },
        {
            "inputs": [
                {
                    "internalType": "address",
                    "name": "to",
                    "type": "address"
                },
                {
                    "internalType": "uint256",
                    "name": "value",
                    "type": "uint256"
                }
            ],
            "name": "transfer",
            "outputs": [
                {
                    "internalType": "bool",
                    "name": "",
                    "type": "bool"
                }
            ],
            "stateMutability": "nonpayable",
            "type": "function"
        },
        {
            "inputs": [
                {
                    "internalType": "address",
                    "name": "from",
                    "type": "address"
                },
                {
                    "internalType": "address",
                    "name": "to",
                    "type": "address"
                },
                {
                    "internalType": "uint256",
                    "name": "value",
                    "type": "uint256"
                }
            ],
            "name": "transferFrom",
            "outputs": [
                {
                    "internalType": "bool",
                    "name": "",
                    "type": "bool"
                }
            ],
            "stateMutability": "nonpayable",
            "type": "function"
        },
        {
            "inputs": [
                {
                    "internalType": "address",
                    "name": "_owner",
                    "type": "address"
                }
            ],
            "name": "transferOwner",
            "outputs": [],
            "stateMutability": "nonpayable",
            "type": "function"
        },
        {
            "inputs": [],
            "name": "withdrawFee",
            "outputs": [],
            "stateMutability": "nonpayable",
            "type": "function"
        },
        {
            "inputs": [
                {
                    "internalType": "uint256",
                    "name": "amount",
                    "type": "uint256"
                }
            ],
            "name": "withdrawMargin",
            "outputs": [],
            "stateMutability": "nonpayable",
            "type": "function"
        }
    ],
    "bytecode": "6101606040526006805461ffff60a01b191661010160a01b17905560016008556009805466ffffffffffff001916660493e0061a800017905560138054600162ffff0160501b0319166c0258001e0027100186a000c3501790553480156200006657600080fd5b506040516200530f3803806200530f83398101604081905262000089916200035a565b876001600160a01b031663313ce5676040518163ffffffff1660e01b8152600401602060405180830381865afa158015620000c8573d6000803e3d6000fd5b505050506040513d601f19601f82011682018060405250810190620000ee919062000400565b604080518082018252600c81526b48656467657853696e676c6560a01b6020918201528151808301835260018152603160f81b9082015281517f8b73c3c69bb8fe3d512ecc4cf759cc79239f7b179b0ffacaa9a75d522b39400f918101919091527fdbb8f54117374490c454ab41b80d95cf4a0c3b286124d9b83e346d854dc3efcd918101919091527fc89efdaa54c0f20c7adf612882df0950f5a951637e0307cdcb4c672f298b8bc660608201524660808201523060a082015260c00160408051601f19818403018152828252805160209182012060a05260ff9093166080526006805460ff60b01b1916600160b01b179055601b80546001600160a01b03808d166001600160a01b0319909216919091179091558b1661010081905263313ce56760e01b83529051909263313ce56792600480820193918290030181865afa15801562000241573d6000803e3d6000fd5b505050506040513d601f19601f8201168201806040525081019062000267919062000400565b6200027490600a6200053a565b6101205260c09590955260ff93841660e052600980546013805460009690960b610140529390951669010000000000000000000261ffff60481b19909416939093176a01000000000000000000001790915562ffffff9384166401000000000262ffffff60201b1994909116610100029390931666ffffffffffffff19909216919091179190911790555050600480546001600160a01b031916331790556200054b565b80516001600160a01b03811681146200033057600080fd5b919050565b805160ff811681146200033057600080fd5b8051600281900b81146200033057600080fd5b600080600080600080600080610100898b0312156200037857600080fd5b620003838962000318565b97506200039360208a0162000318565b965060408901519550620003aa60608a0162000335565b945060808901518060000b8114620003c157600080fd5b9350620003d160a08a0162000335565b9250620003e160c08a0162000347565b9150620003f160e08a0162000347565b90509295985092959890939650565b6000602082840312156200041357600080fd5b6200041e8262000335565b9392505050565b634e487b7160e01b600052601160045260246000fd5b600181815b808511156200047c57816000190482111562000460576200046062000425565b808516156200046e57918102915b93841c939080029062000440565b509250929050565b600082620004955750600162000534565b81620004a45750600062000534565b8160018114620004bd5760028114620004c857620004e8565b600191505062000534565b60ff841115620004dc57620004dc62000425565b50506001821b62000534565b5060208310610133831016604e8410600b84101617156200050d575081810a62000534565b6200051983836200043b565b806000190482111562000530576200053062000425565b0290505b92915050565b60006200041e60ff84168362000484565b60805160a05160c05160e051610100516101205161014051614cac620006636000396000818161065a0152818161283a01528181612867015281816128d10152818161293b015281816129b401528181612a270152612a9a015260008181610a680152818161188a01528181612892015281816128fc01528181612966015281816129e801528181612a5b0152612ace01526000818161058c01528181610e26015281816110e801528181611199015281816118cd0152818161264901528181612f720152818161361501526136d801526000818161069401528181610f8201528181613f390152613fa20152600081816106200152612feb0152600081816107380152613106015260006107080152614cac6000f3fe608060405234801561001057600080fd5b506004361061048b5760003560e01c8063807ca35311610262578063bedc409b11610151578063dd62ed3e116100ce578063ecfb49a311610092578063ecfb49a314610bd5578063f46901ed14610bde578063fa50744514610bf1578063fc4064b314610c04578063fee2cb0514610c17578063ffaeb58214610c2c57600080fd5b8063dd62ed3e14610b70578063ddcb04c214610b9b578063de87861f14610bae578063e598431914610bc4578063e941fa7814610bcd57600080fd5b8063ce8ad1d211610115578063ce8ad1d214610b23578063d1ad24be14610b2c578063d375454f14610b3f578063d421fefc14610b49578063d505accf14610b5d57600080fd5b8063bedc409b14610ac5578063c26c9aff14610ad8578063c669c32c14610aeb578063c95f9d0e14610afe578063cd8bb6cd14610b1157600080fd5b806390edbeb0116101df578063994af3ae116101a3578063994af3ae14610a5a5780639ddc230a14610a63578063a04eecae14610a8a578063a9059cbb14610a9d578063b22dd2ca14610ab057600080fd5b806390edbeb01461098a57806392a88fa21461099d57806395d89b4114610a19578063971059fb14610a3c578063978bbdb914610a4557600080fd5b80638b0af0fa116102265780638b0af0fa146109045780638d73d86a146109185780638da5cb5b1461094b5780638e15f4731461095e5780638e4068921461098157600080fd5b8063807ca353146108b55780638632d4ab146108c85780638967b694146108db57806389d408ff146108e45780638a55d36e146108f757600080fd5b8063313ce5671161037e578063641ad8a9116102fb57806373e6054b116102bf57806373e6054b1461083a5780637aaae950146104c05780637bb71a97146108835780637e4856c41461088b5780637ecebe001461089557600080fd5b8063641ad8a9146107cd5780636422e08f146107e15780636c2ee359146107f457806370a082311461080757806371b317071461082757600080fd5b80634f335d0a116103425780634f335d0a146107755780634fb2e45d146107895780635d0291ac1461079c5780635dd535ad146107b85780635f8e422f146107c557600080fd5b8063313ce5671461070357806333d6f1f71461072a5780633644e515146107335780633acb7bb21461075a5780633e31fb451461076d57600080fd5b806318160ddd1161040c57806329ff0773116103d057806329ff0773146106425780632be90282146106555780632c86d98e1461068f578063303c0a3b146106c857806330adf81f146106dc57600080fd5b806318160ddd146105c1578063190b065f146105d85780631cce9103146105e157806323b872dd146106085780632678b8fd1461061b57600080fd5b80630b399758116104535780630b3997581461054e5780630cea7534146105615780630def3ead146105745780630dfe16811461058757806311ce83f8146105ae57600080fd5b8063017e7e581461049057806301bcc908146104c057806305fe138b146104de57806306fdde03146104f3578063095ea7b31461052b575b600080fd5b6006546104a3906001600160a01b031681565b6040516001600160a01b0390911681526020015b60405180910390f35b6104ca620186a081565b60405162ffffff90911681526020016104b7565b6104f16104ec36600461442a565b610c40565b005b61051e6040518060400160405280600c81526020016b48656467657853696e676c6560a01b81525081565b6040516104b79190614486565b61053e6105393660046144b9565b610e87565b60405190151581526020016104b7565b6104f161055c3660046144e3565b610e9e565b6104f161056f366004614506565b610eec565b6104f161058236600461452d565b61114c565b6104a37f000000000000000000000000000000000000000000000000000000000000000081565b6104f16105bc366004614506565b611194565b6105ca60005481565b6040519081526020016104b7565b6105ca60145481565b6009546105f590600160201b900460020b81565b60405160029190910b81526020016104b7565b61053e61061636600461454a565b61121c565b6105ca7f000000000000000000000000000000000000000000000000000000000000000081565b6104f1610650366004614586565b611296565b61067c7f000000000000000000000000000000000000000000000000000000000000000081565b60405160009190910b81526020016104b7565b6106b67f000000000000000000000000000000000000000000000000000000000000000081565b60405160ff90911681526020016104b7565b6013546106b690600160481b900460ff1681565b6105ca7f6e71edae12b1b97f4d1f60370fef10105fa2faae0126114a169c64845d6126c981565b6106b67f000000000000000000000000000000000000000000000000000000000000000081565b6105ca60075481565b6105ca7f000000000000000000000000000000000000000000000000000000000000000081565b6104f16107683660046144e3565b6112fe565b6104f1611342565b60135461053e90600160501b900460ff1681565b6104f16107973660046145aa565b61157c565b6107a561753081565b60405161ffff90911681526020016104b7565b6013546105f59060020b81565b6104f16115c8565b6006546106b690600160b01b900460ff1681565b6104f16107ef3660046145c5565b611619565b6104f16108023660046145ef565b611954565b6105ca6108153660046145aa565b60016020526000908152604090205481565b6104f16108353660046145ef565b611c95565b6015546016546018546017546019546006546040805196875260208701959095529385019290925260608401526080830152600160b01b900460ff1660a082015260c0016104b7565b6105ca611fb2565b6104ca620f424081565b6105ca6108a33660046145aa565b60036020526000908152604090205481565b6104f16108c33660046145ef565b612065565b6104f16108d636600461462c565b6123ae565b6107a56103e881565b6104f16108f23660046145c5565b6123fe565b60095461053e9060ff1681565b60065461053e90600160a01b900460ff1681565b600a54600b54600c5461092d92919060000b83565b60408051938452602084019290925260000b908201526060016104b7565b6004546104a3906001600160a01b031681565b61096661274b565b604080519384526020840192909252908201526060016104b7565b6105ca60175481565b6104f16109983660046145ef565b612afd565b6109e66109ab3660046145aa565b601a60205260009081526040902080546001820154600283015460038401546004850154600590950154939492939192909163ffffffff1686565b604080519687526020870195909552938501929092526060840152608083015263ffffffff1660a082015260c0016104b7565b61051e604051806040016040528060048152602001634845585360e01b81525081565b6105ca60195481565b6013546107a590600160581b900461ffff1681565b6105ca60185481565b6105ca7f000000000000000000000000000000000000000000000000000000000000000081565b601b546104a3906001600160a01b031681565b61053e610aab3660046144b9565b612e24565b600d54600e54600f5461092d92919060000b83565b6104f1610ad33660046144e3565b612e31565b6104f1610ae6366004614647565b612e7b565b6104f1610af93660046145aa565b612ecc565b6104f1610b0c36600461442a565b612f18565b6009546105f590610100900460020b81565b6104ca61c35081565b6104f1610b3a3660046144e3565b613059565b6104ca6203d09081565b6013546105f5906301000000900460020b81565b6104f1610b6b36600461466c565b6130a8565b6105ca610b7e3660046145c5565b600260209081526000928352604080842090915290825290205481565b6104f1610ba93660046145c5565b6132d4565b6013546104ca90600160301b900462ffffff1681565b6105ca60165481565b6104f161369c565b6105ca60155481565b6104f1610bec3660046145aa565b61370a565b6104f1610bff36600461452d565b613756565b6104f1610c1236600461452d565b61379e565b60105460115460125461092d92919060000b83565b60065461053e90600160a81b900460ff1681565b600654600160b01b900460ff16600114610c755760405162461bcd60e51b8152600401610c6c906146d6565b60405180910390fd5b600954829060ff1615610dff576000610c8c61274b565b505090506000610c9b826137e6565b9050600060175460165411610cbf57601654601754610cba9190614713565b610ccf565b601754601654610ccf9190614713565b905060006003601754601654610ce5919061472a565b610cef9190614758565b905080821015610cfd578091505b600954600090610100900462ffffff16620f4240610d1b878661476c565b610d25919061476c565b610d2f9190614758565b9050808413610d805760405162461bcd60e51b815260206004820152601760248201527f6e6574206d757374203e20757365644d617267696e2f520000000000000000006044820152606401610c6c565b6000610d8c8286614713565b600054909150610d9c8a8761476c565b610da69190614758565b965080871115610df85760405162461bcd60e51b815260206004820152601860248201527f776974686472617720616d6f756e7420746f6f206d616e7900000000000000006044820152606401610c6c565b5050505050505b8060156000828254610e11919061478b565b90915550610e219050338461382f565b610e4c7f000000000000000000000000000000000000000000000000000000000000000083836138ba565b60405183815233907fcc16f5dbb4873280815c1ee09dbd06736cffcc184412cf7a71a0fdb75d397ca5906020015b60405180910390a2505050565b6000610e943384846139d5565b5060015b92915050565b6004546001600160a01b03163314610ec85760405162461bcd60e51b8152600401610c6c906147ca565b6013805462ffffff90921663010000000265ffffff00000019909216919091179055565b600654600160b01b900460ff16600114610f185760405162461bcd60e51b8152600401610c6c906146d6565b336000908152601a60209081526040808320815160c0810183528154815260018201549381019390935260028101549183019190915260038101546060830152600481015460808301526005015463ffffffff1660a082015290610f7a61274b565b5050905060007f000000000000000000000000000000000000000000000000000000000000000060ff1683608001518460600151610fb8919061476c565b84604001518560200151610fcc919061476c565b610fd6919061472a565b610fe09190614758565b90506000828460600151610ff4919061476c565b84604001518560200151611008919061476c565b611012919061472a565b84608001518560600151611026919061476c565b848660200151611036919061476c565b611040919061472a565b855161104c91906147ed565b611056919061478b565b90506000611064838361478b565b9050600081136110b65760405162461bcd60e51b815260206004820152601860248201527f63616e207769746864726177206973206e6567617469766500000000000000006044820152606401610c6c565b85818113156110c25750805b85516110cf90829061478b565b336000818152601a602052604090209190915561110e907f000000000000000000000000000000000000000000000000000000000000000090836138ba565b60405181815233907f884edad9ce6fa2440d8a54cc123490eb96d2768479d49ff9c7366125a94243649060200160405180910390a250505050505050565b6004546001600160a01b031633146111765760405162461bcd60e51b8152600401610c6c906147ca565b60068054911515600160a81b0260ff60a81b19909216919091179055565b6111c07f0000000000000000000000000000000000000000000000000000000000000000333084613a37565b336000908152601a6020526040812080548392906111df9084906147ed565b909155505060405181815233907f78d9de6f3ad1cae9e0cbcbaa5267fd90f6a6728831eec42b7c147b398b2269249060200160405180910390a250565b6001600160a01b038316600090815260026020908152604080832033845290915281205460001914611281576001600160a01b03841660009081526002602090815260408083203384529091528120805484929061127b908490614713565b90915550505b61128c848484613b67565b5060019392505050565b6004546001600160a01b031633146112dc5760405162461bcd60e51b8152602060048201526009602482015268333937b134b23232b760b91b6044820152606401610c6c565b6013805461ffff909216600160581b0261ffff60581b19909216919091179055565b6004546001600160a01b031633146113285760405162461bcd60e51b8152600401610c6c906147ca565b6013805462ffffff191662ffffff92909216919091179055565b6008546001146113645760405162461bcd60e51b8152600401610c6c9061482e565b6000600855600654600160b01b900460ff166001146113bb5760405162461bcd60e51b8152602060048201526013602482015272706f6f6c206973206578706c6f736976696e6760681b6044820152606401610c6c565b60006113c561274b565b5050905060006113d4826137e6565b905060006017546016541161140f576005836016546017546113f69190614713565b611400919061476c565b61140a9190614758565b611436565b6005836017546016546114229190614713565b61142c919061476c565b6114369190614758565b9050808213156114885760405162461bcd60e51b815260206004820152601960248201527f706f6f6c2063616e6e2774206265206578706c6f7369766564000000000000006044820152606401610c6c565b6006805460ff60b01b1916600160b11b17905560006114a8600483614758565b90508083121561155c5760006016546017546114c4919061478b565b826019546017546114d5919061476c565b6018546016546114e5919061476c565b6015546114f2919061478b565b6114fc91906147ed565b611506919061478b565b611510919061484e565b90506000811361154f5760405162461bcd60e51b815260206004820152600a6024820152690657072696365203e20360b41b6044820152606401610c6c565b6007556015819055611567565b601583905560078490555b50506000601981905560185550506001600855565b6004546001600160a01b031633146115a65760405162461bcd60e51b8152600401610c6c906147ca565b600580546001600160a01b0319166001600160a01b0392909216919091179055565b6005546001600160a01b031633146115f25760405162461bcd60e51b8152600401610c6c906147ca565b60058054600480546001600160a01b03199081166001600160a01b03841617909155169055565b60085460011461163b5760405162461bcd60e51b8152600401610c6c9061482e565b6000600855600654600160b01b900460ff166002146116915760405162461bcd60e51b81526020600482015260126024820152713837b7b629ba30ba329034b9903737ba101960711b6044820152606401610c6c565b6001600160a01b0382166000908152601a60209081526040808320815160c0810183528154815260018201549381019390935260028101549183019190915260038101546060830152600481015460808301526005015463ffffffff1660a082015260075490916117028383613c08565b6013546060850151919250600091620f424091600160581b900461ffff169061172c90869061476c565b85876020015161173c919061476c565b611746919061472a565b611750919061476c565b61175a9190614758565b6020850151909150156117835783602001516017600082825461177d9190614713565b90915550505b6060840151156117a9578360600151601660008282546117a39190614713565b90915550505b6016541580156117b95750601754155b156117d2576006805460ff60b01b1916600160b01b1790555b8082131561181d576117e4818361478b565b6001600160a01b0387166000908152601a6020526040812091909155601580548392906118129084906147ed565b909155506118509050565b6001600160a01b0386166000908152601a602052604081208190556015805484929061184a9084906147ed565b90915550505b6001600160a01b0386166000908152601a602052604081206001810182905560028101829055600381018290556004018190556118ae600a7f0000000000000000000000000000000000000000000000000000000000000000614758565b905080601560008282546118c2919061478b565b909155506118f390507f000000000000000000000000000000000000000000000000000000000000000087836138ba565b60208086015160608088015160408051938452938301529181018690526001600160a01b038916917ffca559ae7a3bea5c41671f27049d90b84fbf98be965e6d7f0259ee6e5caa980b910160405180910390a2505060016008555050505050565b6008546001146119765760405162461bcd60e51b8152600401610c6c9061482e565b6000600855804281101561199c5760405162461bcd60e51b8152600401610c6c9061487c565b600654600160b01b900460ff166001146119c85760405162461bcd60e51b8152600401610c6c906146d6565b60095460ff16611a125760405162461bcd60e51b815260206004820152601560248201527418dbdb9d1c9858dd081a5cc81b9bdd081cdd185c9d605a1b6044820152606401610c6c565b600654600160a81b900460ff16611a3b5760405162461bcd60e51b8152600401610c6c906147ca565b600080611a4661274b565b92505091506000806000611a5b600186613c83565b9194509250905084620f4240611a736175308561476c565b611a7d9190614758565b611a879190614758565b881115611aa65760405162461bcd60e51b8152600401610c6c906148ab565b600954610100900460020b8312611acf5760405162461bcd60e51b8152600401610c6c906148e2565b6000611adb8685613d2d565b85611ae6848961472a565b611af0919061472a565b611afa919061472a565b90508981111580611b09575089155b611b555760405162461bcd60e51b815260206004820152601b60248201527f6f70656e206c6f6e6720707269636520697320746f6f206869676800000000006044820152606401610c6c565b6000611b61828b61476c565b9050600080611b708984613e25565b915091508b8160200151611b84919061472a565b336000908152601a6020908152604090912060010191909155810151611bab908d9061472a565b8382604001518360200151611bc0919061476c565b611bca919061472a565b611bd49190614758565b336000908152601a60205260409020600201558051611bf490839061478b565b336000908152601a6020526040902055601754611c118d8261472a565b601755611c1e8d8261472a565b8460195483611c2d919061476c565b611c37919061472a565b611c419190614758565b601955611c4d8361409b565b6040805160018152602081018f90529081018690523390600080516020614c57833981519152906060015b60405180910390a250506001600855505050505050505050505050565b600854600114611cb75760405162461bcd60e51b8152600401610c6c9061482e565b60006008558042811015611cdd5760405162461bcd60e51b8152600401610c6c9061487c565b600654600160b01b900460ff16600114611d095760405162461bcd60e51b8152600401610c6c906146d6565b60095460ff16611d535760405162461bcd60e51b815260206004820152601560248201527418dbdb9d1c9858dd081a5cc81b9bdd081cdd185c9d605a1b6044820152606401610c6c565b600654600160a81b900460ff16611d7c5760405162461bcd60e51b8152600401610c6c906147ca565b600080611d8761274b565b50915091506000806000611d9d60001986613c83565b9194509250905084620f4240611db56175308561476c565b611dbf9190614758565b611dc99190614758565b881115611de85760405162461bcd60e51b8152600401610c6c906148ab565b600954610100900460020b8312611e115760405162461bcd60e51b8152600401610c6c906148e2565b6000611e1d8685613d2d565b85611e288489614713565b611e329190614713565b611e3c9190614713565b905089811015611e8e5760405162461bcd60e51b815260206004820152601b60248201527f6f70656e2073686f727420707269636520697320746f6f206c6f7700000000006044820152606401610c6c565b6000611e9a828b61476c565b9050600080611ea98984613e25565b915091508b8160600151611ebd919061472a565b336000908152601a60205260409020600301556060810151611ee0908d9061472a565b8382608001518360600151611ef5919061476c565b611eff919061472a565b611f099190614758565b336000908152601a60205260409020600401558051611f2990839061478b565b336000908152601a6020526040902055601654611f468d8261472a565b601655611f538d8261472a565b8460185483611f62919061476c565b611f6c919061472a565b611f769190614758565b601855611f828361409b565b604080516000198152602081018f90529081018690523390600080516020614c5783398151915290606001611c78565b600080611fbd61274b565b50509050600081601754611fd1919061476c565b601854601654611fe1919061476c565b611feb919061472a565b601954601754611ffb919061476c565b83601654612009919061476c565b612013919061472a565b60155461202091906147ed565b61202a919061478b565b905060008113610e985760405162461bcd60e51b815260206004820152600660248201526506e65743c3d360d41b6044820152606401610c6c565b6008546001146120875760405162461bcd60e51b8152600401610c6c9061482e565b600060085580428110156120ad5760405162461bcd60e51b8152600401610c6c9061487c565b600654600160b01b900460ff166001146120d95760405162461bcd60e51b8152600401610c6c906146d6565b6000806120e461274b565b925050915060008060006120f9600186613c83565b9194509250905084620f4240612112620186a08561476c565b61211c9190614758565b6121269190614758565b8811156121455760405162461bcd60e51b8152600401610c6c906148ab565b60006121518685613d2d565b8561215c848961472a565b612166919061472a565b612170919061472a565b9050898111158061217f575089155b6121cb5760405162461bcd60e51b815260206004820152601d60248201527f636c6f73652073686f727420707269636520697320746f6f20686967680000006044820152606401610c6c565b336000908152601a6020908152604091829020825160c081018452815481526001820154928101929092526002810154928201929092526003820154606082018190526004830154608083015260059092015463ffffffff1660a0820152908a11156122855760405162461bcd60e51b815260206004820152602360248201527f636c6f736520616d6f756e742072657175697265203e3d2073686f7274416d6f6044820152621d5b9d60ea1b6064820152608401610c6c565b601354600090620f424090600160581b900461ffff166122a5858e61476c565b6122af919061476c565b6122b99190614758565b905060008383608001516122cd919061478b565b6122d7908d614927565b90508b83606001516122e99190614713565b336000908152601a60205260409020600301558251829061230b9083906147ed565b612315919061478b565b336000908152601a602052604090205560608301518c141561234557336000908152601a60205260408120600401555b8b601660008282546123579190614713565b9091555061236790508282614125565b6040805160028152602081018e90529081018590523390600080516020614c57833981519152906060015b60405180910390a2505060016008555050505050505050505050565b6004546001600160a01b031633146123d85760405162461bcd60e51b8152600401610c6c906147ca565b6013805460ff909216600160481b0269ff00000000000000000019909216919091179055565b6008546001146124205760405162461bcd60e51b8152600401610c6c9061482e565b6000600855600654600160b01b900460ff166001146124515760405162461bcd60e51b8152600401610c6c906146d6565b6001600160a01b0382166000908152601a60209081526040808320815160c0810183528154815260018201549381019390935260028101549183019190915260038101546060830181905260048201546080840181905260059092015463ffffffff1660a0840152601354929392600160481b900460ff16916124d39161476c565b836040015184602001516124e7919061476c565b6124f1919061472a565b6124fb9190614758565b9050600061250761274b565b5050905060006125178483613c08565b9050828113156125555760405162461bcd60e51b81526020600482015260096024820152680dcdee840dac2e8c6d60bb1b6044820152606401610c6c565b60208401516000901561259e578460200151601760008282546125789190614713565b9091555050604085015161258c908461478b565b856020015161259b9190614927565b90505b6060850151156125ef578460600151601660008282546125be9190614713565b909155505060808501516125d390849061478b565b85606001516125e29190614927565b6125ec90826147ed565b90505b60608501516020860151600119911115612607575060025b6001600160a01b0388166000908152601a602052604081208181556001810182905560028101829055600381018290556004018190558313156126b7576126797f00000000000000000000000000000000000000000000000000000000000000008861267460058761484e565b6138ba565b816005612687856004614927565b612691919061484e565b61269b919061478b565b601560008282546126ac91906147ed565b909155506126d89050565b6126c1828461478b565b601560008282546126d291906147ed565b90915550505b876001600160a01b03167f1cf7369c3767c976b447baaae4eed8217e2d190d1750c589e62bf5f7ecc4aaff8288606001518960200151612718919061472a565b6040805160009390930b83526020830191909152810187905260600160405180910390a250506001600855505050505050565b6000806000806000806000601b60009054906101000a90046001600160a01b03166001600160a01b03166310bace8c6040518163ffffffff1660e01b8152600401608060405180830381865afa1580156127a9573d6000803e3d6000fd5b505050506040513d601f19601f820116820180604052508101906127cd91906149ac565b9350935093509350600084116128365760405162461bcd60e51b815260206004820152602860248201527f7468652070616972207374616e64617264207072696365206d75737420626520604482015267706f73697469766560c01b6064820152608401610c6c565b60007f000000000000000000000000000000000000000000000000000000000000000060000b126129ae578061288d7f0000000000000000000000000000000000000000000000000000000000000000600a614ac6565b6128b77f00000000000000000000000000000000000000000000000000000000000000008761476c565b6128c1919061476c565b6128cb9190614758565b816128f77f0000000000000000000000000000000000000000000000000000000000000000600a614ac6565b6129217f00000000000000000000000000000000000000000000000000000000000000008761476c565b61292b919061476c565b6129359190614758565b826129617f0000000000000000000000000000000000000000000000000000000000000000600a614ac6565b61298b7f00000000000000000000000000000000000000000000000000000000000000008761476c565b612995919061476c565b61299f9190614758565b96509650965050505050909192565b806129d87f0000000000000000000000000000000000000000000000000000000000000000614ad5565b6129e390600a614ac6565b612a0d7f00000000000000000000000000000000000000000000000000000000000000008761476c565b612a179190614758565b612a219190614758565b81612a4b7f0000000000000000000000000000000000000000000000000000000000000000614ad5565b612a5690600a614ac6565b612a807f00000000000000000000000000000000000000000000000000000000000000008761476c565b612a8a9190614758565b612a949190614758565b82612abe7f0000000000000000000000000000000000000000000000000000000000000000614ad5565b612ac990600a614ac6565b612af37f00000000000000000000000000000000000000000000000000000000000000008761476c565b6129959190614758565b600854600114612b1f5760405162461bcd60e51b8152600401610c6c9061482e565b60006008558042811015612b455760405162461bcd60e51b8152600401610c6c9061487c565b600654600160b01b900460ff16600114612b715760405162461bcd60e51b8152600401610c6c906146d6565b600080612b7c61274b565b50915091506000806000612b9260001986613c83565b9194509250905084620f4240612bab620186a08561476c565b612bb59190614758565b612bbf9190614758565b881115612bde5760405162461bcd60e51b8152600401610c6c906148ab565b6000612bea8685613d2d565b85612bf58489614713565b612bff9190614713565b612c099190614713565b905089811015612c5b5760405162461bcd60e51b815260206004820152601b60248201527f636c6f7365206c6f6e6720707269636520697320746f6f206c6f7700000000006044820152606401610c6c565b336000908152601a6020908152604091829020825160c08101845281548152600182015492810183905260028201549381019390935260038101546060840152600481015460808401526005015463ffffffff1660a08301528a1115612d0e5760405162461bcd60e51b815260206004820152602260248201527f636c6f736520616d6f756e742072657175697265203e3d206c6f6e67416d6f756044820152611b9d60f21b6064820152608401610c6c565b601354600090620f424090600160581b900461ffff16612d2e858e61476c565b612d38919061476c565b612d429190614758565b90506000826040015184612d56919061478b565b612d60908d614927565b90508b8360200151612d729190614713565b336000908152601a602052604090206001015582518290612d949083906147ed565b612d9e919061478b565b336000908152601a60209081526040909120919091558301518c1415612dd257336000908152601a60205260408120600201555b8b60176000828254612de49190614713565b90915550612df490508282614125565b604080516001198152602081018e90529081018590523390600080516020614c5783398151915290606001612392565b6000610e94338484613b67565b6004546001600160a01b03163314612e5b5760405162461bcd60e51b8152600401610c6c906147ca565b6009805462ffffff9092166101000263ffffff0019909216919091179055565b6004546001600160a01b03163314612ea55760405162461bcd60e51b8152600401610c6c906147ca565b6013805462ffffff909216600160301b0268ffffff00000000000019909216919091179055565b6004546001600160a01b03163314612ef65760405162461bcd60e51b8152600401610c6c906147ca565b601b80546001600160a01b0319166001600160a01b0392909216919091179055565b600654600160b01b900460ff16600114612f445760405162461bcd60e51b8152600401610c6c906146d6565b600654600160a01b900460ff16612f6d5760405162461bcd60e51b8152600401610c6c906147ca565b612f997f0000000000000000000000000000000000000000000000000000000000000000333085613a37565b600954829060ff1615612fcf576000612fb0611fb2565b90508084600054612fc1919061476c565b612fcb9190614758565b9150505b8260156000828254612fe191906147ed565b90915550506015547f00000000000000000000000000000000000000000000000000000000000000001361301d576009805460ff191660011790555b61302782826141c5565b60405181815233907f0f6798a560793a54c3bcfe86a93cde1e73087d944c0ea20544137d412139688590602001610e7a565b6004546001600160a01b031633146130835760405162461bcd60e51b8152600401610c6c906147ca565b6009805462ffffff909216600160201b0266ffffff0000000019909216919091179055565b428410156130ea5760405162461bcd60e51b815260206004820152600f60248201526e12195919d95e0e8811561412549151608a1b6044820152606401610c6c565b6001600160a01b038716600090815260036020526040812080547f0000000000000000000000000000000000000000000000000000000000000000917f6e71edae12b1b97f4d1f60370fef10105fa2faae0126114a169c64845d6126c9918b918b918b918761315883614af5565b909155506040805160208101969096526001600160a01b0394851690860152929091166060840152608083015260a082015260c0810187905260e001604051602081830303815290604052805190602001206040516020016131d192919061190160f01b81526002810192909252602282015260420190565b60408051601f198184030181528282528051602091820120600080855291840180845281905260ff88169284019290925260608301869052608083018590529092509060019060a0016020604051602081039080840390855afa15801561323c573d6000803e3d6000fd5b5050604051601f1901519150506001600160a01b038116158015906132725750886001600160a01b0316816001600160a01b0316145b6132be5760405162461bcd60e51b815260206004820152601960248201527f4865646765783a20494e56414c49445f5349474e4154555245000000000000006044820152606401610c6c565b6132c98989896139d5565b505050505050505050565b6008546001146132f65760405162461bcd60e51b8152600401610c6c9061482e565b6000600855600654600160b01b900460ff166001146133275760405162461bcd60e51b8152600401610c6c906146d6565b60006133366201518042614758565b905061012c6133488262015180614b10565b6133589063ffffffff1642614713565b11156133955760405162461bcd60e51b815260206004820152600c60248201526b74696d652064697361626c6560a01b6044820152606401610c6c565b6001600160a01b0383166000908152601a60205260409020600581015463ffffffff908116908316116134035760405162461bcd60e51b81526020600482015260166024820152751a185cc81899595b881d185ad9481a5b9d195c995cdd60521b6044820152606401610c6c565b80600301548160010154141561344e5760405162461bcd60e51b815260206004820152601060248201526f1b1bdb99c8195c5d585b081cda1bdc9d60821b6044820152606401610c6c565b60175460165460038301546001848101546000928391111561350b578385116134ac5760405162461bcd60e51b815260206004820152601060248201526f1a185d99481b9bc81a5b9d195c995cdd60821b6044820152606401610c6c565b6134b461274b565b50909150859050620f42406134c98683614713565b60018901546103e8906134dc908661476c565b6134e6919061476c565b6134f0919061476c565b6134fa9190614758565b6135049190614758565b92506135ad565b84841161354d5760405162461bcd60e51b815260206004820152601060248201526f1a185d99481b9bc81a5b9d195c995cdd60821b6044820152606401610c6c565b61355561274b565b506000199350909150849050620f424061356f8783614713565b60038901546103e890613582908661476c565b61358c919061476c565b613596919061476c565b6135a09190614758565b6135aa9190614758565b92505b6000620f42406135c0620186a08661476c565b6135ca9190614758565b60058801805463ffffffff191663ffffffff8b161790558754909150849088906000906135f890849061478b565b90915550613610905061360b8286614713565b61409b565b61363b7f00000000000000000000000000000000000000000000000000000000000000008a836138ba565b60408051600085900b8152602081018690529081018390526001600160a01b038b16907f78213dfb97e98b601b3fee012a0f6bddbf4e63c293c77b5186137af1e7cf62ae9060600160405180910390a2505060016008555050505050505050565b6006546001600160a01b031633146136c65760405162461bcd60e51b8152600401610c6c906147ca565b601480546000909155600654613707907f0000000000000000000000000000000000000000000000000000000000000000906001600160a01b0316836138ba565b50565b6004546001600160a01b031633146137345760405162461bcd60e51b8152600401610c6c906147ca565b600680546001600160a01b0319166001600160a01b0392909216919091179055565b6004546001600160a01b031633146137805760405162461bcd60e51b8152600401610c6c906147ca565b60068054911515600160a01b0260ff60a01b19909216919091179055565b6004546001600160a01b031633146137c85760405162461bcd60e51b8152600401610c6c906147ca565b60138054911515600160501b0260ff60501b19909216919091179055565b600080826017546137f7919061476c565b601854601654613807919061476c565b613811919061472a565b601954601754613821919061476c565b84601654612009919061476c565b6001600160a01b03821660009081526001602052604081208054839290613857908490614713565b925050819055508060008082825461386f9190614713565b90915550506040518181526000906001600160a01b038416907fddf252ad1be2c89b69c2b068fc378daa952ba7f163c4a11628f55a4df523b3ef906020015b60405180910390a35050565b604080516001600160a01b038481166024830152604480830185905283518084039091018152606490920183526020820180516001600160e01b031663a9059cbb60e01b17905291516000928392908716916139169190614b3c565b6000604051808303816000865af19150503d8060008114613953576040519150601f19603f3d011682016040523d82523d6000602084013e613958565b606091505b50915091508180156139825750805115806139825750808060200190518101906139829190614b58565b6139ce5760405162461bcd60e51b815260206004820152601f60248201527f5472616e7366657248656c7065723a205452414e534645525f4641494c4544006044820152606401610c6c565b5050505050565b6001600160a01b0383811660008181526002602090815260408083209487168084529482529182902085905590518481527f8c5be1e5ebec7d5bd14f71427d1e84f3dd0314c0f7b2291e5b200ac8c7c3b92591015b60405180910390a3505050565b604080516001600160a01b0385811660248301528481166044830152606480830185905283518084039091018152608490920183526020820180516001600160e01b03166323b872dd60e01b1790529151600092839290881691613a9b9190614b3c565b6000604051808303816000865af19150503d8060008114613ad8576040519150601f19603f3d011682016040523d82523d6000602084013e613add565b606091505b5091509150818015613b07575080511580613b07575080806020019051810190613b079190614b58565b613b5f5760405162461bcd60e51b8152602060048201526024808201527f5472616e7366657248656c7065723a205452414e534645525f46524f4d5f46416044820152631253115160e21b6064820152608401610c6c565b505050505050565b6001600160a01b03831660009081526001602052604081208054839290613b8f908490614713565b90915550506001600160a01b03821660009081526001602052604081208054839290613bbc90849061472a565b92505081905550816001600160a01b0316836001600160a01b03167fddf252ad1be2c89b69c2b068fc378daa952ba7f163c4a11628f55a4df523b3ef83604051613a2a91815260200190565b6000818360600151613c1a919061476c565b83604001518460200151613c2e919061476c565b613c38919061472a565b83608001518460600151613c4c919061476c565b838560200151613c5c919061476c565b613c66919061472a565b8451613c7291906147ed565b613c7c919061478b565b9392505050565b600080600080613c92856137e6565b9050600081620f424060020b87601654601754613caf919061478b565b8a60000b613cbd9190614927565b613cc79190614927565b613cd19190614927565b613cdb919061484e565b905060008760000b613cec83614246565b60000b1415613d2057601354620f424090613d1390600160301b900462ffffff168961476c565b613d1d9190614758565b90505b9097919650945092505050565b6009546000908190600290613d4c90600160201b9004820b6003614b75565b613d569190614c02565b60020b8312613dcb57600954600590613d7a90600160201b900460020b6003614b75565b60020b846002613d8a9190614927565b613d94919061478b565b613d9e919061484e565b600954613db790600a90600160201b900460020b614c02565b60020b613dc491906147ed565b9050613e05565b600954600160201b900460020b8312613e0557600954600590613df890600160201b900460020b8561478b565b613e029190614758565b90505b620f4240613e13828661476c565b613e1d9190614758565b949350505050565b6000613e666040518060c001604052806000815260200160008152602001600081526020016000815260200160008152602001600063ffffffff1681525090565b336000908152601a60209081526040808320815160c081018352815481526001820154938101939093526002810154918301919091526003810154606083018190526004820154608084015260059091015463ffffffff1660a0830152909190613ed190879061476c565b82604001518360200151613ee5919061476c565b613eef919061472a565b82608001518360600151613f03919061476c565b878460200151613f13919061476c565b613f1d919061472a565b8351613f2991906147ed565b613f33919061478b565b905060007f000000000000000000000000000000000000000000000000000000000000000060ff1683608001518460600151613f6f919061476c565b84604001518560200151613f83919061476c565b613f8d919061472a565b613f979190614758565b90506000613fc860ff7f00000000000000000000000000000000000000000000000000000000000000001688614758565b601354909150600090620f424090613feb90600160581b900461ffff168a61476c565b613ff59190614758565b905060008482614005858761472a565b61400f919061472a565b614019919061478b565b9050600081131561408c5761402d81611194565b336000908152601a6020908152604091829020825160c08101845281548152600182015492810192909252600281015492820192909252600382015460608201526004820154608082015260059091015463ffffffff1660a082015295505b50989397509295505050505050565b601354600160501b900460ff161561410b576000620f42406140c06203d0908461476c565b6140ca9190614758565b905080601460008282546140de919061472a565b909155506140ee9050818361478b565b601560008282546140ff91906147ed565b90915550613707915050565b806015600082825461411d91906147ed565b909155505050565b601354600160501b900460ff16156141a0576000620f424061414a6203d0908561476c565b6141549190614758565b90508060146000828254614168919061472a565b90915550829050614179828561478b565b614183919061478b565b6015600082825461419491906147ed565b909155506141c1915050565b6141aa818361478b565b601560008282546141bb91906147ed565b90915550505b5050565b806000808282546141d6919061472a565b90915550506001600160a01b0382166000908152600160205260408120805483929061420390849061472a565b90915550506040518181526001600160a01b038316906000907fddf252ad1be2c89b69c2b068fc378daa952ba7f163c4a11628f55a4df523b3ef906020016138ae565b600b54600090431461434c57600d8054601055600e8054601155600f80546012805460ff80841660ff1992831617909255600a8054909655600b8054909555600c80549283169382169390931790935543938490559386905592169091556142b090600190614713565b600e541461430857600d8054601055600e8054601155600f80546012805460ff80841660ff1992831617909255600a54909555600b54909355600c5490921692909116919091179055614304600143614713565b600e555b614313600243614713565b6011541461434c57600d54601055600e54601155600f546012805460ff191660ff909216919091179055614348600243614713565b6011555b600a5460009061435c908461478b565b60105490915060009061436f908561478b565b60135490915060020b82138061439057506013546301000000900460020b81135b156143ad575050600c805460ff1916600190811790915592915050565b6013546143bc9060020b614c3c565b60020b8212806143e357506013546143dd906301000000900460020b614c3c565b60020b81125b15614400575050600c805460ff191660ff17905550600019919050565b5050600f5460000b92915050565b80356001600160a01b038116811461442557600080fd5b919050565b6000806040838503121561443d57600080fd5b8235915061444d6020840161440e565b90509250929050565b60005b83811015614471578181015183820152602001614459565b83811115614480576000848401525b50505050565b60208152600082518060208401526144a5816040850160208701614456565b601f01601f19169190910160400192915050565b600080604083850312156144cc57600080fd5b6144d58361440e565b946020939093013593505050565b6000602082840312156144f557600080fd5b81358060020b8114613c7c57600080fd5b60006020828403121561451857600080fd5b5035919050565b801515811461370757600080fd5b60006020828403121561453f57600080fd5b8135613c7c8161451f565b60008060006060848603121561455f57600080fd5b6145688461440e565b92506145766020850161440e565b9150604084013590509250925092565b60006020828403121561459857600080fd5b813561ffff81168114613c7c57600080fd5b6000602082840312156145bc57600080fd5b613c7c8261440e565b600080604083850312156145d857600080fd5b6145e18361440e565b915061444d6020840161440e565b60008060006060848603121561460457600080fd5b505081359360208301359350604090920135919050565b803560ff8116811461442557600080fd5b60006020828403121561463e57600080fd5b613c7c8261461b565b60006020828403121561465957600080fd5b813562ffffff81168114613c7c57600080fd5b600080600080600080600060e0888a03121561468757600080fd5b6146908861440e565b965061469e6020890161440e565b955060408801359450606088013593506146ba6080890161461b565b925060a0880135915060c0880135905092959891949750929550565b6020808252600d908201526c73746174652069736e2774203160981b604082015260600190565b634e487b7160e01b600052601160045260246000fd5b600082821015614725576147256146fd565b500390565b6000821982111561473d5761473d6146fd565b500190565b634e487b7160e01b600052601260045260246000fd5b60008261476757614767614742565b500490565b6000816000190483118215151615614786576147866146fd565b500290565b60008083128015600160ff1b8501841216156147a9576147a96146fd565b6001600160ff1b03840183138116156147c4576147c46146fd565b50500390565b6020808252600990820152683337b93134b23232b760b91b604082015260600190565b600080821280156001600160ff1b038490038513161561480f5761480f6146fd565b600160ff1b8390038412811615614828576148286146fd565b50500190565b6020808252600690820152651b1bd8dad95960d21b604082015260600190565b60008261485d5761485d614742565b600160ff1b821460001984141615614877576148776146fd565b500590565b60208082526015908201527412195919d95e08151c9859194e8811561412549151605a1b604082015260600190565b6020808252601d908201527f73696e676c6520616d6f756e74206f766572206e6574202a2072617465000000604082015260600190565b60208082526025908201527f706f6f6c206e657420616d6f756e74206d75737420736d616c6c207468616e20604082015264706172616d60d81b606082015260800190565b60006001600160ff1b038184138284138082168684048611161561494d5761494d6146fd565b600160ff1b600087128281168783058912161561496c5761496c6146fd565b60008712925087820587128484161615614988576149886146fd565b8785058712818416161561499e5761499e6146fd565b505050929093029392505050565b600080600080608085870312156149c257600080fd5b505082516020840151604085015160609095015191969095509092509050565b600181815b80851115614a1d578160001904821115614a0357614a036146fd565b80851615614a1057918102915b93841c93908002906149e7565b509250929050565b600082614a3457506001610e98565b81614a4157506000610e98565b8160018114614a575760028114614a6157614a7d565b6001915050610e98565b60ff841115614a7257614a726146fd565b50506001821b610e98565b5060208310610133831016604e8410600b8410161715614aa0575081810a610e98565b614aaa83836149e2565b8060001904821115614abe57614abe6146fd565b029392505050565b6000613c7c60ff841683614a25565b600081810b607f19811415614aec57614aec6146fd565b60000392915050565b6000600019821415614b0957614b096146fd565b5060010190565b600063ffffffff80831681851681830481118215151615614b3357614b336146fd565b02949350505050565b60008251614b4e818460208701614456565b9190910192915050565b600060208284031215614b6a57600080fd5b8151613c7c8161451f565b60008160020b8360020b627fffff600082136000841383830485118282161615614ba157614ba16146fd565b627fffff196000851282811687830587121615614bc057614bc06146fd565b60008712925085820587128484161615614bdc57614bdc6146fd565b85850587128184161615614bf257614bf26146fd565b5050509290910295945050505050565b60008160020b8360020b80614c1957614c19614742565b627fffff19821460001982141615614c3357614c336146fd565b90059392505050565b60008160020b627fffff19811415614aec57614aec6146fd56fe303db7636b0e071f088d2cd5e8463efe513531272d61a18739b21053f6d7b430a264697066735822122049995ec31ef171d209babb556a1bd95fb9acdd02b611c7fd38d294bb85424f7164736f6c634300080c0033",
    "sourcePath": "d:/contract/hedgex/Single.sol",
    "compiler": {
        "name": "solc",
        "version": "0.8.12+commit.f00d7308"
    },
    "functionHashes": {
        "DOMAIN_SEPARATOR()": "3644e515",
        "PERMIT_TYPEHASH()": "30adf81f",
        "R0()": "8d73d86a",
        "R1()": "b22dd2ca",
        "R2()": "fee2cb05",
        "acceptSetter()": "5f8e422f",
        "addLiquidity(uint256,address)": "c95f9d0e",
        "allowance(address,address)": "dd62ed3e",
        "amountDecimal()": "2be90282",
        "approve(address,uint256)": "095ea7b3",
        "balanceOf(address)": "70a08231",
        "canAddLiquidity()": "8b0af0fa",
        "canOpen()": "ffaeb582",
        "closeLong(uint256,uint256,uint256)": "90edbeb0",
        "closeShort(uint256,uint256,uint256)": "807ca353",
        "dailyInterestRateBase()": "8967b694",
        "decimals()": "313ce567",
        "deltaR0Limit()": "5dd535ad",
        "deltaR2Limit()": "d421fefc",
        "deltaRSlidePriceRate()": "de87861f",
        "detectSlide(address,address)": "ddcb04c2",
        "divConst()": "7e4856c4",
        "explosive(address,address)": "89d408ff",
        "explosivePool()": "3e31fb45",
        "feeDivide()": "d375454f",
        "feeOn()": "4f335d0a",
        "feeRate()": "978bbdb9",
        "feeTo()": "017e7e58",
        "feedPrice()": "a04eecae",
        "forceCloseAccount(address,address)": "6422e08f",
        "getLatestPrice()": "8e15f473",
        "getPoolNet()": "7bb71a97",
        "getPoolPosition()": "73e6054b",
        "interestRewardRate()": "01bcc908",
        "isStart()": "8a55d36e",
        "keepMarginScale()": "303c0a3b",
        "leverage()": "2c86d98e",
        "minPool()": "2678b8fd",
        "name()": "06fdde03",
        "nonces(address)": "7ecebe00",
        "openLong(uint256,uint256,uint256)": "6c2ee359",
        "openShort(uint256,uint256,uint256)": "71b31707",
        "owner()": "8da5cb5b",
        "permit(address,address,uint256,uint256,uint8,bytes32,bytes32)": "d505accf",
        "poolExplosivePrice()": "33d6f1f7",
        "poolLeftAmountRate()": "ce8ad1d2",
        "poolLongAmount()": "e5984319",
        "poolLongPrice()": "994af3ae",
        "poolNetAmountRateLimitOpen()": "cd8bb6cd",
        "poolNetAmountRateLimitPrice()": "1cce9103",
        "poolShortAmount()": "8e406892",
        "poolShortPrice()": "971059fb",
        "poolState()": "641ad8a9",
        "rechargeMargin(uint256)": "11ce83f8",
        "removeLiquidity(uint256,address)": "05fe138b",
        "setCanAddLiquidity(bool)": "fa507445",
        "setCanOpen(bool)": "0def3ead",
        "setDeltaR0Limit(int24)": "3acb7bb2",
        "setDeltaR2Limit(int24)": "0b399758",
        "setDeltaRSlidePriceRate(uint24)": "c26c9aff",
        "setFeeOn(bool)": "fc4064b3",
        "setFeeRate(uint16)": "29ff0773",
        "setFeeTo(address)": "f46901ed",
        "setFeedPrice(address)": "c669c32c",
        "setKeepMarginScale(uint8)": "8632d4ab",
        "setPoolNetAmountRateLimitOpen(int24)": "bedc409b",
        "setPoolNetAmountRateLimitPrice(int24)": "d1ad24be",
        "singleCloseLimitRate()": "7aaae950",
        "singleOpenLimitRate()": "5d0291ac",
        "sumFee()": "190b065f",
        "symbol()": "95d89b41",
        "token0()": "0dfe1681",
        "token0Decimal()": "9ddc230a",
        "totalPool()": "ecfb49a3",
        "totalSupply()": "18160ddd",
        "traders(address)": "92a88fa2",
        "transfer(address,uint256)": "a9059cbb",
        "transferFrom(address,address,uint256)": "23b872dd",
        "transferOwner(address)": "4fb2e45d",
        "withdrawFee()": "e941fa78",
        "withdrawMargin(uint256)": "0cea7534"
    },
    "gasEstimates": {
        "creation": {
            "codeDepositCost": "3925600",
            "executionCost": "infinite",
            "totalCost": "infinite"
        },
        "external": {
            "DOMAIN_SEPARATOR()": "infinite",
            "PERMIT_TYPEHASH()": "351",
            "R0()": "6658",
            "R1()": "6723",
            "R2()": "6722",
            "acceptSetter()": "50915",
            "addLiquidity(uint256,address)": "infinite",
            "allowance(address,address)": "infinite",
            "amountDecimal()": "infinite",
            "approve(address,uint256)": "24686",
            "balanceOf(address)": "2653",
            "canAddLiquidity()": "2395",
            "canOpen()": "2503",
            "closeLong(uint256,uint256,uint256)": "infinite",
            "closeShort(uint256,uint256,uint256)": "infinite",
            "dailyInterestRateBase()": "317",
            "decimals()": "infinite",
            "deltaR0Limit()": "2454",
            "deltaR2Limit()": "2464",
            "deltaRSlidePriceRate()": "2441",
            "detectSlide(address,address)": "infinite",
            "divConst()": "337",
            "explosive(address,address)": "infinite",
            "explosivePool()": "infinite",
            "feeDivide()": "315",
            "feeOn()": "2395",
            "feeRate()": "2486",
            "feeTo()": "2396",
            "feedPrice()": "2437",
            "forceCloseAccount(address,address)": "infinite",
            "getLatestPrice()": "infinite",
            "getPoolNet()": "infinite",
            "getPoolPosition()": "12981",
            "interestRewardRate()": "296",
            "isStart()": "2467",
            "keepMarginScale()": "2464",
            "leverage()": "infinite",
            "minPool()": "infinite",
            "name()": "infinite",
            "nonces(address)": "2674",
            "openLong(uint256,uint256,uint256)": "infinite",
            "openShort(uint256,uint256,uint256)": "infinite",
            "owner()": "2438",
            "permit(address,address,uint256,uint256,uint8,bytes32,bytes32)": "infinite",
            "poolExplosivePrice()": "2386",
            "poolLeftAmountRate()": "271",
            "poolLongAmount()": "2428",
            "poolLongPrice()": "2362",
            "poolNetAmountRateLimitOpen()": "2487",
            "poolNetAmountRateLimitPrice()": "2450",
            "poolShortAmount()": "2451",
            "poolShortPrice()": "2429",
            "poolState()": "2398",
            "rechargeMargin(uint256)": "infinite",
            "removeLiquidity(uint256,address)": "infinite",
            "setCanAddLiquidity(bool)": "26799",
            "setCanOpen(bool)": "26802",
            "setDeltaR0Limit(int24)": "26777",
            "setDeltaR2Limit(int24)": "26722",
            "setDeltaRSlidePriceRate(uint24)": "26747",
            "setFeeOn(bool)": "26821",
            "setFeeRate(uint16)": "26731",
            "setFeeTo(address)": "26799",
            "setFeedPrice(address)": "26823",
            "setKeepMarginScale(uint8)": "26783",
            "setPoolNetAmountRateLimitOpen(int24)": "26721",
            "setPoolNetAmountRateLimitPrice(int24)": "26748",
            "singleCloseLimitRate()": "293",
            "singleOpenLimitRate()": "316",
            "sumFee()": "2386",
            "symbol()": "infinite",
            "token0()": "infinite",
            "token0Decimal()": "infinite",
            "totalPool()": "2361",
            "totalSupply()": "2364",
            "traders(address)": "13292",
            "transfer(address,uint256)": "51206",
            "transferFrom(address,address,uint256)": "infinite",
            "transferOwner(address)": "26801",
            "withdrawFee()": "infinite",
            "withdrawMargin(uint256)": "infinite"
        },
        "internal": {
            "feeCharge(uint256)": "51157",
            "feeCharge(uint256,int256)": "infinite",
            "getAccountNet(struct HedgexSingle.Trader memory)": "infinite",
            "getAccountNet(struct HedgexSingle.Trader memory,uint256)": "infinite",
            "getDeltaPriceByR(int256)": "infinite",
            "getPoolNet(uint256)": "infinite",
            "judegOpen(uint256,uint256)": "infinite",
            "poolLimitTrade(int8,uint256)": "infinite",
            "slideTradePrice(uint256,int256)": "infinite"
        }
    }
}