{
    "contractName": "HedgexSingle",
    "abi": [
        {
            "inputs": [
                {
                    "internalType": "address",
                    "name": "_token0",
                    "type": "address"
                },
                {
                    "internalType": "address",
                    "name": "_feedPrice",
                    "type": "address"
                },
                {
                    "internalType": "uint256",
                    "name": "_feedPriceDecimal",
                    "type": "uint256"
                },
                {
                    "internalType": "uint256",
                    "name": "_minStartPool",
                    "type": "uint256"
                },
                {
                    "internalType": "uint8",
                    "name": "_leverage",
                    "type": "uint8"
                },
                {
                    "internalType": "int8",
                    "name": "_amountDecimal",
                    "type": "int8"
                }
            ],
            "stateMutability": "nonpayable",
            "type": "constructor"
        },
        {
            "anonymous": false,
            "inputs": [
                {
                    "indexed": true,
                    "internalType": "address",
                    "name": "owner",
                    "type": "address"
                },
                {
                    "indexed": true,
                    "internalType": "address",
                    "name": "spender",
                    "type": "address"
                },
                {
                    "indexed": false,
                    "internalType": "uint256",
                    "name": "value",
                    "type": "uint256"
                }
            ],
            "name": "Approval",
            "type": "event"
        },
        {
            "anonymous": false,
            "inputs": [
                {
                    "indexed": true,
                    "internalType": "address",
                    "name": "sender",
                    "type": "address"
                },
                {
                    "indexed": false,
                    "internalType": "uint256",
                    "name": "amount",
                    "type": "uint256"
                }
            ],
            "name": "Burn",
            "type": "event"
        },
        {
            "anonymous": false,
            "inputs": [
                {
                    "indexed": true,
                    "internalType": "address",
                    "name": "user",
                    "type": "address"
                },
                {
                    "indexed": false,
                    "internalType": "uint256",
                    "name": "amount",
                    "type": "uint256"
                },
                {
                    "indexed": false,
                    "internalType": "uint256",
                    "name": "price",
                    "type": "uint256"
                }
            ],
            "name": "Explosive",
            "type": "event"
        },
        {
            "anonymous": false,
            "inputs": [
                {
                    "indexed": true,
                    "internalType": "address",
                    "name": "sender",
                    "type": "address"
                },
                {
                    "indexed": false,
                    "internalType": "uint256",
                    "name": "amount",
                    "type": "uint256"
                }
            ],
            "name": "Mint",
            "type": "event"
        },
        {
            "anonymous": false,
            "inputs": [
                {
                    "indexed": true,
                    "internalType": "address",
                    "name": "sender",
                    "type": "address"
                },
                {
                    "indexed": false,
                    "internalType": "uint256",
                    "name": "amount",
                    "type": "uint256"
                }
            ],
            "name": "Recharge",
            "type": "event"
        },
        {
            "anonymous": false,
            "inputs": [
                {
                    "indexed": true,
                    "internalType": "address",
                    "name": "user",
                    "type": "address"
                },
                {
                    "indexed": false,
                    "internalType": "uint256",
                    "name": "amount",
                    "type": "uint256"
                },
                {
                    "indexed": false,
                    "internalType": "uint256",
                    "name": "price",
                    "type": "uint256"
                }
            ],
            "name": "TakeInterest",
            "type": "event"
        },
        {
            "anonymous": false,
            "inputs": [
                {
                    "indexed": true,
                    "internalType": "address",
                    "name": "sender",
                    "type": "address"
                },
                {
                    "indexed": false,
                    "internalType": "int8",
                    "name": "direction",
                    "type": "int8"
                },
                {
                    "indexed": false,
                    "internalType": "uint256",
                    "name": "amount",
                    "type": "uint256"
                },
                {
                    "indexed": false,
                    "internalType": "uint256",
                    "name": "price",
                    "type": "uint256"
                }
            ],
            "name": "Trade",
            "type": "event"
        },
        {
            "anonymous": false,
            "inputs": [
                {
                    "indexed": true,
                    "internalType": "address",
                    "name": "from",
                    "type": "address"
                },
                {
                    "indexed": true,
                    "internalType": "address",
                    "name": "to",
                    "type": "address"
                },
                {
                    "indexed": false,
                    "internalType": "uint256",
                    "name": "value",
                    "type": "uint256"
                }
            ],
            "name": "Transfer",
            "type": "event"
        },
        {
            "anonymous": false,
            "inputs": [
                {
                    "indexed": true,
                    "internalType": "address",
                    "name": "sender",
                    "type": "address"
                },
                {
                    "indexed": false,
                    "internalType": "uint256",
                    "name": "amount",
                    "type": "uint256"
                }
            ],
            "name": "Withdraw",
            "type": "event"
        },
        {
            "inputs": [],
            "name": "DOMAIN_SEPARATOR",
            "outputs": [
                {
                    "internalType": "bytes32",
                    "name": "",
                    "type": "bytes32"
                }
            ],
            "stateMutability": "view",
            "type": "function"
        },
        {
            "inputs": [],
            "name": "PERMIT_TYPEHASH",
            "outputs": [
                {
                    "internalType": "bytes32",
                    "name": "",
                    "type": "bytes32"
                }
            ],
            "stateMutability": "view",
            "type": "function"
        },
        {
            "inputs": [
                {
                    "internalType": "uint256",
                    "name": "amount",
                    "type": "uint256"
                },
                {
                    "internalType": "address",
                    "name": "to",
                    "type": "address"
                }
            ],
            "name": "addLiquidity",
            "outputs": [],
            "stateMutability": "nonpayable",
            "type": "function"
        },
        {
            "inputs": [
                {
                    "internalType": "address",
                    "name": "",
                    "type": "address"
                },
                {
                    "internalType": "address",
                    "name": "",
                    "type": "address"
                }
            ],
            "name": "allowance",
            "outputs": [
                {
                    "internalType": "uint256",
                    "name": "",
                    "type": "uint256"
                }
            ],
            "stateMutability": "view",
            "type": "function"
        },
        {
            "inputs": [],
            "name": "amountDecimal",
            "outputs": [
                {
                    "internalType": "int8",
                    "name": "",
                    "type": "int8"
                }
            ],
            "stateMutability": "view",
            "type": "function"
        },
        {
            "inputs": [
                {
                    "internalType": "address",
                    "name": "spender",
                    "type": "address"
                },
                {
                    "internalType": "uint256",
                    "name": "value",
                    "type": "uint256"
                }
            ],
            "name": "approve",
            "outputs": [
                {
                    "internalType": "bool",
                    "name": "",
                    "type": "bool"
                }
            ],
            "stateMutability": "nonpayable",
            "type": "function"
        },
        {
            "inputs": [
                {
                    "internalType": "address",
                    "name": "",
                    "type": "address"
                }
            ],
            "name": "balanceOf",
            "outputs": [
                {
                    "internalType": "uint256",
                    "name": "",
                    "type": "uint256"
                }
            ],
            "stateMutability": "view",
            "type": "function"
        },
        {
            "inputs": [
                {
                    "internalType": "uint256",
                    "name": "priceExp",
                    "type": "uint256"
                },
                {
                    "internalType": "uint256",
                    "name": "amount",
                    "type": "uint256"
                }
            ],
            "name": "closeLong",
            "outputs": [],
            "stateMutability": "nonpayable",
            "type": "function"
        },
        {
            "inputs": [
                {
                    "internalType": "uint256",
                    "name": "priceExp",
                    "type": "uint256"
                },
                {
                    "internalType": "uint256",
                    "name": "amount",
                    "type": "uint256"
                }
            ],
            "name": "closeShort",
            "outputs": [],
            "stateMutability": "nonpayable",
            "type": "function"
        },
        {
            "inputs": [],
            "name": "dailyInterestRateBase",
            "outputs": [
                {
                    "internalType": "uint8",
                    "name": "",
                    "type": "uint8"
                }
            ],
            "stateMutability": "view",
            "type": "function"
        },
        {
            "inputs": [],
            "name": "decimals",
            "outputs": [
                {
                    "internalType": "uint8",
                    "name": "",
                    "type": "uint8"
                }
            ],
            "stateMutability": "view",
            "type": "function"
        },
        {
            "inputs": [
                {
                    "internalType": "address",
                    "name": "account",
                    "type": "address"
                },
                {
                    "internalType": "address",
                    "name": "to",
                    "type": "address"
                }
            ],
            "name": "detectSlide",
            "outputs": [],
            "stateMutability": "nonpayable",
            "type": "function"
        },
        {
            "inputs": [],
            "name": "divConst",
            "outputs": [
                {
                    "internalType": "uint16",
                    "name": "",
                    "type": "uint16"
                }
            ],
            "stateMutability": "view",
            "type": "function"
        },
        {
            "inputs": [
                {
                    "internalType": "address",
                    "name": "account",
                    "type": "address"
                },
                {
                    "internalType": "address",
                    "name": "to",
                    "type": "address"
                }
            ],
            "name": "explosive",
            "outputs": [],
            "stateMutability": "nonpayable",
            "type": "function"
        },
        {
            "inputs": [],
            "name": "feeDivide",
            "outputs": [
                {
                    "internalType": "uint16",
                    "name": "",
                    "type": "uint16"
                }
            ],
            "stateMutability": "view",
            "type": "function"
        },
        {
            "inputs": [],
            "name": "feeOn",
            "outputs": [
                {
                    "internalType": "bool",
                    "name": "",
                    "type": "bool"
                }
            ],
            "stateMutability": "view",
            "type": "function"
        },
        {
            "inputs": [],
            "name": "feeRate",
            "outputs": [
                {
                    "internalType": "uint16",
                    "name": "",
                    "type": "uint16"
                }
            ],
            "stateMutability": "view",
            "type": "function"
        },
        {
            "inputs": [],
            "name": "feedPrice",
            "outputs": [
                {
                    "internalType": "contract AggregatorV3Interface",
                    "name": "",
                    "type": "address"
                }
            ],
            "stateMutability": "view",
            "type": "function"
        },
        {
            "inputs": [],
            "name": "feedPriceDecimal",
            "outputs": [
                {
                    "internalType": "uint256",
                    "name": "",
                    "type": "uint256"
                }
            ],
            "stateMutability": "view",
            "type": "function"
        },
        {
            "inputs": [],
            "name": "getLatestPrice",
            "outputs": [
                {
                    "internalType": "uint256",
                    "name": "",
                    "type": "uint256"
                }
            ],
            "stateMutability": "view",
            "type": "function"
        },
        {
            "inputs": [],
            "name": "getPoolNet",
            "outputs": [
                {
                    "internalType": "int256",
                    "name": "",
                    "type": "int256"
                }
            ],
            "stateMutability": "view",
            "type": "function"
        },
        {
            "inputs": [
                {
                    "internalType": "address",
                    "name": "_token0",
                    "type": "address"
                },
                {
                    "internalType": "address",
                    "name": "_feedPrice",
                    "type": "address"
                },
                {
                    "internalType": "uint256",
                    "name": "_feedPriceDecimal",
                    "type": "uint256"
                },
                {
                    "internalType": "uint256",
                    "name": "_minStartPool",
                    "type": "uint256"
                },
                {
                    "internalType": "uint8",
                    "name": "_leverage",
                    "type": "uint8"
                },
                {
                    "internalType": "int8",
                    "name": "_amountDecimal",
                    "type": "int8"
                }
            ],
            "name": "initialize",
            "outputs": [],
            "stateMutability": "nonpayable",
            "type": "function"
        },
        {
            "inputs": [],
            "name": "interestRewardRate",
            "outputs": [
                {
                    "internalType": "uint16",
                    "name": "",
                    "type": "uint16"
                }
            ],
            "stateMutability": "view",
            "type": "function"
        },
        {
            "inputs": [],
            "name": "isStart",
            "outputs": [
                {
                    "internalType": "bool",
                    "name": "",
                    "type": "bool"
                }
            ],
            "stateMutability": "view",
            "type": "function"
        },
        {
            "inputs": [],
            "name": "leverage",
            "outputs": [
                {
                    "internalType": "uint8",
                    "name": "",
                    "type": "uint8"
                }
            ],
            "stateMutability": "view",
            "type": "function"
        },
        {
            "inputs": [],
            "name": "minPool",
            "outputs": [
                {
                    "internalType": "uint256",
                    "name": "",
                    "type": "uint256"
                }
            ],
            "stateMutability": "view",
            "type": "function"
        },
        {
            "inputs": [],
            "name": "name",
            "outputs": [
                {
                    "internalType": "string",
                    "name": "",
                    "type": "string"
                }
            ],
            "stateMutability": "view",
            "type": "function"
        },
        {
            "inputs": [
                {
                    "internalType": "address",
                    "name": "",
                    "type": "address"
                }
            ],
            "name": "nonces",
            "outputs": [
                {
                    "internalType": "uint256",
                    "name": "",
                    "type": "uint256"
                }
            ],
            "stateMutability": "view",
            "type": "function"
        },
        {
            "inputs": [
                {
                    "internalType": "uint256",
                    "name": "priceExp",
                    "type": "uint256"
                },
                {
                    "internalType": "uint256",
                    "name": "amount",
                    "type": "uint256"
                },
                {
                    "internalType": "uint256",
                    "name": "rechargeAmount",
                    "type": "uint256"
                }
            ],
            "name": "openLong",
            "outputs": [],
            "stateMutability": "nonpayable",
            "type": "function"
        },
        {
            "inputs": [
                {
                    "internalType": "uint256",
                    "name": "priceExp",
                    "type": "uint256"
                },
                {
                    "internalType": "uint256",
                    "name": "amount",
                    "type": "uint256"
                },
                {
                    "internalType": "uint256",
                    "name": "rechargeAmount",
                    "type": "uint256"
                }
            ],
            "name": "openShort",
            "outputs": [],
            "stateMutability": "nonpayable",
            "type": "function"
        },
        {
            "inputs": [
                {
                    "internalType": "address",
                    "name": "owner",
                    "type": "address"
                },
                {
                    "internalType": "address",
                    "name": "spender",
                    "type": "address"
                },
                {
                    "internalType": "uint256",
                    "name": "value",
                    "type": "uint256"
                },
                {
                    "internalType": "uint256",
                    "name": "deadline",
                    "type": "uint256"
                },
                {
                    "internalType": "uint8",
                    "name": "v",
                    "type": "uint8"
                },
                {
                    "internalType": "bytes32",
                    "name": "r",
                    "type": "bytes32"
                },
                {
                    "internalType": "bytes32",
                    "name": "s",
                    "type": "bytes32"
                }
            ],
            "name": "permit",
            "outputs": [],
            "stateMutability": "nonpayable",
            "type": "function"
        },
        {
            "inputs": [],
            "name": "poolLongAmount",
            "outputs": [
                {
                    "internalType": "uint256",
                    "name": "",
                    "type": "uint256"
                }
            ],
            "stateMutability": "view",
            "type": "function"
        },
        {
            "inputs": [],
            "name": "poolLongPrice",
            "outputs": [
                {
                    "internalType": "uint256",
                    "name": "",
                    "type": "uint256"
                }
            ],
            "stateMutability": "view",
            "type": "function"
        },
        {
            "inputs": [],
            "name": "poolShortAmount",
            "outputs": [
                {
                    "internalType": "uint256",
                    "name": "",
                    "type": "uint256"
                }
            ],
            "stateMutability": "view",
            "type": "function"
        },
        {
            "inputs": [],
            "name": "poolShortPrice",
            "outputs": [
                {
                    "internalType": "uint256",
                    "name": "",
                    "type": "uint256"
                }
            ],
            "stateMutability": "view",
            "type": "function"
        },
        {
            "inputs": [
                {
                    "internalType": "uint256",
                    "name": "amount",
                    "type": "uint256"
                }
            ],
            "name": "rechargeMargin",
            "outputs": [],
            "stateMutability": "nonpayable",
            "type": "function"
        },
        {
            "inputs": [
                {
                    "internalType": "uint256",
                    "name": "liquidity",
                    "type": "uint256"
                },
                {
                    "internalType": "address",
                    "name": "to",
                    "type": "address"
                }
            ],
            "name": "removeLiquidity",
            "outputs": [],
            "stateMutability": "nonpayable",
            "type": "function"
        },
        {
            "inputs": [],
            "name": "singleTradeLimitRate",
            "outputs": [
                {
                    "internalType": "uint16",
                    "name": "",
                    "type": "uint16"
                }
            ],
            "stateMutability": "view",
            "type": "function"
        },
        {
            "inputs": [],
            "name": "slideP",
            "outputs": [
                {
                    "internalType": "uint8",
                    "name": "",
                    "type": "uint8"
                }
            ],
            "stateMutability": "view",
            "type": "function"
        },
        {
            "inputs": [],
            "name": "sumFee",
            "outputs": [
                {
                    "internalType": "uint256",
                    "name": "",
                    "type": "uint256"
                }
            ],
            "stateMutability": "view",
            "type": "function"
        },
        {
            "inputs": [],
            "name": "symbol",
            "outputs": [
                {
                    "internalType": "string",
                    "name": "",
                    "type": "string"
                }
            ],
            "stateMutability": "view",
            "type": "function"
        },
        {
            "inputs": [],
            "name": "token0",
            "outputs": [
                {
                    "internalType": "address",
                    "name": "",
                    "type": "address"
                }
            ],
            "stateMutability": "view",
            "type": "function"
        },
        {
            "inputs": [],
            "name": "token0Decimal",
            "outputs": [
                {
                    "internalType": "uint256",
                    "name": "",
                    "type": "uint256"
                }
            ],
            "stateMutability": "view",
            "type": "function"
        },
        {
            "inputs": [],
            "name": "totalPool",
            "outputs": [
                {
                    "internalType": "int256",
                    "name": "",
                    "type": "int256"
                }
            ],
            "stateMutability": "view",
            "type": "function"
        },
        {
            "inputs": [],
            "name": "totalSupply",
            "outputs": [
                {
                    "internalType": "uint256",
                    "name": "",
                    "type": "uint256"
                }
            ],
            "stateMutability": "view",
            "type": "function"
        },
        {
            "inputs": [
                {
                    "internalType": "address",
                    "name": "",
                    "type": "address"
                }
            ],
            "name": "traders",
            "outputs": [
                {
                    "internalType": "int256",
                    "name": "margin",
                    "type": "int256"
                },
                {
                    "internalType": "uint256",
                    "name": "longAmount",
                    "type": "uint256"
                },
                {
                    "internalType": "uint256",
                    "name": "longPrice",
                    "type": "uint256"
                },
                {
                    "internalType": "uint256",
                    "name": "shortAmount",
                    "type": "uint256"
                },
                {
                    "internalType": "uint256",
                    "name": "shortPrice",
                    "type": "uint256"
                }
            ],
            "stateMutability": "view",
            "type": "function"
        },
        {
            "inputs": [
                {
                    "internalType": "address",
                    "name": "to",
                    "type": "address"
                },
                {
                    "internalType": "uint256",
                    "name": "value",
                    "type": "uint256"
                }
            ],
            "name": "transfer",
            "outputs": [
                {
                    "internalType": "bool",
                    "name": "",
                    "type": "bool"
                }
            ],
            "stateMutability": "nonpayable",
            "type": "function"
        },
        {
            "inputs": [
                {
                    "internalType": "address",
                    "name": "from",
                    "type": "address"
                },
                {
                    "internalType": "address",
                    "name": "to",
                    "type": "address"
                },
                {
                    "internalType": "uint256",
                    "name": "value",
                    "type": "uint256"
                }
            ],
            "name": "transferFrom",
            "outputs": [
                {
                    "internalType": "bool",
                    "name": "",
                    "type": "bool"
                }
            ],
            "stateMutability": "nonpayable",
            "type": "function"
        },
        {
            "inputs": [
                {
                    "internalType": "uint256",
                    "name": "amount",
                    "type": "uint256"
                },
                {
                    "internalType": "uint256",
                    "name": "deadline",
                    "type": "uint256"
                }
            ],
            "name": "withdrawMargin",
            "outputs": [],
            "stateMutability": "nonpayable",
            "type": "function"
        }
    ],
    "bytecode": "6101a06040523480156200001257600080fd5b50604051620033d2380380620033d283398101604081905262000035916200027b565b856001600160a01b031663313ce5676040518163ffffffff1660e01b815260040160206040518083038186803b1580156200006f57600080fd5b505afa15801562000084573d6000803e3d6000fd5b505050506040513d601f19601f82011682018060405250810190620000aa9190620002f3565b604080518082018252600c81526b48656467657853696e676c6560a01b6020918201528151808301835260018152603160f81b9082015281517f8b73c3c69bb8fe3d512ecc4cf759cc79239f7b179b0ffacaa9a75d522b39400f918101919091527fdbb8f54117374490c454ab41b80d95cf4a0c3b286124d9b83e346d854dc3efcd918101919091527fc89efdaa54c0f20c7adf612882df0950f5a951637e0307cdcb4c672f298b8bc660608201524660808201523060a082015260c00160408051601f19818403018152828252805160209182012060a05260ff9093166080526001600160a01b0380891661016052891661010081905263313ce56760e01b83529051909263313ce5679260048082019391829003018186803b158015620001d257600080fd5b505afa158015620001e7573d6000803e3d6000fd5b505050506040513d601f19601f820116820180604052508101906200020d9190620002f3565b6200021a90600a6200042d565b610120526101809390935260c09190915260ff1660e0526004805461ffff1916905560000b61014052506200043e9050565b80516001600160a01b03811681146200026457600080fd5b919050565b805160ff811681146200026457600080fd5b60008060008060008060c087890312156200029557600080fd5b620002a0876200024c565b9550620002b0602088016200024c565b94506040870151935060608701519250620002ce6080880162000269565b915060a08701518060000b8114620002e557600080fd5b809150509295509295509295565b6000602082840312156200030657600080fd5b620003118262000269565b9392505050565b634e487b7160e01b600052601160045260246000fd5b600181815b808511156200036f57816000190482111562000353576200035362000318565b808516156200036157918102915b93841c939080029062000333565b509250929050565b600082620003885750600162000427565b81620003975750600062000427565b8160018114620003b05760028114620003bb57620003db565b600191505062000427565b60ff841115620003cf57620003cf62000318565b50506001821b62000427565b5060208310610133831016604e8410600b841016171562000400575081810a62000427565b6200040c83836200032e565b806000190482111562000423576200042362000318565b0290505b92915050565b60006200031160ff84168362000377565b60805160a05160c05160e0516101005161012051610140516101605161018051612e976200053b600039600081816103330152818161170001526117900152600081816106e901526115dd015260008181610448015281816116d70152818161172401526117b40152600081816106c20152818161174f01526117e801526000818161038b01528181610951015281816109ce01528181610cbf01528181611542015281816118290152611d4f01526000818161049c0152818161081001528181610b6c0152818161255301526125a901526000818161042101526118a2015260008181610511015261196e015260006104ea0152612e976000f3fe608060405234801561001057600080fd5b50600436106102bb5760003560e01c806371b3170711610182578063978bbdb9116100e9578063d375454f116100a2578063ddcb04c21161007c578063ddcb04c214610778578063e59843191461078b578063ecfb49a314610794578063f69d91ae1461079d57600080fd5b8063d375454f14610731578063d505accf1461073a578063dd62ed3e1461074d57600080fd5b8063978bbdb9146106ac578063994af3ae146106b45780639ddc230a146106bd578063a04eecae146106e4578063a9059cbb1461070b578063c95f9d0e1461071e57600080fd5b80638a55d36e1161013b5780638a55d36e146105fd5780638e15f4731461060a5780638e4068921461061257806392a88fa21461061b57806395d89b4114610680578063971059fb146106a357600080fd5b806371b317071461059e5780637bb71a97146105b15780637e4856c4146105b95780637ecebe00146105c25780638967b694146105e257806389d408ff146105ea57600080fd5b80632678b8fd116102265780633644e515116101df5780633644e5151461050c5780633bad4bbb14610533578063416c5690146105465780634f335d0a146105595780636c2ee3591461056b57806370a082311461057e57600080fd5b80632678b8fd1461041c5780632be90282146104435780632c204fa81461047d5780632c86d98e1461049757806330adf81f146104be578063313ce567146104e557600080fd5b806311ce83f81161027857806311ce83f8146103c557806318160ddd146103d85780631865071d146103e1578063190b065f146103ea57806323b872dd146103f3578063251c073a1461040657600080fd5b806301bcc908146102c057806305fe138b146102e157806306fdde03146102f657806308c73e741461032e578063095ea7b3146103635780630dfe168114610386575b600080fd5b6102c96103e881565b60405161ffff90911681526020015b60405180910390f35b6102f46102ef366004612854565b6107b0565b005b6103216040518060400160405280600c81526020016b48656467657853696e676c6560a01b81525081565b6040516102d891906128b0565b6103557f000000000000000000000000000000000000000000000000000000000000000081565b6040519081526020016102d8565b6103766103713660046128e3565b6109b2565b60405190151581526020016102d8565b6103ad7f000000000000000000000000000000000000000000000000000000000000000081565b6040516001600160a01b0390911681526020016102d8565b6102f46103d336600461290d565b6109c9565b61035560005481565b6102c961012c81565b61035560055481565b610376610401366004612926565b610a51565b6102f4610414366004612973565b505050505050565b6103557f000000000000000000000000000000000000000000000000000000000000000081565b61046a7f000000000000000000000000000000000000000000000000000000000000000081565b60405160009190910b81526020016102d8565b610485600281565b60405160ff90911681526020016102d8565b6104857f000000000000000000000000000000000000000000000000000000000000000081565b6103557f6e71edae12b1b97f4d1f60370fef10105fa2faae0126114a169c64845d6126c981565b6104857f000000000000000000000000000000000000000000000000000000000000000081565b6103557f000000000000000000000000000000000000000000000000000000000000000081565b6102f46105413660046129e3565b610acb565b6102f46105543660046129e3565b610d25565b60045461037690610100900460ff1681565b6102f4610579366004612a05565b610ea5565b61035561058c366004612a31565b60016020526000908152604090205481565b6102f46105ac366004612a05565b6110de565b6103556112fd565b6102c961271081565b6103556105d0366004612a31565b60036020526000908152604090205481565b610485600a81565b6102f46105f8366004612a4c565b6113bc565b6004546103769060ff1681565b6103556115d8565b61035560085481565b610658610629366004612a31565b600b60205260009081526040902080546001820154600283015460038401546004909401549293919290919085565b604080519586526020860194909452928401919091526060830152608082015260a0016102d8565b610321604051806040016040528060048152602001634845585360e01b81525081565b610355600a5481565b6102c9601e81565b61035560095481565b6103557f000000000000000000000000000000000000000000000000000000000000000081565b6103ad7f000000000000000000000000000000000000000000000000000000000000000081565b6103766107193660046128e3565b611817565b6102f461072c366004612854565b611824565b6102c96105dc81565b6102f4610748366004612a76565b611910565b61035561075b366004612a4c565b600260209081526000928352604080842090915290825290205481565b6102f4610786366004612a4c565b611b3c565b61035560075481565b61035560065481565b6102f46107ab3660046129e3565b611db6565b600454829060ff161561092a5760006107c76115d8565b905060006107d482611f38565b90506000600854600754116107f8576007546008546107f39190612af6565b610808565b6008546007546108089190612af6565b9050600060ff7f00000000000000000000000000000000000000000000000000000000000000001661083a8584612b0d565b6108449190612b2c565b90508083136108915760405162461bcd60e51b81526020600482015260146024820152733732ba103732b2b2103132903837b9b4ba34b7b760611b60448201526064015b60405180910390fd5b600061089d8285612af6565b905060006108ac600a86612b2c565b9050808211156108ba578091505b6000546108c78a87612b0d565b6108d19190612b2c565b9650818711156109235760405162461bcd60e51b815260206004820152601860248201527f776974686472617720616d6f756e7420746f6f206d75636800000000000000006044820152606401610888565b5050505050505b806006600082825461093c9190612b4e565b9091555061094c90503384611f81565b6109777f0000000000000000000000000000000000000000000000000000000000000000838361200c565b60405183815233907fcc16f5dbb4873280815c1ee09dbd06736cffcc184412cf7a71a0fdb75d397ca5906020015b60405180910390a2505050565b60006109bf338484612127565b5060015b92915050565b6109f57f0000000000000000000000000000000000000000000000000000000000000000333084612189565b336000908152600b602052604081208054839290610a14908490612b8d565b909155505060405181815233907f78d9de6f3ad1cae9e0cbcbaa5267fd90f6a6728831eec42b7c147b398b2269249060200160405180910390a250565b6001600160a01b038316600090815260026020908152604080832033845290915281205460001914610ab6576001600160a01b038416600090815260026020908152604080832033845290915281208054849290610ab0908490612af6565b90915550505b610ac18484846122b1565b5060019392505050565b8042811015610b145760405162461bcd60e51b815260206004820152601560248201527412195919d95e14da5b99db194e8811561412549151605a1b6044820152606401610888565b336000908152600b60209081526040808320815160a081018352815481526001820154938101939093526002810154918301919091526003810154606083015260040154608082015290610b666115d8565b905060007f000000000000000000000000000000000000000000000000000000000000000060ff168284606001518560200151610ba39190612bce565b610bad9190612b0d565b610bb79190612b2c565b90506000828460600151610bcb9190612b0d565b84604001518560200151610bdf9190612b0d565b610be99190612bce565b84608001518560600151610bfd9190612b0d565b848660200151610c0d9190612b0d565b610c179190612bce565b8551610c239190612b8d565b610c2d9190612b4e565b90506000610c3b8383612b4e565b905060008113610c8d5760405162461bcd60e51b815260206004820152601860248201527f63616e207769746864726177206973206e6567617469766500000000000000006044820152606401610888565b8781811315610c995750805b8551610ca6908290612b4e565b336000818152600b6020526040902091909155610ce5907f0000000000000000000000000000000000000000000000000000000000000000908361200c565b60405181815233907f884edad9ce6fa2440d8a54cc123490eb96d2768479d49ff9c7366125a94243649060200160405180910390a2505050505050505050565b6000610d2f6115d8565b905082811015610d815760405162461bcd60e51b815260206004820152601960248201527f636c6f7365206c6f6e67207072696365206973206c6f776572000000000000006044820152606401610888565b336000908152600b60209081526040808320815160a081018352815481526001820154938101849052600282015492810192909252600381015460608301526004015460808201529190610dd89084908690612352565b90506000826040015184610dec9190612b4e565b610df69086612be6565b9050848360200151610e089190612af6565b336000908152600b602052604090206001015582518290610e2a908390612b8d565b610e349190612b4e565b336000908152600b602052604081209190915560088054879290610e59908490612af6565b90915550610e699050828261243c565b604080516000198152602081018790529081018590523390600080516020612e42833981519152906060015b60405180910390a2505050505050565b60045460ff16610eef5760405162461bcd60e51b815260206004820152601560248201527418dbdb9d1c9858dd081a5cc81b9bdd081cdd185c9d605a1b6044820152606401610888565b8015610efe57610efe816109c9565b6000610f086115d8565b90508381111580610f17575083155b610f635760405162461bcd60e51b815260206004820152601b60248201527f6f70656e206c6f6e6720707269636520697320746f6f206869676800000000006044820152606401610888565b336000908152600b60209081526040808320815160a081018352815481526001820154938101939093526002810154918301919091526003810154606083015260040154608082015290610fb78386612b0d565b90506000610fc68385846124d8565b9050858360200151610fd89190612bce565b336000908152600b6020908152604090912060010191909155830151610fff908790612bce565b82846040015185602001516110149190612b0d565b61101e9190612bce565b6110289190612b2c565b336000908152600b60205260409020600201558251611048908290612b4e565b336000908152600b60205260409020556008546110658782612bce565b6008556110728782612bce565b83600a54836110819190612b0d565b61108b9190612bce565b6110959190612b2c565b600a556110a1826126b5565b6040805160018152602081018990529081018690523390600080516020612e42833981519152906060015b60405180910390a25050505050505050565b60045460ff166111285760405162461bcd60e51b815260206004820152601560248201527418dbdb9d1c9858dd081a5cc81b9bdd081cdd185c9d605a1b6044820152606401610888565b801561113757611137816109c9565b60006111416115d8565b9050838110156111935760405162461bcd60e51b815260206004820152601b60248201527f6f70656e2073686f727420707269636520697320746f6f206c6f7700000000006044820152606401610888565b336000908152600b60209081526040808320815160a0810183528154815260018201549381019390935260028101549183019190915260038101546060830152600401546080820152906111e78386612b0d565b905060006111f68385846124d8565b90508583606001516112089190612bce565b336000908152600b6020526040902060030155606083015161122b908790612bce565b82846080015185606001516112409190612b0d565b61124a9190612bce565b6112549190612b2c565b336000908152600b60205260409020600401558251611274908290612b4e565b336000908152600b60205260409020556007546112918782612bce565b60075561129e8782612bce565b83600954836112ad9190612b0d565b6112b79190612bce565b6112c19190612b2c565b6009556112cd826126b5565b604080516000198152602081018990529081018690523390600080516020612e42833981519152906060016110cc565b6000806113086115d8565b905060008160085461131a9190612b0d565b60095460075461132a9190612b0d565b6113349190612bce565b600a546008546113449190612b0d565b836007546113529190612b0d565b61135c9190612bce565b6006546113699190612b8d565b6113739190612b4e565b9050600081136109c35760405162461bcd60e51b81526020600482015260146024820152733732ba103732b2b2103132903837b9b4ba34b7b760611b6044820152606401610888565b6001600160a01b0382166000908152600b60209081526040808320815160a0810183528154815260018201549381019390935260028101549183019190915260038101546060830181905260049091015460808301819052919291601e916114249190612b0d565b836040015184602001516114389190612b0d565b6114429190612bce565b61144c9190612b2c565b905060006114586115d8565b90506000611466848361273c565b9050828113156114b15760405162461bcd60e51b815260206004820152601660248201527510d85b9d081b9bdd08189948195e1c1b1bdcda5d995960521b6044820152606401610888565b6001600160a01b0386166000908152600b602090815260408220828155600181018390556002810183905560038101839055600401919091558401511561150e578360200151600860008282546115089190612af6565b90915550505b6060840151156115345783606001516007600082825461152e9190612af6565b90915550505b600081131561156d576115687f0000000000000000000000000000000000000000000000000000000000000000868361200c565b611585565b806006600082825461157f9190612b8d565b90915550505b856001600160a01b03167feff2642751f6d8380b39cb1211fb5d0b9965649c052b81fb8bfbd2d8c52c38fd856060015186602001516115c49190612bce565b604080519182526020820186905201610e95565b6000807f00000000000000000000000000000000000000000000000000000000000000006001600160a01b031663feaf968c6040518163ffffffff1660e01b815260040160a06040518083038186803b15801561163457600080fd5b505afa158015611648573d6000803e3d6000fd5b505050506040513d601f19601f8201168201806040525081019061166c9190612c85565b505050915050600081136116d35760405162461bcd60e51b815260206004820152602860248201527f7468652070616972207374616e64617264207072696365206d75737420626520604482015267706f73697469766560c01b6064820152608401610888565b60007f000000000000000000000000000000000000000000000000000000000000000060000b1261178e577f000000000000000000000000000000000000000000000000000000000000000061174a7f0000000000000000000000000000000000000000000000000000000000000000600a612db9565b6117747f000000000000000000000000000000000000000000000000000000000000000084612b0d565b61177e9190612b0d565b6117889190612b2c565b91505090565b7f00000000000000000000000000000000000000000000000000000000000000006117d87f0000000000000000000000000000000000000000000000000000000000000000612dc8565b6117e390600a612db9565b61180d7f000000000000000000000000000000000000000000000000000000000000000084612b0d565b61177e9190612b2c565b60006109bf3384846122b1565b6118507f0000000000000000000000000000000000000000000000000000000000000000333085612189565b600454829060ff16156118865760006118676112fd565b905080846000546118789190612b0d565b6118829190612b2c565b9150505b82600660008282546118989190612b8d565b90915550506006547f0000000000000000000000000000000000000000000000000000000000000000136118d4576004805460ff191660011790555b6118de82826127b7565b60405181815233907f0f6798a560793a54c3bcfe86a93cde1e73087d944c0ea20544137d4121396885906020016109a5565b428410156119525760405162461bcd60e51b815260206004820152600f60248201526e12195919d95e0e8811561412549151608a1b6044820152606401610888565b6001600160a01b038716600090815260036020526040812080547f0000000000000000000000000000000000000000000000000000000000000000917f6e71edae12b1b97f4d1f60370fef10105fa2faae0126114a169c64845d6126c9918b918b918b91876119c083612de8565b909155506040805160208101969096526001600160a01b0394851690860152929091166060840152608083015260a082015260c0810187905260e00160405160208183030381529060405280519060200120604051602001611a3992919061190160f01b81526002810192909252602282015260420190565b60408051601f198184030181528282528051602091820120600080855291840180845281905260ff88169284019290925260608301869052608083018590529092509060019060a0016020604051602081039080840390855afa158015611aa4573d6000803e3d6000fd5b5050604051601f1901519150506001600160a01b03811615801590611ada5750886001600160a01b0316816001600160a01b0316145b611b265760405162461bcd60e51b815260206004820152601960248201527f4865646765783a20494e56414c49445f5349474e4154555245000000000000006044820152606401610888565b611b31898989612127565b505050505050505050565b6000611b466115d8565b6001600160a01b0384166000908152600b602052604090206003810154600182015492935090911415611bbb5760405162461bcd60e51b815260206004820152601d60248201527f6e656564206c6f6e6720616e642073686f7274206e6f7420657175616c0000006044820152606401610888565b600854600754600383015460018401546000911015611c6557818311611c165760405162461bcd60e51b815260206004820152601060248201526f1a185d99481b9bc81a5b9d195c995cdd60821b6044820152606401610888565b82612710611c248483612af6565b6001870154600a90611c36908a612b0d565b611c409190612b0d565b611c4a9190612b0d565b611c549190612b2c565b611c5e9190612b2c565b9050611cf2565b828211611ca75760405162461bcd60e51b815260206004820152601060248201526f1a185d99481b9bc81a5b9d195c995cdd60821b6044820152606401610888565b81612710611cb58583612af6565b6003870154600a90611cc7908a612b0d565b611cd19190612b0d565b611cdb9190612b0d565b611ce59190612b2c565b611cef9190612b2c565b90505b6000612710611d036103e884612b0d565b611d0d9190612b2c565b905081856000016000828254611d239190612b4e565b90915550611d3390508183612b4e565b60066000828254611d449190612b8d565b90915550611d7590507f0000000000000000000000000000000000000000000000000000000000000000888361200c565b60408051838152602081018890526001600160a01b038a16917f5ff65a0fd12abffbfc04b259e6ad8ff02b8e0b6fcddee1bdb9d2e143cb6c830191016110cc565b6000611dc06115d8565b90508281111580611dcf575082155b611e1b5760405162461bcd60e51b815260206004820152601b60248201527f636c6f73652073686f72742070726963652069732068696768657200000000006044820152606401610888565b336000908152600b60209081526040808320815160a081018352815481526001820154938101939093526002810154918301919091526003810154606083018190526004909101546080830152909190611e789084908690612352565b90506000838360800151611e8c9190612b4e565b611e969086612be6565b9050848360600151611ea89190612af6565b336000908152600b602052604090206003015582518290611eca908390612b8d565b611ed49190612b4e565b336000908152600b602052604081209190915560078054879290611ef9908490612af6565b90915550611f099050828261243c565b6040805160018152602081018790529081018590523390600080516020612e4283398151915290606001610e95565b60008082600854611f499190612b0d565b600954600754611f599190612b0d565b611f639190612bce565b600a54600854611f739190612b0d565b846007546113529190612b0d565b6001600160a01b03821660009081526001602052604081208054839290611fa9908490612af6565b9250508190555080600080828254611fc19190612af6565b90915550506040518181526000906001600160a01b038416907fddf252ad1be2c89b69c2b068fc378daa952ba7f163c4a11628f55a4df523b3ef906020015b60405180910390a35050565b604080516001600160a01b038481166024830152604480830185905283518084039091018152606490920183526020820180516001600160e01b031663a9059cbb60e01b17905291516000928392908716916120689190612e03565b6000604051808303816000865af19150503d80600081146120a5576040519150601f19603f3d011682016040523d82523d6000602084013e6120aa565b606091505b50915091508180156120d45750805115806120d45750808060200190518101906120d49190612e1f565b6121205760405162461bcd60e51b815260206004820152601f60248201527f5472616e7366657248656c7065723a205452414e534645525f4641494c4544006044820152606401610888565b5050505050565b6001600160a01b0383811660008181526002602090815260408083209487168084529482529182902085905590518481527f8c5be1e5ebec7d5bd14f71427d1e84f3dd0314c0f7b2291e5b200ac8c7c3b92591015b60405180910390a3505050565b604080516001600160a01b0385811660248301528481166044830152606480830185905283518084039091018152608490920183526020820180516001600160e01b03166323b872dd60e01b17905291516000928392908816916121ed9190612e03565b6000604051808303816000865af19150503d806000811461222a576040519150601f19603f3d011682016040523d82523d6000602084013e61222f565b606091505b50915091508180156122595750805115806122595750808060200190518101906122599190612e1f565b6104145760405162461bcd60e51b8152602060048201526024808201527f5472616e7366657248656c7065723a205452414e534645525f46524f4d5f46416044820152631253115160e21b6064820152608401610888565b6001600160a01b038316600090815260016020526040812080548392906122d9908490612af6565b90915550506001600160a01b03821660009081526001602052604081208054839290612306908490612bce565b92505081905550816001600160a01b0316836001600160a01b03167fddf252ad1be2c89b69c2b068fc378daa952ba7f163c4a11628f55a4df523b3ef8360405161217c91815260200190565b60008061235e85611f38565b90508461271061237061012c84612b0d565b61237a9190612b2c565b6123849190612b2c565b8411156123ca5760405162461bcd60e51b8152602060048201526014602482015273616d6f756e74206f766572206e65742a7261746560601b6044820152606401610888565b828411156124105760405162461bcd60e51b81526020600482015260136024820152720e0dee6d2e8d2dedc40dcdee840cadcdeeaced606b1b6044820152606401610888565b612710601e61241f8787612b0d565b6124299190612b0d565b6124339190612b2c565b95945050505050565b600454610100900460ff16156124b357600061271061245d6105dc85612b0d565b6124679190612b2c565b9050806005600082825461247b9190612bce565b9091555082905061248c8285612b4e565b6124969190612b4e565b600660008282546124a79190612b8d565b909155506124d4915050565b6124bd8183612b4e565b600660008282546124ce9190612b8d565b90915550505b5050565b6000808385606001516124eb9190612b0d565b856040015186602001516124ff9190612b0d565b6125099190612bce565b8560800151866060015161251d9190612b0d565b85876020015161252d9190612b0d565b6125379190612bce565b86516125439190612b8d565b61254d9190612b4e565b905060007f000000000000000000000000000000000000000000000000000000000000000060ff16858760600151886020015161258a9190612bce565b6125949190612b0d565b61259e9190612b2c565b905060006125cf60ff7f00000000000000000000000000000000000000000000000000000000000000001686612b2c565b905060006127106125e1601e88612b0d565b6125eb9190612b2c565b90506000816125fa8587612b4e565b6126049190612b4e565b9050600081136126625760405162461bcd60e51b815260206004820152602360248201527f6c656674206d617267696e20697320657175616c206f72206c6573732074686160448201526206e20360ec1b6064820152608401610888565b828110156126a95760405162461bcd60e51b81526020600482015260146024820152730dac2e4ced2dc40d2e640dcdee840cadcdeeaced60631b6044820152606401610888565b50979650505050505050565b600454610100900460ff16156127215760006127106126d66105dc84612b0d565b6126e09190612b2c565b905080600560008282546126f49190612bce565b9091555061270490508183612b4e565b600660008282546127159190612b8d565b90915550612739915050565b80600660008282546127339190612b8d565b90915550505b50565b600081836060015161274e9190612b0d565b836040015184602001516127629190612b0d565b61276c9190612bce565b836080015184606001516127809190612b0d565b8385602001516127909190612b0d565b61279a9190612bce565b84516127a69190612b8d565b6127b09190612b4e565b9392505050565b806000808282546127c89190612bce565b90915550506001600160a01b038216600090815260016020526040812080548392906127f5908490612bce565b90915550506040518181526001600160a01b038316906000907fddf252ad1be2c89b69c2b068fc378daa952ba7f163c4a11628f55a4df523b3ef90602001612000565b80356001600160a01b038116811461284f57600080fd5b919050565b6000806040838503121561286757600080fd5b8235915061287760208401612838565b90509250929050565b60005b8381101561289b578181015183820152602001612883565b838111156128aa576000848401525b50505050565b60208152600082518060208401526128cf816040850160208701612880565b601f01601f19169190910160400192915050565b600080604083850312156128f657600080fd5b6128ff83612838565b946020939093013593505050565b60006020828403121561291f57600080fd5b5035919050565b60008060006060848603121561293b57600080fd5b61294484612838565b925061295260208501612838565b9150604084013590509250925092565b803560ff8116811461284f57600080fd5b60008060008060008060c0878903121561298c57600080fd5b61299587612838565b95506129a360208801612838565b945060408701359350606087013592506129bf60808801612962565b915060a08701358060000b81146129d557600080fd5b809150509295509295509295565b600080604083850312156129f657600080fd5b50508035926020909101359150565b600080600060608486031215612a1a57600080fd5b505081359360208301359350604090920135919050565b600060208284031215612a4357600080fd5b6127b082612838565b60008060408385031215612a5f57600080fd5b612a6883612838565b915061287760208401612838565b600080600080600080600060e0888a031215612a9157600080fd5b612a9a88612838565b9650612aa860208901612838565b95506040880135945060608801359350612ac460808901612962565b925060a0880135915060c0880135905092959891949750929550565b634e487b7160e01b600052601160045260246000fd5b600082821015612b0857612b08612ae0565b500390565b6000816000190483118215151615612b2757612b27612ae0565b500290565b600082612b4957634e487b7160e01b600052601260045260246000fd5b500490565b60008083128015600160ff1b850184121615612b6c57612b6c612ae0565b6001600160ff1b0384018313811615612b8757612b87612ae0565b50500390565b600080821280156001600160ff1b0384900385131615612baf57612baf612ae0565b600160ff1b8390038412811615612bc857612bc8612ae0565b50500190565b60008219821115612be157612be1612ae0565b500190565b60006001600160ff1b0381841382841380821686840486111615612c0c57612c0c612ae0565b600160ff1b6000871282811687830589121615612c2b57612c2b612ae0565b60008712925087820587128484161615612c4757612c47612ae0565b87850587128184161615612c5d57612c5d612ae0565b505050929093029392505050565b805169ffffffffffffffffffff8116811461284f57600080fd5b600080600080600060a08688031215612c9d57600080fd5b612ca686612c6b565b9450602086015193506040860151925060608601519150612cc960808701612c6b565b90509295509295909350565b600181815b80851115612d10578160001904821115612cf657612cf6612ae0565b80851615612d0357918102915b93841c9390800290612cda565b509250929050565b600082612d27575060016109c3565b81612d34575060006109c3565b8160018114612d4a5760028114612d5457612d70565b60019150506109c3565b60ff841115612d6557612d65612ae0565b50506001821b6109c3565b5060208310610133831016604e8410600b8410161715612d93575081810a6109c3565b612d9d8383612cd5565b8060001904821115612db157612db1612ae0565b029392505050565b60006127b060ff841683612d18565b600081810b607f19811415612ddf57612ddf612ae0565b60000392915050565b6000600019821415612dfc57612dfc612ae0565b5060010190565b60008251612e15818460208701612880565b9190910192915050565b600060208284031215612e3157600080fd5b815180151581146127b057600080fdfe303db7636b0e071f088d2cd5e8463efe513531272d61a18739b21053f6d7b430a26469706673582212207dd2d81ad06238eebb1efd27f89c17794d1280c7d263174a23515903905a5c5064736f6c63430008090033",
    "sourcePath": "d:/contract/hedgex/Single.sol",
    "compiler": {
        "name": "solc",
        "version": "0.8.9+commit.e5eed63a"
    },
    "functionHashes": {
        "DOMAIN_SEPARATOR()": "3644e515",
        "PERMIT_TYPEHASH()": "30adf81f",
        "addLiquidity(uint256,address)": "c95f9d0e",
        "allowance(address,address)": "dd62ed3e",
        "amountDecimal()": "2be90282",
        "approve(address,uint256)": "095ea7b3",
        "balanceOf(address)": "70a08231",
        "closeLong(uint256,uint256)": "416c5690",
        "closeShort(uint256,uint256)": "f69d91ae",
        "dailyInterestRateBase()": "8967b694",
        "decimals()": "313ce567",
        "detectSlide(address,address)": "ddcb04c2",
        "divConst()": "7e4856c4",
        "explosive(address,address)": "89d408ff",
        "feeDivide()": "d375454f",
        "feeOn()": "4f335d0a",
        "feeRate()": "978bbdb9",
        "feedPrice()": "a04eecae",
        "feedPriceDecimal()": "08c73e74",
        "getLatestPrice()": "8e15f473",
        "getPoolNet()": "7bb71a97",
        "initialize(address,address,uint256,uint256,uint8,int8)": "251c073a",
        "interestRewardRate()": "01bcc908",
        "isStart()": "8a55d36e",
        "leverage()": "2c86d98e",
        "minPool()": "2678b8fd",
        "name()": "06fdde03",
        "nonces(address)": "7ecebe00",
        "openLong(uint256,uint256,uint256)": "6c2ee359",
        "openShort(uint256,uint256,uint256)": "71b31707",
        "permit(address,address,uint256,uint256,uint8,bytes32,bytes32)": "d505accf",
        "poolLongAmount()": "e5984319",
        "poolLongPrice()": "994af3ae",
        "poolShortAmount()": "8e406892",
        "poolShortPrice()": "971059fb",
        "rechargeMargin(uint256)": "11ce83f8",
        "removeLiquidity(uint256,address)": "05fe138b",
        "singleTradeLimitRate()": "1865071d",
        "slideP()": "2c204fa8",
        "sumFee()": "190b065f",
        "symbol()": "95d89b41",
        "token0()": "0dfe1681",
        "token0Decimal()": "9ddc230a",
        "totalPool()": "ecfb49a3",
        "totalSupply()": "18160ddd",
        "traders(address)": "92a88fa2",
        "transfer(address,uint256)": "a9059cbb",
        "transferFrom(address,address,uint256)": "23b872dd",
        "withdrawMargin(uint256,uint256)": "3bad4bbb"
    },
    "gasEstimates": {
        "creation": {
            "codeDepositCost": "2385400",
            "executionCost": "infinite",
            "totalCost": "infinite"
        },
        "external": {
            "DOMAIN_SEPARATOR()": "infinite",
            "PERMIT_TYPEHASH()": "329",
            "addLiquidity(uint256,address)": "infinite",
            "allowance(address,address)": "infinite",
            "amountDecimal()": "infinite",
            "approve(address,uint256)": "24663",
            "balanceOf(address)": "2674",
            "closeLong(uint256,uint256)": "infinite",
            "closeShort(uint256,uint256)": "infinite",
            "dailyInterestRateBase()": "338",
            "decimals()": "infinite",
            "detectSlide(address,address)": "infinite",
            "divConst()": "283",
            "explosive(address,address)": "infinite",
            "feeDivide()": "260",
            "feeOn()": "2432",
            "feeRate()": "238",
            "feedPrice()": "infinite",
            "feedPriceDecimal()": "infinite",
            "getLatestPrice()": "infinite",
            "getPoolNet()": "infinite",
            "initialize(address,address,uint256,uint256,uint8,int8)": "infinite",
            "interestRewardRate()": "240",
            "isStart()": "2355",
            "leverage()": "infinite",
            "minPool()": "infinite",
            "name()": "infinite",
            "nonces(address)": "2631",
            "openLong(uint256,uint256,uint256)": "infinite",
            "openShort(uint256,uint256,uint256)": "infinite",
            "permit(address,address,uint256,uint256,uint8,bytes32,bytes32)": "infinite",
            "poolLongAmount()": "2383",
            "poolLongPrice()": "2362",
            "poolShortAmount()": "2384",
            "poolShortPrice()": "2450",
            "rechargeMargin(uint256)": "infinite",
            "removeLiquidity(uint256,address)": "infinite",
            "singleTradeLimitRate()": "283",
            "slideP()": "294",
            "sumFee()": "2407",
            "symbol()": "infinite",
            "token0()": "infinite",
            "token0Decimal()": "infinite",
            "totalPool()": "2405",
            "totalSupply()": "2363",
            "traders(address)": "11174",
            "transfer(address,uint256)": "51206",
            "transferFrom(address,address,uint256)": "infinite",
            "withdrawMargin(uint256,uint256)": "infinite"
        },
        "internal": {
            "feeCharge(uint256)": "51151",
            "feeCharge(uint256,int256)": "infinite",
            "getAccountNet(struct HedgexSingle.Trader memory)": "infinite",
            "getAccountNet(struct HedgexSingle.Trader memory,uint256)": "infinite",
            "getPoolNet(uint256)": "infinite",
            "judegOpen(struct HedgexSingle.Trader memory,uint256,uint256)": "infinite",
            "judgeClose(uint256,uint256,uint256)": "infinite"
        }
    }
}