{
    "contractName": "HedgexSingle",
    "abi": [
        {
            "inputs": [
                {
                    "internalType": "address",
                    "name": "_token0",
                    "type": "address"
                },
                {
                    "internalType": "address",
                    "name": "_feedPrice",
                    "type": "address"
                },
                {
                    "internalType": "uint256",
                    "name": "_feedPriceDecimal",
                    "type": "uint256"
                },
                {
                    "internalType": "uint256",
                    "name": "_minStartPool",
                    "type": "uint256"
                },
                {
                    "internalType": "uint8",
                    "name": "_leverage",
                    "type": "uint8"
                },
                {
                    "internalType": "int8",
                    "name": "_amountDecimal",
                    "type": "int8"
                }
            ],
            "stateMutability": "nonpayable",
            "type": "constructor"
        },
        {
            "anonymous": false,
            "inputs": [
                {
                    "indexed": true,
                    "internalType": "address",
                    "name": "owner",
                    "type": "address"
                },
                {
                    "indexed": true,
                    "internalType": "address",
                    "name": "spender",
                    "type": "address"
                },
                {
                    "indexed": false,
                    "internalType": "uint256",
                    "name": "value",
                    "type": "uint256"
                }
            ],
            "name": "Approval",
            "type": "event"
        },
        {
            "anonymous": false,
            "inputs": [
                {
                    "indexed": true,
                    "internalType": "address",
                    "name": "sender",
                    "type": "address"
                },
                {
                    "indexed": false,
                    "internalType": "uint256",
                    "name": "amount",
                    "type": "uint256"
                }
            ],
            "name": "Burn",
            "type": "event"
        },
        {
            "anonymous": false,
            "inputs": [
                {
                    "indexed": true,
                    "internalType": "address",
                    "name": "user",
                    "type": "address"
                },
                {
                    "indexed": false,
                    "internalType": "uint256",
                    "name": "amount",
                    "type": "uint256"
                },
                {
                    "indexed": false,
                    "internalType": "uint256",
                    "name": "price",
                    "type": "uint256"
                }
            ],
            "name": "Explosive",
            "type": "event"
        },
        {
            "anonymous": false,
            "inputs": [
                {
                    "indexed": true,
                    "internalType": "address",
                    "name": "sender",
                    "type": "address"
                },
                {
                    "indexed": false,
                    "internalType": "uint256",
                    "name": "amount",
                    "type": "uint256"
                }
            ],
            "name": "Mint",
            "type": "event"
        },
        {
            "anonymous": false,
            "inputs": [
                {
                    "indexed": true,
                    "internalType": "address",
                    "name": "sender",
                    "type": "address"
                },
                {
                    "indexed": false,
                    "internalType": "uint256",
                    "name": "amount",
                    "type": "uint256"
                }
            ],
            "name": "Recharge",
            "type": "event"
        },
        {
            "anonymous": false,
            "inputs": [
                {
                    "indexed": true,
                    "internalType": "address",
                    "name": "user",
                    "type": "address"
                },
                {
                    "indexed": false,
                    "internalType": "uint256",
                    "name": "amount",
                    "type": "uint256"
                },
                {
                    "indexed": false,
                    "internalType": "uint256",
                    "name": "price",
                    "type": "uint256"
                }
            ],
            "name": "TakeInterest",
            "type": "event"
        },
        {
            "anonymous": false,
            "inputs": [
                {
                    "indexed": true,
                    "internalType": "address",
                    "name": "sender",
                    "type": "address"
                },
                {
                    "indexed": false,
                    "internalType": "int8",
                    "name": "direction",
                    "type": "int8"
                },
                {
                    "indexed": false,
                    "internalType": "uint256",
                    "name": "amount",
                    "type": "uint256"
                },
                {
                    "indexed": false,
                    "internalType": "uint256",
                    "name": "price",
                    "type": "uint256"
                }
            ],
            "name": "Trade",
            "type": "event"
        },
        {
            "anonymous": false,
            "inputs": [
                {
                    "indexed": true,
                    "internalType": "address",
                    "name": "from",
                    "type": "address"
                },
                {
                    "indexed": true,
                    "internalType": "address",
                    "name": "to",
                    "type": "address"
                },
                {
                    "indexed": false,
                    "internalType": "uint256",
                    "name": "value",
                    "type": "uint256"
                }
            ],
            "name": "Transfer",
            "type": "event"
        },
        {
            "anonymous": false,
            "inputs": [
                {
                    "indexed": true,
                    "internalType": "address",
                    "name": "sender",
                    "type": "address"
                },
                {
                    "indexed": false,
                    "internalType": "uint256",
                    "name": "amount",
                    "type": "uint256"
                }
            ],
            "name": "Withdraw",
            "type": "event"
        },
        {
            "inputs": [],
            "name": "DOMAIN_SEPARATOR",
            "outputs": [
                {
                    "internalType": "bytes32",
                    "name": "",
                    "type": "bytes32"
                }
            ],
            "stateMutability": "view",
            "type": "function"
        },
        {
            "inputs": [],
            "name": "PERMIT_TYPEHASH",
            "outputs": [
                {
                    "internalType": "bytes32",
                    "name": "",
                    "type": "bytes32"
                }
            ],
            "stateMutability": "view",
            "type": "function"
        },
        {
            "inputs": [
                {
                    "internalType": "uint256",
                    "name": "amount",
                    "type": "uint256"
                },
                {
                    "internalType": "address",
                    "name": "to",
                    "type": "address"
                }
            ],
            "name": "addLiquidity",
            "outputs": [],
            "stateMutability": "nonpayable",
            "type": "function"
        },
        {
            "inputs": [
                {
                    "internalType": "address",
                    "name": "",
                    "type": "address"
                },
                {
                    "internalType": "address",
                    "name": "",
                    "type": "address"
                }
            ],
            "name": "allowance",
            "outputs": [
                {
                    "internalType": "uint256",
                    "name": "",
                    "type": "uint256"
                }
            ],
            "stateMutability": "view",
            "type": "function"
        },
        {
            "inputs": [],
            "name": "amountDecimal",
            "outputs": [
                {
                    "internalType": "int8",
                    "name": "",
                    "type": "int8"
                }
            ],
            "stateMutability": "view",
            "type": "function"
        },
        {
            "inputs": [
                {
                    "internalType": "address",
                    "name": "spender",
                    "type": "address"
                },
                {
                    "internalType": "uint256",
                    "name": "value",
                    "type": "uint256"
                }
            ],
            "name": "approve",
            "outputs": [
                {
                    "internalType": "bool",
                    "name": "",
                    "type": "bool"
                }
            ],
            "stateMutability": "nonpayable",
            "type": "function"
        },
        {
            "inputs": [
                {
                    "internalType": "address",
                    "name": "",
                    "type": "address"
                }
            ],
            "name": "balanceOf",
            "outputs": [
                {
                    "internalType": "uint256",
                    "name": "",
                    "type": "uint256"
                }
            ],
            "stateMutability": "view",
            "type": "function"
        },
        {
            "inputs": [
                {
                    "internalType": "uint256",
                    "name": "priceExp",
                    "type": "uint256"
                },
                {
                    "internalType": "uint256",
                    "name": "amount",
                    "type": "uint256"
                }
            ],
            "name": "closeLong",
            "outputs": [],
            "stateMutability": "nonpayable",
            "type": "function"
        },
        {
            "inputs": [
                {
                    "internalType": "uint256",
                    "name": "priceExp",
                    "type": "uint256"
                },
                {
                    "internalType": "uint256",
                    "name": "amount",
                    "type": "uint256"
                }
            ],
            "name": "closeShort",
            "outputs": [],
            "stateMutability": "nonpayable",
            "type": "function"
        },
        {
            "inputs": [],
            "name": "dailyInterestRateBase",
            "outputs": [
                {
                    "internalType": "uint16",
                    "name": "",
                    "type": "uint16"
                }
            ],
            "stateMutability": "view",
            "type": "function"
        },
        {
            "inputs": [],
            "name": "decimals",
            "outputs": [
                {
                    "internalType": "uint8",
                    "name": "",
                    "type": "uint8"
                }
            ],
            "stateMutability": "view",
            "type": "function"
        },
        {
            "inputs": [
                {
                    "internalType": "address",
                    "name": "account",
                    "type": "address"
                },
                {
                    "internalType": "address",
                    "name": "to",
                    "type": "address"
                }
            ],
            "name": "detectSlide",
            "outputs": [],
            "stateMutability": "nonpayable",
            "type": "function"
        },
        {
            "inputs": [],
            "name": "divConst",
            "outputs": [
                {
                    "internalType": "uint24",
                    "name": "",
                    "type": "uint24"
                }
            ],
            "stateMutability": "view",
            "type": "function"
        },
        {
            "inputs": [
                {
                    "internalType": "address",
                    "name": "account",
                    "type": "address"
                },
                {
                    "internalType": "address",
                    "name": "to",
                    "type": "address"
                }
            ],
            "name": "explosive",
            "outputs": [],
            "stateMutability": "nonpayable",
            "type": "function"
        },
        {
            "inputs": [],
            "name": "feeDivide",
            "outputs": [
                {
                    "internalType": "uint24",
                    "name": "",
                    "type": "uint24"
                }
            ],
            "stateMutability": "view",
            "type": "function"
        },
        {
            "inputs": [],
            "name": "feeOn",
            "outputs": [
                {
                    "internalType": "bool",
                    "name": "",
                    "type": "bool"
                }
            ],
            "stateMutability": "view",
            "type": "function"
        },
        {
            "inputs": [],
            "name": "feeRate",
            "outputs": [
                {
                    "internalType": "uint16",
                    "name": "",
                    "type": "uint16"
                }
            ],
            "stateMutability": "view",
            "type": "function"
        },
        {
            "inputs": [],
            "name": "feedPrice",
            "outputs": [
                {
                    "internalType": "contract AggregatorV3Interface",
                    "name": "",
                    "type": "address"
                }
            ],
            "stateMutability": "view",
            "type": "function"
        },
        {
            "inputs": [],
            "name": "feedPriceDecimal",
            "outputs": [
                {
                    "internalType": "uint256",
                    "name": "",
                    "type": "uint256"
                }
            ],
            "stateMutability": "view",
            "type": "function"
        },
        {
            "inputs": [],
            "name": "getLatestPrice",
            "outputs": [
                {
                    "internalType": "uint256",
                    "name": "",
                    "type": "uint256"
                }
            ],
            "stateMutability": "view",
            "type": "function"
        },
        {
            "inputs": [],
            "name": "getPoolNet",
            "outputs": [
                {
                    "internalType": "int256",
                    "name": "",
                    "type": "int256"
                }
            ],
            "stateMutability": "view",
            "type": "function"
        },
        {
            "inputs": [
                {
                    "internalType": "address",
                    "name": "_token0",
                    "type": "address"
                },
                {
                    "internalType": "address",
                    "name": "_feedPrice",
                    "type": "address"
                },
                {
                    "internalType": "uint256",
                    "name": "_feedPriceDecimal",
                    "type": "uint256"
                },
                {
                    "internalType": "uint256",
                    "name": "_minStartPool",
                    "type": "uint256"
                },
                {
                    "internalType": "uint8",
                    "name": "_leverage",
                    "type": "uint8"
                },
                {
                    "internalType": "int8",
                    "name": "_amountDecimal",
                    "type": "int8"
                }
            ],
            "name": "initialize",
            "outputs": [],
            "stateMutability": "nonpayable",
            "type": "function"
        },
        {
            "inputs": [],
            "name": "interestRewardRate",
            "outputs": [
                {
                    "internalType": "uint24",
                    "name": "",
                    "type": "uint24"
                }
            ],
            "stateMutability": "view",
            "type": "function"
        },
        {
            "inputs": [],
            "name": "isStart",
            "outputs": [
                {
                    "internalType": "bool",
                    "name": "",
                    "type": "bool"
                }
            ],
            "stateMutability": "view",
            "type": "function"
        },
        {
            "inputs": [],
            "name": "leverage",
            "outputs": [
                {
                    "internalType": "uint8",
                    "name": "",
                    "type": "uint8"
                }
            ],
            "stateMutability": "view",
            "type": "function"
        },
        {
            "inputs": [],
            "name": "minPool",
            "outputs": [
                {
                    "internalType": "uint256",
                    "name": "",
                    "type": "uint256"
                }
            ],
            "stateMutability": "view",
            "type": "function"
        },
        {
            "inputs": [],
            "name": "name",
            "outputs": [
                {
                    "internalType": "string",
                    "name": "",
                    "type": "string"
                }
            ],
            "stateMutability": "view",
            "type": "function"
        },
        {
            "inputs": [
                {
                    "internalType": "address",
                    "name": "",
                    "type": "address"
                }
            ],
            "name": "nonces",
            "outputs": [
                {
                    "internalType": "uint256",
                    "name": "",
                    "type": "uint256"
                }
            ],
            "stateMutability": "view",
            "type": "function"
        },
        {
            "inputs": [
                {
                    "internalType": "uint256",
                    "name": "priceExp",
                    "type": "uint256"
                },
                {
                    "internalType": "uint256",
                    "name": "amount",
                    "type": "uint256"
                },
                {
                    "internalType": "uint256",
                    "name": "rechargeAmount",
                    "type": "uint256"
                }
            ],
            "name": "openLong",
            "outputs": [],
            "stateMutability": "nonpayable",
            "type": "function"
        },
        {
            "inputs": [
                {
                    "internalType": "uint256",
                    "name": "priceExp",
                    "type": "uint256"
                },
                {
                    "internalType": "uint256",
                    "name": "amount",
                    "type": "uint256"
                },
                {
                    "internalType": "uint256",
                    "name": "rechargeAmount",
                    "type": "uint256"
                }
            ],
            "name": "openShort",
            "outputs": [],
            "stateMutability": "nonpayable",
            "type": "function"
        },
        {
            "inputs": [
                {
                    "internalType": "address",
                    "name": "owner",
                    "type": "address"
                },
                {
                    "internalType": "address",
                    "name": "spender",
                    "type": "address"
                },
                {
                    "internalType": "uint256",
                    "name": "value",
                    "type": "uint256"
                },
                {
                    "internalType": "uint256",
                    "name": "deadline",
                    "type": "uint256"
                },
                {
                    "internalType": "uint8",
                    "name": "v",
                    "type": "uint8"
                },
                {
                    "internalType": "bytes32",
                    "name": "r",
                    "type": "bytes32"
                },
                {
                    "internalType": "bytes32",
                    "name": "s",
                    "type": "bytes32"
                }
            ],
            "name": "permit",
            "outputs": [],
            "stateMutability": "nonpayable",
            "type": "function"
        },
        {
            "inputs": [],
            "name": "poolLongAmount",
            "outputs": [
                {
                    "internalType": "uint256",
                    "name": "",
                    "type": "uint256"
                }
            ],
            "stateMutability": "view",
            "type": "function"
        },
        {
            "inputs": [],
            "name": "poolLongPrice",
            "outputs": [
                {
                    "internalType": "uint256",
                    "name": "",
                    "type": "uint256"
                }
            ],
            "stateMutability": "view",
            "type": "function"
        },
        {
            "inputs": [],
            "name": "poolShortAmount",
            "outputs": [
                {
                    "internalType": "uint256",
                    "name": "",
                    "type": "uint256"
                }
            ],
            "stateMutability": "view",
            "type": "function"
        },
        {
            "inputs": [],
            "name": "poolShortPrice",
            "outputs": [
                {
                    "internalType": "uint256",
                    "name": "",
                    "type": "uint256"
                }
            ],
            "stateMutability": "view",
            "type": "function"
        },
        {
            "inputs": [
                {
                    "internalType": "uint256",
                    "name": "amount",
                    "type": "uint256"
                }
            ],
            "name": "rechargeMargin",
            "outputs": [],
            "stateMutability": "nonpayable",
            "type": "function"
        },
        {
            "inputs": [
                {
                    "internalType": "uint256",
                    "name": "liquidity",
                    "type": "uint256"
                },
                {
                    "internalType": "address",
                    "name": "to",
                    "type": "address"
                }
            ],
            "name": "removeLiquidity",
            "outputs": [],
            "stateMutability": "nonpayable",
            "type": "function"
        },
        {
            "inputs": [],
            "name": "singleTradeLimitRate",
            "outputs": [
                {
                    "internalType": "uint16",
                    "name": "",
                    "type": "uint16"
                }
            ],
            "stateMutability": "view",
            "type": "function"
        },
        {
            "inputs": [],
            "name": "slideP",
            "outputs": [
                {
                    "internalType": "uint8",
                    "name": "",
                    "type": "uint8"
                }
            ],
            "stateMutability": "view",
            "type": "function"
        },
        {
            "inputs": [],
            "name": "sumFee",
            "outputs": [
                {
                    "internalType": "uint256",
                    "name": "",
                    "type": "uint256"
                }
            ],
            "stateMutability": "view",
            "type": "function"
        },
        {
            "inputs": [],
            "name": "symbol",
            "outputs": [
                {
                    "internalType": "string",
                    "name": "",
                    "type": "string"
                }
            ],
            "stateMutability": "view",
            "type": "function"
        },
        {
            "inputs": [],
            "name": "token0",
            "outputs": [
                {
                    "internalType": "address",
                    "name": "",
                    "type": "address"
                }
            ],
            "stateMutability": "view",
            "type": "function"
        },
        {
            "inputs": [],
            "name": "token0Decimal",
            "outputs": [
                {
                    "internalType": "uint256",
                    "name": "",
                    "type": "uint256"
                }
            ],
            "stateMutability": "view",
            "type": "function"
        },
        {
            "inputs": [],
            "name": "totalPool",
            "outputs": [
                {
                    "internalType": "int256",
                    "name": "",
                    "type": "int256"
                }
            ],
            "stateMutability": "view",
            "type": "function"
        },
        {
            "inputs": [],
            "name": "totalSupply",
            "outputs": [
                {
                    "internalType": "uint256",
                    "name": "",
                    "type": "uint256"
                }
            ],
            "stateMutability": "view",
            "type": "function"
        },
        {
            "inputs": [
                {
                    "internalType": "address",
                    "name": "",
                    "type": "address"
                }
            ],
            "name": "traders",
            "outputs": [
                {
                    "internalType": "int256",
                    "name": "margin",
                    "type": "int256"
                },
                {
                    "internalType": "uint256",
                    "name": "longAmount",
                    "type": "uint256"
                },
                {
                    "internalType": "uint256",
                    "name": "longPrice",
                    "type": "uint256"
                },
                {
                    "internalType": "uint256",
                    "name": "shortAmount",
                    "type": "uint256"
                },
                {
                    "internalType": "uint256",
                    "name": "shortPrice",
                    "type": "uint256"
                }
            ],
            "stateMutability": "view",
            "type": "function"
        },
        {
            "inputs": [
                {
                    "internalType": "address",
                    "name": "to",
                    "type": "address"
                },
                {
                    "internalType": "uint256",
                    "name": "value",
                    "type": "uint256"
                }
            ],
            "name": "transfer",
            "outputs": [
                {
                    "internalType": "bool",
                    "name": "",
                    "type": "bool"
                }
            ],
            "stateMutability": "nonpayable",
            "type": "function"
        },
        {
            "inputs": [
                {
                    "internalType": "address",
                    "name": "from",
                    "type": "address"
                },
                {
                    "internalType": "address",
                    "name": "to",
                    "type": "address"
                },
                {
                    "internalType": "uint256",
                    "name": "value",
                    "type": "uint256"
                }
            ],
            "name": "transferFrom",
            "outputs": [
                {
                    "internalType": "bool",
                    "name": "",
                    "type": "bool"
                }
            ],
            "stateMutability": "nonpayable",
            "type": "function"
        },
        {
            "inputs": [
                {
                    "internalType": "uint256",
                    "name": "amount",
                    "type": "uint256"
                },
                {
                    "internalType": "uint256",
                    "name": "deadline",
                    "type": "uint256"
                }
            ],
            "name": "withdrawMargin",
            "outputs": [],
            "stateMutability": "nonpayable",
            "type": "function"
        }
    ],
    "bytecode": "6101a06040523480156200001257600080fd5b50604051620035083803806200350883398101604081905262000035916200027b565b856001600160a01b031663313ce5676040518163ffffffff1660e01b815260040160206040518083038186803b1580156200006f57600080fd5b505afa15801562000084573d6000803e3d6000fd5b505050506040513d601f19601f82011682018060405250810190620000aa9190620002f3565b604080518082018252600c81526b48656467657853696e676c6560a01b6020918201528151808301835260018152603160f81b9082015281517f8b73c3c69bb8fe3d512ecc4cf759cc79239f7b179b0ffacaa9a75d522b39400f918101919091527fdbb8f54117374490c454ab41b80d95cf4a0c3b286124d9b83e346d854dc3efcd918101919091527fc89efdaa54c0f20c7adf612882df0950f5a951637e0307cdcb4c672f298b8bc660608201524660808201523060a082015260c00160408051601f19818403018152828252805160209182012060a05260ff9093166080526001600160a01b0380891661016052891661010081905263313ce56760e01b83529051909263313ce5679260048082019391829003018186803b158015620001d257600080fd5b505afa158015620001e7573d6000803e3d6000fd5b505050506040513d601f19601f820116820180604052508101906200020d9190620002f3565b6200021a90600a6200042d565b610120526101809390935260c09190915260ff1660e0526004805461ffff1916905560000b61014052506200043e9050565b80516001600160a01b03811681146200026457600080fd5b919050565b805160ff811681146200026457600080fd5b60008060008060008060c087890312156200029557600080fd5b620002a0876200024c565b9550620002b0602088016200024c565b94506040870151935060608701519250620002ce6080880162000269565b915060a08701518060000b8114620002e557600080fd5b809150509295509295509295565b6000602082840312156200030657600080fd5b620003118262000269565b9392505050565b634e487b7160e01b600052601160045260246000fd5b600181815b808511156200036f57816000190482111562000353576200035362000318565b808516156200036157918102915b93841c939080029062000333565b509250929050565b600082620003885750600162000427565b81620003975750600062000427565b8160018114620003b05760028114620003bb57620003db565b600191505062000427565b60ff841115620003cf57620003cf62000318565b50506001821b62000427565b5060208310610133831016604e8410600b841016171562000400575081810a62000427565b6200040c83836200032e565b806000190482111562000423576200042362000318565b0290505b92915050565b60006200031160ff84168362000377565b60805160a05160c05160e0516101005161012051610140516101605161018051612fcd6200053b60003960008181610335015281816117910152611821015260008181610701015261166e01526000818161045d01528181611768015281816117b501526118450152600081816106da015281816117e0015261187901526000818161038d0152818161096a015281816109e701528181610cd8015281816115d3015281816118ba0152611de60152600081816104b10152818161082901528181610b85015281816125bd0152612613015260008181610436015261193301526000818161052601526119ff015260006104ff0152612fcd6000f3fe608060405234801561001057600080fd5b50600436106102bb5760003560e01c806371b3170711610182578063978bbdb9116100e9578063d375454f116100a2578063ddcb04c21161007c578063ddcb04c214610791578063e5984319146107a4578063ecfb49a3146107ad578063f69d91ae146107b657600080fd5b8063d375454f14610749578063d505accf14610753578063dd62ed3e1461076657600080fd5b8063978bbdb9146106c3578063994af3ae146106cc5780639ddc230a146106d5578063a04eecae146106fc578063a9059cbb14610723578063c95f9d0e1461073657600080fd5b80638a55d36e1161013b5780638a55d36e146106145780638e15f473146106215780638e4068921461062957806392a88fa21461063257806395d89b4114610697578063971059fb146106ba57600080fd5b806371b31707146105b35780637bb71a97146105c65780637e4856c4146105ce5780637ecebe00146105d85780638967b694146105f857806389d408ff1461060157600080fd5b80632678b8fd116102265780633644e515116101df5780633644e515146105215780633bad4bbb14610548578063416c56901461055b5780634f335d0a1461056e5780636c2ee3591461058057806370a082311461059357600080fd5b80632678b8fd146104315780632be90282146104585780632c204fa8146104925780632c86d98e146104ac57806330adf81f146104d3578063313ce567146104fa57600080fd5b806311ce83f81161027857806311ce83f8146103c757806318160ddd146103da5780631865071d146103e3578063190b065f146103ff57806323b872dd14610408578063251c073a1461041b57600080fd5b806301bcc908146102c057806305fe138b146102e357806306fdde03146102f857806308c73e7414610330578063095ea7b3146103655780630dfe168114610388575b600080fd5b6102ca620186a081565b60405162ffffff90911681526020015b60405180910390f35b6102f66102f136600461293f565b6107c9565b005b6103236040518060400160405280600c81526020016b48656467657853696e676c6560a01b81525081565b6040516102da919061299b565b6103577f000000000000000000000000000000000000000000000000000000000000000081565b6040519081526020016102da565b6103786103733660046129ce565b6109cb565b60405190151581526020016102da565b6103af7f000000000000000000000000000000000000000000000000000000000000000081565b6040516001600160a01b0390911681526020016102da565b6102f66103d53660046129f8565b6109e2565b61035760005481565b6103ec61753081565b60405161ffff90911681526020016102da565b61035760055481565b610378610416366004612a11565b610a6a565b6102f6610429366004612a5e565b505050505050565b6103577f000000000000000000000000000000000000000000000000000000000000000081565b61047f7f000000000000000000000000000000000000000000000000000000000000000081565b60405160009190910b81526020016102da565b61049a603281565b60405160ff90911681526020016102da565b61049a7f000000000000000000000000000000000000000000000000000000000000000081565b6103577f6e71edae12b1b97f4d1f60370fef10105fa2faae0126114a169c64845d6126c981565b61049a7f000000000000000000000000000000000000000000000000000000000000000081565b6103577f000000000000000000000000000000000000000000000000000000000000000081565b6102f6610556366004612ace565b610ae4565b6102f6610569366004612ace565b610d3e565b60045461037890610100900460ff1681565b6102f661058e366004612af0565b610ee6565b6103576105a1366004612b1c565b60016020526000908152604090205481565b6102f66105c1366004612af0565b611147565b61035761138e565b6102ca620f424081565b6103576105e6366004612b1c565b60036020526000908152604090205481565b6103ec6103e881565b6102f661060f366004612b37565b61144d565b6004546103789060ff1681565b610357611669565b61035760085481565b61066f610640366004612b1c565b600b60205260009081526040902080546001820154600283015460038401546004909401549293919290919085565b604080519586526020860194909452928401919091526060830152608082015260a0016102da565b610323604051806040016040528060048152602001634845585360e01b81525081565b610357600a5481565b6103ec61025881565b61035760095481565b6103577f000000000000000000000000000000000000000000000000000000000000000081565b6103af7f000000000000000000000000000000000000000000000000000000000000000081565b6103786107313660046129ce565b6118a8565b6102f661074436600461293f565b6118b5565b6102ca6203d09081565b6102f6610761366004612b61565b6119a1565b610357610774366004612b37565b600260209081526000928352604080842090915290825290205481565b6102f661079f366004612b37565b611bcd565b61035760075481565b61035760065481565b6102f66107c4366004612ace565b611e4d565b600454829060ff16156109435760006107e0611669565b905060006107ed82611ff7565b90506000600854600754116108115760075460085461080c9190612be1565b610821565b6008546007546108219190612be1565b9050600060ff7f0000000000000000000000000000000000000000000000000000000000000000166108538584612bf8565b61085d9190612c17565b90508083136108aa5760405162461bcd60e51b81526020600482015260146024820152733732ba103732b2b2103132903837b9b4ba34b7b760611b60448201526064015b60405180910390fd5b60006108b68285612be1565b905060006108c5600a86612c17565b9050808211156108d3578091505b6000546108e08a87612bf8565b6108ea9190612c17565b96508187111561093c5760405162461bcd60e51b815260206004820152601860248201527f776974686472617720616d6f756e7420746f6f206d756368000000000000000060448201526064016108a1565b5050505050505b80600660008282546109559190612c39565b9091555061096590503384612040565b6109907f000000000000000000000000000000000000000000000000000000000000000083836120cb565b60405183815233907fcc16f5dbb4873280815c1ee09dbd06736cffcc184412cf7a71a0fdb75d397ca5906020015b60405180910390a2505050565b60006109d83384846121e6565b5060015b92915050565b610a0e7f0000000000000000000000000000000000000000000000000000000000000000333084612248565b336000908152600b602052604081208054839290610a2d908490612c78565b909155505060405181815233907f78d9de6f3ad1cae9e0cbcbaa5267fd90f6a6728831eec42b7c147b398b2269249060200160405180910390a250565b6001600160a01b038316600090815260026020908152604080832033845290915281205460001914610acf576001600160a01b038416600090815260026020908152604080832033845290915281208054849290610ac9908490612be1565b90915550505b610ada848484612370565b5060019392505050565b8042811015610b2d5760405162461bcd60e51b815260206004820152601560248201527412195919d95e14da5b99db194e8811561412549151605a1b60448201526064016108a1565b336000908152600b60209081526040808320815160a081018352815481526001820154938101939093526002810154918301919091526003810154606083015260040154608082015290610b7f611669565b905060007f000000000000000000000000000000000000000000000000000000000000000060ff168284606001518560200151610bbc9190612cb9565b610bc69190612bf8565b610bd09190612c17565b90506000828460600151610be49190612bf8565b84604001518560200151610bf89190612bf8565b610c029190612cb9565b84608001518560600151610c169190612bf8565b848660200151610c269190612bf8565b610c309190612cb9565b8551610c3c9190612c78565b610c469190612c39565b90506000610c548383612c39565b905060008113610ca65760405162461bcd60e51b815260206004820152601860248201527f63616e207769746864726177206973206e65676174697665000000000000000060448201526064016108a1565b8781811315610cb25750805b8551610cbf908290612c39565b336000818152600b6020526040902091909155610cfe907f000000000000000000000000000000000000000000000000000000000000000090836120cb565b60405181815233907f884edad9ce6fa2440d8a54cc123490eb96d2768479d49ff9c7366125a94243649060200160405180910390a2505050505050505050565b6000620f4240610d4f603282612cd1565b62ffffff16610d5c611669565b610d669190612bf8565b610d709190612c17565b905082811015610dc25760405162461bcd60e51b815260206004820152601960248201527f636c6f7365206c6f6e67207072696365206973206c6f7765720000000000000060448201526064016108a1565b336000908152600b60209081526040808320815160a081018352815481526001820154938101849052600282015492810192909252600381015460608301526004015460808201529190610e199084908690612411565b90506000826040015184610e2d9190612c39565b610e379086612cf5565b9050848360200151610e499190612be1565b336000908152600b602052604090206001015582518290610e6b908390612c78565b610e759190612c39565b336000908152600b602052604081209190915560088054879290610e9a908490612be1565b90915550610eaa90508282612490565b604080516000198152602081018790529081018590523390600080516020612f78833981519152906060015b60405180910390a2505050505050565b6000620f4240610ef7603282612d7a565b62ffffff16610f04611669565b610f0e9190612bf8565b610f189190612c17565b90508381111580610f27575083155b610f735760405162461bcd60e51b815260206004820152601b60248201527f6f70656e206c6f6e6720707269636520697320746f6f2068696768000000000060448201526064016108a1565b60045460ff16610fbd5760405162461bcd60e51b815260206004820152601560248201527418dbdb9d1c9858dd081a5cc81b9bdd081cdd185c9d605a1b60448201526064016108a1565b8115610fcc57610fcc826109e2565b336000908152600b60209081526040808320815160a0810183528154815260018201549381019390935260028101549183019190915260038101546060830152600401546080820152906110208386612bf8565b9050600061102f83858461252e565b90508583602001516110419190612cb9565b336000908152600b6020908152604090912060010191909155830151611068908790612cb9565b828460400151856020015161107d9190612bf8565b6110879190612cb9565b6110919190612c17565b336000908152600b602052604090206002015582516110b1908290612c39565b336000908152600b60205260409020556008546110ce8782612cb9565b6008556110db8782612cb9565b83600a54836110ea9190612bf8565b6110f49190612cb9565b6110fe9190612c17565b600a5561110a82612721565b6040805160018152602081018990529081018690523390600080516020612f78833981519152906060015b60405180910390a25050505050505050565b60045460ff166111915760405162461bcd60e51b815260206004820152601560248201527418dbdb9d1c9858dd081a5cc81b9bdd081cdd185c9d605a1b60448201526064016108a1565b80156111a0576111a0816109e2565b6000620f42406111b1603282612cd1565b62ffffff166111be611669565b6111c89190612bf8565b6111d29190612c17565b9050838110156112245760405162461bcd60e51b815260206004820152601b60248201527f6f70656e2073686f727420707269636520697320746f6f206c6f77000000000060448201526064016108a1565b336000908152600b60209081526040808320815160a0810183528154815260018201549381019390935260028101549183019190915260038101546060830152600401546080820152906112788386612bf8565b9050600061128783858461252e565b90508583606001516112999190612cb9565b336000908152600b602052604090206003015560608301516112bc908790612cb9565b82846080015185606001516112d19190612bf8565b6112db9190612cb9565b6112e59190612c17565b336000908152600b60205260409020600401558251611305908290612c39565b336000908152600b60205260409020556007546113228782612cb9565b60075561132f8782612cb9565b836009548361133e9190612bf8565b6113489190612cb9565b6113529190612c17565b60095561135e82612721565b604080516000198152602081018990529081018690523390600080516020612f7883398151915290606001611135565b600080611399611669565b90506000816008546113ab9190612bf8565b6009546007546113bb9190612bf8565b6113c59190612cb9565b600a546008546113d59190612bf8565b836007546113e39190612bf8565b6113ed9190612cb9565b6006546113fa9190612c78565b6114049190612c39565b9050600081136109dc5760405162461bcd60e51b81526020600482015260146024820152733732ba103732b2b2103132903837b9b4ba34b7b760611b60448201526064016108a1565b6001600160a01b0382166000908152600b60209081526040808320815160a0810183528154815260018201549381019390935260028101549183019190915260038101546060830181905260049091015460808301819052919291601e916114b59190612bf8565b836040015184602001516114c99190612bf8565b6114d39190612cb9565b6114dd9190612c17565b905060006114e9611669565b905060006114f784836127aa565b9050828113156115425760405162461bcd60e51b815260206004820152601660248201527510d85b9d081b9bdd08189948195e1c1b1bdcda5d995960521b60448201526064016108a1565b6001600160a01b0386166000908152600b602090815260408220828155600181018390556002810183905560038101839055600401919091558401511561159f578360200151600860008282546115999190612be1565b90915550505b6060840151156115c5578360600151600760008282546115bf9190612be1565b90915550505b60008113156115fe576115f97f000000000000000000000000000000000000000000000000000000000000000086836120cb565b611616565b80600660008282546116109190612c78565b90915550505b856001600160a01b03167feff2642751f6d8380b39cb1211fb5d0b9965649c052b81fb8bfbd2d8c52c38fd856060015186602001516116559190612cb9565b604080519182526020820186905201610ed6565b6000807f00000000000000000000000000000000000000000000000000000000000000006001600160a01b031663feaf968c6040518163ffffffff1660e01b815260040160a06040518083038186803b1580156116c557600080fd5b505afa1580156116d9573d6000803e3d6000fd5b505050506040513d601f19601f820116820180604052508101906116fd9190612dbb565b505050915050600081136117645760405162461bcd60e51b815260206004820152602860248201527f7468652070616972207374616e64617264207072696365206d75737420626520604482015267706f73697469766560c01b60648201526084016108a1565b60007f000000000000000000000000000000000000000000000000000000000000000060000b1261181f577f00000000000000000000000000000000000000000000000000000000000000006117db7f0000000000000000000000000000000000000000000000000000000000000000600a612eef565b6118057f000000000000000000000000000000000000000000000000000000000000000084612bf8565b61180f9190612bf8565b6118199190612c17565b91505090565b7f00000000000000000000000000000000000000000000000000000000000000006118697f0000000000000000000000000000000000000000000000000000000000000000612efe565b61187490600a612eef565b61189e7f000000000000000000000000000000000000000000000000000000000000000084612bf8565b61180f9190612c17565b60006109d8338484612370565b6118e17f0000000000000000000000000000000000000000000000000000000000000000333085612248565b600454829060ff16156119175760006118f861138e565b905080846000546119099190612bf8565b6119139190612c17565b9150505b82600660008282546119299190612c78565b90915550506006547f000000000000000000000000000000000000000000000000000000000000000013611965576004805460ff191660011790555b61196f8282612825565b60405181815233907f0f6798a560793a54c3bcfe86a93cde1e73087d944c0ea20544137d4121396885906020016109be565b428410156119e35760405162461bcd60e51b815260206004820152600f60248201526e12195919d95e0e8811561412549151608a1b60448201526064016108a1565b6001600160a01b038716600090815260036020526040812080547f0000000000000000000000000000000000000000000000000000000000000000917f6e71edae12b1b97f4d1f60370fef10105fa2faae0126114a169c64845d6126c9918b918b918b9187611a5183612f1e565b909155506040805160208101969096526001600160a01b0394851690860152929091166060840152608083015260a082015260c0810187905260e00160405160208183030381529060405280519060200120604051602001611aca92919061190160f01b81526002810192909252602282015260420190565b60408051601f198184030181528282528051602091820120600080855291840180845281905260ff88169284019290925260608301869052608083018590529092509060019060a0016020604051602081039080840390855afa158015611b35573d6000803e3d6000fd5b5050604051601f1901519150506001600160a01b03811615801590611b6b5750886001600160a01b0316816001600160a01b0316145b611bb75760405162461bcd60e51b815260206004820152601960248201527f4865646765783a20494e56414c49445f5349474e41545552450000000000000060448201526064016108a1565b611bc28989896121e6565b505050505050505050565b6000611bd7611669565b6001600160a01b0384166000908152600b602052604090206003810154600182015492935090911415611c4c5760405162461bcd60e51b815260206004820152601d60248201527f6e656564206c6f6e6720616e642073686f7274206e6f7420657175616c00000060448201526064016108a1565b600854600754600383015460018401546000911015611cf857818311611ca75760405162461bcd60e51b815260206004820152601060248201526f1a185d99481b9bc81a5b9d195c995cdd60821b60448201526064016108a1565b82620f4240611cb68483612be1565b60018701546103e890611cc9908a612bf8565b611cd39190612bf8565b611cdd9190612bf8565b611ce79190612c17565b611cf19190612c17565b9050611d87565b828211611d3a5760405162461bcd60e51b815260206004820152601060248201526f1a185d99481b9bc81a5b9d195c995cdd60821b60448201526064016108a1565b81620f4240611d498583612be1565b60038701546103e890611d5c908a612bf8565b611d669190612bf8565b611d709190612bf8565b611d7a9190612c17565b611d849190612c17565b90505b6000620f4240611d9a620186a084612bf8565b611da49190612c17565b905081856000016000828254611dba9190612c39565b90915550611dca90508183612c39565b60066000828254611ddb9190612c78565b90915550611e0c90507f000000000000000000000000000000000000000000000000000000000000000088836120cb565b60408051838152602081018890526001600160a01b038a16917f5ff65a0fd12abffbfc04b259e6ad8ff02b8e0b6fcddee1bdb9d2e143cb6c83019101611135565b6000620f4240611e5e603282612d7a565b62ffffff16611e6b611669565b611e759190612bf8565b611e7f9190612c17565b90508281111580611e8e575082155b611eda5760405162461bcd60e51b815260206004820152601b60248201527f636c6f73652073686f727420707269636520697320686967686572000000000060448201526064016108a1565b336000908152600b60209081526040808320815160a081018352815481526001820154938101939093526002810154918301919091526003810154606083018190526004909101546080830152909190611f379084908690612411565b90506000838360800151611f4b9190612c39565b611f559086612cf5565b9050848360600151611f679190612be1565b336000908152600b602052604090206003015582518290611f89908390612c78565b611f939190612c39565b336000908152600b602052604081209190915560078054879290611fb8908490612be1565b90915550611fc890508282612490565b6040805160018152602081018790529081018590523390600080516020612f7883398151915290606001610ed6565b600080826008546120089190612bf8565b6009546007546120189190612bf8565b6120229190612cb9565b600a546008546120329190612bf8565b846007546113e39190612bf8565b6001600160a01b03821660009081526001602052604081208054839290612068908490612be1565b92505081905550806000808282546120809190612be1565b90915550506040518181526000906001600160a01b038416907fddf252ad1be2c89b69c2b068fc378daa952ba7f163c4a11628f55a4df523b3ef906020015b60405180910390a35050565b604080516001600160a01b038481166024830152604480830185905283518084039091018152606490920183526020820180516001600160e01b031663a9059cbb60e01b17905291516000928392908716916121279190612f39565b6000604051808303816000865af19150503d8060008114612164576040519150601f19603f3d011682016040523d82523d6000602084013e612169565b606091505b50915091508180156121935750805115806121935750808060200190518101906121939190612f55565b6121df5760405162461bcd60e51b815260206004820152601f60248201527f5472616e7366657248656c7065723a205452414e534645525f4641494c45440060448201526064016108a1565b5050505050565b6001600160a01b0383811660008181526002602090815260408083209487168084529482529182902085905590518481527f8c5be1e5ebec7d5bd14f71427d1e84f3dd0314c0f7b2291e5b200ac8c7c3b92591015b60405180910390a3505050565b604080516001600160a01b0385811660248301528481166044830152606480830185905283518084039091018152608490920183526020820180516001600160e01b03166323b872dd60e01b17905291516000928392908816916122ac9190612f39565b6000604051808303816000865af19150503d80600081146122e9576040519150601f19603f3d011682016040523d82523d6000602084013e6122ee565b606091505b50915091508180156123185750805115806123185750808060200190518101906123189190612f55565b6104295760405162461bcd60e51b8152602060048201526024808201527f5472616e7366657248656c7065723a205452414e534645525f46524f4d5f46416044820152631253115160e21b60648201526084016108a1565b6001600160a01b03831660009081526001602052604081208054839290612398908490612be1565b90915550506001600160a01b038216600090815260016020526040812080548392906123c5908490612cb9565b92505081905550816001600160a01b0316836001600160a01b03167fddf252ad1be2c89b69c2b068fc378daa952ba7f163c4a11628f55a4df523b3ef8360405161223b91815260200190565b600061241d84846128a6565b818311156124635760405162461bcd60e51b81526020600482015260136024820152720e0dee6d2e8d2dedc40dcdee840cadcdeeaced606b1b60448201526064016108a1565b620f42406102586124748686612bf8565b61247e9190612bf8565b6124889190612c17565b949350505050565b600454610100900460ff1615612509576000620f42406124b36203d09085612bf8565b6124bd9190612c17565b905080600560008282546124d19190612cb9565b909155508290506124e28285612c39565b6124ec9190612c39565b600660008282546124fd9190612c78565b9091555061252a915050565b6125138183612c39565b600660008282546125249190612c78565b90915550505b5050565b60006125438361253e8185612c17565b6128a6565b60008385606001516125559190612bf8565b856040015186602001516125699190612bf8565b6125739190612cb9565b856080015186606001516125879190612bf8565b8587602001516125979190612bf8565b6125a19190612cb9565b86516125ad9190612c78565b6125b79190612c39565b905060007f000000000000000000000000000000000000000000000000000000000000000060ff1685876060015188602001516125f49190612cb9565b6125fe9190612bf8565b6126089190612c17565b9050600061263960ff7f00000000000000000000000000000000000000000000000000000000000000001686612c17565b90506000620f424061264d61025888612bf8565b6126579190612c17565b90506000816126668587612c39565b6126709190612c39565b9050600081136126ce5760405162461bcd60e51b815260206004820152602360248201527f6c656674206d617267696e20697320657175616c206f72206c6573732074686160448201526206e20360ec1b60648201526084016108a1565b828110156127155760405162461bcd60e51b81526020600482015260146024820152730dac2e4ced2dc40d2e640dcdee840cadcdeeaced60631b60448201526064016108a1565b50979650505050505050565b600454610100900460ff161561278f576000620f42406127446203d09084612bf8565b61274e9190612c17565b905080600560008282546127629190612cb9565b9091555061277290508183612c39565b600660008282546127839190612c78565b909155506127a7915050565b80600660008282546127a19190612c78565b90915550505b50565b60008183606001516127bc9190612bf8565b836040015184602001516127d09190612bf8565b6127da9190612cb9565b836080015184606001516127ee9190612bf8565b8385602001516127fe9190612bf8565b6128089190612cb9565b84516128149190612c78565b61281e9190612c39565b9392505050565b806000808282546128369190612cb9565b90915550506001600160a01b03821660009081526001602052604081208054839290612863908490612cb9565b90915550506040518181526001600160a01b038316906000907fddf252ad1be2c89b69c2b068fc378daa952ba7f163c4a11628f55a4df523b3ef906020016120bf565b60006128b183611ff7565b905082620f42406128c461753084612bf8565b6128ce9190612c17565b6128d89190612c17565b82111561291e5760405162461bcd60e51b8152602060048201526014602482015273616d6f756e74206f766572206e65742a7261746560601b60448201526064016108a1565b505050565b80356001600160a01b038116811461293a57600080fd5b919050565b6000806040838503121561295257600080fd5b8235915061296260208401612923565b90509250929050565b60005b8381101561298657818101518382015260200161296e565b83811115612995576000848401525b50505050565b60208152600082518060208401526129ba81604085016020870161296b565b601f01601f19169190910160400192915050565b600080604083850312156129e157600080fd5b6129ea83612923565b946020939093013593505050565b600060208284031215612a0a57600080fd5b5035919050565b600080600060608486031215612a2657600080fd5b612a2f84612923565b9250612a3d60208501612923565b9150604084013590509250925092565b803560ff8116811461293a57600080fd5b60008060008060008060c08789031215612a7757600080fd5b612a8087612923565b9550612a8e60208801612923565b94506040870135935060608701359250612aaa60808801612a4d565b915060a08701358060000b8114612ac057600080fd5b809150509295509295509295565b60008060408385031215612ae157600080fd5b50508035926020909101359150565b600080600060608486031215612b0557600080fd5b505081359360208301359350604090920135919050565b600060208284031215612b2e57600080fd5b61281e82612923565b60008060408385031215612b4a57600080fd5b612b5383612923565b915061296260208401612923565b600080600080600080600060e0888a031215612b7c57600080fd5b612b8588612923565b9650612b9360208901612923565b95506040880135945060608801359350612baf60808901612a4d565b925060a0880135915060c0880135905092959891949750929550565b634e487b7160e01b600052601160045260246000fd5b600082821015612bf357612bf3612bcb565b500390565b6000816000190483118215151615612c1257612c12612bcb565b500290565b600082612c3457634e487b7160e01b600052601260045260246000fd5b500490565b60008083128015600160ff1b850184121615612c5757612c57612bcb565b6001600160ff1b0384018313811615612c7257612c72612bcb565b50500390565b600080821280156001600160ff1b0384900385131615612c9a57612c9a612bcb565b600160ff1b8390038412811615612cb357612cb3612bcb565b50500190565b60008219821115612ccc57612ccc612bcb565b500190565b600062ffffff83811690831681811015612ced57612ced612bcb565b039392505050565b60006001600160ff1b0381841382841380821686840486111615612d1b57612d1b612bcb565b600160ff1b6000871282811687830589121615612d3a57612d3a612bcb565b60008712925087820587128484161615612d5657612d56612bcb565b87850587128184161615612d6c57612d6c612bcb565b505050929093029392505050565b600062ffffff808316818516808303821115612d9857612d98612bcb565b01949350505050565b805169ffffffffffffffffffff8116811461293a57600080fd5b600080600080600060a08688031215612dd357600080fd5b612ddc86612da1565b9450602086015193506040860151925060608601519150612dff60808701612da1565b90509295509295909350565b600181815b80851115612e46578160001904821115612e2c57612e2c612bcb565b80851615612e3957918102915b93841c9390800290612e10565b509250929050565b600082612e5d575060016109dc565b81612e6a575060006109dc565b8160018114612e805760028114612e8a57612ea6565b60019150506109dc565b60ff841115612e9b57612e9b612bcb565b50506001821b6109dc565b5060208310610133831016604e8410600b8410161715612ec9575081810a6109dc565b612ed38383612e0b565b8060001904821115612ee757612ee7612bcb565b029392505050565b600061281e60ff841683612e4e565b600081810b607f19811415612f1557612f15612bcb565b60000392915050565b6000600019821415612f3257612f32612bcb565b5060010190565b60008251612f4b81846020870161296b565b9190910192915050565b600060208284031215612f6757600080fd5b8151801515811461281e57600080fdfe303db7636b0e071f088d2cd5e8463efe513531272d61a18739b21053f6d7b430a26469706673582212201c84cfae643a4f7ac2f1e63a726822a4b694482ae7ac7dadfd43395802520fdf64736f6c63430008090033",
    "sourcePath": "d:/contract/hedgex/Single.sol",
    "compiler": {
        "name": "solc",
        "version": "0.8.9+commit.e5eed63a"
    },
    "functionHashes": {
        "DOMAIN_SEPARATOR()": "3644e515",
        "PERMIT_TYPEHASH()": "30adf81f",
        "addLiquidity(uint256,address)": "c95f9d0e",
        "allowance(address,address)": "dd62ed3e",
        "amountDecimal()": "2be90282",
        "approve(address,uint256)": "095ea7b3",
        "balanceOf(address)": "70a08231",
        "closeLong(uint256,uint256)": "416c5690",
        "closeShort(uint256,uint256)": "f69d91ae",
        "dailyInterestRateBase()": "8967b694",
        "decimals()": "313ce567",
        "detectSlide(address,address)": "ddcb04c2",
        "divConst()": "7e4856c4",
        "explosive(address,address)": "89d408ff",
        "feeDivide()": "d375454f",
        "feeOn()": "4f335d0a",
        "feeRate()": "978bbdb9",
        "feedPrice()": "a04eecae",
        "feedPriceDecimal()": "08c73e74",
        "getLatestPrice()": "8e15f473",
        "getPoolNet()": "7bb71a97",
        "initialize(address,address,uint256,uint256,uint8,int8)": "251c073a",
        "interestRewardRate()": "01bcc908",
        "isStart()": "8a55d36e",
        "leverage()": "2c86d98e",
        "minPool()": "2678b8fd",
        "name()": "06fdde03",
        "nonces(address)": "7ecebe00",
        "openLong(uint256,uint256,uint256)": "6c2ee359",
        "openShort(uint256,uint256,uint256)": "71b31707",
        "permit(address,address,uint256,uint256,uint8,bytes32,bytes32)": "d505accf",
        "poolLongAmount()": "e5984319",
        "poolLongPrice()": "994af3ae",
        "poolShortAmount()": "8e406892",
        "poolShortPrice()": "971059fb",
        "rechargeMargin(uint256)": "11ce83f8",
        "removeLiquidity(uint256,address)": "05fe138b",
        "singleTradeLimitRate()": "1865071d",
        "slideP()": "2c204fa8",
        "sumFee()": "190b065f",
        "symbol()": "95d89b41",
        "token0()": "0dfe1681",
        "token0Decimal()": "9ddc230a",
        "totalPool()": "ecfb49a3",
        "totalSupply()": "18160ddd",
        "traders(address)": "92a88fa2",
        "transfer(address,uint256)": "a9059cbb",
        "transferFrom(address,address,uint256)": "23b872dd",
        "withdrawMargin(uint256,uint256)": "3bad4bbb"
    },
    "gasEstimates": {
        "creation": {
            "codeDepositCost": "2447400",
            "executionCost": "infinite",
            "totalCost": "infinite"
        },
        "external": {
            "DOMAIN_SEPARATOR()": "infinite",
            "PERMIT_TYPEHASH()": "329",
            "addLiquidity(uint256,address)": "infinite",
            "allowance(address,address)": "infinite",
            "amountDecimal()": "infinite",
            "approve(address,uint256)": "24663",
            "balanceOf(address)": "2674",
            "closeLong(uint256,uint256)": "infinite",
            "closeShort(uint256,uint256)": "infinite",
            "dailyInterestRateBase()": "338",
            "decimals()": "infinite",
            "detectSlide(address,address)": "infinite",
            "divConst()": "283",
            "explosive(address,address)": "infinite",
            "feeDivide()": "260",
            "feeOn()": "2432",
            "feeRate()": "249",
            "feedPrice()": "infinite",
            "feedPriceDecimal()": "infinite",
            "getLatestPrice()": "infinite",
            "getPoolNet()": "infinite",
            "initialize(address,address,uint256,uint256,uint8,int8)": "infinite",
            "interestRewardRate()": "240",
            "isStart()": "2355",
            "leverage()": "infinite",
            "minPool()": "infinite",
            "name()": "infinite",
            "nonces(address)": "2631",
            "openLong(uint256,uint256,uint256)": "infinite",
            "openShort(uint256,uint256,uint256)": "infinite",
            "permit(address,address,uint256,uint256,uint8,bytes32,bytes32)": "infinite",
            "poolLongAmount()": "2383",
            "poolLongPrice()": "2362",
            "poolShortAmount()": "2384",
            "poolShortPrice()": "2450",
            "rechargeMargin(uint256)": "infinite",
            "removeLiquidity(uint256,address)": "infinite",
            "singleTradeLimitRate()": "294",
            "slideP()": "294",
            "sumFee()": "2407",
            "symbol()": "infinite",
            "token0()": "infinite",
            "token0Decimal()": "infinite",
            "totalPool()": "2405",
            "totalSupply()": "2363",
            "traders(address)": "11174",
            "transfer(address,uint256)": "51206",
            "transferFrom(address,address,uint256)": "infinite",
            "withdrawMargin(uint256,uint256)": "infinite"
        },
        "internal": {
            "feeCharge(uint256)": "51151",
            "feeCharge(uint256,int256)": "infinite",
            "getAccountNet(struct HedgexSingle.Trader memory)": "infinite",
            "getAccountNet(struct HedgexSingle.Trader memory,uint256)": "infinite",
            "getPoolNet(uint256)": "infinite",
            "judegOpen(struct HedgexSingle.Trader memory,uint256,uint256)": "infinite",
            "judgeClose(uint256,uint256,uint256)": "infinite",
            "limitTradeAmount(uint256,uint256)": "infinite"
        }
    }
}