{
    "contractName": "IndexPrice",
    "abi": [
        {
            "inputs": [
                {
                    "internalType": "address",
                    "name": "add1",
                    "type": "address"
                },
                {
                    "internalType": "address",
                    "name": "add2",
                    "type": "address"
                },
                {
                    "internalType": "address",
                    "name": "add3",
                    "type": "address"
                }
            ],
            "stateMutability": "nonpayable",
            "type": "constructor"
        },
        {
            "inputs": [],
            "name": "getLatestPrice",
            "outputs": [
                {
                    "internalType": "uint256",
                    "name": "",
                    "type": "uint256"
                }
            ],
            "stateMutability": "view",
            "type": "function"
        },
        {
            "inputs": [],
            "name": "linkEthUsd",
            "outputs": [
                {
                    "internalType": "address",
                    "name": "",
                    "type": "address"
                }
            ],
            "stateMutability": "view",
            "type": "function"
        },
        {
            "inputs": [],
            "name": "wethUsdc",
            "outputs": [
                {
                    "internalType": "address",
                    "name": "",
                    "type": "address"
                }
            ],
            "stateMutability": "view",
            "type": "function"
        },
        {
            "inputs": [],
            "name": "wethUsdt",
            "outputs": [
                {
                    "internalType": "address",
                    "name": "",
                    "type": "address"
                }
            ],
            "stateMutability": "view",
            "type": "function"
        }
    ],
    "bytecode": "60e060405234801561001057600080fd5b506040516104a33803806104a383398101604081905261002f91610068565b6001600160a01b0392831660805290821660a0521660c0526100ab565b80516001600160a01b038116811461006357600080fd5b919050565b60008060006060848603121561007d57600080fd5b6100868461004c565b92506100946020850161004c565b91506100a26040850161004c565b90509250925092565b60805160a05160c0516103bf6100e46000396000818160d7015260fe015260008181605601526101880152600060b001526103bf6000f3fe608060405234801561001057600080fd5b506004361061004c5760003560e01c80634c79a127146100515780638e15f473146100955780638f61f367146100ab578063c7489c53146100d2575b600080fd5b6100787f000000000000000000000000000000000000000000000000000000000000000081565b6040516001600160a01b0390911681526020015b60405180910390f35b61009d6100f9565b60405190815260200161008c565b6100787f000000000000000000000000000000000000000000000000000000000000000081565b6100787f000000000000000000000000000000000000000000000000000000000000000081565b6000807f00000000000000000000000000000000000000000000000000000000000000006001600160a01b031663feaf968c6040518163ffffffff1660e01b815260040160a060405180830381865afa15801561015a573d6000803e3d6000fd5b505050506040513d601f19601f8201168201806040525081019061017e919061024b565b50505091505060007f00000000000000000000000000000000000000000000000000000000000000006001600160a01b0316633850c7bd6040518163ffffffff1660e01b815260040160e060405180830381865afa1580156101e4573d6000803e3d6000fd5b505050506040513d601f19601f8201168201806040525081019061020891906102bd565b5050505050506001600160a01b0316905080826102259190610363565b9250505090565b805169ffffffffffffffffffff8116811461024657600080fd5b919050565b600080600080600060a0868803121561026357600080fd5b61026c8661022c565b945060208601519350604086015192506060860151915061028f6080870161022c565b90509295509295909350565b805161ffff8116811461024657600080fd5b8051801515811461024657600080fd5b600080600080600080600060e0888a0312156102d857600080fd5b87516001600160a01b03811681146102ef57600080fd5b8097505060208801518060020b811461030757600080fd5b95506103156040890161029b565b94506103236060890161029b565b93506103316080890161029b565b925060a088015160ff8116811461034757600080fd5b915061035560c089016102ad565b905092959891949750929550565b6000821982111561038457634e487b7160e01b600052601160045260246000fd5b50019056fea26469706673582212201874b6084915a513b67cf64218acdcfca8047b2c4b079da367c5b8e98edfee7464736f6c634300080a0033",
    "sourcePath": "d:/contract/hedgex/IndexPrice.sol",
    "compiler": {
        "name": "solc",
        "version": "0.8.10+commit.fc410830"
    },
    "functionHashes": {
        "getLatestPrice()": "8e15f473",
        "linkEthUsd()": "c7489c53",
        "wethUsdc()": "4c79a127",
        "wethUsdt()": "8f61f367"
    },
    "gasEstimates": {
        "creation": {
            "codeDepositCost": "191800",
            "executionCost": "infinite",
            "totalCost": "infinite"
        },
        "external": {
            "getLatestPrice()": "infinite",
            "linkEthUsd()": "infinite",
            "wethUsdc()": "infinite",
            "wethUsdt()": "infinite"
        }
    }
}