{
    "contractName": "LinkIndexPrice",
    "abi": [
        {
            "inputs": [
                {
                    "internalType": "address",
                    "name": "_feedPrice",
                    "type": "address"
                },
                {
                    "internalType": "uint256",
                    "name": "_feedPriceDecimal",
                    "type": "uint256"
                }
            ],
            "stateMutability": "nonpayable",
            "type": "constructor"
        },
        {
            "inputs": [],
            "name": "decimals",
            "outputs": [
                {
                    "internalType": "uint256",
                    "name": "",
                    "type": "uint256"
                }
            ],
            "stateMutability": "view",
            "type": "function"
        },
        {
            "inputs": [],
            "name": "feedPrice",
            "outputs": [
                {
                    "internalType": "contract AggregatorV3Interface",
                    "name": "",
                    "type": "address"
                }
            ],
            "stateMutability": "view",
            "type": "function"
        },
        {
            "inputs": [],
            "name": "indexPrice",
            "outputs": [
                {
                    "internalType": "uint256",
                    "name": "",
                    "type": "uint256"
                },
                {
                    "internalType": "uint256",
                    "name": "",
                    "type": "uint256"
                },
                {
                    "internalType": "uint256",
                    "name": "",
                    "type": "uint256"
                },
                {
                    "internalType": "uint256",
                    "name": "",
                    "type": "uint256"
                }
            ],
            "stateMutability": "view",
            "type": "function"
        }
    ],
    "bytecode": "60c060405234801561001057600080fd5b5060405161030638038061030683398101604081905261002f91610045565b6001600160a01b0390911660805260a05261007f565b6000806040838503121561005857600080fd5b82516001600160a01b038116811461006f57600080fd5b6020939093015192949293505050565b60805160a0516102576100af600039600081816078015261018d01526000818160ad015260f101526102576000f3fe608060405234801561001057600080fd5b50600436106100415760003560e01c806310bace8c14610046578063313ce56714610073578063a04eecae146100a8575b600080fd5b61004e6100e7565b6040805194855260208501939093529183015260608201526080015b60405180910390f35b61009a7f000000000000000000000000000000000000000000000000000000000000000081565b60405190815260200161006a565b6100cf7f000000000000000000000000000000000000000000000000000000000000000081565b6040516001600160a01b03909116815260200161006a565b60008060008060007f00000000000000000000000000000000000000000000000000000000000000006001600160a01b031663feaf968c6040518163ffffffff1660e01b815260040160a060405180830381865afa15801561014d573d6000803e3d6000fd5b505050506040513d601f19601f8201168201806040525081019061017191906101d1565b50505091505060008113610183575060005b94600094508493507f000000000000000000000000000000000000000000000000000000000000000092509050565b805169ffffffffffffffffffff811681146101cc57600080fd5b919050565b600080600080600060a086880312156101e957600080fd5b6101f2866101b2565b9450602086015193506040860151925060608601519150610215608087016101b2565b9050929550929590935056fea26469706673582212205183d3def4f95cab76d6682e9c657a3555ab8a0ecac75b818f04bf89325c91ec64736f6c634300080c0033",
    "sourcePath": "d:/contract/hedgex/LinkPrice.sol",
    "compiler": {
        "name": "solc",
        "version": "0.8.12+commit.f00d7308"
    },
    "functionHashes": {
        "decimals()": "313ce567",
        "feedPrice()": "a04eecae",
        "indexPrice()": "10bace8c"
    },
    "gasEstimates": {
        "creation": {
            "codeDepositCost": "119800",
            "executionCost": "infinite",
            "totalCost": "infinite"
        },
        "external": {
            "decimals()": "infinite",
            "feedPrice()": "infinite",
            "indexPrice()": "infinite"
        }
    }
}