{
    "contractName": "LinkIndexPrice",
    "abi": [
        {
            "inputs": [
                {
                    "internalType": "address",
                    "name": "_feedPrice",
                    "type": "address"
                },
                {
                    "internalType": "uint256",
                    "name": "_feedPriceDecimal",
                    "type": "uint256"
                }
            ],
            "stateMutability": "nonpayable",
            "type": "constructor"
        },
        {
            "inputs": [],
            "name": "decimals",
            "outputs": [
                {
                    "internalType": "uint256",
                    "name": "",
                    "type": "uint256"
                }
            ],
            "stateMutability": "view",
            "type": "function"
        },
        {
            "inputs": [],
            "name": "feedPrice",
            "outputs": [
                {
                    "internalType": "contract AggregatorV3Interface",
                    "name": "",
                    "type": "address"
                }
            ],
            "stateMutability": "view",
            "type": "function"
        },
        {
            "inputs": [],
            "name": "indexPrice",
            "outputs": [
                {
                    "internalType": "uint256",
                    "name": "",
                    "type": "uint256"
                },
                {
                    "internalType": "uint256",
                    "name": "",
                    "type": "uint256"
                },
                {
                    "internalType": "uint256",
                    "name": "",
                    "type": "uint256"
                }
            ],
            "stateMutability": "view",
            "type": "function"
        }
    ],
    "bytecode": "60c060405234801561001057600080fd5b506040516102fb3803806102fb83398101604081905261002f91610045565b6001600160a01b0390911660805260a05261007f565b6000806040838503121561005857600080fd5b82516001600160a01b038116811461006f57600080fd5b6020939093015192949293505050565b60805160a05161024c6100af600039600081816073015261017f01526000818160a8015260ea015261024c6000f3fe608060405234801561001057600080fd5b50600436106100415760003560e01c806310bace8c14610046578063313ce5671461006e578063a04eecae146100a3575b600080fd5b61004e6100e2565b604080519384526020840192909252908201526060015b60405180910390f35b6100957f000000000000000000000000000000000000000000000000000000000000000081565b604051908152602001610065565b6100ca7f000000000000000000000000000000000000000000000000000000000000000081565b6040516001600160a01b039091168152602001610065565b6000806000807f00000000000000000000000000000000000000000000000000000000000000006001600160a01b031663feaf968c6040518163ffffffff1660e01b815260040160a060405180830381865afa158015610146573d6000803e3d6000fd5b505050506040513d601f19601f8201168201806040525081019061016a91906101c6565b5050509150506000811361017c575060005b937f000000000000000000000000000000000000000000000000000000000000000093504292509050565b805169ffffffffffffffffffff811681146101c157600080fd5b919050565b600080600080600060a086880312156101de57600080fd5b6101e7866101a7565b945060208601519350604086015192506060860151915061020a608087016101a7565b9050929550929590935056fea2646970667358221220b9105ac8b521d66fc2a3d54874fd060154e2bb6715d77bca7896cce27156557b64736f6c634300080b0033",
    "sourcePath": "d:/contract/hedgex/LinkPrice.sol",
    "compiler": {
        "name": "solc",
        "version": "0.8.11+commit.d7f03943"
    },
    "functionHashes": {
        "decimals()": "313ce567",
        "feedPrice()": "a04eecae",
        "indexPrice()": "10bace8c"
    },
    "gasEstimates": {
        "creation": {
            "codeDepositCost": "117600",
            "executionCost": "infinite",
            "totalCost": "infinite"
        },
        "external": {
            "decimals()": "infinite",
            "feedPrice()": "infinite",
            "indexPrice()": "infinite"
        }
    }
}