{
    "contractName": "Ownable",
    "abi": [
        {
            "inputs": [],
            "name": "acceptSetter",
            "outputs": [],
            "stateMutability": "nonpayable",
            "type": "function"
        },
        {
            "inputs": [],
            "name": "owner",
            "outputs": [
                {
                    "internalType": "address",
                    "name": "",
                    "type": "address"
                }
            ],
            "stateMutability": "view",
            "type": "function"
        },
        {
            "inputs": [
                {
                    "internalType": "address",
                    "name": "_owner",
                    "type": "address"
                }
            ],
            "name": "transferOwner",
            "outputs": [],
            "stateMutability": "nonpayable",
            "type": "function"
        }
    ],
    "bytecode": "608060405234801561001057600080fd5b506101d2806100206000396000f3fe608060405234801561001057600080fd5b50600436106100415760003560e01c80634fb2e45d146100465780635f8e422f1461005b5780638da5cb5b14610063575b600080fd5b61005961005436600461016c565b610092565b005b6100596100ff565b600054610076906001600160a01b031681565b6040516001600160a01b03909116815260200160405180910390f35b6000546001600160a01b031633146100dd5760405162461bcd60e51b81526020600482015260096024820152683337b93134b23232b760b91b60448201526064015b60405180910390fd5b600180546001600160a01b0319166001600160a01b0392909216919091179055565b6001546001600160a01b031633146101455760405162461bcd60e51b81526020600482015260096024820152683337b93134b23232b760b91b60448201526064016100d4565b60018054600080546001600160a01b03199081166001600160a01b03841617909155169055565b60006020828403121561017e57600080fd5b81356001600160a01b038116811461019557600080fd5b939250505056fea2646970667358221220154ecab72a889ee560a46984368a9f4e33028a2052162465eb97959001f2424964736f6c634300080c0033",
    "sourcePath": "d:/contract/hedgex/Ownable.sol",
    "compiler": {
        "name": "solc",
        "version": "0.8.12+commit.f00d7308"
    },
    "functionHashes": {
        "acceptSetter()": "5f8e422f",
        "owner()": "8da5cb5b",
        "transferOwner(address)": "4fb2e45d"
    },
    "gasEstimates": {
        "creation": {
            "codeDepositCost": "93200",
            "executionCost": "141",
            "totalCost": "93341"
        },
        "external": {
            "acceptSetter()": "50759",
            "owner()": "2347",
            "transferOwner(address)": "26654"
        }
    }
}