{
    "contractName": "TokenERC20",
    "abi": [
        {
            "inputs": [],
            "stateMutability": "nonpayable",
            "type": "constructor"
        },
        {
            "anonymous": false,
            "inputs": [
                {
                    "indexed": true,
                    "internalType": "address",
                    "name": "owner",
                    "type": "address"
                },
                {
                    "indexed": true,
                    "internalType": "address",
                    "name": "spender",
                    "type": "address"
                },
                {
                    "indexed": false,
                    "internalType": "uint256",
                    "name": "value",
                    "type": "uint256"
                }
            ],
            "name": "Approval",
            "type": "event"
        },
        {
            "anonymous": false,
            "inputs": [
                {
                    "indexed": true,
                    "internalType": "address",
                    "name": "from",
                    "type": "address"
                },
                {
                    "indexed": true,
                    "internalType": "address",
                    "name": "to",
                    "type": "address"
                },
                {
                    "indexed": false,
                    "internalType": "uint256",
                    "name": "value",
                    "type": "uint256"
                }
            ],
            "name": "Transfer",
            "type": "event"
        },
        {
            "inputs": [
                {
                    "internalType": "address",
                    "name": "",
                    "type": "address"
                },
                {
                    "internalType": "address",
                    "name": "",
                    "type": "address"
                }
            ],
            "name": "allowance",
            "outputs": [
                {
                    "internalType": "uint256",
                    "name": "",
                    "type": "uint256"
                }
            ],
            "stateMutability": "view",
            "type": "function"
        },
        {
            "inputs": [
                {
                    "internalType": "address",
                    "name": "spender",
                    "type": "address"
                },
                {
                    "internalType": "uint256",
                    "name": "value",
                    "type": "uint256"
                }
            ],
            "name": "approve",
            "outputs": [
                {
                    "internalType": "bool",
                    "name": "",
                    "type": "bool"
                }
            ],
            "stateMutability": "nonpayable",
            "type": "function"
        },
        {
            "inputs": [
                {
                    "internalType": "address",
                    "name": "",
                    "type": "address"
                }
            ],
            "name": "balanceOf",
            "outputs": [
                {
                    "internalType": "uint256",
                    "name": "",
                    "type": "uint256"
                }
            ],
            "stateMutability": "view",
            "type": "function"
        },
        {
            "inputs": [],
            "name": "decimals",
            "outputs": [
                {
                    "internalType": "uint8",
                    "name": "",
                    "type": "uint8"
                }
            ],
            "stateMutability": "view",
            "type": "function"
        },
        {
            "inputs": [],
            "name": "name",
            "outputs": [
                {
                    "internalType": "string",
                    "name": "",
                    "type": "string"
                }
            ],
            "stateMutability": "view",
            "type": "function"
        },
        {
            "inputs": [],
            "name": "symbol",
            "outputs": [
                {
                    "internalType": "string",
                    "name": "",
                    "type": "string"
                }
            ],
            "stateMutability": "view",
            "type": "function"
        },
        {
            "inputs": [],
            "name": "totalSupply",
            "outputs": [
                {
                    "internalType": "uint256",
                    "name": "",
                    "type": "uint256"
                }
            ],
            "stateMutability": "view",
            "type": "function"
        },
        {
            "inputs": [
                {
                    "internalType": "address",
                    "name": "to",
                    "type": "address"
                },
                {
                    "internalType": "uint256",
                    "name": "value",
                    "type": "uint256"
                }
            ],
            "name": "transfer",
            "outputs": [
                {
                    "internalType": "bool",
                    "name": "",
                    "type": "bool"
                }
            ],
            "stateMutability": "nonpayable",
            "type": "function"
        },
        {
            "inputs": [
                {
                    "internalType": "address",
                    "name": "from",
                    "type": "address"
                },
                {
                    "internalType": "address",
                    "name": "to",
                    "type": "address"
                },
                {
                    "internalType": "uint256",
                    "name": "value",
                    "type": "uint256"
                }
            ],
            "name": "transferFrom",
            "outputs": [
                {
                    "internalType": "bool",
                    "name": "",
                    "type": "bool"
                }
            ],
            "stateMutability": "nonpayable",
            "type": "function"
        }
    ],
    "bytecode": "60c0604052600c60808190526b555344542072696e6b65627960a01b60a09081526200002f9160009190620000b8565b50604080518082019091526004808252631554d11560e21b60209092019182526200005d91600191620000b8565b506002805460ff191660061790553480156200007857600080fd5b506002546200008c9060ff16600a62000273565b6200009d906402540be40062000288565b600381905533600090815260046020526040902055620002e7565b828054620000c690620002aa565b90600052602060002090601f016020900481019282620000ea576000855562000135565b82601f106200010557805160ff191683800117855562000135565b8280016001018555821562000135579182015b828111156200013557825182559160200191906001019062000118565b506200014392915062000147565b5090565b5b8082111562000143576000815560010162000148565b634e487b7160e01b600052601160045260246000fd5b600181815b80851115620001b55781600019048211156200019957620001996200015e565b80851615620001a757918102915b93841c939080029062000179565b509250929050565b600082620001ce575060016200026d565b81620001dd575060006200026d565b8160018114620001f65760028114620002015762000221565b60019150506200026d565b60ff8411156200021557620002156200015e565b50506001821b6200026d565b5060208310610133831016604e8410600b841016171562000246575081810a6200026d565b62000252838362000174565b80600019048211156200026957620002696200015e565b0290505b92915050565b6000620002818383620001bd565b9392505050565b6000816000190483118215151615620002a557620002a56200015e565b500290565b600181811c90821680620002bf57607f821691505b60208210811415620002e157634e487b7160e01b600052602260045260246000fd5b50919050565b6105a580620002f76000396000f3fe608060405234801561001057600080fd5b50600436106100935760003560e01c8063313ce56711610066578063313ce5671461010357806370a082311461012257806395d89b4114610142578063a9059cbb1461014a578063dd62ed3e1461015d57600080fd5b806306fdde0314610098578063095ea7b3146100b657806318160ddd146100d957806323b872dd146100f0575b600080fd5b6100a0610188565b6040516100ad91906103c3565b60405180910390f35b6100c96100c4366004610434565b610216565b60405190151581526020016100ad565b6100e260035481565b6040519081526020016100ad565b6100c96100fe36600461045e565b61022c565b6002546101109060ff1681565b60405160ff90911681526020016100ad565b6100e261013036600461049a565b60046020526000908152604090205481565b6100a06102a6565b6100c9610158366004610434565b6102b3565b6100e261016b3660046104bc565b600560209081526000928352604080842090915290825290205481565b60008054610195906104ef565b80601f01602080910402602001604051908101604052809291908181526020018280546101c1906104ef565b801561020e5780601f106101e35761010080835404028352916020019161020e565b820191906000526020600020905b8154815290600101906020018083116101f157829003601f168201915b505050505081565b60006102233384846102c0565b50600192915050565b6001600160a01b038316600090815260056020908152604080832033845290915281205460001914610291576001600160a01b03841660009081526005602090815260408083203384529091528120805484929061028b908490610540565b90915550505b61029c848484610322565b5060019392505050565b60018054610195906104ef565b6000610223338484610322565b6001600160a01b0383811660008181526005602090815260408083209487168084529482529182902085905590518481527f8c5be1e5ebec7d5bd14f71427d1e84f3dd0314c0f7b2291e5b200ac8c7c3b92591015b60405180910390a3505050565b6001600160a01b0383166000908152600460205260408120805483929061034a908490610540565b90915550506001600160a01b03821660009081526004602052604081208054839290610377908490610557565b92505081905550816001600160a01b0316836001600160a01b03167fddf252ad1be2c89b69c2b068fc378daa952ba7f163c4a11628f55a4df523b3ef8360405161031591815260200190565b600060208083528351808285015260005b818110156103f0578581018301518582016040015282016103d4565b81811115610402576000604083870101525b50601f01601f1916929092016040019392505050565b80356001600160a01b038116811461042f57600080fd5b919050565b6000806040838503121561044757600080fd5b61045083610418565b946020939093013593505050565b60008060006060848603121561047357600080fd5b61047c84610418565b925061048a60208501610418565b9150604084013590509250925092565b6000602082840312156104ac57600080fd5b6104b582610418565b9392505050565b600080604083850312156104cf57600080fd5b6104d883610418565b91506104e660208401610418565b90509250929050565b600181811c9082168061050357607f821691505b6020821081141561052457634e487b7160e01b600052602260045260246000fd5b50919050565b634e487b7160e01b600052601160045260246000fd5b6000828210156105525761055261052a565b500390565b6000821982111561056a5761056a61052a565b50019056fea2646970667358221220221ae4f8db903edd0d0a329ba61d13144b415c0be3b52f36716d001ca7d4d34464736f6c63430008090033",
    "sourcePath": "d:/contract/hedgex/usdt_test.sol",
    "compiler": {
        "name": "solc",
        "version": "0.8.9+commit.e5eed63a"
    },
    "functionHashes": {
        "allowance(address,address)": "dd62ed3e",
        "approve(address,uint256)": "095ea7b3",
        "balanceOf(address)": "70a08231",
        "decimals()": "313ce567",
        "name()": "06fdde03",
        "symbol()": "95d89b41",
        "totalSupply()": "18160ddd",
        "transfer(address,uint256)": "a9059cbb",
        "transferFrom(address,address,uint256)": "23b872dd"
    },
    "gasEstimates": {
        "creation": {
            "codeDepositCost": "289000",
            "executionCost": "infinite",
            "totalCost": "infinite"
        },
        "external": {
            "allowance(address,address)": "infinite",
            "approve(address,uint256)": "24550",
            "balanceOf(address)": "2541",
            "decimals()": "2313",
            "name()": "infinite",
            "symbol()": "infinite",
            "totalSupply()": "2340",
            "transfer(address,uint256)": "51138",
            "transferFrom(address,address,uint256)": "infinite"
        },
        "internal": {
            "_approve(address,address,uint256)": "infinite",
            "_transfer(address,address,uint256)": "infinite"
        }
    }
}