{
    "contractName": "TokenERC20",
    "abi": [
        {
            "inputs": [],
            "stateMutability": "nonpayable",
            "type": "constructor"
        },
        {
            "anonymous": false,
            "inputs": [
                {
                    "indexed": true,
                    "internalType": "address",
                    "name": "owner",
                    "type": "address"
                },
                {
                    "indexed": true,
                    "internalType": "address",
                    "name": "spender",
                    "type": "address"
                },
                {
                    "indexed": false,
                    "internalType": "uint256",
                    "name": "value",
                    "type": "uint256"
                }
            ],
            "name": "Approval",
            "type": "event"
        },
        {
            "anonymous": false,
            "inputs": [
                {
                    "indexed": true,
                    "internalType": "address",
                    "name": "sender",
                    "type": "address"
                },
                {
                    "indexed": false,
                    "internalType": "uint256",
                    "name": "amount",
                    "type": "uint256"
                }
            ],
            "name": "Mint",
            "type": "event"
        },
        {
            "anonymous": false,
            "inputs": [
                {
                    "indexed": true,
                    "internalType": "address",
                    "name": "from",
                    "type": "address"
                },
                {
                    "indexed": true,
                    "internalType": "address",
                    "name": "to",
                    "type": "address"
                },
                {
                    "indexed": false,
                    "internalType": "uint256",
                    "name": "value",
                    "type": "uint256"
                }
            ],
            "name": "Transfer",
            "type": "event"
        },
        {
            "inputs": [
                {
                    "internalType": "address",
                    "name": "",
                    "type": "address"
                },
                {
                    "internalType": "address",
                    "name": "",
                    "type": "address"
                }
            ],
            "name": "allowance",
            "outputs": [
                {
                    "internalType": "uint256",
                    "name": "",
                    "type": "uint256"
                }
            ],
            "stateMutability": "view",
            "type": "function"
        },
        {
            "inputs": [
                {
                    "internalType": "address",
                    "name": "spender",
                    "type": "address"
                },
                {
                    "internalType": "uint256",
                    "name": "value",
                    "type": "uint256"
                }
            ],
            "name": "approve",
            "outputs": [
                {
                    "internalType": "bool",
                    "name": "",
                    "type": "bool"
                }
            ],
            "stateMutability": "nonpayable",
            "type": "function"
        },
        {
            "inputs": [
                {
                    "internalType": "address",
                    "name": "",
                    "type": "address"
                }
            ],
            "name": "balanceOf",
            "outputs": [
                {
                    "internalType": "uint256",
                    "name": "",
                    "type": "uint256"
                }
            ],
            "stateMutability": "view",
            "type": "function"
        },
        {
            "inputs": [],
            "name": "decimals",
            "outputs": [
                {
                    "internalType": "uint8",
                    "name": "",
                    "type": "uint8"
                }
            ],
            "stateMutability": "view",
            "type": "function"
        },
        {
            "inputs": [
                {
                    "internalType": "uint256",
                    "name": "amount",
                    "type": "uint256"
                }
            ],
            "name": "mint",
            "outputs": [],
            "stateMutability": "nonpayable",
            "type": "function"
        },
        {
            "inputs": [],
            "name": "minter",
            "outputs": [
                {
                    "internalType": "address",
                    "name": "",
                    "type": "address"
                }
            ],
            "stateMutability": "view",
            "type": "function"
        },
        {
            "inputs": [],
            "name": "name",
            "outputs": [
                {
                    "internalType": "string",
                    "name": "",
                    "type": "string"
                }
            ],
            "stateMutability": "view",
            "type": "function"
        },
        {
            "inputs": [],
            "name": "symbol",
            "outputs": [
                {
                    "internalType": "string",
                    "name": "",
                    "type": "string"
                }
            ],
            "stateMutability": "view",
            "type": "function"
        },
        {
            "inputs": [],
            "name": "totalSupply",
            "outputs": [
                {
                    "internalType": "uint256",
                    "name": "",
                    "type": "uint256"
                }
            ],
            "stateMutability": "view",
            "type": "function"
        },
        {
            "inputs": [
                {
                    "internalType": "address",
                    "name": "to",
                    "type": "address"
                },
                {
                    "internalType": "uint256",
                    "name": "value",
                    "type": "uint256"
                }
            ],
            "name": "transfer",
            "outputs": [
                {
                    "internalType": "bool",
                    "name": "",
                    "type": "bool"
                }
            ],
            "stateMutability": "nonpayable",
            "type": "function"
        },
        {
            "inputs": [
                {
                    "internalType": "address",
                    "name": "from",
                    "type": "address"
                },
                {
                    "internalType": "address",
                    "name": "to",
                    "type": "address"
                },
                {
                    "internalType": "uint256",
                    "name": "value",
                    "type": "uint256"
                }
            ],
            "name": "transferFrom",
            "outputs": [
                {
                    "internalType": "bool",
                    "name": "",
                    "type": "bool"
                }
            ],
            "stateMutability": "nonpayable",
            "type": "function"
        }
    ],
    "bytecode": "60c0604052600b60808190526a5553442072696e6b65627960a81b60a09081526200002e9160009190620000cc565b50604080518082019091526003808252621554d160ea1b60209092019182526200005b91600191620000cc565b506002805460ff191660061790553480156200007657600080fd5b506002546200008a9060ff16600a62000287565b6200009b906402540be4006200029c565b600381905533600081815260056020526040902091909155600480546001600160a01b0319169091179055620002fb565b828054620000da90620002be565b90600052602060002090601f016020900481019282620000fe576000855562000149565b82601f106200011957805160ff191683800117855562000149565b8280016001018555821562000149579182015b82811115620001495782518255916020019190600101906200012c565b50620001579291506200015b565b5090565b5b808211156200015757600081556001016200015c565b634e487b7160e01b600052601160045260246000fd5b600181815b80851115620001c9578160001904821115620001ad57620001ad62000172565b80851615620001bb57918102915b93841c93908002906200018d565b509250929050565b600082620001e25750600162000281565b81620001f15750600062000281565b81600181146200020a5760028114620002155762000235565b600191505062000281565b60ff84111562000229576200022962000172565b50506001821b62000281565b5060208310610133831016604e8410600b84101617156200025a575081810a62000281565b62000266838362000188565b80600019048211156200027d576200027d62000172565b0290505b92915050565b6000620002958383620001d1565b9392505050565b6000816000190483118215151615620002b957620002b962000172565b500290565b600181811c90821680620002d357607f821691505b60208210811415620002f557634e487b7160e01b600052602260045260246000fd5b50919050565b610692806200030b6000396000f3fe608060405234801561001057600080fd5b50600436106100a95760003560e01c8063313ce56711610071578063313ce5671461014457806370a082311461016357806395d89b4114610183578063a0712d681461018b578063a9059cbb146101a0578063dd62ed3e146101b357600080fd5b806306fdde03146100ae57806307546172146100cc578063095ea7b3146100f757806318160ddd1461011a57806323b872dd14610131575b600080fd5b6100b66101de565b6040516100c39190610497565b60405180910390f35b6004546100df906001600160a01b031681565b6040516001600160a01b0390911681526020016100c3565b61010a610105366004610508565b61026c565b60405190151581526020016100c3565b61012360035481565b6040519081526020016100c3565b61010a61013f366004610532565b610282565b6002546101519060ff1681565b60405160ff90911681526020016100c3565b61012361017136600461056e565b60056020526000908152604090205481565b6100b66102fc565b61019e610199366004610590565b610309565b005b61010a6101ae366004610508565b610387565b6101236101c13660046105a9565b600660209081526000928352604080842090915290825290205481565b600080546101eb906105dc565b80601f0160208091040260200160405190810160405280929190818152602001828054610217906105dc565b80156102645780601f1061023957610100808354040283529160200191610264565b820191906000526020600020905b81548152906001019060200180831161024757829003601f168201915b505050505081565b6000610279338484610394565b50600192915050565b6001600160a01b0383166000908152600660209081526040808320338452909152812054600019146102e7576001600160a01b0384166000908152600660209081526040808320338452909152812080548492906102e190849061062d565b90915550505b6102f28484846103f6565b5060019392505050565b600180546101eb906105dc565b6004546001600160a01b0316331461032057600080fd5b6004546001600160a01b03166000908152600560205260408120805483929061034a908490610644565b909155505060405181815233907f0f6798a560793a54c3bcfe86a93cde1e73087d944c0ea20544137d41213968859060200160405180910390a250565b60006102793384846103f6565b6001600160a01b0383811660008181526006602090815260408083209487168084529482529182902085905590518481527f8c5be1e5ebec7d5bd14f71427d1e84f3dd0314c0f7b2291e5b200ac8c7c3b92591015b60405180910390a3505050565b6001600160a01b0383166000908152600560205260408120805483929061041e90849061062d565b90915550506001600160a01b0382166000908152600560205260408120805483929061044b908490610644565b92505081905550816001600160a01b0316836001600160a01b03167fddf252ad1be2c89b69c2b068fc378daa952ba7f163c4a11628f55a4df523b3ef836040516103e991815260200190565b600060208083528351808285015260005b818110156104c4578581018301518582016040015282016104a8565b818111156104d6576000604083870101525b50601f01601f1916929092016040019392505050565b80356001600160a01b038116811461050357600080fd5b919050565b6000806040838503121561051b57600080fd5b610524836104ec565b946020939093013593505050565b60008060006060848603121561054757600080fd5b610550846104ec565b925061055e602085016104ec565b9150604084013590509250925092565b60006020828403121561058057600080fd5b610589826104ec565b9392505050565b6000602082840312156105a257600080fd5b5035919050565b600080604083850312156105bc57600080fd5b6105c5836104ec565b91506105d3602084016104ec565b90509250929050565b600181811c908216806105f057607f821691505b6020821081141561061157634e487b7160e01b600052602260045260246000fd5b50919050565b634e487b7160e01b600052601160045260246000fd5b60008282101561063f5761063f610617565b500390565b6000821982111561065757610657610617565b50019056fea2646970667358221220d5951cf81c89adf7bf066d973bc4086ba229db066bf1e6e2bf90137c3368d3b764736f6c634300080c0033",
    "sourcePath": "d:/contract/hedgex/usdt_test.sol",
    "compiler": {
        "name": "solc",
        "version": "0.8.12+commit.f00d7308"
    },
    "functionHashes": {
        "allowance(address,address)": "dd62ed3e",
        "approve(address,uint256)": "095ea7b3",
        "balanceOf(address)": "70a08231",
        "decimals()": "313ce567",
        "mint(uint256)": "a0712d68",
        "minter()": "07546172",
        "name()": "06fdde03",
        "symbol()": "95d89b41",
        "totalSupply()": "18160ddd",
        "transfer(address,uint256)": "a9059cbb",
        "transferFrom(address,address,uint256)": "23b872dd"
    },
    "gasEstimates": {
        "creation": {
            "codeDepositCost": "336400",
            "executionCost": "infinite",
            "totalCost": "infinite"
        },
        "external": {
            "allowance(address,address)": "infinite",
            "approve(address,uint256)": "24572",
            "balanceOf(address)": "2541",
            "decimals()": "2313",
            "mint(uint256)": "30351",
            "minter()": "2360",
            "name()": "infinite",
            "symbol()": "infinite",
            "totalSupply()": "2362",
            "transfer(address,uint256)": "51160",
            "transferFrom(address,address,uint256)": "infinite"
        },
        "internal": {
            "_approve(address,address,uint256)": "infinite",
            "_transfer(address,address,uint256)": "infinite"
        }
    }
}