{
    "contractName": "TripleIndexPrice",
    "abi": [
        {
            "inputs": [
                {
                    "internalType": "string",
                    "name": "_symbol",
                    "type": "string"
                },
                {
                    "internalType": "uint256",
                    "name": "_priceDecimal",
                    "type": "uint256"
                },
                {
                    "internalType": "uint8",
                    "name": "_feeDRate",
                    "type": "uint8"
                },
                {
                    "internalType": "uint256",
                    "name": "value",
                    "type": "uint256"
                }
            ],
            "stateMutability": "nonpayable",
            "type": "constructor"
        },
        {
            "inputs": [],
            "name": "acceptSetter",
            "outputs": [],
            "stateMutability": "nonpayable",
            "type": "function"
        },
        {
            "inputs": [],
            "name": "decimals",
            "outputs": [
                {
                    "internalType": "uint256",
                    "name": "",
                    "type": "uint256"
                }
            ],
            "stateMutability": "view",
            "type": "function"
        },
        {
            "inputs": [],
            "name": "divConst",
            "outputs": [
                {
                    "internalType": "uint24",
                    "name": "",
                    "type": "uint24"
                }
            ],
            "stateMutability": "view",
            "type": "function"
        },
        {
            "inputs": [],
            "name": "feeDRate",
            "outputs": [
                {
                    "internalType": "uint8",
                    "name": "",
                    "type": "uint8"
                }
            ],
            "stateMutability": "view",
            "type": "function"
        },
        {
            "inputs": [],
            "name": "getCurrentPriceSlideRate",
            "outputs": [
                {
                    "internalType": "uint256",
                    "name": "",
                    "type": "uint256"
                },
                {
                    "internalType": "uint256",
                    "name": "",
                    "type": "uint256"
                }
            ],
            "stateMutability": "view",
            "type": "function"
        },
        {
            "inputs": [],
            "name": "halfNumber",
            "outputs": [
                {
                    "internalType": "uint8",
                    "name": "",
                    "type": "uint8"
                }
            ],
            "stateMutability": "view",
            "type": "function"
        },
        {
            "inputs": [],
            "name": "indexPrice",
            "outputs": [
                {
                    "internalType": "uint256",
                    "name": "",
                    "type": "uint256"
                },
                {
                    "internalType": "uint256",
                    "name": "",
                    "type": "uint256"
                },
                {
                    "internalType": "int256",
                    "name": "",
                    "type": "int256"
                }
            ],
            "stateMutability": "view",
            "type": "function"
        },
        {
            "inputs": [],
            "name": "maxSlideRate",
            "outputs": [
                {
                    "internalType": "uint16",
                    "name": "",
                    "type": "uint16"
                }
            ],
            "stateMutability": "view",
            "type": "function"
        },
        {
            "inputs": [],
            "name": "owner",
            "outputs": [
                {
                    "internalType": "address",
                    "name": "",
                    "type": "address"
                }
            ],
            "stateMutability": "view",
            "type": "function"
        },
        {
            "inputs": [
                {
                    "internalType": "uint256",
                    "name": "value",
                    "type": "uint256"
                },
                {
                    "internalType": "uint256",
                    "name": "deadline",
                    "type": "uint256"
                }
            ],
            "name": "postPrice",
            "outputs": [],
            "stateMutability": "nonpayable",
            "type": "function"
        },
        {
            "inputs": [
                {
                    "internalType": "address",
                    "name": "",
                    "type": "address"
                }
            ],
            "name": "posters",
            "outputs": [
                {
                    "internalType": "int8",
                    "name": "",
                    "type": "int8"
                }
            ],
            "stateMutability": "view",
            "type": "function"
        },
        {
            "inputs": [
                {
                    "internalType": "uint8",
                    "name": "value",
                    "type": "uint8"
                }
            ],
            "name": "setHalfNumber",
            "outputs": [],
            "stateMutability": "nonpayable",
            "type": "function"
        },
        {
            "inputs": [
                {
                    "internalType": "address",
                    "name": "poster",
                    "type": "address"
                },
                {
                    "internalType": "int8",
                    "name": "value",
                    "type": "int8"
                }
            ],
            "name": "setPosters",
            "outputs": [],
            "stateMutability": "nonpayable",
            "type": "function"
        },
        {
            "inputs": [],
            "name": "slideP",
            "outputs": [
                {
                    "internalType": "uint8",
                    "name": "",
                    "type": "uint8"
                }
            ],
            "stateMutability": "view",
            "type": "function"
        },
        {
            "inputs": [],
            "name": "slideScale",
            "outputs": [
                {
                    "internalType": "uint24",
                    "name": "",
                    "type": "uint24"
                }
            ],
            "stateMutability": "view",
            "type": "function"
        },
        {
            "inputs": [],
            "name": "symbol",
            "outputs": [
                {
                    "internalType": "bytes32",
                    "name": "",
                    "type": "bytes32"
                }
            ],
            "stateMutability": "view",
            "type": "function"
        },
        {
            "inputs": [
                {
                    "internalType": "address",
                    "name": "_owner",
                    "type": "address"
                }
            ],
            "name": "transferOwner",
            "outputs": [],
            "stateMutability": "nonpayable",
            "type": "function"
        },
        {
            "inputs": [],
            "name": "updateAt",
            "outputs": [
                {
                    "internalType": "uint256",
                    "name": "",
                    "type": "uint256"
                }
            ],
            "stateMutability": "view",
            "type": "function"
        }
    ],
    "bytecode": "60c06040526001805460ff60a01b1916600560a21b1790553480156200002457600080fd5b5060405162000c1038038062000c10833981016040819052620000479162000129565b836040516020016200005a919062000207565b60408051601f19818403018152918152815160209283012060035560a094909452600080546001600160a01b03191633908117825560ff9094166080526004929092556007805460ff199081166001179091559282526008905291909120805490911660061790555062000225565b634e487b7160e01b600052604160045260246000fd5b60005b83811015620000fc578181015183820152602001620000e2565b838111156200010c576000848401525b50505050565b805160ff811681146200012457600080fd5b919050565b600080600080608085870312156200014057600080fd5b84516001600160401b03808211156200015857600080fd5b818701915087601f8301126200016d57600080fd5b815181811115620001825762000182620000c9565b604051601f8201601f19908116603f01168101908382118183101715620001ad57620001ad620000c9565b816040528281528a6020848701011115620001c757600080fd5b620001da836020830160208801620000df565b809850505050505060208501519250620001f76040860162000112565b6060959095015193969295505050565b600082516200021b818460208701620000df565b9190910192915050565b60805160a0516109b0620002606000396000818161017701526103400152600081816102c00152818161046a01526104a401526109b06000f3fe608060405234801561001057600080fd5b50600436106101165760003560e01c80637e018d5c116100a25780639fdd409b116100715780639fdd409b14610282578063b163078714610295578063c964f585146102b2578063dc3b903d146102bb578063f3b795bd146102e257600080fd5b80637e018d5c146102285780637e4856c4146102445780638da5cb5b1461024e57806395d89b411461027957600080fd5b8063339475c1116100e9578063339475c1146101a75780634fb2e45d146101ba5780635f8e422f146101cd5780635fd4d58a146101d557806374828310146101f357600080fd5b806310bace8c1461011b57806317c836fa146101435780632c204fa814610158578063313ce56714610172575b600080fd5b6101236102f6565b604080519384526020840192909252908201526060015b60405180910390f35b610156610151366004610794565b61036a565b005b610160600581565b60405160ff909116815260200161013a565b6101997f000000000000000000000000000000000000000000000000000000000000000081565b60405190815260200161013a565b6101566101b53660046107b6565b6105a4565b6101566101c83660046107fc565b6105ee565b610156610656565b6101df6201adb081565b60405162ffffff909116815260200161013a565b6102156102013660046107fc565b600860205260009081526040812054900b81565b60405160009190910b815260200161013a565b6102316107d081565b60405161ffff909116815260200161013a565b6101df620186a081565b600054610261906001600160a01b031681565b6040516001600160a01b03909116815260200161013a565b61019960035481565b610156610290366004610817565b6106c3565b61029d61071a565b6040805192835260208301919091520161013a565b61019960025481565b6101607f000000000000000000000000000000000000000000000000000000000000000081565b60015461016090600160a01b900460ff1681565b60008060008061030461071a565b5090506000620186a062ffffff1682600454610320919061086a565b61032a9190610889565b60075461033a919060000b6108ab565b600454967f0000000000000000000000000000000000000000000000000000000000000000965090945092505050565b80428110156103a45760405162461bcd60e51b81526020600482015260016024820152600360fc1b60448201526064015b60405180910390fd5b336000908152600860205260408120546006910b146103d55760405162461bcd60e51b815260040161039b90610930565b600083116104095760405162461bcd60e51b81526020600482015260016024820152601960f91b604482015260640161039b565b61041161071a565b60065560055560045460009084111561043857600454610431908561094b565b9050610449565b83600454610446919061094b565b90505b60045460009061045c620186a08461086a565b6104669190610889565b90507f000000000000000000000000000000000000000000000000000000000000000060ff1681111561052e576000620186a06201adb06104ca60ff7f0000000000000000000000000000000000000000000000000000000000000000168561094b565b6104d4919061086a565b6104de9190610889565b90506107d08111156104ef57506107d05b60055481111561052c5760058190554360065560045486111561051e576007805460ff1916600117905561052c565b6007805460ff191660ff1790555b505b6005546107d0141561059357600454620186a09061054e906107d061086a565b6105589190610889565b91506004548511156105815781600460008282546105769190610962565b909155506105999050565b8160046000828254610576919061094b565b60048590555b505042600255505050565b6000546001600160a01b031633146105ce5760405162461bcd60e51b815260040161039b90610930565b6001805460ff909216600160a01b0260ff60a01b19909216919091179055565b6000546001600160a01b031633146106345760405162461bcd60e51b81526020600482015260096024820152683337b93134b23232b760b91b604482015260640161039b565b600180546001600160a01b0319166001600160a01b0392909216919091179055565b6001546001600160a01b0316331461069c5760405162461bcd60e51b81526020600482015260096024820152683337b93134b23232b760b91b604482015260640161039b565b60018054600080546001600160a01b03199081166001600160a01b03841617909155169055565b6000546001600160a01b031633146106ed5760405162461bcd60e51b815260040161039b90610930565b6001600160a01b03919091166000908152600860205260409020805460ff191660ff909216919091179055565b60055460065460009182915b600582111561077e57600154439061074890600160a01b900460ff1683610962565b11156107535761077e565b60015461076a90600160a01b900460ff1682610962565b9050610777600283610889565b9150610726565b6005821161078b57600591505b90939092509050565b600080604083850312156107a757600080fd5b50508035926020909101359150565b6000602082840312156107c857600080fd5b813560ff811681146107d957600080fd5b9392505050565b80356001600160a01b03811681146107f757600080fd5b919050565b60006020828403121561080e57600080fd5b6107d9826107e0565b6000806040838503121561082a57600080fd5b610833836107e0565b915060208301358060000b811461084957600080fd5b809150509250929050565b634e487b7160e01b600052601160045260246000fd5b600081600019048311821515161561088457610884610854565b500290565b6000826108a657634e487b7160e01b600052601260045260246000fd5b500490565b60006001600160ff1b03818413828413808216868404861116156108d1576108d1610854565b600160ff1b60008712828116878305891216156108f0576108f0610854565b6000871292508782058712848416161561090c5761090c610854565b8785058712818416161561092257610922610854565b505050929093029392505050565b6020808252600190820152603160f81b604082015260600190565b60008282101561095d5761095d610854565b500390565b6000821982111561097557610975610854565b50019056fea26469706673582212206afbd31b49260efd0a71807eddea64d12d281bcc29da6e7e5daf05883ce5ff0064736f6c634300080c0033",
    "sourcePath": "d:/contract/hedgex/TriplePost.sol",
    "compiler": {
        "name": "solc",
        "version": "0.8.12+commit.f00d7308"
    },
    "functionHashes": {
        "acceptSetter()": "5f8e422f",
        "decimals()": "313ce567",
        "divConst()": "7e4856c4",
        "feeDRate()": "dc3b903d",
        "getCurrentPriceSlideRate()": "b1630787",
        "halfNumber()": "f3b795bd",
        "indexPrice()": "10bace8c",
        "maxSlideRate()": "7e018d5c",
        "owner()": "8da5cb5b",
        "postPrice(uint256,uint256)": "17c836fa",
        "posters(address)": "74828310",
        "setHalfNumber(uint8)": "339475c1",
        "setPosters(address,int8)": "9fdd409b",
        "slideP()": "2c204fa8",
        "slideScale()": "5fd4d58a",
        "symbol()": "95d89b41",
        "transferOwner(address)": "4fb2e45d",
        "updateAt()": "c964f585"
    },
    "gasEstimates": {
        "creation": {
            "codeDepositCost": "496000",
            "executionCost": "infinite",
            "totalCost": "infinite"
        },
        "external": {
            "acceptSetter()": "50826",
            "decimals()": "infinite",
            "divConst()": "249",
            "feeDRate()": "infinite",
            "getCurrentPriceSlideRate()": "infinite",
            "halfNumber()": "2440",
            "indexPrice()": "infinite",
            "maxSlideRate()": "227",
            "owner()": "2404",
            "postPrice(uint256,uint256)": "infinite",
            "posters(address)": "2652",
            "setHalfNumber(uint8)": "26686",
            "setPosters(address,int8)": "26861",
            "slideP()": "272",
            "slideScale()": "293",
            "symbol()": "2384",
            "transferOwner(address)": "26756",
            "updateAt()": "2361"
        }
    }
}