{
    "contractName": "TripleIndexPrice",
    "abi": [
        {
            "inputs": [
                {
                    "internalType": "string",
                    "name": "_symbol",
                    "type": "string"
                },
                {
                    "internalType": "uint256",
                    "name": "value",
                    "type": "uint256"
                }
            ],
            "stateMutability": "nonpayable",
            "type": "constructor"
        },
        {
            "inputs": [],
            "name": "acceptSetter",
            "outputs": [],
            "stateMutability": "nonpayable",
            "type": "function"
        },
        {
            "inputs": [],
            "name": "decimals",
            "outputs": [
                {
                    "internalType": "uint256",
                    "name": "",
                    "type": "uint256"
                }
            ],
            "stateMutability": "view",
            "type": "function"
        },
        {
            "inputs": [],
            "name": "divConst",
            "outputs": [
                {
                    "internalType": "uint24",
                    "name": "",
                    "type": "uint24"
                }
            ],
            "stateMutability": "view",
            "type": "function"
        },
        {
            "inputs": [],
            "name": "feeDRate",
            "outputs": [
                {
                    "internalType": "uint8",
                    "name": "",
                    "type": "uint8"
                }
            ],
            "stateMutability": "view",
            "type": "function"
        },
        {
            "inputs": [],
            "name": "getCurrentPriceSlideRate",
            "outputs": [
                {
                    "internalType": "uint256",
                    "name": "",
                    "type": "uint256"
                },
                {
                    "internalType": "uint256",
                    "name": "",
                    "type": "uint256"
                },
                {
                    "internalType": "uint256",
                    "name": "",
                    "type": "uint256"
                },
                {
                    "internalType": "uint256",
                    "name": "",
                    "type": "uint256"
                }
            ],
            "stateMutability": "view",
            "type": "function"
        },
        {
            "inputs": [],
            "name": "halfNumber",
            "outputs": [
                {
                    "internalType": "uint8",
                    "name": "",
                    "type": "uint8"
                }
            ],
            "stateMutability": "view",
            "type": "function"
        },
        {
            "inputs": [],
            "name": "indexPrice",
            "outputs": [
                {
                    "internalType": "uint256",
                    "name": "",
                    "type": "uint256"
                },
                {
                    "internalType": "uint256",
                    "name": "",
                    "type": "uint256"
                },
                {
                    "internalType": "uint256",
                    "name": "",
                    "type": "uint256"
                },
                {
                    "internalType": "uint256",
                    "name": "",
                    "type": "uint256"
                }
            ],
            "stateMutability": "view",
            "type": "function"
        },
        {
            "inputs": [],
            "name": "maxSlideRate",
            "outputs": [
                {
                    "internalType": "uint16",
                    "name": "",
                    "type": "uint16"
                }
            ],
            "stateMutability": "view",
            "type": "function"
        },
        {
            "inputs": [],
            "name": "owner",
            "outputs": [
                {
                    "internalType": "address",
                    "name": "",
                    "type": "address"
                }
            ],
            "stateMutability": "view",
            "type": "function"
        },
        {
            "inputs": [
                {
                    "internalType": "uint256",
                    "name": "value",
                    "type": "uint256"
                },
                {
                    "internalType": "uint256",
                    "name": "deadline",
                    "type": "uint256"
                }
            ],
            "name": "postPrice",
            "outputs": [],
            "stateMutability": "nonpayable",
            "type": "function"
        },
        {
            "inputs": [
                {
                    "internalType": "address",
                    "name": "",
                    "type": "address"
                }
            ],
            "name": "posters",
            "outputs": [
                {
                    "internalType": "int8",
                    "name": "",
                    "type": "int8"
                }
            ],
            "stateMutability": "view",
            "type": "function"
        },
        {
            "inputs": [
                {
                    "internalType": "address",
                    "name": "poster",
                    "type": "address"
                },
                {
                    "internalType": "int8",
                    "name": "value",
                    "type": "int8"
                }
            ],
            "name": "setPosters",
            "outputs": [],
            "stateMutability": "nonpayable",
            "type": "function"
        },
        {
            "inputs": [],
            "name": "slideP",
            "outputs": [
                {
                    "internalType": "uint8",
                    "name": "",
                    "type": "uint8"
                }
            ],
            "stateMutability": "view",
            "type": "function"
        },
        {
            "inputs": [],
            "name": "slideScale",
            "outputs": [
                {
                    "internalType": "uint24",
                    "name": "",
                    "type": "uint24"
                }
            ],
            "stateMutability": "view",
            "type": "function"
        },
        {
            "inputs": [],
            "name": "symbol",
            "outputs": [
                {
                    "internalType": "bytes32",
                    "name": "",
                    "type": "bytes32"
                }
            ],
            "stateMutability": "view",
            "type": "function"
        },
        {
            "inputs": [
                {
                    "internalType": "address",
                    "name": "_owner",
                    "type": "address"
                }
            ],
            "name": "transferOwner",
            "outputs": [],
            "stateMutability": "nonpayable",
            "type": "function"
        }
    ],
    "bytecode": "608060405234801561001057600080fd5b50604051610a1b380380610a1b83398101604081905261002f916100d6565b81604051602001610040919061018c565b60408051601f198184030181529181528151602092830120600255600080546001600160a01b03191633908117825560039490945592835260089091529020805460ff19166006179055506101a8565b634e487b7160e01b600052604160045260246000fd5b60005b838110156100c15781810151838201526020016100a9565b838111156100d0576000848401525b50505050565b600080604083850312156100e957600080fd5b82516001600160401b038082111561010057600080fd5b818501915085601f83011261011457600080fd5b81518181111561012657610126610090565b604051601f8201601f19908116603f0116810190838211818310171561014e5761014e610090565b8160405282815288602084870101111561016757600080fd5b6101788360208301602088016100a6565b602097909701519698969750505050505050565b6000825161019e8184602087016100a6565b9190910192915050565b610864806101b76000396000f3fe608060405234801561001057600080fd5b50600436106101005760003560e01c80637e018d5c116100975780639fdd409b116100665780639fdd409b14610240578063b163078714610253578063dc3b903d1461025b578063f3b795bd1461026357600080fd5b80637e018d5c146101e65780637e4856c4146102025780638da5cb5b1461020c57806395d89b411461023757600080fd5b80634fb2e45d116100d35780634fb2e45d146101785780635f8e422f1461018b5780635fd4d58a1461019357806374828310146101b157600080fd5b806310bace8c1461010557806317c836fa146101325780632c204fa814610147578063313ce56714610161575b600080fd5b61010d61026b565b6040805194855260208501939093529183015260608201526080015b60405180910390f35b61014561014036600461070b565b6102e0565b005b61014f600581565b60405160ff9091168152602001610129565b61016a61271081565b604051908152602001610129565b610145610186366004610749565b61050a565b610145610572565b61019d6201adb081565b60405162ffffff9091168152602001610129565b6101d36101bf366004610749565b600860205260009081526040812054900b81565b60405160009190910b8152602001610129565b6101ef6107d081565b60405161ffff9091168152602001610129565b61019d620186a081565b60005461021f906001600160a01b031681565b6040516001600160a01b039091168152602001610129565b61016a60025481565b61014561024e36600461076b565b6105df565b61010d61064a565b61014f607881565b61014f601981565b60008060008060008061027c61064a565b5050915091506000620186a062ffffff168360035461029b91906107be565b6102a591906107dd565b90506000620186a062ffffff16836003546102c091906107be565b6102ca91906107dd565b6003549992985096506127109550909350505050565b804281101561031a5760405162461bcd60e51b81526020600482015260016024820152600360fc1b60448201526064015b60405180910390fd5b336000908152600860205260408120546006910b1461035f5760405162461bcd60e51b81526020600482015260016024820152603160f81b6044820152606401610311565b600083116103935760405162461bcd60e51b81526020600482015260016024820152601960f91b6044820152606401610311565b61039b61064a565b6007556005556006556004556003546000908411156103c8576003546103c190856107ff565b90506103d9565b836003546103d691906107ff565b90505b6003546000906103ec620186a0846107be565b6103f691906107dd565b905060788111156104fe576000620186a06201adb06104166078856107ff565b61042091906107be565b61042a91906107dd565b90506107d081111561043b57506107d05b60035486111561045e57600454811115610459576004819055436005555b610472565b600654811115610472576006819055436007555b6107d082106104fc576003548611156104bf57600354620186a090610499906107d06107be565b6104a391906107dd565b600360008282546104b49190610816565b909155506104f49050565b600354620186a0906104d3906107d06107be565b6104dd91906107dd565b600360008282546104ee91906107ff565b90915550505b505050505050565b505b50506003839055505050565b6000546001600160a01b031633146105505760405162461bcd60e51b81526020600482015260096024820152683337b93134b23232b760b91b6044820152606401610311565b600180546001600160a01b0319166001600160a01b0392909216919091179055565b6001546001600160a01b031633146105b85760405162461bcd60e51b81526020600482015260096024820152683337b93134b23232b760b91b6044820152606401610311565b60018054600080546001600160a01b03199081166001600160a01b03841617909155169055565b6000546001600160a01b0316331461061d5760405162461bcd60e51b81526020600482015260016024820152603160f81b6044820152606401610311565b6001600160a01b03919091166000908152600860205260409020805460ff191660ff909216919091179055565b60045460065460055460009283928392839291905b600583111561069e5743610674601983610816565b111561067f5761069e565b61068a601982610816565b90506106976002846107dd565b925061065f565b6007545b60058311156106e157436106b7601983610816565b11156106c2576106e1565b6106cd601982610816565b90506106da6002846107dd565b92506106a2565b60058410156106ef57600593505b60058310156106fd57600592505b929791965094509092509050565b6000806040838503121561071e57600080fd5b50508035926020909101359150565b80356001600160a01b038116811461074457600080fd5b919050565b60006020828403121561075b57600080fd5b6107648261072d565b9392505050565b6000806040838503121561077e57600080fd5b6107878361072d565b915060208301358060000b811461079d57600080fd5b809150509250929050565b634e487b7160e01b600052601160045260246000fd5b60008160001904831182151516156107d8576107d86107a8565b500290565b6000826107fa57634e487b7160e01b600052601260045260246000fd5b500490565b600082821015610811576108116107a8565b500390565b60008219821115610829576108296107a8565b50019056fea2646970667358221220ccceae17293e0e989ce88320cdce6ace8f6d6dd1c422257497493ae20a6f0c3164736f6c634300080c0033",
    "sourcePath": "d:/contract/hedgex/TriplePost.sol",
    "compiler": {
        "name": "solc",
        "version": "0.8.12+commit.f00d7308"
    },
    "functionHashes": {
        "acceptSetter()": "5f8e422f",
        "decimals()": "313ce567",
        "divConst()": "7e4856c4",
        "feeDRate()": "dc3b903d",
        "getCurrentPriceSlideRate()": "b1630787",
        "halfNumber()": "f3b795bd",
        "indexPrice()": "10bace8c",
        "maxSlideRate()": "7e018d5c",
        "owner()": "8da5cb5b",
        "postPrice(uint256,uint256)": "17c836fa",
        "posters(address)": "74828310",
        "setPosters(address,int8)": "9fdd409b",
        "slideP()": "2c204fa8",
        "slideScale()": "5fd4d58a",
        "symbol()": "95d89b41",
        "transferOwner(address)": "4fb2e45d"
    },
    "gasEstimates": {
        "creation": {
            "codeDepositCost": "429600",
            "executionCost": "infinite",
            "totalCost": "infinite"
        },
        "external": {
            "acceptSetter()": "50804",
            "decimals()": "285",
            "divConst()": "249",
            "feeDRate()": "270",
            "getCurrentPriceSlideRate()": "infinite",
            "halfNumber()": "292",
            "indexPrice()": "infinite",
            "maxSlideRate()": "227",
            "owner()": "2404",
            "postPrice(uint256,uint256)": "infinite",
            "posters(address)": "2630",
            "setPosters(address,int8)": "26861",
            "slideP()": "272",
            "slideScale()": "271",
            "symbol()": "2384",
            "transferOwner(address)": "26734"
        }
    }
}