{
    "contractName": "TripleIndexPrice",
    "abi": [
        {
            "inputs": [
                {
                    "internalType": "string",
                    "name": "_symbol",
                    "type": "string"
                },
                {
                    "internalType": "uint256",
                    "name": "_priceDecimal",
                    "type": "uint256"
                }
            ],
            "stateMutability": "nonpayable",
            "type": "constructor"
        },
        {
            "inputs": [],
            "name": "acceptSetter",
            "outputs": [],
            "stateMutability": "nonpayable",
            "type": "function"
        },
        {
            "inputs": [],
            "name": "decimals",
            "outputs": [
                {
                    "internalType": "uint256",
                    "name": "",
                    "type": "uint256"
                }
            ],
            "stateMutability": "view",
            "type": "function"
        },
        {
            "inputs": [],
            "name": "indexPrice",
            "outputs": [
                {
                    "internalType": "uint256",
                    "name": "",
                    "type": "uint256"
                },
                {
                    "internalType": "uint256",
                    "name": "",
                    "type": "uint256"
                },
                {
                    "internalType": "uint256",
                    "name": "",
                    "type": "uint256"
                }
            ],
            "stateMutability": "view",
            "type": "function"
        },
        {
            "inputs": [],
            "name": "owner",
            "outputs": [
                {
                    "internalType": "address",
                    "name": "",
                    "type": "address"
                }
            ],
            "stateMutability": "view",
            "type": "function"
        },
        {
            "inputs": [
                {
                    "internalType": "bytes32",
                    "name": "_symbol",
                    "type": "bytes32"
                },
                {
                    "internalType": "uint256",
                    "name": "value",
                    "type": "uint256"
                },
                {
                    "internalType": "uint256",
                    "name": "deadline",
                    "type": "uint256"
                }
            ],
            "name": "postPrice",
            "outputs": [],
            "stateMutability": "nonpayable",
            "type": "function"
        },
        {
            "inputs": [],
            "name": "symbol",
            "outputs": [
                {
                    "internalType": "bytes32",
                    "name": "",
                    "type": "bytes32"
                }
            ],
            "stateMutability": "view",
            "type": "function"
        },
        {
            "inputs": [
                {
                    "internalType": "address",
                    "name": "_owner",
                    "type": "address"
                }
            ],
            "name": "transferOwner",
            "outputs": [],
            "stateMutability": "nonpayable",
            "type": "function"
        },
        {
            "inputs": [],
            "name": "updateAt",
            "outputs": [
                {
                    "internalType": "uint256",
                    "name": "",
                    "type": "uint256"
                }
            ],
            "stateMutability": "view",
            "type": "function"
        }
    ],
    "bytecode": "60a060405234801561001057600080fd5b5060405161050538038061050583398101604081905261002f916100bc565b816040516020016100409190610172565b60408051601f19818403018152919052805160209091012060035560805250600080546001600160a01b0319163317905561018e565b634e487b7160e01b600052604160045260246000fd5b60005b838110156100a757818101518382015260200161008f565b838111156100b6576000848401525b50505050565b600080604083850312156100cf57600080fd5b82516001600160401b03808211156100e657600080fd5b818501915085601f8301126100fa57600080fd5b81518181111561010c5761010c610076565b604051601f8201601f19908116603f0116810190838211818310171561013457610134610076565b8160405282815288602084870101111561014d57600080fd5b61015e83602083016020880161008c565b602097909701519698969750505050505050565b6000825161018481846020870161008c565b9190910192915050565b6080516103576101ae60003960008181609c015260d501526103576000f3fe608060405234801561001057600080fd5b50600436106100885760003560e01c80638da5cb5b1161005b5780638da5cb5b1461012257806395d89b411461014d578063c964f58514610156578063fc35a44b1461015f57600080fd5b806310bace8c1461008d578063313ce567146100d05780634fb2e45d146101055780635f8e422f1461011a575b600080fd5b600454600254604080519283527f000000000000000000000000000000000000000000000000000000000000000060208401528201526060015b60405180910390f35b6100f77f000000000000000000000000000000000000000000000000000000000000000081565b6040519081526020016100c7565b6101186101133660046102c5565b610172565b005b6101186101df565b600054610135906001600160a01b031681565b6040516001600160a01b0390911681526020016100c7565b6100f760035481565b6100f760025481565b61011861016d3660046102f5565b61024c565b6000546001600160a01b031633146101bd5760405162461bcd60e51b81526020600482015260096024820152683337b93134b23232b760b91b60448201526064015b60405180910390fd5b600180546001600160a01b0319166001600160a01b0392909216919091179055565b6001546001600160a01b031633146102255760405162461bcd60e51b81526020600482015260096024820152683337b93134b23232b760b91b60448201526064016101b4565b60018054600080546001600160a01b03199081166001600160a01b03841617909155169055565b80428110156102875760405162461bcd60e51b81526020600482015260076024820152661156141254915160ca1b60448201526064016101b4565b6000546001600160a01b0316331461029e57600080fd5b83600354146102ac57600080fd5b600083116102b957600080fd5b50506004555042600255565b6000602082840312156102d757600080fd5b81356001600160a01b03811681146102ee57600080fd5b9392505050565b60008060006060848603121561030a57600080fd5b50508135936020830135935060409092013591905056fea2646970667358221220102bc908ce2d5196f887695f55ebd5558da38efbb6a3aa7f6828111b5e42ccff64736f6c634300080b0033",
    "sourcePath": "d:/contract/hedgex/TriplePost.sol",
    "compiler": {
        "name": "solc",
        "version": "0.8.11+commit.d7f03943"
    },
    "functionHashes": {
        "acceptSetter()": "5f8e422f",
        "decimals()": "313ce567",
        "indexPrice()": "10bace8c",
        "owner()": "8da5cb5b",
        "postPrice(bytes32,uint256,uint256)": "fc35a44b",
        "symbol()": "95d89b41",
        "transferOwner(address)": "4fb2e45d",
        "updateAt()": "c964f585"
    },
    "gasEstimates": {
        "creation": {
            "codeDepositCost": "171000",
            "executionCost": "infinite",
            "totalCost": "infinite"
        },
        "external": {
            "acceptSetter()": "50826",
            "decimals()": "infinite",
            "indexPrice()": "infinite",
            "owner()": "2337",
            "postPrice(bytes32,uint256,uint256)": "48861",
            "symbol()": "2317",
            "transferOwner(address)": "26721",
            "updateAt()": "2339"
        }
    }
}