{
    "contractName": "TripleIndexPrice",
    "abi": [
        {
            "inputs": [
                {
                    "internalType": "string",
                    "name": "_symbol",
                    "type": "string"
                },
                {
                    "internalType": "uint256",
                    "name": "_priceDecimal",
                    "type": "uint256"
                },
                {
                    "internalType": "uint8",
                    "name": "_feeDRate",
                    "type": "uint8"
                },
                {
                    "internalType": "uint256",
                    "name": "value",
                    "type": "uint256"
                },
                {
                    "internalType": "uint8",
                    "name": "_halfNumber",
                    "type": "uint8"
                }
            ],
            "stateMutability": "nonpayable",
            "type": "constructor"
        },
        {
            "inputs": [],
            "name": "acceptSetter",
            "outputs": [],
            "stateMutability": "nonpayable",
            "type": "function"
        },
        {
            "inputs": [],
            "name": "decimals",
            "outputs": [
                {
                    "internalType": "uint256",
                    "name": "",
                    "type": "uint256"
                }
            ],
            "stateMutability": "view",
            "type": "function"
        },
        {
            "inputs": [],
            "name": "divConst",
            "outputs": [
                {
                    "internalType": "uint24",
                    "name": "",
                    "type": "uint24"
                }
            ],
            "stateMutability": "view",
            "type": "function"
        },
        {
            "inputs": [],
            "name": "feeDRate",
            "outputs": [
                {
                    "internalType": "uint8",
                    "name": "",
                    "type": "uint8"
                }
            ],
            "stateMutability": "view",
            "type": "function"
        },
        {
            "inputs": [],
            "name": "getCurrentPriceSlideRate",
            "outputs": [
                {
                    "internalType": "uint256",
                    "name": "",
                    "type": "uint256"
                },
                {
                    "internalType": "uint256",
                    "name": "",
                    "type": "uint256"
                }
            ],
            "stateMutability": "view",
            "type": "function"
        },
        {
            "inputs": [],
            "name": "halfNumber",
            "outputs": [
                {
                    "internalType": "uint8",
                    "name": "",
                    "type": "uint8"
                }
            ],
            "stateMutability": "view",
            "type": "function"
        },
        {
            "inputs": [],
            "name": "indexPrice",
            "outputs": [
                {
                    "internalType": "uint256",
                    "name": "",
                    "type": "uint256"
                },
                {
                    "internalType": "uint256",
                    "name": "",
                    "type": "uint256"
                },
                {
                    "internalType": "int256",
                    "name": "",
                    "type": "int256"
                }
            ],
            "stateMutability": "view",
            "type": "function"
        },
        {
            "inputs": [],
            "name": "maxSlideRate",
            "outputs": [
                {
                    "internalType": "uint16",
                    "name": "",
                    "type": "uint16"
                }
            ],
            "stateMutability": "view",
            "type": "function"
        },
        {
            "inputs": [],
            "name": "owner",
            "outputs": [
                {
                    "internalType": "address",
                    "name": "",
                    "type": "address"
                }
            ],
            "stateMutability": "view",
            "type": "function"
        },
        {
            "inputs": [
                {
                    "internalType": "uint256",
                    "name": "value",
                    "type": "uint256"
                },
                {
                    "internalType": "uint256",
                    "name": "deadline",
                    "type": "uint256"
                }
            ],
            "name": "postPrice",
            "outputs": [],
            "stateMutability": "nonpayable",
            "type": "function"
        },
        {
            "inputs": [
                {
                    "internalType": "address",
                    "name": "",
                    "type": "address"
                }
            ],
            "name": "posters",
            "outputs": [
                {
                    "internalType": "int8",
                    "name": "",
                    "type": "int8"
                }
            ],
            "stateMutability": "view",
            "type": "function"
        },
        {
            "inputs": [
                {
                    "internalType": "uint8",
                    "name": "value",
                    "type": "uint8"
                }
            ],
            "name": "setHalfNumber",
            "outputs": [],
            "stateMutability": "nonpayable",
            "type": "function"
        },
        {
            "inputs": [
                {
                    "internalType": "address",
                    "name": "poster",
                    "type": "address"
                },
                {
                    "internalType": "int8",
                    "name": "value",
                    "type": "int8"
                }
            ],
            "name": "setPosters",
            "outputs": [],
            "stateMutability": "nonpayable",
            "type": "function"
        },
        {
            "inputs": [],
            "name": "slideP",
            "outputs": [
                {
                    "internalType": "uint8",
                    "name": "",
                    "type": "uint8"
                }
            ],
            "stateMutability": "view",
            "type": "function"
        },
        {
            "inputs": [],
            "name": "slideScale",
            "outputs": [
                {
                    "internalType": "uint24",
                    "name": "",
                    "type": "uint24"
                }
            ],
            "stateMutability": "view",
            "type": "function"
        },
        {
            "inputs": [],
            "name": "symbol",
            "outputs": [
                {
                    "internalType": "bytes32",
                    "name": "",
                    "type": "bytes32"
                }
            ],
            "stateMutability": "view",
            "type": "function"
        },
        {
            "inputs": [
                {
                    "internalType": "address",
                    "name": "_owner",
                    "type": "address"
                }
            ],
            "name": "transferOwner",
            "outputs": [],
            "stateMutability": "nonpayable",
            "type": "function"
        }
    ],
    "bytecode": "60c06040526001805460ff60a01b1916600560a21b1790553480156200002457600080fd5b5060405162000c2738038062000c27833981016040819052620000479162000143565b846040516020016200005a919062000236565b60408051601f19818403018152918152815160209283012060025560a095909552600080546001600160a01b03191633908117825560ff9586166080526003949094556006805460ff1990811660019081178355805495909716600160a01b0260ff60a01b19909516949094179095559283526007905292902080549092161790555062000254565b634e487b7160e01b600052604160045260246000fd5b60005b8381101562000116578181015183820152602001620000fc565b8381111562000126576000848401525b50505050565b805160ff811681146200013e57600080fd5b919050565b600080600080600060a086880312156200015c57600080fd5b85516001600160401b03808211156200017457600080fd5b818801915088601f8301126200018957600080fd5b8151818111156200019e576200019e620000e3565b604051601f8201601f19908116603f01168101908382118183101715620001c957620001c9620000e3565b816040528281528b6020848701011115620001e357600080fd5b620001f6836020830160208801620000f9565b80995050505050506020860151935062000213604087016200012c565b9250606086015191506200022a608087016200012c565b90509295509295909350565b600082516200024a818460208701620000f9565b9190910192915050565b60805160a0516109986200028f6000396000818161016c015261032c0152600081816102ac01528181610456015261049001526109986000f3fe608060405234801561001057600080fd5b506004361061010b5760003560e01c806374828310116100a257806395d89b411161007157806395d89b411461026e5780639fdd409b14610277578063b16307871461028a578063dc3b903d146102a7578063f3b795bd146102ce57600080fd5b806374828310146101e85780637e018d5c1461021d5780637e4856c4146102395780638da5cb5b1461024357600080fd5b8063339475c1116100de578063339475c11461019c5780634fb2e45d146101af5780635f8e422f146101c25780635fd4d58a146101ca57600080fd5b806310bace8c1461011057806317c836fa146101385780632c204fa81461014d578063313ce56714610167575b600080fd5b6101186102e2565b604080519384526020840192909252908201526060015b60405180910390f35b61014b61014636600461077c565b610356565b005b610155600581565b60405160ff909116815260200161012f565b61018e7f000000000000000000000000000000000000000000000000000000000000000081565b60405190815260200161012f565b61014b6101aa36600461079e565b61058c565b61014b6101bd3660046107e4565b6105d6565b61014b61063e565b6101d46201adb081565b60405162ffffff909116815260200161012f565b61020a6101f63660046107e4565b600760205260009081526040812054900b81565b60405160009190910b815260200161012f565b6102266107d081565b60405161ffff909116815260200161012f565b6101d4620186a081565b600054610256906001600160a01b031681565b6040516001600160a01b03909116815260200161012f565b61018e60025481565b61014b6102853660046107ff565b6106ab565b610292610702565b6040805192835260208301919091520161012f565b6101557f000000000000000000000000000000000000000000000000000000000000000081565b60015461015590600160a01b900460ff1681565b6000806000806102f0610702565b5090506000620186a062ffffff168260035461030c9190610852565b6103169190610871565b600654610326919060000b610893565b600354967f0000000000000000000000000000000000000000000000000000000000000000965090945092505050565b80428110156103905760405162461bcd60e51b81526020600482015260016024820152600360fc1b60448201526064015b60405180910390fd5b336000908152600760205260408120546006910b146103c15760405162461bcd60e51b815260040161038790610918565b600083116103f55760405162461bcd60e51b81526020600482015260016024820152601960f91b6044820152606401610387565b6103fd610702565b6005556004556003546000908411156104245760035461041d9085610933565b9050610435565b836003546104329190610933565b90505b600354600090610448620186a084610852565b6104529190610871565b90507f000000000000000000000000000000000000000000000000000000000000000060ff1681111561051a576000620186a06201adb06104b660ff7f00000000000000000000000000000000000000000000000000000000000000001685610933565b6104c09190610852565b6104ca9190610871565b90506107d08111156104db57506107d05b6004548111156105185760048190554360055560035486111561050a576006805460ff19166001179055610518565b6006805460ff191660ff1790555b505b6004546107d0141561057f57600354620186a09061053a906107d0610852565b6105449190610871565b915060035485111561056d578160036000828254610562919061094a565b909155506105859050565b81600360008282546105629190610933565b60038590555b5050505050565b6000546001600160a01b031633146105b65760405162461bcd60e51b815260040161038790610918565b6001805460ff909216600160a01b0260ff60a01b19909216919091179055565b6000546001600160a01b0316331461061c5760405162461bcd60e51b81526020600482015260096024820152683337b93134b23232b760b91b6044820152606401610387565b600180546001600160a01b0319166001600160a01b0392909216919091179055565b6001546001600160a01b031633146106845760405162461bcd60e51b81526020600482015260096024820152683337b93134b23232b760b91b6044820152606401610387565b60018054600080546001600160a01b03199081166001600160a01b03841617909155169055565b6000546001600160a01b031633146106d55760405162461bcd60e51b815260040161038790610918565b6001600160a01b03919091166000908152600760205260409020805460ff191660ff909216919091179055565b60045460055460009182915b600582111561076657600154439061073090600160a01b900460ff168361094a565b111561073b57610766565b60015461075290600160a01b900460ff168261094a565b905061075f600283610871565b915061070e565b6005821161077357600591505b90939092509050565b6000806040838503121561078f57600080fd5b50508035926020909101359150565b6000602082840312156107b057600080fd5b813560ff811681146107c157600080fd5b9392505050565b80356001600160a01b03811681146107df57600080fd5b919050565b6000602082840312156107f657600080fd5b6107c1826107c8565b6000806040838503121561081257600080fd5b61081b836107c8565b915060208301358060000b811461083157600080fd5b809150509250929050565b634e487b7160e01b600052601160045260246000fd5b600081600019048311821515161561086c5761086c61083c565b500290565b60008261088e57634e487b7160e01b600052601260045260246000fd5b500490565b60006001600160ff1b03818413828413808216868404861116156108b9576108b961083c565b600160ff1b60008712828116878305891216156108d8576108d861083c565b600087129250878205871284841616156108f4576108f461083c565b8785058712818416161561090a5761090a61083c565b505050929093029392505050565b6020808252600190820152603160f81b604082015260600190565b6000828210156109455761094561083c565b500390565b6000821982111561095d5761095d61083c565b50019056fea2646970667358221220766527a3da9f30b0ad6e87f456630b6ee22111a31f19f1c8e4e34024ba13d0ec64736f6c634300080c0033",
    "sourcePath": "d:/contract/hedgex/TriplePost.sol",
    "compiler": {
        "name": "solc",
        "version": "0.8.12+commit.f00d7308"
    },
    "functionHashes": {
        "acceptSetter()": "5f8e422f",
        "decimals()": "313ce567",
        "divConst()": "7e4856c4",
        "feeDRate()": "dc3b903d",
        "getCurrentPriceSlideRate()": "b1630787",
        "halfNumber()": "f3b795bd",
        "indexPrice()": "10bace8c",
        "maxSlideRate()": "7e018d5c",
        "owner()": "8da5cb5b",
        "postPrice(uint256,uint256)": "17c836fa",
        "posters(address)": "74828310",
        "setHalfNumber(uint8)": "339475c1",
        "setPosters(address,int8)": "9fdd409b",
        "slideP()": "2c204fa8",
        "slideScale()": "5fd4d58a",
        "symbol()": "95d89b41",
        "transferOwner(address)": "4fb2e45d"
    },
    "gasEstimates": {
        "creation": {
            "codeDepositCost": "491200",
            "executionCost": "infinite",
            "totalCost": "infinite"
        },
        "external": {
            "acceptSetter()": "50826",
            "decimals()": "infinite",
            "divConst()": "271",
            "feeDRate()": "infinite",
            "getCurrentPriceSlideRate()": "infinite",
            "halfNumber()": "2440",
            "indexPrice()": "infinite",
            "maxSlideRate()": "249",
            "owner()": "2426",
            "postPrice(uint256,uint256)": "infinite",
            "posters(address)": "2564",
            "setHalfNumber(uint8)": "26686",
            "setPosters(address,int8)": "26883",
            "slideP()": "272",
            "slideScale()": "293",
            "symbol()": "2317",
            "transferOwner(address)": "26756"
        }
    }
}