{
    "contractName": "TripleIndexPrice",
    "abi": [
        {
            "inputs": [
                {
                    "internalType": "string",
                    "name": "_symbol",
                    "type": "string"
                },
                {
                    "internalType": "uint256",
                    "name": "_priceDecimal",
                    "type": "uint256"
                },
                {
                    "internalType": "uint8",
                    "name": "_feeDRate",
                    "type": "uint8"
                },
                {
                    "internalType": "uint256",
                    "name": "value",
                    "type": "uint256"
                }
            ],
            "stateMutability": "nonpayable",
            "type": "constructor"
        },
        {
            "inputs": [],
            "name": "acceptSetter",
            "outputs": [],
            "stateMutability": "nonpayable",
            "type": "function"
        },
        {
            "inputs": [],
            "name": "decimals",
            "outputs": [
                {
                    "internalType": "uint256",
                    "name": "",
                    "type": "uint256"
                }
            ],
            "stateMutability": "view",
            "type": "function"
        },
        {
            "inputs": [],
            "name": "divConst",
            "outputs": [
                {
                    "internalType": "uint16",
                    "name": "",
                    "type": "uint16"
                }
            ],
            "stateMutability": "view",
            "type": "function"
        },
        {
            "inputs": [],
            "name": "feeDRate",
            "outputs": [
                {
                    "internalType": "uint8",
                    "name": "",
                    "type": "uint8"
                }
            ],
            "stateMutability": "view",
            "type": "function"
        },
        {
            "inputs": [],
            "name": "getCurrentPriceSlideRate",
            "outputs": [
                {
                    "internalType": "uint256",
                    "name": "",
                    "type": "uint256"
                },
                {
                    "internalType": "uint256",
                    "name": "",
                    "type": "uint256"
                }
            ],
            "stateMutability": "view",
            "type": "function"
        },
        {
            "inputs": [],
            "name": "halfNumber",
            "outputs": [
                {
                    "internalType": "uint8",
                    "name": "",
                    "type": "uint8"
                }
            ],
            "stateMutability": "view",
            "type": "function"
        },
        {
            "inputs": [],
            "name": "indexPrice",
            "outputs": [
                {
                    "internalType": "uint256",
                    "name": "",
                    "type": "uint256"
                },
                {
                    "internalType": "uint256",
                    "name": "",
                    "type": "uint256"
                },
                {
                    "internalType": "int256",
                    "name": "",
                    "type": "int256"
                }
            ],
            "stateMutability": "view",
            "type": "function"
        },
        {
            "inputs": [],
            "name": "maxSlideRate",
            "outputs": [
                {
                    "internalType": "uint8",
                    "name": "",
                    "type": "uint8"
                }
            ],
            "stateMutability": "view",
            "type": "function"
        },
        {
            "inputs": [],
            "name": "owner",
            "outputs": [
                {
                    "internalType": "address",
                    "name": "",
                    "type": "address"
                }
            ],
            "stateMutability": "view",
            "type": "function"
        },
        {
            "inputs": [
                {
                    "internalType": "uint256",
                    "name": "value",
                    "type": "uint256"
                },
                {
                    "internalType": "uint256",
                    "name": "deadline",
                    "type": "uint256"
                }
            ],
            "name": "postPrice",
            "outputs": [],
            "stateMutability": "nonpayable",
            "type": "function"
        },
        {
            "inputs": [],
            "name": "slideScale",
            "outputs": [
                {
                    "internalType": "uint16",
                    "name": "",
                    "type": "uint16"
                }
            ],
            "stateMutability": "view",
            "type": "function"
        },
        {
            "inputs": [],
            "name": "symbol",
            "outputs": [
                {
                    "internalType": "bytes32",
                    "name": "",
                    "type": "bytes32"
                }
            ],
            "stateMutability": "view",
            "type": "function"
        },
        {
            "inputs": [
                {
                    "internalType": "address",
                    "name": "_owner",
                    "type": "address"
                }
            ],
            "name": "transferOwner",
            "outputs": [],
            "stateMutability": "nonpayable",
            "type": "function"
        },
        {
            "inputs": [],
            "name": "updateAt",
            "outputs": [
                {
                    "internalType": "uint256",
                    "name": "",
                    "type": "uint256"
                }
            ],
            "stateMutability": "view",
            "type": "function"
        }
    ],
    "bytecode": "60c060405234801561001057600080fd5b50604051610a21380380610a2183398101604081905261002f916100eb565b8360405160200161004091906101bb565b60408051601f19818403018152919052805160209091012060035560a092909252600080546001600160a01b0319163317905560ff16608052600455506007805460ff191660011790556101d7565b634e487b7160e01b600052604160045260246000fd5b60005b838110156100c05781810151838201526020016100a8565b838111156100cf576000848401525b50505050565b805160ff811681146100e657600080fd5b919050565b6000806000806080858703121561010157600080fd5b84516001600160401b038082111561011857600080fd5b818701915087601f83011261012c57600080fd5b81518181111561013e5761013e61008f565b604051601f8201601f19908116603f011681019083821181831017156101665761016661008f565b816040528281528a602084870101111561017f57600080fd5b6101908360208301602088016100a5565b8098505050505050602085015192506101ab604086016100d5565b6060959095015193969295505050565b600082516101cd8184602087016100a5565b9190910192915050565b60805160a05161080261021f60003960008181610131015261028c01526000818161021a015281816103c2015281816103fa015281816105d8015261063901526108026000f3fe608060405234801561001057600080fd5b50600436106100ea5760003560e01c80637e4856c41161008c578063b163078711610066578063b1630787146101ef578063c964f5851461020c578063dc3b903d14610215578063f3b795bd1461023c57600080fd5b80637e4856c4146101b25780638da5cb5b146101bb57806395d89b41146101e657600080fd5b80634fb2e45d116100c85780634fb2e45d146101615780635f8e422f146101745780635fd4d58a1461017c5780637e018d5c1461019857600080fd5b806310bace8c146100ef57806317c836fa14610117578063313ce5671461012c575b600080fd5b6100f7610244565b604080519384526020840192909252908201526060015b60405180910390f35b61012a61012536600461066f565b6102b6565b005b6101537f000000000000000000000000000000000000000000000000000000000000000081565b60405190815260200161010e565b61012a61016f366004610691565b6104f5565b61012a61055d565b610185612af881565b60405161ffff909116815260200161010e565b6101a060c881565b60405160ff909116815260200161010e565b61018561271081565b6000546101ce906001600160a01b031681565b6040516001600160a01b03909116815260200161010e565b61015360035481565b6101f76105ca565b6040805192835260208301919091520161010e565b61015360025481565b6101a07f000000000000000000000000000000000000000000000000000000000000000081565b6101a0600181565b6000806000806102526105ca565b509050600061271061ffff168260045461026c91906106d7565b61027691906106f6565b600754610286919060000b610718565b600454967f0000000000000000000000000000000000000000000000000000000000000000965090945092505050565b80428110156102f05760405162461bcd60e51b81526020600482015260016024820152600360fc1b60448201526064015b60405180910390fd5b6000546001600160a01b0316331461032e5760405162461bcd60e51b81526020600482015260016024820152603160f81b60448201526064016102e7565b600083116103625760405162461bcd60e51b81526020600482015260016024820152601960f91b60448201526064016102e7565b61036a6105ca565b6006556005556004546000908411156103915760045461038a908561079d565b90506103a2565b8060045461039f919061079d565b90505b6004546000906103b4612710846106d7565b6103be91906106f6565b90507f000000000000000000000000000000000000000000000000000000000000000060ff16811115610482576000612710612af861042060ff7f0000000000000000000000000000000000000000000000000000000000000000168561079d565b61042a91906106d7565b61043491906106f6565b905060c8811115610443575060c85b60055481111561048057600581905543600655600454861115610472576007805460ff19166001179055610480565b6007805460ff191660ff1790555b505b60055460c814156104e4576004546127109061049f9060c86106d7565b6104a991906106f6565b91506004548511156104d25781600460008282546104c791906107b4565b909155506104ea9050565b81600460008282546104c7919061079d565b60048590555b505042600255505050565b6000546001600160a01b0316331461053b5760405162461bcd60e51b81526020600482015260096024820152683337b93134b23232b760b91b60448201526064016102e7565b600180546001600160a01b0319166001600160a01b0392909216919091179055565b6001546001600160a01b031633146105a35760405162461bcd60e51b81526020600482015260096024820152683337b93134b23232b760b91b60448201526064016102e7565b60018054600080546001600160a01b03199081166001600160a01b03841617909155169055565b60055460065460009182915b7f000000000000000000000000000000000000000000000000000000000000000060ff16821115610637574361060d6001836107b4565b111561061857610637565b6106236001826107b4565b90506106306002836106f6565b91506105d6565b7f000000000000000000000000000000000000000000000000000000000000000060ff16821161066657600091505b90939092509050565b6000806040838503121561068257600080fd5b50508035926020909101359150565b6000602082840312156106a357600080fd5b81356001600160a01b03811681146106ba57600080fd5b9392505050565b634e487b7160e01b600052601160045260246000fd5b60008160001904831182151516156106f1576106f16106c1565b500290565b60008261071357634e487b7160e01b600052601260045260246000fd5b500490565b60006001600160ff1b038184138284138082168684048611161561073e5761073e6106c1565b600160ff1b600087128281168783058912161561075d5761075d6106c1565b60008712925087820587128484161615610779576107796106c1565b8785058712818416161561078f5761078f6106c1565b505050929093029392505050565b6000828210156107af576107af6106c1565b500390565b600082198211156107c7576107c76106c1565b50019056fea26469706673582212201e7ab4fb232e8ee69a72e611c346ab153139ea07eeda29f88406111a4fbeff3864736f6c634300080c0033",
    "sourcePath": "d:/contract/hedgex/TriplePost.sol",
    "compiler": {
        "name": "solc",
        "version": "0.8.12+commit.f00d7308"
    },
    "functionHashes": {
        "acceptSetter()": "5f8e422f",
        "decimals()": "313ce567",
        "divConst()": "7e4856c4",
        "feeDRate()": "dc3b903d",
        "getCurrentPriceSlideRate()": "b1630787",
        "halfNumber()": "f3b795bd",
        "indexPrice()": "10bace8c",
        "maxSlideRate()": "7e018d5c",
        "owner()": "8da5cb5b",
        "postPrice(uint256,uint256)": "17c836fa",
        "slideScale()": "5fd4d58a",
        "symbol()": "95d89b41",
        "transferOwner(address)": "4fb2e45d",
        "updateAt()": "c964f585"
    },
    "gasEstimates": {
        "creation": {
            "codeDepositCost": "410000",
            "executionCost": "infinite",
            "totalCost": "infinite"
        },
        "external": {
            "acceptSetter()": "50804",
            "decimals()": "infinite",
            "divConst()": "227",
            "feeDRate()": "infinite",
            "getCurrentPriceSlideRate()": "infinite",
            "halfNumber()": "292",
            "indexPrice()": "infinite",
            "maxSlideRate()": "293",
            "owner()": "2382",
            "postPrice(uint256,uint256)": "infinite",
            "slideScale()": "271",
            "symbol()": "2362",
            "transferOwner(address)": "26699",
            "updateAt()": "2339"
        }
    }
}