{
    "contractName": "TripleIndexPrice",
    "abi": [
        {
            "inputs": [
                {
                    "internalType": "string",
                    "name": "_symbol",
                    "type": "string"
                },
                {
                    "internalType": "uint256",
                    "name": "_priceDecimal",
                    "type": "uint256"
                }
            ],
            "stateMutability": "nonpayable",
            "type": "constructor"
        },
        {
            "inputs": [],
            "name": "decimals",
            "outputs": [
                {
                    "internalType": "uint256",
                    "name": "",
                    "type": "uint256"
                }
            ],
            "stateMutability": "view",
            "type": "function"
        },
        {
            "inputs": [],
            "name": "indexPrice",
            "outputs": [
                {
                    "internalType": "uint256",
                    "name": "",
                    "type": "uint256"
                },
                {
                    "internalType": "uint256",
                    "name": "",
                    "type": "uint256"
                },
                {
                    "internalType": "uint256",
                    "name": "",
                    "type": "uint256"
                }
            ],
            "stateMutability": "view",
            "type": "function"
        },
        {
            "inputs": [
                {
                    "internalType": "bytes32",
                    "name": "_symbol",
                    "type": "bytes32"
                },
                {
                    "internalType": "uint256",
                    "name": "value",
                    "type": "uint256"
                }
            ],
            "name": "postPrice",
            "outputs": [],
            "stateMutability": "nonpayable",
            "type": "function"
        },
        {
            "inputs": [],
            "name": "symbol",
            "outputs": [
                {
                    "internalType": "bytes32",
                    "name": "",
                    "type": "bytes32"
                }
            ],
            "stateMutability": "view",
            "type": "function"
        },
        {
            "inputs": [],
            "name": "tripleSetter",
            "outputs": [
                {
                    "internalType": "address",
                    "name": "",
                    "type": "address"
                }
            ],
            "stateMutability": "view",
            "type": "function"
        },
        {
            "inputs": [],
            "name": "updateAt",
            "outputs": [
                {
                    "internalType": "uint256",
                    "name": "",
                    "type": "uint256"
                }
            ],
            "stateMutability": "view",
            "type": "function"
        }
    ],
    "bytecode": "60a060405234801561001057600080fd5b5060405161037338038061037383398101604081905261002f916100bc565b816040516020016100409190610172565b60408051601f19818403018152919052805160209091012060015560805250600380546001600160a01b0319163317905561018e565b634e487b7160e01b600052604160045260246000fd5b60005b838110156100a757818101518382015260200161008f565b838111156100b6576000848401525b50505050565b600080604083850312156100cf57600080fd5b82516001600160401b03808211156100e657600080fd5b818501915085601f8301126100fa57600080fd5b81518181111561010c5761010c610076565b604051601f8201601f19908116603f0116810190838211818310171561013457610134610076565b8160405282815288602084870101111561014d57600080fd5b61015e83602083016020880161008c565b602097909701519698969750505050505050565b6000825161018481846020870161008c565b9190910192915050565b6080516101c56101ae600039600081816076015260af01526101c56000f3fe608060405234801561001057600080fd5b50600436106100625760003560e01c806310bace8c14610067578063313ce567146100aa57806395d89b41146100df578063bcccb6dd146100e8578063bdccfa7114610113578063c964f58514610128575b600080fd5b600254600054604080519283527f000000000000000000000000000000000000000000000000000000000000000060208401528201526060015b60405180910390f35b6100d17f000000000000000000000000000000000000000000000000000000000000000081565b6040519081526020016100a1565b6100d160015481565b6003546100fb906001600160a01b031681565b6040516001600160a01b0390911681526020016100a1565b61012661012136600461016d565b610131565b005b6100d160005481565b6003546001600160a01b0316331461014857600080fd5b816001541461015657600080fd5b6000811161016357600080fd5b6002555042600055565b6000806040838503121561018057600080fd5b5050803592602090910135915056fea264697066735822122010cabc3e18d09962db65f7c7c7ff2c3bb713ba65ff15186bb03a4835d6fddff564736f6c634300080b0033",
    "sourcePath": "d:/contract/hedgex/TriplePost.sol",
    "compiler": {
        "name": "solc",
        "version": "0.8.11+commit.d7f03943"
    },
    "functionHashes": {
        "decimals()": "313ce567",
        "indexPrice()": "10bace8c",
        "postPrice(bytes32,uint256)": "bdccfa71",
        "symbol()": "95d89b41",
        "tripleSetter()": "bcccb6dd",
        "updateAt()": "c964f585"
    },
    "gasEstimates": {
        "creation": {
            "codeDepositCost": "90600",
            "executionCost": "infinite",
            "totalCost": "infinite"
        },
        "external": {
            "decimals()": "infinite",
            "indexPrice()": "infinite",
            "postPrice(bytes32,uint256)": "48806",
            "symbol()": "2317",
            "tripleSetter()": "2381",
            "updateAt()": "2383"
        }
    }
}